{
	"contracts/GoldVesting.sol": {
		"GoldTokenVesting": {
			"abi": [
				{
					"inputs": [
						{
							"internalType": "contract IERC20",
							"name": "_token",
							"type": "address"
						}
					],
					"stateMutability": "nonpayable",
					"type": "constructor"
				},
				{
					"anonymous": false,
					"inputs": [
						{
							"indexed": true,
							"internalType": "address",
							"name": "previousOwner",
							"type": "address"
						},
						{
							"indexed": true,
							"internalType": "address",
							"name": "newOwner",
							"type": "address"
						}
					],
					"name": "OwnershipTransferred",
					"type": "event"
				},
				{
					"anonymous": false,
					"inputs": [
						{
							"indexed": true,
							"internalType": "uint256",
							"name": "vestingId",
							"type": "uint256"
						},
						{
							"indexed": true,
							"internalType": "address",
							"name": "beneficiary",
							"type": "address"
						},
						{
							"indexed": false,
							"internalType": "uint256",
							"name": "amount",
							"type": "uint256"
						}
					],
					"name": "TokenVestingAdded",
					"type": "event"
				},
				{
					"anonymous": false,
					"inputs": [
						{
							"indexed": true,
							"internalType": "uint256",
							"name": "vestingId",
							"type": "uint256"
						},
						{
							"indexed": true,
							"internalType": "address",
							"name": "beneficiary",
							"type": "address"
						},
						{
							"indexed": false,
							"internalType": "uint256",
							"name": "amount",
							"type": "uint256"
						}
					],
					"name": "TokenVestingReleased",
					"type": "event"
				},
				{
					"anonymous": false,
					"inputs": [
						{
							"indexed": true,
							"internalType": "uint256",
							"name": "vestingId",
							"type": "uint256"
						},
						{
							"indexed": true,
							"internalType": "address",
							"name": "beneficiary",
							"type": "address"
						},
						{
							"indexed": false,
							"internalType": "uint256",
							"name": "amount",
							"type": "uint256"
						}
					],
					"name": "TokenVestingRemoved",
					"type": "event"
				},
				{
					"inputs": [
						{
							"internalType": "address",
							"name": "_beneficiary",
							"type": "address"
						},
						{
							"internalType": "uint256",
							"name": "_releaseTime",
							"type": "uint256"
						},
						{
							"internalType": "uint256",
							"name": "_amount",
							"type": "uint256"
						}
					],
					"name": "addVesting",
					"outputs": [],
					"stateMutability": "nonpayable",
					"type": "function"
				},
				{
					"inputs": [
						{
							"internalType": "uint256",
							"name": "_vestingId",
							"type": "uint256"
						}
					],
					"name": "beneficiary",
					"outputs": [
						{
							"internalType": "address",
							"name": "",
							"type": "address"
						}
					],
					"stateMutability": "view",
					"type": "function"
				},
				{
					"inputs": [],
					"name": "getTime",
					"outputs": [
						{
							"internalType": "uint256",
							"name": "",
							"type": "uint256"
						}
					],
					"stateMutability": "view",
					"type": "function"
				},
				{
					"inputs": [],
					"name": "owner",
					"outputs": [
						{
							"internalType": "address",
							"name": "",
							"type": "address"
						}
					],
					"stateMutability": "view",
					"type": "function"
				},
				{
					"inputs": [
						{
							"internalType": "uint256",
							"name": "_vestingId",
							"type": "uint256"
						}
					],
					"name": "release",
					"outputs": [],
					"stateMutability": "nonpayable",
					"type": "function"
				},
				{
					"inputs": [
						{
							"internalType": "uint256",
							"name": "_vestingId",
							"type": "uint256"
						}
					],
					"name": "releaseTime",
					"outputs": [
						{
							"internalType": "uint256",
							"name": "",
							"type": "uint256"
						}
					],
					"stateMutability": "view",
					"type": "function"
				},
				{
					"inputs": [
						{
							"internalType": "uint256",
							"name": "_vestingId",
							"type": "uint256"
						}
					],
					"name": "removeVesting",
					"outputs": [],
					"stateMutability": "nonpayable",
					"type": "function"
				},
				{
					"inputs": [],
					"name": "renounceOwnership",
					"outputs": [],
					"stateMutability": "nonpayable",
					"type": "function"
				},
				{
					"inputs": [
						{
							"internalType": "uint256",
							"name": "_amount",
							"type": "uint256"
						}
					],
					"name": "retrieveExcessTokens",
					"outputs": [],
					"stateMutability": "nonpayable",
					"type": "function"
				},
				{
					"inputs": [],
					"name": "token",
					"outputs": [
						{
							"internalType": "contract IERC20",
							"name": "",
							"type": "address"
						}
					],
					"stateMutability": "view",
					"type": "function"
				},
				{
					"inputs": [
						{
							"internalType": "address",
							"name": "newOwner",
							"type": "address"
						}
					],
					"name": "transferOwnership",
					"outputs": [],
					"stateMutability": "nonpayable",
					"type": "function"
				},
				{
					"inputs": [
						{
							"internalType": "uint256",
							"name": "_vestingId",
							"type": "uint256"
						}
					],
					"name": "vestingAmount",
					"outputs": [
						{
							"internalType": "uint256",
							"name": "",
							"type": "uint256"
						}
					],
					"stateMutability": "view",
					"type": "function"
				},
				{
					"inputs": [
						{
							"internalType": "uint256",
							"name": "",
							"type": "uint256"
						}
					],
					"name": "vestings",
					"outputs": [
						{
							"internalType": "uint256",
							"name": "releaseTime",
							"type": "uint256"
						},
						{
							"internalType": "uint256",
							"name": "amount",
							"type": "uint256"
						},
						{
							"internalType": "address",
							"name": "beneficiary",
							"type": "address"
						},
						{
							"internalType": "bool",
							"name": "released",
							"type": "bool"
						}
					],
					"stateMutability": "view",
					"type": "function"
				}
			],
			"devdoc": {
				"kind": "dev",
				"methods": {
					"owner()": {
						"details": "Returns the address of the current owner."
					},
					"renounceOwnership()": {
						"details": "Leaves the contract without owner. It will not be possible to call `onlyOwner` functions anymore. Can only be called by the current owner. NOTE: Renouncing ownership will leave the contract without an owner, thereby removing any functionality that is only available to the owner."
					},
					"transferOwnership(address)": {
						"details": "Transfers ownership of the contract to a new account (`newOwner`). Can only be called by the current owner."
					}
				},
				"version": 1
			},
			"evm": {
				"assembly": "    /* \"contracts/GoldVesting.sol\":258:4122  contract GoldTokenVesting is Ownable {... */\n  mstore(0x40, 0x80)\n    /* \"contracts/GoldVesting.sol\":427:428  0 */\n  0x00\n    /* \"contracts/GoldVesting.sol\":396:428  uint256 private tokensToVest = 0 */\n  0x02\n  sstore\n    /* \"contracts/GoldVesting.sol\":462:463  0 */\n  0x00\n    /* \"contracts/GoldVesting.sol\":434:463  uint256 private vestingId = 0 */\n  0x03\n  sstore\n    /* \"contracts/GoldVesting.sol\":1343:1494  constructor(IERC20 _token) {... */\n  callvalue\n  dup1\n  iszero\n  tag_1\n  jumpi\n  0x00\n  dup1\n  revert\ntag_1:\n  pop\n  mload(0x40)\n  sub(codesize, bytecodeSize)\n  dup1\n  bytecodeSize\n  dup4\n  codecopy\n  dup2\n  dup2\n  add\n  0x40\n  mstore\n  dup2\n  add\n  swap1\n  tag_2\n  swap2\n  swap1\n  tag_3\n  jump\t// in\ntag_2:\n    /* \"openzeppelin-solidity/contracts/access/Ownable.sol\":921:953  _transferOwnership(_msgSender()) */\n  tag_7\n    /* \"openzeppelin-solidity/contracts/access/Ownable.sol\":940:952  _msgSender() */\n  tag_8\n    /* \"openzeppelin-solidity/contracts/access/Ownable.sol\":940:950  _msgSender */\n  shl(0x20, tag_9)\n    /* \"openzeppelin-solidity/contracts/access/Ownable.sol\":940:952  _msgSender() */\n  0x20\n  shr\n  jump\t// in\ntag_8:\n    /* \"openzeppelin-solidity/contracts/access/Ownable.sol\":921:939  _transferOwnership */\n  shl(0x20, tag_10)\n    /* \"openzeppelin-solidity/contracts/access/Ownable.sol\":921:953  _transferOwnership(_msgSender()) */\n  0x20\n  shr\n  jump\t// in\ntag_7:\n    /* \"contracts/GoldVesting.sol\":1415:1418  0x0 */\n  0x00\n    /* \"contracts/GoldVesting.sol\":1388:1419  address(_token) != address(0x0) */\n  0xffffffffffffffffffffffffffffffffffffffff\n  and\n    /* \"contracts/GoldVesting.sol\":1396:1402  _token */\n  dup2\n    /* \"contracts/GoldVesting.sol\":1388:1419  address(_token) != address(0x0) */\n  0xffffffffffffffffffffffffffffffffffffffff\n  and\n  sub\n    /* \"contracts/GoldVesting.sol\":1380:1459  require(address(_token) != address(0x0), \"Frontier token address is not valid\") */\n  tag_12\n  jumpi\n  mload(0x40)\n  0x08c379a000000000000000000000000000000000000000000000000000000000\n  dup2\n  mstore\n  0x04\n  add\n  tag_13\n  swap1\n  tag_14\n  jump\t// in\ntag_13:\n  mload(0x40)\n  dup1\n  swap2\n  sub\n  swap1\n  revert\ntag_12:\n    /* \"contracts/GoldVesting.sol\":1481:1487  _token */\n  dup1\n    /* \"contracts/GoldVesting.sol\":1469:1478  goldToken */\n  0x01\n  0x00\n    /* \"contracts/GoldVesting.sol\":1469:1487  goldToken = _token */\n  0x0100\n  exp\n  dup2\n  sload\n  dup2\n  0xffffffffffffffffffffffffffffffffffffffff\n  mul\n  not\n  and\n  swap1\n  dup4\n  0xffffffffffffffffffffffffffffffffffffffff\n  and\n  mul\n  or\n  swap1\n  sstore\n  pop\n    /* \"contracts/GoldVesting.sol\":1343:1494  constructor(IERC20 _token) {... */\n  pop\n    /* \"contracts/GoldVesting.sol\":258:4122  contract GoldTokenVesting is Ownable {... */\n  jump(tag_15)\n    /* \"openzeppelin-solidity/contracts/utils/Context.sol\":640:736  function _msgSender() internal view virtual returns (address) {... */\ntag_9:\n    /* \"openzeppelin-solidity/contracts/utils/Context.sol\":693:700  address */\n  0x00\n    /* \"openzeppelin-solidity/contracts/utils/Context.sol\":719:729  msg.sender */\n  caller\n    /* \"openzeppelin-solidity/contracts/utils/Context.sol\":712:729  return msg.sender */\n  swap1\n  pop\n    /* \"openzeppelin-solidity/contracts/utils/Context.sol\":640:736  function _msgSender() internal view virtual returns (address) {... */\n  swap1\n  jump\t// out\n    /* \"openzeppelin-solidity/contracts/access/Ownable.sol\":2270:2457  function _transferOwnership(address newOwner) internal virtual {... */\ntag_10:\n    /* \"openzeppelin-solidity/contracts/access/Ownable.sol\":2343:2359  address oldOwner */\n  0x00\n    /* \"openzeppelin-solidity/contracts/access/Ownable.sol\":2362:2368  _owner */\n  dup1\n  0x00\n  swap1\n  sload\n  swap1\n  0x0100\n  exp\n  swap1\n  div\n  0xffffffffffffffffffffffffffffffffffffffff\n  and\n    /* \"openzeppelin-solidity/contracts/access/Ownable.sol\":2343:2368  address oldOwner = _owner */\n  swap1\n  pop\n    /* \"openzeppelin-solidity/contracts/access/Ownable.sol\":2387:2395  newOwner */\n  dup2\n    /* \"openzeppelin-solidity/contracts/access/Ownable.sol\":2378:2384  _owner */\n  0x00\n  dup1\n    /* \"openzeppelin-solidity/contracts/access/Ownable.sol\":2378:2395  _owner = newOwner */\n  0x0100\n  exp\n  dup2\n  sload\n  dup2\n  0xffffffffffffffffffffffffffffffffffffffff\n  mul\n  not\n  and\n  swap1\n  dup4\n  0xffffffffffffffffffffffffffffffffffffffff\n  and\n  mul\n  or\n  swap1\n  sstore\n  pop\n    /* \"openzeppelin-solidity/contracts/access/Ownable.sol\":2441:2449  newOwner */\n  dup2\n    /* \"openzeppelin-solidity/contracts/access/Ownable.sol\":2410:2450  OwnershipTransferred(oldOwner, newOwner) */\n  0xffffffffffffffffffffffffffffffffffffffff\n  and\n    /* \"openzeppelin-solidity/contracts/access/Ownable.sol\":2431:2439  oldOwner */\n  dup2\n    /* \"openzeppelin-solidity/contracts/access/Ownable.sol\":2410:2450  OwnershipTransferred(oldOwner, newOwner) */\n  0xffffffffffffffffffffffffffffffffffffffff\n  and\n  0x8be0079c531659141344cd1fd0a4f28419497f9722a3daafe3b4186f6b6457e0\n  mload(0x40)\n  mload(0x40)\n  dup1\n  swap2\n  sub\n  swap1\n  log3\n    /* \"openzeppelin-solidity/contracts/access/Ownable.sol\":2333:2457  {... */\n  pop\n    /* \"openzeppelin-solidity/contracts/access/Ownable.sol\":2270:2457  function _transferOwnership(address newOwner) internal virtual {... */\n  pop\n  jump\t// out\n    /* \"#utility.yul\":88:205   */\ntag_19:\n    /* \"#utility.yul\":197:198   */\n  0x00\n    /* \"#utility.yul\":194:195   */\n  dup1\n    /* \"#utility.yul\":187:199   */\n  revert\n    /* \"#utility.yul\":334:460   */\ntag_21:\n    /* \"#utility.yul\":371:378   */\n  0x00\n    /* \"#utility.yul\":411:453   */\n  0xffffffffffffffffffffffffffffffffffffffff\n    /* \"#utility.yul\":404:409   */\n  dup3\n    /* \"#utility.yul\":400:454   */\n  and\n    /* \"#utility.yul\":389:454   */\n  swap1\n  pop\n    /* \"#utility.yul\":334:460   */\n  swap2\n  swap1\n  pop\n  jump\t// out\n    /* \"#utility.yul\":466:562   */\ntag_22:\n    /* \"#utility.yul\":503:510   */\n  0x00\n    /* \"#utility.yul\":532:556   */\n  tag_35\n    /* \"#utility.yul\":550:555   */\n  dup3\n    /* \"#utility.yul\":532:556   */\n  tag_21\n  jump\t// in\ntag_35:\n    /* \"#utility.yul\":521:556   */\n  swap1\n  pop\n    /* \"#utility.yul\":466:562   */\n  swap2\n  swap1\n  pop\n  jump\t// out\n    /* \"#utility.yul\":568:678   */\ntag_23:\n    /* \"#utility.yul\":619:626   */\n  0x00\n    /* \"#utility.yul\":648:672   */\n  tag_37\n    /* \"#utility.yul\":666:671   */\n  dup3\n    /* \"#utility.yul\":648:672   */\n  tag_22\n  jump\t// in\ntag_37:\n    /* \"#utility.yul\":637:672   */\n  swap1\n  pop\n    /* \"#utility.yul\":568:678   */\n  swap2\n  swap1\n  pop\n  jump\t// out\n    /* \"#utility.yul\":684:834   */\ntag_24:\n    /* \"#utility.yul\":771:809   */\n  tag_39\n    /* \"#utility.yul\":803:808   */\n  dup2\n    /* \"#utility.yul\":771:809   */\n  tag_23\n  jump\t// in\ntag_39:\n    /* \"#utility.yul\":764:769   */\n  dup2\n    /* \"#utility.yul\":761:810   */\n  eq\n    /* \"#utility.yul\":751:828   */\n  tag_40\n  jumpi\n    /* \"#utility.yul\":824:825   */\n  0x00\n    /* \"#utility.yul\":821:822   */\n  dup1\n    /* \"#utility.yul\":814:826   */\n  revert\n    /* \"#utility.yul\":751:828   */\ntag_40:\n    /* \"#utility.yul\":684:834   */\n  pop\n  jump\t// out\n    /* \"#utility.yul\":840:1011   */\ntag_25:\n    /* \"#utility.yul\":911:916   */\n  0x00\n    /* \"#utility.yul\":942:948   */\n  dup2\n    /* \"#utility.yul\":936:949   */\n  mload\n    /* \"#utility.yul\":927:949   */\n  swap1\n  pop\n    /* \"#utility.yul\":958:1005   */\n  tag_42\n    /* \"#utility.yul\":999:1004   */\n  dup2\n    /* \"#utility.yul\":958:1005   */\n  tag_24\n  jump\t// in\ntag_42:\n    /* \"#utility.yul\":840:1011   */\n  swap3\n  swap2\n  pop\n  pop\n  jump\t// out\n    /* \"#utility.yul\":1017:1396   */\ntag_3:\n    /* \"#utility.yul\":1101:1107   */\n  0x00\n    /* \"#utility.yul\":1150:1152   */\n  0x20\n    /* \"#utility.yul\":1138:1147   */\n  dup3\n    /* \"#utility.yul\":1129:1136   */\n  dup5\n    /* \"#utility.yul\":1125:1148   */\n  sub\n    /* \"#utility.yul\":1121:1153   */\n  slt\n    /* \"#utility.yul\":1118:1237   */\n  iszero\n  tag_44\n  jumpi\n    /* \"#utility.yul\":1156:1235   */\n  tag_45\n  tag_19\n  jump\t// in\ntag_45:\n    /* \"#utility.yul\":1118:1237   */\ntag_44:\n    /* \"#utility.yul\":1276:1277   */\n  0x00\n    /* \"#utility.yul\":1301:1379   */\n  tag_46\n    /* \"#utility.yul\":1371:1378   */\n  dup5\n    /* \"#utility.yul\":1362:1368   */\n  dup3\n    /* \"#utility.yul\":1351:1360   */\n  dup6\n    /* \"#utility.yul\":1347:1369   */\n  add\n    /* \"#utility.yul\":1301:1379   */\n  tag_25\n  jump\t// in\ntag_46:\n    /* \"#utility.yul\":1291:1379   */\n  swap2\n  pop\n    /* \"#utility.yul\":1247:1389   */\n  pop\n    /* \"#utility.yul\":1017:1396   */\n  swap3\n  swap2\n  pop\n  pop\n  jump\t// out\n    /* \"#utility.yul\":1402:1571   */\ntag_26:\n    /* \"#utility.yul\":1486:1497   */\n  0x00\n    /* \"#utility.yul\":1520:1526   */\n  dup3\n    /* \"#utility.yul\":1515:1518   */\n  dup3\n    /* \"#utility.yul\":1508:1527   */\n  mstore\n    /* \"#utility.yul\":1560:1564   */\n  0x20\n    /* \"#utility.yul\":1555:1558   */\n  dup3\n    /* \"#utility.yul\":1551:1565   */\n  add\n    /* \"#utility.yul\":1536:1565   */\n  swap1\n  pop\n    /* \"#utility.yul\":1402:1571   */\n  swap3\n  swap2\n  pop\n  pop\n  jump\t// out\n    /* \"#utility.yul\":1577:1799   */\ntag_27:\n    /* \"#utility.yul\":1717:1751   */\n  0x46726f6e7469657220746f6b656e2061646472657373206973206e6f74207661\n    /* \"#utility.yul\":1713:1714   */\n  0x00\n    /* \"#utility.yul\":1705:1711   */\n  dup3\n    /* \"#utility.yul\":1701:1715   */\n  add\n    /* \"#utility.yul\":1694:1752   */\n  mstore\n    /* \"#utility.yul\":1786:1791   */\n  0x6c69640000000000000000000000000000000000000000000000000000000000\n    /* \"#utility.yul\":1781:1783   */\n  0x20\n    /* \"#utility.yul\":1773:1779   */\n  dup3\n    /* \"#utility.yul\":1769:1784   */\n  add\n    /* \"#utility.yul\":1762:1792   */\n  mstore\n    /* \"#utility.yul\":1577:1799   */\n  pop\n  jump\t// out\n    /* \"#utility.yul\":1805:2171   */\ntag_28:\n    /* \"#utility.yul\":1947:1950   */\n  0x00\n    /* \"#utility.yul\":1968:2035   */\n  tag_50\n    /* \"#utility.yul\":2032:2034   */\n  0x23\n    /* \"#utility.yul\":2027:2030   */\n  dup4\n    /* \"#utility.yul\":1968:2035   */\n  tag_26\n  jump\t// in\ntag_50:\n    /* \"#utility.yul\":1961:2035   */\n  swap2\n  pop\n    /* \"#utility.yul\":2044:2137   */\n  tag_51\n    /* \"#utility.yul\":2133:2136   */\n  dup3\n    /* \"#utility.yul\":2044:2137   */\n  tag_27\n  jump\t// in\ntag_51:\n    /* \"#utility.yul\":2162:2164   */\n  0x40\n    /* \"#utility.yul\":2157:2160   */\n  dup3\n    /* \"#utility.yul\":2153:2165   */\n  add\n    /* \"#utility.yul\":2146:2165   */\n  swap1\n  pop\n    /* \"#utility.yul\":1805:2171   */\n  swap2\n  swap1\n  pop\n  jump\t// out\n    /* \"#utility.yul\":2177:2596   */\ntag_14:\n    /* \"#utility.yul\":2343:2347   */\n  0x00\n    /* \"#utility.yul\":2381:2383   */\n  0x20\n    /* \"#utility.yul\":2370:2379   */\n  dup3\n    /* \"#utility.yul\":2366:2384   */\n  add\n    /* \"#utility.yul\":2358:2384   */\n  swap1\n  pop\n    /* \"#utility.yul\":2430:2439   */\n  dup2\n    /* \"#utility.yul\":2424:2428   */\n  dup2\n    /* \"#utility.yul\":2420:2440   */\n  sub\n    /* \"#utility.yul\":2416:2417   */\n  0x00\n    /* \"#utility.yul\":2405:2414   */\n  dup4\n    /* \"#utility.yul\":2401:2418   */\n  add\n    /* \"#utility.yul\":2394:2441   */\n  mstore\n    /* \"#utility.yul\":2458:2589   */\n  tag_53\n    /* \"#utility.yul\":2584:2588   */\n  dup2\n    /* \"#utility.yul\":2458:2589   */\n  tag_28\n  jump\t// in\ntag_53:\n    /* \"#utility.yul\":2450:2589   */\n  swap1\n  pop\n    /* \"#utility.yul\":2177:2596   */\n  swap2\n  swap1\n  pop\n  jump\t// out\n    /* \"contracts/GoldVesting.sol\":258:4122  contract GoldTokenVesting is Ownable {... */\ntag_15:\n  dataSize(sub_0)\n  dup1\n  dataOffset(sub_0)\n  0x00\n  codecopy\n  0x00\n  return\nstop\n\nsub_0: assembly {\n        /* \"contracts/GoldVesting.sol\":258:4122  contract GoldTokenVesting is Ownable {... */\n      mstore(0x40, 0x80)\n      callvalue\n      dup1\n      iszero\n      tag_1\n      jumpi\n      0x00\n      dup1\n      revert\n    tag_1:\n      pop\n      jumpi(tag_2, lt(calldatasize, 0x04))\n      shr(0xe0, calldataload(0x00))\n      dup1\n      0x5daa3160\n      gt\n      tag_16\n      jumpi\n      dup1\n      0x821bee73\n      gt\n      tag_17\n      jumpi\n      dup1\n      0x821bee73\n      eq\n      tag_12\n      jumpi\n      dup1\n      0x8da5cb5b\n      eq\n      tag_13\n      jumpi\n      dup1\n      0xf2fde38b\n      eq\n      tag_14\n      jumpi\n      dup1\n      0xfc0c546a\n      eq\n      tag_15\n      jumpi\n      jump(tag_2)\n    tag_17:\n      dup1\n      0x5daa3160\n      eq\n      tag_9\n      jumpi\n      dup1\n      0x6eb48096\n      eq\n      tag_10\n      jumpi\n      dup1\n      0x715018a6\n      eq\n      tag_11\n      jumpi\n      jump(tag_2)\n    tag_16:\n      dup1\n      0x07ad23ef\n      eq\n      tag_3\n      jumpi\n      dup1\n      0x09c4bb2b\n      eq\n      tag_4\n      jumpi\n      dup1\n      0x1bcde4ec\n      eq\n      tag_5\n      jumpi\n      dup1\n      0x37bdc99b\n      eq\n      tag_6\n      jumpi\n      dup1\n      0x4691a998\n      eq\n      tag_7\n      jumpi\n      dup1\n      0x557ed1ba\n      eq\n      tag_8\n      jumpi\n    tag_2:\n      0x00\n      dup1\n      revert\n        /* \"contracts/GoldVesting.sol\":1854:1978  function vestingAmount(uint256 _vestingId) public view returns (uint256) {... */\n    tag_3:\n      tag_18\n      0x04\n      dup1\n      calldatasize\n      sub\n      dup2\n      add\n      swap1\n      tag_19\n      swap2\n      swap1\n      tag_20\n      jump\t// in\n    tag_19:\n      tag_21\n      jump\t// in\n    tag_18:\n      mload(0x40)\n      tag_22\n      swap2\n      swap1\n      tag_23\n      jump\t// in\n    tag_22:\n      mload(0x40)\n      dup1\n      swap2\n      sub\n      swap1\n      return\n        /* \"contracts/GoldVesting.sol\":1720:1847  function releaseTime(uint256 _vestingId) public view returns (uint256) {... */\n    tag_4:\n      tag_24\n      0x04\n      dup1\n      calldatasize\n      sub\n      dup2\n      add\n      swap1\n      tag_25\n      swap2\n      swap1\n      tag_20\n      jump\t// in\n    tag_25:\n      tag_26\n      jump\t// in\n    tag_24:\n      mload(0x40)\n      tag_27\n      swap2\n      swap1\n      tag_23\n      jump\t// in\n    tag_27:\n      mload(0x40)\n      dup1\n      swap2\n      sub\n      swap1\n      return\n        /* \"contracts/GoldVesting.sol\":1985:2418  function removeVesting(uint256 _vestingId) public onlyOwner {... */\n    tag_5:\n      tag_28\n      0x04\n      dup1\n      calldatasize\n      sub\n      dup2\n      add\n      swap1\n      tag_29\n      swap2\n      swap1\n      tag_20\n      jump\t// in\n    tag_29:\n      tag_30\n      jump\t// in\n    tag_28:\n      stop\n        /* \"contracts/GoldVesting.sol\":3086:3790  function release(uint256 _vestingId) public {... */\n    tag_6:\n      tag_31\n      0x04\n      dup1\n      calldatasize\n      sub\n      dup2\n      add\n      swap1\n      tag_32\n      swap2\n      swap1\n      tag_20\n      jump\t// in\n    tag_32:\n      tag_33\n      jump\t// in\n    tag_31:\n      stop\n        /* \"contracts/GoldVesting.sol\":2424:3075  function addVesting(address _beneficiary, uint256 _releaseTime, uint256 _amount) public onlyOwner {... */\n    tag_7:\n      tag_34\n      0x04\n      dup1\n      calldatasize\n      sub\n      dup2\n      add\n      swap1\n      tag_35\n      swap2\n      swap1\n      tag_36\n      jump\t// in\n    tag_35:\n      tag_37\n      jump\t// in\n    tag_34:\n      stop\n        /* \"contracts/GoldVesting.sol\":4032:4120  function getTime() public view returns (uint256) {... */\n    tag_8:\n      tag_38\n      tag_39\n      jump\t// in\n    tag_38:\n      mload(0x40)\n      tag_40\n      swap2\n      swap1\n      tag_23\n      jump\t// in\n    tag_40:\n      mload(0x40)\n      dup1\n      swap2\n      sub\n      swap1\n      return\n        /* \"contracts/GoldVesting.sol\":1586:1713  function beneficiary(uint256 _vestingId) public view returns (address) {... */\n    tag_9:\n      tag_41\n      0x04\n      dup1\n      calldatasize\n      sub\n      dup2\n      add\n      swap1\n      tag_42\n      swap2\n      swap1\n      tag_20\n      jump\t// in\n    tag_42:\n      tag_43\n      jump\t// in\n    tag_41:\n      mload(0x40)\n      tag_44\n      swap2\n      swap1\n      tag_45\n      jump\t// in\n    tag_44:\n      mload(0x40)\n      dup1\n      swap2\n      sub\n      swap1\n      return\n        /* \"contracts/GoldVesting.sol\":3801:4026  function retrieveExcessTokens(uint256 _amount) public onlyOwner {... */\n    tag_10:\n      tag_46\n      0x04\n      dup1\n      calldatasize\n      sub\n      dup2\n      add\n      swap1\n      tag_47\n      swap2\n      swap1\n      tag_20\n      jump\t// in\n    tag_47:\n      tag_48\n      jump\t// in\n    tag_46:\n      stop\n        /* \"openzeppelin-solidity/contracts/access/Ownable.sol\":1668:1769  function renounceOwnership() public virtual onlyOwner {... */\n    tag_11:\n      tag_49\n      tag_50\n      jump\t// in\n    tag_49:\n      stop\n        /* \"contracts/GoldVesting.sol\":984:1027  mapping(uint256 => Vesting) public vestings */\n    tag_12:\n      tag_51\n      0x04\n      dup1\n      calldatasize\n      sub\n      dup2\n      add\n      swap1\n      tag_52\n      swap2\n      swap1\n      tag_20\n      jump\t// in\n    tag_52:\n      tag_53\n      jump\t// in\n    tag_51:\n      mload(0x40)\n      tag_54\n      swap5\n      swap4\n      swap3\n      swap2\n      swap1\n      tag_55\n      jump\t// in\n    tag_54:\n      mload(0x40)\n      dup1\n      swap2\n      sub\n      swap1\n      return\n        /* \"openzeppelin-solidity/contracts/access/Ownable.sol\":1036:1121  function owner() public view virtual returns (address) {... */\n    tag_13:\n      tag_56\n      tag_57\n      jump\t// in\n    tag_56:\n      mload(0x40)\n      tag_58\n      swap2\n      swap1\n      tag_45\n      jump\t// in\n    tag_58:\n      mload(0x40)\n      dup1\n      swap2\n      sub\n      swap1\n      return\n        /* \"openzeppelin-solidity/contracts/access/Ownable.sol\":1918:2116  function transferOwnership(address newOwner) public virtual onlyOwner {... */\n    tag_14:\n      tag_59\n      0x04\n      dup1\n      calldatasize\n      sub\n      dup2\n      add\n      swap1\n      tag_60\n      swap2\n      swap1\n      tag_61\n      jump\t// in\n    tag_60:\n      tag_62\n      jump\t// in\n    tag_59:\n      stop\n        /* \"contracts/GoldVesting.sol\":1501:1580  function token() public view returns (IERC20) {... */\n    tag_15:\n      tag_63\n      tag_64\n      jump\t// in\n    tag_63:\n      mload(0x40)\n      tag_65\n      swap2\n      swap1\n      tag_66\n      jump\t// in\n    tag_65:\n      mload(0x40)\n      dup1\n      swap2\n      sub\n      swap1\n      return\n        /* \"contracts/GoldVesting.sol\":1854:1978  function vestingAmount(uint256 _vestingId) public view returns (uint256) {... */\n    tag_21:\n        /* \"contracts/GoldVesting.sol\":1918:1925  uint256 */\n      0x00\n        /* \"contracts/GoldVesting.sol\":1944:1952  vestings */\n      0x04\n        /* \"contracts/GoldVesting.sol\":1944:1964  vestings[_vestingId] */\n      0x00\n        /* \"contracts/GoldVesting.sol\":1953:1963  _vestingId */\n      dup4\n        /* \"contracts/GoldVesting.sol\":1944:1964  vestings[_vestingId] */\n      dup2\n      mstore\n      0x20\n      add\n      swap1\n      dup2\n      mstore\n      0x20\n      add\n      0x00\n      keccak256\n        /* \"contracts/GoldVesting.sol\":1944:1971  vestings[_vestingId].amount */\n      0x01\n      add\n      sload\n        /* \"contracts/GoldVesting.sol\":1937:1971  return vestings[_vestingId].amount */\n      swap1\n      pop\n        /* \"contracts/GoldVesting.sol\":1854:1978  function vestingAmount(uint256 _vestingId) public view returns (uint256) {... */\n      swap2\n      swap1\n      pop\n      jump\t// out\n        /* \"contracts/GoldVesting.sol\":1720:1847  function releaseTime(uint256 _vestingId) public view returns (uint256) {... */\n    tag_26:\n        /* \"contracts/GoldVesting.sol\":1782:1789  uint256 */\n      0x00\n        /* \"contracts/GoldVesting.sol\":1808:1816  vestings */\n      0x04\n        /* \"contracts/GoldVesting.sol\":1808:1828  vestings[_vestingId] */\n      0x00\n        /* \"contracts/GoldVesting.sol\":1817:1827  _vestingId */\n      dup4\n        /* \"contracts/GoldVesting.sol\":1808:1828  vestings[_vestingId] */\n      dup2\n      mstore\n      0x20\n      add\n      swap1\n      dup2\n      mstore\n      0x20\n      add\n      0x00\n      keccak256\n        /* \"contracts/GoldVesting.sol\":1808:1840  vestings[_vestingId].releaseTime */\n      0x00\n      add\n      sload\n        /* \"contracts/GoldVesting.sol\":1801:1840  return vestings[_vestingId].releaseTime */\n      swap1\n      pop\n        /* \"contracts/GoldVesting.sol\":1720:1847  function releaseTime(uint256 _vestingId) public view returns (uint256) {... */\n      swap2\n      swap1\n      pop\n      jump\t// out\n        /* \"contracts/GoldVesting.sol\":1985:2418  function removeVesting(uint256 _vestingId) public onlyOwner {... */\n    tag_30:\n        /* \"openzeppelin-solidity/contracts/access/Ownable.sol\":1259:1271  _msgSender() */\n      tag_70\n        /* \"openzeppelin-solidity/contracts/access/Ownable.sol\":1259:1269  _msgSender */\n      tag_71\n        /* \"openzeppelin-solidity/contracts/access/Ownable.sol\":1259:1271  _msgSender() */\n      jump\t// in\n    tag_70:\n        /* \"openzeppelin-solidity/contracts/access/Ownable.sol\":1248:1271  owner() == _msgSender() */\n      0xffffffffffffffffffffffffffffffffffffffff\n      and\n        /* \"openzeppelin-solidity/contracts/access/Ownable.sol\":1248:1255  owner() */\n      tag_72\n        /* \"openzeppelin-solidity/contracts/access/Ownable.sol\":1248:1253  owner */\n      tag_57\n        /* \"openzeppelin-solidity/contracts/access/Ownable.sol\":1248:1255  owner() */\n      jump\t// in\n    tag_72:\n        /* \"openzeppelin-solidity/contracts/access/Ownable.sol\":1248:1271  owner() == _msgSender() */\n      0xffffffffffffffffffffffffffffffffffffffff\n      and\n      eq\n        /* \"openzeppelin-solidity/contracts/access/Ownable.sol\":1240:1308  require(owner() == _msgSender(), \"Ownable: caller is not the owner\") */\n      tag_73\n      jumpi\n      mload(0x40)\n      0x08c379a000000000000000000000000000000000000000000000000000000000\n      dup2\n      mstore\n      0x04\n      add\n      tag_74\n      swap1\n      tag_75\n      jump\t// in\n    tag_74:\n      mload(0x40)\n      dup1\n      swap2\n      sub\n      swap1\n      revert\n    tag_73:\n        /* \"contracts/GoldVesting.sol\":2055:2078  Vesting storage vesting */\n      0x00\n        /* \"contracts/GoldVesting.sol\":2081:2089  vestings */\n      0x04\n        /* \"contracts/GoldVesting.sol\":2081:2101  vestings[_vestingId] */\n      0x00\n        /* \"contracts/GoldVesting.sol\":2090:2100  _vestingId */\n      dup4\n        /* \"contracts/GoldVesting.sol\":2081:2101  vestings[_vestingId] */\n      dup2\n      mstore\n      0x20\n      add\n      swap1\n      dup2\n      mstore\n      0x20\n      add\n      0x00\n      keccak256\n        /* \"contracts/GoldVesting.sol\":2055:2101  Vesting storage vesting = vestings[_vestingId] */\n      swap1\n      pop\n        /* \"contracts/GoldVesting.sol\":2150:2153  0x0 */\n      0x00\n        /* \"contracts/GoldVesting.sol\":2119:2154  vesting.beneficiary != address(0x0) */\n      0xffffffffffffffffffffffffffffffffffffffff\n      and\n        /* \"contracts/GoldVesting.sol\":2119:2126  vesting */\n      dup2\n        /* \"contracts/GoldVesting.sol\":2119:2138  vesting.beneficiary */\n      0x02\n      add\n      0x00\n      swap1\n      sload\n      swap1\n      0x0100\n      exp\n      swap1\n      div\n      0xffffffffffffffffffffffffffffffffffffffff\n      and\n        /* \"contracts/GoldVesting.sol\":2119:2154  vesting.beneficiary != address(0x0) */\n      0xffffffffffffffffffffffffffffffffffffffff\n      and\n      eq\n      iszero\n        /* \"contracts/GoldVesting.sol\":2156:2174  INVALID_VESTING_ID */\n      mload(0x40)\n      dup1\n      0x40\n      add\n      0x40\n      mstore\n      dup1\n      0x12\n      dup2\n      mstore\n      0x20\n      add\n      0x496e76616c69642076657374696e672069640000000000000000000000000000\n      dup2\n      mstore\n      pop\n        /* \"contracts/GoldVesting.sol\":2111:2175  require(vesting.beneficiary != address(0x0), INVALID_VESTING_ID) */\n      swap1\n      tag_77\n      jumpi\n      mload(0x40)\n      0x08c379a000000000000000000000000000000000000000000000000000000000\n      dup2\n      mstore\n      0x04\n      add\n      tag_78\n      swap2\n      swap1\n      tag_79\n      jump\t// in\n    tag_78:\n      mload(0x40)\n      dup1\n      swap2\n      sub\n      swap1\n      revert\n    tag_77:\n      pop\n        /* \"contracts/GoldVesting.sol\":2194:2201  vesting */\n      dup1\n        /* \"contracts/GoldVesting.sol\":2194:2210  vesting.released */\n      0x02\n      add\n      0x14\n      swap1\n      sload\n      swap1\n      0x0100\n      exp\n      swap1\n      div\n      0xff\n      and\n        /* \"contracts/GoldVesting.sol\":2193:2210  !vesting.released */\n      iszero\n        /* \"contracts/GoldVesting.sol\":2213:2237  VESTING_ALREADY_RELEASED */\n      mload(0x40)\n      dup1\n      0x40\n      add\n      0x40\n      mstore\n      dup1\n      0x18\n      dup2\n      mstore\n      0x20\n      add\n      0x56657374696e6720616c72656164792072656c65617365640000000000000000\n      dup2\n      mstore\n      pop\n        /* \"contracts/GoldVesting.sol\":2185:2238  require(!vesting.released , VESTING_ALREADY_RELEASED) */\n      swap1\n      tag_80\n      jumpi\n      mload(0x40)\n      0x08c379a000000000000000000000000000000000000000000000000000000000\n      dup2\n      mstore\n      0x04\n      add\n      tag_81\n      swap2\n      swap1\n      tag_79\n      jump\t// in\n    tag_81:\n      mload(0x40)\n      dup1\n      swap2\n      sub\n      swap1\n      revert\n    tag_80:\n      pop\n        /* \"contracts/GoldVesting.sol\":2267:2271  true */\n      0x01\n        /* \"contracts/GoldVesting.sol\":2248:2255  vesting */\n      dup2\n        /* \"contracts/GoldVesting.sol\":2248:2264  vesting.released */\n      0x02\n      add\n      0x14\n        /* \"contracts/GoldVesting.sol\":2248:2271  vesting.released = true */\n      0x0100\n      exp\n      dup2\n      sload\n      dup2\n      0xff\n      mul\n      not\n      and\n      swap1\n      dup4\n      iszero\n      iszero\n      mul\n      or\n      swap1\n      sstore\n      pop\n        /* \"contracts/GoldVesting.sol\":2296:2328  tokensToVest.sub(vesting.amount) */\n      tag_82\n        /* \"contracts/GoldVesting.sol\":2313:2320  vesting */\n      dup2\n        /* \"contracts/GoldVesting.sol\":2313:2327  vesting.amount */\n      0x01\n      add\n      sload\n        /* \"contracts/GoldVesting.sol\":2296:2308  tokensToVest */\n      sload(0x02)\n        /* \"contracts/GoldVesting.sol\":2296:2312  tokensToVest.sub */\n      tag_83\n      swap1\n        /* \"contracts/GoldVesting.sol\":2296:2328  tokensToVest.sub(vesting.amount) */\n      swap2\n      swap1\n      0xffffffff\n      and\n      jump\t// in\n    tag_82:\n        /* \"contracts/GoldVesting.sol\":2281:2293  tokensToVest */\n      0x02\n        /* \"contracts/GoldVesting.sol\":2281:2328  tokensToVest = tokensToVest.sub(vesting.amount) */\n      dup2\n      swap1\n      sstore\n      pop\n        /* \"contracts/GoldVesting.sol\":2375:2382  vesting */\n      dup1\n        /* \"contracts/GoldVesting.sol\":2375:2394  vesting.beneficiary */\n      0x02\n      add\n      0x00\n      swap1\n      sload\n      swap1\n      0x0100\n      exp\n      swap1\n      div\n      0xffffffffffffffffffffffffffffffffffffffff\n      and\n        /* \"contracts/GoldVesting.sol\":2343:2411  TokenVestingRemoved(_vestingId, vesting.beneficiary, vesting.amount) */\n      0xffffffffffffffffffffffffffffffffffffffff\n      and\n        /* \"contracts/GoldVesting.sol\":2363:2373  _vestingId */\n      dup3\n        /* \"contracts/GoldVesting.sol\":2343:2411  TokenVestingRemoved(_vestingId, vesting.beneficiary, vesting.amount) */\n      0xdc8b9c8cc0c8d05e10824e69ee88995716a539af94a1c60fb9898367f613477c\n        /* \"contracts/GoldVesting.sol\":2396:2403  vesting */\n      dup4\n        /* \"contracts/GoldVesting.sol\":2396:2410  vesting.amount */\n      0x01\n      add\n      sload\n        /* \"contracts/GoldVesting.sol\":2343:2411  TokenVestingRemoved(_vestingId, vesting.beneficiary, vesting.amount) */\n      mload(0x40)\n      tag_84\n      swap2\n      swap1\n      tag_23\n      jump\t// in\n    tag_84:\n      mload(0x40)\n      dup1\n      swap2\n      sub\n      swap1\n      log3\n        /* \"contracts/GoldVesting.sol\":2045:2418  {... */\n      pop\n        /* \"contracts/GoldVesting.sol\":1985:2418  function removeVesting(uint256 _vestingId) public onlyOwner {... */\n      pop\n      jump\t// out\n        /* \"contracts/GoldVesting.sol\":3086:3790  function release(uint256 _vestingId) public {... */\n    tag_33:\n        /* \"contracts/GoldVesting.sol\":3140:3163  Vesting storage vesting */\n      0x00\n        /* \"contracts/GoldVesting.sol\":3166:3174  vestings */\n      0x04\n        /* \"contracts/GoldVesting.sol\":3166:3186  vestings[_vestingId] */\n      0x00\n        /* \"contracts/GoldVesting.sol\":3175:3185  _vestingId */\n      dup4\n        /* \"contracts/GoldVesting.sol\":3166:3186  vestings[_vestingId] */\n      dup2\n      mstore\n      0x20\n      add\n      swap1\n      dup2\n      mstore\n      0x20\n      add\n      0x00\n      keccak256\n        /* \"contracts/GoldVesting.sol\":3140:3186  Vesting storage vesting = vestings[_vestingId] */\n      swap1\n      pop\n        /* \"contracts/GoldVesting.sol\":3235:3238  0x0 */\n      0x00\n        /* \"contracts/GoldVesting.sol\":3204:3239  vesting.beneficiary != address(0x0) */\n      0xffffffffffffffffffffffffffffffffffffffff\n      and\n        /* \"contracts/GoldVesting.sol\":3204:3211  vesting */\n      dup2\n        /* \"contracts/GoldVesting.sol\":3204:3223  vesting.beneficiary */\n      0x02\n      add\n      0x00\n      swap1\n      sload\n      swap1\n      0x0100\n      exp\n      swap1\n      div\n      0xffffffffffffffffffffffffffffffffffffffff\n      and\n        /* \"contracts/GoldVesting.sol\":3204:3239  vesting.beneficiary != address(0x0) */\n      0xffffffffffffffffffffffffffffffffffffffff\n      and\n      eq\n      iszero\n        /* \"contracts/GoldVesting.sol\":3241:3259  INVALID_VESTING_ID */\n      mload(0x40)\n      dup1\n      0x40\n      add\n      0x40\n      mstore\n      dup1\n      0x12\n      dup2\n      mstore\n      0x20\n      add\n      0x496e76616c69642076657374696e672069640000000000000000000000000000\n      dup2\n      mstore\n      pop\n        /* \"contracts/GoldVesting.sol\":3196:3260  require(vesting.beneficiary != address(0x0), INVALID_VESTING_ID) */\n      swap1\n      tag_86\n      jumpi\n      mload(0x40)\n      0x08c379a000000000000000000000000000000000000000000000000000000000\n      dup2\n      mstore\n      0x04\n      add\n      tag_87\n      swap2\n      swap1\n      tag_79\n      jump\t// in\n    tag_87:\n      mload(0x40)\n      dup1\n      swap2\n      sub\n      swap1\n      revert\n    tag_86:\n      pop\n        /* \"contracts/GoldVesting.sol\":3279:3286  vesting */\n      dup1\n        /* \"contracts/GoldVesting.sol\":3279:3295  vesting.released */\n      0x02\n      add\n      0x14\n      swap1\n      sload\n      swap1\n      0x0100\n      exp\n      swap1\n      div\n      0xff\n      and\n        /* \"contracts/GoldVesting.sol\":3278:3295  !vesting.released */\n      iszero\n        /* \"contracts/GoldVesting.sol\":3298:3322  VESTING_ALREADY_RELEASED */\n      mload(0x40)\n      dup1\n      0x40\n      add\n      0x40\n      mstore\n      dup1\n      0x18\n      dup2\n      mstore\n      0x20\n      add\n      0x56657374696e6720616c72656164792072656c65617365640000000000000000\n      dup2\n      mstore\n      pop\n        /* \"contracts/GoldVesting.sol\":3270:3323  require(!vesting.released , VESTING_ALREADY_RELEASED) */\n      swap1\n      tag_88\n      jumpi\n      mload(0x40)\n      0x08c379a000000000000000000000000000000000000000000000000000000000\n      dup2\n      mstore\n      0x04\n      add\n      tag_89\n      swap2\n      swap1\n      tag_79\n      jump\t// in\n    tag_89:\n      mload(0x40)\n      dup1\n      swap2\n      sub\n      swap1\n      revert\n    tag_88:\n      pop\n        /* \"contracts/GoldVesting.sol\":3414:3421  vesting */\n      dup1\n        /* \"contracts/GoldVesting.sol\":3414:3433  vesting.releaseTime */\n      0x00\n      add\n      sload\n        /* \"contracts/GoldVesting.sol\":3395:3410  block.timestamp */\n      timestamp\n        /* \"contracts/GoldVesting.sol\":3395:3433  block.timestamp >= vesting.releaseTime */\n      lt\n      iszero\n        /* \"contracts/GoldVesting.sol\":3435:3445  NOT_VESTED */\n      mload(0x40)\n      dup1\n      0x40\n      add\n      0x40\n      mstore\n      dup1\n      0x1a\n      dup2\n      mstore\n      0x20\n      add\n      0x546f6b656e732068617665206e6f742076657374656420796574000000000000\n      dup2\n      mstore\n      pop\n        /* \"contracts/GoldVesting.sol\":3387:3446  require(block.timestamp >= vesting.releaseTime, NOT_VESTED) */\n      swap1\n      tag_90\n      jumpi\n      mload(0x40)\n      0x08c379a000000000000000000000000000000000000000000000000000000000\n      dup2\n      mstore\n      0x04\n      add\n      tag_91\n      swap2\n      swap1\n      tag_79\n      jump\t// in\n    tag_91:\n      mload(0x40)\n      dup1\n      swap2\n      sub\n      swap1\n      revert\n    tag_90:\n      pop\n        /* \"contracts/GoldVesting.sol\":3503:3510  vesting */\n      dup1\n        /* \"contracts/GoldVesting.sol\":3503:3517  vesting.amount */\n      0x01\n      add\n      sload\n        /* \"contracts/GoldVesting.sol\":3465:3474  goldToken */\n      0x01\n      0x00\n      swap1\n      sload\n      swap1\n      0x0100\n      exp\n      swap1\n      div\n      0xffffffffffffffffffffffffffffffffffffffff\n      and\n        /* \"contracts/GoldVesting.sol\":3465:3484  goldToken.balanceOf */\n      0xffffffffffffffffffffffffffffffffffffffff\n      and\n      0x70a08231\n        /* \"contracts/GoldVesting.sol\":3493:3497  this */\n      address\n        /* \"contracts/GoldVesting.sol\":3465:3499  goldToken.balanceOf(address(this)) */\n      mload(0x40)\n      dup3\n      0xffffffff\n      and\n      0xe0\n      shl\n      dup2\n      mstore\n      0x04\n      add\n      tag_92\n      swap2\n      swap1\n      tag_45\n      jump\t// in\n    tag_92:\n      0x20\n      mload(0x40)\n      dup1\n      dup4\n      sub\n      dup2\n      dup7\n      gas\n      staticcall\n      iszero\n      dup1\n      iszero\n      tag_94\n      jumpi\n      returndatasize\n      0x00\n      dup1\n      returndatacopy\n      revert(0x00, returndatasize)\n    tag_94:\n      pop\n      pop\n      pop\n      pop\n      mload(0x40)\n      returndatasize\n      not(0x1f)\n      0x1f\n      dup3\n      add\n      and\n      dup3\n      add\n      dup1\n      0x40\n      mstore\n      pop\n      dup2\n      add\n      swap1\n      tag_95\n      swap2\n      swap1\n      tag_96\n      jump\t// in\n    tag_95:\n        /* \"contracts/GoldVesting.sol\":3465:3517  goldToken.balanceOf(address(this)) >= vesting.amount */\n      lt\n      iszero\n        /* \"contracts/GoldVesting.sol\":3519:3539  INSUFFICIENT_BALANCE */\n      mload(0x40)\n      dup1\n      0x40\n      add\n      0x40\n      mstore\n      dup1\n      0x14\n      dup2\n      mstore\n      0x20\n      add\n      0x496e73756666696369656e742062616c616e6365000000000000000000000000\n      dup2\n      mstore\n      pop\n        /* \"contracts/GoldVesting.sol\":3457:3540  require(goldToken.balanceOf(address(this)) >= vesting.amount, INSUFFICIENT_BALANCE) */\n      swap1\n      tag_97\n      jumpi\n      mload(0x40)\n      0x08c379a000000000000000000000000000000000000000000000000000000000\n      dup2\n      mstore\n      0x04\n      add\n      tag_98\n      swap2\n      swap1\n      tag_79\n      jump\t// in\n    tag_98:\n      mload(0x40)\n      dup1\n      swap2\n      sub\n      swap1\n      revert\n    tag_97:\n      pop\n        /* \"contracts/GoldVesting.sol\":3569:3573  true */\n      0x01\n        /* \"contracts/GoldVesting.sol\":3550:3557  vesting */\n      dup2\n        /* \"contracts/GoldVesting.sol\":3550:3566  vesting.released */\n      0x02\n      add\n      0x14\n        /* \"contracts/GoldVesting.sol\":3550:3573  vesting.released = true */\n      0x0100\n      exp\n      dup2\n      sload\n      dup2\n      0xff\n      mul\n      not\n      and\n      swap1\n      dup4\n      iszero\n      iszero\n      mul\n      or\n      swap1\n      sstore\n      pop\n        /* \"contracts/GoldVesting.sol\":3598:3630  tokensToVest.sub(vesting.amount) */\n      tag_99\n        /* \"contracts/GoldVesting.sol\":3615:3622  vesting */\n      dup2\n        /* \"contracts/GoldVesting.sol\":3615:3629  vesting.amount */\n      0x01\n      add\n      sload\n        /* \"contracts/GoldVesting.sol\":3598:3610  tokensToVest */\n      sload(0x02)\n        /* \"contracts/GoldVesting.sol\":3598:3614  tokensToVest.sub */\n      tag_83\n      swap1\n        /* \"contracts/GoldVesting.sol\":3598:3630  tokensToVest.sub(vesting.amount) */\n      swap2\n      swap1\n      0xffffffff\n      and\n      jump\t// in\n    tag_99:\n        /* \"contracts/GoldVesting.sol\":3583:3595  tokensToVest */\n      0x02\n        /* \"contracts/GoldVesting.sol\":3583:3630  tokensToVest = tokensToVest.sub(vesting.amount) */\n      dup2\n      swap1\n      sstore\n      pop\n        /* \"contracts/GoldVesting.sol\":3640:3699  goldToken.safeTransfer(vesting.beneficiary, vesting.amount) */\n      tag_100\n        /* \"contracts/GoldVesting.sol\":3663:3670  vesting */\n      dup2\n        /* \"contracts/GoldVesting.sol\":3663:3682  vesting.beneficiary */\n      0x02\n      add\n      0x00\n      swap1\n      sload\n      swap1\n      0x0100\n      exp\n      swap1\n      div\n      0xffffffffffffffffffffffffffffffffffffffff\n      and\n        /* \"contracts/GoldVesting.sol\":3684:3691  vesting */\n      dup3\n        /* \"contracts/GoldVesting.sol\":3684:3698  vesting.amount */\n      0x01\n      add\n      sload\n        /* \"contracts/GoldVesting.sol\":3640:3649  goldToken */\n      0x01\n      0x00\n      swap1\n      sload\n      swap1\n      0x0100\n      exp\n      swap1\n      div\n      0xffffffffffffffffffffffffffffffffffffffff\n      and\n        /* \"contracts/GoldVesting.sol\":3640:3662  goldToken.safeTransfer */\n      0xffffffffffffffffffffffffffffffffffffffff\n      and\n      tag_101\n      swap1\n        /* \"contracts/GoldVesting.sol\":3640:3699  goldToken.safeTransfer(vesting.beneficiary, vesting.amount) */\n      swap3\n      swap2\n      swap1\n      0xffffffff\n      and\n      jump\t// in\n    tag_100:\n        /* \"contracts/GoldVesting.sol\":3747:3754  vesting */\n      dup1\n        /* \"contracts/GoldVesting.sol\":3747:3766  vesting.beneficiary */\n      0x02\n      add\n      0x00\n      swap1\n      sload\n      swap1\n      0x0100\n      exp\n      swap1\n      div\n      0xffffffffffffffffffffffffffffffffffffffff\n      and\n        /* \"contracts/GoldVesting.sol\":3714:3783  TokenVestingReleased(_vestingId, vesting.beneficiary, vesting.amount) */\n      0xffffffffffffffffffffffffffffffffffffffff\n      and\n        /* \"contracts/GoldVesting.sol\":3735:3745  _vestingId */\n      dup3\n        /* \"contracts/GoldVesting.sol\":3714:3783  TokenVestingReleased(_vestingId, vesting.beneficiary, vesting.amount) */\n      0x295ac83a3c5cf518a125ba974be97dca6a668bae6dd90b6902b2618cdff1fcc6\n        /* \"contracts/GoldVesting.sol\":3768:3775  vesting */\n      dup4\n        /* \"contracts/GoldVesting.sol\":3768:3782  vesting.amount */\n      0x01\n      add\n      sload\n        /* \"contracts/GoldVesting.sol\":3714:3783  TokenVestingReleased(_vestingId, vesting.beneficiary, vesting.amount) */\n      mload(0x40)\n      tag_102\n      swap2\n      swap1\n      tag_23\n      jump\t// in\n    tag_102:\n      mload(0x40)\n      dup1\n      swap2\n      sub\n      swap1\n      log3\n        /* \"contracts/GoldVesting.sol\":3130:3790  {... */\n      pop\n        /* \"contracts/GoldVesting.sol\":3086:3790  function release(uint256 _vestingId) public {... */\n      pop\n      jump\t// out\n        /* \"contracts/GoldVesting.sol\":2424:3075  function addVesting(address _beneficiary, uint256 _releaseTime, uint256 _amount) public onlyOwner {... */\n    tag_37:\n        /* \"openzeppelin-solidity/contracts/access/Ownable.sol\":1259:1271  _msgSender() */\n      tag_104\n        /* \"openzeppelin-solidity/contracts/access/Ownable.sol\":1259:1269  _msgSender */\n      tag_71\n        /* \"openzeppelin-solidity/contracts/access/Ownable.sol\":1259:1271  _msgSender() */\n      jump\t// in\n    tag_104:\n        /* \"openzeppelin-solidity/contracts/access/Ownable.sol\":1248:1271  owner() == _msgSender() */\n      0xffffffffffffffffffffffffffffffffffffffff\n      and\n        /* \"openzeppelin-solidity/contracts/access/Ownable.sol\":1248:1255  owner() */\n      tag_105\n        /* \"openzeppelin-solidity/contracts/access/Ownable.sol\":1248:1253  owner */\n      tag_57\n        /* \"openzeppelin-solidity/contracts/access/Ownable.sol\":1248:1255  owner() */\n      jump\t// in\n    tag_105:\n        /* \"openzeppelin-solidity/contracts/access/Ownable.sol\":1248:1271  owner() == _msgSender() */\n      0xffffffffffffffffffffffffffffffffffffffff\n      and\n      eq\n        /* \"openzeppelin-solidity/contracts/access/Ownable.sol\":1240:1308  require(owner() == _msgSender(), \"Ownable: caller is not the owner\") */\n      tag_106\n      jumpi\n      mload(0x40)\n      0x08c379a000000000000000000000000000000000000000000000000000000000\n      dup2\n      mstore\n      0x04\n      add\n      tag_107\n      swap1\n      tag_75\n      jump\t// in\n    tag_107:\n      mload(0x40)\n      dup1\n      swap2\n      sub\n      swap1\n      revert\n    tag_106:\n        /* \"contracts/GoldVesting.sol\":2564:2567  0x0 */\n      0x00\n        /* \"contracts/GoldVesting.sol\":2540:2568  _beneficiary != address(0x0) */\n      0xffffffffffffffffffffffffffffffffffffffff\n      and\n        /* \"contracts/GoldVesting.sol\":2540:2552  _beneficiary */\n      dup4\n        /* \"contracts/GoldVesting.sol\":2540:2568  _beneficiary != address(0x0) */\n      0xffffffffffffffffffffffffffffffffffffffff\n      and\n      eq\n      iszero\n        /* \"contracts/GoldVesting.sol\":2570:2589  INVALID_BENEFICIARY */\n      mload(0x40)\n      dup1\n      0x40\n      add\n      0x40\n      mstore\n      dup1\n      0x1b\n      dup2\n      mstore\n      0x20\n      add\n      0x496e76616c69642062656e656669636961727920616464726573730000000000\n      dup2\n      mstore\n      pop\n        /* \"contracts/GoldVesting.sol\":2532:2590  require(_beneficiary != address(0x0), INVALID_BENEFICIARY) */\n      swap1\n      tag_109\n      jumpi\n      mload(0x40)\n      0x08c379a000000000000000000000000000000000000000000000000000000000\n      dup2\n      mstore\n      0x04\n      add\n      tag_110\n      swap2\n      swap1\n      tag_79\n      jump\t// in\n    tag_110:\n      mload(0x40)\n      dup1\n      swap2\n      sub\n      swap1\n      revert\n    tag_109:\n      pop\n        /* \"contracts/GoldVesting.sol\":2623:2638  block.timestamp */\n      timestamp\n        /* \"contracts/GoldVesting.sol\":2608:2620  _releaseTime */\n      dup3\n        /* \"contracts/GoldVesting.sol\":2608:2638  _releaseTime > block.timestamp */\n      gt\n        /* \"contracts/GoldVesting.sol\":2600:2663  require(_releaseTime > block.timestamp, \"Invalid release time\") */\n      tag_111\n      jumpi\n      mload(0x40)\n      0x08c379a000000000000000000000000000000000000000000000000000000000\n      dup2\n      mstore\n      0x04\n      add\n      tag_112\n      swap1\n      tag_113\n      jump\t// in\n    tag_112:\n      mload(0x40)\n      dup1\n      swap2\n      sub\n      swap1\n      revert\n    tag_111:\n        /* \"contracts/GoldVesting.sol\":2692:2693  0 */\n      0x00\n        /* \"contracts/GoldVesting.sol\":2681:2688  _amount */\n      dup2\n        /* \"contracts/GoldVesting.sol\":2681:2693  _amount != 0 */\n      sub\n        /* \"contracts/GoldVesting.sol\":2673:2727  require(_amount != 0, \"Amount must be greater then 0\") */\n      tag_114\n      jumpi\n      mload(0x40)\n      0x08c379a000000000000000000000000000000000000000000000000000000000\n      dup2\n      mstore\n      0x04\n      add\n      tag_115\n      swap1\n      tag_116\n      jump\t// in\n    tag_115:\n      mload(0x40)\n      dup1\n      swap2\n      sub\n      swap1\n      revert\n    tag_114:\n        /* \"contracts/GoldVesting.sol\":2752:2777  tokensToVest.add(_amount) */\n      tag_117\n        /* \"contracts/GoldVesting.sol\":2769:2776  _amount */\n      dup2\n        /* \"contracts/GoldVesting.sol\":2752:2764  tokensToVest */\n      sload(0x02)\n        /* \"contracts/GoldVesting.sol\":2752:2768  tokensToVest.add */\n      tag_118\n      swap1\n        /* \"contracts/GoldVesting.sol\":2752:2777  tokensToVest.add(_amount) */\n      swap2\n      swap1\n      0xffffffff\n      and\n      jump\t// in\n    tag_117:\n        /* \"contracts/GoldVesting.sol\":2737:2749  tokensToVest */\n      0x02\n        /* \"contracts/GoldVesting.sol\":2737:2777  tokensToVest = tokensToVest.add(_amount) */\n      dup2\n      swap1\n      sstore\n      pop\n        /* \"contracts/GoldVesting.sol\":2799:2815  vestingId.add(1) */\n      tag_119\n        /* \"contracts/GoldVesting.sol\":2813:2814  1 */\n      0x01\n        /* \"contracts/GoldVesting.sol\":2799:2808  vestingId */\n      sload(0x03)\n        /* \"contracts/GoldVesting.sol\":2799:2812  vestingId.add */\n      tag_118\n      swap1\n        /* \"contracts/GoldVesting.sol\":2799:2815  vestingId.add(1) */\n      swap2\n      swap1\n      0xffffffff\n      and\n      jump\t// in\n    tag_119:\n        /* \"contracts/GoldVesting.sol\":2787:2796  vestingId */\n      0x03\n        /* \"contracts/GoldVesting.sol\":2787:2815  vestingId = vestingId.add(1) */\n      dup2\n      swap1\n      sstore\n      pop\n        /* \"contracts/GoldVesting.sol\":2847:3002  Vesting({... */\n      mload(0x40)\n      dup1\n      0x80\n      add\n      0x40\n      mstore\n      dup1\n        /* \"contracts/GoldVesting.sol\":2921:2933  _releaseTime */\n      dup4\n        /* \"contracts/GoldVesting.sol\":2847:3002  Vesting({... */\n      dup2\n      mstore\n      0x20\n      add\n        /* \"contracts/GoldVesting.sol\":2955:2962  _amount */\n      dup3\n        /* \"contracts/GoldVesting.sol\":2847:3002  Vesting({... */\n      dup2\n      mstore\n      0x20\n      add\n        /* \"contracts/GoldVesting.sol\":2882:2894  _beneficiary */\n      dup5\n        /* \"contracts/GoldVesting.sol\":2847:3002  Vesting({... */\n      0xffffffffffffffffffffffffffffffffffffffff\n      and\n      dup2\n      mstore\n      0x20\n      add\n        /* \"contracts/GoldVesting.sol\":2986:2991  false */\n      0x00\n        /* \"contracts/GoldVesting.sol\":2847:3002  Vesting({... */\n      iszero\n      iszero\n      dup2\n      mstore\n      pop\n        /* \"contracts/GoldVesting.sol\":2825:2833  vestings */\n      0x04\n        /* \"contracts/GoldVesting.sol\":2825:2844  vestings[vestingId] */\n      0x00\n        /* \"contracts/GoldVesting.sol\":2834:2843  vestingId */\n      sload(0x03)\n        /* \"contracts/GoldVesting.sol\":2825:2844  vestings[vestingId] */\n      dup2\n      mstore\n      0x20\n      add\n      swap1\n      dup2\n      mstore\n      0x20\n      add\n      0x00\n      keccak256\n        /* \"contracts/GoldVesting.sol\":2825:3002  vestings[vestingId] = Vesting({... */\n      0x00\n      dup3\n      add\n      mload\n      dup2\n      0x00\n      add\n      sstore\n      0x20\n      dup3\n      add\n      mload\n      dup2\n      0x01\n      add\n      sstore\n      0x40\n      dup3\n      add\n      mload\n      dup2\n      0x02\n      add\n      exp(0x0100, 0x00)\n      dup2\n      sload\n      dup2\n      0xffffffffffffffffffffffffffffffffffffffff\n      mul\n      not\n      and\n      swap1\n      dup4\n      0xffffffffffffffffffffffffffffffffffffffff\n      and\n      mul\n      or\n      swap1\n      sstore\n      pop\n      0x60\n      dup3\n      add\n      mload\n      dup2\n      0x02\n      add\n      exp(0x0100, 0x14)\n      dup2\n      sload\n      dup2\n      0xff\n      mul\n      not\n      and\n      swap1\n      dup4\n      iszero\n      iszero\n      mul\n      or\n      swap1\n      sstore\n      pop\n      swap1\n      pop\n      pop\n        /* \"contracts/GoldVesting.sol\":3046:3058  _beneficiary */\n      dup3\n        /* \"contracts/GoldVesting.sol\":3017:3068  TokenVestingAdded(vestingId, _beneficiary, _amount) */\n      0xffffffffffffffffffffffffffffffffffffffff\n      and\n        /* \"contracts/GoldVesting.sol\":3035:3044  vestingId */\n      sload(0x03)\n        /* \"contracts/GoldVesting.sol\":3017:3068  TokenVestingAdded(vestingId, _beneficiary, _amount) */\n      0xfbd41c6118c5ed14f196c270a1793d95e8517e43031d9bb61aa71cb2a38bf557\n        /* \"contracts/GoldVesting.sol\":3060:3067  _amount */\n      dup4\n        /* \"contracts/GoldVesting.sol\":3017:3068  TokenVestingAdded(vestingId, _beneficiary, _amount) */\n      mload(0x40)\n      tag_120\n      swap2\n      swap1\n      tag_23\n      jump\t// in\n    tag_120:\n      mload(0x40)\n      dup1\n      swap2\n      sub\n      swap1\n      log3\n        /* \"contracts/GoldVesting.sol\":2424:3075  function addVesting(address _beneficiary, uint256 _releaseTime, uint256 _amount) public onlyOwner {... */\n      pop\n      pop\n      pop\n      jump\t// out\n        /* \"contracts/GoldVesting.sol\":4032:4120  function getTime() public view returns (uint256) {... */\n    tag_39:\n        /* \"contracts/GoldVesting.sol\":4072:4079  uint256 */\n      0x00\n        /* \"contracts/GoldVesting.sol\":4098:4113  block.timestamp */\n      timestamp\n        /* \"contracts/GoldVesting.sol\":4091:4113  return block.timestamp */\n      swap1\n      pop\n        /* \"contracts/GoldVesting.sol\":4032:4120  function getTime() public view returns (uint256) {... */\n      swap1\n      jump\t// out\n        /* \"contracts/GoldVesting.sol\":1586:1713  function beneficiary(uint256 _vestingId) public view returns (address) {... */\n    tag_43:\n        /* \"contracts/GoldVesting.sol\":1648:1655  address */\n      0x00\n        /* \"contracts/GoldVesting.sol\":1674:1682  vestings */\n      0x04\n        /* \"contracts/GoldVesting.sol\":1674:1694  vestings[_vestingId] */\n      0x00\n        /* \"contracts/GoldVesting.sol\":1683:1693  _vestingId */\n      dup4\n        /* \"contracts/GoldVesting.sol\":1674:1694  vestings[_vestingId] */\n      dup2\n      mstore\n      0x20\n      add\n      swap1\n      dup2\n      mstore\n      0x20\n      add\n      0x00\n      keccak256\n        /* \"contracts/GoldVesting.sol\":1674:1706  vestings[_vestingId].beneficiary */\n      0x02\n      add\n      0x00\n      swap1\n      sload\n      swap1\n      0x0100\n      exp\n      swap1\n      div\n      0xffffffffffffffffffffffffffffffffffffffff\n      and\n        /* \"contracts/GoldVesting.sol\":1667:1706  return vestings[_vestingId].beneficiary */\n      swap1\n      pop\n        /* \"contracts/GoldVesting.sol\":1586:1713  function beneficiary(uint256 _vestingId) public view returns (address) {... */\n      swap2\n      swap1\n      pop\n      jump\t// out\n        /* \"contracts/GoldVesting.sol\":3801:4026  function retrieveExcessTokens(uint256 _amount) public onlyOwner {... */\n    tag_48:\n        /* \"openzeppelin-solidity/contracts/access/Ownable.sol\":1259:1271  _msgSender() */\n      tag_124\n        /* \"openzeppelin-solidity/contracts/access/Ownable.sol\":1259:1269  _msgSender */\n      tag_71\n        /* \"openzeppelin-solidity/contracts/access/Ownable.sol\":1259:1271  _msgSender() */\n      jump\t// in\n    tag_124:\n        /* \"openzeppelin-solidity/contracts/access/Ownable.sol\":1248:1271  owner() == _msgSender() */\n      0xffffffffffffffffffffffffffffffffffffffff\n      and\n        /* \"openzeppelin-solidity/contracts/access/Ownable.sol\":1248:1255  owner() */\n      tag_125\n        /* \"openzeppelin-solidity/contracts/access/Ownable.sol\":1248:1253  owner */\n      tag_57\n        /* \"openzeppelin-solidity/contracts/access/Ownable.sol\":1248:1255  owner() */\n      jump\t// in\n    tag_125:\n        /* \"openzeppelin-solidity/contracts/access/Ownable.sol\":1248:1271  owner() == _msgSender() */\n      0xffffffffffffffffffffffffffffffffffffffff\n      and\n      eq\n        /* \"openzeppelin-solidity/contracts/access/Ownable.sol\":1240:1308  require(owner() == _msgSender(), \"Ownable: caller is not the owner\") */\n      tag_126\n      jumpi\n      mload(0x40)\n      0x08c379a000000000000000000000000000000000000000000000000000000000\n      dup2\n      mstore\n      0x04\n      add\n      tag_127\n      swap1\n      tag_75\n      jump\t// in\n    tag_127:\n      mload(0x40)\n      dup1\n      swap2\n      sub\n      swap1\n      revert\n    tag_126:\n        /* \"contracts/GoldVesting.sol\":3894:3946  goldToken.balanceOf(address(this)).sub(tokensToVest) */\n      tag_129\n        /* \"contracts/GoldVesting.sol\":3933:3945  tokensToVest */\n      sload(0x02)\n        /* \"contracts/GoldVesting.sol\":3894:3903  goldToken */\n      0x01\n      0x00\n      swap1\n      sload\n      swap1\n      0x0100\n      exp\n      swap1\n      div\n      0xffffffffffffffffffffffffffffffffffffffff\n      and\n        /* \"contracts/GoldVesting.sol\":3894:3913  goldToken.balanceOf */\n      0xffffffffffffffffffffffffffffffffffffffff\n      and\n      0x70a08231\n        /* \"contracts/GoldVesting.sol\":3922:3926  this */\n      address\n        /* \"contracts/GoldVesting.sol\":3894:3928  goldToken.balanceOf(address(this)) */\n      mload(0x40)\n      dup3\n      0xffffffff\n      and\n      0xe0\n      shl\n      dup2\n      mstore\n      0x04\n      add\n      tag_130\n      swap2\n      swap1\n      tag_45\n      jump\t// in\n    tag_130:\n      0x20\n      mload(0x40)\n      dup1\n      dup4\n      sub\n      dup2\n      dup7\n      gas\n      staticcall\n      iszero\n      dup1\n      iszero\n      tag_132\n      jumpi\n      returndatasize\n      0x00\n      dup1\n      returndatacopy\n      revert(0x00, returndatasize)\n    tag_132:\n      pop\n      pop\n      pop\n      pop\n      mload(0x40)\n      returndatasize\n      not(0x1f)\n      0x1f\n      dup3\n      add\n      and\n      dup3\n      add\n      dup1\n      0x40\n      mstore\n      pop\n      dup2\n      add\n      swap1\n      tag_133\n      swap2\n      swap1\n      tag_96\n      jump\t// in\n    tag_133:\n        /* \"contracts/GoldVesting.sol\":3894:3932  goldToken.balanceOf(address(this)).sub */\n      tag_83\n      swap1\n        /* \"contracts/GoldVesting.sol\":3894:3946  goldToken.balanceOf(address(this)).sub(tokensToVest) */\n      swap2\n      swap1\n      0xffffffff\n      and\n      jump\t// in\n    tag_129:\n        /* \"contracts/GoldVesting.sol\":3883:3890  _amount */\n      dup2\n        /* \"contracts/GoldVesting.sol\":3883:3946  _amount <= goldToken.balanceOf(address(this)).sub(tokensToVest) */\n      gt\n      iszero\n        /* \"contracts/GoldVesting.sol\":3948:3968  INSUFFICIENT_BALANCE */\n      mload(0x40)\n      dup1\n      0x40\n      add\n      0x40\n      mstore\n      dup1\n      0x14\n      dup2\n      mstore\n      0x20\n      add\n      0x496e73756666696369656e742062616c616e6365000000000000000000000000\n      dup2\n      mstore\n      pop\n        /* \"contracts/GoldVesting.sol\":3875:3969  require(_amount <= goldToken.balanceOf(address(this)).sub(tokensToVest), INSUFFICIENT_BALANCE) */\n      swap1\n      tag_134\n      jumpi\n      mload(0x40)\n      0x08c379a000000000000000000000000000000000000000000000000000000000\n      dup2\n      mstore\n      0x04\n      add\n      tag_135\n      swap2\n      swap1\n      tag_79\n      jump\t// in\n    tag_135:\n      mload(0x40)\n      dup1\n      swap2\n      sub\n      swap1\n      revert\n    tag_134:\n      pop\n        /* \"contracts/GoldVesting.sol\":3979:4019  goldToken.safeTransfer(owner(), _amount) */\n      tag_136\n        /* \"contracts/GoldVesting.sol\":4002:4009  owner() */\n      tag_137\n        /* \"contracts/GoldVesting.sol\":4002:4007  owner */\n      tag_57\n        /* \"contracts/GoldVesting.sol\":4002:4009  owner() */\n      jump\t// in\n    tag_137:\n        /* \"contracts/GoldVesting.sol\":4011:4018  _amount */\n      dup3\n        /* \"contracts/GoldVesting.sol\":3979:3988  goldToken */\n      0x01\n      0x00\n      swap1\n      sload\n      swap1\n      0x0100\n      exp\n      swap1\n      div\n      0xffffffffffffffffffffffffffffffffffffffff\n      and\n        /* \"contracts/GoldVesting.sol\":3979:4001  goldToken.safeTransfer */\n      0xffffffffffffffffffffffffffffffffffffffff\n      and\n      tag_101\n      swap1\n        /* \"contracts/GoldVesting.sol\":3979:4019  goldToken.safeTransfer(owner(), _amount) */\n      swap3\n      swap2\n      swap1\n      0xffffffff\n      and\n      jump\t// in\n    tag_136:\n        /* \"contracts/GoldVesting.sol\":3801:4026  function retrieveExcessTokens(uint256 _amount) public onlyOwner {... */\n      pop\n      jump\t// out\n        /* \"openzeppelin-solidity/contracts/access/Ownable.sol\":1668:1769  function renounceOwnership() public virtual onlyOwner {... */\n    tag_50:\n        /* \"openzeppelin-solidity/contracts/access/Ownable.sol\":1259:1271  _msgSender() */\n      tag_139\n        /* \"openzeppelin-solidity/contracts/access/Ownable.sol\":1259:1269  _msgSender */\n      tag_71\n        /* \"openzeppelin-solidity/contracts/access/Ownable.sol\":1259:1271  _msgSender() */\n      jump\t// in\n    tag_139:\n        /* \"openzeppelin-solidity/contracts/access/Ownable.sol\":1248:1271  owner() == _msgSender() */\n      0xffffffffffffffffffffffffffffffffffffffff\n      and\n        /* \"openzeppelin-solidity/contracts/access/Ownable.sol\":1248:1255  owner() */\n      tag_140\n        /* \"openzeppelin-solidity/contracts/access/Ownable.sol\":1248:1253  owner */\n      tag_57\n        /* \"openzeppelin-solidity/contracts/access/Ownable.sol\":1248:1255  owner() */\n      jump\t// in\n    tag_140:\n        /* \"openzeppelin-solidity/contracts/access/Ownable.sol\":1248:1271  owner() == _msgSender() */\n      0xffffffffffffffffffffffffffffffffffffffff\n      and\n      eq\n        /* \"openzeppelin-solidity/contracts/access/Ownable.sol\":1240:1308  require(owner() == _msgSender(), \"Ownable: caller is not the owner\") */\n      tag_141\n      jumpi\n      mload(0x40)\n      0x08c379a000000000000000000000000000000000000000000000000000000000\n      dup2\n      mstore\n      0x04\n      add\n      tag_142\n      swap1\n      tag_75\n      jump\t// in\n    tag_142:\n      mload(0x40)\n      dup1\n      swap2\n      sub\n      swap1\n      revert\n    tag_141:\n        /* \"openzeppelin-solidity/contracts/access/Ownable.sol\":1732:1762  _transferOwnership(address(0)) */\n      tag_144\n        /* \"openzeppelin-solidity/contracts/access/Ownable.sol\":1759:1760  0 */\n      0x00\n        /* \"openzeppelin-solidity/contracts/access/Ownable.sol\":1732:1750  _transferOwnership */\n      tag_145\n        /* \"openzeppelin-solidity/contracts/access/Ownable.sol\":1732:1762  _transferOwnership(address(0)) */\n      jump\t// in\n    tag_144:\n        /* \"openzeppelin-solidity/contracts/access/Ownable.sol\":1668:1769  function renounceOwnership() public virtual onlyOwner {... */\n      jump\t// out\n        /* \"contracts/GoldVesting.sol\":984:1027  mapping(uint256 => Vesting) public vestings */\n    tag_53:\n      mstore(0x20, 0x04)\n      dup1\n      0x00\n      mstore\n      keccak256(0x00, 0x40)\n      0x00\n      swap2\n      pop\n      swap1\n      pop\n      dup1\n      0x00\n      add\n      sload\n      swap1\n      dup1\n      0x01\n      add\n      sload\n      swap1\n      dup1\n      0x02\n      add\n      0x00\n      swap1\n      sload\n      swap1\n      0x0100\n      exp\n      swap1\n      div\n      0xffffffffffffffffffffffffffffffffffffffff\n      and\n      swap1\n      dup1\n      0x02\n      add\n      0x14\n      swap1\n      sload\n      swap1\n      0x0100\n      exp\n      swap1\n      div\n      0xff\n      and\n      swap1\n      pop\n      dup5\n      jump\t// out\n        /* \"openzeppelin-solidity/contracts/access/Ownable.sol\":1036:1121  function owner() public view virtual returns (address) {... */\n    tag_57:\n        /* \"openzeppelin-solidity/contracts/access/Ownable.sol\":1082:1089  address */\n      0x00\n        /* \"openzeppelin-solidity/contracts/access/Ownable.sol\":1108:1114  _owner */\n      dup1\n      0x00\n      swap1\n      sload\n      swap1\n      0x0100\n      exp\n      swap1\n      div\n      0xffffffffffffffffffffffffffffffffffffffff\n      and\n        /* \"openzeppelin-solidity/contracts/access/Ownable.sol\":1101:1114  return _owner */\n      swap1\n      pop\n        /* \"openzeppelin-solidity/contracts/access/Ownable.sol\":1036:1121  function owner() public view virtual returns (address) {... */\n      swap1\n      jump\t// out\n        /* \"openzeppelin-solidity/contracts/access/Ownable.sol\":1918:2116  function transferOwnership(address newOwner) public virtual onlyOwner {... */\n    tag_62:\n        /* \"openzeppelin-solidity/contracts/access/Ownable.sol\":1259:1271  _msgSender() */\n      tag_148\n        /* \"openzeppelin-solidity/contracts/access/Ownable.sol\":1259:1269  _msgSender */\n      tag_71\n        /* \"openzeppelin-solidity/contracts/access/Ownable.sol\":1259:1271  _msgSender() */\n      jump\t// in\n    tag_148:\n        /* \"openzeppelin-solidity/contracts/access/Ownable.sol\":1248:1271  owner() == _msgSender() */\n      0xffffffffffffffffffffffffffffffffffffffff\n      and\n        /* \"openzeppelin-solidity/contracts/access/Ownable.sol\":1248:1255  owner() */\n      tag_149\n        /* \"openzeppelin-solidity/contracts/access/Ownable.sol\":1248:1253  owner */\n      tag_57\n        /* \"openzeppelin-solidity/contracts/access/Ownable.sol\":1248:1255  owner() */\n      jump\t// in\n    tag_149:\n        /* \"openzeppelin-solidity/contracts/access/Ownable.sol\":1248:1271  owner() == _msgSender() */\n      0xffffffffffffffffffffffffffffffffffffffff\n      and\n      eq\n        /* \"openzeppelin-solidity/contracts/access/Ownable.sol\":1240:1308  require(owner() == _msgSender(), \"Ownable: caller is not the owner\") */\n      tag_150\n      jumpi\n      mload(0x40)\n      0x08c379a000000000000000000000000000000000000000000000000000000000\n      dup2\n      mstore\n      0x04\n      add\n      tag_151\n      swap1\n      tag_75\n      jump\t// in\n    tag_151:\n      mload(0x40)\n      dup1\n      swap2\n      sub\n      swap1\n      revert\n    tag_150:\n        /* \"openzeppelin-solidity/contracts/access/Ownable.sol\":2026:2027  0 */\n      0x00\n        /* \"openzeppelin-solidity/contracts/access/Ownable.sol\":2006:2028  newOwner != address(0) */\n      0xffffffffffffffffffffffffffffffffffffffff\n      and\n        /* \"openzeppelin-solidity/contracts/access/Ownable.sol\":2006:2014  newOwner */\n      dup2\n        /* \"openzeppelin-solidity/contracts/access/Ownable.sol\":2006:2028  newOwner != address(0) */\n      0xffffffffffffffffffffffffffffffffffffffff\n      and\n      sub\n        /* \"openzeppelin-solidity/contracts/access/Ownable.sol\":1998:2071  require(newOwner != address(0), \"Ownable: new owner is the zero address\") */\n      tag_153\n      jumpi\n      mload(0x40)\n      0x08c379a000000000000000000000000000000000000000000000000000000000\n      dup2\n      mstore\n      0x04\n      add\n      tag_154\n      swap1\n      tag_155\n      jump\t// in\n    tag_154:\n      mload(0x40)\n      dup1\n      swap2\n      sub\n      swap1\n      revert\n    tag_153:\n        /* \"openzeppelin-solidity/contracts/access/Ownable.sol\":2081:2109  _transferOwnership(newOwner) */\n      tag_156\n        /* \"openzeppelin-solidity/contracts/access/Ownable.sol\":2100:2108  newOwner */\n      dup2\n        /* \"openzeppelin-solidity/contracts/access/Ownable.sol\":2081:2099  _transferOwnership */\n      tag_145\n        /* \"openzeppelin-solidity/contracts/access/Ownable.sol\":2081:2109  _transferOwnership(newOwner) */\n      jump\t// in\n    tag_156:\n        /* \"openzeppelin-solidity/contracts/access/Ownable.sol\":1918:2116  function transferOwnership(address newOwner) public virtual onlyOwner {... */\n      pop\n      jump\t// out\n        /* \"contracts/GoldVesting.sol\":1501:1580  function token() public view returns (IERC20) {... */\n    tag_64:\n        /* \"contracts/GoldVesting.sol\":1539:1545  IERC20 */\n      0x00\n        /* \"contracts/GoldVesting.sol\":1564:1573  goldToken */\n      0x01\n      0x00\n      swap1\n      sload\n      swap1\n      0x0100\n      exp\n      swap1\n      div\n      0xffffffffffffffffffffffffffffffffffffffff\n      and\n        /* \"contracts/GoldVesting.sol\":1557:1573  return goldToken */\n      swap1\n      pop\n        /* \"contracts/GoldVesting.sol\":1501:1580  function token() public view returns (IERC20) {... */\n      swap1\n      jump\t// out\n        /* \"openzeppelin-solidity/contracts/utils/Context.sol\":640:736  function _msgSender() internal view virtual returns (address) {... */\n    tag_71:\n        /* \"openzeppelin-solidity/contracts/utils/Context.sol\":693:700  address */\n      0x00\n        /* \"openzeppelin-solidity/contracts/utils/Context.sol\":719:729  msg.sender */\n      caller\n        /* \"openzeppelin-solidity/contracts/utils/Context.sol\":712:729  return msg.sender */\n      swap1\n      pop\n        /* \"openzeppelin-solidity/contracts/utils/Context.sol\":640:736  function _msgSender() internal view virtual returns (address) {... */\n      swap1\n      jump\t// out\n        /* \"openzeppelin-solidity/contracts/utils/math/SafeMath.sol\":3108:3204  function sub(uint256 a, uint256 b) internal pure returns (uint256) {... */\n    tag_83:\n        /* \"openzeppelin-solidity/contracts/utils/math/SafeMath.sol\":3166:3173  uint256 */\n      0x00\n        /* \"openzeppelin-solidity/contracts/utils/math/SafeMath.sol\":3196:3197  b */\n      dup2\n        /* \"openzeppelin-solidity/contracts/utils/math/SafeMath.sol\":3192:3193  a */\n      dup4\n        /* \"openzeppelin-solidity/contracts/utils/math/SafeMath.sol\":3192:3197  a - b */\n      tag_160\n      swap2\n      swap1\n      tag_161\n      jump\t// in\n    tag_160:\n        /* \"openzeppelin-solidity/contracts/utils/math/SafeMath.sol\":3185:3197  return a - b */\n      swap1\n      pop\n        /* \"openzeppelin-solidity/contracts/utils/math/SafeMath.sol\":3108:3204  function sub(uint256 a, uint256 b) internal pure returns (uint256) {... */\n      swap3\n      swap2\n      pop\n      pop\n      jump\t// out\n        /* \"openzeppelin-solidity/contracts/token/ERC20/utils/SafeERC20.sol\":701:906  function safeTransfer(... */\n    tag_101:\n        /* \"openzeppelin-solidity/contracts/token/ERC20/utils/SafeERC20.sol\":813:899  _callOptionalReturn(token, abi.encodeWithSelector(token.transfer.selector, to, value)) */\n      tag_163\n        /* \"openzeppelin-solidity/contracts/token/ERC20/utils/SafeERC20.sol\":833:838  token */\n      dup4\n        /* \"openzeppelin-solidity/contracts/token/ERC20/utils/SafeERC20.sol\":863:886  token.transfer.selector */\n      shl(0xe0, 0xa9059cbb)\n        /* \"openzeppelin-solidity/contracts/token/ERC20/utils/SafeERC20.sol\":888:890  to */\n      dup5\n        /* \"openzeppelin-solidity/contracts/token/ERC20/utils/SafeERC20.sol\":892:897  value */\n      dup5\n        /* \"openzeppelin-solidity/contracts/token/ERC20/utils/SafeERC20.sol\":840:898  abi.encodeWithSelector(token.transfer.selector, to, value) */\n      add(0x24, mload(0x40))\n      tag_164\n      swap3\n      swap2\n      swap1\n      tag_165\n      jump\t// in\n    tag_164:\n      mload(0x40)\n      0x20\n      dup2\n      dup4\n      sub\n      sub\n      dup2\n      mstore\n      swap1\n      0x40\n      mstore\n      swap1\n      not(0xffffffffffffffffffffffffffffffffffffffffffffffffffffffff)\n      and\n      0x20\n      dup3\n      add\n      dup1\n      mload\n      0xffffffffffffffffffffffffffffffffffffffffffffffffffffffff\n      dup4\n      dup2\n      dup4\n      and\n      or\n      dup4\n      mstore\n      pop\n      pop\n      pop\n      pop\n        /* \"openzeppelin-solidity/contracts/token/ERC20/utils/SafeERC20.sol\":813:832  _callOptionalReturn */\n      tag_166\n        /* \"openzeppelin-solidity/contracts/token/ERC20/utils/SafeERC20.sol\":813:899  _callOptionalReturn(token, abi.encodeWithSelector(token.transfer.selector, to, value)) */\n      jump\t// in\n    tag_163:\n        /* \"openzeppelin-solidity/contracts/token/ERC20/utils/SafeERC20.sol\":701:906  function safeTransfer(... */\n      pop\n      pop\n      pop\n      jump\t// out\n        /* \"openzeppelin-solidity/contracts/utils/math/SafeMath.sol\":2741:2837  function add(uint256 a, uint256 b) internal pure returns (uint256) {... */\n    tag_118:\n        /* \"openzeppelin-solidity/contracts/utils/math/SafeMath.sol\":2799:2806  uint256 */\n      0x00\n        /* \"openzeppelin-solidity/contracts/utils/math/SafeMath.sol\":2829:2830  b */\n      dup2\n        /* \"openzeppelin-solidity/contracts/utils/math/SafeMath.sol\":2825:2826  a */\n      dup4\n        /* \"openzeppelin-solidity/contracts/utils/math/SafeMath.sol\":2825:2830  a + b */\n      tag_168\n      swap2\n      swap1\n      tag_169\n      jump\t// in\n    tag_168:\n        /* \"openzeppelin-solidity/contracts/utils/math/SafeMath.sol\":2818:2830  return a + b */\n      swap1\n      pop\n        /* \"openzeppelin-solidity/contracts/utils/math/SafeMath.sol\":2741:2837  function add(uint256 a, uint256 b) internal pure returns (uint256) {... */\n      swap3\n      swap2\n      pop\n      pop\n      jump\t// out\n        /* \"openzeppelin-solidity/contracts/access/Ownable.sol\":2270:2457  function _transferOwnership(address newOwner) internal virtual {... */\n    tag_145:\n        /* \"openzeppelin-solidity/contracts/access/Ownable.sol\":2343:2359  address oldOwner */\n      0x00\n        /* \"openzeppelin-solidity/contracts/access/Ownable.sol\":2362:2368  _owner */\n      dup1\n      0x00\n      swap1\n      sload\n      swap1\n      0x0100\n      exp\n      swap1\n      div\n      0xffffffffffffffffffffffffffffffffffffffff\n      and\n        /* \"openzeppelin-solidity/contracts/access/Ownable.sol\":2343:2368  address oldOwner = _owner */\n      swap1\n      pop\n        /* \"openzeppelin-solidity/contracts/access/Ownable.sol\":2387:2395  newOwner */\n      dup2\n        /* \"openzeppelin-solidity/contracts/access/Ownable.sol\":2378:2384  _owner */\n      0x00\n      dup1\n        /* \"openzeppelin-solidity/contracts/access/Ownable.sol\":2378:2395  _owner = newOwner */\n      0x0100\n      exp\n      dup2\n      sload\n      dup2\n      0xffffffffffffffffffffffffffffffffffffffff\n      mul\n      not\n      and\n      swap1\n      dup4\n      0xffffffffffffffffffffffffffffffffffffffff\n      and\n      mul\n      or\n      swap1\n      sstore\n      pop\n        /* \"openzeppelin-solidity/contracts/access/Ownable.sol\":2441:2449  newOwner */\n      dup2\n        /* \"openzeppelin-solidity/contracts/access/Ownable.sol\":2410:2450  OwnershipTransferred(oldOwner, newOwner) */\n      0xffffffffffffffffffffffffffffffffffffffff\n      and\n        /* \"openzeppelin-solidity/contracts/access/Ownable.sol\":2431:2439  oldOwner */\n      dup2\n        /* \"openzeppelin-solidity/contracts/access/Ownable.sol\":2410:2450  OwnershipTransferred(oldOwner, newOwner) */\n      0xffffffffffffffffffffffffffffffffffffffff\n      and\n      0x8be0079c531659141344cd1fd0a4f28419497f9722a3daafe3b4186f6b6457e0\n      mload(0x40)\n      mload(0x40)\n      dup1\n      swap2\n      sub\n      swap1\n      log3\n        /* \"openzeppelin-solidity/contracts/access/Ownable.sol\":2333:2457  {... */\n      pop\n        /* \"openzeppelin-solidity/contracts/access/Ownable.sol\":2270:2457  function _transferOwnership(address newOwner) internal virtual {... */\n      pop\n      jump\t// out\n        /* \"openzeppelin-solidity/contracts/token/ERC20/utils/SafeERC20.sol\":3207:3913  function _callOptionalReturn(IERC20 token, bytes memory data) private {... */\n    tag_166:\n        /* \"openzeppelin-solidity/contracts/token/ERC20/utils/SafeERC20.sol\":3626:3649  bytes memory returndata */\n      0x00\n        /* \"openzeppelin-solidity/contracts/token/ERC20/utils/SafeERC20.sol\":3652:3721  address(token).functionCall(data, \"SafeERC20: low-level call failed\") */\n      tag_172\n        /* \"openzeppelin-solidity/contracts/token/ERC20/utils/SafeERC20.sol\":3680:3684  data */\n      dup3\n        /* \"openzeppelin-solidity/contracts/token/ERC20/utils/SafeERC20.sol\":3652:3721  address(token).functionCall(data, \"SafeERC20: low-level call failed\") */\n      mload(0x40)\n      dup1\n      0x40\n      add\n      0x40\n      mstore\n      dup1\n      0x20\n      dup2\n      mstore\n      0x20\n      add\n      0x5361666545524332303a206c6f772d6c6576656c2063616c6c206661696c6564\n      dup2\n      mstore\n      pop\n        /* \"openzeppelin-solidity/contracts/token/ERC20/utils/SafeERC20.sol\":3660:3665  token */\n      dup6\n        /* \"openzeppelin-solidity/contracts/token/ERC20/utils/SafeERC20.sol\":3652:3679  address(token).functionCall */\n      0xffffffffffffffffffffffffffffffffffffffff\n      and\n      tag_173\n      swap1\n        /* \"openzeppelin-solidity/contracts/token/ERC20/utils/SafeERC20.sol\":3652:3721  address(token).functionCall(data, \"SafeERC20: low-level call failed\") */\n      swap3\n      swap2\n      swap1\n      0xffffffff\n      and\n      jump\t// in\n    tag_172:\n        /* \"openzeppelin-solidity/contracts/token/ERC20/utils/SafeERC20.sol\":3626:3721  bytes memory returndata = address(token).functionCall(data, \"SafeERC20: low-level call failed\") */\n      swap1\n      pop\n        /* \"openzeppelin-solidity/contracts/token/ERC20/utils/SafeERC20.sol\":3755:3756  0 */\n      0x00\n        /* \"openzeppelin-solidity/contracts/token/ERC20/utils/SafeERC20.sol\":3735:3745  returndata */\n      dup2\n        /* \"openzeppelin-solidity/contracts/token/ERC20/utils/SafeERC20.sol\":3735:3752  returndata.length */\n      mload\n        /* \"openzeppelin-solidity/contracts/token/ERC20/utils/SafeERC20.sol\":3735:3756  returndata.length > 0 */\n      gt\n        /* \"openzeppelin-solidity/contracts/token/ERC20/utils/SafeERC20.sol\":3731:3907  if (returndata.length > 0) {... */\n      iszero\n      tag_174\n      jumpi\n        /* \"openzeppelin-solidity/contracts/token/ERC20/utils/SafeERC20.sol\":3830:3840  returndata */\n      dup1\n        /* \"openzeppelin-solidity/contracts/token/ERC20/utils/SafeERC20.sol\":3819:3849  abi.decode(returndata, (bool)) */\n      dup1\n      0x20\n      add\n      swap1\n      mload\n      dup2\n      add\n      swap1\n      tag_175\n      swap2\n      swap1\n      tag_176\n      jump\t// in\n    tag_175:\n        /* \"openzeppelin-solidity/contracts/token/ERC20/utils/SafeERC20.sol\":3811:3896  require(abi.decode(returndata, (bool)), \"SafeERC20: ERC20 operation did not succeed\") */\n      tag_177\n      jumpi\n      mload(0x40)\n      0x08c379a000000000000000000000000000000000000000000000000000000000\n      dup2\n      mstore\n      0x04\n      add\n      tag_178\n      swap1\n      tag_179\n      jump\t// in\n    tag_178:\n      mload(0x40)\n      dup1\n      swap2\n      sub\n      swap1\n      revert\n    tag_177:\n        /* \"openzeppelin-solidity/contracts/token/ERC20/utils/SafeERC20.sol\":3731:3907  if (returndata.length > 0) {... */\n    tag_174:\n        /* \"openzeppelin-solidity/contracts/token/ERC20/utils/SafeERC20.sol\":3277:3913  {... */\n      pop\n        /* \"openzeppelin-solidity/contracts/token/ERC20/utils/SafeERC20.sol\":3207:3913  function _callOptionalReturn(IERC20 token, bytes memory data) private {... */\n      pop\n      pop\n      jump\t// out\n        /* \"openzeppelin-solidity/contracts/utils/Address.sol\":3861:4084  function functionCall(... */\n    tag_173:\n        /* \"openzeppelin-solidity/contracts/utils/Address.sol\":3994:4006  bytes memory */\n      0x60\n        /* \"openzeppelin-solidity/contracts/utils/Address.sol\":4025:4077  functionCallWithValue(target, data, 0, errorMessage) */\n      tag_181\n        /* \"openzeppelin-solidity/contracts/utils/Address.sol\":4047:4053  target */\n      dup5\n        /* \"openzeppelin-solidity/contracts/utils/Address.sol\":4055:4059  data */\n      dup5\n        /* \"openzeppelin-solidity/contracts/utils/Address.sol\":4061:4062  0 */\n      0x00\n        /* \"openzeppelin-solidity/contracts/utils/Address.sol\":4064:4076  errorMessage */\n      dup6\n        /* \"openzeppelin-solidity/contracts/utils/Address.sol\":4025:4046  functionCallWithValue */\n      tag_182\n        /* \"openzeppelin-solidity/contracts/utils/Address.sol\":4025:4077  functionCallWithValue(target, data, 0, errorMessage) */\n      jump\t// in\n    tag_181:\n        /* \"openzeppelin-solidity/contracts/utils/Address.sol\":4018:4077  return functionCallWithValue(target, data, 0, errorMessage) */\n      swap1\n      pop\n        /* \"openzeppelin-solidity/contracts/utils/Address.sol\":3861:4084  function functionCall(... */\n      swap4\n      swap3\n      pop\n      pop\n      pop\n      jump\t// out\n        /* \"openzeppelin-solidity/contracts/utils/Address.sol\":4948:5447  function functionCallWithValue(... */\n    tag_182:\n        /* \"openzeppelin-solidity/contracts/utils/Address.sol\":5113:5125  bytes memory */\n      0x60\n        /* \"openzeppelin-solidity/contracts/utils/Address.sol\":5170:5175  value */\n      dup3\n        /* \"openzeppelin-solidity/contracts/utils/Address.sol\":5145:5166  address(this).balance */\n      selfbalance\n        /* \"openzeppelin-solidity/contracts/utils/Address.sol\":5145:5175  address(this).balance >= value */\n      lt\n      iszero\n        /* \"openzeppelin-solidity/contracts/utils/Address.sol\":5137:5218  require(address(this).balance >= value, \"Address: insufficient balance for call\") */\n      tag_184\n      jumpi\n      mload(0x40)\n      0x08c379a000000000000000000000000000000000000000000000000000000000\n      dup2\n      mstore\n      0x04\n      add\n      tag_185\n      swap1\n      tag_186\n      jump\t// in\n    tag_185:\n      mload(0x40)\n      dup1\n      swap2\n      sub\n      swap1\n      revert\n    tag_184:\n        /* \"openzeppelin-solidity/contracts/utils/Address.sol\":5236:5254  isContract(target) */\n      tag_187\n        /* \"openzeppelin-solidity/contracts/utils/Address.sol\":5247:5253  target */\n      dup6\n        /* \"openzeppelin-solidity/contracts/utils/Address.sol\":5236:5246  isContract */\n      tag_188\n        /* \"openzeppelin-solidity/contracts/utils/Address.sol\":5236:5254  isContract(target) */\n      jump\t// in\n    tag_187:\n        /* \"openzeppelin-solidity/contracts/utils/Address.sol\":5228:5288  require(isContract(target), \"Address: call to non-contract\") */\n      tag_189\n      jumpi\n      mload(0x40)\n      0x08c379a000000000000000000000000000000000000000000000000000000000\n      dup2\n      mstore\n      0x04\n      add\n      tag_190\n      swap1\n      tag_191\n      jump\t// in\n    tag_190:\n      mload(0x40)\n      dup1\n      swap2\n      sub\n      swap1\n      revert\n    tag_189:\n        /* \"openzeppelin-solidity/contracts/utils/Address.sol\":5300:5312  bool success */\n      0x00\n        /* \"openzeppelin-solidity/contracts/utils/Address.sol\":5314:5337  bytes memory returndata */\n      dup1\n        /* \"openzeppelin-solidity/contracts/utils/Address.sol\":5341:5347  target */\n      dup7\n        /* \"openzeppelin-solidity/contracts/utils/Address.sol\":5341:5352  target.call */\n      0xffffffffffffffffffffffffffffffffffffffff\n      and\n        /* \"openzeppelin-solidity/contracts/utils/Address.sol\":5360:5365  value */\n      dup6\n        /* \"openzeppelin-solidity/contracts/utils/Address.sol\":5367:5371  data */\n      dup8\n        /* \"openzeppelin-solidity/contracts/utils/Address.sol\":5341:5372  target.call{value: value}(data) */\n      mload(0x40)\n      tag_192\n      swap2\n      swap1\n      tag_193\n      jump\t// in\n    tag_192:\n      0x00\n      mload(0x40)\n      dup1\n      dup4\n      sub\n      dup2\n      dup6\n      dup8\n      gas\n      call\n      swap3\n      pop\n      pop\n      pop\n      returndatasize\n      dup1\n      0x00\n      dup2\n      eq\n      tag_196\n      jumpi\n      mload(0x40)\n      swap2\n      pop\n      and(add(returndatasize, 0x3f), not(0x1f))\n      dup3\n      add\n      0x40\n      mstore\n      returndatasize\n      dup3\n      mstore\n      returndatasize\n      0x00\n      0x20\n      dup5\n      add\n      returndatacopy\n      jump(tag_195)\n    tag_196:\n      0x60\n      swap2\n      pop\n    tag_195:\n      pop\n        /* \"openzeppelin-solidity/contracts/utils/Address.sol\":5299:5372  (bool success, bytes memory returndata) = target.call{value: value}(data) */\n      swap2\n      pop\n      swap2\n      pop\n        /* \"openzeppelin-solidity/contracts/utils/Address.sol\":5389:5440  verifyCallResult(success, returndata, errorMessage) */\n      tag_197\n        /* \"openzeppelin-solidity/contracts/utils/Address.sol\":5406:5413  success */\n      dup3\n        /* \"openzeppelin-solidity/contracts/utils/Address.sol\":5415:5425  returndata */\n      dup3\n        /* \"openzeppelin-solidity/contracts/utils/Address.sol\":5427:5439  errorMessage */\n      dup7\n        /* \"openzeppelin-solidity/contracts/utils/Address.sol\":5389:5405  verifyCallResult */\n      tag_198\n        /* \"openzeppelin-solidity/contracts/utils/Address.sol\":5389:5440  verifyCallResult(success, returndata, errorMessage) */\n      jump\t// in\n    tag_197:\n        /* \"openzeppelin-solidity/contracts/utils/Address.sol\":5382:5440  return verifyCallResult(success, returndata, errorMessage) */\n      swap3\n      pop\n      pop\n      pop\n        /* \"openzeppelin-solidity/contracts/utils/Address.sol\":4948:5447  function functionCallWithValue(... */\n      swap5\n      swap4\n      pop\n      pop\n      pop\n      pop\n      jump\t// out\n        /* \"openzeppelin-solidity/contracts/utils/Address.sol\":1175:1495  function isContract(address account) internal view returns (bool) {... */\n    tag_188:\n        /* \"openzeppelin-solidity/contracts/utils/Address.sol\":1235:1239  bool */\n      0x00\n        /* \"openzeppelin-solidity/contracts/utils/Address.sol\":1487:1488  0 */\n      dup1\n        /* \"openzeppelin-solidity/contracts/utils/Address.sol\":1465:1472  account */\n      dup3\n        /* \"openzeppelin-solidity/contracts/utils/Address.sol\":1465:1484  account.code.length */\n      0xffffffffffffffffffffffffffffffffffffffff\n      and\n      extcodesize\n        /* \"openzeppelin-solidity/contracts/utils/Address.sol\":1465:1488  account.code.length > 0 */\n      gt\n        /* \"openzeppelin-solidity/contracts/utils/Address.sol\":1458:1488  return account.code.length > 0 */\n      swap1\n      pop\n        /* \"openzeppelin-solidity/contracts/utils/Address.sol\":1175:1495  function isContract(address account) internal view returns (bool) {... */\n      swap2\n      swap1\n      pop\n      jump\t// out\n        /* \"openzeppelin-solidity/contracts/utils/Address.sol\":7561:8253  function verifyCallResult(... */\n    tag_198:\n        /* \"openzeppelin-solidity/contracts/utils/Address.sol\":7707:7719  bytes memory */\n      0x60\n        /* \"openzeppelin-solidity/contracts/utils/Address.sol\":7735:7742  success */\n      dup4\n        /* \"openzeppelin-solidity/contracts/utils/Address.sol\":7731:8247  if (success) {... */\n      iszero\n      tag_201\n      jumpi\n        /* \"openzeppelin-solidity/contracts/utils/Address.sol\":7765:7775  returndata */\n      dup3\n        /* \"openzeppelin-solidity/contracts/utils/Address.sol\":7758:7775  return returndata */\n      swap1\n      pop\n      jump(tag_200)\n        /* \"openzeppelin-solidity/contracts/utils/Address.sol\":7731:8247  if (success) {... */\n    tag_201:\n        /* \"openzeppelin-solidity/contracts/utils/Address.sol\":7896:7897  0 */\n      0x00\n        /* \"openzeppelin-solidity/contracts/utils/Address.sol\":7876:7886  returndata */\n      dup4\n        /* \"openzeppelin-solidity/contracts/utils/Address.sol\":7876:7893  returndata.length */\n      mload\n        /* \"openzeppelin-solidity/contracts/utils/Address.sol\":7876:7897  returndata.length > 0 */\n      gt\n        /* \"openzeppelin-solidity/contracts/utils/Address.sol\":7872:8237  if (returndata.length > 0) {... */\n      iszero\n      tag_203\n      jumpi\n        /* \"openzeppelin-solidity/contracts/utils/Address.sol\":8070:8080  returndata */\n      dup3\n        /* \"openzeppelin-solidity/contracts/utils/Address.sol\":8064:8081  mload(returndata) */\n      mload\n        /* \"openzeppelin-solidity/contracts/utils/Address.sol\":8130:8145  returndata_size */\n      dup1\n        /* \"openzeppelin-solidity/contracts/utils/Address.sol\":8117:8127  returndata */\n      dup5\n        /* \"openzeppelin-solidity/contracts/utils/Address.sol\":8113:8115  32 */\n      0x20\n        /* \"openzeppelin-solidity/contracts/utils/Address.sol\":8109:8128  add(32, returndata) */\n      add\n        /* \"openzeppelin-solidity/contracts/utils/Address.sol\":8102:8146  revert(add(32, returndata), returndata_size) */\n      revert\n        /* \"openzeppelin-solidity/contracts/utils/Address.sol\":7872:8237  if (returndata.length > 0) {... */\n    tag_203:\n        /* \"openzeppelin-solidity/contracts/utils/Address.sol\":8209:8221  errorMessage */\n      dup2\n        /* \"openzeppelin-solidity/contracts/utils/Address.sol\":8202:8222  revert(errorMessage) */\n      mload(0x40)\n      0x08c379a000000000000000000000000000000000000000000000000000000000\n      dup2\n      mstore\n      0x04\n      add\n      tag_205\n      swap2\n      swap1\n      tag_79\n      jump\t// in\n    tag_205:\n      mload(0x40)\n      dup1\n      swap2\n      sub\n      swap1\n      revert\n        /* \"openzeppelin-solidity/contracts/utils/Address.sol\":7561:8253  function verifyCallResult(... */\n    tag_200:\n      swap4\n      swap3\n      pop\n      pop\n      pop\n      jump\t// out\n        /* \"#utility.yul\":88:205   */\n    tag_207:\n        /* \"#utility.yul\":197:198   */\n      0x00\n        /* \"#utility.yul\":194:195   */\n      dup1\n        /* \"#utility.yul\":187:199   */\n      revert\n        /* \"#utility.yul\":334:411   */\n    tag_209:\n        /* \"#utility.yul\":371:378   */\n      0x00\n        /* \"#utility.yul\":400:405   */\n      dup2\n        /* \"#utility.yul\":389:405   */\n      swap1\n      pop\n        /* \"#utility.yul\":334:411   */\n      swap2\n      swap1\n      pop\n      jump\t// out\n        /* \"#utility.yul\":417:539   */\n    tag_210:\n        /* \"#utility.yul\":490:514   */\n      tag_257\n        /* \"#utility.yul\":508:513   */\n      dup2\n        /* \"#utility.yul\":490:514   */\n      tag_209\n      jump\t// in\n    tag_257:\n        /* \"#utility.yul\":483:488   */\n      dup2\n        /* \"#utility.yul\":480:515   */\n      eq\n        /* \"#utility.yul\":470:533   */\n      tag_258\n      jumpi\n        /* \"#utility.yul\":529:530   */\n      0x00\n        /* \"#utility.yul\":526:527   */\n      dup1\n        /* \"#utility.yul\":519:531   */\n      revert\n        /* \"#utility.yul\":470:533   */\n    tag_258:\n        /* \"#utility.yul\":417:539   */\n      pop\n      jump\t// out\n        /* \"#utility.yul\":545:684   */\n    tag_211:\n        /* \"#utility.yul\":591:596   */\n      0x00\n        /* \"#utility.yul\":629:635   */\n      dup2\n        /* \"#utility.yul\":616:636   */\n      calldataload\n        /* \"#utility.yul\":607:636   */\n      swap1\n      pop\n        /* \"#utility.yul\":645:678   */\n      tag_260\n        /* \"#utility.yul\":672:677   */\n      dup2\n        /* \"#utility.yul\":645:678   */\n      tag_210\n      jump\t// in\n    tag_260:\n        /* \"#utility.yul\":545:684   */\n      swap3\n      swap2\n      pop\n      pop\n      jump\t// out\n        /* \"#utility.yul\":690:1019   */\n    tag_20:\n        /* \"#utility.yul\":749:755   */\n      0x00\n        /* \"#utility.yul\":798:800   */\n      0x20\n        /* \"#utility.yul\":786:795   */\n      dup3\n        /* \"#utility.yul\":777:784   */\n      dup5\n        /* \"#utility.yul\":773:796   */\n      sub\n        /* \"#utility.yul\":769:801   */\n      slt\n        /* \"#utility.yul\":766:885   */\n      iszero\n      tag_262\n      jumpi\n        /* \"#utility.yul\":804:883   */\n      tag_263\n      tag_207\n      jump\t// in\n    tag_263:\n        /* \"#utility.yul\":766:885   */\n    tag_262:\n        /* \"#utility.yul\":924:925   */\n      0x00\n        /* \"#utility.yul\":949:1002   */\n      tag_264\n        /* \"#utility.yul\":994:1001   */\n      dup5\n        /* \"#utility.yul\":985:991   */\n      dup3\n        /* \"#utility.yul\":974:983   */\n      dup6\n        /* \"#utility.yul\":970:992   */\n      add\n        /* \"#utility.yul\":949:1002   */\n      tag_211\n      jump\t// in\n    tag_264:\n        /* \"#utility.yul\":939:1002   */\n      swap2\n      pop\n        /* \"#utility.yul\":895:1012   */\n      pop\n        /* \"#utility.yul\":690:1019   */\n      swap3\n      swap2\n      pop\n      pop\n      jump\t// out\n        /* \"#utility.yul\":1025:1143   */\n    tag_212:\n        /* \"#utility.yul\":1112:1136   */\n      tag_266\n        /* \"#utility.yul\":1130:1135   */\n      dup2\n        /* \"#utility.yul\":1112:1136   */\n      tag_209\n      jump\t// in\n    tag_266:\n        /* \"#utility.yul\":1107:1110   */\n      dup3\n        /* \"#utility.yul\":1100:1137   */\n      mstore\n        /* \"#utility.yul\":1025:1143   */\n      pop\n      pop\n      jump\t// out\n        /* \"#utility.yul\":1149:1371   */\n    tag_23:\n        /* \"#utility.yul\":1242:1246   */\n      0x00\n        /* \"#utility.yul\":1280:1282   */\n      0x20\n        /* \"#utility.yul\":1269:1278   */\n      dup3\n        /* \"#utility.yul\":1265:1283   */\n      add\n        /* \"#utility.yul\":1257:1283   */\n      swap1\n      pop\n        /* \"#utility.yul\":1293:1364   */\n      tag_268\n        /* \"#utility.yul\":1361:1362   */\n      0x00\n        /* \"#utility.yul\":1350:1359   */\n      dup4\n        /* \"#utility.yul\":1346:1363   */\n      add\n        /* \"#utility.yul\":1337:1343   */\n      dup5\n        /* \"#utility.yul\":1293:1364   */\n      tag_212\n      jump\t// in\n    tag_268:\n        /* \"#utility.yul\":1149:1371   */\n      swap3\n      swap2\n      pop\n      pop\n      jump\t// out\n        /* \"#utility.yul\":1377:1503   */\n    tag_213:\n        /* \"#utility.yul\":1414:1421   */\n      0x00\n        /* \"#utility.yul\":1454:1496   */\n      0xffffffffffffffffffffffffffffffffffffffff\n        /* \"#utility.yul\":1447:1452   */\n      dup3\n        /* \"#utility.yul\":1443:1497   */\n      and\n        /* \"#utility.yul\":1432:1497   */\n      swap1\n      pop\n        /* \"#utility.yul\":1377:1503   */\n      swap2\n      swap1\n      pop\n      jump\t// out\n        /* \"#utility.yul\":1509:1605   */\n    tag_214:\n        /* \"#utility.yul\":1546:1553   */\n      0x00\n        /* \"#utility.yul\":1575:1599   */\n      tag_271\n        /* \"#utility.yul\":1593:1598   */\n      dup3\n        /* \"#utility.yul\":1575:1599   */\n      tag_213\n      jump\t// in\n    tag_271:\n        /* \"#utility.yul\":1564:1599   */\n      swap1\n      pop\n        /* \"#utility.yul\":1509:1605   */\n      swap2\n      swap1\n      pop\n      jump\t// out\n        /* \"#utility.yul\":1611:1733   */\n    tag_215:\n        /* \"#utility.yul\":1684:1708   */\n      tag_273\n        /* \"#utility.yul\":1702:1707   */\n      dup2\n        /* \"#utility.yul\":1684:1708   */\n      tag_214\n      jump\t// in\n    tag_273:\n        /* \"#utility.yul\":1677:1682   */\n      dup2\n        /* \"#utility.yul\":1674:1709   */\n      eq\n        /* \"#utility.yul\":1664:1727   */\n      tag_274\n      jumpi\n        /* \"#utility.yul\":1723:1724   */\n      0x00\n        /* \"#utility.yul\":1720:1721   */\n      dup1\n        /* \"#utility.yul\":1713:1725   */\n      revert\n        /* \"#utility.yul\":1664:1727   */\n    tag_274:\n        /* \"#utility.yul\":1611:1733   */\n      pop\n      jump\t// out\n        /* \"#utility.yul\":1739:1878   */\n    tag_216:\n        /* \"#utility.yul\":1785:1790   */\n      0x00\n        /* \"#utility.yul\":1823:1829   */\n      dup2\n        /* \"#utility.yul\":1810:1830   */\n      calldataload\n        /* \"#utility.yul\":1801:1830   */\n      swap1\n      pop\n        /* \"#utility.yul\":1839:1872   */\n      tag_276\n        /* \"#utility.yul\":1866:1871   */\n      dup2\n        /* \"#utility.yul\":1839:1872   */\n      tag_215\n      jump\t// in\n    tag_276:\n        /* \"#utility.yul\":1739:1878   */\n      swap3\n      swap2\n      pop\n      pop\n      jump\t// out\n        /* \"#utility.yul\":1884:2503   */\n    tag_36:\n        /* \"#utility.yul\":1961:1967   */\n      0x00\n        /* \"#utility.yul\":1969:1975   */\n      dup1\n        /* \"#utility.yul\":1977:1983   */\n      0x00\n        /* \"#utility.yul\":2026:2028   */\n      0x60\n        /* \"#utility.yul\":2014:2023   */\n      dup5\n        /* \"#utility.yul\":2005:2012   */\n      dup7\n        /* \"#utility.yul\":2001:2024   */\n      sub\n        /* \"#utility.yul\":1997:2029   */\n      slt\n        /* \"#utility.yul\":1994:2113   */\n      iszero\n      tag_278\n      jumpi\n        /* \"#utility.yul\":2032:2111   */\n      tag_279\n      tag_207\n      jump\t// in\n    tag_279:\n        /* \"#utility.yul\":1994:2113   */\n    tag_278:\n        /* \"#utility.yul\":2152:2153   */\n      0x00\n        /* \"#utility.yul\":2177:2230   */\n      tag_280\n        /* \"#utility.yul\":2222:2229   */\n      dup7\n        /* \"#utility.yul\":2213:2219   */\n      dup3\n        /* \"#utility.yul\":2202:2211   */\n      dup8\n        /* \"#utility.yul\":2198:2220   */\n      add\n        /* \"#utility.yul\":2177:2230   */\n      tag_216\n      jump\t// in\n    tag_280:\n        /* \"#utility.yul\":2167:2230   */\n      swap4\n      pop\n        /* \"#utility.yul\":2123:2240   */\n      pop\n        /* \"#utility.yul\":2279:2281   */\n      0x20\n        /* \"#utility.yul\":2305:2358   */\n      tag_281\n        /* \"#utility.yul\":2350:2357   */\n      dup7\n        /* \"#utility.yul\":2341:2347   */\n      dup3\n        /* \"#utility.yul\":2330:2339   */\n      dup8\n        /* \"#utility.yul\":2326:2348   */\n      add\n        /* \"#utility.yul\":2305:2358   */\n      tag_211\n      jump\t// in\n    tag_281:\n        /* \"#utility.yul\":2295:2358   */\n      swap3\n      pop\n        /* \"#utility.yul\":2250:2368   */\n      pop\n        /* \"#utility.yul\":2407:2409   */\n      0x40\n        /* \"#utility.yul\":2433:2486   */\n      tag_282\n        /* \"#utility.yul\":2478:2485   */\n      dup7\n        /* \"#utility.yul\":2469:2475   */\n      dup3\n        /* \"#utility.yul\":2458:2467   */\n      dup8\n        /* \"#utility.yul\":2454:2476   */\n      add\n        /* \"#utility.yul\":2433:2486   */\n      tag_211\n      jump\t// in\n    tag_282:\n        /* \"#utility.yul\":2423:2486   */\n      swap2\n      pop\n        /* \"#utility.yul\":2378:2496   */\n      pop\n        /* \"#utility.yul\":1884:2503   */\n      swap3\n      pop\n      swap3\n      pop\n      swap3\n      jump\t// out\n        /* \"#utility.yul\":2509:2627   */\n    tag_217:\n        /* \"#utility.yul\":2596:2620   */\n      tag_284\n        /* \"#utility.yul\":2614:2619   */\n      dup2\n        /* \"#utility.yul\":2596:2620   */\n      tag_214\n      jump\t// in\n    tag_284:\n        /* \"#utility.yul\":2591:2594   */\n      dup3\n        /* \"#utility.yul\":2584:2621   */\n      mstore\n        /* \"#utility.yul\":2509:2627   */\n      pop\n      pop\n      jump\t// out\n        /* \"#utility.yul\":2633:2855   */\n    tag_45:\n        /* \"#utility.yul\":2726:2730   */\n      0x00\n        /* \"#utility.yul\":2764:2766   */\n      0x20\n        /* \"#utility.yul\":2753:2762   */\n      dup3\n        /* \"#utility.yul\":2749:2767   */\n      add\n        /* \"#utility.yul\":2741:2767   */\n      swap1\n      pop\n        /* \"#utility.yul\":2777:2848   */\n      tag_286\n        /* \"#utility.yul\":2845:2846   */\n      0x00\n        /* \"#utility.yul\":2834:2843   */\n      dup4\n        /* \"#utility.yul\":2830:2847   */\n      add\n        /* \"#utility.yul\":2821:2827   */\n      dup5\n        /* \"#utility.yul\":2777:2848   */\n      tag_217\n      jump\t// in\n    tag_286:\n        /* \"#utility.yul\":2633:2855   */\n      swap3\n      swap2\n      pop\n      pop\n      jump\t// out\n        /* \"#utility.yul\":2861:2951   */\n    tag_218:\n        /* \"#utility.yul\":2895:2902   */\n      0x00\n        /* \"#utility.yul\":2938:2943   */\n      dup2\n        /* \"#utility.yul\":2931:2944   */\n      iszero\n        /* \"#utility.yul\":2924:2945   */\n      iszero\n        /* \"#utility.yul\":2913:2945   */\n      swap1\n      pop\n        /* \"#utility.yul\":2861:2951   */\n      swap2\n      swap1\n      pop\n      jump\t// out\n        /* \"#utility.yul\":2957:3066   */\n    tag_219:\n        /* \"#utility.yul\":3038:3059   */\n      tag_289\n        /* \"#utility.yul\":3053:3058   */\n      dup2\n        /* \"#utility.yul\":3038:3059   */\n      tag_218\n      jump\t// in\n    tag_289:\n        /* \"#utility.yul\":3033:3036   */\n      dup3\n        /* \"#utility.yul\":3026:3060   */\n      mstore\n        /* \"#utility.yul\":2957:3066   */\n      pop\n      pop\n      jump\t// out\n        /* \"#utility.yul\":3072:3613   */\n    tag_55:\n        /* \"#utility.yul\":3243:3247   */\n      0x00\n        /* \"#utility.yul\":3281:3284   */\n      0x80\n        /* \"#utility.yul\":3270:3279   */\n      dup3\n        /* \"#utility.yul\":3266:3285   */\n      add\n        /* \"#utility.yul\":3258:3285   */\n      swap1\n      pop\n        /* \"#utility.yul\":3295:3366   */\n      tag_291\n        /* \"#utility.yul\":3363:3364   */\n      0x00\n        /* \"#utility.yul\":3352:3361   */\n      dup4\n        /* \"#utility.yul\":3348:3365   */\n      add\n        /* \"#utility.yul\":3339:3345   */\n      dup8\n        /* \"#utility.yul\":3295:3366   */\n      tag_212\n      jump\t// in\n    tag_291:\n        /* \"#utility.yul\":3376:3448   */\n      tag_292\n        /* \"#utility.yul\":3444:3446   */\n      0x20\n        /* \"#utility.yul\":3433:3442   */\n      dup4\n        /* \"#utility.yul\":3429:3447   */\n      add\n        /* \"#utility.yul\":3420:3426   */\n      dup7\n        /* \"#utility.yul\":3376:3448   */\n      tag_212\n      jump\t// in\n    tag_292:\n        /* \"#utility.yul\":3458:3530   */\n      tag_293\n        /* \"#utility.yul\":3526:3528   */\n      0x40\n        /* \"#utility.yul\":3515:3524   */\n      dup4\n        /* \"#utility.yul\":3511:3529   */\n      add\n        /* \"#utility.yul\":3502:3508   */\n      dup6\n        /* \"#utility.yul\":3458:3530   */\n      tag_217\n      jump\t// in\n    tag_293:\n        /* \"#utility.yul\":3540:3606   */\n      tag_294\n        /* \"#utility.yul\":3602:3604   */\n      0x60\n        /* \"#utility.yul\":3591:3600   */\n      dup4\n        /* \"#utility.yul\":3587:3605   */\n      add\n        /* \"#utility.yul\":3578:3584   */\n      dup5\n        /* \"#utility.yul\":3540:3606   */\n      tag_219\n      jump\t// in\n    tag_294:\n        /* \"#utility.yul\":3072:3613   */\n      swap6\n      swap5\n      pop\n      pop\n      pop\n      pop\n      pop\n      jump\t// out\n        /* \"#utility.yul\":3619:3948   */\n    tag_61:\n        /* \"#utility.yul\":3678:3684   */\n      0x00\n        /* \"#utility.yul\":3727:3729   */\n      0x20\n        /* \"#utility.yul\":3715:3724   */\n      dup3\n        /* \"#utility.yul\":3706:3713   */\n      dup5\n        /* \"#utility.yul\":3702:3725   */\n      sub\n        /* \"#utility.yul\":3698:3730   */\n      slt\n        /* \"#utility.yul\":3695:3814   */\n      iszero\n      tag_296\n      jumpi\n        /* \"#utility.yul\":3733:3812   */\n      tag_297\n      tag_207\n      jump\t// in\n    tag_297:\n        /* \"#utility.yul\":3695:3814   */\n    tag_296:\n        /* \"#utility.yul\":3853:3854   */\n      0x00\n        /* \"#utility.yul\":3878:3931   */\n      tag_298\n        /* \"#utility.yul\":3923:3930   */\n      dup5\n        /* \"#utility.yul\":3914:3920   */\n      dup3\n        /* \"#utility.yul\":3903:3912   */\n      dup6\n        /* \"#utility.yul\":3899:3921   */\n      add\n        /* \"#utility.yul\":3878:3931   */\n      tag_216\n      jump\t// in\n    tag_298:\n        /* \"#utility.yul\":3868:3931   */\n      swap2\n      pop\n        /* \"#utility.yul\":3824:3941   */\n      pop\n        /* \"#utility.yul\":3619:3948   */\n      swap3\n      swap2\n      pop\n      pop\n      jump\t// out\n        /* \"#utility.yul\":3954:4014   */\n    tag_220:\n        /* \"#utility.yul\":3982:3985   */\n      0x00\n        /* \"#utility.yul\":4003:4008   */\n      dup2\n        /* \"#utility.yul\":3996:4008   */\n      swap1\n      pop\n        /* \"#utility.yul\":3954:4014   */\n      swap2\n      swap1\n      pop\n      jump\t// out\n        /* \"#utility.yul\":4020:4162   */\n    tag_221:\n        /* \"#utility.yul\":4070:4079   */\n      0x00\n        /* \"#utility.yul\":4103:4156   */\n      tag_301\n        /* \"#utility.yul\":4121:4155   */\n      tag_302\n        /* \"#utility.yul\":4130:4154   */\n      tag_303\n        /* \"#utility.yul\":4148:4153   */\n      dup5\n        /* \"#utility.yul\":4130:4154   */\n      tag_213\n      jump\t// in\n    tag_303:\n        /* \"#utility.yul\":4121:4155   */\n      tag_220\n      jump\t// in\n    tag_302:\n        /* \"#utility.yul\":4103:4156   */\n      tag_213\n      jump\t// in\n    tag_301:\n        /* \"#utility.yul\":4090:4156   */\n      swap1\n      pop\n        /* \"#utility.yul\":4020:4162   */\n      swap2\n      swap1\n      pop\n      jump\t// out\n        /* \"#utility.yul\":4168:4294   */\n    tag_222:\n        /* \"#utility.yul\":4218:4227   */\n      0x00\n        /* \"#utility.yul\":4251:4288   */\n      tag_305\n        /* \"#utility.yul\":4282:4287   */\n      dup3\n        /* \"#utility.yul\":4251:4288   */\n      tag_221\n      jump\t// in\n    tag_305:\n        /* \"#utility.yul\":4238:4288   */\n      swap1\n      pop\n        /* \"#utility.yul\":4168:4294   */\n      swap2\n      swap1\n      pop\n      jump\t// out\n        /* \"#utility.yul\":4300:4440   */\n    tag_223:\n        /* \"#utility.yul\":4364:4373   */\n      0x00\n        /* \"#utility.yul\":4397:4434   */\n      tag_307\n        /* \"#utility.yul\":4428:4433   */\n      dup3\n        /* \"#utility.yul\":4397:4434   */\n      tag_222\n      jump\t// in\n    tag_307:\n        /* \"#utility.yul\":4384:4434   */\n      swap1\n      pop\n        /* \"#utility.yul\":4300:4440   */\n      swap2\n      swap1\n      pop\n      jump\t// out\n        /* \"#utility.yul\":4446:4605   */\n    tag_224:\n        /* \"#utility.yul\":4547:4598   */\n      tag_309\n        /* \"#utility.yul\":4592:4597   */\n      dup2\n        /* \"#utility.yul\":4547:4598   */\n      tag_223\n      jump\t// in\n    tag_309:\n        /* \"#utility.yul\":4542:4545   */\n      dup3\n        /* \"#utility.yul\":4535:4599   */\n      mstore\n        /* \"#utility.yul\":4446:4605   */\n      pop\n      pop\n      jump\t// out\n        /* \"#utility.yul\":4611:4861   */\n    tag_66:\n        /* \"#utility.yul\":4718:4722   */\n      0x00\n        /* \"#utility.yul\":4756:4758   */\n      0x20\n        /* \"#utility.yul\":4745:4754   */\n      dup3\n        /* \"#utility.yul\":4741:4759   */\n      add\n        /* \"#utility.yul\":4733:4759   */\n      swap1\n      pop\n        /* \"#utility.yul\":4769:4854   */\n      tag_311\n        /* \"#utility.yul\":4851:4852   */\n      0x00\n        /* \"#utility.yul\":4840:4849   */\n      dup4\n        /* \"#utility.yul\":4836:4853   */\n      add\n        /* \"#utility.yul\":4827:4833   */\n      dup5\n        /* \"#utility.yul\":4769:4854   */\n      tag_224\n      jump\t// in\n    tag_311:\n        /* \"#utility.yul\":4611:4861   */\n      swap3\n      swap2\n      pop\n      pop\n      jump\t// out\n        /* \"#utility.yul\":4867:5036   */\n    tag_225:\n        /* \"#utility.yul\":4951:4962   */\n      0x00\n        /* \"#utility.yul\":4985:4991   */\n      dup3\n        /* \"#utility.yul\":4980:4983   */\n      dup3\n        /* \"#utility.yul\":4973:4992   */\n      mstore\n        /* \"#utility.yul\":5025:5029   */\n      0x20\n        /* \"#utility.yul\":5020:5023   */\n      dup3\n        /* \"#utility.yul\":5016:5030   */\n      add\n        /* \"#utility.yul\":5001:5030   */\n      swap1\n      pop\n        /* \"#utility.yul\":4867:5036   */\n      swap3\n      swap2\n      pop\n      pop\n      jump\t// out\n        /* \"#utility.yul\":5042:5224   */\n    tag_226:\n        /* \"#utility.yul\":5182:5216   */\n      0x4f776e61626c653a2063616c6c6572206973206e6f7420746865206f776e6572\n        /* \"#utility.yul\":5178:5179   */\n      0x00\n        /* \"#utility.yul\":5170:5176   */\n      dup3\n        /* \"#utility.yul\":5166:5180   */\n      add\n        /* \"#utility.yul\":5159:5217   */\n      mstore\n        /* \"#utility.yul\":5042:5224   */\n      pop\n      jump\t// out\n        /* \"#utility.yul\":5230:5596   */\n    tag_227:\n        /* \"#utility.yul\":5372:5375   */\n      0x00\n        /* \"#utility.yul\":5393:5460   */\n      tag_315\n        /* \"#utility.yul\":5457:5459   */\n      0x20\n        /* \"#utility.yul\":5452:5455   */\n      dup4\n        /* \"#utility.yul\":5393:5460   */\n      tag_225\n      jump\t// in\n    tag_315:\n        /* \"#utility.yul\":5386:5460   */\n      swap2\n      pop\n        /* \"#utility.yul\":5469:5562   */\n      tag_316\n        /* \"#utility.yul\":5558:5561   */\n      dup3\n        /* \"#utility.yul\":5469:5562   */\n      tag_226\n      jump\t// in\n    tag_316:\n        /* \"#utility.yul\":5587:5589   */\n      0x20\n        /* \"#utility.yul\":5582:5585   */\n      dup3\n        /* \"#utility.yul\":5578:5590   */\n      add\n        /* \"#utility.yul\":5571:5590   */\n      swap1\n      pop\n        /* \"#utility.yul\":5230:5596   */\n      swap2\n      swap1\n      pop\n      jump\t// out\n        /* \"#utility.yul\":5602:6021   */\n    tag_75:\n        /* \"#utility.yul\":5768:5772   */\n      0x00\n        /* \"#utility.yul\":5806:5808   */\n      0x20\n        /* \"#utility.yul\":5795:5804   */\n      dup3\n        /* \"#utility.yul\":5791:5809   */\n      add\n        /* \"#utility.yul\":5783:5809   */\n      swap1\n      pop\n        /* \"#utility.yul\":5855:5864   */\n      dup2\n        /* \"#utility.yul\":5849:5853   */\n      dup2\n        /* \"#utility.yul\":5845:5865   */\n      sub\n        /* \"#utility.yul\":5841:5842   */\n      0x00\n        /* \"#utility.yul\":5830:5839   */\n      dup4\n        /* \"#utility.yul\":5826:5843   */\n      add\n        /* \"#utility.yul\":5819:5866   */\n      mstore\n        /* \"#utility.yul\":5883:6014   */\n      tag_318\n        /* \"#utility.yul\":6009:6013   */\n      dup2\n        /* \"#utility.yul\":5883:6014   */\n      tag_227\n      jump\t// in\n    tag_318:\n        /* \"#utility.yul\":5875:6014   */\n      swap1\n      pop\n        /* \"#utility.yul\":5602:6021   */\n      swap2\n      swap1\n      pop\n      jump\t// out\n        /* \"#utility.yul\":6027:6126   */\n    tag_228:\n        /* \"#utility.yul\":6079:6085   */\n      0x00\n        /* \"#utility.yul\":6113:6118   */\n      dup2\n        /* \"#utility.yul\":6107:6119   */\n      mload\n        /* \"#utility.yul\":6097:6119   */\n      swap1\n      pop\n        /* \"#utility.yul\":6027:6126   */\n      swap2\n      swap1\n      pop\n      jump\t// out\n        /* \"#utility.yul\":6132:6439   */\n    tag_229:\n        /* \"#utility.yul\":6200:6201   */\n      0x00\n        /* \"#utility.yul\":6210:6323   */\n    tag_321:\n        /* \"#utility.yul\":6224:6230   */\n      dup4\n        /* \"#utility.yul\":6221:6222   */\n      dup2\n        /* \"#utility.yul\":6218:6231   */\n      lt\n        /* \"#utility.yul\":6210:6323   */\n      iszero\n      tag_323\n      jumpi\n        /* \"#utility.yul\":6309:6310   */\n      dup1\n        /* \"#utility.yul\":6304:6307   */\n      dup3\n        /* \"#utility.yul\":6300:6311   */\n      add\n        /* \"#utility.yul\":6294:6312   */\n      mload\n        /* \"#utility.yul\":6290:6291   */\n      dup2\n        /* \"#utility.yul\":6285:6288   */\n      dup5\n        /* \"#utility.yul\":6281:6292   */\n      add\n        /* \"#utility.yul\":6274:6313   */\n      mstore\n        /* \"#utility.yul\":6246:6248   */\n      0x20\n        /* \"#utility.yul\":6243:6244   */\n      dup2\n        /* \"#utility.yul\":6239:6249   */\n      add\n        /* \"#utility.yul\":6234:6249   */\n      swap1\n      pop\n        /* \"#utility.yul\":6210:6323   */\n      jump(tag_321)\n    tag_323:\n        /* \"#utility.yul\":6341:6347   */\n      dup4\n        /* \"#utility.yul\":6338:6339   */\n      dup2\n        /* \"#utility.yul\":6335:6348   */\n      gt\n        /* \"#utility.yul\":6332:6433   */\n      iszero\n      tag_324\n      jumpi\n        /* \"#utility.yul\":6421:6422   */\n      0x00\n        /* \"#utility.yul\":6412:6418   */\n      dup5\n        /* \"#utility.yul\":6407:6410   */\n      dup5\n        /* \"#utility.yul\":6403:6419   */\n      add\n        /* \"#utility.yul\":6396:6423   */\n      mstore\n        /* \"#utility.yul\":6332:6433   */\n    tag_324:\n        /* \"#utility.yul\":6181:6439   */\n      pop\n        /* \"#utility.yul\":6132:6439   */\n      pop\n      pop\n      pop\n      jump\t// out\n        /* \"#utility.yul\":6445:6547   */\n    tag_230:\n        /* \"#utility.yul\":6486:6492   */\n      0x00\n        /* \"#utility.yul\":6537:6539   */\n      0x1f\n        /* \"#utility.yul\":6533:6540   */\n      not\n        /* \"#utility.yul\":6528:6530   */\n      0x1f\n        /* \"#utility.yul\":6521:6526   */\n      dup4\n        /* \"#utility.yul\":6517:6531   */\n      add\n        /* \"#utility.yul\":6513:6541   */\n      and\n        /* \"#utility.yul\":6503:6541   */\n      swap1\n      pop\n        /* \"#utility.yul\":6445:6547   */\n      swap2\n      swap1\n      pop\n      jump\t// out\n        /* \"#utility.yul\":6553:6917   */\n    tag_231:\n        /* \"#utility.yul\":6641:6644   */\n      0x00\n        /* \"#utility.yul\":6669:6708   */\n      tag_327\n        /* \"#utility.yul\":6702:6707   */\n      dup3\n        /* \"#utility.yul\":6669:6708   */\n      tag_228\n      jump\t// in\n    tag_327:\n        /* \"#utility.yul\":6724:6795   */\n      tag_328\n        /* \"#utility.yul\":6788:6794   */\n      dup2\n        /* \"#utility.yul\":6783:6786   */\n      dup6\n        /* \"#utility.yul\":6724:6795   */\n      tag_225\n      jump\t// in\n    tag_328:\n        /* \"#utility.yul\":6717:6795   */\n      swap4\n      pop\n        /* \"#utility.yul\":6804:6856   */\n      tag_329\n        /* \"#utility.yul\":6849:6855   */\n      dup2\n        /* \"#utility.yul\":6844:6847   */\n      dup6\n        /* \"#utility.yul\":6837:6841   */\n      0x20\n        /* \"#utility.yul\":6830:6835   */\n      dup7\n        /* \"#utility.yul\":6826:6842   */\n      add\n        /* \"#utility.yul\":6804:6856   */\n      tag_229\n      jump\t// in\n    tag_329:\n        /* \"#utility.yul\":6881:6910   */\n      tag_330\n        /* \"#utility.yul\":6903:6909   */\n      dup2\n        /* \"#utility.yul\":6881:6910   */\n      tag_230\n      jump\t// in\n    tag_330:\n        /* \"#utility.yul\":6876:6879   */\n      dup5\n        /* \"#utility.yul\":6872:6911   */\n      add\n        /* \"#utility.yul\":6865:6911   */\n      swap2\n      pop\n        /* \"#utility.yul\":6645:6917   */\n      pop\n        /* \"#utility.yul\":6553:6917   */\n      swap3\n      swap2\n      pop\n      pop\n      jump\t// out\n        /* \"#utility.yul\":6923:7236   */\n    tag_79:\n        /* \"#utility.yul\":7036:7040   */\n      0x00\n        /* \"#utility.yul\":7074:7076   */\n      0x20\n        /* \"#utility.yul\":7063:7072   */\n      dup3\n        /* \"#utility.yul\":7059:7077   */\n      add\n        /* \"#utility.yul\":7051:7077   */\n      swap1\n      pop\n        /* \"#utility.yul\":7123:7132   */\n      dup2\n        /* \"#utility.yul\":7117:7121   */\n      dup2\n        /* \"#utility.yul\":7113:7133   */\n      sub\n        /* \"#utility.yul\":7109:7110   */\n      0x00\n        /* \"#utility.yul\":7098:7107   */\n      dup4\n        /* \"#utility.yul\":7094:7111   */\n      add\n        /* \"#utility.yul\":7087:7134   */\n      mstore\n        /* \"#utility.yul\":7151:7229   */\n      tag_332\n        /* \"#utility.yul\":7224:7228   */\n      dup2\n        /* \"#utility.yul\":7215:7221   */\n      dup5\n        /* \"#utility.yul\":7151:7229   */\n      tag_231\n      jump\t// in\n    tag_332:\n        /* \"#utility.yul\":7143:7229   */\n      swap1\n      pop\n        /* \"#utility.yul\":6923:7236   */\n      swap3\n      swap2\n      pop\n      pop\n      jump\t// out\n        /* \"#utility.yul\":7242:7385   */\n    tag_232:\n        /* \"#utility.yul\":7299:7304   */\n      0x00\n        /* \"#utility.yul\":7330:7336   */\n      dup2\n        /* \"#utility.yul\":7324:7337   */\n      mload\n        /* \"#utility.yul\":7315:7337   */\n      swap1\n      pop\n        /* \"#utility.yul\":7346:7379   */\n      tag_334\n        /* \"#utility.yul\":7373:7378   */\n      dup2\n        /* \"#utility.yul\":7346:7379   */\n      tag_210\n      jump\t// in\n    tag_334:\n        /* \"#utility.yul\":7242:7385   */\n      swap3\n      swap2\n      pop\n      pop\n      jump\t// out\n        /* \"#utility.yul\":7391:7742   */\n    tag_96:\n        /* \"#utility.yul\":7461:7467   */\n      0x00\n        /* \"#utility.yul\":7510:7512   */\n      0x20\n        /* \"#utility.yul\":7498:7507   */\n      dup3\n        /* \"#utility.yul\":7489:7496   */\n      dup5\n        /* \"#utility.yul\":7485:7508   */\n      sub\n        /* \"#utility.yul\":7481:7513   */\n      slt\n        /* \"#utility.yul\":7478:7597   */\n      iszero\n      tag_336\n      jumpi\n        /* \"#utility.yul\":7516:7595   */\n      tag_337\n      tag_207\n      jump\t// in\n    tag_337:\n        /* \"#utility.yul\":7478:7597   */\n    tag_336:\n        /* \"#utility.yul\":7636:7637   */\n      0x00\n        /* \"#utility.yul\":7661:7725   */\n      tag_338\n        /* \"#utility.yul\":7717:7724   */\n      dup5\n        /* \"#utility.yul\":7708:7714   */\n      dup3\n        /* \"#utility.yul\":7697:7706   */\n      dup6\n        /* \"#utility.yul\":7693:7715   */\n      add\n        /* \"#utility.yul\":7661:7725   */\n      tag_232\n      jump\t// in\n    tag_338:\n        /* \"#utility.yul\":7651:7725   */\n      swap2\n      pop\n        /* \"#utility.yul\":7607:7735   */\n      pop\n        /* \"#utility.yul\":7391:7742   */\n      swap3\n      swap2\n      pop\n      pop\n      jump\t// out\n        /* \"#utility.yul\":7748:7918   */\n    tag_233:\n        /* \"#utility.yul\":7888:7910   */\n      0x496e76616c69642072656c656173652074696d65000000000000000000000000\n        /* \"#utility.yul\":7884:7885   */\n      0x00\n        /* \"#utility.yul\":7876:7882   */\n      dup3\n        /* \"#utility.yul\":7872:7886   */\n      add\n        /* \"#utility.yul\":7865:7911   */\n      mstore\n        /* \"#utility.yul\":7748:7918   */\n      pop\n      jump\t// out\n        /* \"#utility.yul\":7924:8290   */\n    tag_234:\n        /* \"#utility.yul\":8066:8069   */\n      0x00\n        /* \"#utility.yul\":8087:8154   */\n      tag_341\n        /* \"#utility.yul\":8151:8153   */\n      0x14\n        /* \"#utility.yul\":8146:8149   */\n      dup4\n        /* \"#utility.yul\":8087:8154   */\n      tag_225\n      jump\t// in\n    tag_341:\n        /* \"#utility.yul\":8080:8154   */\n      swap2\n      pop\n        /* \"#utility.yul\":8163:8256   */\n      tag_342\n        /* \"#utility.yul\":8252:8255   */\n      dup3\n        /* \"#utility.yul\":8163:8256   */\n      tag_233\n      jump\t// in\n    tag_342:\n        /* \"#utility.yul\":8281:8283   */\n      0x20\n        /* \"#utility.yul\":8276:8279   */\n      dup3\n        /* \"#utility.yul\":8272:8284   */\n      add\n        /* \"#utility.yul\":8265:8284   */\n      swap1\n      pop\n        /* \"#utility.yul\":7924:8290   */\n      swap2\n      swap1\n      pop\n      jump\t// out\n        /* \"#utility.yul\":8296:8715   */\n    tag_113:\n        /* \"#utility.yul\":8462:8466   */\n      0x00\n        /* \"#utility.yul\":8500:8502   */\n      0x20\n        /* \"#utility.yul\":8489:8498   */\n      dup3\n        /* \"#utility.yul\":8485:8503   */\n      add\n        /* \"#utility.yul\":8477:8503   */\n      swap1\n      pop\n        /* \"#utility.yul\":8549:8558   */\n      dup2\n        /* \"#utility.yul\":8543:8547   */\n      dup2\n        /* \"#utility.yul\":8539:8559   */\n      sub\n        /* \"#utility.yul\":8535:8536   */\n      0x00\n        /* \"#utility.yul\":8524:8533   */\n      dup4\n        /* \"#utility.yul\":8520:8537   */\n      add\n        /* \"#utility.yul\":8513:8560   */\n      mstore\n        /* \"#utility.yul\":8577:8708   */\n      tag_344\n        /* \"#utility.yul\":8703:8707   */\n      dup2\n        /* \"#utility.yul\":8577:8708   */\n      tag_234\n      jump\t// in\n    tag_344:\n        /* \"#utility.yul\":8569:8708   */\n      swap1\n      pop\n        /* \"#utility.yul\":8296:8715   */\n      swap2\n      swap1\n      pop\n      jump\t// out\n        /* \"#utility.yul\":8721:8900   */\n    tag_235:\n        /* \"#utility.yul\":8861:8892   */\n      0x416d6f756e74206d7573742062652067726561746572207468656e2030000000\n        /* \"#utility.yul\":8857:8858   */\n      0x00\n        /* \"#utility.yul\":8849:8855   */\n      dup3\n        /* \"#utility.yul\":8845:8859   */\n      add\n        /* \"#utility.yul\":8838:8893   */\n      mstore\n        /* \"#utility.yul\":8721:8900   */\n      pop\n      jump\t// out\n        /* \"#utility.yul\":8906:9272   */\n    tag_236:\n        /* \"#utility.yul\":9048:9051   */\n      0x00\n        /* \"#utility.yul\":9069:9136   */\n      tag_347\n        /* \"#utility.yul\":9133:9135   */\n      0x1d\n        /* \"#utility.yul\":9128:9131   */\n      dup4\n        /* \"#utility.yul\":9069:9136   */\n      tag_225\n      jump\t// in\n    tag_347:\n        /* \"#utility.yul\":9062:9136   */\n      swap2\n      pop\n        /* \"#utility.yul\":9145:9238   */\n      tag_348\n        /* \"#utility.yul\":9234:9237   */\n      dup3\n        /* \"#utility.yul\":9145:9238   */\n      tag_235\n      jump\t// in\n    tag_348:\n        /* \"#utility.yul\":9263:9265   */\n      0x20\n        /* \"#utility.yul\":9258:9261   */\n      dup3\n        /* \"#utility.yul\":9254:9266   */\n      add\n        /* \"#utility.yul\":9247:9266   */\n      swap1\n      pop\n        /* \"#utility.yul\":8906:9272   */\n      swap2\n      swap1\n      pop\n      jump\t// out\n        /* \"#utility.yul\":9278:9697   */\n    tag_116:\n        /* \"#utility.yul\":9444:9448   */\n      0x00\n        /* \"#utility.yul\":9482:9484   */\n      0x20\n        /* \"#utility.yul\":9471:9480   */\n      dup3\n        /* \"#utility.yul\":9467:9485   */\n      add\n        /* \"#utility.yul\":9459:9485   */\n      swap1\n      pop\n        /* \"#utility.yul\":9531:9540   */\n      dup2\n        /* \"#utility.yul\":9525:9529   */\n      dup2\n        /* \"#utility.yul\":9521:9541   */\n      sub\n        /* \"#utility.yul\":9517:9518   */\n      0x00\n        /* \"#utility.yul\":9506:9515   */\n      dup4\n        /* \"#utility.yul\":9502:9519   */\n      add\n        /* \"#utility.yul\":9495:9542   */\n      mstore\n        /* \"#utility.yul\":9559:9690   */\n      tag_350\n        /* \"#utility.yul\":9685:9689   */\n      dup2\n        /* \"#utility.yul\":9559:9690   */\n      tag_236\n      jump\t// in\n    tag_350:\n        /* \"#utility.yul\":9551:9690   */\n      swap1\n      pop\n        /* \"#utility.yul\":9278:9697   */\n      swap2\n      swap1\n      pop\n      jump\t// out\n        /* \"#utility.yul\":9703:9928   */\n    tag_237:\n        /* \"#utility.yul\":9843:9877   */\n      0x4f776e61626c653a206e6577206f776e657220697320746865207a65726f2061\n        /* \"#utility.yul\":9839:9840   */\n      0x00\n        /* \"#utility.yul\":9831:9837   */\n      dup3\n        /* \"#utility.yul\":9827:9841   */\n      add\n        /* \"#utility.yul\":9820:9878   */\n      mstore\n        /* \"#utility.yul\":9912:9920   */\n      0x6464726573730000000000000000000000000000000000000000000000000000\n        /* \"#utility.yul\":9907:9909   */\n      0x20\n        /* \"#utility.yul\":9899:9905   */\n      dup3\n        /* \"#utility.yul\":9895:9910   */\n      add\n        /* \"#utility.yul\":9888:9921   */\n      mstore\n        /* \"#utility.yul\":9703:9928   */\n      pop\n      jump\t// out\n        /* \"#utility.yul\":9934:10300   */\n    tag_238:\n        /* \"#utility.yul\":10076:10079   */\n      0x00\n        /* \"#utility.yul\":10097:10164   */\n      tag_353\n        /* \"#utility.yul\":10161:10163   */\n      0x26\n        /* \"#utility.yul\":10156:10159   */\n      dup4\n        /* \"#utility.yul\":10097:10164   */\n      tag_225\n      jump\t// in\n    tag_353:\n        /* \"#utility.yul\":10090:10164   */\n      swap2\n      pop\n        /* \"#utility.yul\":10173:10266   */\n      tag_354\n        /* \"#utility.yul\":10262:10265   */\n      dup3\n        /* \"#utility.yul\":10173:10266   */\n      tag_237\n      jump\t// in\n    tag_354:\n        /* \"#utility.yul\":10291:10293   */\n      0x40\n        /* \"#utility.yul\":10286:10289   */\n      dup3\n        /* \"#utility.yul\":10282:10294   */\n      add\n        /* \"#utility.yul\":10275:10294   */\n      swap1\n      pop\n        /* \"#utility.yul\":9934:10300   */\n      swap2\n      swap1\n      pop\n      jump\t// out\n        /* \"#utility.yul\":10306:10725   */\n    tag_155:\n        /* \"#utility.yul\":10472:10476   */\n      0x00\n        /* \"#utility.yul\":10510:10512   */\n      0x20\n        /* \"#utility.yul\":10499:10508   */\n      dup3\n        /* \"#utility.yul\":10495:10513   */\n      add\n        /* \"#utility.yul\":10487:10513   */\n      swap1\n      pop\n        /* \"#utility.yul\":10559:10568   */\n      dup2\n        /* \"#utility.yul\":10553:10557   */\n      dup2\n        /* \"#utility.yul\":10549:10569   */\n      sub\n        /* \"#utility.yul\":10545:10546   */\n      0x00\n        /* \"#utility.yul\":10534:10543   */\n      dup4\n        /* \"#utility.yul\":10530:10547   */\n      add\n        /* \"#utility.yul\":10523:10570   */\n      mstore\n        /* \"#utility.yul\":10587:10718   */\n      tag_356\n        /* \"#utility.yul\":10713:10717   */\n      dup2\n        /* \"#utility.yul\":10587:10718   */\n      tag_238\n      jump\t// in\n    tag_356:\n        /* \"#utility.yul\":10579:10718   */\n      swap1\n      pop\n        /* \"#utility.yul\":10306:10725   */\n      swap2\n      swap1\n      pop\n      jump\t// out\n        /* \"#utility.yul\":10731:10911   */\n    tag_239:\n        /* \"#utility.yul\":10779:10856   */\n      0x4e487b7100000000000000000000000000000000000000000000000000000000\n        /* \"#utility.yul\":10776:10777   */\n      0x00\n        /* \"#utility.yul\":10769:10857   */\n      mstore\n        /* \"#utility.yul\":10876:10880   */\n      0x11\n        /* \"#utility.yul\":10873:10874   */\n      0x04\n        /* \"#utility.yul\":10866:10881   */\n      mstore\n        /* \"#utility.yul\":10900:10904   */\n      0x24\n        /* \"#utility.yul\":10897:10898   */\n      0x00\n        /* \"#utility.yul\":10890:10905   */\n      revert\n        /* \"#utility.yul\":10917:11108   */\n    tag_161:\n        /* \"#utility.yul\":10957:10961   */\n      0x00\n        /* \"#utility.yul\":10977:10997   */\n      tag_359\n        /* \"#utility.yul\":10995:10996   */\n      dup3\n        /* \"#utility.yul\":10977:10997   */\n      tag_209\n      jump\t// in\n    tag_359:\n        /* \"#utility.yul\":10972:10997   */\n      swap2\n      pop\n        /* \"#utility.yul\":11011:11031   */\n      tag_360\n        /* \"#utility.yul\":11029:11030   */\n      dup4\n        /* \"#utility.yul\":11011:11031   */\n      tag_209\n      jump\t// in\n    tag_360:\n        /* \"#utility.yul\":11006:11031   */\n      swap3\n      pop\n        /* \"#utility.yul\":11050:11051   */\n      dup3\n        /* \"#utility.yul\":11047:11048   */\n      dup3\n        /* \"#utility.yul\":11044:11052   */\n      lt\n        /* \"#utility.yul\":11041:11075   */\n      iszero\n      tag_361\n      jumpi\n        /* \"#utility.yul\":11055:11073   */\n      tag_362\n      tag_239\n      jump\t// in\n    tag_362:\n        /* \"#utility.yul\":11041:11075   */\n    tag_361:\n        /* \"#utility.yul\":11100:11101   */\n      dup3\n        /* \"#utility.yul\":11097:11098   */\n      dup3\n        /* \"#utility.yul\":11093:11102   */\n      sub\n        /* \"#utility.yul\":11085:11102   */\n      swap1\n      pop\n        /* \"#utility.yul\":10917:11108   */\n      swap3\n      swap2\n      pop\n      pop\n      jump\t// out\n        /* \"#utility.yul\":11114:11446   */\n    tag_165:\n        /* \"#utility.yul\":11235:11239   */\n      0x00\n        /* \"#utility.yul\":11273:11275   */\n      0x40\n        /* \"#utility.yul\":11262:11271   */\n      dup3\n        /* \"#utility.yul\":11258:11276   */\n      add\n        /* \"#utility.yul\":11250:11276   */\n      swap1\n      pop\n        /* \"#utility.yul\":11286:11357   */\n      tag_364\n        /* \"#utility.yul\":11354:11355   */\n      0x00\n        /* \"#utility.yul\":11343:11352   */\n      dup4\n        /* \"#utility.yul\":11339:11356   */\n      add\n        /* \"#utility.yul\":11330:11336   */\n      dup6\n        /* \"#utility.yul\":11286:11357   */\n      tag_217\n      jump\t// in\n    tag_364:\n        /* \"#utility.yul\":11367:11439   */\n      tag_365\n        /* \"#utility.yul\":11435:11437   */\n      0x20\n        /* \"#utility.yul\":11424:11433   */\n      dup4\n        /* \"#utility.yul\":11420:11438   */\n      add\n        /* \"#utility.yul\":11411:11417   */\n      dup5\n        /* \"#utility.yul\":11367:11439   */\n      tag_212\n      jump\t// in\n    tag_365:\n        /* \"#utility.yul\":11114:11446   */\n      swap4\n      swap3\n      pop\n      pop\n      pop\n      jump\t// out\n        /* \"#utility.yul\":11452:11757   */\n    tag_169:\n        /* \"#utility.yul\":11492:11495   */\n      0x00\n        /* \"#utility.yul\":11511:11531   */\n      tag_367\n        /* \"#utility.yul\":11529:11530   */\n      dup3\n        /* \"#utility.yul\":11511:11531   */\n      tag_209\n      jump\t// in\n    tag_367:\n        /* \"#utility.yul\":11506:11531   */\n      swap2\n      pop\n        /* \"#utility.yul\":11545:11565   */\n      tag_368\n        /* \"#utility.yul\":11563:11564   */\n      dup4\n        /* \"#utility.yul\":11545:11565   */\n      tag_209\n      jump\t// in\n    tag_368:\n        /* \"#utility.yul\":11540:11565   */\n      swap3\n      pop\n        /* \"#utility.yul\":11699:11700   */\n      dup3\n        /* \"#utility.yul\":11631:11697   */\n      0xffffffffffffffffffffffffffffffffffffffffffffffffffffffffffffffff\n        /* \"#utility.yul\":11627:11701   */\n      sub\n        /* \"#utility.yul\":11624:11625   */\n      dup3\n        /* \"#utility.yul\":11621:11702   */\n      gt\n        /* \"#utility.yul\":11618:11725   */\n      iszero\n      tag_369\n      jumpi\n        /* \"#utility.yul\":11705:11723   */\n      tag_370\n      tag_239\n      jump\t// in\n    tag_370:\n        /* \"#utility.yul\":11618:11725   */\n    tag_369:\n        /* \"#utility.yul\":11749:11750   */\n      dup3\n        /* \"#utility.yul\":11746:11747   */\n      dup3\n        /* \"#utility.yul\":11742:11751   */\n      add\n        /* \"#utility.yul\":11735:11751   */\n      swap1\n      pop\n        /* \"#utility.yul\":11452:11757   */\n      swap3\n      swap2\n      pop\n      pop\n      jump\t// out\n        /* \"#utility.yul\":11763:11879   */\n    tag_240:\n        /* \"#utility.yul\":11833:11854   */\n      tag_372\n        /* \"#utility.yul\":11848:11853   */\n      dup2\n        /* \"#utility.yul\":11833:11854   */\n      tag_218\n      jump\t// in\n    tag_372:\n        /* \"#utility.yul\":11826:11831   */\n      dup2\n        /* \"#utility.yul\":11823:11855   */\n      eq\n        /* \"#utility.yul\":11813:11873   */\n      tag_373\n      jumpi\n        /* \"#utility.yul\":11869:11870   */\n      0x00\n        /* \"#utility.yul\":11866:11867   */\n      dup1\n        /* \"#utility.yul\":11859:11871   */\n      revert\n        /* \"#utility.yul\":11813:11873   */\n    tag_373:\n        /* \"#utility.yul\":11763:11879   */\n      pop\n      jump\t// out\n        /* \"#utility.yul\":11885:12022   */\n    tag_241:\n        /* \"#utility.yul\":11939:11944   */\n      0x00\n        /* \"#utility.yul\":11970:11976   */\n      dup2\n        /* \"#utility.yul\":11964:11977   */\n      mload\n        /* \"#utility.yul\":11955:11977   */\n      swap1\n      pop\n        /* \"#utility.yul\":11986:12016   */\n      tag_375\n        /* \"#utility.yul\":12010:12015   */\n      dup2\n        /* \"#utility.yul\":11986:12016   */\n      tag_240\n      jump\t// in\n    tag_375:\n        /* \"#utility.yul\":11885:12022   */\n      swap3\n      swap2\n      pop\n      pop\n      jump\t// out\n        /* \"#utility.yul\":12028:12373   */\n    tag_176:\n        /* \"#utility.yul\":12095:12101   */\n      0x00\n        /* \"#utility.yul\":12144:12146   */\n      0x20\n        /* \"#utility.yul\":12132:12141   */\n      dup3\n        /* \"#utility.yul\":12123:12130   */\n      dup5\n        /* \"#utility.yul\":12119:12142   */\n      sub\n        /* \"#utility.yul\":12115:12147   */\n      slt\n        /* \"#utility.yul\":12112:12231   */\n      iszero\n      tag_377\n      jumpi\n        /* \"#utility.yul\":12150:12229   */\n      tag_378\n      tag_207\n      jump\t// in\n    tag_378:\n        /* \"#utility.yul\":12112:12231   */\n    tag_377:\n        /* \"#utility.yul\":12270:12271   */\n      0x00\n        /* \"#utility.yul\":12295:12356   */\n      tag_379\n        /* \"#utility.yul\":12348:12355   */\n      dup5\n        /* \"#utility.yul\":12339:12345   */\n      dup3\n        /* \"#utility.yul\":12328:12337   */\n      dup6\n        /* \"#utility.yul\":12324:12346   */\n      add\n        /* \"#utility.yul\":12295:12356   */\n      tag_241\n      jump\t// in\n    tag_379:\n        /* \"#utility.yul\":12285:12356   */\n      swap2\n      pop\n        /* \"#utility.yul\":12241:12366   */\n      pop\n        /* \"#utility.yul\":12028:12373   */\n      swap3\n      swap2\n      pop\n      pop\n      jump\t// out\n        /* \"#utility.yul\":12379:12608   */\n    tag_242:\n        /* \"#utility.yul\":12519:12553   */\n      0x5361666545524332303a204552433230206f7065726174696f6e20646964206e\n        /* \"#utility.yul\":12515:12516   */\n      0x00\n        /* \"#utility.yul\":12507:12513   */\n      dup3\n        /* \"#utility.yul\":12503:12517   */\n      add\n        /* \"#utility.yul\":12496:12554   */\n      mstore\n        /* \"#utility.yul\":12588:12600   */\n      0x6f74207375636365656400000000000000000000000000000000000000000000\n        /* \"#utility.yul\":12583:12585   */\n      0x20\n        /* \"#utility.yul\":12575:12581   */\n      dup3\n        /* \"#utility.yul\":12571:12586   */\n      add\n        /* \"#utility.yul\":12564:12601   */\n      mstore\n        /* \"#utility.yul\":12379:12608   */\n      pop\n      jump\t// out\n        /* \"#utility.yul\":12614:12980   */\n    tag_243:\n        /* \"#utility.yul\":12756:12759   */\n      0x00\n        /* \"#utility.yul\":12777:12844   */\n      tag_382\n        /* \"#utility.yul\":12841:12843   */\n      0x2a\n        /* \"#utility.yul\":12836:12839   */\n      dup4\n        /* \"#utility.yul\":12777:12844   */\n      tag_225\n      jump\t// in\n    tag_382:\n        /* \"#utility.yul\":12770:12844   */\n      swap2\n      pop\n        /* \"#utility.yul\":12853:12946   */\n      tag_383\n        /* \"#utility.yul\":12942:12945   */\n      dup3\n        /* \"#utility.yul\":12853:12946   */\n      tag_242\n      jump\t// in\n    tag_383:\n        /* \"#utility.yul\":12971:12973   */\n      0x40\n        /* \"#utility.yul\":12966:12969   */\n      dup3\n        /* \"#utility.yul\":12962:12974   */\n      add\n        /* \"#utility.yul\":12955:12974   */\n      swap1\n      pop\n        /* \"#utility.yul\":12614:12980   */\n      swap2\n      swap1\n      pop\n      jump\t// out\n        /* \"#utility.yul\":12986:13405   */\n    tag_179:\n        /* \"#utility.yul\":13152:13156   */\n      0x00\n        /* \"#utility.yul\":13190:13192   */\n      0x20\n        /* \"#utility.yul\":13179:13188   */\n      dup3\n        /* \"#utility.yul\":13175:13193   */\n      add\n        /* \"#utility.yul\":13167:13193   */\n      swap1\n      pop\n        /* \"#utility.yul\":13239:13248   */\n      dup2\n        /* \"#utility.yul\":13233:13237   */\n      dup2\n        /* \"#utility.yul\":13229:13249   */\n      sub\n        /* \"#utility.yul\":13225:13226   */\n      0x00\n        /* \"#utility.yul\":13214:13223   */\n      dup4\n        /* \"#utility.yul\":13210:13227   */\n      add\n        /* \"#utility.yul\":13203:13250   */\n      mstore\n        /* \"#utility.yul\":13267:13398   */\n      tag_385\n        /* \"#utility.yul\":13393:13397   */\n      dup2\n        /* \"#utility.yul\":13267:13398   */\n      tag_243\n      jump\t// in\n    tag_385:\n        /* \"#utility.yul\":13259:13398   */\n      swap1\n      pop\n        /* \"#utility.yul\":12986:13405   */\n      swap2\n      swap1\n      pop\n      jump\t// out\n        /* \"#utility.yul\":13411:13636   */\n    tag_244:\n        /* \"#utility.yul\":13551:13585   */\n      0x416464726573733a20696e73756666696369656e742062616c616e636520666f\n        /* \"#utility.yul\":13547:13548   */\n      0x00\n        /* \"#utility.yul\":13539:13545   */\n      dup3\n        /* \"#utility.yul\":13535:13549   */\n      add\n        /* \"#utility.yul\":13528:13586   */\n      mstore\n        /* \"#utility.yul\":13620:13628   */\n      0x722063616c6c0000000000000000000000000000000000000000000000000000\n        /* \"#utility.yul\":13615:13617   */\n      0x20\n        /* \"#utility.yul\":13607:13613   */\n      dup3\n        /* \"#utility.yul\":13603:13618   */\n      add\n        /* \"#utility.yul\":13596:13629   */\n      mstore\n        /* \"#utility.yul\":13411:13636   */\n      pop\n      jump\t// out\n        /* \"#utility.yul\":13642:14008   */\n    tag_245:\n        /* \"#utility.yul\":13784:13787   */\n      0x00\n        /* \"#utility.yul\":13805:13872   */\n      tag_388\n        /* \"#utility.yul\":13869:13871   */\n      0x26\n        /* \"#utility.yul\":13864:13867   */\n      dup4\n        /* \"#utility.yul\":13805:13872   */\n      tag_225\n      jump\t// in\n    tag_388:\n        /* \"#utility.yul\":13798:13872   */\n      swap2\n      pop\n        /* \"#utility.yul\":13881:13974   */\n      tag_389\n        /* \"#utility.yul\":13970:13973   */\n      dup3\n        /* \"#utility.yul\":13881:13974   */\n      tag_244\n      jump\t// in\n    tag_389:\n        /* \"#utility.yul\":13999:14001   */\n      0x40\n        /* \"#utility.yul\":13994:13997   */\n      dup3\n        /* \"#utility.yul\":13990:14002   */\n      add\n        /* \"#utility.yul\":13983:14002   */\n      swap1\n      pop\n        /* \"#utility.yul\":13642:14008   */\n      swap2\n      swap1\n      pop\n      jump\t// out\n        /* \"#utility.yul\":14014:14433   */\n    tag_186:\n        /* \"#utility.yul\":14180:14184   */\n      0x00\n        /* \"#utility.yul\":14218:14220   */\n      0x20\n        /* \"#utility.yul\":14207:14216   */\n      dup3\n        /* \"#utility.yul\":14203:14221   */\n      add\n        /* \"#utility.yul\":14195:14221   */\n      swap1\n      pop\n        /* \"#utility.yul\":14267:14276   */\n      dup2\n        /* \"#utility.yul\":14261:14265   */\n      dup2\n        /* \"#utility.yul\":14257:14277   */\n      sub\n        /* \"#utility.yul\":14253:14254   */\n      0x00\n        /* \"#utility.yul\":14242:14251   */\n      dup4\n        /* \"#utility.yul\":14238:14255   */\n      add\n        /* \"#utility.yul\":14231:14278   */\n      mstore\n        /* \"#utility.yul\":14295:14426   */\n      tag_391\n        /* \"#utility.yul\":14421:14425   */\n      dup2\n        /* \"#utility.yul\":14295:14426   */\n      tag_245\n      jump\t// in\n    tag_391:\n        /* \"#utility.yul\":14287:14426   */\n      swap1\n      pop\n        /* \"#utility.yul\":14014:14433   */\n      swap2\n      swap1\n      pop\n      jump\t// out\n        /* \"#utility.yul\":14439:14618   */\n    tag_246:\n        /* \"#utility.yul\":14579:14610   */\n      0x416464726573733a2063616c6c20746f206e6f6e2d636f6e7472616374000000\n        /* \"#utility.yul\":14575:14576   */\n      0x00\n        /* \"#utility.yul\":14567:14573   */\n      dup3\n        /* \"#utility.yul\":14563:14577   */\n      add\n        /* \"#utility.yul\":14556:14611   */\n      mstore\n        /* \"#utility.yul\":14439:14618   */\n      pop\n      jump\t// out\n        /* \"#utility.yul\":14624:14990   */\n    tag_247:\n        /* \"#utility.yul\":14766:14769   */\n      0x00\n        /* \"#utility.yul\":14787:14854   */\n      tag_394\n        /* \"#utility.yul\":14851:14853   */\n      0x1d\n        /* \"#utility.yul\":14846:14849   */\n      dup4\n        /* \"#utility.yul\":14787:14854   */\n      tag_225\n      jump\t// in\n    tag_394:\n        /* \"#utility.yul\":14780:14854   */\n      swap2\n      pop\n        /* \"#utility.yul\":14863:14956   */\n      tag_395\n        /* \"#utility.yul\":14952:14955   */\n      dup3\n        /* \"#utility.yul\":14863:14956   */\n      tag_246\n      jump\t// in\n    tag_395:\n        /* \"#utility.yul\":14981:14983   */\n      0x20\n        /* \"#utility.yul\":14976:14979   */\n      dup3\n        /* \"#utility.yul\":14972:14984   */\n      add\n        /* \"#utility.yul\":14965:14984   */\n      swap1\n      pop\n        /* \"#utility.yul\":14624:14990   */\n      swap2\n      swap1\n      pop\n      jump\t// out\n        /* \"#utility.yul\":14996:15415   */\n    tag_191:\n        /* \"#utility.yul\":15162:15166   */\n      0x00\n        /* \"#utility.yul\":15200:15202   */\n      0x20\n        /* \"#utility.yul\":15189:15198   */\n      dup3\n        /* \"#utility.yul\":15185:15203   */\n      add\n        /* \"#utility.yul\":15177:15203   */\n      swap1\n      pop\n        /* \"#utility.yul\":15249:15258   */\n      dup2\n        /* \"#utility.yul\":15243:15247   */\n      dup2\n        /* \"#utility.yul\":15239:15259   */\n      sub\n        /* \"#utility.yul\":15235:15236   */\n      0x00\n        /* \"#utility.yul\":15224:15233   */\n      dup4\n        /* \"#utility.yul\":15220:15237   */\n      add\n        /* \"#utility.yul\":15213:15260   */\n      mstore\n        /* \"#utility.yul\":15277:15408   */\n      tag_397\n        /* \"#utility.yul\":15403:15407   */\n      dup2\n        /* \"#utility.yul\":15277:15408   */\n      tag_247\n      jump\t// in\n    tag_397:\n        /* \"#utility.yul\":15269:15408   */\n      swap1\n      pop\n        /* \"#utility.yul\":14996:15415   */\n      swap2\n      swap1\n      pop\n      jump\t// out\n        /* \"#utility.yul\":15421:15519   */\n    tag_248:\n        /* \"#utility.yul\":15472:15478   */\n      0x00\n        /* \"#utility.yul\":15506:15511   */\n      dup2\n        /* \"#utility.yul\":15500:15512   */\n      mload\n        /* \"#utility.yul\":15490:15512   */\n      swap1\n      pop\n        /* \"#utility.yul\":15421:15519   */\n      swap2\n      swap1\n      pop\n      jump\t// out\n        /* \"#utility.yul\":15525:15672   */\n    tag_249:\n        /* \"#utility.yul\":15626:15637   */\n      0x00\n        /* \"#utility.yul\":15663:15666   */\n      dup2\n        /* \"#utility.yul\":15648:15666   */\n      swap1\n      pop\n        /* \"#utility.yul\":15525:15672   */\n      swap3\n      swap2\n      pop\n      pop\n      jump\t// out\n        /* \"#utility.yul\":15678:16051   */\n    tag_250:\n        /* \"#utility.yul\":15782:15785   */\n      0x00\n        /* \"#utility.yul\":15810:15848   */\n      tag_401\n        /* \"#utility.yul\":15842:15847   */\n      dup3\n        /* \"#utility.yul\":15810:15848   */\n      tag_248\n      jump\t// in\n    tag_401:\n        /* \"#utility.yul\":15864:15952   */\n      tag_402\n        /* \"#utility.yul\":15945:15951   */\n      dup2\n        /* \"#utility.yul\":15940:15943   */\n      dup6\n        /* \"#utility.yul\":15864:15952   */\n      tag_249\n      jump\t// in\n    tag_402:\n        /* \"#utility.yul\":15857:15952   */\n      swap4\n      pop\n        /* \"#utility.yul\":15961:16013   */\n      tag_403\n        /* \"#utility.yul\":16006:16012   */\n      dup2\n        /* \"#utility.yul\":16001:16004   */\n      dup6\n        /* \"#utility.yul\":15994:15998   */\n      0x20\n        /* \"#utility.yul\":15987:15992   */\n      dup7\n        /* \"#utility.yul\":15983:15999   */\n      add\n        /* \"#utility.yul\":15961:16013   */\n      tag_229\n      jump\t// in\n    tag_403:\n        /* \"#utility.yul\":16038:16044   */\n      dup1\n        /* \"#utility.yul\":16033:16036   */\n      dup5\n        /* \"#utility.yul\":16029:16045   */\n      add\n        /* \"#utility.yul\":16022:16045   */\n      swap2\n      pop\n        /* \"#utility.yul\":15786:16051   */\n      pop\n        /* \"#utility.yul\":15678:16051   */\n      swap3\n      swap2\n      pop\n      pop\n      jump\t// out\n        /* \"#utility.yul\":16057:16328   */\n    tag_193:\n        /* \"#utility.yul\":16187:16190   */\n      0x00\n        /* \"#utility.yul\":16209:16302   */\n      tag_405\n        /* \"#utility.yul\":16298:16301   */\n      dup3\n        /* \"#utility.yul\":16289:16295   */\n      dup5\n        /* \"#utility.yul\":16209:16302   */\n      tag_250\n      jump\t// in\n    tag_405:\n        /* \"#utility.yul\":16202:16302   */\n      swap2\n      pop\n        /* \"#utility.yul\":16319:16322   */\n      dup2\n        /* \"#utility.yul\":16312:16322   */\n      swap1\n      pop\n        /* \"#utility.yul\":16057:16328   */\n      swap3\n      swap2\n      pop\n      pop\n      jump\t// out\n\n    auxdata: 0xa26469706673582212202968ac247dc6a657f4b546d1ddd1d89dfb8874e11941048adbf97fdfe5042a7c64736f6c634300080d0033\n}\n",
				"bytecode": {
					"linkReferences": {},
					"object": "6080604052600060025560006003553480156200001b57600080fd5b506040516200210938038062002109833981810160405281019062000041919062000265565b62000061620000556200011b60201b60201c565b6200012360201b60201c565b600073ffffffffffffffffffffffffffffffffffffffff168173ffffffffffffffffffffffffffffffffffffffff1603620000d3576040517f08c379a0000000000000000000000000000000000000000000000000000000008152600401620000ca906200031e565b60405180910390fd5b80600160006101000a81548173ffffffffffffffffffffffffffffffffffffffff021916908373ffffffffffffffffffffffffffffffffffffffff1602179055505062000340565b600033905090565b60008060009054906101000a900473ffffffffffffffffffffffffffffffffffffffff169050816000806101000a81548173ffffffffffffffffffffffffffffffffffffffff021916908373ffffffffffffffffffffffffffffffffffffffff1602179055508173ffffffffffffffffffffffffffffffffffffffff168173ffffffffffffffffffffffffffffffffffffffff167f8be0079c531659141344cd1fd0a4f28419497f9722a3daafe3b4186f6b6457e060405160405180910390a35050565b600080fd5b600073ffffffffffffffffffffffffffffffffffffffff82169050919050565b60006200021982620001ec565b9050919050565b60006200022d826200020c565b9050919050565b6200023f8162000220565b81146200024b57600080fd5b50565b6000815190506200025f8162000234565b92915050565b6000602082840312156200027e576200027d620001e7565b5b60006200028e848285016200024e565b91505092915050565b600082825260208201905092915050565b7f46726f6e7469657220746f6b656e2061646472657373206973206e6f7420766160008201527f6c69640000000000000000000000000000000000000000000000000000000000602082015250565b60006200030660238362000297565b91506200031382620002a8565b604082019050919050565b600060208201905081810360008301526200033981620002f7565b9050919050565b611db980620003506000396000f3fe608060405234801561001057600080fd5b50600436106100cf5760003560e01c80635daa31601161008c578063821bee7311610066578063821bee73146101fc5780638da5cb5b1461022f578063f2fde38b1461024d578063fc0c546a14610269576100cf565b80635daa3160146101a65780636eb48096146101d6578063715018a6146101f2576100cf565b806307ad23ef146100d457806309c4bb2b146101045780631bcde4ec1461013457806337bdc99b146101505780634691a9981461016c578063557ed1ba14610188575b600080fd5b6100ee60048036038101906100e9919061154e565b610287565b6040516100fb919061158a565b60405180910390f35b61011e6004803603810190610119919061154e565b6102a7565b60405161012b919061158a565b60405180910390f35b61014e6004803603810190610149919061154e565b6102c7565b005b61016a6004803603810190610165919061154e565b610569565b005b61018660048036038101906101819190611603565b61099f565b005b610190610ca3565b60405161019d919061158a565b60405180910390f35b6101c060048036038101906101bb919061154e565b610cab565b6040516101cd9190611665565b60405180910390f35b6101f060048036038101906101eb919061154e565b610ceb565b005b6101fa610ee9565b005b6102166004803603810190610211919061154e565b610f71565b604051610226949392919061169b565b60405180910390f35b610237610fce565b6040516102449190611665565b60405180910390f35b610267600480360381019061026291906116e0565b610ff7565b005b6102716110ee565b60405161027e919061176c565b60405180910390f35b600060046000838152602001908152602001600020600101549050919050565b600060046000838152602001908152602001600020600001549050919050565b6102cf611118565b73ffffffffffffffffffffffffffffffffffffffff166102ed610fce565b73ffffffffffffffffffffffffffffffffffffffff1614610343576040517f08c379a000000000000000000000000000000000000000000000000000000000815260040161033a906117e4565b60405180910390fd5b6000600460008381526020019081526020016000209050600073ffffffffffffffffffffffffffffffffffffffff168160020160009054906101000a900473ffffffffffffffffffffffffffffffffffffffff1673ffffffffffffffffffffffffffffffffffffffff1614156040518060400160405280601281526020017f496e76616c69642076657374696e67206964000000000000000000000000000081525090610426576040517f08c379a000000000000000000000000000000000000000000000000000000000815260040161041d919061188c565b60405180910390fd5b508060020160149054906101000a900460ff16156040518060400160405280601881526020017f56657374696e6720616c72656164792072656c65617365640000000000000000815250906104b1576040517f08c379a00000000000000000000000000000000000000000000000000000000081526004016104a8919061188c565b60405180910390fd5b5060018160020160146101000a81548160ff0219169083151502179055506104e8816001015460025461112090919063ffffffff16565b6002819055508060020160009054906101000a900473ffffffffffffffffffffffffffffffffffffffff1673ffffffffffffffffffffffffffffffffffffffff16827fdc8b9c8cc0c8d05e10824e69ee88995716a539af94a1c60fb9898367f613477c836001015460405161055d919061158a565b60405180910390a35050565b6000600460008381526020019081526020016000209050600073ffffffffffffffffffffffffffffffffffffffff168160020160009054906101000a900473ffffffffffffffffffffffffffffffffffffffff1673ffffffffffffffffffffffffffffffffffffffff1614156040518060400160405280601281526020017f496e76616c69642076657374696e6720696400000000000000000000000000008152509061064c576040517f08c379a0000000000000000000000000000000000000000000000000000000008152600401610643919061188c565b60405180910390fd5b508060020160149054906101000a900460ff16156040518060400160405280601881526020017f56657374696e6720616c72656164792072656c65617365640000000000000000815250906106d7576040517f08c379a00000000000000000000000000000000000000000000000000000000081526004016106ce919061188c565b60405180910390fd5b5080600001544210156040518060400160405280601a81526020017f546f6b656e732068617665206e6f74207665737465642079657400000000000081525090610757576040517f08c379a000000000000000000000000000000000000000000000000000000000815260040161074e919061188c565b60405180910390fd5b508060010154600160009054906101000a900473ffffffffffffffffffffffffffffffffffffffff1673ffffffffffffffffffffffffffffffffffffffff166370a08231306040518263ffffffff1660e01b81526004016107b89190611665565b602060405180830381865afa1580156107d5573d6000803e3d6000fd5b505050506040513d601f19601f820116820180604052508101906107f991906118c3565b10156040518060400160405280601481526020017f496e73756666696369656e742062616c616e636500000000000000000000000081525090610872576040517f08c379a0000000000000000000000000000000000000000000000000000000008152600401610869919061188c565b60405180910390fd5b5060018160020160146101000a81548160ff0219169083151502179055506108a9816001015460025461112090919063ffffffff16565b6002819055506109248160020160009054906101000a900473ffffffffffffffffffffffffffffffffffffffff168260010154600160009054906101000a900473ffffffffffffffffffffffffffffffffffffffff1673ffffffffffffffffffffffffffffffffffffffff166111369092919063ffffffff16565b8060020160009054906101000a900473ffffffffffffffffffffffffffffffffffffffff1673ffffffffffffffffffffffffffffffffffffffff16827f295ac83a3c5cf518a125ba974be97dca6a668bae6dd90b6902b2618cdff1fcc68360010154604051610993919061158a565b60405180910390a35050565b6109a7611118565b73ffffffffffffffffffffffffffffffffffffffff166109c5610fce565b73ffffffffffffffffffffffffffffffffffffffff1614610a1b576040517f08c379a0000000000000000000000000000000000000000000000000000000008152600401610a12906117e4565b60405180910390fd5b600073ffffffffffffffffffffffffffffffffffffffff168373ffffffffffffffffffffffffffffffffffffffff1614156040518060400160405280601b81526020017f496e76616c69642062656e65666963696172792061646472657373000000000081525090610ac3576040517f08c379a0000000000000000000000000000000000000000000000000000000008152600401610aba919061188c565b60405180910390fd5b50428211610b06576040517f08c379a0000000000000000000000000000000000000000000000000000000008152600401610afd9061193c565b60405180910390fd5b60008103610b49576040517f08c379a0000000000000000000000000000000000000000000000000000000008152600401610b40906119a8565b60405180910390fd5b610b5e816002546111bc90919063ffffffff16565b600281905550610b7a60016003546111bc90919063ffffffff16565b60038190555060405180608001604052808381526020018281526020018473ffffffffffffffffffffffffffffffffffffffff16815260200160001515815250600460006003548152602001908152602001600020600082015181600001556020820151816001015560408201518160020160006101000a81548173ffffffffffffffffffffffffffffffffffffffff021916908373ffffffffffffffffffffffffffffffffffffffff16021790555060608201518160020160146101000a81548160ff0219169083151502179055509050508273ffffffffffffffffffffffffffffffffffffffff166003547ffbd41c6118c5ed14f196c270a1793d95e8517e43031d9bb61aa71cb2a38bf55783604051610c96919061158a565b60405180910390a3505050565b600042905090565b60006004600083815260200190815260200160002060020160009054906101000a900473ffffffffffffffffffffffffffffffffffffffff169050919050565b610cf3611118565b73ffffffffffffffffffffffffffffffffffffffff16610d11610fce565b73ffffffffffffffffffffffffffffffffffffffff1614610d67576040517f08c379a0000000000000000000000000000000000000000000000000000000008152600401610d5e906117e4565b60405180910390fd5b610e17600254600160009054906101000a900473ffffffffffffffffffffffffffffffffffffffff1673ffffffffffffffffffffffffffffffffffffffff166370a08231306040518263ffffffff1660e01b8152600401610dc89190611665565b602060405180830381865afa158015610de5573d6000803e3d6000fd5b505050506040513d601f19601f82011682018060405250810190610e0991906118c3565b61112090919063ffffffff16565b8111156040518060400160405280601481526020017f496e73756666696369656e742062616c616e636500000000000000000000000081525090610e91576040517f08c379a0000000000000000000000000000000000000000000000000000000008152600401610e88919061188c565b60405180910390fd5b50610ee6610e9d610fce565b82600160009054906101000a900473ffffffffffffffffffffffffffffffffffffffff1673ffffffffffffffffffffffffffffffffffffffff166111369092919063ffffffff16565b50565b610ef1611118565b73ffffffffffffffffffffffffffffffffffffffff16610f0f610fce565b73ffffffffffffffffffffffffffffffffffffffff1614610f65576040517f08c379a0000000000000000000000000000000000000000000000000000000008152600401610f5c906117e4565b60405180910390fd5b610f6f60006111d2565b565b60046020528060005260406000206000915090508060000154908060010154908060020160009054906101000a900473ffffffffffffffffffffffffffffffffffffffff16908060020160149054906101000a900460ff16905084565b60008060009054906101000a900473ffffffffffffffffffffffffffffffffffffffff16905090565b610fff611118565b73ffffffffffffffffffffffffffffffffffffffff1661101d610fce565b73ffffffffffffffffffffffffffffffffffffffff1614611073576040517f08c379a000000000000000000000000000000000000000000000000000000000815260040161106a906117e4565b60405180910390fd5b600073ffffffffffffffffffffffffffffffffffffffff168173ffffffffffffffffffffffffffffffffffffffff16036110e2576040517f08c379a00000000000000000000000000000000000000000000000000000000081526004016110d990611a3a565b60405180910390fd5b6110eb816111d2565b50565b6000600160009054906101000a900473ffffffffffffffffffffffffffffffffffffffff16905090565b600033905090565b6000818361112e9190611a89565b905092915050565b6111b78363a9059cbb60e01b8484604051602401611155929190611abd565b604051602081830303815290604052907bffffffffffffffffffffffffffffffffffffffffffffffffffffffff19166020820180517bffffffffffffffffffffffffffffffffffffffffffffffffffffffff8381831617835250505050611296565b505050565b600081836111ca9190611ae6565b905092915050565b60008060009054906101000a900473ffffffffffffffffffffffffffffffffffffffff169050816000806101000a81548173ffffffffffffffffffffffffffffffffffffffff021916908373ffffffffffffffffffffffffffffffffffffffff1602179055508173ffffffffffffffffffffffffffffffffffffffff168173ffffffffffffffffffffffffffffffffffffffff167f8be0079c531659141344cd1fd0a4f28419497f9722a3daafe3b4186f6b6457e060405160405180910390a35050565b60006112f8826040518060400160405280602081526020017f5361666545524332303a206c6f772d6c6576656c2063616c6c206661696c65648152508573ffffffffffffffffffffffffffffffffffffffff1661135d9092919063ffffffff16565b905060008151111561135857808060200190518101906113189190611b68565b611357576040517f08c379a000000000000000000000000000000000000000000000000000000000815260040161134e90611c07565b60405180910390fd5b5b505050565b606061136c8484600085611375565b90509392505050565b6060824710156113ba576040517f08c379a00000000000000000000000000000000000000000000000000000000081526004016113b190611c99565b60405180910390fd5b6113c385611489565b611402576040517f08c379a00000000000000000000000000000000000000000000000000000000081526004016113f990611d05565b60405180910390fd5b6000808673ffffffffffffffffffffffffffffffffffffffff16858760405161142b9190611d6c565b60006040518083038185875af1925050503d8060008114611468576040519150601f19603f3d011682016040523d82523d6000602084013e61146d565b606091505b509150915061147d8282866114ac565b92505050949350505050565b6000808273ffffffffffffffffffffffffffffffffffffffff163b119050919050565b606083156114bc5782905061150c565b6000835111156114cf5782518084602001fd5b816040517f08c379a0000000000000000000000000000000000000000000000000000000008152600401611503919061188c565b60405180910390fd5b9392505050565b600080fd5b6000819050919050565b61152b81611518565b811461153657600080fd5b50565b60008135905061154881611522565b92915050565b60006020828403121561156457611563611513565b5b600061157284828501611539565b91505092915050565b61158481611518565b82525050565b600060208201905061159f600083018461157b565b92915050565b600073ffffffffffffffffffffffffffffffffffffffff82169050919050565b60006115d0826115a5565b9050919050565b6115e0816115c5565b81146115eb57600080fd5b50565b6000813590506115fd816115d7565b92915050565b60008060006060848603121561161c5761161b611513565b5b600061162a868287016115ee565b935050602061163b86828701611539565b925050604061164c86828701611539565b9150509250925092565b61165f816115c5565b82525050565b600060208201905061167a6000830184611656565b92915050565b60008115159050919050565b61169581611680565b82525050565b60006080820190506116b0600083018761157b565b6116bd602083018661157b565b6116ca6040830185611656565b6116d7606083018461168c565b95945050505050565b6000602082840312156116f6576116f5611513565b5b6000611704848285016115ee565b91505092915050565b6000819050919050565b600061173261172d611728846115a5565b61170d565b6115a5565b9050919050565b600061174482611717565b9050919050565b600061175682611739565b9050919050565b6117668161174b565b82525050565b6000602082019050611781600083018461175d565b92915050565b600082825260208201905092915050565b7f4f776e61626c653a2063616c6c6572206973206e6f7420746865206f776e6572600082015250565b60006117ce602083611787565b91506117d982611798565b602082019050919050565b600060208201905081810360008301526117fd816117c1565b9050919050565b600081519050919050565b60005b8381101561182d578082015181840152602081019050611812565b8381111561183c576000848401525b50505050565b6000601f19601f8301169050919050565b600061185e82611804565b6118688185611787565b935061187881856020860161180f565b61188181611842565b840191505092915050565b600060208201905081810360008301526118a68184611853565b905092915050565b6000815190506118bd81611522565b92915050565b6000602082840312156118d9576118d8611513565b5b60006118e7848285016118ae565b91505092915050565b7f496e76616c69642072656c656173652074696d65000000000000000000000000600082015250565b6000611926601483611787565b9150611931826118f0565b602082019050919050565b6000602082019050818103600083015261195581611919565b9050919050565b7f416d6f756e74206d7573742062652067726561746572207468656e2030000000600082015250565b6000611992601d83611787565b915061199d8261195c565b602082019050919050565b600060208201905081810360008301526119c181611985565b9050919050565b7f4f776e61626c653a206e6577206f776e657220697320746865207a65726f206160008201527f6464726573730000000000000000000000000000000000000000000000000000602082015250565b6000611a24602683611787565b9150611a2f826119c8565b604082019050919050565b60006020820190508181036000830152611a5381611a17565b9050919050565b7f4e487b7100000000000000000000000000000000000000000000000000000000600052601160045260246000fd5b6000611a9482611518565b9150611a9f83611518565b925082821015611ab257611ab1611a5a565b5b828203905092915050565b6000604082019050611ad26000830185611656565b611adf602083018461157b565b9392505050565b6000611af182611518565b9150611afc83611518565b9250827fffffffffffffffffffffffffffffffffffffffffffffffffffffffffffffffff03821115611b3157611b30611a5a565b5b828201905092915050565b611b4581611680565b8114611b5057600080fd5b50565b600081519050611b6281611b3c565b92915050565b600060208284031215611b7e57611b7d611513565b5b6000611b8c84828501611b53565b91505092915050565b7f5361666545524332303a204552433230206f7065726174696f6e20646964206e60008201527f6f74207375636365656400000000000000000000000000000000000000000000602082015250565b6000611bf1602a83611787565b9150611bfc82611b95565b604082019050919050565b60006020820190508181036000830152611c2081611be4565b9050919050565b7f416464726573733a20696e73756666696369656e742062616c616e636520666f60008201527f722063616c6c0000000000000000000000000000000000000000000000000000602082015250565b6000611c83602683611787565b9150611c8e82611c27565b604082019050919050565b60006020820190508181036000830152611cb281611c76565b9050919050565b7f416464726573733a2063616c6c20746f206e6f6e2d636f6e7472616374000000600082015250565b6000611cef601d83611787565b9150611cfa82611cb9565b602082019050919050565b60006020820190508181036000830152611d1e81611ce2565b9050919050565b600081519050919050565b600081905092915050565b6000611d4682611d25565b611d508185611d30565b9350611d6081856020860161180f565b80840191505092915050565b6000611d788284611d3b565b91508190509291505056fea26469706673582212202968ac247dc6a657f4b546d1ddd1d89dfb8874e11941048adbf97fdfe5042a7c64736f6c634300080d0033",
					"opcodes": "PUSH1 0x80 PUSH1 0x40 MSTORE PUSH1 0x0 PUSH1 0x2 SSTORE PUSH1 0x0 PUSH1 0x3 SSTORE CALLVALUE DUP1 ISZERO PUSH3 0x1B JUMPI PUSH1 0x0 DUP1 REVERT JUMPDEST POP PUSH1 0x40 MLOAD PUSH3 0x2109 CODESIZE SUB DUP1 PUSH3 0x2109 DUP4 CODECOPY DUP2 DUP2 ADD PUSH1 0x40 MSTORE DUP2 ADD SWAP1 PUSH3 0x41 SWAP2 SWAP1 PUSH3 0x265 JUMP JUMPDEST PUSH3 0x61 PUSH3 0x55 PUSH3 0x11B PUSH1 0x20 SHL PUSH1 0x20 SHR JUMP JUMPDEST PUSH3 0x123 PUSH1 0x20 SHL PUSH1 0x20 SHR JUMP JUMPDEST PUSH1 0x0 PUSH20 0xFFFFFFFFFFFFFFFFFFFFFFFFFFFFFFFFFFFFFFFF AND DUP2 PUSH20 0xFFFFFFFFFFFFFFFFFFFFFFFFFFFFFFFFFFFFFFFF AND SUB PUSH3 0xD3 JUMPI PUSH1 0x40 MLOAD PUSH32 0x8C379A000000000000000000000000000000000000000000000000000000000 DUP2 MSTORE PUSH1 0x4 ADD PUSH3 0xCA SWAP1 PUSH3 0x31E JUMP JUMPDEST PUSH1 0x40 MLOAD DUP1 SWAP2 SUB SWAP1 REVERT JUMPDEST DUP1 PUSH1 0x1 PUSH1 0x0 PUSH2 0x100 EXP DUP2 SLOAD DUP2 PUSH20 0xFFFFFFFFFFFFFFFFFFFFFFFFFFFFFFFFFFFFFFFF MUL NOT AND SWAP1 DUP4 PUSH20 0xFFFFFFFFFFFFFFFFFFFFFFFFFFFFFFFFFFFFFFFF AND MUL OR SWAP1 SSTORE POP POP PUSH3 0x340 JUMP JUMPDEST PUSH1 0x0 CALLER SWAP1 POP SWAP1 JUMP JUMPDEST PUSH1 0x0 DUP1 PUSH1 0x0 SWAP1 SLOAD SWAP1 PUSH2 0x100 EXP SWAP1 DIV PUSH20 0xFFFFFFFFFFFFFFFFFFFFFFFFFFFFFFFFFFFFFFFF AND SWAP1 POP DUP2 PUSH1 0x0 DUP1 PUSH2 0x100 EXP DUP2 SLOAD DUP2 PUSH20 0xFFFFFFFFFFFFFFFFFFFFFFFFFFFFFFFFFFFFFFFF MUL NOT AND SWAP1 DUP4 PUSH20 0xFFFFFFFFFFFFFFFFFFFFFFFFFFFFFFFFFFFFFFFF AND MUL OR SWAP1 SSTORE POP DUP2 PUSH20 0xFFFFFFFFFFFFFFFFFFFFFFFFFFFFFFFFFFFFFFFF AND DUP2 PUSH20 0xFFFFFFFFFFFFFFFFFFFFFFFFFFFFFFFFFFFFFFFF AND PUSH32 0x8BE0079C531659141344CD1FD0A4F28419497F9722A3DAAFE3B4186F6B6457E0 PUSH1 0x40 MLOAD PUSH1 0x40 MLOAD DUP1 SWAP2 SUB SWAP1 LOG3 POP POP JUMP JUMPDEST PUSH1 0x0 DUP1 REVERT JUMPDEST PUSH1 0x0 PUSH20 0xFFFFFFFFFFFFFFFFFFFFFFFFFFFFFFFFFFFFFFFF DUP3 AND SWAP1 POP SWAP2 SWAP1 POP JUMP JUMPDEST PUSH1 0x0 PUSH3 0x219 DUP3 PUSH3 0x1EC JUMP JUMPDEST SWAP1 POP SWAP2 SWAP1 POP JUMP JUMPDEST PUSH1 0x0 PUSH3 0x22D DUP3 PUSH3 0x20C JUMP JUMPDEST SWAP1 POP SWAP2 SWAP1 POP JUMP JUMPDEST PUSH3 0x23F DUP2 PUSH3 0x220 JUMP JUMPDEST DUP2 EQ PUSH3 0x24B JUMPI PUSH1 0x0 DUP1 REVERT JUMPDEST POP JUMP JUMPDEST PUSH1 0x0 DUP2 MLOAD SWAP1 POP PUSH3 0x25F DUP2 PUSH3 0x234 JUMP JUMPDEST SWAP3 SWAP2 POP POP JUMP JUMPDEST PUSH1 0x0 PUSH1 0x20 DUP3 DUP5 SUB SLT ISZERO PUSH3 0x27E JUMPI PUSH3 0x27D PUSH3 0x1E7 JUMP JUMPDEST JUMPDEST PUSH1 0x0 PUSH3 0x28E DUP5 DUP3 DUP6 ADD PUSH3 0x24E JUMP JUMPDEST SWAP2 POP POP SWAP3 SWAP2 POP POP JUMP JUMPDEST PUSH1 0x0 DUP3 DUP3 MSTORE PUSH1 0x20 DUP3 ADD SWAP1 POP SWAP3 SWAP2 POP POP JUMP JUMPDEST PUSH32 0x46726F6E7469657220746F6B656E2061646472657373206973206E6F74207661 PUSH1 0x0 DUP3 ADD MSTORE PUSH32 0x6C69640000000000000000000000000000000000000000000000000000000000 PUSH1 0x20 DUP3 ADD MSTORE POP JUMP JUMPDEST PUSH1 0x0 PUSH3 0x306 PUSH1 0x23 DUP4 PUSH3 0x297 JUMP JUMPDEST SWAP2 POP PUSH3 0x313 DUP3 PUSH3 0x2A8 JUMP JUMPDEST PUSH1 0x40 DUP3 ADD SWAP1 POP SWAP2 SWAP1 POP JUMP JUMPDEST PUSH1 0x0 PUSH1 0x20 DUP3 ADD SWAP1 POP DUP2 DUP2 SUB PUSH1 0x0 DUP4 ADD MSTORE PUSH3 0x339 DUP2 PUSH3 0x2F7 JUMP JUMPDEST SWAP1 POP SWAP2 SWAP1 POP JUMP JUMPDEST PUSH2 0x1DB9 DUP1 PUSH3 0x350 PUSH1 0x0 CODECOPY PUSH1 0x0 RETURN INVALID PUSH1 0x80 PUSH1 0x40 MSTORE CALLVALUE DUP1 ISZERO PUSH2 0x10 JUMPI PUSH1 0x0 DUP1 REVERT JUMPDEST POP PUSH1 0x4 CALLDATASIZE LT PUSH2 0xCF JUMPI PUSH1 0x0 CALLDATALOAD PUSH1 0xE0 SHR DUP1 PUSH4 0x5DAA3160 GT PUSH2 0x8C JUMPI DUP1 PUSH4 0x821BEE73 GT PUSH2 0x66 JUMPI DUP1 PUSH4 0x821BEE73 EQ PUSH2 0x1FC JUMPI DUP1 PUSH4 0x8DA5CB5B EQ PUSH2 0x22F JUMPI DUP1 PUSH4 0xF2FDE38B EQ PUSH2 0x24D JUMPI DUP1 PUSH4 0xFC0C546A EQ PUSH2 0x269 JUMPI PUSH2 0xCF JUMP JUMPDEST DUP1 PUSH4 0x5DAA3160 EQ PUSH2 0x1A6 JUMPI DUP1 PUSH4 0x6EB48096 EQ PUSH2 0x1D6 JUMPI DUP1 PUSH4 0x715018A6 EQ PUSH2 0x1F2 JUMPI PUSH2 0xCF JUMP JUMPDEST DUP1 PUSH4 0x7AD23EF EQ PUSH2 0xD4 JUMPI DUP1 PUSH4 0x9C4BB2B EQ PUSH2 0x104 JUMPI DUP1 PUSH4 0x1BCDE4EC EQ PUSH2 0x134 JUMPI DUP1 PUSH4 0x37BDC99B EQ PUSH2 0x150 JUMPI DUP1 PUSH4 0x4691A998 EQ PUSH2 0x16C JUMPI DUP1 PUSH4 0x557ED1BA EQ PUSH2 0x188 JUMPI JUMPDEST PUSH1 0x0 DUP1 REVERT JUMPDEST PUSH2 0xEE PUSH1 0x4 DUP1 CALLDATASIZE SUB DUP2 ADD SWAP1 PUSH2 0xE9 SWAP2 SWAP1 PUSH2 0x154E JUMP JUMPDEST PUSH2 0x287 JUMP JUMPDEST PUSH1 0x40 MLOAD PUSH2 0xFB SWAP2 SWAP1 PUSH2 0x158A JUMP JUMPDEST PUSH1 0x40 MLOAD DUP1 SWAP2 SUB SWAP1 RETURN JUMPDEST PUSH2 0x11E PUSH1 0x4 DUP1 CALLDATASIZE SUB DUP2 ADD SWAP1 PUSH2 0x119 SWAP2 SWAP1 PUSH2 0x154E JUMP JUMPDEST PUSH2 0x2A7 JUMP JUMPDEST PUSH1 0x40 MLOAD PUSH2 0x12B SWAP2 SWAP1 PUSH2 0x158A JUMP JUMPDEST PUSH1 0x40 MLOAD DUP1 SWAP2 SUB SWAP1 RETURN JUMPDEST PUSH2 0x14E PUSH1 0x4 DUP1 CALLDATASIZE SUB DUP2 ADD SWAP1 PUSH2 0x149 SWAP2 SWAP1 PUSH2 0x154E JUMP JUMPDEST PUSH2 0x2C7 JUMP JUMPDEST STOP JUMPDEST PUSH2 0x16A PUSH1 0x4 DUP1 CALLDATASIZE SUB DUP2 ADD SWAP1 PUSH2 0x165 SWAP2 SWAP1 PUSH2 0x154E JUMP JUMPDEST PUSH2 0x569 JUMP JUMPDEST STOP JUMPDEST PUSH2 0x186 PUSH1 0x4 DUP1 CALLDATASIZE SUB DUP2 ADD SWAP1 PUSH2 0x181 SWAP2 SWAP1 PUSH2 0x1603 JUMP JUMPDEST PUSH2 0x99F JUMP JUMPDEST STOP JUMPDEST PUSH2 0x190 PUSH2 0xCA3 JUMP JUMPDEST PUSH1 0x40 MLOAD PUSH2 0x19D SWAP2 SWAP1 PUSH2 0x158A JUMP JUMPDEST PUSH1 0x40 MLOAD DUP1 SWAP2 SUB SWAP1 RETURN JUMPDEST PUSH2 0x1C0 PUSH1 0x4 DUP1 CALLDATASIZE SUB DUP2 ADD SWAP1 PUSH2 0x1BB SWAP2 SWAP1 PUSH2 0x154E JUMP JUMPDEST PUSH2 0xCAB JUMP JUMPDEST PUSH1 0x40 MLOAD PUSH2 0x1CD SWAP2 SWAP1 PUSH2 0x1665 JUMP JUMPDEST PUSH1 0x40 MLOAD DUP1 SWAP2 SUB SWAP1 RETURN JUMPDEST PUSH2 0x1F0 PUSH1 0x4 DUP1 CALLDATASIZE SUB DUP2 ADD SWAP1 PUSH2 0x1EB SWAP2 SWAP1 PUSH2 0x154E JUMP JUMPDEST PUSH2 0xCEB JUMP JUMPDEST STOP JUMPDEST PUSH2 0x1FA PUSH2 0xEE9 JUMP JUMPDEST STOP JUMPDEST PUSH2 0x216 PUSH1 0x4 DUP1 CALLDATASIZE SUB DUP2 ADD SWAP1 PUSH2 0x211 SWAP2 SWAP1 PUSH2 0x154E JUMP JUMPDEST PUSH2 0xF71 JUMP JUMPDEST PUSH1 0x40 MLOAD PUSH2 0x226 SWAP5 SWAP4 SWAP3 SWAP2 SWAP1 PUSH2 0x169B JUMP JUMPDEST PUSH1 0x40 MLOAD DUP1 SWAP2 SUB SWAP1 RETURN JUMPDEST PUSH2 0x237 PUSH2 0xFCE JUMP JUMPDEST PUSH1 0x40 MLOAD PUSH2 0x244 SWAP2 SWAP1 PUSH2 0x1665 JUMP JUMPDEST PUSH1 0x40 MLOAD DUP1 SWAP2 SUB SWAP1 RETURN JUMPDEST PUSH2 0x267 PUSH1 0x4 DUP1 CALLDATASIZE SUB DUP2 ADD SWAP1 PUSH2 0x262 SWAP2 SWAP1 PUSH2 0x16E0 JUMP JUMPDEST PUSH2 0xFF7 JUMP JUMPDEST STOP JUMPDEST PUSH2 0x271 PUSH2 0x10EE JUMP JUMPDEST PUSH1 0x40 MLOAD PUSH2 0x27E SWAP2 SWAP1 PUSH2 0x176C JUMP JUMPDEST PUSH1 0x40 MLOAD DUP1 SWAP2 SUB SWAP1 RETURN JUMPDEST PUSH1 0x0 PUSH1 0x4 PUSH1 0x0 DUP4 DUP2 MSTORE PUSH1 0x20 ADD SWAP1 DUP2 MSTORE PUSH1 0x20 ADD PUSH1 0x0 KECCAK256 PUSH1 0x1 ADD SLOAD SWAP1 POP SWAP2 SWAP1 POP JUMP JUMPDEST PUSH1 0x0 PUSH1 0x4 PUSH1 0x0 DUP4 DUP2 MSTORE PUSH1 0x20 ADD SWAP1 DUP2 MSTORE PUSH1 0x20 ADD PUSH1 0x0 KECCAK256 PUSH1 0x0 ADD SLOAD SWAP1 POP SWAP2 SWAP1 POP JUMP JUMPDEST PUSH2 0x2CF PUSH2 0x1118 JUMP JUMPDEST PUSH20 0xFFFFFFFFFFFFFFFFFFFFFFFFFFFFFFFFFFFFFFFF AND PUSH2 0x2ED PUSH2 0xFCE JUMP JUMPDEST PUSH20 0xFFFFFFFFFFFFFFFFFFFFFFFFFFFFFFFFFFFFFFFF AND EQ PUSH2 0x343 JUMPI PUSH1 0x40 MLOAD PUSH32 0x8C379A000000000000000000000000000000000000000000000000000000000 DUP2 MSTORE PUSH1 0x4 ADD PUSH2 0x33A SWAP1 PUSH2 0x17E4 JUMP JUMPDEST PUSH1 0x40 MLOAD DUP1 SWAP2 SUB SWAP1 REVERT JUMPDEST PUSH1 0x0 PUSH1 0x4 PUSH1 0x0 DUP4 DUP2 MSTORE PUSH1 0x20 ADD SWAP1 DUP2 MSTORE PUSH1 0x20 ADD PUSH1 0x0 KECCAK256 SWAP1 POP PUSH1 0x0 PUSH20 0xFFFFFFFFFFFFFFFFFFFFFFFFFFFFFFFFFFFFFFFF AND DUP2 PUSH1 0x2 ADD PUSH1 0x0 SWAP1 SLOAD SWAP1 PUSH2 0x100 EXP SWAP1 DIV PUSH20 0xFFFFFFFFFFFFFFFFFFFFFFFFFFFFFFFFFFFFFFFF AND PUSH20 0xFFFFFFFFFFFFFFFFFFFFFFFFFFFFFFFFFFFFFFFF AND EQ ISZERO PUSH1 0x40 MLOAD DUP1 PUSH1 0x40 ADD PUSH1 0x40 MSTORE DUP1 PUSH1 0x12 DUP2 MSTORE PUSH1 0x20 ADD PUSH32 0x496E76616C69642076657374696E672069640000000000000000000000000000 DUP2 MSTORE POP SWAP1 PUSH2 0x426 JUMPI PUSH1 0x40 MLOAD PUSH32 0x8C379A000000000000000000000000000000000000000000000000000000000 DUP2 MSTORE PUSH1 0x4 ADD PUSH2 0x41D SWAP2 SWAP1 PUSH2 0x188C JUMP JUMPDEST PUSH1 0x40 MLOAD DUP1 SWAP2 SUB SWAP1 REVERT JUMPDEST POP DUP1 PUSH1 0x2 ADD PUSH1 0x14 SWAP1 SLOAD SWAP1 PUSH2 0x100 EXP SWAP1 DIV PUSH1 0xFF AND ISZERO PUSH1 0x40 MLOAD DUP1 PUSH1 0x40 ADD PUSH1 0x40 MSTORE DUP1 PUSH1 0x18 DUP2 MSTORE PUSH1 0x20 ADD PUSH32 0x56657374696E6720616C72656164792072656C65617365640000000000000000 DUP2 MSTORE POP SWAP1 PUSH2 0x4B1 JUMPI PUSH1 0x40 MLOAD PUSH32 0x8C379A000000000000000000000000000000000000000000000000000000000 DUP2 MSTORE PUSH1 0x4 ADD PUSH2 0x4A8 SWAP2 SWAP1 PUSH2 0x188C JUMP JUMPDEST PUSH1 0x40 MLOAD DUP1 SWAP2 SUB SWAP1 REVERT JUMPDEST POP PUSH1 0x1 DUP2 PUSH1 0x2 ADD PUSH1 0x14 PUSH2 0x100 EXP DUP2 SLOAD DUP2 PUSH1 0xFF MUL NOT AND SWAP1 DUP4 ISZERO ISZERO MUL OR SWAP1 SSTORE POP PUSH2 0x4E8 DUP2 PUSH1 0x1 ADD SLOAD PUSH1 0x2 SLOAD PUSH2 0x1120 SWAP1 SWAP2 SWAP1 PUSH4 0xFFFFFFFF AND JUMP JUMPDEST PUSH1 0x2 DUP2 SWAP1 SSTORE POP DUP1 PUSH1 0x2 ADD PUSH1 0x0 SWAP1 SLOAD SWAP1 PUSH2 0x100 EXP SWAP1 DIV PUSH20 0xFFFFFFFFFFFFFFFFFFFFFFFFFFFFFFFFFFFFFFFF AND PUSH20 0xFFFFFFFFFFFFFFFFFFFFFFFFFFFFFFFFFFFFFFFF AND DUP3 PUSH32 0xDC8B9C8CC0C8D05E10824E69EE88995716A539AF94A1C60FB9898367F613477C DUP4 PUSH1 0x1 ADD SLOAD PUSH1 0x40 MLOAD PUSH2 0x55D SWAP2 SWAP1 PUSH2 0x158A JUMP JUMPDEST PUSH1 0x40 MLOAD DUP1 SWAP2 SUB SWAP1 LOG3 POP POP JUMP JUMPDEST PUSH1 0x0 PUSH1 0x4 PUSH1 0x0 DUP4 DUP2 MSTORE PUSH1 0x20 ADD SWAP1 DUP2 MSTORE PUSH1 0x20 ADD PUSH1 0x0 KECCAK256 SWAP1 POP PUSH1 0x0 PUSH20 0xFFFFFFFFFFFFFFFFFFFFFFFFFFFFFFFFFFFFFFFF AND DUP2 PUSH1 0x2 ADD PUSH1 0x0 SWAP1 SLOAD SWAP1 PUSH2 0x100 EXP SWAP1 DIV PUSH20 0xFFFFFFFFFFFFFFFFFFFFFFFFFFFFFFFFFFFFFFFF AND PUSH20 0xFFFFFFFFFFFFFFFFFFFFFFFFFFFFFFFFFFFFFFFF AND EQ ISZERO PUSH1 0x40 MLOAD DUP1 PUSH1 0x40 ADD PUSH1 0x40 MSTORE DUP1 PUSH1 0x12 DUP2 MSTORE PUSH1 0x20 ADD PUSH32 0x496E76616C69642076657374696E672069640000000000000000000000000000 DUP2 MSTORE POP SWAP1 PUSH2 0x64C JUMPI PUSH1 0x40 MLOAD PUSH32 0x8C379A000000000000000000000000000000000000000000000000000000000 DUP2 MSTORE PUSH1 0x4 ADD PUSH2 0x643 SWAP2 SWAP1 PUSH2 0x188C JUMP JUMPDEST PUSH1 0x40 MLOAD DUP1 SWAP2 SUB SWAP1 REVERT JUMPDEST POP DUP1 PUSH1 0x2 ADD PUSH1 0x14 SWAP1 SLOAD SWAP1 PUSH2 0x100 EXP SWAP1 DIV PUSH1 0xFF AND ISZERO PUSH1 0x40 MLOAD DUP1 PUSH1 0x40 ADD PUSH1 0x40 MSTORE DUP1 PUSH1 0x18 DUP2 MSTORE PUSH1 0x20 ADD PUSH32 0x56657374696E6720616C72656164792072656C65617365640000000000000000 DUP2 MSTORE POP SWAP1 PUSH2 0x6D7 JUMPI PUSH1 0x40 MLOAD PUSH32 0x8C379A000000000000000000000000000000000000000000000000000000000 DUP2 MSTORE PUSH1 0x4 ADD PUSH2 0x6CE SWAP2 SWAP1 PUSH2 0x188C JUMP JUMPDEST PUSH1 0x40 MLOAD DUP1 SWAP2 SUB SWAP1 REVERT JUMPDEST POP DUP1 PUSH1 0x0 ADD SLOAD TIMESTAMP LT ISZERO PUSH1 0x40 MLOAD DUP1 PUSH1 0x40 ADD PUSH1 0x40 MSTORE DUP1 PUSH1 0x1A DUP2 MSTORE PUSH1 0x20 ADD PUSH32 0x546F6B656E732068617665206E6F742076657374656420796574000000000000 DUP2 MSTORE POP SWAP1 PUSH2 0x757 JUMPI PUSH1 0x40 MLOAD PUSH32 0x8C379A000000000000000000000000000000000000000000000000000000000 DUP2 MSTORE PUSH1 0x4 ADD PUSH2 0x74E SWAP2 SWAP1 PUSH2 0x188C JUMP JUMPDEST PUSH1 0x40 MLOAD DUP1 SWAP2 SUB SWAP1 REVERT JUMPDEST POP DUP1 PUSH1 0x1 ADD SLOAD PUSH1 0x1 PUSH1 0x0 SWAP1 SLOAD SWAP1 PUSH2 0x100 EXP SWAP1 DIV PUSH20 0xFFFFFFFFFFFFFFFFFFFFFFFFFFFFFFFFFFFFFFFF AND PUSH20 0xFFFFFFFFFFFFFFFFFFFFFFFFFFFFFFFFFFFFFFFF AND PUSH4 0x70A08231 ADDRESS PUSH1 0x40 MLOAD DUP3 PUSH4 0xFFFFFFFF AND PUSH1 0xE0 SHL DUP2 MSTORE PUSH1 0x4 ADD PUSH2 0x7B8 SWAP2 SWAP1 PUSH2 0x1665 JUMP JUMPDEST PUSH1 0x20 PUSH1 0x40 MLOAD DUP1 DUP4 SUB DUP2 DUP7 GAS STATICCALL ISZERO DUP1 ISZERO PUSH2 0x7D5 JUMPI RETURNDATASIZE PUSH1 0x0 DUP1 RETURNDATACOPY RETURNDATASIZE PUSH1 0x0 REVERT JUMPDEST POP POP POP POP PUSH1 0x40 MLOAD RETURNDATASIZE PUSH1 0x1F NOT PUSH1 0x1F DUP3 ADD AND DUP3 ADD DUP1 PUSH1 0x40 MSTORE POP DUP2 ADD SWAP1 PUSH2 0x7F9 SWAP2 SWAP1 PUSH2 0x18C3 JUMP JUMPDEST LT ISZERO PUSH1 0x40 MLOAD DUP1 PUSH1 0x40 ADD PUSH1 0x40 MSTORE DUP1 PUSH1 0x14 DUP2 MSTORE PUSH1 0x20 ADD PUSH32 0x496E73756666696369656E742062616C616E6365000000000000000000000000 DUP2 MSTORE POP SWAP1 PUSH2 0x872 JUMPI PUSH1 0x40 MLOAD PUSH32 0x8C379A000000000000000000000000000000000000000000000000000000000 DUP2 MSTORE PUSH1 0x4 ADD PUSH2 0x869 SWAP2 SWAP1 PUSH2 0x188C JUMP JUMPDEST PUSH1 0x40 MLOAD DUP1 SWAP2 SUB SWAP1 REVERT JUMPDEST POP PUSH1 0x1 DUP2 PUSH1 0x2 ADD PUSH1 0x14 PUSH2 0x100 EXP DUP2 SLOAD DUP2 PUSH1 0xFF MUL NOT AND SWAP1 DUP4 ISZERO ISZERO MUL OR SWAP1 SSTORE POP PUSH2 0x8A9 DUP2 PUSH1 0x1 ADD SLOAD PUSH1 0x2 SLOAD PUSH2 0x1120 SWAP1 SWAP2 SWAP1 PUSH4 0xFFFFFFFF AND JUMP JUMPDEST PUSH1 0x2 DUP2 SWAP1 SSTORE POP PUSH2 0x924 DUP2 PUSH1 0x2 ADD PUSH1 0x0 SWAP1 SLOAD SWAP1 PUSH2 0x100 EXP SWAP1 DIV PUSH20 0xFFFFFFFFFFFFFFFFFFFFFFFFFFFFFFFFFFFFFFFF AND DUP3 PUSH1 0x1 ADD SLOAD PUSH1 0x1 PUSH1 0x0 SWAP1 SLOAD SWAP1 PUSH2 0x100 EXP SWAP1 DIV PUSH20 0xFFFFFFFFFFFFFFFFFFFFFFFFFFFFFFFFFFFFFFFF AND PUSH20 0xFFFFFFFFFFFFFFFFFFFFFFFFFFFFFFFFFFFFFFFF AND PUSH2 0x1136 SWAP1 SWAP3 SWAP2 SWAP1 PUSH4 0xFFFFFFFF AND JUMP JUMPDEST DUP1 PUSH1 0x2 ADD PUSH1 0x0 SWAP1 SLOAD SWAP1 PUSH2 0x100 EXP SWAP1 DIV PUSH20 0xFFFFFFFFFFFFFFFFFFFFFFFFFFFFFFFFFFFFFFFF AND PUSH20 0xFFFFFFFFFFFFFFFFFFFFFFFFFFFFFFFFFFFFFFFF AND DUP3 PUSH32 0x295AC83A3C5CF518A125BA974BE97DCA6A668BAE6DD90B6902B2618CDFF1FCC6 DUP4 PUSH1 0x1 ADD SLOAD PUSH1 0x40 MLOAD PUSH2 0x993 SWAP2 SWAP1 PUSH2 0x158A JUMP JUMPDEST PUSH1 0x40 MLOAD DUP1 SWAP2 SUB SWAP1 LOG3 POP POP JUMP JUMPDEST PUSH2 0x9A7 PUSH2 0x1118 JUMP JUMPDEST PUSH20 0xFFFFFFFFFFFFFFFFFFFFFFFFFFFFFFFFFFFFFFFF AND PUSH2 0x9C5 PUSH2 0xFCE JUMP JUMPDEST PUSH20 0xFFFFFFFFFFFFFFFFFFFFFFFFFFFFFFFFFFFFFFFF AND EQ PUSH2 0xA1B JUMPI PUSH1 0x40 MLOAD PUSH32 0x8C379A000000000000000000000000000000000000000000000000000000000 DUP2 MSTORE PUSH1 0x4 ADD PUSH2 0xA12 SWAP1 PUSH2 0x17E4 JUMP JUMPDEST PUSH1 0x40 MLOAD DUP1 SWAP2 SUB SWAP1 REVERT JUMPDEST PUSH1 0x0 PUSH20 0xFFFFFFFFFFFFFFFFFFFFFFFFFFFFFFFFFFFFFFFF AND DUP4 PUSH20 0xFFFFFFFFFFFFFFFFFFFFFFFFFFFFFFFFFFFFFFFF AND EQ ISZERO PUSH1 0x40 MLOAD DUP1 PUSH1 0x40 ADD PUSH1 0x40 MSTORE DUP1 PUSH1 0x1B DUP2 MSTORE PUSH1 0x20 ADD PUSH32 0x496E76616C69642062656E656669636961727920616464726573730000000000 DUP2 MSTORE POP SWAP1 PUSH2 0xAC3 JUMPI PUSH1 0x40 MLOAD PUSH32 0x8C379A000000000000000000000000000000000000000000000000000000000 DUP2 MSTORE PUSH1 0x4 ADD PUSH2 0xABA SWAP2 SWAP1 PUSH2 0x188C JUMP JUMPDEST PUSH1 0x40 MLOAD DUP1 SWAP2 SUB SWAP1 REVERT JUMPDEST POP TIMESTAMP DUP3 GT PUSH2 0xB06 JUMPI PUSH1 0x40 MLOAD PUSH32 0x8C379A000000000000000000000000000000000000000000000000000000000 DUP2 MSTORE PUSH1 0x4 ADD PUSH2 0xAFD SWAP1 PUSH2 0x193C JUMP JUMPDEST PUSH1 0x40 MLOAD DUP1 SWAP2 SUB SWAP1 REVERT JUMPDEST PUSH1 0x0 DUP2 SUB PUSH2 0xB49 JUMPI PUSH1 0x40 MLOAD PUSH32 0x8C379A000000000000000000000000000000000000000000000000000000000 DUP2 MSTORE PUSH1 0x4 ADD PUSH2 0xB40 SWAP1 PUSH2 0x19A8 JUMP JUMPDEST PUSH1 0x40 MLOAD DUP1 SWAP2 SUB SWAP1 REVERT JUMPDEST PUSH2 0xB5E DUP2 PUSH1 0x2 SLOAD PUSH2 0x11BC SWAP1 SWAP2 SWAP1 PUSH4 0xFFFFFFFF AND JUMP JUMPDEST PUSH1 0x2 DUP2 SWAP1 SSTORE POP PUSH2 0xB7A PUSH1 0x1 PUSH1 0x3 SLOAD PUSH2 0x11BC SWAP1 SWAP2 SWAP1 PUSH4 0xFFFFFFFF AND JUMP JUMPDEST PUSH1 0x3 DUP2 SWAP1 SSTORE POP PUSH1 0x40 MLOAD DUP1 PUSH1 0x80 ADD PUSH1 0x40 MSTORE DUP1 DUP4 DUP2 MSTORE PUSH1 0x20 ADD DUP3 DUP2 MSTORE PUSH1 0x20 ADD DUP5 PUSH20 0xFFFFFFFFFFFFFFFFFFFFFFFFFFFFFFFFFFFFFFFF AND DUP2 MSTORE PUSH1 0x20 ADD PUSH1 0x0 ISZERO ISZERO DUP2 MSTORE POP PUSH1 0x4 PUSH1 0x0 PUSH1 0x3 SLOAD DUP2 MSTORE PUSH1 0x20 ADD SWAP1 DUP2 MSTORE PUSH1 0x20 ADD PUSH1 0x0 KECCAK256 PUSH1 0x0 DUP3 ADD MLOAD DUP2 PUSH1 0x0 ADD SSTORE PUSH1 0x20 DUP3 ADD MLOAD DUP2 PUSH1 0x1 ADD SSTORE PUSH1 0x40 DUP3 ADD MLOAD DUP2 PUSH1 0x2 ADD PUSH1 0x0 PUSH2 0x100 EXP DUP2 SLOAD DUP2 PUSH20 0xFFFFFFFFFFFFFFFFFFFFFFFFFFFFFFFFFFFFFFFF MUL NOT AND SWAP1 DUP4 PUSH20 0xFFFFFFFFFFFFFFFFFFFFFFFFFFFFFFFFFFFFFFFF AND MUL OR SWAP1 SSTORE POP PUSH1 0x60 DUP3 ADD MLOAD DUP2 PUSH1 0x2 ADD PUSH1 0x14 PUSH2 0x100 EXP DUP2 SLOAD DUP2 PUSH1 0xFF MUL NOT AND SWAP1 DUP4 ISZERO ISZERO MUL OR SWAP1 SSTORE POP SWAP1 POP POP DUP3 PUSH20 0xFFFFFFFFFFFFFFFFFFFFFFFFFFFFFFFFFFFFFFFF AND PUSH1 0x3 SLOAD PUSH32 0xFBD41C6118C5ED14F196C270A1793D95E8517E43031D9BB61AA71CB2A38BF557 DUP4 PUSH1 0x40 MLOAD PUSH2 0xC96 SWAP2 SWAP1 PUSH2 0x158A JUMP JUMPDEST PUSH1 0x40 MLOAD DUP1 SWAP2 SUB SWAP1 LOG3 POP POP POP JUMP JUMPDEST PUSH1 0x0 TIMESTAMP SWAP1 POP SWAP1 JUMP JUMPDEST PUSH1 0x0 PUSH1 0x4 PUSH1 0x0 DUP4 DUP2 MSTORE PUSH1 0x20 ADD SWAP1 DUP2 MSTORE PUSH1 0x20 ADD PUSH1 0x0 KECCAK256 PUSH1 0x2 ADD PUSH1 0x0 SWAP1 SLOAD SWAP1 PUSH2 0x100 EXP SWAP1 DIV PUSH20 0xFFFFFFFFFFFFFFFFFFFFFFFFFFFFFFFFFFFFFFFF AND SWAP1 POP SWAP2 SWAP1 POP JUMP JUMPDEST PUSH2 0xCF3 PUSH2 0x1118 JUMP JUMPDEST PUSH20 0xFFFFFFFFFFFFFFFFFFFFFFFFFFFFFFFFFFFFFFFF AND PUSH2 0xD11 PUSH2 0xFCE JUMP JUMPDEST PUSH20 0xFFFFFFFFFFFFFFFFFFFFFFFFFFFFFFFFFFFFFFFF AND EQ PUSH2 0xD67 JUMPI PUSH1 0x40 MLOAD PUSH32 0x8C379A000000000000000000000000000000000000000000000000000000000 DUP2 MSTORE PUSH1 0x4 ADD PUSH2 0xD5E SWAP1 PUSH2 0x17E4 JUMP JUMPDEST PUSH1 0x40 MLOAD DUP1 SWAP2 SUB SWAP1 REVERT JUMPDEST PUSH2 0xE17 PUSH1 0x2 SLOAD PUSH1 0x1 PUSH1 0x0 SWAP1 SLOAD SWAP1 PUSH2 0x100 EXP SWAP1 DIV PUSH20 0xFFFFFFFFFFFFFFFFFFFFFFFFFFFFFFFFFFFFFFFF AND PUSH20 0xFFFFFFFFFFFFFFFFFFFFFFFFFFFFFFFFFFFFFFFF AND PUSH4 0x70A08231 ADDRESS PUSH1 0x40 MLOAD DUP3 PUSH4 0xFFFFFFFF AND PUSH1 0xE0 SHL DUP2 MSTORE PUSH1 0x4 ADD PUSH2 0xDC8 SWAP2 SWAP1 PUSH2 0x1665 JUMP JUMPDEST PUSH1 0x20 PUSH1 0x40 MLOAD DUP1 DUP4 SUB DUP2 DUP7 GAS STATICCALL ISZERO DUP1 ISZERO PUSH2 0xDE5 JUMPI RETURNDATASIZE PUSH1 0x0 DUP1 RETURNDATACOPY RETURNDATASIZE PUSH1 0x0 REVERT JUMPDEST POP POP POP POP PUSH1 0x40 MLOAD RETURNDATASIZE PUSH1 0x1F NOT PUSH1 0x1F DUP3 ADD AND DUP3 ADD DUP1 PUSH1 0x40 MSTORE POP DUP2 ADD SWAP1 PUSH2 0xE09 SWAP2 SWAP1 PUSH2 0x18C3 JUMP JUMPDEST PUSH2 0x1120 SWAP1 SWAP2 SWAP1 PUSH4 0xFFFFFFFF AND JUMP JUMPDEST DUP2 GT ISZERO PUSH1 0x40 MLOAD DUP1 PUSH1 0x40 ADD PUSH1 0x40 MSTORE DUP1 PUSH1 0x14 DUP2 MSTORE PUSH1 0x20 ADD PUSH32 0x496E73756666696369656E742062616C616E6365000000000000000000000000 DUP2 MSTORE POP SWAP1 PUSH2 0xE91 JUMPI PUSH1 0x40 MLOAD PUSH32 0x8C379A000000000000000000000000000000000000000000000000000000000 DUP2 MSTORE PUSH1 0x4 ADD PUSH2 0xE88 SWAP2 SWAP1 PUSH2 0x188C JUMP JUMPDEST PUSH1 0x40 MLOAD DUP1 SWAP2 SUB SWAP1 REVERT JUMPDEST POP PUSH2 0xEE6 PUSH2 0xE9D PUSH2 0xFCE JUMP JUMPDEST DUP3 PUSH1 0x1 PUSH1 0x0 SWAP1 SLOAD SWAP1 PUSH2 0x100 EXP SWAP1 DIV PUSH20 0xFFFFFFFFFFFFFFFFFFFFFFFFFFFFFFFFFFFFFFFF AND PUSH20 0xFFFFFFFFFFFFFFFFFFFFFFFFFFFFFFFFFFFFFFFF AND PUSH2 0x1136 SWAP1 SWAP3 SWAP2 SWAP1 PUSH4 0xFFFFFFFF AND JUMP JUMPDEST POP JUMP JUMPDEST PUSH2 0xEF1 PUSH2 0x1118 JUMP JUMPDEST PUSH20 0xFFFFFFFFFFFFFFFFFFFFFFFFFFFFFFFFFFFFFFFF AND PUSH2 0xF0F PUSH2 0xFCE JUMP JUMPDEST PUSH20 0xFFFFFFFFFFFFFFFFFFFFFFFFFFFFFFFFFFFFFFFF AND EQ PUSH2 0xF65 JUMPI PUSH1 0x40 MLOAD PUSH32 0x8C379A000000000000000000000000000000000000000000000000000000000 DUP2 MSTORE PUSH1 0x4 ADD PUSH2 0xF5C SWAP1 PUSH2 0x17E4 JUMP JUMPDEST PUSH1 0x40 MLOAD DUP1 SWAP2 SUB SWAP1 REVERT JUMPDEST PUSH2 0xF6F PUSH1 0x0 PUSH2 0x11D2 JUMP JUMPDEST JUMP JUMPDEST PUSH1 0x4 PUSH1 0x20 MSTORE DUP1 PUSH1 0x0 MSTORE PUSH1 0x40 PUSH1 0x0 KECCAK256 PUSH1 0x0 SWAP2 POP SWAP1 POP DUP1 PUSH1 0x0 ADD SLOAD SWAP1 DUP1 PUSH1 0x1 ADD SLOAD SWAP1 DUP1 PUSH1 0x2 ADD PUSH1 0x0 SWAP1 SLOAD SWAP1 PUSH2 0x100 EXP SWAP1 DIV PUSH20 0xFFFFFFFFFFFFFFFFFFFFFFFFFFFFFFFFFFFFFFFF AND SWAP1 DUP1 PUSH1 0x2 ADD PUSH1 0x14 SWAP1 SLOAD SWAP1 PUSH2 0x100 EXP SWAP1 DIV PUSH1 0xFF AND SWAP1 POP DUP5 JUMP JUMPDEST PUSH1 0x0 DUP1 PUSH1 0x0 SWAP1 SLOAD SWAP1 PUSH2 0x100 EXP SWAP1 DIV PUSH20 0xFFFFFFFFFFFFFFFFFFFFFFFFFFFFFFFFFFFFFFFF AND SWAP1 POP SWAP1 JUMP JUMPDEST PUSH2 0xFFF PUSH2 0x1118 JUMP JUMPDEST PUSH20 0xFFFFFFFFFFFFFFFFFFFFFFFFFFFFFFFFFFFFFFFF AND PUSH2 0x101D PUSH2 0xFCE JUMP JUMPDEST PUSH20 0xFFFFFFFFFFFFFFFFFFFFFFFFFFFFFFFFFFFFFFFF AND EQ PUSH2 0x1073 JUMPI PUSH1 0x40 MLOAD PUSH32 0x8C379A000000000000000000000000000000000000000000000000000000000 DUP2 MSTORE PUSH1 0x4 ADD PUSH2 0x106A SWAP1 PUSH2 0x17E4 JUMP JUMPDEST PUSH1 0x40 MLOAD DUP1 SWAP2 SUB SWAP1 REVERT JUMPDEST PUSH1 0x0 PUSH20 0xFFFFFFFFFFFFFFFFFFFFFFFFFFFFFFFFFFFFFFFF AND DUP2 PUSH20 0xFFFFFFFFFFFFFFFFFFFFFFFFFFFFFFFFFFFFFFFF AND SUB PUSH2 0x10E2 JUMPI PUSH1 0x40 MLOAD PUSH32 0x8C379A000000000000000000000000000000000000000000000000000000000 DUP2 MSTORE PUSH1 0x4 ADD PUSH2 0x10D9 SWAP1 PUSH2 0x1A3A JUMP JUMPDEST PUSH1 0x40 MLOAD DUP1 SWAP2 SUB SWAP1 REVERT JUMPDEST PUSH2 0x10EB DUP2 PUSH2 0x11D2 JUMP JUMPDEST POP JUMP JUMPDEST PUSH1 0x0 PUSH1 0x1 PUSH1 0x0 SWAP1 SLOAD SWAP1 PUSH2 0x100 EXP SWAP1 DIV PUSH20 0xFFFFFFFFFFFFFFFFFFFFFFFFFFFFFFFFFFFFFFFF AND SWAP1 POP SWAP1 JUMP JUMPDEST PUSH1 0x0 CALLER SWAP1 POP SWAP1 JUMP JUMPDEST PUSH1 0x0 DUP2 DUP4 PUSH2 0x112E SWAP2 SWAP1 PUSH2 0x1A89 JUMP JUMPDEST SWAP1 POP SWAP3 SWAP2 POP POP JUMP JUMPDEST PUSH2 0x11B7 DUP4 PUSH4 0xA9059CBB PUSH1 0xE0 SHL DUP5 DUP5 PUSH1 0x40 MLOAD PUSH1 0x24 ADD PUSH2 0x1155 SWAP3 SWAP2 SWAP1 PUSH2 0x1ABD JUMP JUMPDEST PUSH1 0x40 MLOAD PUSH1 0x20 DUP2 DUP4 SUB SUB DUP2 MSTORE SWAP1 PUSH1 0x40 MSTORE SWAP1 PUSH28 0xFFFFFFFFFFFFFFFFFFFFFFFFFFFFFFFFFFFFFFFFFFFFFFFFFFFFFFFF NOT AND PUSH1 0x20 DUP3 ADD DUP1 MLOAD PUSH28 0xFFFFFFFFFFFFFFFFFFFFFFFFFFFFFFFFFFFFFFFFFFFFFFFFFFFFFFFF DUP4 DUP2 DUP4 AND OR DUP4 MSTORE POP POP POP POP PUSH2 0x1296 JUMP JUMPDEST POP POP POP JUMP JUMPDEST PUSH1 0x0 DUP2 DUP4 PUSH2 0x11CA SWAP2 SWAP1 PUSH2 0x1AE6 JUMP JUMPDEST SWAP1 POP SWAP3 SWAP2 POP POP JUMP JUMPDEST PUSH1 0x0 DUP1 PUSH1 0x0 SWAP1 SLOAD SWAP1 PUSH2 0x100 EXP SWAP1 DIV PUSH20 0xFFFFFFFFFFFFFFFFFFFFFFFFFFFFFFFFFFFFFFFF AND SWAP1 POP DUP2 PUSH1 0x0 DUP1 PUSH2 0x100 EXP DUP2 SLOAD DUP2 PUSH20 0xFFFFFFFFFFFFFFFFFFFFFFFFFFFFFFFFFFFFFFFF MUL NOT AND SWAP1 DUP4 PUSH20 0xFFFFFFFFFFFFFFFFFFFFFFFFFFFFFFFFFFFFFFFF AND MUL OR SWAP1 SSTORE POP DUP2 PUSH20 0xFFFFFFFFFFFFFFFFFFFFFFFFFFFFFFFFFFFFFFFF AND DUP2 PUSH20 0xFFFFFFFFFFFFFFFFFFFFFFFFFFFFFFFFFFFFFFFF AND PUSH32 0x8BE0079C531659141344CD1FD0A4F28419497F9722A3DAAFE3B4186F6B6457E0 PUSH1 0x40 MLOAD PUSH1 0x40 MLOAD DUP1 SWAP2 SUB SWAP1 LOG3 POP POP JUMP JUMPDEST PUSH1 0x0 PUSH2 0x12F8 DUP3 PUSH1 0x40 MLOAD DUP1 PUSH1 0x40 ADD PUSH1 0x40 MSTORE DUP1 PUSH1 0x20 DUP2 MSTORE PUSH1 0x20 ADD PUSH32 0x5361666545524332303A206C6F772D6C6576656C2063616C6C206661696C6564 DUP2 MSTORE POP DUP6 PUSH20 0xFFFFFFFFFFFFFFFFFFFFFFFFFFFFFFFFFFFFFFFF AND PUSH2 0x135D SWAP1 SWAP3 SWAP2 SWAP1 PUSH4 0xFFFFFFFF AND JUMP JUMPDEST SWAP1 POP PUSH1 0x0 DUP2 MLOAD GT ISZERO PUSH2 0x1358 JUMPI DUP1 DUP1 PUSH1 0x20 ADD SWAP1 MLOAD DUP2 ADD SWAP1 PUSH2 0x1318 SWAP2 SWAP1 PUSH2 0x1B68 JUMP JUMPDEST PUSH2 0x1357 JUMPI PUSH1 0x40 MLOAD PUSH32 0x8C379A000000000000000000000000000000000000000000000000000000000 DUP2 MSTORE PUSH1 0x4 ADD PUSH2 0x134E SWAP1 PUSH2 0x1C07 JUMP JUMPDEST PUSH1 0x40 MLOAD DUP1 SWAP2 SUB SWAP1 REVERT JUMPDEST JUMPDEST POP POP POP JUMP JUMPDEST PUSH1 0x60 PUSH2 0x136C DUP5 DUP5 PUSH1 0x0 DUP6 PUSH2 0x1375 JUMP JUMPDEST SWAP1 POP SWAP4 SWAP3 POP POP POP JUMP JUMPDEST PUSH1 0x60 DUP3 SELFBALANCE LT ISZERO PUSH2 0x13BA JUMPI PUSH1 0x40 MLOAD PUSH32 0x8C379A000000000000000000000000000000000000000000000000000000000 DUP2 MSTORE PUSH1 0x4 ADD PUSH2 0x13B1 SWAP1 PUSH2 0x1C99 JUMP JUMPDEST PUSH1 0x40 MLOAD DUP1 SWAP2 SUB SWAP1 REVERT JUMPDEST PUSH2 0x13C3 DUP6 PUSH2 0x1489 JUMP JUMPDEST PUSH2 0x1402 JUMPI PUSH1 0x40 MLOAD PUSH32 0x8C379A000000000000000000000000000000000000000000000000000000000 DUP2 MSTORE PUSH1 0x4 ADD PUSH2 0x13F9 SWAP1 PUSH2 0x1D05 JUMP JUMPDEST PUSH1 0x40 MLOAD DUP1 SWAP2 SUB SWAP1 REVERT JUMPDEST PUSH1 0x0 DUP1 DUP7 PUSH20 0xFFFFFFFFFFFFFFFFFFFFFFFFFFFFFFFFFFFFFFFF AND DUP6 DUP8 PUSH1 0x40 MLOAD PUSH2 0x142B SWAP2 SWAP1 PUSH2 0x1D6C JUMP JUMPDEST PUSH1 0x0 PUSH1 0x40 MLOAD DUP1 DUP4 SUB DUP2 DUP6 DUP8 GAS CALL SWAP3 POP POP POP RETURNDATASIZE DUP1 PUSH1 0x0 DUP2 EQ PUSH2 0x1468 JUMPI PUSH1 0x40 MLOAD SWAP2 POP PUSH1 0x1F NOT PUSH1 0x3F RETURNDATASIZE ADD AND DUP3 ADD PUSH1 0x40 MSTORE RETURNDATASIZE DUP3 MSTORE RETURNDATASIZE PUSH1 0x0 PUSH1 0x20 DUP5 ADD RETURNDATACOPY PUSH2 0x146D JUMP JUMPDEST PUSH1 0x60 SWAP2 POP JUMPDEST POP SWAP2 POP SWAP2 POP PUSH2 0x147D DUP3 DUP3 DUP7 PUSH2 0x14AC JUMP JUMPDEST SWAP3 POP POP POP SWAP5 SWAP4 POP POP POP POP JUMP JUMPDEST PUSH1 0x0 DUP1 DUP3 PUSH20 0xFFFFFFFFFFFFFFFFFFFFFFFFFFFFFFFFFFFFFFFF AND EXTCODESIZE GT SWAP1 POP SWAP2 SWAP1 POP JUMP JUMPDEST PUSH1 0x60 DUP4 ISZERO PUSH2 0x14BC JUMPI DUP3 SWAP1 POP PUSH2 0x150C JUMP JUMPDEST PUSH1 0x0 DUP4 MLOAD GT ISZERO PUSH2 0x14CF JUMPI DUP3 MLOAD DUP1 DUP5 PUSH1 0x20 ADD REVERT JUMPDEST DUP2 PUSH1 0x40 MLOAD PUSH32 0x8C379A000000000000000000000000000000000000000000000000000000000 DUP2 MSTORE PUSH1 0x4 ADD PUSH2 0x1503 SWAP2 SWAP1 PUSH2 0x188C JUMP JUMPDEST PUSH1 0x40 MLOAD DUP1 SWAP2 SUB SWAP1 REVERT JUMPDEST SWAP4 SWAP3 POP POP POP JUMP JUMPDEST PUSH1 0x0 DUP1 REVERT JUMPDEST PUSH1 0x0 DUP2 SWAP1 POP SWAP2 SWAP1 POP JUMP JUMPDEST PUSH2 0x152B DUP2 PUSH2 0x1518 JUMP JUMPDEST DUP2 EQ PUSH2 0x1536 JUMPI PUSH1 0x0 DUP1 REVERT JUMPDEST POP JUMP JUMPDEST PUSH1 0x0 DUP2 CALLDATALOAD SWAP1 POP PUSH2 0x1548 DUP2 PUSH2 0x1522 JUMP JUMPDEST SWAP3 SWAP2 POP POP JUMP JUMPDEST PUSH1 0x0 PUSH1 0x20 DUP3 DUP5 SUB SLT ISZERO PUSH2 0x1564 JUMPI PUSH2 0x1563 PUSH2 0x1513 JUMP JUMPDEST JUMPDEST PUSH1 0x0 PUSH2 0x1572 DUP5 DUP3 DUP6 ADD PUSH2 0x1539 JUMP JUMPDEST SWAP2 POP POP SWAP3 SWAP2 POP POP JUMP JUMPDEST PUSH2 0x1584 DUP2 PUSH2 0x1518 JUMP JUMPDEST DUP3 MSTORE POP POP JUMP JUMPDEST PUSH1 0x0 PUSH1 0x20 DUP3 ADD SWAP1 POP PUSH2 0x159F PUSH1 0x0 DUP4 ADD DUP5 PUSH2 0x157B JUMP JUMPDEST SWAP3 SWAP2 POP POP JUMP JUMPDEST PUSH1 0x0 PUSH20 0xFFFFFFFFFFFFFFFFFFFFFFFFFFFFFFFFFFFFFFFF DUP3 AND SWAP1 POP SWAP2 SWAP1 POP JUMP JUMPDEST PUSH1 0x0 PUSH2 0x15D0 DUP3 PUSH2 0x15A5 JUMP JUMPDEST SWAP1 POP SWAP2 SWAP1 POP JUMP JUMPDEST PUSH2 0x15E0 DUP2 PUSH2 0x15C5 JUMP JUMPDEST DUP2 EQ PUSH2 0x15EB JUMPI PUSH1 0x0 DUP1 REVERT JUMPDEST POP JUMP JUMPDEST PUSH1 0x0 DUP2 CALLDATALOAD SWAP1 POP PUSH2 0x15FD DUP2 PUSH2 0x15D7 JUMP JUMPDEST SWAP3 SWAP2 POP POP JUMP JUMPDEST PUSH1 0x0 DUP1 PUSH1 0x0 PUSH1 0x60 DUP5 DUP7 SUB SLT ISZERO PUSH2 0x161C JUMPI PUSH2 0x161B PUSH2 0x1513 JUMP JUMPDEST JUMPDEST PUSH1 0x0 PUSH2 0x162A DUP7 DUP3 DUP8 ADD PUSH2 0x15EE JUMP JUMPDEST SWAP4 POP POP PUSH1 0x20 PUSH2 0x163B DUP7 DUP3 DUP8 ADD PUSH2 0x1539 JUMP JUMPDEST SWAP3 POP POP PUSH1 0x40 PUSH2 0x164C DUP7 DUP3 DUP8 ADD PUSH2 0x1539 JUMP JUMPDEST SWAP2 POP POP SWAP3 POP SWAP3 POP SWAP3 JUMP JUMPDEST PUSH2 0x165F DUP2 PUSH2 0x15C5 JUMP JUMPDEST DUP3 MSTORE POP POP JUMP JUMPDEST PUSH1 0x0 PUSH1 0x20 DUP3 ADD SWAP1 POP PUSH2 0x167A PUSH1 0x0 DUP4 ADD DUP5 PUSH2 0x1656 JUMP JUMPDEST SWAP3 SWAP2 POP POP JUMP JUMPDEST PUSH1 0x0 DUP2 ISZERO ISZERO SWAP1 POP SWAP2 SWAP1 POP JUMP JUMPDEST PUSH2 0x1695 DUP2 PUSH2 0x1680 JUMP JUMPDEST DUP3 MSTORE POP POP JUMP JUMPDEST PUSH1 0x0 PUSH1 0x80 DUP3 ADD SWAP1 POP PUSH2 0x16B0 PUSH1 0x0 DUP4 ADD DUP8 PUSH2 0x157B JUMP JUMPDEST PUSH2 0x16BD PUSH1 0x20 DUP4 ADD DUP7 PUSH2 0x157B JUMP JUMPDEST PUSH2 0x16CA PUSH1 0x40 DUP4 ADD DUP6 PUSH2 0x1656 JUMP JUMPDEST PUSH2 0x16D7 PUSH1 0x60 DUP4 ADD DUP5 PUSH2 0x168C JUMP JUMPDEST SWAP6 SWAP5 POP POP POP POP POP JUMP JUMPDEST PUSH1 0x0 PUSH1 0x20 DUP3 DUP5 SUB SLT ISZERO PUSH2 0x16F6 JUMPI PUSH2 0x16F5 PUSH2 0x1513 JUMP JUMPDEST JUMPDEST PUSH1 0x0 PUSH2 0x1704 DUP5 DUP3 DUP6 ADD PUSH2 0x15EE JUMP JUMPDEST SWAP2 POP POP SWAP3 SWAP2 POP POP JUMP JUMPDEST PUSH1 0x0 DUP2 SWAP1 POP SWAP2 SWAP1 POP JUMP JUMPDEST PUSH1 0x0 PUSH2 0x1732 PUSH2 0x172D PUSH2 0x1728 DUP5 PUSH2 0x15A5 JUMP JUMPDEST PUSH2 0x170D JUMP JUMPDEST PUSH2 0x15A5 JUMP JUMPDEST SWAP1 POP SWAP2 SWAP1 POP JUMP JUMPDEST PUSH1 0x0 PUSH2 0x1744 DUP3 PUSH2 0x1717 JUMP JUMPDEST SWAP1 POP SWAP2 SWAP1 POP JUMP JUMPDEST PUSH1 0x0 PUSH2 0x1756 DUP3 PUSH2 0x1739 JUMP JUMPDEST SWAP1 POP SWAP2 SWAP1 POP JUMP JUMPDEST PUSH2 0x1766 DUP2 PUSH2 0x174B JUMP JUMPDEST DUP3 MSTORE POP POP JUMP JUMPDEST PUSH1 0x0 PUSH1 0x20 DUP3 ADD SWAP1 POP PUSH2 0x1781 PUSH1 0x0 DUP4 ADD DUP5 PUSH2 0x175D JUMP JUMPDEST SWAP3 SWAP2 POP POP JUMP JUMPDEST PUSH1 0x0 DUP3 DUP3 MSTORE PUSH1 0x20 DUP3 ADD SWAP1 POP SWAP3 SWAP2 POP POP JUMP JUMPDEST PUSH32 0x4F776E61626C653A2063616C6C6572206973206E6F7420746865206F776E6572 PUSH1 0x0 DUP3 ADD MSTORE POP JUMP JUMPDEST PUSH1 0x0 PUSH2 0x17CE PUSH1 0x20 DUP4 PUSH2 0x1787 JUMP JUMPDEST SWAP2 POP PUSH2 0x17D9 DUP3 PUSH2 0x1798 JUMP JUMPDEST PUSH1 0x20 DUP3 ADD SWAP1 POP SWAP2 SWAP1 POP JUMP JUMPDEST PUSH1 0x0 PUSH1 0x20 DUP3 ADD SWAP1 POP DUP2 DUP2 SUB PUSH1 0x0 DUP4 ADD MSTORE PUSH2 0x17FD DUP2 PUSH2 0x17C1 JUMP JUMPDEST SWAP1 POP SWAP2 SWAP1 POP JUMP JUMPDEST PUSH1 0x0 DUP2 MLOAD SWAP1 POP SWAP2 SWAP1 POP JUMP JUMPDEST PUSH1 0x0 JUMPDEST DUP4 DUP2 LT ISZERO PUSH2 0x182D JUMPI DUP1 DUP3 ADD MLOAD DUP2 DUP5 ADD MSTORE PUSH1 0x20 DUP2 ADD SWAP1 POP PUSH2 0x1812 JUMP JUMPDEST DUP4 DUP2 GT ISZERO PUSH2 0x183C JUMPI PUSH1 0x0 DUP5 DUP5 ADD MSTORE JUMPDEST POP POP POP POP JUMP JUMPDEST PUSH1 0x0 PUSH1 0x1F NOT PUSH1 0x1F DUP4 ADD AND SWAP1 POP SWAP2 SWAP1 POP JUMP JUMPDEST PUSH1 0x0 PUSH2 0x185E DUP3 PUSH2 0x1804 JUMP JUMPDEST PUSH2 0x1868 DUP2 DUP6 PUSH2 0x1787 JUMP JUMPDEST SWAP4 POP PUSH2 0x1878 DUP2 DUP6 PUSH1 0x20 DUP7 ADD PUSH2 0x180F JUMP JUMPDEST PUSH2 0x1881 DUP2 PUSH2 0x1842 JUMP JUMPDEST DUP5 ADD SWAP2 POP POP SWAP3 SWAP2 POP POP JUMP JUMPDEST PUSH1 0x0 PUSH1 0x20 DUP3 ADD SWAP1 POP DUP2 DUP2 SUB PUSH1 0x0 DUP4 ADD MSTORE PUSH2 0x18A6 DUP2 DUP5 PUSH2 0x1853 JUMP JUMPDEST SWAP1 POP SWAP3 SWAP2 POP POP JUMP JUMPDEST PUSH1 0x0 DUP2 MLOAD SWAP1 POP PUSH2 0x18BD DUP2 PUSH2 0x1522 JUMP JUMPDEST SWAP3 SWAP2 POP POP JUMP JUMPDEST PUSH1 0x0 PUSH1 0x20 DUP3 DUP5 SUB SLT ISZERO PUSH2 0x18D9 JUMPI PUSH2 0x18D8 PUSH2 0x1513 JUMP JUMPDEST JUMPDEST PUSH1 0x0 PUSH2 0x18E7 DUP5 DUP3 DUP6 ADD PUSH2 0x18AE JUMP JUMPDEST SWAP2 POP POP SWAP3 SWAP2 POP POP JUMP JUMPDEST PUSH32 0x496E76616C69642072656C656173652074696D65000000000000000000000000 PUSH1 0x0 DUP3 ADD MSTORE POP JUMP JUMPDEST PUSH1 0x0 PUSH2 0x1926 PUSH1 0x14 DUP4 PUSH2 0x1787 JUMP JUMPDEST SWAP2 POP PUSH2 0x1931 DUP3 PUSH2 0x18F0 JUMP JUMPDEST PUSH1 0x20 DUP3 ADD SWAP1 POP SWAP2 SWAP1 POP JUMP JUMPDEST PUSH1 0x0 PUSH1 0x20 DUP3 ADD SWAP1 POP DUP2 DUP2 SUB PUSH1 0x0 DUP4 ADD MSTORE PUSH2 0x1955 DUP2 PUSH2 0x1919 JUMP JUMPDEST SWAP1 POP SWAP2 SWAP1 POP JUMP JUMPDEST PUSH32 0x416D6F756E74206D7573742062652067726561746572207468656E2030000000 PUSH1 0x0 DUP3 ADD MSTORE POP JUMP JUMPDEST PUSH1 0x0 PUSH2 0x1992 PUSH1 0x1D DUP4 PUSH2 0x1787 JUMP JUMPDEST SWAP2 POP PUSH2 0x199D DUP3 PUSH2 0x195C JUMP JUMPDEST PUSH1 0x20 DUP3 ADD SWAP1 POP SWAP2 SWAP1 POP JUMP JUMPDEST PUSH1 0x0 PUSH1 0x20 DUP3 ADD SWAP1 POP DUP2 DUP2 SUB PUSH1 0x0 DUP4 ADD MSTORE PUSH2 0x19C1 DUP2 PUSH2 0x1985 JUMP JUMPDEST SWAP1 POP SWAP2 SWAP1 POP JUMP JUMPDEST PUSH32 0x4F776E61626C653A206E6577206F776E657220697320746865207A65726F2061 PUSH1 0x0 DUP3 ADD MSTORE PUSH32 0x6464726573730000000000000000000000000000000000000000000000000000 PUSH1 0x20 DUP3 ADD MSTORE POP JUMP JUMPDEST PUSH1 0x0 PUSH2 0x1A24 PUSH1 0x26 DUP4 PUSH2 0x1787 JUMP JUMPDEST SWAP2 POP PUSH2 0x1A2F DUP3 PUSH2 0x19C8 JUMP JUMPDEST PUSH1 0x40 DUP3 ADD SWAP1 POP SWAP2 SWAP1 POP JUMP JUMPDEST PUSH1 0x0 PUSH1 0x20 DUP3 ADD SWAP1 POP DUP2 DUP2 SUB PUSH1 0x0 DUP4 ADD MSTORE PUSH2 0x1A53 DUP2 PUSH2 0x1A17 JUMP JUMPDEST SWAP1 POP SWAP2 SWAP1 POP JUMP JUMPDEST PUSH32 0x4E487B7100000000000000000000000000000000000000000000000000000000 PUSH1 0x0 MSTORE PUSH1 0x11 PUSH1 0x4 MSTORE PUSH1 0x24 PUSH1 0x0 REVERT JUMPDEST PUSH1 0x0 PUSH2 0x1A94 DUP3 PUSH2 0x1518 JUMP JUMPDEST SWAP2 POP PUSH2 0x1A9F DUP4 PUSH2 0x1518 JUMP JUMPDEST SWAP3 POP DUP3 DUP3 LT ISZERO PUSH2 0x1AB2 JUMPI PUSH2 0x1AB1 PUSH2 0x1A5A JUMP JUMPDEST JUMPDEST DUP3 DUP3 SUB SWAP1 POP SWAP3 SWAP2 POP POP JUMP JUMPDEST PUSH1 0x0 PUSH1 0x40 DUP3 ADD SWAP1 POP PUSH2 0x1AD2 PUSH1 0x0 DUP4 ADD DUP6 PUSH2 0x1656 JUMP JUMPDEST PUSH2 0x1ADF PUSH1 0x20 DUP4 ADD DUP5 PUSH2 0x157B JUMP JUMPDEST SWAP4 SWAP3 POP POP POP JUMP JUMPDEST PUSH1 0x0 PUSH2 0x1AF1 DUP3 PUSH2 0x1518 JUMP JUMPDEST SWAP2 POP PUSH2 0x1AFC DUP4 PUSH2 0x1518 JUMP JUMPDEST SWAP3 POP DUP3 PUSH32 0xFFFFFFFFFFFFFFFFFFFFFFFFFFFFFFFFFFFFFFFFFFFFFFFFFFFFFFFFFFFFFFFF SUB DUP3 GT ISZERO PUSH2 0x1B31 JUMPI PUSH2 0x1B30 PUSH2 0x1A5A JUMP JUMPDEST JUMPDEST DUP3 DUP3 ADD SWAP1 POP SWAP3 SWAP2 POP POP JUMP JUMPDEST PUSH2 0x1B45 DUP2 PUSH2 0x1680 JUMP JUMPDEST DUP2 EQ PUSH2 0x1B50 JUMPI PUSH1 0x0 DUP1 REVERT JUMPDEST POP JUMP JUMPDEST PUSH1 0x0 DUP2 MLOAD SWAP1 POP PUSH2 0x1B62 DUP2 PUSH2 0x1B3C JUMP JUMPDEST SWAP3 SWAP2 POP POP JUMP JUMPDEST PUSH1 0x0 PUSH1 0x20 DUP3 DUP5 SUB SLT ISZERO PUSH2 0x1B7E JUMPI PUSH2 0x1B7D PUSH2 0x1513 JUMP JUMPDEST JUMPDEST PUSH1 0x0 PUSH2 0x1B8C DUP5 DUP3 DUP6 ADD PUSH2 0x1B53 JUMP JUMPDEST SWAP2 POP POP SWAP3 SWAP2 POP POP JUMP JUMPDEST PUSH32 0x5361666545524332303A204552433230206F7065726174696F6E20646964206E PUSH1 0x0 DUP3 ADD MSTORE PUSH32 0x6F74207375636365656400000000000000000000000000000000000000000000 PUSH1 0x20 DUP3 ADD MSTORE POP JUMP JUMPDEST PUSH1 0x0 PUSH2 0x1BF1 PUSH1 0x2A DUP4 PUSH2 0x1787 JUMP JUMPDEST SWAP2 POP PUSH2 0x1BFC DUP3 PUSH2 0x1B95 JUMP JUMPDEST PUSH1 0x40 DUP3 ADD SWAP1 POP SWAP2 SWAP1 POP JUMP JUMPDEST PUSH1 0x0 PUSH1 0x20 DUP3 ADD SWAP1 POP DUP2 DUP2 SUB PUSH1 0x0 DUP4 ADD MSTORE PUSH2 0x1C20 DUP2 PUSH2 0x1BE4 JUMP JUMPDEST SWAP1 POP SWAP2 SWAP1 POP JUMP JUMPDEST PUSH32 0x416464726573733A20696E73756666696369656E742062616C616E636520666F PUSH1 0x0 DUP3 ADD MSTORE PUSH32 0x722063616C6C0000000000000000000000000000000000000000000000000000 PUSH1 0x20 DUP3 ADD MSTORE POP JUMP JUMPDEST PUSH1 0x0 PUSH2 0x1C83 PUSH1 0x26 DUP4 PUSH2 0x1787 JUMP JUMPDEST SWAP2 POP PUSH2 0x1C8E DUP3 PUSH2 0x1C27 JUMP JUMPDEST PUSH1 0x40 DUP3 ADD SWAP1 POP SWAP2 SWAP1 POP JUMP JUMPDEST PUSH1 0x0 PUSH1 0x20 DUP3 ADD SWAP1 POP DUP2 DUP2 SUB PUSH1 0x0 DUP4 ADD MSTORE PUSH2 0x1CB2 DUP2 PUSH2 0x1C76 JUMP JUMPDEST SWAP1 POP SWAP2 SWAP1 POP JUMP JUMPDEST PUSH32 0x416464726573733A2063616C6C20746F206E6F6E2D636F6E7472616374000000 PUSH1 0x0 DUP3 ADD MSTORE POP JUMP JUMPDEST PUSH1 0x0 PUSH2 0x1CEF PUSH1 0x1D DUP4 PUSH2 0x1787 JUMP JUMPDEST SWAP2 POP PUSH2 0x1CFA DUP3 PUSH2 0x1CB9 JUMP JUMPDEST PUSH1 0x20 DUP3 ADD SWAP1 POP SWAP2 SWAP1 POP JUMP JUMPDEST PUSH1 0x0 PUSH1 0x20 DUP3 ADD SWAP1 POP DUP2 DUP2 SUB PUSH1 0x0 DUP4 ADD MSTORE PUSH2 0x1D1E DUP2 PUSH2 0x1CE2 JUMP JUMPDEST SWAP1 POP SWAP2 SWAP1 POP JUMP JUMPDEST PUSH1 0x0 DUP2 MLOAD SWAP1 POP SWAP2 SWAP1 POP JUMP JUMPDEST PUSH1 0x0 DUP2 SWAP1 POP SWAP3 SWAP2 POP POP JUMP JUMPDEST PUSH1 0x0 PUSH2 0x1D46 DUP3 PUSH2 0x1D25 JUMP JUMPDEST PUSH2 0x1D50 DUP2 DUP6 PUSH2 0x1D30 JUMP JUMPDEST SWAP4 POP PUSH2 0x1D60 DUP2 DUP6 PUSH1 0x20 DUP7 ADD PUSH2 0x180F JUMP JUMPDEST DUP1 DUP5 ADD SWAP2 POP POP SWAP3 SWAP2 POP POP JUMP JUMPDEST PUSH1 0x0 PUSH2 0x1D78 DUP3 DUP5 PUSH2 0x1D3B JUMP JUMPDEST SWAP2 POP DUP2 SWAP1 POP SWAP3 SWAP2 POP POP JUMP INVALID LOG2 PUSH5 0x6970667358 0x22 SLT KECCAK256 0x29 PUSH9 0xAC247DC6A657F4B546 0xD1 0xDD 0xD1 0xD8 SWAP14 0xFB DUP9 PUSH21 0xE11941048ADBF97FDFE5042A7C64736F6C63430008 0xD STOP CALLER "
				},
				"gasEstimates": {
					"creation": {
						"codeDepositCost": "1521800",
						"executionCost": "infinite",
						"totalCost": "infinite"
					},
					"external": {
						"addVesting(address,uint256,uint256)": "infinite",
						"beneficiary(uint256)": "2894",
						"getTime()": "447",
						"owner()": "2566",
						"release(uint256)": "infinite",
						"releaseTime(uint256)": "infinite",
						"removeVesting(uint256)": "infinite",
						"renounceOwnership()": "30441",
						"retrieveExcessTokens(uint256)": "infinite",
						"token()": "infinite",
						"transferOwnership(address)": "30786",
						"vestingAmount(uint256)": "infinite",
						"vestings(uint256)": "infinite"
					}
				},
				"methodIdentifiers": {
					"addVesting(address,uint256,uint256)": "4691a998",
					"beneficiary(uint256)": "5daa3160",
					"getTime()": "557ed1ba",
					"owner()": "8da5cb5b",
					"release(uint256)": "37bdc99b",
					"releaseTime(uint256)": "09c4bb2b",
					"removeVesting(uint256)": "1bcde4ec",
					"renounceOwnership()": "715018a6",
					"retrieveExcessTokens(uint256)": "6eb48096",
					"token()": "fc0c546a",
					"transferOwnership(address)": "f2fde38b",
					"vestingAmount(uint256)": "07ad23ef",
					"vestings(uint256)": "821bee73"
				}
			},
			"userdoc": {
				"kind": "user",
				"methods": {},
				"version": 1
			}
		}
	}
}