{
	"contracts/GoldVesting.sol": {
		"GoldTokenVesting": {
			"abi": [
				{
					"inputs": [
						{
							"internalType": "contract Gold",
							"name": "_token",
							"type": "address"
						}
					],
					"stateMutability": "nonpayable",
					"type": "constructor"
				},
				{
					"anonymous": false,
					"inputs": [
						{
							"indexed": true,
							"internalType": "address",
							"name": "previousOwner",
							"type": "address"
						},
						{
							"indexed": true,
							"internalType": "address",
							"name": "newOwner",
							"type": "address"
						}
					],
					"name": "OwnershipTransferred",
					"type": "event"
				},
				{
					"anonymous": false,
					"inputs": [
						{
							"indexed": true,
							"internalType": "uint256",
							"name": "vestingId",
							"type": "uint256"
						},
						{
							"indexed": true,
							"internalType": "address",
							"name": "beneficiary",
							"type": "address"
						},
						{
							"indexed": false,
							"internalType": "uint256",
							"name": "amount",
							"type": "uint256"
						}
					],
					"name": "TokenVestingAdded",
					"type": "event"
				},
				{
					"anonymous": false,
					"inputs": [
						{
							"indexed": true,
							"internalType": "uint256",
							"name": "vestingId",
							"type": "uint256"
						},
						{
							"indexed": true,
							"internalType": "address",
							"name": "beneficiary",
							"type": "address"
						},
						{
							"indexed": false,
							"internalType": "uint256",
							"name": "amount",
							"type": "uint256"
						}
					],
					"name": "TokenVestingReleased",
					"type": "event"
				},
				{
					"anonymous": false,
					"inputs": [
						{
							"indexed": true,
							"internalType": "uint256",
							"name": "vestingId",
							"type": "uint256"
						},
						{
							"indexed": true,
							"internalType": "address",
							"name": "beneficiary",
							"type": "address"
						},
						{
							"indexed": false,
							"internalType": "uint256",
							"name": "amount",
							"type": "uint256"
						}
					],
					"name": "TokenVestingRemoved",
					"type": "event"
				},
				{
					"inputs": [
						{
							"internalType": "address",
							"name": "_beneficiary",
							"type": "address"
						},
						{
							"internalType": "uint256",
							"name": "_releaseTime",
							"type": "uint256"
						},
						{
							"internalType": "uint256",
							"name": "_amount",
							"type": "uint256"
						}
					],
					"name": "addVesting",
					"outputs": [],
					"stateMutability": "nonpayable",
					"type": "function"
				},
				{
					"inputs": [
						{
							"internalType": "uint256",
							"name": "_vestingId",
							"type": "uint256"
						}
					],
					"name": "beneficiary",
					"outputs": [
						{
							"internalType": "address",
							"name": "",
							"type": "address"
						}
					],
					"stateMutability": "view",
					"type": "function"
				},
				{
					"inputs": [],
					"name": "getTime",
					"outputs": [
						{
							"internalType": "uint256",
							"name": "",
							"type": "uint256"
						}
					],
					"stateMutability": "view",
					"type": "function"
				},
				{
					"inputs": [],
					"name": "owner",
					"outputs": [
						{
							"internalType": "address",
							"name": "",
							"type": "address"
						}
					],
					"stateMutability": "view",
					"type": "function"
				},
				{
					"inputs": [
						{
							"internalType": "uint256",
							"name": "_vestingId",
							"type": "uint256"
						}
					],
					"name": "release",
					"outputs": [],
					"stateMutability": "nonpayable",
					"type": "function"
				},
				{
					"inputs": [
						{
							"internalType": "uint256",
							"name": "_vestingId",
							"type": "uint256"
						}
					],
					"name": "releaseTime",
					"outputs": [
						{
							"internalType": "uint256",
							"name": "",
							"type": "uint256"
						}
					],
					"stateMutability": "view",
					"type": "function"
				},
				{
					"inputs": [
						{
							"internalType": "uint256",
							"name": "_vestingId",
							"type": "uint256"
						}
					],
					"name": "removeVesting",
					"outputs": [],
					"stateMutability": "nonpayable",
					"type": "function"
				},
				{
					"inputs": [],
					"name": "renounceOwnership",
					"outputs": [],
					"stateMutability": "nonpayable",
					"type": "function"
				},
				{
					"inputs": [
						{
							"internalType": "uint256",
							"name": "_amount",
							"type": "uint256"
						}
					],
					"name": "retrieveExcessTokens",
					"outputs": [],
					"stateMutability": "nonpayable",
					"type": "function"
				},
				{
					"inputs": [],
					"name": "token",
					"outputs": [
						{
							"internalType": "contract Gold",
							"name": "",
							"type": "address"
						}
					],
					"stateMutability": "view",
					"type": "function"
				},
				{
					"inputs": [
						{
							"internalType": "address",
							"name": "newOwner",
							"type": "address"
						}
					],
					"name": "transferOwnership",
					"outputs": [],
					"stateMutability": "nonpayable",
					"type": "function"
				},
				{
					"inputs": [
						{
							"internalType": "uint256",
							"name": "_vestingId",
							"type": "uint256"
						}
					],
					"name": "vestingAmount",
					"outputs": [
						{
							"internalType": "uint256",
							"name": "",
							"type": "uint256"
						}
					],
					"stateMutability": "view",
					"type": "function"
				},
				{
					"inputs": [
						{
							"internalType": "uint256",
							"name": "",
							"type": "uint256"
						}
					],
					"name": "vestings",
					"outputs": [
						{
							"internalType": "uint256",
							"name": "releaseTime",
							"type": "uint256"
						},
						{
							"internalType": "uint256",
							"name": "amount",
							"type": "uint256"
						},
						{
							"internalType": "address",
							"name": "beneficiary",
							"type": "address"
						},
						{
							"internalType": "bool",
							"name": "released",
							"type": "bool"
						}
					],
					"stateMutability": "view",
					"type": "function"
				}
			],
			"devdoc": {
				"kind": "dev",
				"methods": {
					"owner()": {
						"details": "Returns the address of the current owner."
					},
					"renounceOwnership()": {
						"details": "Leaves the contract without owner. It will not be possible to call `onlyOwner` functions anymore. Can only be called by the current owner. NOTE: Renouncing ownership will leave the contract without an owner, thereby removing any functionality that is only available to the owner."
					},
					"transferOwnership(address)": {
						"details": "Transfers ownership of the contract to a new account (`newOwner`). Can only be called by the current owner."
					}
				},
				"version": 1
			},
			"evm": {
				"assembly": "    /* \"contracts/GoldVesting.sol\":299:4117  contract GoldTokenVesting is Ownable {... */\n  mstore(0x40, 0x80)\n    /* \"contracts/GoldVesting.sol\":434:435  0 */\n  0x00\n    /* \"contracts/GoldVesting.sol\":403:435  uint256 private tokensToVest = 0 */\n  0x02\n  sstore\n    /* \"contracts/GoldVesting.sol\":469:470  0 */\n  0x00\n    /* \"contracts/GoldVesting.sol\":441:470  uint256 private vestingId = 0 */\n  0x03\n  sstore\n    /* \"contracts/GoldVesting.sol\":1350:1499  constructor(Gold _token) {... */\n  callvalue\n  dup1\n  iszero\n  tag_1\n  jumpi\n  0x00\n  dup1\n  revert\ntag_1:\n  pop\n  mload(0x40)\n  sub(codesize, bytecodeSize)\n  dup1\n  bytecodeSize\n  dup4\n  codecopy\n  dup2\n  dup2\n  add\n  0x40\n  mstore\n  dup2\n  add\n  swap1\n  tag_2\n  swap2\n  swap1\n  tag_3\n  jump\t// in\ntag_2:\n    /* \"https://github.com/OpenZeppelin/openzeppelin-contracts/blob/master/contracts/access/Ownable.sol\":921:953  _transferOwnership(_msgSender()) */\n  tag_7\n    /* \"https://github.com/OpenZeppelin/openzeppelin-contracts/blob/master/contracts/access/Ownable.sol\":940:952  _msgSender() */\n  tag_8\n    /* \"https://github.com/OpenZeppelin/openzeppelin-contracts/blob/master/contracts/access/Ownable.sol\":940:950  _msgSender */\n  shl(0x20, tag_9)\n    /* \"https://github.com/OpenZeppelin/openzeppelin-contracts/blob/master/contracts/access/Ownable.sol\":940:952  _msgSender() */\n  0x20\n  shr\n  jump\t// in\ntag_8:\n    /* \"https://github.com/OpenZeppelin/openzeppelin-contracts/blob/master/contracts/access/Ownable.sol\":921:939  _transferOwnership */\n  shl(0x20, tag_10)\n    /* \"https://github.com/OpenZeppelin/openzeppelin-contracts/blob/master/contracts/access/Ownable.sol\":921:953  _transferOwnership(_msgSender()) */\n  0x20\n  shr\n  jump\t// in\ntag_7:\n    /* \"contracts/GoldVesting.sol\":1420:1423  0x0 */\n  0x00\n    /* \"contracts/GoldVesting.sol\":1393:1424  address(_token) != address(0x0) */\n  0xffffffffffffffffffffffffffffffffffffffff\n  and\n    /* \"contracts/GoldVesting.sol\":1401:1407  _token */\n  dup2\n    /* \"contracts/GoldVesting.sol\":1393:1424  address(_token) != address(0x0) */\n  0xffffffffffffffffffffffffffffffffffffffff\n  and\n  sub\n    /* \"contracts/GoldVesting.sol\":1385:1464  require(address(_token) != address(0x0), \"Frontier token address is not valid\") */\n  tag_12\n  jumpi\n  mload(0x40)\n  0x08c379a000000000000000000000000000000000000000000000000000000000\n  dup2\n  mstore\n  0x04\n  add\n  tag_13\n  swap1\n  tag_14\n  jump\t// in\ntag_13:\n  mload(0x40)\n  dup1\n  swap2\n  sub\n  swap1\n  revert\ntag_12:\n    /* \"contracts/GoldVesting.sol\":1486:1492  _token */\n  dup1\n    /* \"contracts/GoldVesting.sol\":1474:1483  goldToken */\n  0x01\n  0x00\n    /* \"contracts/GoldVesting.sol\":1474:1492  goldToken = _token */\n  0x0100\n  exp\n  dup2\n  sload\n  dup2\n  0xffffffffffffffffffffffffffffffffffffffff\n  mul\n  not\n  and\n  swap1\n  dup4\n  0xffffffffffffffffffffffffffffffffffffffff\n  and\n  mul\n  or\n  swap1\n  sstore\n  pop\n    /* \"contracts/GoldVesting.sol\":1350:1499  constructor(Gold _token) {... */\n  pop\n    /* \"contracts/GoldVesting.sol\":299:4117  contract GoldTokenVesting is Ownable {... */\n  jump(tag_15)\n    /* \"https://github.com/OpenZeppelin/openzeppelin-contracts/blob/master/contracts/utils/Context.sol\":640:736  function _msgSender() internal view virtual returns (address) {... */\ntag_9:\n    /* \"https://github.com/OpenZeppelin/openzeppelin-contracts/blob/master/contracts/utils/Context.sol\":693:700  address */\n  0x00\n    /* \"https://github.com/OpenZeppelin/openzeppelin-contracts/blob/master/contracts/utils/Context.sol\":719:729  msg.sender */\n  caller\n    /* \"https://github.com/OpenZeppelin/openzeppelin-contracts/blob/master/contracts/utils/Context.sol\":712:729  return msg.sender */\n  swap1\n  pop\n    /* \"https://github.com/OpenZeppelin/openzeppelin-contracts/blob/master/contracts/utils/Context.sol\":640:736  function _msgSender() internal view virtual returns (address) {... */\n  swap1\n  jump\t// out\n    /* \"https://github.com/OpenZeppelin/openzeppelin-contracts/blob/master/contracts/access/Ownable.sol\":2270:2457  function _transferOwnership(address newOwner) internal virtual {... */\ntag_10:\n    /* \"https://github.com/OpenZeppelin/openzeppelin-contracts/blob/master/contracts/access/Ownable.sol\":2343:2359  address oldOwner */\n  0x00\n    /* \"https://github.com/OpenZeppelin/openzeppelin-contracts/blob/master/contracts/access/Ownable.sol\":2362:2368  _owner */\n  dup1\n  0x00\n  swap1\n  sload\n  swap1\n  0x0100\n  exp\n  swap1\n  div\n  0xffffffffffffffffffffffffffffffffffffffff\n  and\n    /* \"https://github.com/OpenZeppelin/openzeppelin-contracts/blob/master/contracts/access/Ownable.sol\":2343:2368  address oldOwner = _owner */\n  swap1\n  pop\n    /* \"https://github.com/OpenZeppelin/openzeppelin-contracts/blob/master/contracts/access/Ownable.sol\":2387:2395  newOwner */\n  dup2\n    /* \"https://github.com/OpenZeppelin/openzeppelin-contracts/blob/master/contracts/access/Ownable.sol\":2378:2384  _owner */\n  0x00\n  dup1\n    /* \"https://github.com/OpenZeppelin/openzeppelin-contracts/blob/master/contracts/access/Ownable.sol\":2378:2395  _owner = newOwner */\n  0x0100\n  exp\n  dup2\n  sload\n  dup2\n  0xffffffffffffffffffffffffffffffffffffffff\n  mul\n  not\n  and\n  swap1\n  dup4\n  0xffffffffffffffffffffffffffffffffffffffff\n  and\n  mul\n  or\n  swap1\n  sstore\n  pop\n    /* \"https://github.com/OpenZeppelin/openzeppelin-contracts/blob/master/contracts/access/Ownable.sol\":2441:2449  newOwner */\n  dup2\n    /* \"https://github.com/OpenZeppelin/openzeppelin-contracts/blob/master/contracts/access/Ownable.sol\":2410:2450  OwnershipTransferred(oldOwner, newOwner) */\n  0xffffffffffffffffffffffffffffffffffffffff\n  and\n    /* \"https://github.com/OpenZeppelin/openzeppelin-contracts/blob/master/contracts/access/Ownable.sol\":2431:2439  oldOwner */\n  dup2\n    /* \"https://github.com/OpenZeppelin/openzeppelin-contracts/blob/master/contracts/access/Ownable.sol\":2410:2450  OwnershipTransferred(oldOwner, newOwner) */\n  0xffffffffffffffffffffffffffffffffffffffff\n  and\n  0x8be0079c531659141344cd1fd0a4f28419497f9722a3daafe3b4186f6b6457e0\n  mload(0x40)\n  mload(0x40)\n  dup1\n  swap2\n  sub\n  swap1\n  log3\n    /* \"https://github.com/OpenZeppelin/openzeppelin-contracts/blob/master/contracts/access/Ownable.sol\":2333:2457  {... */\n  pop\n    /* \"https://github.com/OpenZeppelin/openzeppelin-contracts/blob/master/contracts/access/Ownable.sol\":2270:2457  function _transferOwnership(address newOwner) internal virtual {... */\n  pop\n  jump\t// out\n    /* \"#utility.yul\":88:205   */\ntag_19:\n    /* \"#utility.yul\":197:198   */\n  0x00\n    /* \"#utility.yul\":194:195   */\n  dup1\n    /* \"#utility.yul\":187:199   */\n  revert\n    /* \"#utility.yul\":334:460   */\ntag_21:\n    /* \"#utility.yul\":371:378   */\n  0x00\n    /* \"#utility.yul\":411:453   */\n  0xffffffffffffffffffffffffffffffffffffffff\n    /* \"#utility.yul\":404:409   */\n  dup3\n    /* \"#utility.yul\":400:454   */\n  and\n    /* \"#utility.yul\":389:454   */\n  swap1\n  pop\n    /* \"#utility.yul\":334:460   */\n  swap2\n  swap1\n  pop\n  jump\t// out\n    /* \"#utility.yul\":466:562   */\ntag_22:\n    /* \"#utility.yul\":503:510   */\n  0x00\n    /* \"#utility.yul\":532:556   */\n  tag_35\n    /* \"#utility.yul\":550:555   */\n  dup3\n    /* \"#utility.yul\":532:556   */\n  tag_21\n  jump\t// in\ntag_35:\n    /* \"#utility.yul\":521:556   */\n  swap1\n  pop\n    /* \"#utility.yul\":466:562   */\n  swap2\n  swap1\n  pop\n  jump\t// out\n    /* \"#utility.yul\":568:676   */\ntag_23:\n    /* \"#utility.yul\":617:624   */\n  0x00\n    /* \"#utility.yul\":646:670   */\n  tag_37\n    /* \"#utility.yul\":664:669   */\n  dup3\n    /* \"#utility.yul\":646:670   */\n  tag_22\n  jump\t// in\ntag_37:\n    /* \"#utility.yul\":635:670   */\n  swap1\n  pop\n    /* \"#utility.yul\":568:676   */\n  swap2\n  swap1\n  pop\n  jump\t// out\n    /* \"#utility.yul\":682:828   */\ntag_24:\n    /* \"#utility.yul\":767:803   */\n  tag_39\n    /* \"#utility.yul\":797:802   */\n  dup2\n    /* \"#utility.yul\":767:803   */\n  tag_23\n  jump\t// in\ntag_39:\n    /* \"#utility.yul\":760:765   */\n  dup2\n    /* \"#utility.yul\":757:804   */\n  eq\n    /* \"#utility.yul\":747:822   */\n  tag_40\n  jumpi\n    /* \"#utility.yul\":818:819   */\n  0x00\n    /* \"#utility.yul\":815:816   */\n  dup1\n    /* \"#utility.yul\":808:820   */\n  revert\n    /* \"#utility.yul\":747:822   */\ntag_40:\n    /* \"#utility.yul\":682:828   */\n  pop\n  jump\t// out\n    /* \"#utility.yul\":834:1001   */\ntag_25:\n    /* \"#utility.yul\":903:908   */\n  0x00\n    /* \"#utility.yul\":934:940   */\n  dup2\n    /* \"#utility.yul\":928:941   */\n  mload\n    /* \"#utility.yul\":919:941   */\n  swap1\n  pop\n    /* \"#utility.yul\":950:995   */\n  tag_42\n    /* \"#utility.yul\":989:994   */\n  dup2\n    /* \"#utility.yul\":950:995   */\n  tag_24\n  jump\t// in\ntag_42:\n    /* \"#utility.yul\":834:1001   */\n  swap3\n  swap2\n  pop\n  pop\n  jump\t// out\n    /* \"#utility.yul\":1007:1382   */\ntag_3:\n    /* \"#utility.yul\":1089:1095   */\n  0x00\n    /* \"#utility.yul\":1138:1140   */\n  0x20\n    /* \"#utility.yul\":1126:1135   */\n  dup3\n    /* \"#utility.yul\":1117:1124   */\n  dup5\n    /* \"#utility.yul\":1113:1136   */\n  sub\n    /* \"#utility.yul\":1109:1141   */\n  slt\n    /* \"#utility.yul\":1106:1225   */\n  iszero\n  tag_44\n  jumpi\n    /* \"#utility.yul\":1144:1223   */\n  tag_45\n  tag_19\n  jump\t// in\ntag_45:\n    /* \"#utility.yul\":1106:1225   */\ntag_44:\n    /* \"#utility.yul\":1264:1265   */\n  0x00\n    /* \"#utility.yul\":1289:1365   */\n  tag_46\n    /* \"#utility.yul\":1357:1364   */\n  dup5\n    /* \"#utility.yul\":1348:1354   */\n  dup3\n    /* \"#utility.yul\":1337:1346   */\n  dup6\n    /* \"#utility.yul\":1333:1355   */\n  add\n    /* \"#utility.yul\":1289:1365   */\n  tag_25\n  jump\t// in\ntag_46:\n    /* \"#utility.yul\":1279:1365   */\n  swap2\n  pop\n    /* \"#utility.yul\":1235:1375   */\n  pop\n    /* \"#utility.yul\":1007:1382   */\n  swap3\n  swap2\n  pop\n  pop\n  jump\t// out\n    /* \"#utility.yul\":1388:1557   */\ntag_26:\n    /* \"#utility.yul\":1472:1483   */\n  0x00\n    /* \"#utility.yul\":1506:1512   */\n  dup3\n    /* \"#utility.yul\":1501:1504   */\n  dup3\n    /* \"#utility.yul\":1494:1513   */\n  mstore\n    /* \"#utility.yul\":1546:1550   */\n  0x20\n    /* \"#utility.yul\":1541:1544   */\n  dup3\n    /* \"#utility.yul\":1537:1551   */\n  add\n    /* \"#utility.yul\":1522:1551   */\n  swap1\n  pop\n    /* \"#utility.yul\":1388:1557   */\n  swap3\n  swap2\n  pop\n  pop\n  jump\t// out\n    /* \"#utility.yul\":1563:1785   */\ntag_27:\n    /* \"#utility.yul\":1703:1737   */\n  0x46726f6e7469657220746f6b656e2061646472657373206973206e6f74207661\n    /* \"#utility.yul\":1699:1700   */\n  0x00\n    /* \"#utility.yul\":1691:1697   */\n  dup3\n    /* \"#utility.yul\":1687:1701   */\n  add\n    /* \"#utility.yul\":1680:1738   */\n  mstore\n    /* \"#utility.yul\":1772:1777   */\n  0x6c69640000000000000000000000000000000000000000000000000000000000\n    /* \"#utility.yul\":1767:1769   */\n  0x20\n    /* \"#utility.yul\":1759:1765   */\n  dup3\n    /* \"#utility.yul\":1755:1770   */\n  add\n    /* \"#utility.yul\":1748:1778   */\n  mstore\n    /* \"#utility.yul\":1563:1785   */\n  pop\n  jump\t// out\n    /* \"#utility.yul\":1791:2157   */\ntag_28:\n    /* \"#utility.yul\":1933:1936   */\n  0x00\n    /* \"#utility.yul\":1954:2021   */\n  tag_50\n    /* \"#utility.yul\":2018:2020   */\n  0x23\n    /* \"#utility.yul\":2013:2016   */\n  dup4\n    /* \"#utility.yul\":1954:2021   */\n  tag_26\n  jump\t// in\ntag_50:\n    /* \"#utility.yul\":1947:2021   */\n  swap2\n  pop\n    /* \"#utility.yul\":2030:2123   */\n  tag_51\n    /* \"#utility.yul\":2119:2122   */\n  dup3\n    /* \"#utility.yul\":2030:2123   */\n  tag_27\n  jump\t// in\ntag_51:\n    /* \"#utility.yul\":2148:2150   */\n  0x40\n    /* \"#utility.yul\":2143:2146   */\n  dup3\n    /* \"#utility.yul\":2139:2151   */\n  add\n    /* \"#utility.yul\":2132:2151   */\n  swap1\n  pop\n    /* \"#utility.yul\":1791:2157   */\n  swap2\n  swap1\n  pop\n  jump\t// out\n    /* \"#utility.yul\":2163:2582   */\ntag_14:\n    /* \"#utility.yul\":2329:2333   */\n  0x00\n    /* \"#utility.yul\":2367:2369   */\n  0x20\n    /* \"#utility.yul\":2356:2365   */\n  dup3\n    /* \"#utility.yul\":2352:2370   */\n  add\n    /* \"#utility.yul\":2344:2370   */\n  swap1\n  pop\n    /* \"#utility.yul\":2416:2425   */\n  dup2\n    /* \"#utility.yul\":2410:2414   */\n  dup2\n    /* \"#utility.yul\":2406:2426   */\n  sub\n    /* \"#utility.yul\":2402:2403   */\n  0x00\n    /* \"#utility.yul\":2391:2400   */\n  dup4\n    /* \"#utility.yul\":2387:2404   */\n  add\n    /* \"#utility.yul\":2380:2427   */\n  mstore\n    /* \"#utility.yul\":2444:2575   */\n  tag_53\n    /* \"#utility.yul\":2570:2574   */\n  dup2\n    /* \"#utility.yul\":2444:2575   */\n  tag_28\n  jump\t// in\ntag_53:\n    /* \"#utility.yul\":2436:2575   */\n  swap1\n  pop\n    /* \"#utility.yul\":2163:2582   */\n  swap2\n  swap1\n  pop\n  jump\t// out\n    /* \"contracts/GoldVesting.sol\":299:4117  contract GoldTokenVesting is Ownable {... */\ntag_15:\n  dataSize(sub_0)\n  dup1\n  dataOffset(sub_0)\n  0x00\n  codecopy\n  0x00\n  return\nstop\n\nsub_0: assembly {\n        /* \"contracts/GoldVesting.sol\":299:4117  contract GoldTokenVesting is Ownable {... */\n      mstore(0x40, 0x80)\n      callvalue\n      dup1\n      iszero\n      tag_1\n      jumpi\n      0x00\n      dup1\n      revert\n    tag_1:\n      pop\n      jumpi(tag_2, lt(calldatasize, 0x04))\n      shr(0xe0, calldataload(0x00))\n      dup1\n      0x5daa3160\n      gt\n      tag_16\n      jumpi\n      dup1\n      0x821bee73\n      gt\n      tag_17\n      jumpi\n      dup1\n      0x821bee73\n      eq\n      tag_12\n      jumpi\n      dup1\n      0x8da5cb5b\n      eq\n      tag_13\n      jumpi\n      dup1\n      0xf2fde38b\n      eq\n      tag_14\n      jumpi\n      dup1\n      0xfc0c546a\n      eq\n      tag_15\n      jumpi\n      jump(tag_2)\n    tag_17:\n      dup1\n      0x5daa3160\n      eq\n      tag_9\n      jumpi\n      dup1\n      0x6eb48096\n      eq\n      tag_10\n      jumpi\n      dup1\n      0x715018a6\n      eq\n      tag_11\n      jumpi\n      jump(tag_2)\n    tag_16:\n      dup1\n      0x07ad23ef\n      eq\n      tag_3\n      jumpi\n      dup1\n      0x09c4bb2b\n      eq\n      tag_4\n      jumpi\n      dup1\n      0x1bcde4ec\n      eq\n      tag_5\n      jumpi\n      dup1\n      0x37bdc99b\n      eq\n      tag_6\n      jumpi\n      dup1\n      0x4691a998\n      eq\n      tag_7\n      jumpi\n      dup1\n      0x557ed1ba\n      eq\n      tag_8\n      jumpi\n    tag_2:\n      0x00\n      dup1\n      revert\n        /* \"contracts/GoldVesting.sol\":1857:1981  function vestingAmount(uint256 _vestingId) public view returns (uint256) {... */\n    tag_3:\n      tag_18\n      0x04\n      dup1\n      calldatasize\n      sub\n      dup2\n      add\n      swap1\n      tag_19\n      swap2\n      swap1\n      tag_20\n      jump\t// in\n    tag_19:\n      tag_21\n      jump\t// in\n    tag_18:\n      mload(0x40)\n      tag_22\n      swap2\n      swap1\n      tag_23\n      jump\t// in\n    tag_22:\n      mload(0x40)\n      dup1\n      swap2\n      sub\n      swap1\n      return\n        /* \"contracts/GoldVesting.sol\":1723:1850  function releaseTime(uint256 _vestingId) public view returns (uint256) {... */\n    tag_4:\n      tag_24\n      0x04\n      dup1\n      calldatasize\n      sub\n      dup2\n      add\n      swap1\n      tag_25\n      swap2\n      swap1\n      tag_20\n      jump\t// in\n    tag_25:\n      tag_26\n      jump\t// in\n    tag_24:\n      mload(0x40)\n      tag_27\n      swap2\n      swap1\n      tag_23\n      jump\t// in\n    tag_27:\n      mload(0x40)\n      dup1\n      swap2\n      sub\n      swap1\n      return\n        /* \"contracts/GoldVesting.sol\":1988:2421  function removeVesting(uint256 _vestingId) public onlyOwner {... */\n    tag_5:\n      tag_28\n      0x04\n      dup1\n      calldatasize\n      sub\n      dup2\n      add\n      swap1\n      tag_29\n      swap2\n      swap1\n      tag_20\n      jump\t// in\n    tag_29:\n      tag_30\n      jump\t// in\n    tag_28:\n      stop\n        /* \"contracts/GoldVesting.sol\":3089:3789  function release(uint256 _vestingId) public {... */\n    tag_6:\n      tag_31\n      0x04\n      dup1\n      calldatasize\n      sub\n      dup2\n      add\n      swap1\n      tag_32\n      swap2\n      swap1\n      tag_20\n      jump\t// in\n    tag_32:\n      tag_33\n      jump\t// in\n    tag_31:\n      stop\n        /* \"contracts/GoldVesting.sol\":2427:3078  function addVesting(address _beneficiary, uint256 _releaseTime, uint256 _amount) public onlyOwner {... */\n    tag_7:\n      tag_34\n      0x04\n      dup1\n      calldatasize\n      sub\n      dup2\n      add\n      swap1\n      tag_35\n      swap2\n      swap1\n      tag_36\n      jump\t// in\n    tag_35:\n      tag_37\n      jump\t// in\n    tag_34:\n      stop\n        /* \"contracts/GoldVesting.sol\":4027:4115  function getTime() public view returns (uint256) {... */\n    tag_8:\n      tag_38\n      tag_39\n      jump\t// in\n    tag_38:\n      mload(0x40)\n      tag_40\n      swap2\n      swap1\n      tag_23\n      jump\t// in\n    tag_40:\n      mload(0x40)\n      dup1\n      swap2\n      sub\n      swap1\n      return\n        /* \"contracts/GoldVesting.sol\":1589:1716  function beneficiary(uint256 _vestingId) public view returns (address) {... */\n    tag_9:\n      tag_41\n      0x04\n      dup1\n      calldatasize\n      sub\n      dup2\n      add\n      swap1\n      tag_42\n      swap2\n      swap1\n      tag_20\n      jump\t// in\n    tag_42:\n      tag_43\n      jump\t// in\n    tag_41:\n      mload(0x40)\n      tag_44\n      swap2\n      swap1\n      tag_45\n      jump\t// in\n    tag_44:\n      mload(0x40)\n      dup1\n      swap2\n      sub\n      swap1\n      return\n        /* \"contracts/GoldVesting.sol\":3800:4021  function retrieveExcessTokens(uint256 _amount) public onlyOwner {... */\n    tag_10:\n      tag_46\n      0x04\n      dup1\n      calldatasize\n      sub\n      dup2\n      add\n      swap1\n      tag_47\n      swap2\n      swap1\n      tag_20\n      jump\t// in\n    tag_47:\n      tag_48\n      jump\t// in\n    tag_46:\n      stop\n        /* \"https://github.com/OpenZeppelin/openzeppelin-contracts/blob/master/contracts/access/Ownable.sol\":1668:1769  function renounceOwnership() public virtual onlyOwner {... */\n    tag_11:\n      tag_49\n      tag_50\n      jump\t// in\n    tag_49:\n      stop\n        /* \"contracts/GoldVesting.sol\":991:1034  mapping(uint256 => Vesting) public vestings */\n    tag_12:\n      tag_51\n      0x04\n      dup1\n      calldatasize\n      sub\n      dup2\n      add\n      swap1\n      tag_52\n      swap2\n      swap1\n      tag_20\n      jump\t// in\n    tag_52:\n      tag_53\n      jump\t// in\n    tag_51:\n      mload(0x40)\n      tag_54\n      swap5\n      swap4\n      swap3\n      swap2\n      swap1\n      tag_55\n      jump\t// in\n    tag_54:\n      mload(0x40)\n      dup1\n      swap2\n      sub\n      swap1\n      return\n        /* \"https://github.com/OpenZeppelin/openzeppelin-contracts/blob/master/contracts/access/Ownable.sol\":1036:1121  function owner() public view virtual returns (address) {... */\n    tag_13:\n      tag_56\n      tag_57\n      jump\t// in\n    tag_56:\n      mload(0x40)\n      tag_58\n      swap2\n      swap1\n      tag_45\n      jump\t// in\n    tag_58:\n      mload(0x40)\n      dup1\n      swap2\n      sub\n      swap1\n      return\n        /* \"https://github.com/OpenZeppelin/openzeppelin-contracts/blob/master/contracts/access/Ownable.sol\":1918:2116  function transferOwnership(address newOwner) public virtual onlyOwner {... */\n    tag_14:\n      tag_59\n      0x04\n      dup1\n      calldatasize\n      sub\n      dup2\n      add\n      swap1\n      tag_60\n      swap2\n      swap1\n      tag_61\n      jump\t// in\n    tag_60:\n      tag_62\n      jump\t// in\n    tag_59:\n      stop\n        /* \"contracts/GoldVesting.sol\":1506:1583  function token() public view returns (Gold) {... */\n    tag_15:\n      tag_63\n      tag_64\n      jump\t// in\n    tag_63:\n      mload(0x40)\n      tag_65\n      swap2\n      swap1\n      tag_66\n      jump\t// in\n    tag_65:\n      mload(0x40)\n      dup1\n      swap2\n      sub\n      swap1\n      return\n        /* \"contracts/GoldVesting.sol\":1857:1981  function vestingAmount(uint256 _vestingId) public view returns (uint256) {... */\n    tag_21:\n        /* \"contracts/GoldVesting.sol\":1921:1928  uint256 */\n      0x00\n        /* \"contracts/GoldVesting.sol\":1947:1955  vestings */\n      0x04\n        /* \"contracts/GoldVesting.sol\":1947:1967  vestings[_vestingId] */\n      0x00\n        /* \"contracts/GoldVesting.sol\":1956:1966  _vestingId */\n      dup4\n        /* \"contracts/GoldVesting.sol\":1947:1967  vestings[_vestingId] */\n      dup2\n      mstore\n      0x20\n      add\n      swap1\n      dup2\n      mstore\n      0x20\n      add\n      0x00\n      keccak256\n        /* \"contracts/GoldVesting.sol\":1947:1974  vestings[_vestingId].amount */\n      0x01\n      add\n      sload\n        /* \"contracts/GoldVesting.sol\":1940:1974  return vestings[_vestingId].amount */\n      swap1\n      pop\n        /* \"contracts/GoldVesting.sol\":1857:1981  function vestingAmount(uint256 _vestingId) public view returns (uint256) {... */\n      swap2\n      swap1\n      pop\n      jump\t// out\n        /* \"contracts/GoldVesting.sol\":1723:1850  function releaseTime(uint256 _vestingId) public view returns (uint256) {... */\n    tag_26:\n        /* \"contracts/GoldVesting.sol\":1785:1792  uint256 */\n      0x00\n        /* \"contracts/GoldVesting.sol\":1811:1819  vestings */\n      0x04\n        /* \"contracts/GoldVesting.sol\":1811:1831  vestings[_vestingId] */\n      0x00\n        /* \"contracts/GoldVesting.sol\":1820:1830  _vestingId */\n      dup4\n        /* \"contracts/GoldVesting.sol\":1811:1831  vestings[_vestingId] */\n      dup2\n      mstore\n      0x20\n      add\n      swap1\n      dup2\n      mstore\n      0x20\n      add\n      0x00\n      keccak256\n        /* \"contracts/GoldVesting.sol\":1811:1843  vestings[_vestingId].releaseTime */\n      0x00\n      add\n      sload\n        /* \"contracts/GoldVesting.sol\":1804:1843  return vestings[_vestingId].releaseTime */\n      swap1\n      pop\n        /* \"contracts/GoldVesting.sol\":1723:1850  function releaseTime(uint256 _vestingId) public view returns (uint256) {... */\n      swap2\n      swap1\n      pop\n      jump\t// out\n        /* \"contracts/GoldVesting.sol\":1988:2421  function removeVesting(uint256 _vestingId) public onlyOwner {... */\n    tag_30:\n        /* \"https://github.com/OpenZeppelin/openzeppelin-contracts/blob/master/contracts/access/Ownable.sol\":1259:1271  _msgSender() */\n      tag_70\n        /* \"https://github.com/OpenZeppelin/openzeppelin-contracts/blob/master/contracts/access/Ownable.sol\":1259:1269  _msgSender */\n      tag_71\n        /* \"https://github.com/OpenZeppelin/openzeppelin-contracts/blob/master/contracts/access/Ownable.sol\":1259:1271  _msgSender() */\n      jump\t// in\n    tag_70:\n        /* \"https://github.com/OpenZeppelin/openzeppelin-contracts/blob/master/contracts/access/Ownable.sol\":1248:1271  owner() == _msgSender() */\n      0xffffffffffffffffffffffffffffffffffffffff\n      and\n        /* \"https://github.com/OpenZeppelin/openzeppelin-contracts/blob/master/contracts/access/Ownable.sol\":1248:1255  owner() */\n      tag_72\n        /* \"https://github.com/OpenZeppelin/openzeppelin-contracts/blob/master/contracts/access/Ownable.sol\":1248:1253  owner */\n      tag_57\n        /* \"https://github.com/OpenZeppelin/openzeppelin-contracts/blob/master/contracts/access/Ownable.sol\":1248:1255  owner() */\n      jump\t// in\n    tag_72:\n        /* \"https://github.com/OpenZeppelin/openzeppelin-contracts/blob/master/contracts/access/Ownable.sol\":1248:1271  owner() == _msgSender() */\n      0xffffffffffffffffffffffffffffffffffffffff\n      and\n      eq\n        /* \"https://github.com/OpenZeppelin/openzeppelin-contracts/blob/master/contracts/access/Ownable.sol\":1240:1308  require(owner() == _msgSender(), \"Ownable: caller is not the owner\") */\n      tag_73\n      jumpi\n      mload(0x40)\n      0x08c379a000000000000000000000000000000000000000000000000000000000\n      dup2\n      mstore\n      0x04\n      add\n      tag_74\n      swap1\n      tag_75\n      jump\t// in\n    tag_74:\n      mload(0x40)\n      dup1\n      swap2\n      sub\n      swap1\n      revert\n    tag_73:\n        /* \"contracts/GoldVesting.sol\":2058:2081  Vesting storage vesting */\n      0x00\n        /* \"contracts/GoldVesting.sol\":2084:2092  vestings */\n      0x04\n        /* \"contracts/GoldVesting.sol\":2084:2104  vestings[_vestingId] */\n      0x00\n        /* \"contracts/GoldVesting.sol\":2093:2103  _vestingId */\n      dup4\n        /* \"contracts/GoldVesting.sol\":2084:2104  vestings[_vestingId] */\n      dup2\n      mstore\n      0x20\n      add\n      swap1\n      dup2\n      mstore\n      0x20\n      add\n      0x00\n      keccak256\n        /* \"contracts/GoldVesting.sol\":2058:2104  Vesting storage vesting = vestings[_vestingId] */\n      swap1\n      pop\n        /* \"contracts/GoldVesting.sol\":2153:2156  0x0 */\n      0x00\n        /* \"contracts/GoldVesting.sol\":2122:2157  vesting.beneficiary != address(0x0) */\n      0xffffffffffffffffffffffffffffffffffffffff\n      and\n        /* \"contracts/GoldVesting.sol\":2122:2129  vesting */\n      dup2\n        /* \"contracts/GoldVesting.sol\":2122:2141  vesting.beneficiary */\n      0x02\n      add\n      0x00\n      swap1\n      sload\n      swap1\n      0x0100\n      exp\n      swap1\n      div\n      0xffffffffffffffffffffffffffffffffffffffff\n      and\n        /* \"contracts/GoldVesting.sol\":2122:2157  vesting.beneficiary != address(0x0) */\n      0xffffffffffffffffffffffffffffffffffffffff\n      and\n      eq\n      iszero\n        /* \"contracts/GoldVesting.sol\":2159:2177  INVALID_VESTING_ID */\n      mload(0x40)\n      dup1\n      0x40\n      add\n      0x40\n      mstore\n      dup1\n      0x12\n      dup2\n      mstore\n      0x20\n      add\n      0x496e76616c69642076657374696e672069640000000000000000000000000000\n      dup2\n      mstore\n      pop\n        /* \"contracts/GoldVesting.sol\":2114:2178  require(vesting.beneficiary != address(0x0), INVALID_VESTING_ID) */\n      swap1\n      tag_77\n      jumpi\n      mload(0x40)\n      0x08c379a000000000000000000000000000000000000000000000000000000000\n      dup2\n      mstore\n      0x04\n      add\n      tag_78\n      swap2\n      swap1\n      tag_79\n      jump\t// in\n    tag_78:\n      mload(0x40)\n      dup1\n      swap2\n      sub\n      swap1\n      revert\n    tag_77:\n      pop\n        /* \"contracts/GoldVesting.sol\":2197:2204  vesting */\n      dup1\n        /* \"contracts/GoldVesting.sol\":2197:2213  vesting.released */\n      0x02\n      add\n      0x14\n      swap1\n      sload\n      swap1\n      0x0100\n      exp\n      swap1\n      div\n      0xff\n      and\n        /* \"contracts/GoldVesting.sol\":2196:2213  !vesting.released */\n      iszero\n        /* \"contracts/GoldVesting.sol\":2216:2240  VESTING_ALREADY_RELEASED */\n      mload(0x40)\n      dup1\n      0x40\n      add\n      0x40\n      mstore\n      dup1\n      0x18\n      dup2\n      mstore\n      0x20\n      add\n      0x56657374696e6720616c72656164792072656c65617365640000000000000000\n      dup2\n      mstore\n      pop\n        /* \"contracts/GoldVesting.sol\":2188:2241  require(!vesting.released , VESTING_ALREADY_RELEASED) */\n      swap1\n      tag_80\n      jumpi\n      mload(0x40)\n      0x08c379a000000000000000000000000000000000000000000000000000000000\n      dup2\n      mstore\n      0x04\n      add\n      tag_81\n      swap2\n      swap1\n      tag_79\n      jump\t// in\n    tag_81:\n      mload(0x40)\n      dup1\n      swap2\n      sub\n      swap1\n      revert\n    tag_80:\n      pop\n        /* \"contracts/GoldVesting.sol\":2270:2274  true */\n      0x01\n        /* \"contracts/GoldVesting.sol\":2251:2258  vesting */\n      dup2\n        /* \"contracts/GoldVesting.sol\":2251:2267  vesting.released */\n      0x02\n      add\n      0x14\n        /* \"contracts/GoldVesting.sol\":2251:2274  vesting.released = true */\n      0x0100\n      exp\n      dup2\n      sload\n      dup2\n      0xff\n      mul\n      not\n      and\n      swap1\n      dup4\n      iszero\n      iszero\n      mul\n      or\n      swap1\n      sstore\n      pop\n        /* \"contracts/GoldVesting.sol\":2299:2331  tokensToVest.sub(vesting.amount) */\n      tag_82\n        /* \"contracts/GoldVesting.sol\":2316:2323  vesting */\n      dup2\n        /* \"contracts/GoldVesting.sol\":2316:2330  vesting.amount */\n      0x01\n      add\n      sload\n        /* \"contracts/GoldVesting.sol\":2299:2311  tokensToVest */\n      sload(0x02)\n        /* \"contracts/GoldVesting.sol\":2299:2315  tokensToVest.sub */\n      tag_83\n      swap1\n        /* \"contracts/GoldVesting.sol\":2299:2331  tokensToVest.sub(vesting.amount) */\n      swap2\n      swap1\n      0xffffffff\n      and\n      jump\t// in\n    tag_82:\n        /* \"contracts/GoldVesting.sol\":2284:2296  tokensToVest */\n      0x02\n        /* \"contracts/GoldVesting.sol\":2284:2331  tokensToVest = tokensToVest.sub(vesting.amount) */\n      dup2\n      swap1\n      sstore\n      pop\n        /* \"contracts/GoldVesting.sol\":2378:2385  vesting */\n      dup1\n        /* \"contracts/GoldVesting.sol\":2378:2397  vesting.beneficiary */\n      0x02\n      add\n      0x00\n      swap1\n      sload\n      swap1\n      0x0100\n      exp\n      swap1\n      div\n      0xffffffffffffffffffffffffffffffffffffffff\n      and\n        /* \"contracts/GoldVesting.sol\":2346:2414  TokenVestingRemoved(_vestingId, vesting.beneficiary, vesting.amount) */\n      0xffffffffffffffffffffffffffffffffffffffff\n      and\n        /* \"contracts/GoldVesting.sol\":2366:2376  _vestingId */\n      dup3\n        /* \"contracts/GoldVesting.sol\":2346:2414  TokenVestingRemoved(_vestingId, vesting.beneficiary, vesting.amount) */\n      0xdc8b9c8cc0c8d05e10824e69ee88995716a539af94a1c60fb9898367f613477c\n        /* \"contracts/GoldVesting.sol\":2399:2406  vesting */\n      dup4\n        /* \"contracts/GoldVesting.sol\":2399:2413  vesting.amount */\n      0x01\n      add\n      sload\n        /* \"contracts/GoldVesting.sol\":2346:2414  TokenVestingRemoved(_vestingId, vesting.beneficiary, vesting.amount) */\n      mload(0x40)\n      tag_84\n      swap2\n      swap1\n      tag_23\n      jump\t// in\n    tag_84:\n      mload(0x40)\n      dup1\n      swap2\n      sub\n      swap1\n      log3\n        /* \"contracts/GoldVesting.sol\":2048:2421  {... */\n      pop\n        /* \"contracts/GoldVesting.sol\":1988:2421  function removeVesting(uint256 _vestingId) public onlyOwner {... */\n      pop\n      jump\t// out\n        /* \"contracts/GoldVesting.sol\":3089:3789  function release(uint256 _vestingId) public {... */\n    tag_33:\n        /* \"contracts/GoldVesting.sol\":3143:3166  Vesting storage vesting */\n      0x00\n        /* \"contracts/GoldVesting.sol\":3169:3177  vestings */\n      0x04\n        /* \"contracts/GoldVesting.sol\":3169:3189  vestings[_vestingId] */\n      0x00\n        /* \"contracts/GoldVesting.sol\":3178:3188  _vestingId */\n      dup4\n        /* \"contracts/GoldVesting.sol\":3169:3189  vestings[_vestingId] */\n      dup2\n      mstore\n      0x20\n      add\n      swap1\n      dup2\n      mstore\n      0x20\n      add\n      0x00\n      keccak256\n        /* \"contracts/GoldVesting.sol\":3143:3189  Vesting storage vesting = vestings[_vestingId] */\n      swap1\n      pop\n        /* \"contracts/GoldVesting.sol\":3238:3241  0x0 */\n      0x00\n        /* \"contracts/GoldVesting.sol\":3207:3242  vesting.beneficiary != address(0x0) */\n      0xffffffffffffffffffffffffffffffffffffffff\n      and\n        /* \"contracts/GoldVesting.sol\":3207:3214  vesting */\n      dup2\n        /* \"contracts/GoldVesting.sol\":3207:3226  vesting.beneficiary */\n      0x02\n      add\n      0x00\n      swap1\n      sload\n      swap1\n      0x0100\n      exp\n      swap1\n      div\n      0xffffffffffffffffffffffffffffffffffffffff\n      and\n        /* \"contracts/GoldVesting.sol\":3207:3242  vesting.beneficiary != address(0x0) */\n      0xffffffffffffffffffffffffffffffffffffffff\n      and\n      eq\n      iszero\n        /* \"contracts/GoldVesting.sol\":3244:3262  INVALID_VESTING_ID */\n      mload(0x40)\n      dup1\n      0x40\n      add\n      0x40\n      mstore\n      dup1\n      0x12\n      dup2\n      mstore\n      0x20\n      add\n      0x496e76616c69642076657374696e672069640000000000000000000000000000\n      dup2\n      mstore\n      pop\n        /* \"contracts/GoldVesting.sol\":3199:3263  require(vesting.beneficiary != address(0x0), INVALID_VESTING_ID) */\n      swap1\n      tag_86\n      jumpi\n      mload(0x40)\n      0x08c379a000000000000000000000000000000000000000000000000000000000\n      dup2\n      mstore\n      0x04\n      add\n      tag_87\n      swap2\n      swap1\n      tag_79\n      jump\t// in\n    tag_87:\n      mload(0x40)\n      dup1\n      swap2\n      sub\n      swap1\n      revert\n    tag_86:\n      pop\n        /* \"contracts/GoldVesting.sol\":3282:3289  vesting */\n      dup1\n        /* \"contracts/GoldVesting.sol\":3282:3298  vesting.released */\n      0x02\n      add\n      0x14\n      swap1\n      sload\n      swap1\n      0x0100\n      exp\n      swap1\n      div\n      0xff\n      and\n        /* \"contracts/GoldVesting.sol\":3281:3298  !vesting.released */\n      iszero\n        /* \"contracts/GoldVesting.sol\":3301:3325  VESTING_ALREADY_RELEASED */\n      mload(0x40)\n      dup1\n      0x40\n      add\n      0x40\n      mstore\n      dup1\n      0x18\n      dup2\n      mstore\n      0x20\n      add\n      0x56657374696e6720616c72656164792072656c65617365640000000000000000\n      dup2\n      mstore\n      pop\n        /* \"contracts/GoldVesting.sol\":3273:3326  require(!vesting.released , VESTING_ALREADY_RELEASED) */\n      swap1\n      tag_88\n      jumpi\n      mload(0x40)\n      0x08c379a000000000000000000000000000000000000000000000000000000000\n      dup2\n      mstore\n      0x04\n      add\n      tag_89\n      swap2\n      swap1\n      tag_79\n      jump\t// in\n    tag_89:\n      mload(0x40)\n      dup1\n      swap2\n      sub\n      swap1\n      revert\n    tag_88:\n      pop\n        /* \"contracts/GoldVesting.sol\":3417:3424  vesting */\n      dup1\n        /* \"contracts/GoldVesting.sol\":3417:3436  vesting.releaseTime */\n      0x00\n      add\n      sload\n        /* \"contracts/GoldVesting.sol\":3398:3413  block.timestamp */\n      timestamp\n        /* \"contracts/GoldVesting.sol\":3398:3436  block.timestamp >= vesting.releaseTime */\n      lt\n      iszero\n        /* \"contracts/GoldVesting.sol\":3438:3448  NOT_VESTED */\n      mload(0x40)\n      dup1\n      0x40\n      add\n      0x40\n      mstore\n      dup1\n      0x1a\n      dup2\n      mstore\n      0x20\n      add\n      0x546f6b656e732068617665206e6f742076657374656420796574000000000000\n      dup2\n      mstore\n      pop\n        /* \"contracts/GoldVesting.sol\":3390:3449  require(block.timestamp >= vesting.releaseTime, NOT_VESTED) */\n      swap1\n      tag_90\n      jumpi\n      mload(0x40)\n      0x08c379a000000000000000000000000000000000000000000000000000000000\n      dup2\n      mstore\n      0x04\n      add\n      tag_91\n      swap2\n      swap1\n      tag_79\n      jump\t// in\n    tag_91:\n      mload(0x40)\n      dup1\n      swap2\n      sub\n      swap1\n      revert\n    tag_90:\n      pop\n        /* \"contracts/GoldVesting.sol\":3506:3513  vesting */\n      dup1\n        /* \"contracts/GoldVesting.sol\":3506:3520  vesting.amount */\n      0x01\n      add\n      sload\n        /* \"contracts/GoldVesting.sol\":3468:3477  goldToken */\n      0x01\n      0x00\n      swap1\n      sload\n      swap1\n      0x0100\n      exp\n      swap1\n      div\n      0xffffffffffffffffffffffffffffffffffffffff\n      and\n        /* \"contracts/GoldVesting.sol\":3468:3487  goldToken.balanceOf */\n      0xffffffffffffffffffffffffffffffffffffffff\n      and\n      0x70a08231\n        /* \"contracts/GoldVesting.sol\":3496:3500  this */\n      address\n        /* \"contracts/GoldVesting.sol\":3468:3502  goldToken.balanceOf(address(this)) */\n      mload(0x40)\n      dup3\n      0xffffffff\n      and\n      0xe0\n      shl\n      dup2\n      mstore\n      0x04\n      add\n      tag_92\n      swap2\n      swap1\n      tag_45\n      jump\t// in\n    tag_92:\n      0x20\n      mload(0x40)\n      dup1\n      dup4\n      sub\n      dup2\n      dup7\n      gas\n      staticcall\n      iszero\n      dup1\n      iszero\n      tag_94\n      jumpi\n      returndatasize\n      0x00\n      dup1\n      returndatacopy\n      revert(0x00, returndatasize)\n    tag_94:\n      pop\n      pop\n      pop\n      pop\n      mload(0x40)\n      returndatasize\n      not(0x1f)\n      0x1f\n      dup3\n      add\n      and\n      dup3\n      add\n      dup1\n      0x40\n      mstore\n      pop\n      dup2\n      add\n      swap1\n      tag_95\n      swap2\n      swap1\n      tag_96\n      jump\t// in\n    tag_95:\n        /* \"contracts/GoldVesting.sol\":3468:3520  goldToken.balanceOf(address(this)) >= vesting.amount */\n      lt\n      iszero\n        /* \"contracts/GoldVesting.sol\":3522:3542  INSUFFICIENT_BALANCE */\n      mload(0x40)\n      dup1\n      0x40\n      add\n      0x40\n      mstore\n      dup1\n      0x14\n      dup2\n      mstore\n      0x20\n      add\n      0x496e73756666696369656e742062616c616e6365000000000000000000000000\n      dup2\n      mstore\n      pop\n        /* \"contracts/GoldVesting.sol\":3460:3543  require(goldToken.balanceOf(address(this)) >= vesting.amount, INSUFFICIENT_BALANCE) */\n      swap1\n      tag_97\n      jumpi\n      mload(0x40)\n      0x08c379a000000000000000000000000000000000000000000000000000000000\n      dup2\n      mstore\n      0x04\n      add\n      tag_98\n      swap2\n      swap1\n      tag_79\n      jump\t// in\n    tag_98:\n      mload(0x40)\n      dup1\n      swap2\n      sub\n      swap1\n      revert\n    tag_97:\n      pop\n        /* \"contracts/GoldVesting.sol\":3572:3576  true */\n      0x01\n        /* \"contracts/GoldVesting.sol\":3553:3560  vesting */\n      dup2\n        /* \"contracts/GoldVesting.sol\":3553:3569  vesting.released */\n      0x02\n      add\n      0x14\n        /* \"contracts/GoldVesting.sol\":3553:3576  vesting.released = true */\n      0x0100\n      exp\n      dup2\n      sload\n      dup2\n      0xff\n      mul\n      not\n      and\n      swap1\n      dup4\n      iszero\n      iszero\n      mul\n      or\n      swap1\n      sstore\n      pop\n        /* \"contracts/GoldVesting.sol\":3601:3633  tokensToVest.sub(vesting.amount) */\n      tag_99\n        /* \"contracts/GoldVesting.sol\":3618:3625  vesting */\n      dup2\n        /* \"contracts/GoldVesting.sol\":3618:3632  vesting.amount */\n      0x01\n      add\n      sload\n        /* \"contracts/GoldVesting.sol\":3601:3613  tokensToVest */\n      sload(0x02)\n        /* \"contracts/GoldVesting.sol\":3601:3617  tokensToVest.sub */\n      tag_83\n      swap1\n        /* \"contracts/GoldVesting.sol\":3601:3633  tokensToVest.sub(vesting.amount) */\n      swap2\n      swap1\n      0xffffffff\n      and\n      jump\t// in\n    tag_99:\n        /* \"contracts/GoldVesting.sol\":3586:3598  tokensToVest */\n      0x02\n        /* \"contracts/GoldVesting.sol\":3586:3633  tokensToVest = tokensToVest.sub(vesting.amount) */\n      dup2\n      swap1\n      sstore\n      pop\n        /* \"contracts/GoldVesting.sol\":3643:3652  goldToken */\n      0x01\n      0x00\n      swap1\n      sload\n      swap1\n      0x0100\n      exp\n      swap1\n      div\n      0xffffffffffffffffffffffffffffffffffffffff\n      and\n        /* \"contracts/GoldVesting.sol\":3643:3661  goldToken.transfer */\n      0xffffffffffffffffffffffffffffffffffffffff\n      and\n      0xa9059cbb\n        /* \"contracts/GoldVesting.sol\":3662:3669  vesting */\n      dup3\n        /* \"contracts/GoldVesting.sol\":3662:3681  vesting.beneficiary */\n      0x02\n      add\n      0x00\n      swap1\n      sload\n      swap1\n      0x0100\n      exp\n      swap1\n      div\n      0xffffffffffffffffffffffffffffffffffffffff\n      and\n        /* \"contracts/GoldVesting.sol\":3683:3690  vesting */\n      dup4\n        /* \"contracts/GoldVesting.sol\":3683:3697  vesting.amount */\n      0x01\n      add\n      sload\n        /* \"contracts/GoldVesting.sol\":3643:3698  goldToken.transfer(vesting.beneficiary, vesting.amount) */\n      mload(0x40)\n      dup4\n      0xffffffff\n      and\n      0xe0\n      shl\n      dup2\n      mstore\n      0x04\n      add\n      tag_100\n      swap3\n      swap2\n      swap1\n      tag_101\n      jump\t// in\n    tag_100:\n      0x20\n      mload(0x40)\n      dup1\n      dup4\n      sub\n      dup2\n      0x00\n      dup8\n      gas\n      call\n      iszero\n      dup1\n      iszero\n      tag_103\n      jumpi\n      returndatasize\n      0x00\n      dup1\n      returndatacopy\n      revert(0x00, returndatasize)\n    tag_103:\n      pop\n      pop\n      pop\n      pop\n      mload(0x40)\n      returndatasize\n      not(0x1f)\n      0x1f\n      dup3\n      add\n      and\n      dup3\n      add\n      dup1\n      0x40\n      mstore\n      pop\n      dup2\n      add\n      swap1\n      tag_104\n      swap2\n      swap1\n      tag_105\n      jump\t// in\n    tag_104:\n      pop\n        /* \"contracts/GoldVesting.sol\":3746:3753  vesting */\n      dup1\n        /* \"contracts/GoldVesting.sol\":3746:3765  vesting.beneficiary */\n      0x02\n      add\n      0x00\n      swap1\n      sload\n      swap1\n      0x0100\n      exp\n      swap1\n      div\n      0xffffffffffffffffffffffffffffffffffffffff\n      and\n        /* \"contracts/GoldVesting.sol\":3713:3782  TokenVestingReleased(_vestingId, vesting.beneficiary, vesting.amount) */\n      0xffffffffffffffffffffffffffffffffffffffff\n      and\n        /* \"contracts/GoldVesting.sol\":3734:3744  _vestingId */\n      dup3\n        /* \"contracts/GoldVesting.sol\":3713:3782  TokenVestingReleased(_vestingId, vesting.beneficiary, vesting.amount) */\n      0x295ac83a3c5cf518a125ba974be97dca6a668bae6dd90b6902b2618cdff1fcc6\n        /* \"contracts/GoldVesting.sol\":3767:3774  vesting */\n      dup4\n        /* \"contracts/GoldVesting.sol\":3767:3781  vesting.amount */\n      0x01\n      add\n      sload\n        /* \"contracts/GoldVesting.sol\":3713:3782  TokenVestingReleased(_vestingId, vesting.beneficiary, vesting.amount) */\n      mload(0x40)\n      tag_106\n      swap2\n      swap1\n      tag_23\n      jump\t// in\n    tag_106:\n      mload(0x40)\n      dup1\n      swap2\n      sub\n      swap1\n      log3\n        /* \"contracts/GoldVesting.sol\":3133:3789  {... */\n      pop\n        /* \"contracts/GoldVesting.sol\":3089:3789  function release(uint256 _vestingId) public {... */\n      pop\n      jump\t// out\n        /* \"contracts/GoldVesting.sol\":2427:3078  function addVesting(address _beneficiary, uint256 _releaseTime, uint256 _amount) public onlyOwner {... */\n    tag_37:\n        /* \"https://github.com/OpenZeppelin/openzeppelin-contracts/blob/master/contracts/access/Ownable.sol\":1259:1271  _msgSender() */\n      tag_108\n        /* \"https://github.com/OpenZeppelin/openzeppelin-contracts/blob/master/contracts/access/Ownable.sol\":1259:1269  _msgSender */\n      tag_71\n        /* \"https://github.com/OpenZeppelin/openzeppelin-contracts/blob/master/contracts/access/Ownable.sol\":1259:1271  _msgSender() */\n      jump\t// in\n    tag_108:\n        /* \"https://github.com/OpenZeppelin/openzeppelin-contracts/blob/master/contracts/access/Ownable.sol\":1248:1271  owner() == _msgSender() */\n      0xffffffffffffffffffffffffffffffffffffffff\n      and\n        /* \"https://github.com/OpenZeppelin/openzeppelin-contracts/blob/master/contracts/access/Ownable.sol\":1248:1255  owner() */\n      tag_109\n        /* \"https://github.com/OpenZeppelin/openzeppelin-contracts/blob/master/contracts/access/Ownable.sol\":1248:1253  owner */\n      tag_57\n        /* \"https://github.com/OpenZeppelin/openzeppelin-contracts/blob/master/contracts/access/Ownable.sol\":1248:1255  owner() */\n      jump\t// in\n    tag_109:\n        /* \"https://github.com/OpenZeppelin/openzeppelin-contracts/blob/master/contracts/access/Ownable.sol\":1248:1271  owner() == _msgSender() */\n      0xffffffffffffffffffffffffffffffffffffffff\n      and\n      eq\n        /* \"https://github.com/OpenZeppelin/openzeppelin-contracts/blob/master/contracts/access/Ownable.sol\":1240:1308  require(owner() == _msgSender(), \"Ownable: caller is not the owner\") */\n      tag_110\n      jumpi\n      mload(0x40)\n      0x08c379a000000000000000000000000000000000000000000000000000000000\n      dup2\n      mstore\n      0x04\n      add\n      tag_111\n      swap1\n      tag_75\n      jump\t// in\n    tag_111:\n      mload(0x40)\n      dup1\n      swap2\n      sub\n      swap1\n      revert\n    tag_110:\n        /* \"contracts/GoldVesting.sol\":2567:2570  0x0 */\n      0x00\n        /* \"contracts/GoldVesting.sol\":2543:2571  _beneficiary != address(0x0) */\n      0xffffffffffffffffffffffffffffffffffffffff\n      and\n        /* \"contracts/GoldVesting.sol\":2543:2555  _beneficiary */\n      dup4\n        /* \"contracts/GoldVesting.sol\":2543:2571  _beneficiary != address(0x0) */\n      0xffffffffffffffffffffffffffffffffffffffff\n      and\n      eq\n      iszero\n        /* \"contracts/GoldVesting.sol\":2573:2592  INVALID_BENEFICIARY */\n      mload(0x40)\n      dup1\n      0x40\n      add\n      0x40\n      mstore\n      dup1\n      0x1b\n      dup2\n      mstore\n      0x20\n      add\n      0x496e76616c69642062656e656669636961727920616464726573730000000000\n      dup2\n      mstore\n      pop\n        /* \"contracts/GoldVesting.sol\":2535:2593  require(_beneficiary != address(0x0), INVALID_BENEFICIARY) */\n      swap1\n      tag_113\n      jumpi\n      mload(0x40)\n      0x08c379a000000000000000000000000000000000000000000000000000000000\n      dup2\n      mstore\n      0x04\n      add\n      tag_114\n      swap2\n      swap1\n      tag_79\n      jump\t// in\n    tag_114:\n      mload(0x40)\n      dup1\n      swap2\n      sub\n      swap1\n      revert\n    tag_113:\n      pop\n        /* \"contracts/GoldVesting.sol\":2626:2641  block.timestamp */\n      timestamp\n        /* \"contracts/GoldVesting.sol\":2611:2623  _releaseTime */\n      dup3\n        /* \"contracts/GoldVesting.sol\":2611:2641  _releaseTime > block.timestamp */\n      gt\n        /* \"contracts/GoldVesting.sol\":2603:2666  require(_releaseTime > block.timestamp, \"Invalid release time\") */\n      tag_115\n      jumpi\n      mload(0x40)\n      0x08c379a000000000000000000000000000000000000000000000000000000000\n      dup2\n      mstore\n      0x04\n      add\n      tag_116\n      swap1\n      tag_117\n      jump\t// in\n    tag_116:\n      mload(0x40)\n      dup1\n      swap2\n      sub\n      swap1\n      revert\n    tag_115:\n        /* \"contracts/GoldVesting.sol\":2695:2696  0 */\n      0x00\n        /* \"contracts/GoldVesting.sol\":2684:2691  _amount */\n      dup2\n        /* \"contracts/GoldVesting.sol\":2684:2696  _amount != 0 */\n      sub\n        /* \"contracts/GoldVesting.sol\":2676:2730  require(_amount != 0, \"Amount must be greater then 0\") */\n      tag_118\n      jumpi\n      mload(0x40)\n      0x08c379a000000000000000000000000000000000000000000000000000000000\n      dup2\n      mstore\n      0x04\n      add\n      tag_119\n      swap1\n      tag_120\n      jump\t// in\n    tag_119:\n      mload(0x40)\n      dup1\n      swap2\n      sub\n      swap1\n      revert\n    tag_118:\n        /* \"contracts/GoldVesting.sol\":2755:2780  tokensToVest.add(_amount) */\n      tag_121\n        /* \"contracts/GoldVesting.sol\":2772:2779  _amount */\n      dup2\n        /* \"contracts/GoldVesting.sol\":2755:2767  tokensToVest */\n      sload(0x02)\n        /* \"contracts/GoldVesting.sol\":2755:2771  tokensToVest.add */\n      tag_122\n      swap1\n        /* \"contracts/GoldVesting.sol\":2755:2780  tokensToVest.add(_amount) */\n      swap2\n      swap1\n      0xffffffff\n      and\n      jump\t// in\n    tag_121:\n        /* \"contracts/GoldVesting.sol\":2740:2752  tokensToVest */\n      0x02\n        /* \"contracts/GoldVesting.sol\":2740:2780  tokensToVest = tokensToVest.add(_amount) */\n      dup2\n      swap1\n      sstore\n      pop\n        /* \"contracts/GoldVesting.sol\":2802:2818  vestingId.add(1) */\n      tag_123\n        /* \"contracts/GoldVesting.sol\":2816:2817  1 */\n      0x01\n        /* \"contracts/GoldVesting.sol\":2802:2811  vestingId */\n      sload(0x03)\n        /* \"contracts/GoldVesting.sol\":2802:2815  vestingId.add */\n      tag_122\n      swap1\n        /* \"contracts/GoldVesting.sol\":2802:2818  vestingId.add(1) */\n      swap2\n      swap1\n      0xffffffff\n      and\n      jump\t// in\n    tag_123:\n        /* \"contracts/GoldVesting.sol\":2790:2799  vestingId */\n      0x03\n        /* \"contracts/GoldVesting.sol\":2790:2818  vestingId = vestingId.add(1) */\n      dup2\n      swap1\n      sstore\n      pop\n        /* \"contracts/GoldVesting.sol\":2850:3005  Vesting({... */\n      mload(0x40)\n      dup1\n      0x80\n      add\n      0x40\n      mstore\n      dup1\n        /* \"contracts/GoldVesting.sol\":2924:2936  _releaseTime */\n      dup4\n        /* \"contracts/GoldVesting.sol\":2850:3005  Vesting({... */\n      dup2\n      mstore\n      0x20\n      add\n        /* \"contracts/GoldVesting.sol\":2958:2965  _amount */\n      dup3\n        /* \"contracts/GoldVesting.sol\":2850:3005  Vesting({... */\n      dup2\n      mstore\n      0x20\n      add\n        /* \"contracts/GoldVesting.sol\":2885:2897  _beneficiary */\n      dup5\n        /* \"contracts/GoldVesting.sol\":2850:3005  Vesting({... */\n      0xffffffffffffffffffffffffffffffffffffffff\n      and\n      dup2\n      mstore\n      0x20\n      add\n        /* \"contracts/GoldVesting.sol\":2989:2994  false */\n      0x00\n        /* \"contracts/GoldVesting.sol\":2850:3005  Vesting({... */\n      iszero\n      iszero\n      dup2\n      mstore\n      pop\n        /* \"contracts/GoldVesting.sol\":2828:2836  vestings */\n      0x04\n        /* \"contracts/GoldVesting.sol\":2828:2847  vestings[vestingId] */\n      0x00\n        /* \"contracts/GoldVesting.sol\":2837:2846  vestingId */\n      sload(0x03)\n        /* \"contracts/GoldVesting.sol\":2828:2847  vestings[vestingId] */\n      dup2\n      mstore\n      0x20\n      add\n      swap1\n      dup2\n      mstore\n      0x20\n      add\n      0x00\n      keccak256\n        /* \"contracts/GoldVesting.sol\":2828:3005  vestings[vestingId] = Vesting({... */\n      0x00\n      dup3\n      add\n      mload\n      dup2\n      0x00\n      add\n      sstore\n      0x20\n      dup3\n      add\n      mload\n      dup2\n      0x01\n      add\n      sstore\n      0x40\n      dup3\n      add\n      mload\n      dup2\n      0x02\n      add\n      exp(0x0100, 0x00)\n      dup2\n      sload\n      dup2\n      0xffffffffffffffffffffffffffffffffffffffff\n      mul\n      not\n      and\n      swap1\n      dup4\n      0xffffffffffffffffffffffffffffffffffffffff\n      and\n      mul\n      or\n      swap1\n      sstore\n      pop\n      0x60\n      dup3\n      add\n      mload\n      dup2\n      0x02\n      add\n      exp(0x0100, 0x14)\n      dup2\n      sload\n      dup2\n      0xff\n      mul\n      not\n      and\n      swap1\n      dup4\n      iszero\n      iszero\n      mul\n      or\n      swap1\n      sstore\n      pop\n      swap1\n      pop\n      pop\n        /* \"contracts/GoldVesting.sol\":3049:3061  _beneficiary */\n      dup3\n        /* \"contracts/GoldVesting.sol\":3020:3071  TokenVestingAdded(vestingId, _beneficiary, _amount) */\n      0xffffffffffffffffffffffffffffffffffffffff\n      and\n        /* \"contracts/GoldVesting.sol\":3038:3047  vestingId */\n      sload(0x03)\n        /* \"contracts/GoldVesting.sol\":3020:3071  TokenVestingAdded(vestingId, _beneficiary, _amount) */\n      0xfbd41c6118c5ed14f196c270a1793d95e8517e43031d9bb61aa71cb2a38bf557\n        /* \"contracts/GoldVesting.sol\":3063:3070  _amount */\n      dup4\n        /* \"contracts/GoldVesting.sol\":3020:3071  TokenVestingAdded(vestingId, _beneficiary, _amount) */\n      mload(0x40)\n      tag_124\n      swap2\n      swap1\n      tag_23\n      jump\t// in\n    tag_124:\n      mload(0x40)\n      dup1\n      swap2\n      sub\n      swap1\n      log3\n        /* \"contracts/GoldVesting.sol\":2427:3078  function addVesting(address _beneficiary, uint256 _releaseTime, uint256 _amount) public onlyOwner {... */\n      pop\n      pop\n      pop\n      jump\t// out\n        /* \"contracts/GoldVesting.sol\":4027:4115  function getTime() public view returns (uint256) {... */\n    tag_39:\n        /* \"contracts/GoldVesting.sol\":4067:4074  uint256 */\n      0x00\n        /* \"contracts/GoldVesting.sol\":4093:4108  block.timestamp */\n      timestamp\n        /* \"contracts/GoldVesting.sol\":4086:4108  return block.timestamp */\n      swap1\n      pop\n        /* \"contracts/GoldVesting.sol\":4027:4115  function getTime() public view returns (uint256) {... */\n      swap1\n      jump\t// out\n        /* \"contracts/GoldVesting.sol\":1589:1716  function beneficiary(uint256 _vestingId) public view returns (address) {... */\n    tag_43:\n        /* \"contracts/GoldVesting.sol\":1651:1658  address */\n      0x00\n        /* \"contracts/GoldVesting.sol\":1677:1685  vestings */\n      0x04\n        /* \"contracts/GoldVesting.sol\":1677:1697  vestings[_vestingId] */\n      0x00\n        /* \"contracts/GoldVesting.sol\":1686:1696  _vestingId */\n      dup4\n        /* \"contracts/GoldVesting.sol\":1677:1697  vestings[_vestingId] */\n      dup2\n      mstore\n      0x20\n      add\n      swap1\n      dup2\n      mstore\n      0x20\n      add\n      0x00\n      keccak256\n        /* \"contracts/GoldVesting.sol\":1677:1709  vestings[_vestingId].beneficiary */\n      0x02\n      add\n      0x00\n      swap1\n      sload\n      swap1\n      0x0100\n      exp\n      swap1\n      div\n      0xffffffffffffffffffffffffffffffffffffffff\n      and\n        /* \"contracts/GoldVesting.sol\":1670:1709  return vestings[_vestingId].beneficiary */\n      swap1\n      pop\n        /* \"contracts/GoldVesting.sol\":1589:1716  function beneficiary(uint256 _vestingId) public view returns (address) {... */\n      swap2\n      swap1\n      pop\n      jump\t// out\n        /* \"contracts/GoldVesting.sol\":3800:4021  function retrieveExcessTokens(uint256 _amount) public onlyOwner {... */\n    tag_48:\n        /* \"https://github.com/OpenZeppelin/openzeppelin-contracts/blob/master/contracts/access/Ownable.sol\":1259:1271  _msgSender() */\n      tag_128\n        /* \"https://github.com/OpenZeppelin/openzeppelin-contracts/blob/master/contracts/access/Ownable.sol\":1259:1269  _msgSender */\n      tag_71\n        /* \"https://github.com/OpenZeppelin/openzeppelin-contracts/blob/master/contracts/access/Ownable.sol\":1259:1271  _msgSender() */\n      jump\t// in\n    tag_128:\n        /* \"https://github.com/OpenZeppelin/openzeppelin-contracts/blob/master/contracts/access/Ownable.sol\":1248:1271  owner() == _msgSender() */\n      0xffffffffffffffffffffffffffffffffffffffff\n      and\n        /* \"https://github.com/OpenZeppelin/openzeppelin-contracts/blob/master/contracts/access/Ownable.sol\":1248:1255  owner() */\n      tag_129\n        /* \"https://github.com/OpenZeppelin/openzeppelin-contracts/blob/master/contracts/access/Ownable.sol\":1248:1253  owner */\n      tag_57\n        /* \"https://github.com/OpenZeppelin/openzeppelin-contracts/blob/master/contracts/access/Ownable.sol\":1248:1255  owner() */\n      jump\t// in\n    tag_129:\n        /* \"https://github.com/OpenZeppelin/openzeppelin-contracts/blob/master/contracts/access/Ownable.sol\":1248:1271  owner() == _msgSender() */\n      0xffffffffffffffffffffffffffffffffffffffff\n      and\n      eq\n        /* \"https://github.com/OpenZeppelin/openzeppelin-contracts/blob/master/contracts/access/Ownable.sol\":1240:1308  require(owner() == _msgSender(), \"Ownable: caller is not the owner\") */\n      tag_130\n      jumpi\n      mload(0x40)\n      0x08c379a000000000000000000000000000000000000000000000000000000000\n      dup2\n      mstore\n      0x04\n      add\n      tag_131\n      swap1\n      tag_75\n      jump\t// in\n    tag_131:\n      mload(0x40)\n      dup1\n      swap2\n      sub\n      swap1\n      revert\n    tag_130:\n        /* \"contracts/GoldVesting.sol\":3893:3945  goldToken.balanceOf(address(this)).sub(tokensToVest) */\n      tag_133\n        /* \"contracts/GoldVesting.sol\":3932:3944  tokensToVest */\n      sload(0x02)\n        /* \"contracts/GoldVesting.sol\":3893:3902  goldToken */\n      0x01\n      0x00\n      swap1\n      sload\n      swap1\n      0x0100\n      exp\n      swap1\n      div\n      0xffffffffffffffffffffffffffffffffffffffff\n      and\n        /* \"contracts/GoldVesting.sol\":3893:3912  goldToken.balanceOf */\n      0xffffffffffffffffffffffffffffffffffffffff\n      and\n      0x70a08231\n        /* \"contracts/GoldVesting.sol\":3921:3925  this */\n      address\n        /* \"contracts/GoldVesting.sol\":3893:3927  goldToken.balanceOf(address(this)) */\n      mload(0x40)\n      dup3\n      0xffffffff\n      and\n      0xe0\n      shl\n      dup2\n      mstore\n      0x04\n      add\n      tag_134\n      swap2\n      swap1\n      tag_45\n      jump\t// in\n    tag_134:\n      0x20\n      mload(0x40)\n      dup1\n      dup4\n      sub\n      dup2\n      dup7\n      gas\n      staticcall\n      iszero\n      dup1\n      iszero\n      tag_136\n      jumpi\n      returndatasize\n      0x00\n      dup1\n      returndatacopy\n      revert(0x00, returndatasize)\n    tag_136:\n      pop\n      pop\n      pop\n      pop\n      mload(0x40)\n      returndatasize\n      not(0x1f)\n      0x1f\n      dup3\n      add\n      and\n      dup3\n      add\n      dup1\n      0x40\n      mstore\n      pop\n      dup2\n      add\n      swap1\n      tag_137\n      swap2\n      swap1\n      tag_96\n      jump\t// in\n    tag_137:\n        /* \"contracts/GoldVesting.sol\":3893:3931  goldToken.balanceOf(address(this)).sub */\n      tag_83\n      swap1\n        /* \"contracts/GoldVesting.sol\":3893:3945  goldToken.balanceOf(address(this)).sub(tokensToVest) */\n      swap2\n      swap1\n      0xffffffff\n      and\n      jump\t// in\n    tag_133:\n        /* \"contracts/GoldVesting.sol\":3882:3889  _amount */\n      dup2\n        /* \"contracts/GoldVesting.sol\":3882:3945  _amount <= goldToken.balanceOf(address(this)).sub(tokensToVest) */\n      gt\n      iszero\n        /* \"contracts/GoldVesting.sol\":3947:3967  INSUFFICIENT_BALANCE */\n      mload(0x40)\n      dup1\n      0x40\n      add\n      0x40\n      mstore\n      dup1\n      0x14\n      dup2\n      mstore\n      0x20\n      add\n      0x496e73756666696369656e742062616c616e6365000000000000000000000000\n      dup2\n      mstore\n      pop\n        /* \"contracts/GoldVesting.sol\":3874:3968  require(_amount <= goldToken.balanceOf(address(this)).sub(tokensToVest), INSUFFICIENT_BALANCE) */\n      swap1\n      tag_138\n      jumpi\n      mload(0x40)\n      0x08c379a000000000000000000000000000000000000000000000000000000000\n      dup2\n      mstore\n      0x04\n      add\n      tag_139\n      swap2\n      swap1\n      tag_79\n      jump\t// in\n    tag_139:\n      mload(0x40)\n      dup1\n      swap2\n      sub\n      swap1\n      revert\n    tag_138:\n      pop\n        /* \"contracts/GoldVesting.sol\":3978:3987  goldToken */\n      0x01\n      0x00\n      swap1\n      sload\n      swap1\n      0x0100\n      exp\n      swap1\n      div\n      0xffffffffffffffffffffffffffffffffffffffff\n      and\n        /* \"contracts/GoldVesting.sol\":3978:3996  goldToken.transfer */\n      0xffffffffffffffffffffffffffffffffffffffff\n      and\n      0xa9059cbb\n        /* \"contracts/GoldVesting.sol\":3997:4004  owner() */\n      tag_140\n        /* \"contracts/GoldVesting.sol\":3997:4002  owner */\n      tag_57\n        /* \"contracts/GoldVesting.sol\":3997:4004  owner() */\n      jump\t// in\n    tag_140:\n        /* \"contracts/GoldVesting.sol\":4006:4013  _amount */\n      dup4\n        /* \"contracts/GoldVesting.sol\":3978:4014  goldToken.transfer(owner(), _amount) */\n      mload(0x40)\n      dup4\n      0xffffffff\n      and\n      0xe0\n      shl\n      dup2\n      mstore\n      0x04\n      add\n      tag_141\n      swap3\n      swap2\n      swap1\n      tag_101\n      jump\t// in\n    tag_141:\n      0x20\n      mload(0x40)\n      dup1\n      dup4\n      sub\n      dup2\n      0x00\n      dup8\n      gas\n      call\n      iszero\n      dup1\n      iszero\n      tag_143\n      jumpi\n      returndatasize\n      0x00\n      dup1\n      returndatacopy\n      revert(0x00, returndatasize)\n    tag_143:\n      pop\n      pop\n      pop\n      pop\n      mload(0x40)\n      returndatasize\n      not(0x1f)\n      0x1f\n      dup3\n      add\n      and\n      dup3\n      add\n      dup1\n      0x40\n      mstore\n      pop\n      dup2\n      add\n      swap1\n      tag_144\n      swap2\n      swap1\n      tag_105\n      jump\t// in\n    tag_144:\n      pop\n        /* \"contracts/GoldVesting.sol\":3800:4021  function retrieveExcessTokens(uint256 _amount) public onlyOwner {... */\n      pop\n      jump\t// out\n        /* \"https://github.com/OpenZeppelin/openzeppelin-contracts/blob/master/contracts/access/Ownable.sol\":1668:1769  function renounceOwnership() public virtual onlyOwner {... */\n    tag_50:\n        /* \"https://github.com/OpenZeppelin/openzeppelin-contracts/blob/master/contracts/access/Ownable.sol\":1259:1271  _msgSender() */\n      tag_146\n        /* \"https://github.com/OpenZeppelin/openzeppelin-contracts/blob/master/contracts/access/Ownable.sol\":1259:1269  _msgSender */\n      tag_71\n        /* \"https://github.com/OpenZeppelin/openzeppelin-contracts/blob/master/contracts/access/Ownable.sol\":1259:1271  _msgSender() */\n      jump\t// in\n    tag_146:\n        /* \"https://github.com/OpenZeppelin/openzeppelin-contracts/blob/master/contracts/access/Ownable.sol\":1248:1271  owner() == _msgSender() */\n      0xffffffffffffffffffffffffffffffffffffffff\n      and\n        /* \"https://github.com/OpenZeppelin/openzeppelin-contracts/blob/master/contracts/access/Ownable.sol\":1248:1255  owner() */\n      tag_147\n        /* \"https://github.com/OpenZeppelin/openzeppelin-contracts/blob/master/contracts/access/Ownable.sol\":1248:1253  owner */\n      tag_57\n        /* \"https://github.com/OpenZeppelin/openzeppelin-contracts/blob/master/contracts/access/Ownable.sol\":1248:1255  owner() */\n      jump\t// in\n    tag_147:\n        /* \"https://github.com/OpenZeppelin/openzeppelin-contracts/blob/master/contracts/access/Ownable.sol\":1248:1271  owner() == _msgSender() */\n      0xffffffffffffffffffffffffffffffffffffffff\n      and\n      eq\n        /* \"https://github.com/OpenZeppelin/openzeppelin-contracts/blob/master/contracts/access/Ownable.sol\":1240:1308  require(owner() == _msgSender(), \"Ownable: caller is not the owner\") */\n      tag_148\n      jumpi\n      mload(0x40)\n      0x08c379a000000000000000000000000000000000000000000000000000000000\n      dup2\n      mstore\n      0x04\n      add\n      tag_149\n      swap1\n      tag_75\n      jump\t// in\n    tag_149:\n      mload(0x40)\n      dup1\n      swap2\n      sub\n      swap1\n      revert\n    tag_148:\n        /* \"https://github.com/OpenZeppelin/openzeppelin-contracts/blob/master/contracts/access/Ownable.sol\":1732:1762  _transferOwnership(address(0)) */\n      tag_151\n        /* \"https://github.com/OpenZeppelin/openzeppelin-contracts/blob/master/contracts/access/Ownable.sol\":1759:1760  0 */\n      0x00\n        /* \"https://github.com/OpenZeppelin/openzeppelin-contracts/blob/master/contracts/access/Ownable.sol\":1732:1750  _transferOwnership */\n      tag_152\n        /* \"https://github.com/OpenZeppelin/openzeppelin-contracts/blob/master/contracts/access/Ownable.sol\":1732:1762  _transferOwnership(address(0)) */\n      jump\t// in\n    tag_151:\n        /* \"https://github.com/OpenZeppelin/openzeppelin-contracts/blob/master/contracts/access/Ownable.sol\":1668:1769  function renounceOwnership() public virtual onlyOwner {... */\n      jump\t// out\n        /* \"contracts/GoldVesting.sol\":991:1034  mapping(uint256 => Vesting) public vestings */\n    tag_53:\n      mstore(0x20, 0x04)\n      dup1\n      0x00\n      mstore\n      keccak256(0x00, 0x40)\n      0x00\n      swap2\n      pop\n      swap1\n      pop\n      dup1\n      0x00\n      add\n      sload\n      swap1\n      dup1\n      0x01\n      add\n      sload\n      swap1\n      dup1\n      0x02\n      add\n      0x00\n      swap1\n      sload\n      swap1\n      0x0100\n      exp\n      swap1\n      div\n      0xffffffffffffffffffffffffffffffffffffffff\n      and\n      swap1\n      dup1\n      0x02\n      add\n      0x14\n      swap1\n      sload\n      swap1\n      0x0100\n      exp\n      swap1\n      div\n      0xff\n      and\n      swap1\n      pop\n      dup5\n      jump\t// out\n        /* \"https://github.com/OpenZeppelin/openzeppelin-contracts/blob/master/contracts/access/Ownable.sol\":1036:1121  function owner() public view virtual returns (address) {... */\n    tag_57:\n        /* \"https://github.com/OpenZeppelin/openzeppelin-contracts/blob/master/contracts/access/Ownable.sol\":1082:1089  address */\n      0x00\n        /* \"https://github.com/OpenZeppelin/openzeppelin-contracts/blob/master/contracts/access/Ownable.sol\":1108:1114  _owner */\n      dup1\n      0x00\n      swap1\n      sload\n      swap1\n      0x0100\n      exp\n      swap1\n      div\n      0xffffffffffffffffffffffffffffffffffffffff\n      and\n        /* \"https://github.com/OpenZeppelin/openzeppelin-contracts/blob/master/contracts/access/Ownable.sol\":1101:1114  return _owner */\n      swap1\n      pop\n        /* \"https://github.com/OpenZeppelin/openzeppelin-contracts/blob/master/contracts/access/Ownable.sol\":1036:1121  function owner() public view virtual returns (address) {... */\n      swap1\n      jump\t// out\n        /* \"https://github.com/OpenZeppelin/openzeppelin-contracts/blob/master/contracts/access/Ownable.sol\":1918:2116  function transferOwnership(address newOwner) public virtual onlyOwner {... */\n    tag_62:\n        /* \"https://github.com/OpenZeppelin/openzeppelin-contracts/blob/master/contracts/access/Ownable.sol\":1259:1271  _msgSender() */\n      tag_155\n        /* \"https://github.com/OpenZeppelin/openzeppelin-contracts/blob/master/contracts/access/Ownable.sol\":1259:1269  _msgSender */\n      tag_71\n        /* \"https://github.com/OpenZeppelin/openzeppelin-contracts/blob/master/contracts/access/Ownable.sol\":1259:1271  _msgSender() */\n      jump\t// in\n    tag_155:\n        /* \"https://github.com/OpenZeppelin/openzeppelin-contracts/blob/master/contracts/access/Ownable.sol\":1248:1271  owner() == _msgSender() */\n      0xffffffffffffffffffffffffffffffffffffffff\n      and\n        /* \"https://github.com/OpenZeppelin/openzeppelin-contracts/blob/master/contracts/access/Ownable.sol\":1248:1255  owner() */\n      tag_156\n        /* \"https://github.com/OpenZeppelin/openzeppelin-contracts/blob/master/contracts/access/Ownable.sol\":1248:1253  owner */\n      tag_57\n        /* \"https://github.com/OpenZeppelin/openzeppelin-contracts/blob/master/contracts/access/Ownable.sol\":1248:1255  owner() */\n      jump\t// in\n    tag_156:\n        /* \"https://github.com/OpenZeppelin/openzeppelin-contracts/blob/master/contracts/access/Ownable.sol\":1248:1271  owner() == _msgSender() */\n      0xffffffffffffffffffffffffffffffffffffffff\n      and\n      eq\n        /* \"https://github.com/OpenZeppelin/openzeppelin-contracts/blob/master/contracts/access/Ownable.sol\":1240:1308  require(owner() == _msgSender(), \"Ownable: caller is not the owner\") */\n      tag_157\n      jumpi\n      mload(0x40)\n      0x08c379a000000000000000000000000000000000000000000000000000000000\n      dup2\n      mstore\n      0x04\n      add\n      tag_158\n      swap1\n      tag_75\n      jump\t// in\n    tag_158:\n      mload(0x40)\n      dup1\n      swap2\n      sub\n      swap1\n      revert\n    tag_157:\n        /* \"https://github.com/OpenZeppelin/openzeppelin-contracts/blob/master/contracts/access/Ownable.sol\":2026:2027  0 */\n      0x00\n        /* \"https://github.com/OpenZeppelin/openzeppelin-contracts/blob/master/contracts/access/Ownable.sol\":2006:2028  newOwner != address(0) */\n      0xffffffffffffffffffffffffffffffffffffffff\n      and\n        /* \"https://github.com/OpenZeppelin/openzeppelin-contracts/blob/master/contracts/access/Ownable.sol\":2006:2014  newOwner */\n      dup2\n        /* \"https://github.com/OpenZeppelin/openzeppelin-contracts/blob/master/contracts/access/Ownable.sol\":2006:2028  newOwner != address(0) */\n      0xffffffffffffffffffffffffffffffffffffffff\n      and\n      sub\n        /* \"https://github.com/OpenZeppelin/openzeppelin-contracts/blob/master/contracts/access/Ownable.sol\":1998:2071  require(newOwner != address(0), \"Ownable: new owner is the zero address\") */\n      tag_160\n      jumpi\n      mload(0x40)\n      0x08c379a000000000000000000000000000000000000000000000000000000000\n      dup2\n      mstore\n      0x04\n      add\n      tag_161\n      swap1\n      tag_162\n      jump\t// in\n    tag_161:\n      mload(0x40)\n      dup1\n      swap2\n      sub\n      swap1\n      revert\n    tag_160:\n        /* \"https://github.com/OpenZeppelin/openzeppelin-contracts/blob/master/contracts/access/Ownable.sol\":2081:2109  _transferOwnership(newOwner) */\n      tag_163\n        /* \"https://github.com/OpenZeppelin/openzeppelin-contracts/blob/master/contracts/access/Ownable.sol\":2100:2108  newOwner */\n      dup2\n        /* \"https://github.com/OpenZeppelin/openzeppelin-contracts/blob/master/contracts/access/Ownable.sol\":2081:2099  _transferOwnership */\n      tag_152\n        /* \"https://github.com/OpenZeppelin/openzeppelin-contracts/blob/master/contracts/access/Ownable.sol\":2081:2109  _transferOwnership(newOwner) */\n      jump\t// in\n    tag_163:\n        /* \"https://github.com/OpenZeppelin/openzeppelin-contracts/blob/master/contracts/access/Ownable.sol\":1918:2116  function transferOwnership(address newOwner) public virtual onlyOwner {... */\n      pop\n      jump\t// out\n        /* \"contracts/GoldVesting.sol\":1506:1583  function token() public view returns (Gold) {... */\n    tag_64:\n        /* \"contracts/GoldVesting.sol\":1544:1548  Gold */\n      0x00\n        /* \"contracts/GoldVesting.sol\":1567:1576  goldToken */\n      0x01\n      0x00\n      swap1\n      sload\n      swap1\n      0x0100\n      exp\n      swap1\n      div\n      0xffffffffffffffffffffffffffffffffffffffff\n      and\n        /* \"contracts/GoldVesting.sol\":1560:1576  return goldToken */\n      swap1\n      pop\n        /* \"contracts/GoldVesting.sol\":1506:1583  function token() public view returns (Gold) {... */\n      swap1\n      jump\t// out\n        /* \"https://github.com/OpenZeppelin/openzeppelin-contracts/blob/master/contracts/utils/Context.sol\":640:736  function _msgSender() internal view virtual returns (address) {... */\n    tag_71:\n        /* \"https://github.com/OpenZeppelin/openzeppelin-contracts/blob/master/contracts/utils/Context.sol\":693:700  address */\n      0x00\n        /* \"https://github.com/OpenZeppelin/openzeppelin-contracts/blob/master/contracts/utils/Context.sol\":719:729  msg.sender */\n      caller\n        /* \"https://github.com/OpenZeppelin/openzeppelin-contracts/blob/master/contracts/utils/Context.sol\":712:729  return msg.sender */\n      swap1\n      pop\n        /* \"https://github.com/OpenZeppelin/openzeppelin-contracts/blob/master/contracts/utils/Context.sol\":640:736  function _msgSender() internal view virtual returns (address) {... */\n      swap1\n      jump\t// out\n        /* \"https://github.com/OpenZeppelin/openzeppelin-contracts/blob/master/contracts/utils/math/SafeMath.sol\":3107:3203  function sub(uint256 a, uint256 b) internal pure returns (uint256) {... */\n    tag_83:\n        /* \"https://github.com/OpenZeppelin/openzeppelin-contracts/blob/master/contracts/utils/math/SafeMath.sol\":3165:3172  uint256 */\n      0x00\n        /* \"https://github.com/OpenZeppelin/openzeppelin-contracts/blob/master/contracts/utils/math/SafeMath.sol\":3195:3196  b */\n      dup2\n        /* \"https://github.com/OpenZeppelin/openzeppelin-contracts/blob/master/contracts/utils/math/SafeMath.sol\":3191:3192  a */\n      dup4\n        /* \"https://github.com/OpenZeppelin/openzeppelin-contracts/blob/master/contracts/utils/math/SafeMath.sol\":3191:3196  a - b */\n      tag_167\n      swap2\n      swap1\n      tag_168\n      jump\t// in\n    tag_167:\n        /* \"https://github.com/OpenZeppelin/openzeppelin-contracts/blob/master/contracts/utils/math/SafeMath.sol\":3184:3196  return a - b */\n      swap1\n      pop\n        /* \"https://github.com/OpenZeppelin/openzeppelin-contracts/blob/master/contracts/utils/math/SafeMath.sol\":3107:3203  function sub(uint256 a, uint256 b) internal pure returns (uint256) {... */\n      swap3\n      swap2\n      pop\n      pop\n      jump\t// out\n        /* \"https://github.com/OpenZeppelin/openzeppelin-contracts/blob/master/contracts/utils/math/SafeMath.sol\":2740:2836  function add(uint256 a, uint256 b) internal pure returns (uint256) {... */\n    tag_122:\n        /* \"https://github.com/OpenZeppelin/openzeppelin-contracts/blob/master/contracts/utils/math/SafeMath.sol\":2798:2805  uint256 */\n      0x00\n        /* \"https://github.com/OpenZeppelin/openzeppelin-contracts/blob/master/contracts/utils/math/SafeMath.sol\":2828:2829  b */\n      dup2\n        /* \"https://github.com/OpenZeppelin/openzeppelin-contracts/blob/master/contracts/utils/math/SafeMath.sol\":2824:2825  a */\n      dup4\n        /* \"https://github.com/OpenZeppelin/openzeppelin-contracts/blob/master/contracts/utils/math/SafeMath.sol\":2824:2829  a + b */\n      tag_170\n      swap2\n      swap1\n      tag_171\n      jump\t// in\n    tag_170:\n        /* \"https://github.com/OpenZeppelin/openzeppelin-contracts/blob/master/contracts/utils/math/SafeMath.sol\":2817:2829  return a + b */\n      swap1\n      pop\n        /* \"https://github.com/OpenZeppelin/openzeppelin-contracts/blob/master/contracts/utils/math/SafeMath.sol\":2740:2836  function add(uint256 a, uint256 b) internal pure returns (uint256) {... */\n      swap3\n      swap2\n      pop\n      pop\n      jump\t// out\n        /* \"https://github.com/OpenZeppelin/openzeppelin-contracts/blob/master/contracts/access/Ownable.sol\":2270:2457  function _transferOwnership(address newOwner) internal virtual {... */\n    tag_152:\n        /* \"https://github.com/OpenZeppelin/openzeppelin-contracts/blob/master/contracts/access/Ownable.sol\":2343:2359  address oldOwner */\n      0x00\n        /* \"https://github.com/OpenZeppelin/openzeppelin-contracts/blob/master/contracts/access/Ownable.sol\":2362:2368  _owner */\n      dup1\n      0x00\n      swap1\n      sload\n      swap1\n      0x0100\n      exp\n      swap1\n      div\n      0xffffffffffffffffffffffffffffffffffffffff\n      and\n        /* \"https://github.com/OpenZeppelin/openzeppelin-contracts/blob/master/contracts/access/Ownable.sol\":2343:2368  address oldOwner = _owner */\n      swap1\n      pop\n        /* \"https://github.com/OpenZeppelin/openzeppelin-contracts/blob/master/contracts/access/Ownable.sol\":2387:2395  newOwner */\n      dup2\n        /* \"https://github.com/OpenZeppelin/openzeppelin-contracts/blob/master/contracts/access/Ownable.sol\":2378:2384  _owner */\n      0x00\n      dup1\n        /* \"https://github.com/OpenZeppelin/openzeppelin-contracts/blob/master/contracts/access/Ownable.sol\":2378:2395  _owner = newOwner */\n      0x0100\n      exp\n      dup2\n      sload\n      dup2\n      0xffffffffffffffffffffffffffffffffffffffff\n      mul\n      not\n      and\n      swap1\n      dup4\n      0xffffffffffffffffffffffffffffffffffffffff\n      and\n      mul\n      or\n      swap1\n      sstore\n      pop\n        /* \"https://github.com/OpenZeppelin/openzeppelin-contracts/blob/master/contracts/access/Ownable.sol\":2441:2449  newOwner */\n      dup2\n        /* \"https://github.com/OpenZeppelin/openzeppelin-contracts/blob/master/contracts/access/Ownable.sol\":2410:2450  OwnershipTransferred(oldOwner, newOwner) */\n      0xffffffffffffffffffffffffffffffffffffffff\n      and\n        /* \"https://github.com/OpenZeppelin/openzeppelin-contracts/blob/master/contracts/access/Ownable.sol\":2431:2439  oldOwner */\n      dup2\n        /* \"https://github.com/OpenZeppelin/openzeppelin-contracts/blob/master/contracts/access/Ownable.sol\":2410:2450  OwnershipTransferred(oldOwner, newOwner) */\n      0xffffffffffffffffffffffffffffffffffffffff\n      and\n      0x8be0079c531659141344cd1fd0a4f28419497f9722a3daafe3b4186f6b6457e0\n      mload(0x40)\n      mload(0x40)\n      dup1\n      swap2\n      sub\n      swap1\n      log3\n        /* \"https://github.com/OpenZeppelin/openzeppelin-contracts/blob/master/contracts/access/Ownable.sol\":2333:2457  {... */\n      pop\n        /* \"https://github.com/OpenZeppelin/openzeppelin-contracts/blob/master/contracts/access/Ownable.sol\":2270:2457  function _transferOwnership(address newOwner) internal virtual {... */\n      pop\n      jump\t// out\n        /* \"#utility.yul\":88:205   */\n    tag_174:\n        /* \"#utility.yul\":197:198   */\n      0x00\n        /* \"#utility.yul\":194:195   */\n      dup1\n        /* \"#utility.yul\":187:199   */\n      revert\n        /* \"#utility.yul\":334:411   */\n    tag_176:\n        /* \"#utility.yul\":371:378   */\n      0x00\n        /* \"#utility.yul\":400:405   */\n      dup2\n        /* \"#utility.yul\":389:405   */\n      swap1\n      pop\n        /* \"#utility.yul\":334:411   */\n      swap2\n      swap1\n      pop\n      jump\t// out\n        /* \"#utility.yul\":417:539   */\n    tag_177:\n        /* \"#utility.yul\":490:514   */\n      tag_215\n        /* \"#utility.yul\":508:513   */\n      dup2\n        /* \"#utility.yul\":490:514   */\n      tag_176\n      jump\t// in\n    tag_215:\n        /* \"#utility.yul\":483:488   */\n      dup2\n        /* \"#utility.yul\":480:515   */\n      eq\n        /* \"#utility.yul\":470:533   */\n      tag_216\n      jumpi\n        /* \"#utility.yul\":529:530   */\n      0x00\n        /* \"#utility.yul\":526:527   */\n      dup1\n        /* \"#utility.yul\":519:531   */\n      revert\n        /* \"#utility.yul\":470:533   */\n    tag_216:\n        /* \"#utility.yul\":417:539   */\n      pop\n      jump\t// out\n        /* \"#utility.yul\":545:684   */\n    tag_178:\n        /* \"#utility.yul\":591:596   */\n      0x00\n        /* \"#utility.yul\":629:635   */\n      dup2\n        /* \"#utility.yul\":616:636   */\n      calldataload\n        /* \"#utility.yul\":607:636   */\n      swap1\n      pop\n        /* \"#utility.yul\":645:678   */\n      tag_218\n        /* \"#utility.yul\":672:677   */\n      dup2\n        /* \"#utility.yul\":645:678   */\n      tag_177\n      jump\t// in\n    tag_218:\n        /* \"#utility.yul\":545:684   */\n      swap3\n      swap2\n      pop\n      pop\n      jump\t// out\n        /* \"#utility.yul\":690:1019   */\n    tag_20:\n        /* \"#utility.yul\":749:755   */\n      0x00\n        /* \"#utility.yul\":798:800   */\n      0x20\n        /* \"#utility.yul\":786:795   */\n      dup3\n        /* \"#utility.yul\":777:784   */\n      dup5\n        /* \"#utility.yul\":773:796   */\n      sub\n        /* \"#utility.yul\":769:801   */\n      slt\n        /* \"#utility.yul\":766:885   */\n      iszero\n      tag_220\n      jumpi\n        /* \"#utility.yul\":804:883   */\n      tag_221\n      tag_174\n      jump\t// in\n    tag_221:\n        /* \"#utility.yul\":766:885   */\n    tag_220:\n        /* \"#utility.yul\":924:925   */\n      0x00\n        /* \"#utility.yul\":949:1002   */\n      tag_222\n        /* \"#utility.yul\":994:1001   */\n      dup5\n        /* \"#utility.yul\":985:991   */\n      dup3\n        /* \"#utility.yul\":974:983   */\n      dup6\n        /* \"#utility.yul\":970:992   */\n      add\n        /* \"#utility.yul\":949:1002   */\n      tag_178\n      jump\t// in\n    tag_222:\n        /* \"#utility.yul\":939:1002   */\n      swap2\n      pop\n        /* \"#utility.yul\":895:1012   */\n      pop\n        /* \"#utility.yul\":690:1019   */\n      swap3\n      swap2\n      pop\n      pop\n      jump\t// out\n        /* \"#utility.yul\":1025:1143   */\n    tag_179:\n        /* \"#utility.yul\":1112:1136   */\n      tag_224\n        /* \"#utility.yul\":1130:1135   */\n      dup2\n        /* \"#utility.yul\":1112:1136   */\n      tag_176\n      jump\t// in\n    tag_224:\n        /* \"#utility.yul\":1107:1110   */\n      dup3\n        /* \"#utility.yul\":1100:1137   */\n      mstore\n        /* \"#utility.yul\":1025:1143   */\n      pop\n      pop\n      jump\t// out\n        /* \"#utility.yul\":1149:1371   */\n    tag_23:\n        /* \"#utility.yul\":1242:1246   */\n      0x00\n        /* \"#utility.yul\":1280:1282   */\n      0x20\n        /* \"#utility.yul\":1269:1278   */\n      dup3\n        /* \"#utility.yul\":1265:1283   */\n      add\n        /* \"#utility.yul\":1257:1283   */\n      swap1\n      pop\n        /* \"#utility.yul\":1293:1364   */\n      tag_226\n        /* \"#utility.yul\":1361:1362   */\n      0x00\n        /* \"#utility.yul\":1350:1359   */\n      dup4\n        /* \"#utility.yul\":1346:1363   */\n      add\n        /* \"#utility.yul\":1337:1343   */\n      dup5\n        /* \"#utility.yul\":1293:1364   */\n      tag_179\n      jump\t// in\n    tag_226:\n        /* \"#utility.yul\":1149:1371   */\n      swap3\n      swap2\n      pop\n      pop\n      jump\t// out\n        /* \"#utility.yul\":1377:1503   */\n    tag_180:\n        /* \"#utility.yul\":1414:1421   */\n      0x00\n        /* \"#utility.yul\":1454:1496   */\n      0xffffffffffffffffffffffffffffffffffffffff\n        /* \"#utility.yul\":1447:1452   */\n      dup3\n        /* \"#utility.yul\":1443:1497   */\n      and\n        /* \"#utility.yul\":1432:1497   */\n      swap1\n      pop\n        /* \"#utility.yul\":1377:1503   */\n      swap2\n      swap1\n      pop\n      jump\t// out\n        /* \"#utility.yul\":1509:1605   */\n    tag_181:\n        /* \"#utility.yul\":1546:1553   */\n      0x00\n        /* \"#utility.yul\":1575:1599   */\n      tag_229\n        /* \"#utility.yul\":1593:1598   */\n      dup3\n        /* \"#utility.yul\":1575:1599   */\n      tag_180\n      jump\t// in\n    tag_229:\n        /* \"#utility.yul\":1564:1599   */\n      swap1\n      pop\n        /* \"#utility.yul\":1509:1605   */\n      swap2\n      swap1\n      pop\n      jump\t// out\n        /* \"#utility.yul\":1611:1733   */\n    tag_182:\n        /* \"#utility.yul\":1684:1708   */\n      tag_231\n        /* \"#utility.yul\":1702:1707   */\n      dup2\n        /* \"#utility.yul\":1684:1708   */\n      tag_181\n      jump\t// in\n    tag_231:\n        /* \"#utility.yul\":1677:1682   */\n      dup2\n        /* \"#utility.yul\":1674:1709   */\n      eq\n        /* \"#utility.yul\":1664:1727   */\n      tag_232\n      jumpi\n        /* \"#utility.yul\":1723:1724   */\n      0x00\n        /* \"#utility.yul\":1720:1721   */\n      dup1\n        /* \"#utility.yul\":1713:1725   */\n      revert\n        /* \"#utility.yul\":1664:1727   */\n    tag_232:\n        /* \"#utility.yul\":1611:1733   */\n      pop\n      jump\t// out\n        /* \"#utility.yul\":1739:1878   */\n    tag_183:\n        /* \"#utility.yul\":1785:1790   */\n      0x00\n        /* \"#utility.yul\":1823:1829   */\n      dup2\n        /* \"#utility.yul\":1810:1830   */\n      calldataload\n        /* \"#utility.yul\":1801:1830   */\n      swap1\n      pop\n        /* \"#utility.yul\":1839:1872   */\n      tag_234\n        /* \"#utility.yul\":1866:1871   */\n      dup2\n        /* \"#utility.yul\":1839:1872   */\n      tag_182\n      jump\t// in\n    tag_234:\n        /* \"#utility.yul\":1739:1878   */\n      swap3\n      swap2\n      pop\n      pop\n      jump\t// out\n        /* \"#utility.yul\":1884:2503   */\n    tag_36:\n        /* \"#utility.yul\":1961:1967   */\n      0x00\n        /* \"#utility.yul\":1969:1975   */\n      dup1\n        /* \"#utility.yul\":1977:1983   */\n      0x00\n        /* \"#utility.yul\":2026:2028   */\n      0x60\n        /* \"#utility.yul\":2014:2023   */\n      dup5\n        /* \"#utility.yul\":2005:2012   */\n      dup7\n        /* \"#utility.yul\":2001:2024   */\n      sub\n        /* \"#utility.yul\":1997:2029   */\n      slt\n        /* \"#utility.yul\":1994:2113   */\n      iszero\n      tag_236\n      jumpi\n        /* \"#utility.yul\":2032:2111   */\n      tag_237\n      tag_174\n      jump\t// in\n    tag_237:\n        /* \"#utility.yul\":1994:2113   */\n    tag_236:\n        /* \"#utility.yul\":2152:2153   */\n      0x00\n        /* \"#utility.yul\":2177:2230   */\n      tag_238\n        /* \"#utility.yul\":2222:2229   */\n      dup7\n        /* \"#utility.yul\":2213:2219   */\n      dup3\n        /* \"#utility.yul\":2202:2211   */\n      dup8\n        /* \"#utility.yul\":2198:2220   */\n      add\n        /* \"#utility.yul\":2177:2230   */\n      tag_183\n      jump\t// in\n    tag_238:\n        /* \"#utility.yul\":2167:2230   */\n      swap4\n      pop\n        /* \"#utility.yul\":2123:2240   */\n      pop\n        /* \"#utility.yul\":2279:2281   */\n      0x20\n        /* \"#utility.yul\":2305:2358   */\n      tag_239\n        /* \"#utility.yul\":2350:2357   */\n      dup7\n        /* \"#utility.yul\":2341:2347   */\n      dup3\n        /* \"#utility.yul\":2330:2339   */\n      dup8\n        /* \"#utility.yul\":2326:2348   */\n      add\n        /* \"#utility.yul\":2305:2358   */\n      tag_178\n      jump\t// in\n    tag_239:\n        /* \"#utility.yul\":2295:2358   */\n      swap3\n      pop\n        /* \"#utility.yul\":2250:2368   */\n      pop\n        /* \"#utility.yul\":2407:2409   */\n      0x40\n        /* \"#utility.yul\":2433:2486   */\n      tag_240\n        /* \"#utility.yul\":2478:2485   */\n      dup7\n        /* \"#utility.yul\":2469:2475   */\n      dup3\n        /* \"#utility.yul\":2458:2467   */\n      dup8\n        /* \"#utility.yul\":2454:2476   */\n      add\n        /* \"#utility.yul\":2433:2486   */\n      tag_178\n      jump\t// in\n    tag_240:\n        /* \"#utility.yul\":2423:2486   */\n      swap2\n      pop\n        /* \"#utility.yul\":2378:2496   */\n      pop\n        /* \"#utility.yul\":1884:2503   */\n      swap3\n      pop\n      swap3\n      pop\n      swap3\n      jump\t// out\n        /* \"#utility.yul\":2509:2627   */\n    tag_184:\n        /* \"#utility.yul\":2596:2620   */\n      tag_242\n        /* \"#utility.yul\":2614:2619   */\n      dup2\n        /* \"#utility.yul\":2596:2620   */\n      tag_181\n      jump\t// in\n    tag_242:\n        /* \"#utility.yul\":2591:2594   */\n      dup3\n        /* \"#utility.yul\":2584:2621   */\n      mstore\n        /* \"#utility.yul\":2509:2627   */\n      pop\n      pop\n      jump\t// out\n        /* \"#utility.yul\":2633:2855   */\n    tag_45:\n        /* \"#utility.yul\":2726:2730   */\n      0x00\n        /* \"#utility.yul\":2764:2766   */\n      0x20\n        /* \"#utility.yul\":2753:2762   */\n      dup3\n        /* \"#utility.yul\":2749:2767   */\n      add\n        /* \"#utility.yul\":2741:2767   */\n      swap1\n      pop\n        /* \"#utility.yul\":2777:2848   */\n      tag_244\n        /* \"#utility.yul\":2845:2846   */\n      0x00\n        /* \"#utility.yul\":2834:2843   */\n      dup4\n        /* \"#utility.yul\":2830:2847   */\n      add\n        /* \"#utility.yul\":2821:2827   */\n      dup5\n        /* \"#utility.yul\":2777:2848   */\n      tag_184\n      jump\t// in\n    tag_244:\n        /* \"#utility.yul\":2633:2855   */\n      swap3\n      swap2\n      pop\n      pop\n      jump\t// out\n        /* \"#utility.yul\":2861:2951   */\n    tag_185:\n        /* \"#utility.yul\":2895:2902   */\n      0x00\n        /* \"#utility.yul\":2938:2943   */\n      dup2\n        /* \"#utility.yul\":2931:2944   */\n      iszero\n        /* \"#utility.yul\":2924:2945   */\n      iszero\n        /* \"#utility.yul\":2913:2945   */\n      swap1\n      pop\n        /* \"#utility.yul\":2861:2951   */\n      swap2\n      swap1\n      pop\n      jump\t// out\n        /* \"#utility.yul\":2957:3066   */\n    tag_186:\n        /* \"#utility.yul\":3038:3059   */\n      tag_247\n        /* \"#utility.yul\":3053:3058   */\n      dup2\n        /* \"#utility.yul\":3038:3059   */\n      tag_185\n      jump\t// in\n    tag_247:\n        /* \"#utility.yul\":3033:3036   */\n      dup3\n        /* \"#utility.yul\":3026:3060   */\n      mstore\n        /* \"#utility.yul\":2957:3066   */\n      pop\n      pop\n      jump\t// out\n        /* \"#utility.yul\":3072:3613   */\n    tag_55:\n        /* \"#utility.yul\":3243:3247   */\n      0x00\n        /* \"#utility.yul\":3281:3284   */\n      0x80\n        /* \"#utility.yul\":3270:3279   */\n      dup3\n        /* \"#utility.yul\":3266:3285   */\n      add\n        /* \"#utility.yul\":3258:3285   */\n      swap1\n      pop\n        /* \"#utility.yul\":3295:3366   */\n      tag_249\n        /* \"#utility.yul\":3363:3364   */\n      0x00\n        /* \"#utility.yul\":3352:3361   */\n      dup4\n        /* \"#utility.yul\":3348:3365   */\n      add\n        /* \"#utility.yul\":3339:3345   */\n      dup8\n        /* \"#utility.yul\":3295:3366   */\n      tag_179\n      jump\t// in\n    tag_249:\n        /* \"#utility.yul\":3376:3448   */\n      tag_250\n        /* \"#utility.yul\":3444:3446   */\n      0x20\n        /* \"#utility.yul\":3433:3442   */\n      dup4\n        /* \"#utility.yul\":3429:3447   */\n      add\n        /* \"#utility.yul\":3420:3426   */\n      dup7\n        /* \"#utility.yul\":3376:3448   */\n      tag_179\n      jump\t// in\n    tag_250:\n        /* \"#utility.yul\":3458:3530   */\n      tag_251\n        /* \"#utility.yul\":3526:3528   */\n      0x40\n        /* \"#utility.yul\":3515:3524   */\n      dup4\n        /* \"#utility.yul\":3511:3529   */\n      add\n        /* \"#utility.yul\":3502:3508   */\n      dup6\n        /* \"#utility.yul\":3458:3530   */\n      tag_184\n      jump\t// in\n    tag_251:\n        /* \"#utility.yul\":3540:3606   */\n      tag_252\n        /* \"#utility.yul\":3602:3604   */\n      0x60\n        /* \"#utility.yul\":3591:3600   */\n      dup4\n        /* \"#utility.yul\":3587:3605   */\n      add\n        /* \"#utility.yul\":3578:3584   */\n      dup5\n        /* \"#utility.yul\":3540:3606   */\n      tag_186\n      jump\t// in\n    tag_252:\n        /* \"#utility.yul\":3072:3613   */\n      swap6\n      swap5\n      pop\n      pop\n      pop\n      pop\n      pop\n      jump\t// out\n        /* \"#utility.yul\":3619:3948   */\n    tag_61:\n        /* \"#utility.yul\":3678:3684   */\n      0x00\n        /* \"#utility.yul\":3727:3729   */\n      0x20\n        /* \"#utility.yul\":3715:3724   */\n      dup3\n        /* \"#utility.yul\":3706:3713   */\n      dup5\n        /* \"#utility.yul\":3702:3725   */\n      sub\n        /* \"#utility.yul\":3698:3730   */\n      slt\n        /* \"#utility.yul\":3695:3814   */\n      iszero\n      tag_254\n      jumpi\n        /* \"#utility.yul\":3733:3812   */\n      tag_255\n      tag_174\n      jump\t// in\n    tag_255:\n        /* \"#utility.yul\":3695:3814   */\n    tag_254:\n        /* \"#utility.yul\":3853:3854   */\n      0x00\n        /* \"#utility.yul\":3878:3931   */\n      tag_256\n        /* \"#utility.yul\":3923:3930   */\n      dup5\n        /* \"#utility.yul\":3914:3920   */\n      dup3\n        /* \"#utility.yul\":3903:3912   */\n      dup6\n        /* \"#utility.yul\":3899:3921   */\n      add\n        /* \"#utility.yul\":3878:3931   */\n      tag_183\n      jump\t// in\n    tag_256:\n        /* \"#utility.yul\":3868:3931   */\n      swap2\n      pop\n        /* \"#utility.yul\":3824:3941   */\n      pop\n        /* \"#utility.yul\":3619:3948   */\n      swap3\n      swap2\n      pop\n      pop\n      jump\t// out\n        /* \"#utility.yul\":3954:4014   */\n    tag_187:\n        /* \"#utility.yul\":3982:3985   */\n      0x00\n        /* \"#utility.yul\":4003:4008   */\n      dup2\n        /* \"#utility.yul\":3996:4008   */\n      swap1\n      pop\n        /* \"#utility.yul\":3954:4014   */\n      swap2\n      swap1\n      pop\n      jump\t// out\n        /* \"#utility.yul\":4020:4162   */\n    tag_188:\n        /* \"#utility.yul\":4070:4079   */\n      0x00\n        /* \"#utility.yul\":4103:4156   */\n      tag_259\n        /* \"#utility.yul\":4121:4155   */\n      tag_260\n        /* \"#utility.yul\":4130:4154   */\n      tag_261\n        /* \"#utility.yul\":4148:4153   */\n      dup5\n        /* \"#utility.yul\":4130:4154   */\n      tag_180\n      jump\t// in\n    tag_261:\n        /* \"#utility.yul\":4121:4155   */\n      tag_187\n      jump\t// in\n    tag_260:\n        /* \"#utility.yul\":4103:4156   */\n      tag_180\n      jump\t// in\n    tag_259:\n        /* \"#utility.yul\":4090:4156   */\n      swap1\n      pop\n        /* \"#utility.yul\":4020:4162   */\n      swap2\n      swap1\n      pop\n      jump\t// out\n        /* \"#utility.yul\":4168:4294   */\n    tag_189:\n        /* \"#utility.yul\":4218:4227   */\n      0x00\n        /* \"#utility.yul\":4251:4288   */\n      tag_263\n        /* \"#utility.yul\":4282:4287   */\n      dup3\n        /* \"#utility.yul\":4251:4288   */\n      tag_188\n      jump\t// in\n    tag_263:\n        /* \"#utility.yul\":4238:4288   */\n      swap1\n      pop\n        /* \"#utility.yul\":4168:4294   */\n      swap2\n      swap1\n      pop\n      jump\t// out\n        /* \"#utility.yul\":4300:4438   */\n    tag_190:\n        /* \"#utility.yul\":4362:4371   */\n      0x00\n        /* \"#utility.yul\":4395:4432   */\n      tag_265\n        /* \"#utility.yul\":4426:4431   */\n      dup3\n        /* \"#utility.yul\":4395:4432   */\n      tag_189\n      jump\t// in\n    tag_265:\n        /* \"#utility.yul\":4382:4432   */\n      swap1\n      pop\n        /* \"#utility.yul\":4300:4438   */\n      swap2\n      swap1\n      pop\n      jump\t// out\n        /* \"#utility.yul\":4444:4599   */\n    tag_191:\n        /* \"#utility.yul\":4543:4592   */\n      tag_267\n        /* \"#utility.yul\":4586:4591   */\n      dup2\n        /* \"#utility.yul\":4543:4592   */\n      tag_190\n      jump\t// in\n    tag_267:\n        /* \"#utility.yul\":4538:4541   */\n      dup3\n        /* \"#utility.yul\":4531:4593   */\n      mstore\n        /* \"#utility.yul\":4444:4599   */\n      pop\n      pop\n      jump\t// out\n        /* \"#utility.yul\":4605:4851   */\n    tag_66:\n        /* \"#utility.yul\":4710:4714   */\n      0x00\n        /* \"#utility.yul\":4748:4750   */\n      0x20\n        /* \"#utility.yul\":4737:4746   */\n      dup3\n        /* \"#utility.yul\":4733:4751   */\n      add\n        /* \"#utility.yul\":4725:4751   */\n      swap1\n      pop\n        /* \"#utility.yul\":4761:4844   */\n      tag_269\n        /* \"#utility.yul\":4841:4842   */\n      0x00\n        /* \"#utility.yul\":4830:4839   */\n      dup4\n        /* \"#utility.yul\":4826:4843   */\n      add\n        /* \"#utility.yul\":4817:4823   */\n      dup5\n        /* \"#utility.yul\":4761:4844   */\n      tag_191\n      jump\t// in\n    tag_269:\n        /* \"#utility.yul\":4605:4851   */\n      swap3\n      swap2\n      pop\n      pop\n      jump\t// out\n        /* \"#utility.yul\":4857:5026   */\n    tag_192:\n        /* \"#utility.yul\":4941:4952   */\n      0x00\n        /* \"#utility.yul\":4975:4981   */\n      dup3\n        /* \"#utility.yul\":4970:4973   */\n      dup3\n        /* \"#utility.yul\":4963:4982   */\n      mstore\n        /* \"#utility.yul\":5015:5019   */\n      0x20\n        /* \"#utility.yul\":5010:5013   */\n      dup3\n        /* \"#utility.yul\":5006:5020   */\n      add\n        /* \"#utility.yul\":4991:5020   */\n      swap1\n      pop\n        /* \"#utility.yul\":4857:5026   */\n      swap3\n      swap2\n      pop\n      pop\n      jump\t// out\n        /* \"#utility.yul\":5032:5214   */\n    tag_193:\n        /* \"#utility.yul\":5172:5206   */\n      0x4f776e61626c653a2063616c6c6572206973206e6f7420746865206f776e6572\n        /* \"#utility.yul\":5168:5169   */\n      0x00\n        /* \"#utility.yul\":5160:5166   */\n      dup3\n        /* \"#utility.yul\":5156:5170   */\n      add\n        /* \"#utility.yul\":5149:5207   */\n      mstore\n        /* \"#utility.yul\":5032:5214   */\n      pop\n      jump\t// out\n        /* \"#utility.yul\":5220:5586   */\n    tag_194:\n        /* \"#utility.yul\":5362:5365   */\n      0x00\n        /* \"#utility.yul\":5383:5450   */\n      tag_273\n        /* \"#utility.yul\":5447:5449   */\n      0x20\n        /* \"#utility.yul\":5442:5445   */\n      dup4\n        /* \"#utility.yul\":5383:5450   */\n      tag_192\n      jump\t// in\n    tag_273:\n        /* \"#utility.yul\":5376:5450   */\n      swap2\n      pop\n        /* \"#utility.yul\":5459:5552   */\n      tag_274\n        /* \"#utility.yul\":5548:5551   */\n      dup3\n        /* \"#utility.yul\":5459:5552   */\n      tag_193\n      jump\t// in\n    tag_274:\n        /* \"#utility.yul\":5577:5579   */\n      0x20\n        /* \"#utility.yul\":5572:5575   */\n      dup3\n        /* \"#utility.yul\":5568:5580   */\n      add\n        /* \"#utility.yul\":5561:5580   */\n      swap1\n      pop\n        /* \"#utility.yul\":5220:5586   */\n      swap2\n      swap1\n      pop\n      jump\t// out\n        /* \"#utility.yul\":5592:6011   */\n    tag_75:\n        /* \"#utility.yul\":5758:5762   */\n      0x00\n        /* \"#utility.yul\":5796:5798   */\n      0x20\n        /* \"#utility.yul\":5785:5794   */\n      dup3\n        /* \"#utility.yul\":5781:5799   */\n      add\n        /* \"#utility.yul\":5773:5799   */\n      swap1\n      pop\n        /* \"#utility.yul\":5845:5854   */\n      dup2\n        /* \"#utility.yul\":5839:5843   */\n      dup2\n        /* \"#utility.yul\":5835:5855   */\n      sub\n        /* \"#utility.yul\":5831:5832   */\n      0x00\n        /* \"#utility.yul\":5820:5829   */\n      dup4\n        /* \"#utility.yul\":5816:5833   */\n      add\n        /* \"#utility.yul\":5809:5856   */\n      mstore\n        /* \"#utility.yul\":5873:6004   */\n      tag_276\n        /* \"#utility.yul\":5999:6003   */\n      dup2\n        /* \"#utility.yul\":5873:6004   */\n      tag_194\n      jump\t// in\n    tag_276:\n        /* \"#utility.yul\":5865:6004   */\n      swap1\n      pop\n        /* \"#utility.yul\":5592:6011   */\n      swap2\n      swap1\n      pop\n      jump\t// out\n        /* \"#utility.yul\":6017:6116   */\n    tag_195:\n        /* \"#utility.yul\":6069:6075   */\n      0x00\n        /* \"#utility.yul\":6103:6108   */\n      dup2\n        /* \"#utility.yul\":6097:6109   */\n      mload\n        /* \"#utility.yul\":6087:6109   */\n      swap1\n      pop\n        /* \"#utility.yul\":6017:6116   */\n      swap2\n      swap1\n      pop\n      jump\t// out\n        /* \"#utility.yul\":6122:6429   */\n    tag_196:\n        /* \"#utility.yul\":6190:6191   */\n      0x00\n        /* \"#utility.yul\":6200:6313   */\n    tag_279:\n        /* \"#utility.yul\":6214:6220   */\n      dup4\n        /* \"#utility.yul\":6211:6212   */\n      dup2\n        /* \"#utility.yul\":6208:6221   */\n      lt\n        /* \"#utility.yul\":6200:6313   */\n      iszero\n      tag_281\n      jumpi\n        /* \"#utility.yul\":6299:6300   */\n      dup1\n        /* \"#utility.yul\":6294:6297   */\n      dup3\n        /* \"#utility.yul\":6290:6301   */\n      add\n        /* \"#utility.yul\":6284:6302   */\n      mload\n        /* \"#utility.yul\":6280:6281   */\n      dup2\n        /* \"#utility.yul\":6275:6278   */\n      dup5\n        /* \"#utility.yul\":6271:6282   */\n      add\n        /* \"#utility.yul\":6264:6303   */\n      mstore\n        /* \"#utility.yul\":6236:6238   */\n      0x20\n        /* \"#utility.yul\":6233:6234   */\n      dup2\n        /* \"#utility.yul\":6229:6239   */\n      add\n        /* \"#utility.yul\":6224:6239   */\n      swap1\n      pop\n        /* \"#utility.yul\":6200:6313   */\n      jump(tag_279)\n    tag_281:\n        /* \"#utility.yul\":6331:6337   */\n      dup4\n        /* \"#utility.yul\":6328:6329   */\n      dup2\n        /* \"#utility.yul\":6325:6338   */\n      gt\n        /* \"#utility.yul\":6322:6423   */\n      iszero\n      tag_282\n      jumpi\n        /* \"#utility.yul\":6411:6412   */\n      0x00\n        /* \"#utility.yul\":6402:6408   */\n      dup5\n        /* \"#utility.yul\":6397:6400   */\n      dup5\n        /* \"#utility.yul\":6393:6409   */\n      add\n        /* \"#utility.yul\":6386:6413   */\n      mstore\n        /* \"#utility.yul\":6322:6423   */\n    tag_282:\n        /* \"#utility.yul\":6171:6429   */\n      pop\n        /* \"#utility.yul\":6122:6429   */\n      pop\n      pop\n      pop\n      jump\t// out\n        /* \"#utility.yul\":6435:6537   */\n    tag_197:\n        /* \"#utility.yul\":6476:6482   */\n      0x00\n        /* \"#utility.yul\":6527:6529   */\n      0x1f\n        /* \"#utility.yul\":6523:6530   */\n      not\n        /* \"#utility.yul\":6518:6520   */\n      0x1f\n        /* \"#utility.yul\":6511:6516   */\n      dup4\n        /* \"#utility.yul\":6507:6521   */\n      add\n        /* \"#utility.yul\":6503:6531   */\n      and\n        /* \"#utility.yul\":6493:6531   */\n      swap1\n      pop\n        /* \"#utility.yul\":6435:6537   */\n      swap2\n      swap1\n      pop\n      jump\t// out\n        /* \"#utility.yul\":6543:6907   */\n    tag_198:\n        /* \"#utility.yul\":6631:6634   */\n      0x00\n        /* \"#utility.yul\":6659:6698   */\n      tag_285\n        /* \"#utility.yul\":6692:6697   */\n      dup3\n        /* \"#utility.yul\":6659:6698   */\n      tag_195\n      jump\t// in\n    tag_285:\n        /* \"#utility.yul\":6714:6785   */\n      tag_286\n        /* \"#utility.yul\":6778:6784   */\n      dup2\n        /* \"#utility.yul\":6773:6776   */\n      dup6\n        /* \"#utility.yul\":6714:6785   */\n      tag_192\n      jump\t// in\n    tag_286:\n        /* \"#utility.yul\":6707:6785   */\n      swap4\n      pop\n        /* \"#utility.yul\":6794:6846   */\n      tag_287\n        /* \"#utility.yul\":6839:6845   */\n      dup2\n        /* \"#utility.yul\":6834:6837   */\n      dup6\n        /* \"#utility.yul\":6827:6831   */\n      0x20\n        /* \"#utility.yul\":6820:6825   */\n      dup7\n        /* \"#utility.yul\":6816:6832   */\n      add\n        /* \"#utility.yul\":6794:6846   */\n      tag_196\n      jump\t// in\n    tag_287:\n        /* \"#utility.yul\":6871:6900   */\n      tag_288\n        /* \"#utility.yul\":6893:6899   */\n      dup2\n        /* \"#utility.yul\":6871:6900   */\n      tag_197\n      jump\t// in\n    tag_288:\n        /* \"#utility.yul\":6866:6869   */\n      dup5\n        /* \"#utility.yul\":6862:6901   */\n      add\n        /* \"#utility.yul\":6855:6901   */\n      swap2\n      pop\n        /* \"#utility.yul\":6635:6907   */\n      pop\n        /* \"#utility.yul\":6543:6907   */\n      swap3\n      swap2\n      pop\n      pop\n      jump\t// out\n        /* \"#utility.yul\":6913:7226   */\n    tag_79:\n        /* \"#utility.yul\":7026:7030   */\n      0x00\n        /* \"#utility.yul\":7064:7066   */\n      0x20\n        /* \"#utility.yul\":7053:7062   */\n      dup3\n        /* \"#utility.yul\":7049:7067   */\n      add\n        /* \"#utility.yul\":7041:7067   */\n      swap1\n      pop\n        /* \"#utility.yul\":7113:7122   */\n      dup2\n        /* \"#utility.yul\":7107:7111   */\n      dup2\n        /* \"#utility.yul\":7103:7123   */\n      sub\n        /* \"#utility.yul\":7099:7100   */\n      0x00\n        /* \"#utility.yul\":7088:7097   */\n      dup4\n        /* \"#utility.yul\":7084:7101   */\n      add\n        /* \"#utility.yul\":7077:7124   */\n      mstore\n        /* \"#utility.yul\":7141:7219   */\n      tag_290\n        /* \"#utility.yul\":7214:7218   */\n      dup2\n        /* \"#utility.yul\":7205:7211   */\n      dup5\n        /* \"#utility.yul\":7141:7219   */\n      tag_198\n      jump\t// in\n    tag_290:\n        /* \"#utility.yul\":7133:7219   */\n      swap1\n      pop\n        /* \"#utility.yul\":6913:7226   */\n      swap3\n      swap2\n      pop\n      pop\n      jump\t// out\n        /* \"#utility.yul\":7232:7375   */\n    tag_199:\n        /* \"#utility.yul\":7289:7294   */\n      0x00\n        /* \"#utility.yul\":7320:7326   */\n      dup2\n        /* \"#utility.yul\":7314:7327   */\n      mload\n        /* \"#utility.yul\":7305:7327   */\n      swap1\n      pop\n        /* \"#utility.yul\":7336:7369   */\n      tag_292\n        /* \"#utility.yul\":7363:7368   */\n      dup2\n        /* \"#utility.yul\":7336:7369   */\n      tag_177\n      jump\t// in\n    tag_292:\n        /* \"#utility.yul\":7232:7375   */\n      swap3\n      swap2\n      pop\n      pop\n      jump\t// out\n        /* \"#utility.yul\":7381:7732   */\n    tag_96:\n        /* \"#utility.yul\":7451:7457   */\n      0x00\n        /* \"#utility.yul\":7500:7502   */\n      0x20\n        /* \"#utility.yul\":7488:7497   */\n      dup3\n        /* \"#utility.yul\":7479:7486   */\n      dup5\n        /* \"#utility.yul\":7475:7498   */\n      sub\n        /* \"#utility.yul\":7471:7503   */\n      slt\n        /* \"#utility.yul\":7468:7587   */\n      iszero\n      tag_294\n      jumpi\n        /* \"#utility.yul\":7506:7585   */\n      tag_295\n      tag_174\n      jump\t// in\n    tag_295:\n        /* \"#utility.yul\":7468:7587   */\n    tag_294:\n        /* \"#utility.yul\":7626:7627   */\n      0x00\n        /* \"#utility.yul\":7651:7715   */\n      tag_296\n        /* \"#utility.yul\":7707:7714   */\n      dup5\n        /* \"#utility.yul\":7698:7704   */\n      dup3\n        /* \"#utility.yul\":7687:7696   */\n      dup6\n        /* \"#utility.yul\":7683:7705   */\n      add\n        /* \"#utility.yul\":7651:7715   */\n      tag_199\n      jump\t// in\n    tag_296:\n        /* \"#utility.yul\":7641:7715   */\n      swap2\n      pop\n        /* \"#utility.yul\":7597:7725   */\n      pop\n        /* \"#utility.yul\":7381:7732   */\n      swap3\n      swap2\n      pop\n      pop\n      jump\t// out\n        /* \"#utility.yul\":7738:8070   */\n    tag_101:\n        /* \"#utility.yul\":7859:7863   */\n      0x00\n        /* \"#utility.yul\":7897:7899   */\n      0x40\n        /* \"#utility.yul\":7886:7895   */\n      dup3\n        /* \"#utility.yul\":7882:7900   */\n      add\n        /* \"#utility.yul\":7874:7900   */\n      swap1\n      pop\n        /* \"#utility.yul\":7910:7981   */\n      tag_298\n        /* \"#utility.yul\":7978:7979   */\n      0x00\n        /* \"#utility.yul\":7967:7976   */\n      dup4\n        /* \"#utility.yul\":7963:7980   */\n      add\n        /* \"#utility.yul\":7954:7960   */\n      dup6\n        /* \"#utility.yul\":7910:7981   */\n      tag_184\n      jump\t// in\n    tag_298:\n        /* \"#utility.yul\":7991:8063   */\n      tag_299\n        /* \"#utility.yul\":8059:8061   */\n      0x20\n        /* \"#utility.yul\":8048:8057   */\n      dup4\n        /* \"#utility.yul\":8044:8062   */\n      add\n        /* \"#utility.yul\":8035:8041   */\n      dup5\n        /* \"#utility.yul\":7991:8063   */\n      tag_179\n      jump\t// in\n    tag_299:\n        /* \"#utility.yul\":7738:8070   */\n      swap4\n      swap3\n      pop\n      pop\n      pop\n      jump\t// out\n        /* \"#utility.yul\":8076:8192   */\n    tag_200:\n        /* \"#utility.yul\":8146:8167   */\n      tag_301\n        /* \"#utility.yul\":8161:8166   */\n      dup2\n        /* \"#utility.yul\":8146:8167   */\n      tag_185\n      jump\t// in\n    tag_301:\n        /* \"#utility.yul\":8139:8144   */\n      dup2\n        /* \"#utility.yul\":8136:8168   */\n      eq\n        /* \"#utility.yul\":8126:8186   */\n      tag_302\n      jumpi\n        /* \"#utility.yul\":8182:8183   */\n      0x00\n        /* \"#utility.yul\":8179:8180   */\n      dup1\n        /* \"#utility.yul\":8172:8184   */\n      revert\n        /* \"#utility.yul\":8126:8186   */\n    tag_302:\n        /* \"#utility.yul\":8076:8192   */\n      pop\n      jump\t// out\n        /* \"#utility.yul\":8198:8335   */\n    tag_201:\n        /* \"#utility.yul\":8252:8257   */\n      0x00\n        /* \"#utility.yul\":8283:8289   */\n      dup2\n        /* \"#utility.yul\":8277:8290   */\n      mload\n        /* \"#utility.yul\":8268:8290   */\n      swap1\n      pop\n        /* \"#utility.yul\":8299:8329   */\n      tag_304\n        /* \"#utility.yul\":8323:8328   */\n      dup2\n        /* \"#utility.yul\":8299:8329   */\n      tag_200\n      jump\t// in\n    tag_304:\n        /* \"#utility.yul\":8198:8335   */\n      swap3\n      swap2\n      pop\n      pop\n      jump\t// out\n        /* \"#utility.yul\":8341:8686   */\n    tag_105:\n        /* \"#utility.yul\":8408:8414   */\n      0x00\n        /* \"#utility.yul\":8457:8459   */\n      0x20\n        /* \"#utility.yul\":8445:8454   */\n      dup3\n        /* \"#utility.yul\":8436:8443   */\n      dup5\n        /* \"#utility.yul\":8432:8455   */\n      sub\n        /* \"#utility.yul\":8428:8460   */\n      slt\n        /* \"#utility.yul\":8425:8544   */\n      iszero\n      tag_306\n      jumpi\n        /* \"#utility.yul\":8463:8542   */\n      tag_307\n      tag_174\n      jump\t// in\n    tag_307:\n        /* \"#utility.yul\":8425:8544   */\n    tag_306:\n        /* \"#utility.yul\":8583:8584   */\n      0x00\n        /* \"#utility.yul\":8608:8669   */\n      tag_308\n        /* \"#utility.yul\":8661:8668   */\n      dup5\n        /* \"#utility.yul\":8652:8658   */\n      dup3\n        /* \"#utility.yul\":8641:8650   */\n      dup6\n        /* \"#utility.yul\":8637:8659   */\n      add\n        /* \"#utility.yul\":8608:8669   */\n      tag_201\n      jump\t// in\n    tag_308:\n        /* \"#utility.yul\":8598:8669   */\n      swap2\n      pop\n        /* \"#utility.yul\":8554:8679   */\n      pop\n        /* \"#utility.yul\":8341:8686   */\n      swap3\n      swap2\n      pop\n      pop\n      jump\t// out\n        /* \"#utility.yul\":8692:8862   */\n    tag_202:\n        /* \"#utility.yul\":8832:8854   */\n      0x496e76616c69642072656c656173652074696d65000000000000000000000000\n        /* \"#utility.yul\":8828:8829   */\n      0x00\n        /* \"#utility.yul\":8820:8826   */\n      dup3\n        /* \"#utility.yul\":8816:8830   */\n      add\n        /* \"#utility.yul\":8809:8855   */\n      mstore\n        /* \"#utility.yul\":8692:8862   */\n      pop\n      jump\t// out\n        /* \"#utility.yul\":8868:9234   */\n    tag_203:\n        /* \"#utility.yul\":9010:9013   */\n      0x00\n        /* \"#utility.yul\":9031:9098   */\n      tag_311\n        /* \"#utility.yul\":9095:9097   */\n      0x14\n        /* \"#utility.yul\":9090:9093   */\n      dup4\n        /* \"#utility.yul\":9031:9098   */\n      tag_192\n      jump\t// in\n    tag_311:\n        /* \"#utility.yul\":9024:9098   */\n      swap2\n      pop\n        /* \"#utility.yul\":9107:9200   */\n      tag_312\n        /* \"#utility.yul\":9196:9199   */\n      dup3\n        /* \"#utility.yul\":9107:9200   */\n      tag_202\n      jump\t// in\n    tag_312:\n        /* \"#utility.yul\":9225:9227   */\n      0x20\n        /* \"#utility.yul\":9220:9223   */\n      dup3\n        /* \"#utility.yul\":9216:9228   */\n      add\n        /* \"#utility.yul\":9209:9228   */\n      swap1\n      pop\n        /* \"#utility.yul\":8868:9234   */\n      swap2\n      swap1\n      pop\n      jump\t// out\n        /* \"#utility.yul\":9240:9659   */\n    tag_117:\n        /* \"#utility.yul\":9406:9410   */\n      0x00\n        /* \"#utility.yul\":9444:9446   */\n      0x20\n        /* \"#utility.yul\":9433:9442   */\n      dup3\n        /* \"#utility.yul\":9429:9447   */\n      add\n        /* \"#utility.yul\":9421:9447   */\n      swap1\n      pop\n        /* \"#utility.yul\":9493:9502   */\n      dup2\n        /* \"#utility.yul\":9487:9491   */\n      dup2\n        /* \"#utility.yul\":9483:9503   */\n      sub\n        /* \"#utility.yul\":9479:9480   */\n      0x00\n        /* \"#utility.yul\":9468:9477   */\n      dup4\n        /* \"#utility.yul\":9464:9481   */\n      add\n        /* \"#utility.yul\":9457:9504   */\n      mstore\n        /* \"#utility.yul\":9521:9652   */\n      tag_314\n        /* \"#utility.yul\":9647:9651   */\n      dup2\n        /* \"#utility.yul\":9521:9652   */\n      tag_203\n      jump\t// in\n    tag_314:\n        /* \"#utility.yul\":9513:9652   */\n      swap1\n      pop\n        /* \"#utility.yul\":9240:9659   */\n      swap2\n      swap1\n      pop\n      jump\t// out\n        /* \"#utility.yul\":9665:9844   */\n    tag_204:\n        /* \"#utility.yul\":9805:9836   */\n      0x416d6f756e74206d7573742062652067726561746572207468656e2030000000\n        /* \"#utility.yul\":9801:9802   */\n      0x00\n        /* \"#utility.yul\":9793:9799   */\n      dup3\n        /* \"#utility.yul\":9789:9803   */\n      add\n        /* \"#utility.yul\":9782:9837   */\n      mstore\n        /* \"#utility.yul\":9665:9844   */\n      pop\n      jump\t// out\n        /* \"#utility.yul\":9850:10216   */\n    tag_205:\n        /* \"#utility.yul\":9992:9995   */\n      0x00\n        /* \"#utility.yul\":10013:10080   */\n      tag_317\n        /* \"#utility.yul\":10077:10079   */\n      0x1d\n        /* \"#utility.yul\":10072:10075   */\n      dup4\n        /* \"#utility.yul\":10013:10080   */\n      tag_192\n      jump\t// in\n    tag_317:\n        /* \"#utility.yul\":10006:10080   */\n      swap2\n      pop\n        /* \"#utility.yul\":10089:10182   */\n      tag_318\n        /* \"#utility.yul\":10178:10181   */\n      dup3\n        /* \"#utility.yul\":10089:10182   */\n      tag_204\n      jump\t// in\n    tag_318:\n        /* \"#utility.yul\":10207:10209   */\n      0x20\n        /* \"#utility.yul\":10202:10205   */\n      dup3\n        /* \"#utility.yul\":10198:10210   */\n      add\n        /* \"#utility.yul\":10191:10210   */\n      swap1\n      pop\n        /* \"#utility.yul\":9850:10216   */\n      swap2\n      swap1\n      pop\n      jump\t// out\n        /* \"#utility.yul\":10222:10641   */\n    tag_120:\n        /* \"#utility.yul\":10388:10392   */\n      0x00\n        /* \"#utility.yul\":10426:10428   */\n      0x20\n        /* \"#utility.yul\":10415:10424   */\n      dup3\n        /* \"#utility.yul\":10411:10429   */\n      add\n        /* \"#utility.yul\":10403:10429   */\n      swap1\n      pop\n        /* \"#utility.yul\":10475:10484   */\n      dup2\n        /* \"#utility.yul\":10469:10473   */\n      dup2\n        /* \"#utility.yul\":10465:10485   */\n      sub\n        /* \"#utility.yul\":10461:10462   */\n      0x00\n        /* \"#utility.yul\":10450:10459   */\n      dup4\n        /* \"#utility.yul\":10446:10463   */\n      add\n        /* \"#utility.yul\":10439:10486   */\n      mstore\n        /* \"#utility.yul\":10503:10634   */\n      tag_320\n        /* \"#utility.yul\":10629:10633   */\n      dup2\n        /* \"#utility.yul\":10503:10634   */\n      tag_205\n      jump\t// in\n    tag_320:\n        /* \"#utility.yul\":10495:10634   */\n      swap1\n      pop\n        /* \"#utility.yul\":10222:10641   */\n      swap2\n      swap1\n      pop\n      jump\t// out\n        /* \"#utility.yul\":10647:10872   */\n    tag_206:\n        /* \"#utility.yul\":10787:10821   */\n      0x4f776e61626c653a206e6577206f776e657220697320746865207a65726f2061\n        /* \"#utility.yul\":10783:10784   */\n      0x00\n        /* \"#utility.yul\":10775:10781   */\n      dup3\n        /* \"#utility.yul\":10771:10785   */\n      add\n        /* \"#utility.yul\":10764:10822   */\n      mstore\n        /* \"#utility.yul\":10856:10864   */\n      0x6464726573730000000000000000000000000000000000000000000000000000\n        /* \"#utility.yul\":10851:10853   */\n      0x20\n        /* \"#utility.yul\":10843:10849   */\n      dup3\n        /* \"#utility.yul\":10839:10854   */\n      add\n        /* \"#utility.yul\":10832:10865   */\n      mstore\n        /* \"#utility.yul\":10647:10872   */\n      pop\n      jump\t// out\n        /* \"#utility.yul\":10878:11244   */\n    tag_207:\n        /* \"#utility.yul\":11020:11023   */\n      0x00\n        /* \"#utility.yul\":11041:11108   */\n      tag_323\n        /* \"#utility.yul\":11105:11107   */\n      0x26\n        /* \"#utility.yul\":11100:11103   */\n      dup4\n        /* \"#utility.yul\":11041:11108   */\n      tag_192\n      jump\t// in\n    tag_323:\n        /* \"#utility.yul\":11034:11108   */\n      swap2\n      pop\n        /* \"#utility.yul\":11117:11210   */\n      tag_324\n        /* \"#utility.yul\":11206:11209   */\n      dup3\n        /* \"#utility.yul\":11117:11210   */\n      tag_206\n      jump\t// in\n    tag_324:\n        /* \"#utility.yul\":11235:11237   */\n      0x40\n        /* \"#utility.yul\":11230:11233   */\n      dup3\n        /* \"#utility.yul\":11226:11238   */\n      add\n        /* \"#utility.yul\":11219:11238   */\n      swap1\n      pop\n        /* \"#utility.yul\":10878:11244   */\n      swap2\n      swap1\n      pop\n      jump\t// out\n        /* \"#utility.yul\":11250:11669   */\n    tag_162:\n        /* \"#utility.yul\":11416:11420   */\n      0x00\n        /* \"#utility.yul\":11454:11456   */\n      0x20\n        /* \"#utility.yul\":11443:11452   */\n      dup3\n        /* \"#utility.yul\":11439:11457   */\n      add\n        /* \"#utility.yul\":11431:11457   */\n      swap1\n      pop\n        /* \"#utility.yul\":11503:11512   */\n      dup2\n        /* \"#utility.yul\":11497:11501   */\n      dup2\n        /* \"#utility.yul\":11493:11513   */\n      sub\n        /* \"#utility.yul\":11489:11490   */\n      0x00\n        /* \"#utility.yul\":11478:11487   */\n      dup4\n        /* \"#utility.yul\":11474:11491   */\n      add\n        /* \"#utility.yul\":11467:11514   */\n      mstore\n        /* \"#utility.yul\":11531:11662   */\n      tag_326\n        /* \"#utility.yul\":11657:11661   */\n      dup2\n        /* \"#utility.yul\":11531:11662   */\n      tag_207\n      jump\t// in\n    tag_326:\n        /* \"#utility.yul\":11523:11662   */\n      swap1\n      pop\n        /* \"#utility.yul\":11250:11669   */\n      swap2\n      swap1\n      pop\n      jump\t// out\n        /* \"#utility.yul\":11675:11855   */\n    tag_208:\n        /* \"#utility.yul\":11723:11800   */\n      0x4e487b7100000000000000000000000000000000000000000000000000000000\n        /* \"#utility.yul\":11720:11721   */\n      0x00\n        /* \"#utility.yul\":11713:11801   */\n      mstore\n        /* \"#utility.yul\":11820:11824   */\n      0x11\n        /* \"#utility.yul\":11817:11818   */\n      0x04\n        /* \"#utility.yul\":11810:11825   */\n      mstore\n        /* \"#utility.yul\":11844:11848   */\n      0x24\n        /* \"#utility.yul\":11841:11842   */\n      0x00\n        /* \"#utility.yul\":11834:11849   */\n      revert\n        /* \"#utility.yul\":11861:12052   */\n    tag_168:\n        /* \"#utility.yul\":11901:11905   */\n      0x00\n        /* \"#utility.yul\":11921:11941   */\n      tag_329\n        /* \"#utility.yul\":11939:11940   */\n      dup3\n        /* \"#utility.yul\":11921:11941   */\n      tag_176\n      jump\t// in\n    tag_329:\n        /* \"#utility.yul\":11916:11941   */\n      swap2\n      pop\n        /* \"#utility.yul\":11955:11975   */\n      tag_330\n        /* \"#utility.yul\":11973:11974   */\n      dup4\n        /* \"#utility.yul\":11955:11975   */\n      tag_176\n      jump\t// in\n    tag_330:\n        /* \"#utility.yul\":11950:11975   */\n      swap3\n      pop\n        /* \"#utility.yul\":11994:11995   */\n      dup3\n        /* \"#utility.yul\":11991:11992   */\n      dup3\n        /* \"#utility.yul\":11988:11996   */\n      lt\n        /* \"#utility.yul\":11985:12019   */\n      iszero\n      tag_331\n      jumpi\n        /* \"#utility.yul\":11999:12017   */\n      tag_332\n      tag_208\n      jump\t// in\n    tag_332:\n        /* \"#utility.yul\":11985:12019   */\n    tag_331:\n        /* \"#utility.yul\":12044:12045   */\n      dup3\n        /* \"#utility.yul\":12041:12042   */\n      dup3\n        /* \"#utility.yul\":12037:12046   */\n      sub\n        /* \"#utility.yul\":12029:12046   */\n      swap1\n      pop\n        /* \"#utility.yul\":11861:12052   */\n      swap3\n      swap2\n      pop\n      pop\n      jump\t// out\n        /* \"#utility.yul\":12058:12363   */\n    tag_171:\n        /* \"#utility.yul\":12098:12101   */\n      0x00\n        /* \"#utility.yul\":12117:12137   */\n      tag_334\n        /* \"#utility.yul\":12135:12136   */\n      dup3\n        /* \"#utility.yul\":12117:12137   */\n      tag_176\n      jump\t// in\n    tag_334:\n        /* \"#utility.yul\":12112:12137   */\n      swap2\n      pop\n        /* \"#utility.yul\":12151:12171   */\n      tag_335\n        /* \"#utility.yul\":12169:12170   */\n      dup4\n        /* \"#utility.yul\":12151:12171   */\n      tag_176\n      jump\t// in\n    tag_335:\n        /* \"#utility.yul\":12146:12171   */\n      swap3\n      pop\n        /* \"#utility.yul\":12305:12306   */\n      dup3\n        /* \"#utility.yul\":12237:12303   */\n      0xffffffffffffffffffffffffffffffffffffffffffffffffffffffffffffffff\n        /* \"#utility.yul\":12233:12307   */\n      sub\n        /* \"#utility.yul\":12230:12231   */\n      dup3\n        /* \"#utility.yul\":12227:12308   */\n      gt\n        /* \"#utility.yul\":12224:12331   */\n      iszero\n      tag_336\n      jumpi\n        /* \"#utility.yul\":12311:12329   */\n      tag_337\n      tag_208\n      jump\t// in\n    tag_337:\n        /* \"#utility.yul\":12224:12331   */\n    tag_336:\n        /* \"#utility.yul\":12355:12356   */\n      dup3\n        /* \"#utility.yul\":12352:12353   */\n      dup3\n        /* \"#utility.yul\":12348:12357   */\n      add\n        /* \"#utility.yul\":12341:12357   */\n      swap1\n      pop\n        /* \"#utility.yul\":12058:12363   */\n      swap3\n      swap2\n      pop\n      pop\n      jump\t// out\n\n    auxdata: 0xa264697066735822122064c8d6d362f60b49a9fd680c04b7f28227b39d338599439849b7df3d3c0141ae64736f6c634300080d0033\n}\n",
				"bytecode": {
					"linkReferences": {},
					"object": "6080604052600060025560006003553480156200001b57600080fd5b5060405162001cc038038062001cc0833981810160405281019062000041919062000265565b62000061620000556200011b60201b60201c565b6200012360201b60201c565b600073ffffffffffffffffffffffffffffffffffffffff168173ffffffffffffffffffffffffffffffffffffffff1603620000d3576040517f08c379a0000000000000000000000000000000000000000000000000000000008152600401620000ca906200031e565b60405180910390fd5b80600160006101000a81548173ffffffffffffffffffffffffffffffffffffffff021916908373ffffffffffffffffffffffffffffffffffffffff1602179055505062000340565b600033905090565b60008060009054906101000a900473ffffffffffffffffffffffffffffffffffffffff169050816000806101000a81548173ffffffffffffffffffffffffffffffffffffffff021916908373ffffffffffffffffffffffffffffffffffffffff1602179055508173ffffffffffffffffffffffffffffffffffffffff168173ffffffffffffffffffffffffffffffffffffffff167f8be0079c531659141344cd1fd0a4f28419497f9722a3daafe3b4186f6b6457e060405160405180910390a35050565b600080fd5b600073ffffffffffffffffffffffffffffffffffffffff82169050919050565b60006200021982620001ec565b9050919050565b60006200022d826200020c565b9050919050565b6200023f8162000220565b81146200024b57600080fd5b50565b6000815190506200025f8162000234565b92915050565b6000602082840312156200027e576200027d620001e7565b5b60006200028e848285016200024e565b91505092915050565b600082825260208201905092915050565b7f46726f6e7469657220746f6b656e2061646472657373206973206e6f7420766160008201527f6c69640000000000000000000000000000000000000000000000000000000000602082015250565b60006200030660238362000297565b91506200031382620002a8565b604082019050919050565b600060208201905081810360008301526200033981620002f7565b9050919050565b61197080620003506000396000f3fe608060405234801561001057600080fd5b50600436106100cf5760003560e01c80635daa31601161008c578063821bee7311610066578063821bee73146101fc5780638da5cb5b1461022f578063f2fde38b1461024d578063fc0c546a14610269576100cf565b80635daa3160146101a65780636eb48096146101d6578063715018a6146101f2576100cf565b806307ad23ef146100d457806309c4bb2b146101045780631bcde4ec1461013457806337bdc99b146101505780634691a9981461016c578063557ed1ba14610188575b600080fd5b6100ee60048036038101906100e991906112f3565b610287565b6040516100fb919061132f565b60405180910390f35b61011e600480360381019061011991906112f3565b6102a7565b60405161012b919061132f565b60405180910390f35b61014e600480360381019061014991906112f3565b6102c7565b005b61016a600480360381019061016591906112f3565b610569565b005b610186600480360381019061018191906113a8565b6109f3565b005b610190610cf7565b60405161019d919061132f565b60405180910390f35b6101c060048036038101906101bb91906112f3565b610cff565b6040516101cd919061140a565b60405180910390f35b6101f060048036038101906101eb91906112f3565b610d3f565b005b6101fa610f91565b005b610216600480360381019061021191906112f3565b611019565b6040516102269493929190611440565b60405180910390f35b610237611076565b604051610244919061140a565b60405180910390f35b61026760048036038101906102629190611485565b61109f565b005b610271611196565b60405161027e9190611511565b60405180910390f35b600060046000838152602001908152602001600020600101549050919050565b600060046000838152602001908152602001600020600001549050919050565b6102cf6111c0565b73ffffffffffffffffffffffffffffffffffffffff166102ed611076565b73ffffffffffffffffffffffffffffffffffffffff1614610343576040517f08c379a000000000000000000000000000000000000000000000000000000000815260040161033a90611589565b60405180910390fd5b6000600460008381526020019081526020016000209050600073ffffffffffffffffffffffffffffffffffffffff168160020160009054906101000a900473ffffffffffffffffffffffffffffffffffffffff1673ffffffffffffffffffffffffffffffffffffffff1614156040518060400160405280601281526020017f496e76616c69642076657374696e67206964000000000000000000000000000081525090610426576040517f08c379a000000000000000000000000000000000000000000000000000000000815260040161041d9190611631565b60405180910390fd5b508060020160149054906101000a900460ff16156040518060400160405280601881526020017f56657374696e6720616c72656164792072656c65617365640000000000000000815250906104b1576040517f08c379a00000000000000000000000000000000000000000000000000000000081526004016104a89190611631565b60405180910390fd5b5060018160020160146101000a81548160ff0219169083151502179055506104e881600101546002546111c890919063ffffffff16565b6002819055508060020160009054906101000a900473ffffffffffffffffffffffffffffffffffffffff1673ffffffffffffffffffffffffffffffffffffffff16827fdc8b9c8cc0c8d05e10824e69ee88995716a539af94a1c60fb9898367f613477c836001015460405161055d919061132f565b60405180910390a35050565b6000600460008381526020019081526020016000209050600073ffffffffffffffffffffffffffffffffffffffff168160020160009054906101000a900473ffffffffffffffffffffffffffffffffffffffff1673ffffffffffffffffffffffffffffffffffffffff1614156040518060400160405280601281526020017f496e76616c69642076657374696e6720696400000000000000000000000000008152509061064c576040517f08c379a00000000000000000000000000000000000000000000000000000000081526004016106439190611631565b60405180910390fd5b508060020160149054906101000a900460ff16156040518060400160405280601881526020017f56657374696e6720616c72656164792072656c65617365640000000000000000815250906106d7576040517f08c379a00000000000000000000000000000000000000000000000000000000081526004016106ce9190611631565b60405180910390fd5b5080600001544210156040518060400160405280601a81526020017f546f6b656e732068617665206e6f74207665737465642079657400000000000081525090610757576040517f08c379a000000000000000000000000000000000000000000000000000000000815260040161074e9190611631565b60405180910390fd5b508060010154600160009054906101000a900473ffffffffffffffffffffffffffffffffffffffff1673ffffffffffffffffffffffffffffffffffffffff166370a08231306040518263ffffffff1660e01b81526004016107b8919061140a565b602060405180830381865afa1580156107d5573d6000803e3d6000fd5b505050506040513d601f19601f820116820180604052508101906107f99190611668565b10156040518060400160405280601481526020017f496e73756666696369656e742062616c616e636500000000000000000000000081525090610872576040517f08c379a00000000000000000000000000000000000000000000000000000000081526004016108699190611631565b60405180910390fd5b5060018160020160146101000a81548160ff0219169083151502179055506108a981600101546002546111c890919063ffffffff16565b600281905550600160009054906101000a900473ffffffffffffffffffffffffffffffffffffffff1673ffffffffffffffffffffffffffffffffffffffff1663a9059cbb8260020160009054906101000a900473ffffffffffffffffffffffffffffffffffffffff1683600101546040518363ffffffff1660e01b8152600401610934929190611695565b6020604051808303816000875af1158015610953573d6000803e3d6000fd5b505050506040513d601f19601f8201168201806040525081019061097791906116ea565b508060020160009054906101000a900473ffffffffffffffffffffffffffffffffffffffff1673ffffffffffffffffffffffffffffffffffffffff16827f295ac83a3c5cf518a125ba974be97dca6a668bae6dd90b6902b2618cdff1fcc683600101546040516109e7919061132f565b60405180910390a35050565b6109fb6111c0565b73ffffffffffffffffffffffffffffffffffffffff16610a19611076565b73ffffffffffffffffffffffffffffffffffffffff1614610a6f576040517f08c379a0000000000000000000000000000000000000000000000000000000008152600401610a6690611589565b60405180910390fd5b600073ffffffffffffffffffffffffffffffffffffffff168373ffffffffffffffffffffffffffffffffffffffff1614156040518060400160405280601b81526020017f496e76616c69642062656e65666963696172792061646472657373000000000081525090610b17576040517f08c379a0000000000000000000000000000000000000000000000000000000008152600401610b0e9190611631565b60405180910390fd5b50428211610b5a576040517f08c379a0000000000000000000000000000000000000000000000000000000008152600401610b5190611763565b60405180910390fd5b60008103610b9d576040517f08c379a0000000000000000000000000000000000000000000000000000000008152600401610b94906117cf565b60405180910390fd5b610bb2816002546111de90919063ffffffff16565b600281905550610bce60016003546111de90919063ffffffff16565b60038190555060405180608001604052808381526020018281526020018473ffffffffffffffffffffffffffffffffffffffff16815260200160001515815250600460006003548152602001908152602001600020600082015181600001556020820151816001015560408201518160020160006101000a81548173ffffffffffffffffffffffffffffffffffffffff021916908373ffffffffffffffffffffffffffffffffffffffff16021790555060608201518160020160146101000a81548160ff0219169083151502179055509050508273ffffffffffffffffffffffffffffffffffffffff166003547ffbd41c6118c5ed14f196c270a1793d95e8517e43031d9bb61aa71cb2a38bf55783604051610cea919061132f565b60405180910390a3505050565b600042905090565b60006004600083815260200190815260200160002060020160009054906101000a900473ffffffffffffffffffffffffffffffffffffffff169050919050565b610d476111c0565b73ffffffffffffffffffffffffffffffffffffffff16610d65611076565b73ffffffffffffffffffffffffffffffffffffffff1614610dbb576040517f08c379a0000000000000000000000000000000000000000000000000000000008152600401610db290611589565b60405180910390fd5b610e6b600254600160009054906101000a900473ffffffffffffffffffffffffffffffffffffffff1673ffffffffffffffffffffffffffffffffffffffff166370a08231306040518263ffffffff1660e01b8152600401610e1c919061140a565b602060405180830381865afa158015610e39573d6000803e3d6000fd5b505050506040513d601f19601f82011682018060405250810190610e5d9190611668565b6111c890919063ffffffff16565b8111156040518060400160405280601481526020017f496e73756666696369656e742062616c616e636500000000000000000000000081525090610ee5576040517f08c379a0000000000000000000000000000000000000000000000000000000008152600401610edc9190611631565b60405180910390fd5b50600160009054906101000a900473ffffffffffffffffffffffffffffffffffffffff1673ffffffffffffffffffffffffffffffffffffffff1663a9059cbb610f2c611076565b836040518363ffffffff1660e01b8152600401610f4a929190611695565b6020604051808303816000875af1158015610f69573d6000803e3d6000fd5b505050506040513d601f19601f82011682018060405250810190610f8d91906116ea565b5050565b610f996111c0565b73ffffffffffffffffffffffffffffffffffffffff16610fb7611076565b73ffffffffffffffffffffffffffffffffffffffff161461100d576040517f08c379a000000000000000000000000000000000000000000000000000000000815260040161100490611589565b60405180910390fd5b61101760006111f4565b565b60046020528060005260406000206000915090508060000154908060010154908060020160009054906101000a900473ffffffffffffffffffffffffffffffffffffffff16908060020160149054906101000a900460ff16905084565b60008060009054906101000a900473ffffffffffffffffffffffffffffffffffffffff16905090565b6110a76111c0565b73ffffffffffffffffffffffffffffffffffffffff166110c5611076565b73ffffffffffffffffffffffffffffffffffffffff161461111b576040517f08c379a000000000000000000000000000000000000000000000000000000000815260040161111290611589565b60405180910390fd5b600073ffffffffffffffffffffffffffffffffffffffff168173ffffffffffffffffffffffffffffffffffffffff160361118a576040517f08c379a000000000000000000000000000000000000000000000000000000000815260040161118190611861565b60405180910390fd5b611193816111f4565b50565b6000600160009054906101000a900473ffffffffffffffffffffffffffffffffffffffff16905090565b600033905090565b600081836111d691906118b0565b905092915050565b600081836111ec91906118e4565b905092915050565b60008060009054906101000a900473ffffffffffffffffffffffffffffffffffffffff169050816000806101000a81548173ffffffffffffffffffffffffffffffffffffffff021916908373ffffffffffffffffffffffffffffffffffffffff1602179055508173ffffffffffffffffffffffffffffffffffffffff168173ffffffffffffffffffffffffffffffffffffffff167f8be0079c531659141344cd1fd0a4f28419497f9722a3daafe3b4186f6b6457e060405160405180910390a35050565b600080fd5b6000819050919050565b6112d0816112bd565b81146112db57600080fd5b50565b6000813590506112ed816112c7565b92915050565b600060208284031215611309576113086112b8565b5b6000611317848285016112de565b91505092915050565b611329816112bd565b82525050565b60006020820190506113446000830184611320565b92915050565b600073ffffffffffffffffffffffffffffffffffffffff82169050919050565b60006113758261134a565b9050919050565b6113858161136a565b811461139057600080fd5b50565b6000813590506113a28161137c565b92915050565b6000806000606084860312156113c1576113c06112b8565b5b60006113cf86828701611393565b93505060206113e0868287016112de565b92505060406113f1868287016112de565b9150509250925092565b6114048161136a565b82525050565b600060208201905061141f60008301846113fb565b92915050565b60008115159050919050565b61143a81611425565b82525050565b60006080820190506114556000830187611320565b6114626020830186611320565b61146f60408301856113fb565b61147c6060830184611431565b95945050505050565b60006020828403121561149b5761149a6112b8565b5b60006114a984828501611393565b91505092915050565b6000819050919050565b60006114d76114d26114cd8461134a565b6114b2565b61134a565b9050919050565b60006114e9826114bc565b9050919050565b60006114fb826114de565b9050919050565b61150b816114f0565b82525050565b60006020820190506115266000830184611502565b92915050565b600082825260208201905092915050565b7f4f776e61626c653a2063616c6c6572206973206e6f7420746865206f776e6572600082015250565b600061157360208361152c565b915061157e8261153d565b602082019050919050565b600060208201905081810360008301526115a281611566565b9050919050565b600081519050919050565b60005b838110156115d25780820151818401526020810190506115b7565b838111156115e1576000848401525b50505050565b6000601f19601f8301169050919050565b6000611603826115a9565b61160d818561152c565b935061161d8185602086016115b4565b611626816115e7565b840191505092915050565b6000602082019050818103600083015261164b81846115f8565b905092915050565b600081519050611662816112c7565b92915050565b60006020828403121561167e5761167d6112b8565b5b600061168c84828501611653565b91505092915050565b60006040820190506116aa60008301856113fb565b6116b76020830184611320565b9392505050565b6116c781611425565b81146116d257600080fd5b50565b6000815190506116e4816116be565b92915050565b600060208284031215611700576116ff6112b8565b5b600061170e848285016116d5565b91505092915050565b7f496e76616c69642072656c656173652074696d65000000000000000000000000600082015250565b600061174d60148361152c565b915061175882611717565b602082019050919050565b6000602082019050818103600083015261177c81611740565b9050919050565b7f416d6f756e74206d7573742062652067726561746572207468656e2030000000600082015250565b60006117b9601d8361152c565b91506117c482611783565b602082019050919050565b600060208201905081810360008301526117e8816117ac565b9050919050565b7f4f776e61626c653a206e6577206f776e657220697320746865207a65726f206160008201527f6464726573730000000000000000000000000000000000000000000000000000602082015250565b600061184b60268361152c565b9150611856826117ef565b604082019050919050565b6000602082019050818103600083015261187a8161183e565b9050919050565b7f4e487b7100000000000000000000000000000000000000000000000000000000600052601160045260246000fd5b60006118bb826112bd565b91506118c6836112bd565b9250828210156118d9576118d8611881565b5b828203905092915050565b60006118ef826112bd565b91506118fa836112bd565b9250827fffffffffffffffffffffffffffffffffffffffffffffffffffffffffffffffff0382111561192f5761192e611881565b5b82820190509291505056fea264697066735822122064c8d6d362f60b49a9fd680c04b7f28227b39d338599439849b7df3d3c0141ae64736f6c634300080d0033",
					"opcodes": "PUSH1 0x80 PUSH1 0x40 MSTORE PUSH1 0x0 PUSH1 0x2 SSTORE PUSH1 0x0 PUSH1 0x3 SSTORE CALLVALUE DUP1 ISZERO PUSH3 0x1B JUMPI PUSH1 0x0 DUP1 REVERT JUMPDEST POP PUSH1 0x40 MLOAD PUSH3 0x1CC0 CODESIZE SUB DUP1 PUSH3 0x1CC0 DUP4 CODECOPY DUP2 DUP2 ADD PUSH1 0x40 MSTORE DUP2 ADD SWAP1 PUSH3 0x41 SWAP2 SWAP1 PUSH3 0x265 JUMP JUMPDEST PUSH3 0x61 PUSH3 0x55 PUSH3 0x11B PUSH1 0x20 SHL PUSH1 0x20 SHR JUMP JUMPDEST PUSH3 0x123 PUSH1 0x20 SHL PUSH1 0x20 SHR JUMP JUMPDEST PUSH1 0x0 PUSH20 0xFFFFFFFFFFFFFFFFFFFFFFFFFFFFFFFFFFFFFFFF AND DUP2 PUSH20 0xFFFFFFFFFFFFFFFFFFFFFFFFFFFFFFFFFFFFFFFF AND SUB PUSH3 0xD3 JUMPI PUSH1 0x40 MLOAD PUSH32 0x8C379A000000000000000000000000000000000000000000000000000000000 DUP2 MSTORE PUSH1 0x4 ADD PUSH3 0xCA SWAP1 PUSH3 0x31E JUMP JUMPDEST PUSH1 0x40 MLOAD DUP1 SWAP2 SUB SWAP1 REVERT JUMPDEST DUP1 PUSH1 0x1 PUSH1 0x0 PUSH2 0x100 EXP DUP2 SLOAD DUP2 PUSH20 0xFFFFFFFFFFFFFFFFFFFFFFFFFFFFFFFFFFFFFFFF MUL NOT AND SWAP1 DUP4 PUSH20 0xFFFFFFFFFFFFFFFFFFFFFFFFFFFFFFFFFFFFFFFF AND MUL OR SWAP1 SSTORE POP POP PUSH3 0x340 JUMP JUMPDEST PUSH1 0x0 CALLER SWAP1 POP SWAP1 JUMP JUMPDEST PUSH1 0x0 DUP1 PUSH1 0x0 SWAP1 SLOAD SWAP1 PUSH2 0x100 EXP SWAP1 DIV PUSH20 0xFFFFFFFFFFFFFFFFFFFFFFFFFFFFFFFFFFFFFFFF AND SWAP1 POP DUP2 PUSH1 0x0 DUP1 PUSH2 0x100 EXP DUP2 SLOAD DUP2 PUSH20 0xFFFFFFFFFFFFFFFFFFFFFFFFFFFFFFFFFFFFFFFF MUL NOT AND SWAP1 DUP4 PUSH20 0xFFFFFFFFFFFFFFFFFFFFFFFFFFFFFFFFFFFFFFFF AND MUL OR SWAP1 SSTORE POP DUP2 PUSH20 0xFFFFFFFFFFFFFFFFFFFFFFFFFFFFFFFFFFFFFFFF AND DUP2 PUSH20 0xFFFFFFFFFFFFFFFFFFFFFFFFFFFFFFFFFFFFFFFF AND PUSH32 0x8BE0079C531659141344CD1FD0A4F28419497F9722A3DAAFE3B4186F6B6457E0 PUSH1 0x40 MLOAD PUSH1 0x40 MLOAD DUP1 SWAP2 SUB SWAP1 LOG3 POP POP JUMP JUMPDEST PUSH1 0x0 DUP1 REVERT JUMPDEST PUSH1 0x0 PUSH20 0xFFFFFFFFFFFFFFFFFFFFFFFFFFFFFFFFFFFFFFFF DUP3 AND SWAP1 POP SWAP2 SWAP1 POP JUMP JUMPDEST PUSH1 0x0 PUSH3 0x219 DUP3 PUSH3 0x1EC JUMP JUMPDEST SWAP1 POP SWAP2 SWAP1 POP JUMP JUMPDEST PUSH1 0x0 PUSH3 0x22D DUP3 PUSH3 0x20C JUMP JUMPDEST SWAP1 POP SWAP2 SWAP1 POP JUMP JUMPDEST PUSH3 0x23F DUP2 PUSH3 0x220 JUMP JUMPDEST DUP2 EQ PUSH3 0x24B JUMPI PUSH1 0x0 DUP1 REVERT JUMPDEST POP JUMP JUMPDEST PUSH1 0x0 DUP2 MLOAD SWAP1 POP PUSH3 0x25F DUP2 PUSH3 0x234 JUMP JUMPDEST SWAP3 SWAP2 POP POP JUMP JUMPDEST PUSH1 0x0 PUSH1 0x20 DUP3 DUP5 SUB SLT ISZERO PUSH3 0x27E JUMPI PUSH3 0x27D PUSH3 0x1E7 JUMP JUMPDEST JUMPDEST PUSH1 0x0 PUSH3 0x28E DUP5 DUP3 DUP6 ADD PUSH3 0x24E JUMP JUMPDEST SWAP2 POP POP SWAP3 SWAP2 POP POP JUMP JUMPDEST PUSH1 0x0 DUP3 DUP3 MSTORE PUSH1 0x20 DUP3 ADD SWAP1 POP SWAP3 SWAP2 POP POP JUMP JUMPDEST PUSH32 0x46726F6E7469657220746F6B656E2061646472657373206973206E6F74207661 PUSH1 0x0 DUP3 ADD MSTORE PUSH32 0x6C69640000000000000000000000000000000000000000000000000000000000 PUSH1 0x20 DUP3 ADD MSTORE POP JUMP JUMPDEST PUSH1 0x0 PUSH3 0x306 PUSH1 0x23 DUP4 PUSH3 0x297 JUMP JUMPDEST SWAP2 POP PUSH3 0x313 DUP3 PUSH3 0x2A8 JUMP JUMPDEST PUSH1 0x40 DUP3 ADD SWAP1 POP SWAP2 SWAP1 POP JUMP JUMPDEST PUSH1 0x0 PUSH1 0x20 DUP3 ADD SWAP1 POP DUP2 DUP2 SUB PUSH1 0x0 DUP4 ADD MSTORE PUSH3 0x339 DUP2 PUSH3 0x2F7 JUMP JUMPDEST SWAP1 POP SWAP2 SWAP1 POP JUMP JUMPDEST PUSH2 0x1970 DUP1 PUSH3 0x350 PUSH1 0x0 CODECOPY PUSH1 0x0 RETURN INVALID PUSH1 0x80 PUSH1 0x40 MSTORE CALLVALUE DUP1 ISZERO PUSH2 0x10 JUMPI PUSH1 0x0 DUP1 REVERT JUMPDEST POP PUSH1 0x4 CALLDATASIZE LT PUSH2 0xCF JUMPI PUSH1 0x0 CALLDATALOAD PUSH1 0xE0 SHR DUP1 PUSH4 0x5DAA3160 GT PUSH2 0x8C JUMPI DUP1 PUSH4 0x821BEE73 GT PUSH2 0x66 JUMPI DUP1 PUSH4 0x821BEE73 EQ PUSH2 0x1FC JUMPI DUP1 PUSH4 0x8DA5CB5B EQ PUSH2 0x22F JUMPI DUP1 PUSH4 0xF2FDE38B EQ PUSH2 0x24D JUMPI DUP1 PUSH4 0xFC0C546A EQ PUSH2 0x269 JUMPI PUSH2 0xCF JUMP JUMPDEST DUP1 PUSH4 0x5DAA3160 EQ PUSH2 0x1A6 JUMPI DUP1 PUSH4 0x6EB48096 EQ PUSH2 0x1D6 JUMPI DUP1 PUSH4 0x715018A6 EQ PUSH2 0x1F2 JUMPI PUSH2 0xCF JUMP JUMPDEST DUP1 PUSH4 0x7AD23EF EQ PUSH2 0xD4 JUMPI DUP1 PUSH4 0x9C4BB2B EQ PUSH2 0x104 JUMPI DUP1 PUSH4 0x1BCDE4EC EQ PUSH2 0x134 JUMPI DUP1 PUSH4 0x37BDC99B EQ PUSH2 0x150 JUMPI DUP1 PUSH4 0x4691A998 EQ PUSH2 0x16C JUMPI DUP1 PUSH4 0x557ED1BA EQ PUSH2 0x188 JUMPI JUMPDEST PUSH1 0x0 DUP1 REVERT JUMPDEST PUSH2 0xEE PUSH1 0x4 DUP1 CALLDATASIZE SUB DUP2 ADD SWAP1 PUSH2 0xE9 SWAP2 SWAP1 PUSH2 0x12F3 JUMP JUMPDEST PUSH2 0x287 JUMP JUMPDEST PUSH1 0x40 MLOAD PUSH2 0xFB SWAP2 SWAP1 PUSH2 0x132F JUMP JUMPDEST PUSH1 0x40 MLOAD DUP1 SWAP2 SUB SWAP1 RETURN JUMPDEST PUSH2 0x11E PUSH1 0x4 DUP1 CALLDATASIZE SUB DUP2 ADD SWAP1 PUSH2 0x119 SWAP2 SWAP1 PUSH2 0x12F3 JUMP JUMPDEST PUSH2 0x2A7 JUMP JUMPDEST PUSH1 0x40 MLOAD PUSH2 0x12B SWAP2 SWAP1 PUSH2 0x132F JUMP JUMPDEST PUSH1 0x40 MLOAD DUP1 SWAP2 SUB SWAP1 RETURN JUMPDEST PUSH2 0x14E PUSH1 0x4 DUP1 CALLDATASIZE SUB DUP2 ADD SWAP1 PUSH2 0x149 SWAP2 SWAP1 PUSH2 0x12F3 JUMP JUMPDEST PUSH2 0x2C7 JUMP JUMPDEST STOP JUMPDEST PUSH2 0x16A PUSH1 0x4 DUP1 CALLDATASIZE SUB DUP2 ADD SWAP1 PUSH2 0x165 SWAP2 SWAP1 PUSH2 0x12F3 JUMP JUMPDEST PUSH2 0x569 JUMP JUMPDEST STOP JUMPDEST PUSH2 0x186 PUSH1 0x4 DUP1 CALLDATASIZE SUB DUP2 ADD SWAP1 PUSH2 0x181 SWAP2 SWAP1 PUSH2 0x13A8 JUMP JUMPDEST PUSH2 0x9F3 JUMP JUMPDEST STOP JUMPDEST PUSH2 0x190 PUSH2 0xCF7 JUMP JUMPDEST PUSH1 0x40 MLOAD PUSH2 0x19D SWAP2 SWAP1 PUSH2 0x132F JUMP JUMPDEST PUSH1 0x40 MLOAD DUP1 SWAP2 SUB SWAP1 RETURN JUMPDEST PUSH2 0x1C0 PUSH1 0x4 DUP1 CALLDATASIZE SUB DUP2 ADD SWAP1 PUSH2 0x1BB SWAP2 SWAP1 PUSH2 0x12F3 JUMP JUMPDEST PUSH2 0xCFF JUMP JUMPDEST PUSH1 0x40 MLOAD PUSH2 0x1CD SWAP2 SWAP1 PUSH2 0x140A JUMP JUMPDEST PUSH1 0x40 MLOAD DUP1 SWAP2 SUB SWAP1 RETURN JUMPDEST PUSH2 0x1F0 PUSH1 0x4 DUP1 CALLDATASIZE SUB DUP2 ADD SWAP1 PUSH2 0x1EB SWAP2 SWAP1 PUSH2 0x12F3 JUMP JUMPDEST PUSH2 0xD3F JUMP JUMPDEST STOP JUMPDEST PUSH2 0x1FA PUSH2 0xF91 JUMP JUMPDEST STOP JUMPDEST PUSH2 0x216 PUSH1 0x4 DUP1 CALLDATASIZE SUB DUP2 ADD SWAP1 PUSH2 0x211 SWAP2 SWAP1 PUSH2 0x12F3 JUMP JUMPDEST PUSH2 0x1019 JUMP JUMPDEST PUSH1 0x40 MLOAD PUSH2 0x226 SWAP5 SWAP4 SWAP3 SWAP2 SWAP1 PUSH2 0x1440 JUMP JUMPDEST PUSH1 0x40 MLOAD DUP1 SWAP2 SUB SWAP1 RETURN JUMPDEST PUSH2 0x237 PUSH2 0x1076 JUMP JUMPDEST PUSH1 0x40 MLOAD PUSH2 0x244 SWAP2 SWAP1 PUSH2 0x140A JUMP JUMPDEST PUSH1 0x40 MLOAD DUP1 SWAP2 SUB SWAP1 RETURN JUMPDEST PUSH2 0x267 PUSH1 0x4 DUP1 CALLDATASIZE SUB DUP2 ADD SWAP1 PUSH2 0x262 SWAP2 SWAP1 PUSH2 0x1485 JUMP JUMPDEST PUSH2 0x109F JUMP JUMPDEST STOP JUMPDEST PUSH2 0x271 PUSH2 0x1196 JUMP JUMPDEST PUSH1 0x40 MLOAD PUSH2 0x27E SWAP2 SWAP1 PUSH2 0x1511 JUMP JUMPDEST PUSH1 0x40 MLOAD DUP1 SWAP2 SUB SWAP1 RETURN JUMPDEST PUSH1 0x0 PUSH1 0x4 PUSH1 0x0 DUP4 DUP2 MSTORE PUSH1 0x20 ADD SWAP1 DUP2 MSTORE PUSH1 0x20 ADD PUSH1 0x0 KECCAK256 PUSH1 0x1 ADD SLOAD SWAP1 POP SWAP2 SWAP1 POP JUMP JUMPDEST PUSH1 0x0 PUSH1 0x4 PUSH1 0x0 DUP4 DUP2 MSTORE PUSH1 0x20 ADD SWAP1 DUP2 MSTORE PUSH1 0x20 ADD PUSH1 0x0 KECCAK256 PUSH1 0x0 ADD SLOAD SWAP1 POP SWAP2 SWAP1 POP JUMP JUMPDEST PUSH2 0x2CF PUSH2 0x11C0 JUMP JUMPDEST PUSH20 0xFFFFFFFFFFFFFFFFFFFFFFFFFFFFFFFFFFFFFFFF AND PUSH2 0x2ED PUSH2 0x1076 JUMP JUMPDEST PUSH20 0xFFFFFFFFFFFFFFFFFFFFFFFFFFFFFFFFFFFFFFFF AND EQ PUSH2 0x343 JUMPI PUSH1 0x40 MLOAD PUSH32 0x8C379A000000000000000000000000000000000000000000000000000000000 DUP2 MSTORE PUSH1 0x4 ADD PUSH2 0x33A SWAP1 PUSH2 0x1589 JUMP JUMPDEST PUSH1 0x40 MLOAD DUP1 SWAP2 SUB SWAP1 REVERT JUMPDEST PUSH1 0x0 PUSH1 0x4 PUSH1 0x0 DUP4 DUP2 MSTORE PUSH1 0x20 ADD SWAP1 DUP2 MSTORE PUSH1 0x20 ADD PUSH1 0x0 KECCAK256 SWAP1 POP PUSH1 0x0 PUSH20 0xFFFFFFFFFFFFFFFFFFFFFFFFFFFFFFFFFFFFFFFF AND DUP2 PUSH1 0x2 ADD PUSH1 0x0 SWAP1 SLOAD SWAP1 PUSH2 0x100 EXP SWAP1 DIV PUSH20 0xFFFFFFFFFFFFFFFFFFFFFFFFFFFFFFFFFFFFFFFF AND PUSH20 0xFFFFFFFFFFFFFFFFFFFFFFFFFFFFFFFFFFFFFFFF AND EQ ISZERO PUSH1 0x40 MLOAD DUP1 PUSH1 0x40 ADD PUSH1 0x40 MSTORE DUP1 PUSH1 0x12 DUP2 MSTORE PUSH1 0x20 ADD PUSH32 0x496E76616C69642076657374696E672069640000000000000000000000000000 DUP2 MSTORE POP SWAP1 PUSH2 0x426 JUMPI PUSH1 0x40 MLOAD PUSH32 0x8C379A000000000000000000000000000000000000000000000000000000000 DUP2 MSTORE PUSH1 0x4 ADD PUSH2 0x41D SWAP2 SWAP1 PUSH2 0x1631 JUMP JUMPDEST PUSH1 0x40 MLOAD DUP1 SWAP2 SUB SWAP1 REVERT JUMPDEST POP DUP1 PUSH1 0x2 ADD PUSH1 0x14 SWAP1 SLOAD SWAP1 PUSH2 0x100 EXP SWAP1 DIV PUSH1 0xFF AND ISZERO PUSH1 0x40 MLOAD DUP1 PUSH1 0x40 ADD PUSH1 0x40 MSTORE DUP1 PUSH1 0x18 DUP2 MSTORE PUSH1 0x20 ADD PUSH32 0x56657374696E6720616C72656164792072656C65617365640000000000000000 DUP2 MSTORE POP SWAP1 PUSH2 0x4B1 JUMPI PUSH1 0x40 MLOAD PUSH32 0x8C379A000000000000000000000000000000000000000000000000000000000 DUP2 MSTORE PUSH1 0x4 ADD PUSH2 0x4A8 SWAP2 SWAP1 PUSH2 0x1631 JUMP JUMPDEST PUSH1 0x40 MLOAD DUP1 SWAP2 SUB SWAP1 REVERT JUMPDEST POP PUSH1 0x1 DUP2 PUSH1 0x2 ADD PUSH1 0x14 PUSH2 0x100 EXP DUP2 SLOAD DUP2 PUSH1 0xFF MUL NOT AND SWAP1 DUP4 ISZERO ISZERO MUL OR SWAP1 SSTORE POP PUSH2 0x4E8 DUP2 PUSH1 0x1 ADD SLOAD PUSH1 0x2 SLOAD PUSH2 0x11C8 SWAP1 SWAP2 SWAP1 PUSH4 0xFFFFFFFF AND JUMP JUMPDEST PUSH1 0x2 DUP2 SWAP1 SSTORE POP DUP1 PUSH1 0x2 ADD PUSH1 0x0 SWAP1 SLOAD SWAP1 PUSH2 0x100 EXP SWAP1 DIV PUSH20 0xFFFFFFFFFFFFFFFFFFFFFFFFFFFFFFFFFFFFFFFF AND PUSH20 0xFFFFFFFFFFFFFFFFFFFFFFFFFFFFFFFFFFFFFFFF AND DUP3 PUSH32 0xDC8B9C8CC0C8D05E10824E69EE88995716A539AF94A1C60FB9898367F613477C DUP4 PUSH1 0x1 ADD SLOAD PUSH1 0x40 MLOAD PUSH2 0x55D SWAP2 SWAP1 PUSH2 0x132F JUMP JUMPDEST PUSH1 0x40 MLOAD DUP1 SWAP2 SUB SWAP1 LOG3 POP POP JUMP JUMPDEST PUSH1 0x0 PUSH1 0x4 PUSH1 0x0 DUP4 DUP2 MSTORE PUSH1 0x20 ADD SWAP1 DUP2 MSTORE PUSH1 0x20 ADD PUSH1 0x0 KECCAK256 SWAP1 POP PUSH1 0x0 PUSH20 0xFFFFFFFFFFFFFFFFFFFFFFFFFFFFFFFFFFFFFFFF AND DUP2 PUSH1 0x2 ADD PUSH1 0x0 SWAP1 SLOAD SWAP1 PUSH2 0x100 EXP SWAP1 DIV PUSH20 0xFFFFFFFFFFFFFFFFFFFFFFFFFFFFFFFFFFFFFFFF AND PUSH20 0xFFFFFFFFFFFFFFFFFFFFFFFFFFFFFFFFFFFFFFFF AND EQ ISZERO PUSH1 0x40 MLOAD DUP1 PUSH1 0x40 ADD PUSH1 0x40 MSTORE DUP1 PUSH1 0x12 DUP2 MSTORE PUSH1 0x20 ADD PUSH32 0x496E76616C69642076657374696E672069640000000000000000000000000000 DUP2 MSTORE POP SWAP1 PUSH2 0x64C JUMPI PUSH1 0x40 MLOAD PUSH32 0x8C379A000000000000000000000000000000000000000000000000000000000 DUP2 MSTORE PUSH1 0x4 ADD PUSH2 0x643 SWAP2 SWAP1 PUSH2 0x1631 JUMP JUMPDEST PUSH1 0x40 MLOAD DUP1 SWAP2 SUB SWAP1 REVERT JUMPDEST POP DUP1 PUSH1 0x2 ADD PUSH1 0x14 SWAP1 SLOAD SWAP1 PUSH2 0x100 EXP SWAP1 DIV PUSH1 0xFF AND ISZERO PUSH1 0x40 MLOAD DUP1 PUSH1 0x40 ADD PUSH1 0x40 MSTORE DUP1 PUSH1 0x18 DUP2 MSTORE PUSH1 0x20 ADD PUSH32 0x56657374696E6720616C72656164792072656C65617365640000000000000000 DUP2 MSTORE POP SWAP1 PUSH2 0x6D7 JUMPI PUSH1 0x40 MLOAD PUSH32 0x8C379A000000000000000000000000000000000000000000000000000000000 DUP2 MSTORE PUSH1 0x4 ADD PUSH2 0x6CE SWAP2 SWAP1 PUSH2 0x1631 JUMP JUMPDEST PUSH1 0x40 MLOAD DUP1 SWAP2 SUB SWAP1 REVERT JUMPDEST POP DUP1 PUSH1 0x0 ADD SLOAD TIMESTAMP LT ISZERO PUSH1 0x40 MLOAD DUP1 PUSH1 0x40 ADD PUSH1 0x40 MSTORE DUP1 PUSH1 0x1A DUP2 MSTORE PUSH1 0x20 ADD PUSH32 0x546F6B656E732068617665206E6F742076657374656420796574000000000000 DUP2 MSTORE POP SWAP1 PUSH2 0x757 JUMPI PUSH1 0x40 MLOAD PUSH32 0x8C379A000000000000000000000000000000000000000000000000000000000 DUP2 MSTORE PUSH1 0x4 ADD PUSH2 0x74E SWAP2 SWAP1 PUSH2 0x1631 JUMP JUMPDEST PUSH1 0x40 MLOAD DUP1 SWAP2 SUB SWAP1 REVERT JUMPDEST POP DUP1 PUSH1 0x1 ADD SLOAD PUSH1 0x1 PUSH1 0x0 SWAP1 SLOAD SWAP1 PUSH2 0x100 EXP SWAP1 DIV PUSH20 0xFFFFFFFFFFFFFFFFFFFFFFFFFFFFFFFFFFFFFFFF AND PUSH20 0xFFFFFFFFFFFFFFFFFFFFFFFFFFFFFFFFFFFFFFFF AND PUSH4 0x70A08231 ADDRESS PUSH1 0x40 MLOAD DUP3 PUSH4 0xFFFFFFFF AND PUSH1 0xE0 SHL DUP2 MSTORE PUSH1 0x4 ADD PUSH2 0x7B8 SWAP2 SWAP1 PUSH2 0x140A JUMP JUMPDEST PUSH1 0x20 PUSH1 0x40 MLOAD DUP1 DUP4 SUB DUP2 DUP7 GAS STATICCALL ISZERO DUP1 ISZERO PUSH2 0x7D5 JUMPI RETURNDATASIZE PUSH1 0x0 DUP1 RETURNDATACOPY RETURNDATASIZE PUSH1 0x0 REVERT JUMPDEST POP POP POP POP PUSH1 0x40 MLOAD RETURNDATASIZE PUSH1 0x1F NOT PUSH1 0x1F DUP3 ADD AND DUP3 ADD DUP1 PUSH1 0x40 MSTORE POP DUP2 ADD SWAP1 PUSH2 0x7F9 SWAP2 SWAP1 PUSH2 0x1668 JUMP JUMPDEST LT ISZERO PUSH1 0x40 MLOAD DUP1 PUSH1 0x40 ADD PUSH1 0x40 MSTORE DUP1 PUSH1 0x14 DUP2 MSTORE PUSH1 0x20 ADD PUSH32 0x496E73756666696369656E742062616C616E6365000000000000000000000000 DUP2 MSTORE POP SWAP1 PUSH2 0x872 JUMPI PUSH1 0x40 MLOAD PUSH32 0x8C379A000000000000000000000000000000000000000000000000000000000 DUP2 MSTORE PUSH1 0x4 ADD PUSH2 0x869 SWAP2 SWAP1 PUSH2 0x1631 JUMP JUMPDEST PUSH1 0x40 MLOAD DUP1 SWAP2 SUB SWAP1 REVERT JUMPDEST POP PUSH1 0x1 DUP2 PUSH1 0x2 ADD PUSH1 0x14 PUSH2 0x100 EXP DUP2 SLOAD DUP2 PUSH1 0xFF MUL NOT AND SWAP1 DUP4 ISZERO ISZERO MUL OR SWAP1 SSTORE POP PUSH2 0x8A9 DUP2 PUSH1 0x1 ADD SLOAD PUSH1 0x2 SLOAD PUSH2 0x11C8 SWAP1 SWAP2 SWAP1 PUSH4 0xFFFFFFFF AND JUMP JUMPDEST PUSH1 0x2 DUP2 SWAP1 SSTORE POP PUSH1 0x1 PUSH1 0x0 SWAP1 SLOAD SWAP1 PUSH2 0x100 EXP SWAP1 DIV PUSH20 0xFFFFFFFFFFFFFFFFFFFFFFFFFFFFFFFFFFFFFFFF AND PUSH20 0xFFFFFFFFFFFFFFFFFFFFFFFFFFFFFFFFFFFFFFFF AND PUSH4 0xA9059CBB DUP3 PUSH1 0x2 ADD PUSH1 0x0 SWAP1 SLOAD SWAP1 PUSH2 0x100 EXP SWAP1 DIV PUSH20 0xFFFFFFFFFFFFFFFFFFFFFFFFFFFFFFFFFFFFFFFF AND DUP4 PUSH1 0x1 ADD SLOAD PUSH1 0x40 MLOAD DUP4 PUSH4 0xFFFFFFFF AND PUSH1 0xE0 SHL DUP2 MSTORE PUSH1 0x4 ADD PUSH2 0x934 SWAP3 SWAP2 SWAP1 PUSH2 0x1695 JUMP JUMPDEST PUSH1 0x20 PUSH1 0x40 MLOAD DUP1 DUP4 SUB DUP2 PUSH1 0x0 DUP8 GAS CALL ISZERO DUP1 ISZERO PUSH2 0x953 JUMPI RETURNDATASIZE PUSH1 0x0 DUP1 RETURNDATACOPY RETURNDATASIZE PUSH1 0x0 REVERT JUMPDEST POP POP POP POP PUSH1 0x40 MLOAD RETURNDATASIZE PUSH1 0x1F NOT PUSH1 0x1F DUP3 ADD AND DUP3 ADD DUP1 PUSH1 0x40 MSTORE POP DUP2 ADD SWAP1 PUSH2 0x977 SWAP2 SWAP1 PUSH2 0x16EA JUMP JUMPDEST POP DUP1 PUSH1 0x2 ADD PUSH1 0x0 SWAP1 SLOAD SWAP1 PUSH2 0x100 EXP SWAP1 DIV PUSH20 0xFFFFFFFFFFFFFFFFFFFFFFFFFFFFFFFFFFFFFFFF AND PUSH20 0xFFFFFFFFFFFFFFFFFFFFFFFFFFFFFFFFFFFFFFFF AND DUP3 PUSH32 0x295AC83A3C5CF518A125BA974BE97DCA6A668BAE6DD90B6902B2618CDFF1FCC6 DUP4 PUSH1 0x1 ADD SLOAD PUSH1 0x40 MLOAD PUSH2 0x9E7 SWAP2 SWAP1 PUSH2 0x132F JUMP JUMPDEST PUSH1 0x40 MLOAD DUP1 SWAP2 SUB SWAP1 LOG3 POP POP JUMP JUMPDEST PUSH2 0x9FB PUSH2 0x11C0 JUMP JUMPDEST PUSH20 0xFFFFFFFFFFFFFFFFFFFFFFFFFFFFFFFFFFFFFFFF AND PUSH2 0xA19 PUSH2 0x1076 JUMP JUMPDEST PUSH20 0xFFFFFFFFFFFFFFFFFFFFFFFFFFFFFFFFFFFFFFFF AND EQ PUSH2 0xA6F JUMPI PUSH1 0x40 MLOAD PUSH32 0x8C379A000000000000000000000000000000000000000000000000000000000 DUP2 MSTORE PUSH1 0x4 ADD PUSH2 0xA66 SWAP1 PUSH2 0x1589 JUMP JUMPDEST PUSH1 0x40 MLOAD DUP1 SWAP2 SUB SWAP1 REVERT JUMPDEST PUSH1 0x0 PUSH20 0xFFFFFFFFFFFFFFFFFFFFFFFFFFFFFFFFFFFFFFFF AND DUP4 PUSH20 0xFFFFFFFFFFFFFFFFFFFFFFFFFFFFFFFFFFFFFFFF AND EQ ISZERO PUSH1 0x40 MLOAD DUP1 PUSH1 0x40 ADD PUSH1 0x40 MSTORE DUP1 PUSH1 0x1B DUP2 MSTORE PUSH1 0x20 ADD PUSH32 0x496E76616C69642062656E656669636961727920616464726573730000000000 DUP2 MSTORE POP SWAP1 PUSH2 0xB17 JUMPI PUSH1 0x40 MLOAD PUSH32 0x8C379A000000000000000000000000000000000000000000000000000000000 DUP2 MSTORE PUSH1 0x4 ADD PUSH2 0xB0E SWAP2 SWAP1 PUSH2 0x1631 JUMP JUMPDEST PUSH1 0x40 MLOAD DUP1 SWAP2 SUB SWAP1 REVERT JUMPDEST POP TIMESTAMP DUP3 GT PUSH2 0xB5A JUMPI PUSH1 0x40 MLOAD PUSH32 0x8C379A000000000000000000000000000000000000000000000000000000000 DUP2 MSTORE PUSH1 0x4 ADD PUSH2 0xB51 SWAP1 PUSH2 0x1763 JUMP JUMPDEST PUSH1 0x40 MLOAD DUP1 SWAP2 SUB SWAP1 REVERT JUMPDEST PUSH1 0x0 DUP2 SUB PUSH2 0xB9D JUMPI PUSH1 0x40 MLOAD PUSH32 0x8C379A000000000000000000000000000000000000000000000000000000000 DUP2 MSTORE PUSH1 0x4 ADD PUSH2 0xB94 SWAP1 PUSH2 0x17CF JUMP JUMPDEST PUSH1 0x40 MLOAD DUP1 SWAP2 SUB SWAP1 REVERT JUMPDEST PUSH2 0xBB2 DUP2 PUSH1 0x2 SLOAD PUSH2 0x11DE SWAP1 SWAP2 SWAP1 PUSH4 0xFFFFFFFF AND JUMP JUMPDEST PUSH1 0x2 DUP2 SWAP1 SSTORE POP PUSH2 0xBCE PUSH1 0x1 PUSH1 0x3 SLOAD PUSH2 0x11DE SWAP1 SWAP2 SWAP1 PUSH4 0xFFFFFFFF AND JUMP JUMPDEST PUSH1 0x3 DUP2 SWAP1 SSTORE POP PUSH1 0x40 MLOAD DUP1 PUSH1 0x80 ADD PUSH1 0x40 MSTORE DUP1 DUP4 DUP2 MSTORE PUSH1 0x20 ADD DUP3 DUP2 MSTORE PUSH1 0x20 ADD DUP5 PUSH20 0xFFFFFFFFFFFFFFFFFFFFFFFFFFFFFFFFFFFFFFFF AND DUP2 MSTORE PUSH1 0x20 ADD PUSH1 0x0 ISZERO ISZERO DUP2 MSTORE POP PUSH1 0x4 PUSH1 0x0 PUSH1 0x3 SLOAD DUP2 MSTORE PUSH1 0x20 ADD SWAP1 DUP2 MSTORE PUSH1 0x20 ADD PUSH1 0x0 KECCAK256 PUSH1 0x0 DUP3 ADD MLOAD DUP2 PUSH1 0x0 ADD SSTORE PUSH1 0x20 DUP3 ADD MLOAD DUP2 PUSH1 0x1 ADD SSTORE PUSH1 0x40 DUP3 ADD MLOAD DUP2 PUSH1 0x2 ADD PUSH1 0x0 PUSH2 0x100 EXP DUP2 SLOAD DUP2 PUSH20 0xFFFFFFFFFFFFFFFFFFFFFFFFFFFFFFFFFFFFFFFF MUL NOT AND SWAP1 DUP4 PUSH20 0xFFFFFFFFFFFFFFFFFFFFFFFFFFFFFFFFFFFFFFFF AND MUL OR SWAP1 SSTORE POP PUSH1 0x60 DUP3 ADD MLOAD DUP2 PUSH1 0x2 ADD PUSH1 0x14 PUSH2 0x100 EXP DUP2 SLOAD DUP2 PUSH1 0xFF MUL NOT AND SWAP1 DUP4 ISZERO ISZERO MUL OR SWAP1 SSTORE POP SWAP1 POP POP DUP3 PUSH20 0xFFFFFFFFFFFFFFFFFFFFFFFFFFFFFFFFFFFFFFFF AND PUSH1 0x3 SLOAD PUSH32 0xFBD41C6118C5ED14F196C270A1793D95E8517E43031D9BB61AA71CB2A38BF557 DUP4 PUSH1 0x40 MLOAD PUSH2 0xCEA SWAP2 SWAP1 PUSH2 0x132F JUMP JUMPDEST PUSH1 0x40 MLOAD DUP1 SWAP2 SUB SWAP1 LOG3 POP POP POP JUMP JUMPDEST PUSH1 0x0 TIMESTAMP SWAP1 POP SWAP1 JUMP JUMPDEST PUSH1 0x0 PUSH1 0x4 PUSH1 0x0 DUP4 DUP2 MSTORE PUSH1 0x20 ADD SWAP1 DUP2 MSTORE PUSH1 0x20 ADD PUSH1 0x0 KECCAK256 PUSH1 0x2 ADD PUSH1 0x0 SWAP1 SLOAD SWAP1 PUSH2 0x100 EXP SWAP1 DIV PUSH20 0xFFFFFFFFFFFFFFFFFFFFFFFFFFFFFFFFFFFFFFFF AND SWAP1 POP SWAP2 SWAP1 POP JUMP JUMPDEST PUSH2 0xD47 PUSH2 0x11C0 JUMP JUMPDEST PUSH20 0xFFFFFFFFFFFFFFFFFFFFFFFFFFFFFFFFFFFFFFFF AND PUSH2 0xD65 PUSH2 0x1076 JUMP JUMPDEST PUSH20 0xFFFFFFFFFFFFFFFFFFFFFFFFFFFFFFFFFFFFFFFF AND EQ PUSH2 0xDBB JUMPI PUSH1 0x40 MLOAD PUSH32 0x8C379A000000000000000000000000000000000000000000000000000000000 DUP2 MSTORE PUSH1 0x4 ADD PUSH2 0xDB2 SWAP1 PUSH2 0x1589 JUMP JUMPDEST PUSH1 0x40 MLOAD DUP1 SWAP2 SUB SWAP1 REVERT JUMPDEST PUSH2 0xE6B PUSH1 0x2 SLOAD PUSH1 0x1 PUSH1 0x0 SWAP1 SLOAD SWAP1 PUSH2 0x100 EXP SWAP1 DIV PUSH20 0xFFFFFFFFFFFFFFFFFFFFFFFFFFFFFFFFFFFFFFFF AND PUSH20 0xFFFFFFFFFFFFFFFFFFFFFFFFFFFFFFFFFFFFFFFF AND PUSH4 0x70A08231 ADDRESS PUSH1 0x40 MLOAD DUP3 PUSH4 0xFFFFFFFF AND PUSH1 0xE0 SHL DUP2 MSTORE PUSH1 0x4 ADD PUSH2 0xE1C SWAP2 SWAP1 PUSH2 0x140A JUMP JUMPDEST PUSH1 0x20 PUSH1 0x40 MLOAD DUP1 DUP4 SUB DUP2 DUP7 GAS STATICCALL ISZERO DUP1 ISZERO PUSH2 0xE39 JUMPI RETURNDATASIZE PUSH1 0x0 DUP1 RETURNDATACOPY RETURNDATASIZE PUSH1 0x0 REVERT JUMPDEST POP POP POP POP PUSH1 0x40 MLOAD RETURNDATASIZE PUSH1 0x1F NOT PUSH1 0x1F DUP3 ADD AND DUP3 ADD DUP1 PUSH1 0x40 MSTORE POP DUP2 ADD SWAP1 PUSH2 0xE5D SWAP2 SWAP1 PUSH2 0x1668 JUMP JUMPDEST PUSH2 0x11C8 SWAP1 SWAP2 SWAP1 PUSH4 0xFFFFFFFF AND JUMP JUMPDEST DUP2 GT ISZERO PUSH1 0x40 MLOAD DUP1 PUSH1 0x40 ADD PUSH1 0x40 MSTORE DUP1 PUSH1 0x14 DUP2 MSTORE PUSH1 0x20 ADD PUSH32 0x496E73756666696369656E742062616C616E6365000000000000000000000000 DUP2 MSTORE POP SWAP1 PUSH2 0xEE5 JUMPI PUSH1 0x40 MLOAD PUSH32 0x8C379A000000000000000000000000000000000000000000000000000000000 DUP2 MSTORE PUSH1 0x4 ADD PUSH2 0xEDC SWAP2 SWAP1 PUSH2 0x1631 JUMP JUMPDEST PUSH1 0x40 MLOAD DUP1 SWAP2 SUB SWAP1 REVERT JUMPDEST POP PUSH1 0x1 PUSH1 0x0 SWAP1 SLOAD SWAP1 PUSH2 0x100 EXP SWAP1 DIV PUSH20 0xFFFFFFFFFFFFFFFFFFFFFFFFFFFFFFFFFFFFFFFF AND PUSH20 0xFFFFFFFFFFFFFFFFFFFFFFFFFFFFFFFFFFFFFFFF AND PUSH4 0xA9059CBB PUSH2 0xF2C PUSH2 0x1076 JUMP JUMPDEST DUP4 PUSH1 0x40 MLOAD DUP4 PUSH4 0xFFFFFFFF AND PUSH1 0xE0 SHL DUP2 MSTORE PUSH1 0x4 ADD PUSH2 0xF4A SWAP3 SWAP2 SWAP1 PUSH2 0x1695 JUMP JUMPDEST PUSH1 0x20 PUSH1 0x40 MLOAD DUP1 DUP4 SUB DUP2 PUSH1 0x0 DUP8 GAS CALL ISZERO DUP1 ISZERO PUSH2 0xF69 JUMPI RETURNDATASIZE PUSH1 0x0 DUP1 RETURNDATACOPY RETURNDATASIZE PUSH1 0x0 REVERT JUMPDEST POP POP POP POP PUSH1 0x40 MLOAD RETURNDATASIZE PUSH1 0x1F NOT PUSH1 0x1F DUP3 ADD AND DUP3 ADD DUP1 PUSH1 0x40 MSTORE POP DUP2 ADD SWAP1 PUSH2 0xF8D SWAP2 SWAP1 PUSH2 0x16EA JUMP JUMPDEST POP POP JUMP JUMPDEST PUSH2 0xF99 PUSH2 0x11C0 JUMP JUMPDEST PUSH20 0xFFFFFFFFFFFFFFFFFFFFFFFFFFFFFFFFFFFFFFFF AND PUSH2 0xFB7 PUSH2 0x1076 JUMP JUMPDEST PUSH20 0xFFFFFFFFFFFFFFFFFFFFFFFFFFFFFFFFFFFFFFFF AND EQ PUSH2 0x100D JUMPI PUSH1 0x40 MLOAD PUSH32 0x8C379A000000000000000000000000000000000000000000000000000000000 DUP2 MSTORE PUSH1 0x4 ADD PUSH2 0x1004 SWAP1 PUSH2 0x1589 JUMP JUMPDEST PUSH1 0x40 MLOAD DUP1 SWAP2 SUB SWAP1 REVERT JUMPDEST PUSH2 0x1017 PUSH1 0x0 PUSH2 0x11F4 JUMP JUMPDEST JUMP JUMPDEST PUSH1 0x4 PUSH1 0x20 MSTORE DUP1 PUSH1 0x0 MSTORE PUSH1 0x40 PUSH1 0x0 KECCAK256 PUSH1 0x0 SWAP2 POP SWAP1 POP DUP1 PUSH1 0x0 ADD SLOAD SWAP1 DUP1 PUSH1 0x1 ADD SLOAD SWAP1 DUP1 PUSH1 0x2 ADD PUSH1 0x0 SWAP1 SLOAD SWAP1 PUSH2 0x100 EXP SWAP1 DIV PUSH20 0xFFFFFFFFFFFFFFFFFFFFFFFFFFFFFFFFFFFFFFFF AND SWAP1 DUP1 PUSH1 0x2 ADD PUSH1 0x14 SWAP1 SLOAD SWAP1 PUSH2 0x100 EXP SWAP1 DIV PUSH1 0xFF AND SWAP1 POP DUP5 JUMP JUMPDEST PUSH1 0x0 DUP1 PUSH1 0x0 SWAP1 SLOAD SWAP1 PUSH2 0x100 EXP SWAP1 DIV PUSH20 0xFFFFFFFFFFFFFFFFFFFFFFFFFFFFFFFFFFFFFFFF AND SWAP1 POP SWAP1 JUMP JUMPDEST PUSH2 0x10A7 PUSH2 0x11C0 JUMP JUMPDEST PUSH20 0xFFFFFFFFFFFFFFFFFFFFFFFFFFFFFFFFFFFFFFFF AND PUSH2 0x10C5 PUSH2 0x1076 JUMP JUMPDEST PUSH20 0xFFFFFFFFFFFFFFFFFFFFFFFFFFFFFFFFFFFFFFFF AND EQ PUSH2 0x111B JUMPI PUSH1 0x40 MLOAD PUSH32 0x8C379A000000000000000000000000000000000000000000000000000000000 DUP2 MSTORE PUSH1 0x4 ADD PUSH2 0x1112 SWAP1 PUSH2 0x1589 JUMP JUMPDEST PUSH1 0x40 MLOAD DUP1 SWAP2 SUB SWAP1 REVERT JUMPDEST PUSH1 0x0 PUSH20 0xFFFFFFFFFFFFFFFFFFFFFFFFFFFFFFFFFFFFFFFF AND DUP2 PUSH20 0xFFFFFFFFFFFFFFFFFFFFFFFFFFFFFFFFFFFFFFFF AND SUB PUSH2 0x118A JUMPI PUSH1 0x40 MLOAD PUSH32 0x8C379A000000000000000000000000000000000000000000000000000000000 DUP2 MSTORE PUSH1 0x4 ADD PUSH2 0x1181 SWAP1 PUSH2 0x1861 JUMP JUMPDEST PUSH1 0x40 MLOAD DUP1 SWAP2 SUB SWAP1 REVERT JUMPDEST PUSH2 0x1193 DUP2 PUSH2 0x11F4 JUMP JUMPDEST POP JUMP JUMPDEST PUSH1 0x0 PUSH1 0x1 PUSH1 0x0 SWAP1 SLOAD SWAP1 PUSH2 0x100 EXP SWAP1 DIV PUSH20 0xFFFFFFFFFFFFFFFFFFFFFFFFFFFFFFFFFFFFFFFF AND SWAP1 POP SWAP1 JUMP JUMPDEST PUSH1 0x0 CALLER SWAP1 POP SWAP1 JUMP JUMPDEST PUSH1 0x0 DUP2 DUP4 PUSH2 0x11D6 SWAP2 SWAP1 PUSH2 0x18B0 JUMP JUMPDEST SWAP1 POP SWAP3 SWAP2 POP POP JUMP JUMPDEST PUSH1 0x0 DUP2 DUP4 PUSH2 0x11EC SWAP2 SWAP1 PUSH2 0x18E4 JUMP JUMPDEST SWAP1 POP SWAP3 SWAP2 POP POP JUMP JUMPDEST PUSH1 0x0 DUP1 PUSH1 0x0 SWAP1 SLOAD SWAP1 PUSH2 0x100 EXP SWAP1 DIV PUSH20 0xFFFFFFFFFFFFFFFFFFFFFFFFFFFFFFFFFFFFFFFF AND SWAP1 POP DUP2 PUSH1 0x0 DUP1 PUSH2 0x100 EXP DUP2 SLOAD DUP2 PUSH20 0xFFFFFFFFFFFFFFFFFFFFFFFFFFFFFFFFFFFFFFFF MUL NOT AND SWAP1 DUP4 PUSH20 0xFFFFFFFFFFFFFFFFFFFFFFFFFFFFFFFFFFFFFFFF AND MUL OR SWAP1 SSTORE POP DUP2 PUSH20 0xFFFFFFFFFFFFFFFFFFFFFFFFFFFFFFFFFFFFFFFF AND DUP2 PUSH20 0xFFFFFFFFFFFFFFFFFFFFFFFFFFFFFFFFFFFFFFFF AND PUSH32 0x8BE0079C531659141344CD1FD0A4F28419497F9722A3DAAFE3B4186F6B6457E0 PUSH1 0x40 MLOAD PUSH1 0x40 MLOAD DUP1 SWAP2 SUB SWAP1 LOG3 POP POP JUMP JUMPDEST PUSH1 0x0 DUP1 REVERT JUMPDEST PUSH1 0x0 DUP2 SWAP1 POP SWAP2 SWAP1 POP JUMP JUMPDEST PUSH2 0x12D0 DUP2 PUSH2 0x12BD JUMP JUMPDEST DUP2 EQ PUSH2 0x12DB JUMPI PUSH1 0x0 DUP1 REVERT JUMPDEST POP JUMP JUMPDEST PUSH1 0x0 DUP2 CALLDATALOAD SWAP1 POP PUSH2 0x12ED DUP2 PUSH2 0x12C7 JUMP JUMPDEST SWAP3 SWAP2 POP POP JUMP JUMPDEST PUSH1 0x0 PUSH1 0x20 DUP3 DUP5 SUB SLT ISZERO PUSH2 0x1309 JUMPI PUSH2 0x1308 PUSH2 0x12B8 JUMP JUMPDEST JUMPDEST PUSH1 0x0 PUSH2 0x1317 DUP5 DUP3 DUP6 ADD PUSH2 0x12DE JUMP JUMPDEST SWAP2 POP POP SWAP3 SWAP2 POP POP JUMP JUMPDEST PUSH2 0x1329 DUP2 PUSH2 0x12BD JUMP JUMPDEST DUP3 MSTORE POP POP JUMP JUMPDEST PUSH1 0x0 PUSH1 0x20 DUP3 ADD SWAP1 POP PUSH2 0x1344 PUSH1 0x0 DUP4 ADD DUP5 PUSH2 0x1320 JUMP JUMPDEST SWAP3 SWAP2 POP POP JUMP JUMPDEST PUSH1 0x0 PUSH20 0xFFFFFFFFFFFFFFFFFFFFFFFFFFFFFFFFFFFFFFFF DUP3 AND SWAP1 POP SWAP2 SWAP1 POP JUMP JUMPDEST PUSH1 0x0 PUSH2 0x1375 DUP3 PUSH2 0x134A JUMP JUMPDEST SWAP1 POP SWAP2 SWAP1 POP JUMP JUMPDEST PUSH2 0x1385 DUP2 PUSH2 0x136A JUMP JUMPDEST DUP2 EQ PUSH2 0x1390 JUMPI PUSH1 0x0 DUP1 REVERT JUMPDEST POP JUMP JUMPDEST PUSH1 0x0 DUP2 CALLDATALOAD SWAP1 POP PUSH2 0x13A2 DUP2 PUSH2 0x137C JUMP JUMPDEST SWAP3 SWAP2 POP POP JUMP JUMPDEST PUSH1 0x0 DUP1 PUSH1 0x0 PUSH1 0x60 DUP5 DUP7 SUB SLT ISZERO PUSH2 0x13C1 JUMPI PUSH2 0x13C0 PUSH2 0x12B8 JUMP JUMPDEST JUMPDEST PUSH1 0x0 PUSH2 0x13CF DUP7 DUP3 DUP8 ADD PUSH2 0x1393 JUMP JUMPDEST SWAP4 POP POP PUSH1 0x20 PUSH2 0x13E0 DUP7 DUP3 DUP8 ADD PUSH2 0x12DE JUMP JUMPDEST SWAP3 POP POP PUSH1 0x40 PUSH2 0x13F1 DUP7 DUP3 DUP8 ADD PUSH2 0x12DE JUMP JUMPDEST SWAP2 POP POP SWAP3 POP SWAP3 POP SWAP3 JUMP JUMPDEST PUSH2 0x1404 DUP2 PUSH2 0x136A JUMP JUMPDEST DUP3 MSTORE POP POP JUMP JUMPDEST PUSH1 0x0 PUSH1 0x20 DUP3 ADD SWAP1 POP PUSH2 0x141F PUSH1 0x0 DUP4 ADD DUP5 PUSH2 0x13FB JUMP JUMPDEST SWAP3 SWAP2 POP POP JUMP JUMPDEST PUSH1 0x0 DUP2 ISZERO ISZERO SWAP1 POP SWAP2 SWAP1 POP JUMP JUMPDEST PUSH2 0x143A DUP2 PUSH2 0x1425 JUMP JUMPDEST DUP3 MSTORE POP POP JUMP JUMPDEST PUSH1 0x0 PUSH1 0x80 DUP3 ADD SWAP1 POP PUSH2 0x1455 PUSH1 0x0 DUP4 ADD DUP8 PUSH2 0x1320 JUMP JUMPDEST PUSH2 0x1462 PUSH1 0x20 DUP4 ADD DUP7 PUSH2 0x1320 JUMP JUMPDEST PUSH2 0x146F PUSH1 0x40 DUP4 ADD DUP6 PUSH2 0x13FB JUMP JUMPDEST PUSH2 0x147C PUSH1 0x60 DUP4 ADD DUP5 PUSH2 0x1431 JUMP JUMPDEST SWAP6 SWAP5 POP POP POP POP POP JUMP JUMPDEST PUSH1 0x0 PUSH1 0x20 DUP3 DUP5 SUB SLT ISZERO PUSH2 0x149B JUMPI PUSH2 0x149A PUSH2 0x12B8 JUMP JUMPDEST JUMPDEST PUSH1 0x0 PUSH2 0x14A9 DUP5 DUP3 DUP6 ADD PUSH2 0x1393 JUMP JUMPDEST SWAP2 POP POP SWAP3 SWAP2 POP POP JUMP JUMPDEST PUSH1 0x0 DUP2 SWAP1 POP SWAP2 SWAP1 POP JUMP JUMPDEST PUSH1 0x0 PUSH2 0x14D7 PUSH2 0x14D2 PUSH2 0x14CD DUP5 PUSH2 0x134A JUMP JUMPDEST PUSH2 0x14B2 JUMP JUMPDEST PUSH2 0x134A JUMP JUMPDEST SWAP1 POP SWAP2 SWAP1 POP JUMP JUMPDEST PUSH1 0x0 PUSH2 0x14E9 DUP3 PUSH2 0x14BC JUMP JUMPDEST SWAP1 POP SWAP2 SWAP1 POP JUMP JUMPDEST PUSH1 0x0 PUSH2 0x14FB DUP3 PUSH2 0x14DE JUMP JUMPDEST SWAP1 POP SWAP2 SWAP1 POP JUMP JUMPDEST PUSH2 0x150B DUP2 PUSH2 0x14F0 JUMP JUMPDEST DUP3 MSTORE POP POP JUMP JUMPDEST PUSH1 0x0 PUSH1 0x20 DUP3 ADD SWAP1 POP PUSH2 0x1526 PUSH1 0x0 DUP4 ADD DUP5 PUSH2 0x1502 JUMP JUMPDEST SWAP3 SWAP2 POP POP JUMP JUMPDEST PUSH1 0x0 DUP3 DUP3 MSTORE PUSH1 0x20 DUP3 ADD SWAP1 POP SWAP3 SWAP2 POP POP JUMP JUMPDEST PUSH32 0x4F776E61626C653A2063616C6C6572206973206E6F7420746865206F776E6572 PUSH1 0x0 DUP3 ADD MSTORE POP JUMP JUMPDEST PUSH1 0x0 PUSH2 0x1573 PUSH1 0x20 DUP4 PUSH2 0x152C JUMP JUMPDEST SWAP2 POP PUSH2 0x157E DUP3 PUSH2 0x153D JUMP JUMPDEST PUSH1 0x20 DUP3 ADD SWAP1 POP SWAP2 SWAP1 POP JUMP JUMPDEST PUSH1 0x0 PUSH1 0x20 DUP3 ADD SWAP1 POP DUP2 DUP2 SUB PUSH1 0x0 DUP4 ADD MSTORE PUSH2 0x15A2 DUP2 PUSH2 0x1566 JUMP JUMPDEST SWAP1 POP SWAP2 SWAP1 POP JUMP JUMPDEST PUSH1 0x0 DUP2 MLOAD SWAP1 POP SWAP2 SWAP1 POP JUMP JUMPDEST PUSH1 0x0 JUMPDEST DUP4 DUP2 LT ISZERO PUSH2 0x15D2 JUMPI DUP1 DUP3 ADD MLOAD DUP2 DUP5 ADD MSTORE PUSH1 0x20 DUP2 ADD SWAP1 POP PUSH2 0x15B7 JUMP JUMPDEST DUP4 DUP2 GT ISZERO PUSH2 0x15E1 JUMPI PUSH1 0x0 DUP5 DUP5 ADD MSTORE JUMPDEST POP POP POP POP JUMP JUMPDEST PUSH1 0x0 PUSH1 0x1F NOT PUSH1 0x1F DUP4 ADD AND SWAP1 POP SWAP2 SWAP1 POP JUMP JUMPDEST PUSH1 0x0 PUSH2 0x1603 DUP3 PUSH2 0x15A9 JUMP JUMPDEST PUSH2 0x160D DUP2 DUP6 PUSH2 0x152C JUMP JUMPDEST SWAP4 POP PUSH2 0x161D DUP2 DUP6 PUSH1 0x20 DUP7 ADD PUSH2 0x15B4 JUMP JUMPDEST PUSH2 0x1626 DUP2 PUSH2 0x15E7 JUMP JUMPDEST DUP5 ADD SWAP2 POP POP SWAP3 SWAP2 POP POP JUMP JUMPDEST PUSH1 0x0 PUSH1 0x20 DUP3 ADD SWAP1 POP DUP2 DUP2 SUB PUSH1 0x0 DUP4 ADD MSTORE PUSH2 0x164B DUP2 DUP5 PUSH2 0x15F8 JUMP JUMPDEST SWAP1 POP SWAP3 SWAP2 POP POP JUMP JUMPDEST PUSH1 0x0 DUP2 MLOAD SWAP1 POP PUSH2 0x1662 DUP2 PUSH2 0x12C7 JUMP JUMPDEST SWAP3 SWAP2 POP POP JUMP JUMPDEST PUSH1 0x0 PUSH1 0x20 DUP3 DUP5 SUB SLT ISZERO PUSH2 0x167E JUMPI PUSH2 0x167D PUSH2 0x12B8 JUMP JUMPDEST JUMPDEST PUSH1 0x0 PUSH2 0x168C DUP5 DUP3 DUP6 ADD PUSH2 0x1653 JUMP JUMPDEST SWAP2 POP POP SWAP3 SWAP2 POP POP JUMP JUMPDEST PUSH1 0x0 PUSH1 0x40 DUP3 ADD SWAP1 POP PUSH2 0x16AA PUSH1 0x0 DUP4 ADD DUP6 PUSH2 0x13FB JUMP JUMPDEST PUSH2 0x16B7 PUSH1 0x20 DUP4 ADD DUP5 PUSH2 0x1320 JUMP JUMPDEST SWAP4 SWAP3 POP POP POP JUMP JUMPDEST PUSH2 0x16C7 DUP2 PUSH2 0x1425 JUMP JUMPDEST DUP2 EQ PUSH2 0x16D2 JUMPI PUSH1 0x0 DUP1 REVERT JUMPDEST POP JUMP JUMPDEST PUSH1 0x0 DUP2 MLOAD SWAP1 POP PUSH2 0x16E4 DUP2 PUSH2 0x16BE JUMP JUMPDEST SWAP3 SWAP2 POP POP JUMP JUMPDEST PUSH1 0x0 PUSH1 0x20 DUP3 DUP5 SUB SLT ISZERO PUSH2 0x1700 JUMPI PUSH2 0x16FF PUSH2 0x12B8 JUMP JUMPDEST JUMPDEST PUSH1 0x0 PUSH2 0x170E DUP5 DUP3 DUP6 ADD PUSH2 0x16D5 JUMP JUMPDEST SWAP2 POP POP SWAP3 SWAP2 POP POP JUMP JUMPDEST PUSH32 0x496E76616C69642072656C656173652074696D65000000000000000000000000 PUSH1 0x0 DUP3 ADD MSTORE POP JUMP JUMPDEST PUSH1 0x0 PUSH2 0x174D PUSH1 0x14 DUP4 PUSH2 0x152C JUMP JUMPDEST SWAP2 POP PUSH2 0x1758 DUP3 PUSH2 0x1717 JUMP JUMPDEST PUSH1 0x20 DUP3 ADD SWAP1 POP SWAP2 SWAP1 POP JUMP JUMPDEST PUSH1 0x0 PUSH1 0x20 DUP3 ADD SWAP1 POP DUP2 DUP2 SUB PUSH1 0x0 DUP4 ADD MSTORE PUSH2 0x177C DUP2 PUSH2 0x1740 JUMP JUMPDEST SWAP1 POP SWAP2 SWAP1 POP JUMP JUMPDEST PUSH32 0x416D6F756E74206D7573742062652067726561746572207468656E2030000000 PUSH1 0x0 DUP3 ADD MSTORE POP JUMP JUMPDEST PUSH1 0x0 PUSH2 0x17B9 PUSH1 0x1D DUP4 PUSH2 0x152C JUMP JUMPDEST SWAP2 POP PUSH2 0x17C4 DUP3 PUSH2 0x1783 JUMP JUMPDEST PUSH1 0x20 DUP3 ADD SWAP1 POP SWAP2 SWAP1 POP JUMP JUMPDEST PUSH1 0x0 PUSH1 0x20 DUP3 ADD SWAP1 POP DUP2 DUP2 SUB PUSH1 0x0 DUP4 ADD MSTORE PUSH2 0x17E8 DUP2 PUSH2 0x17AC JUMP JUMPDEST SWAP1 POP SWAP2 SWAP1 POP JUMP JUMPDEST PUSH32 0x4F776E61626C653A206E6577206F776E657220697320746865207A65726F2061 PUSH1 0x0 DUP3 ADD MSTORE PUSH32 0x6464726573730000000000000000000000000000000000000000000000000000 PUSH1 0x20 DUP3 ADD MSTORE POP JUMP JUMPDEST PUSH1 0x0 PUSH2 0x184B PUSH1 0x26 DUP4 PUSH2 0x152C JUMP JUMPDEST SWAP2 POP PUSH2 0x1856 DUP3 PUSH2 0x17EF JUMP JUMPDEST PUSH1 0x40 DUP3 ADD SWAP1 POP SWAP2 SWAP1 POP JUMP JUMPDEST PUSH1 0x0 PUSH1 0x20 DUP3 ADD SWAP1 POP DUP2 DUP2 SUB PUSH1 0x0 DUP4 ADD MSTORE PUSH2 0x187A DUP2 PUSH2 0x183E JUMP JUMPDEST SWAP1 POP SWAP2 SWAP1 POP JUMP JUMPDEST PUSH32 0x4E487B7100000000000000000000000000000000000000000000000000000000 PUSH1 0x0 MSTORE PUSH1 0x11 PUSH1 0x4 MSTORE PUSH1 0x24 PUSH1 0x0 REVERT JUMPDEST PUSH1 0x0 PUSH2 0x18BB DUP3 PUSH2 0x12BD JUMP JUMPDEST SWAP2 POP PUSH2 0x18C6 DUP4 PUSH2 0x12BD JUMP JUMPDEST SWAP3 POP DUP3 DUP3 LT ISZERO PUSH2 0x18D9 JUMPI PUSH2 0x18D8 PUSH2 0x1881 JUMP JUMPDEST JUMPDEST DUP3 DUP3 SUB SWAP1 POP SWAP3 SWAP2 POP POP JUMP JUMPDEST PUSH1 0x0 PUSH2 0x18EF DUP3 PUSH2 0x12BD JUMP JUMPDEST SWAP2 POP PUSH2 0x18FA DUP4 PUSH2 0x12BD JUMP JUMPDEST SWAP3 POP DUP3 PUSH32 0xFFFFFFFFFFFFFFFFFFFFFFFFFFFFFFFFFFFFFFFFFFFFFFFFFFFFFFFFFFFFFFFF SUB DUP3 GT ISZERO PUSH2 0x192F JUMPI PUSH2 0x192E PUSH2 0x1881 JUMP JUMPDEST JUMPDEST DUP3 DUP3 ADD SWAP1 POP SWAP3 SWAP2 POP POP JUMP INVALID LOG2 PUSH5 0x6970667358 0x22 SLT KECCAK256 PUSH5 0xC8D6D362F6 SIGNEXTEND 0x49 0xA9 REVERT PUSH9 0xC04B7F28227B39D33 DUP6 SWAP10 NUMBER SWAP9 0x49 0xB7 0xDF RETURNDATASIZE EXTCODECOPY ADD COINBASE 0xAE PUSH5 0x736F6C6343 STOP ADDMOD 0xD STOP CALLER "
				},
				"gasEstimates": {
					"creation": {
						"codeDepositCost": "1302400",
						"executionCost": "infinite",
						"totalCost": "infinite"
					},
					"external": {
						"addVesting(address,uint256,uint256)": "infinite",
						"beneficiary(uint256)": "2894",
						"getTime()": "447",
						"owner()": "2566",
						"release(uint256)": "infinite",
						"releaseTime(uint256)": "infinite",
						"removeVesting(uint256)": "infinite",
						"renounceOwnership()": "30441",
						"retrieveExcessTokens(uint256)": "infinite",
						"token()": "infinite",
						"transferOwnership(address)": "30786",
						"vestingAmount(uint256)": "infinite",
						"vestings(uint256)": "infinite"
					}
				},
				"methodIdentifiers": {
					"addVesting(address,uint256,uint256)": "4691a998",
					"beneficiary(uint256)": "5daa3160",
					"getTime()": "557ed1ba",
					"owner()": "8da5cb5b",
					"release(uint256)": "37bdc99b",
					"releaseTime(uint256)": "09c4bb2b",
					"removeVesting(uint256)": "1bcde4ec",
					"renounceOwnership()": "715018a6",
					"retrieveExcessTokens(uint256)": "6eb48096",
					"token()": "fc0c546a",
					"transferOwnership(address)": "f2fde38b",
					"vestingAmount(uint256)": "07ad23ef",
					"vestings(uint256)": "821bee73"
				}
			},
			"userdoc": {
				"kind": "user",
				"methods": {},
				"version": 1
			}
		}
	}
}