{
	"contracts/TokenVesting.sol": {
		"TokenVesting": {
			"abi": [
				{
					"inputs": [
						{
							"internalType": "address",
							"name": "token_",
							"type": "address"
						}
					],
					"stateMutability": "nonpayable",
					"type": "constructor"
				},
				{
					"anonymous": false,
					"inputs": [
						{
							"indexed": true,
							"internalType": "address",
							"name": "previousOwner",
							"type": "address"
						},
						{
							"indexed": true,
							"internalType": "address",
							"name": "newOwner",
							"type": "address"
						}
					],
					"name": "OwnershipTransferred",
					"type": "event"
				},
				{
					"anonymous": false,
					"inputs": [
						{
							"indexed": false,
							"internalType": "uint256",
							"name": "amount",
							"type": "uint256"
						}
					],
					"name": "Released",
					"type": "event"
				},
				{
					"anonymous": false,
					"inputs": [],
					"name": "Revoked",
					"type": "event"
				},
				{
					"stateMutability": "payable",
					"type": "fallback"
				},
				{
					"inputs": [
						{
							"internalType": "address",
							"name": "holder",
							"type": "address"
						}
					],
					"name": "computeNextVestingScheduleIdForHolder",
					"outputs": [
						{
							"internalType": "bytes32",
							"name": "",
							"type": "bytes32"
						}
					],
					"stateMutability": "view",
					"type": "function"
				},
				{
					"inputs": [
						{
							"internalType": "bytes32",
							"name": "vestingScheduleId",
							"type": "bytes32"
						}
					],
					"name": "computeReleasableAmount",
					"outputs": [
						{
							"internalType": "uint256",
							"name": "",
							"type": "uint256"
						}
					],
					"stateMutability": "view",
					"type": "function"
				},
				{
					"inputs": [
						{
							"internalType": "address",
							"name": "holder",
							"type": "address"
						},
						{
							"internalType": "uint256",
							"name": "index",
							"type": "uint256"
						}
					],
					"name": "computeVestingScheduleIdForAddressAndIndex",
					"outputs": [
						{
							"internalType": "bytes32",
							"name": "",
							"type": "bytes32"
						}
					],
					"stateMutability": "pure",
					"type": "function"
				},
				{
					"inputs": [
						{
							"internalType": "address",
							"name": "_beneficiary",
							"type": "address"
						},
						{
							"internalType": "uint256",
							"name": "_start",
							"type": "uint256"
						},
						{
							"internalType": "uint256",
							"name": "_cliff",
							"type": "uint256"
						},
						{
							"internalType": "uint256",
							"name": "_duration",
							"type": "uint256"
						},
						{
							"internalType": "uint256",
							"name": "_slicePeriodSeconds",
							"type": "uint256"
						},
						{
							"internalType": "bool",
							"name": "_revocable",
							"type": "bool"
						},
						{
							"internalType": "uint256",
							"name": "_amount",
							"type": "uint256"
						}
					],
					"name": "createVestingSchedule",
					"outputs": [],
					"stateMutability": "nonpayable",
					"type": "function"
				},
				{
					"inputs": [
						{
							"internalType": "address",
							"name": "holder",
							"type": "address"
						}
					],
					"name": "getLastVestingScheduleForHolder",
					"outputs": [
						{
							"components": [
								{
									"internalType": "bool",
									"name": "initialized",
									"type": "bool"
								},
								{
									"internalType": "address",
									"name": "beneficiary",
									"type": "address"
								},
								{
									"internalType": "uint256",
									"name": "cliff",
									"type": "uint256"
								},
								{
									"internalType": "uint256",
									"name": "start",
									"type": "uint256"
								},
								{
									"internalType": "uint256",
									"name": "duration",
									"type": "uint256"
								},
								{
									"internalType": "uint256",
									"name": "slicePeriodSeconds",
									"type": "uint256"
								},
								{
									"internalType": "bool",
									"name": "revocable",
									"type": "bool"
								},
								{
									"internalType": "uint256",
									"name": "amountTotal",
									"type": "uint256"
								},
								{
									"internalType": "uint256",
									"name": "released",
									"type": "uint256"
								},
								{
									"internalType": "bool",
									"name": "revoked",
									"type": "bool"
								}
							],
							"internalType": "struct TokenVesting.VestingSchedule",
							"name": "",
							"type": "tuple"
						}
					],
					"stateMutability": "view",
					"type": "function"
				},
				{
					"inputs": [],
					"name": "getToken",
					"outputs": [
						{
							"internalType": "address",
							"name": "",
							"type": "address"
						}
					],
					"stateMutability": "view",
					"type": "function"
				},
				{
					"inputs": [
						{
							"internalType": "uint256",
							"name": "index",
							"type": "uint256"
						}
					],
					"name": "getVestingIdAtIndex",
					"outputs": [
						{
							"internalType": "bytes32",
							"name": "",
							"type": "bytes32"
						}
					],
					"stateMutability": "view",
					"type": "function"
				},
				{
					"inputs": [
						{
							"internalType": "bytes32",
							"name": "vestingScheduleId",
							"type": "bytes32"
						}
					],
					"name": "getVestingSchedule",
					"outputs": [
						{
							"components": [
								{
									"internalType": "bool",
									"name": "initialized",
									"type": "bool"
								},
								{
									"internalType": "address",
									"name": "beneficiary",
									"type": "address"
								},
								{
									"internalType": "uint256",
									"name": "cliff",
									"type": "uint256"
								},
								{
									"internalType": "uint256",
									"name": "start",
									"type": "uint256"
								},
								{
									"internalType": "uint256",
									"name": "duration",
									"type": "uint256"
								},
								{
									"internalType": "uint256",
									"name": "slicePeriodSeconds",
									"type": "uint256"
								},
								{
									"internalType": "bool",
									"name": "revocable",
									"type": "bool"
								},
								{
									"internalType": "uint256",
									"name": "amountTotal",
									"type": "uint256"
								},
								{
									"internalType": "uint256",
									"name": "released",
									"type": "uint256"
								},
								{
									"internalType": "bool",
									"name": "revoked",
									"type": "bool"
								}
							],
							"internalType": "struct TokenVesting.VestingSchedule",
							"name": "",
							"type": "tuple"
						}
					],
					"stateMutability": "view",
					"type": "function"
				},
				{
					"inputs": [
						{
							"internalType": "address",
							"name": "holder",
							"type": "address"
						},
						{
							"internalType": "uint256",
							"name": "index",
							"type": "uint256"
						}
					],
					"name": "getVestingScheduleByAddressAndIndex",
					"outputs": [
						{
							"components": [
								{
									"internalType": "bool",
									"name": "initialized",
									"type": "bool"
								},
								{
									"internalType": "address",
									"name": "beneficiary",
									"type": "address"
								},
								{
									"internalType": "uint256",
									"name": "cliff",
									"type": "uint256"
								},
								{
									"internalType": "uint256",
									"name": "start",
									"type": "uint256"
								},
								{
									"internalType": "uint256",
									"name": "duration",
									"type": "uint256"
								},
								{
									"internalType": "uint256",
									"name": "slicePeriodSeconds",
									"type": "uint256"
								},
								{
									"internalType": "bool",
									"name": "revocable",
									"type": "bool"
								},
								{
									"internalType": "uint256",
									"name": "amountTotal",
									"type": "uint256"
								},
								{
									"internalType": "uint256",
									"name": "released",
									"type": "uint256"
								},
								{
									"internalType": "bool",
									"name": "revoked",
									"type": "bool"
								}
							],
							"internalType": "struct TokenVesting.VestingSchedule",
							"name": "",
							"type": "tuple"
						}
					],
					"stateMutability": "view",
					"type": "function"
				},
				{
					"inputs": [],
					"name": "getVestingSchedulesCount",
					"outputs": [
						{
							"internalType": "uint256",
							"name": "",
							"type": "uint256"
						}
					],
					"stateMutability": "view",
					"type": "function"
				},
				{
					"inputs": [
						{
							"internalType": "address",
							"name": "_beneficiary",
							"type": "address"
						}
					],
					"name": "getVestingSchedulesCountByBeneficiary",
					"outputs": [
						{
							"internalType": "uint256",
							"name": "",
							"type": "uint256"
						}
					],
					"stateMutability": "view",
					"type": "function"
				},
				{
					"inputs": [],
					"name": "getVestingSchedulesTotalAmount",
					"outputs": [
						{
							"internalType": "uint256",
							"name": "",
							"type": "uint256"
						}
					],
					"stateMutability": "view",
					"type": "function"
				},
				{
					"inputs": [],
					"name": "getWithdrawableAmount",
					"outputs": [
						{
							"internalType": "uint256",
							"name": "",
							"type": "uint256"
						}
					],
					"stateMutability": "view",
					"type": "function"
				},
				{
					"inputs": [],
					"name": "owner",
					"outputs": [
						{
							"internalType": "address",
							"name": "",
							"type": "address"
						}
					],
					"stateMutability": "view",
					"type": "function"
				},
				{
					"inputs": [
						{
							"internalType": "bytes32",
							"name": "vestingScheduleId",
							"type": "bytes32"
						},
						{
							"internalType": "uint256",
							"name": "amount",
							"type": "uint256"
						}
					],
					"name": "release",
					"outputs": [],
					"stateMutability": "nonpayable",
					"type": "function"
				},
				{
					"inputs": [],
					"name": "renounceOwnership",
					"outputs": [],
					"stateMutability": "nonpayable",
					"type": "function"
				},
				{
					"inputs": [
						{
							"internalType": "bytes32",
							"name": "vestingScheduleId",
							"type": "bytes32"
						}
					],
					"name": "revoke",
					"outputs": [],
					"stateMutability": "nonpayable",
					"type": "function"
				},
				{
					"inputs": [
						{
							"internalType": "address",
							"name": "newOwner",
							"type": "address"
						}
					],
					"name": "transferOwnership",
					"outputs": [],
					"stateMutability": "nonpayable",
					"type": "function"
				},
				{
					"inputs": [
						{
							"internalType": "uint256",
							"name": "amount",
							"type": "uint256"
						}
					],
					"name": "withdraw",
					"outputs": [],
					"stateMutability": "nonpayable",
					"type": "function"
				},
				{
					"stateMutability": "payable",
					"type": "receive"
				}
			],
			"devdoc": {
				"kind": "dev",
				"methods": {
					"computeNextVestingScheduleIdForHolder(address)": {
						"details": "Computes the next vesting schedule identifier for a given holder address."
					},
					"computeReleasableAmount(bytes32)": {
						"returns": {
							"_0": "the vested amount"
						}
					},
					"computeVestingScheduleIdForAddressAndIndex(address,uint256)": {
						"details": "Computes the vesting schedule identifier for an address and an index."
					},
					"constructor": {
						"details": "Creates a vesting contract.",
						"params": {
							"token_": "address of the ERC20 token contract"
						}
					},
					"createVestingSchedule(address,uint256,uint256,uint256,uint256,bool,uint256)": {
						"params": {
							"_amount": "total amount of tokens to be released at the end of the vesting",
							"_beneficiary": "address of the beneficiary to whom vested tokens are transferred",
							"_cliff": "duration in seconds of the cliff in which tokens will begin to vest",
							"_duration": "duration in seconds of the period in which the tokens will vest",
							"_revocable": "whether the vesting is revocable or not",
							"_slicePeriodSeconds": "duration of a slice period for the vesting in seconds",
							"_start": "start time of the vesting period"
						}
					},
					"getLastVestingScheduleForHolder(address)": {
						"details": "Returns the last vesting schedule for a given holder address."
					},
					"getToken()": {
						"details": "Returns the address of the ERC20 token managed by the vesting contract."
					},
					"getVestingIdAtIndex(uint256)": {
						"details": "Returns the vesting schedule id at the given index.",
						"returns": {
							"_0": "the vesting id"
						}
					},
					"getVestingSchedule(bytes32)": {
						"returns": {
							"_0": "the vesting schedule structure information"
						}
					},
					"getVestingScheduleByAddressAndIndex(address,uint256)": {
						"returns": {
							"_0": "the vesting schedule structure information"
						}
					},
					"getVestingSchedulesCount()": {
						"details": "Returns the number of vesting schedules managed by this contract.",
						"returns": {
							"_0": "the number of vesting schedules"
						}
					},
					"getVestingSchedulesCountByBeneficiary(address)": {
						"details": "Returns the number of vesting schedules associated to a beneficiary.",
						"returns": {
							"_0": "the number of vesting schedules"
						}
					},
					"getVestingSchedulesTotalAmount()": {
						"returns": {
							"_0": "the total amount of vesting schedules"
						}
					},
					"getWithdrawableAmount()": {
						"details": "Returns the amount of tokens that can be withdrawn by the owner.",
						"returns": {
							"_0": "the amount of tokens"
						}
					},
					"owner()": {
						"details": "Returns the address of the current owner."
					},
					"release(bytes32,uint256)": {
						"params": {
							"amount": "the amount to release",
							"vestingScheduleId": "the vesting schedule identifier"
						}
					},
					"renounceOwnership()": {
						"details": "Leaves the contract without owner. It will not be possible to call `onlyOwner` functions anymore. Can only be called by the current owner. NOTE: Renouncing ownership will leave the contract without an owner, thereby removing any functionality that is only available to the owner."
					},
					"revoke(bytes32)": {
						"params": {
							"vestingScheduleId": "the vesting schedule identifier"
						}
					},
					"transferOwnership(address)": {
						"details": "Transfers ownership of the contract to a new account (`newOwner`). Can only be called by the current owner."
					},
					"withdraw(uint256)": {
						"params": {
							"amount": "the amount to withdraw"
						}
					}
				},
				"title": "TokenVesting",
				"version": 1
			},
			"evm": {
				"assembly": "    /* \"contracts/TokenVesting.sol\":29153:40824  contract TokenVesting is Ownable, ReentrancyGuard{... */\n  mstore(0x40, 0xa0)\n    /* \"contracts/TokenVesting.sol\":31087:31196  constructor(address token_) {... */\n  callvalue\n  dup1\n  iszero\n  tag_1\n  jumpi\n  0x00\n  dup1\n  revert\ntag_1:\n  pop\n  mload(0x40)\n  sub(codesize, bytecodeSize)\n  dup1\n  bytecodeSize\n  dup4\n  codecopy\n  dup2\n  dup2\n  add\n  0x40\n  mstore\n  dup2\n  add\n  swap1\n  tag_2\n  swap2\n  swap1\n  tag_3\n  jump\t// in\ntag_2:\n    /* \"contracts/TokenVesting.sol\":9857:9889  _transferOwnership(_msgSender()) */\n  tag_8\n    /* \"contracts/TokenVesting.sol\":9876:9888  _msgSender() */\n  tag_9\n    /* \"contracts/TokenVesting.sol\":9876:9886  _msgSender */\n  shl(0x20, tag_10)\n    /* \"contracts/TokenVesting.sol\":9876:9888  _msgSender() */\n  0x20\n  shr\n  jump\t// in\ntag_9:\n    /* \"contracts/TokenVesting.sol\":9857:9875  _transferOwnership */\n  shl(0x20, tag_11)\n    /* \"contracts/TokenVesting.sol\":9857:9889  _transferOwnership(_msgSender()) */\n  0x20\n  shr\n  jump\t// in\ntag_8:\n    /* \"contracts/TokenVesting.sol\":13130:13131  1 */\n  0x01\n    /* \"contracts/TokenVesting.sol\":13235:13242  _status */\n  dup1\n    /* \"contracts/TokenVesting.sol\":13235:13257  _status = _NOT_ENTERED */\n  dup2\n  swap1\n  sstore\n  pop\n    /* \"contracts/TokenVesting.sol\":31151:31154  0x0 */\n  0x00\n    /* \"contracts/TokenVesting.sol\":31133:31155  token_ != address(0x0) */\n  0xffffffffffffffffffffffffffffffffffffffff\n  and\n    /* \"contracts/TokenVesting.sol\":31133:31139  token_ */\n  dup2\n    /* \"contracts/TokenVesting.sol\":31133:31155  token_ != address(0x0) */\n  0xffffffffffffffffffffffffffffffffffffffff\n  and\n  sub\n    /* \"contracts/TokenVesting.sol\":31125:31156  require(token_ != address(0x0)) */\n  tag_14\n  jumpi\n  0x00\n  dup1\n  revert\ntag_14:\n    /* \"contracts/TokenVesting.sol\":31182:31188  token_ */\n  dup1\n    /* \"contracts/TokenVesting.sol\":31166:31189  _token = IERC20(token_) */\n  0xffffffffffffffffffffffffffffffffffffffff\n  and\n  0x80\n  dup2\n  0xffffffffffffffffffffffffffffffffffffffff\n  and\n  dup2\n  mstore\n  pop\n  pop\n    /* \"contracts/TokenVesting.sol\":31087:31196  constructor(address token_) {... */\n  pop\n    /* \"contracts/TokenVesting.sol\":29153:40824  contract TokenVesting is Ownable, ReentrancyGuard{... */\n  jump(tag_15)\n    /* \"contracts/TokenVesting.sol\":8740:8836  function _msgSender() internal view virtual returns (address) {... */\ntag_10:\n    /* \"contracts/TokenVesting.sol\":8793:8800  address */\n  0x00\n    /* \"contracts/TokenVesting.sol\":8819:8829  msg.sender */\n  caller\n    /* \"contracts/TokenVesting.sol\":8812:8829  return msg.sender */\n  swap1\n  pop\n    /* \"contracts/TokenVesting.sol\":8740:8836  function _msgSender() internal view virtual returns (address) {... */\n  swap1\n  jump\t// out\n    /* \"contracts/TokenVesting.sol\":11206:11393  function _transferOwnership(address newOwner) internal virtual {... */\ntag_11:\n    /* \"contracts/TokenVesting.sol\":11279:11295  address oldOwner */\n  0x00\n    /* \"contracts/TokenVesting.sol\":11298:11304  _owner */\n  dup1\n  0x00\n  swap1\n  sload\n  swap1\n  0x0100\n  exp\n  swap1\n  div\n  0xffffffffffffffffffffffffffffffffffffffff\n  and\n    /* \"contracts/TokenVesting.sol\":11279:11304  address oldOwner = _owner */\n  swap1\n  pop\n    /* \"contracts/TokenVesting.sol\":11323:11331  newOwner */\n  dup2\n    /* \"contracts/TokenVesting.sol\":11314:11320  _owner */\n  0x00\n  dup1\n    /* \"contracts/TokenVesting.sol\":11314:11331  _owner = newOwner */\n  0x0100\n  exp\n  dup2\n  sload\n  dup2\n  0xffffffffffffffffffffffffffffffffffffffff\n  mul\n  not\n  and\n  swap1\n  dup4\n  0xffffffffffffffffffffffffffffffffffffffff\n  and\n  mul\n  or\n  swap1\n  sstore\n  pop\n    /* \"contracts/TokenVesting.sol\":11377:11385  newOwner */\n  dup2\n    /* \"contracts/TokenVesting.sol\":11346:11386  OwnershipTransferred(oldOwner, newOwner) */\n  0xffffffffffffffffffffffffffffffffffffffff\n  and\n    /* \"contracts/TokenVesting.sol\":11367:11375  oldOwner */\n  dup2\n    /* \"contracts/TokenVesting.sol\":11346:11386  OwnershipTransferred(oldOwner, newOwner) */\n  0xffffffffffffffffffffffffffffffffffffffff\n  and\n  0x8be0079c531659141344cd1fd0a4f28419497f9722a3daafe3b4186f6b6457e0\n  mload(0x40)\n  mload(0x40)\n  dup1\n  swap2\n  sub\n  swap1\n  log3\n    /* \"contracts/TokenVesting.sol\":11269:11393  {... */\n  pop\n    /* \"contracts/TokenVesting.sol\":11206:11393  function _transferOwnership(address newOwner) internal virtual {... */\n  pop\n  jump\t// out\n    /* \"#utility.yul\":88:205   */\ntag_19:\n    /* \"#utility.yul\":197:198   */\n  0x00\n    /* \"#utility.yul\":194:195   */\n  dup1\n    /* \"#utility.yul\":187:199   */\n  revert\n    /* \"#utility.yul\":334:460   */\ntag_21:\n    /* \"#utility.yul\":371:378   */\n  0x00\n    /* \"#utility.yul\":411:453   */\n  0xffffffffffffffffffffffffffffffffffffffff\n    /* \"#utility.yul\":404:409   */\n  dup3\n    /* \"#utility.yul\":400:454   */\n  and\n    /* \"#utility.yul\":389:454   */\n  swap1\n  pop\n    /* \"#utility.yul\":334:460   */\n  swap2\n  swap1\n  pop\n  jump\t// out\n    /* \"#utility.yul\":466:562   */\ntag_22:\n    /* \"#utility.yul\":503:510   */\n  0x00\n    /* \"#utility.yul\":532:556   */\n  tag_31\n    /* \"#utility.yul\":550:555   */\n  dup3\n    /* \"#utility.yul\":532:556   */\n  tag_21\n  jump\t// in\ntag_31:\n    /* \"#utility.yul\":521:556   */\n  swap1\n  pop\n    /* \"#utility.yul\":466:562   */\n  swap2\n  swap1\n  pop\n  jump\t// out\n    /* \"#utility.yul\":568:690   */\ntag_23:\n    /* \"#utility.yul\":641:665   */\n  tag_33\n    /* \"#utility.yul\":659:664   */\n  dup2\n    /* \"#utility.yul\":641:665   */\n  tag_22\n  jump\t// in\ntag_33:\n    /* \"#utility.yul\":634:639   */\n  dup2\n    /* \"#utility.yul\":631:666   */\n  eq\n    /* \"#utility.yul\":621:684   */\n  tag_34\n  jumpi\n    /* \"#utility.yul\":680:681   */\n  0x00\n    /* \"#utility.yul\":677:678   */\n  dup1\n    /* \"#utility.yul\":670:682   */\n  revert\n    /* \"#utility.yul\":621:684   */\ntag_34:\n    /* \"#utility.yul\":568:690   */\n  pop\n  jump\t// out\n    /* \"#utility.yul\":696:839   */\ntag_24:\n    /* \"#utility.yul\":753:758   */\n  0x00\n    /* \"#utility.yul\":784:790   */\n  dup2\n    /* \"#utility.yul\":778:791   */\n  mload\n    /* \"#utility.yul\":769:791   */\n  swap1\n  pop\n    /* \"#utility.yul\":800:833   */\n  tag_36\n    /* \"#utility.yul\":827:832   */\n  dup2\n    /* \"#utility.yul\":800:833   */\n  tag_23\n  jump\t// in\ntag_36:\n    /* \"#utility.yul\":696:839   */\n  swap3\n  swap2\n  pop\n  pop\n  jump\t// out\n    /* \"#utility.yul\":845:1196   */\ntag_3:\n    /* \"#utility.yul\":915:921   */\n  0x00\n    /* \"#utility.yul\":964:966   */\n  0x20\n    /* \"#utility.yul\":952:961   */\n  dup3\n    /* \"#utility.yul\":943:950   */\n  dup5\n    /* \"#utility.yul\":939:962   */\n  sub\n    /* \"#utility.yul\":935:967   */\n  slt\n    /* \"#utility.yul\":932:1051   */\n  iszero\n  tag_38\n  jumpi\n    /* \"#utility.yul\":970:1049   */\n  tag_39\n  tag_19\n  jump\t// in\ntag_39:\n    /* \"#utility.yul\":932:1051   */\ntag_38:\n    /* \"#utility.yul\":1090:1091   */\n  0x00\n    /* \"#utility.yul\":1115:1179   */\n  tag_40\n    /* \"#utility.yul\":1171:1178   */\n  dup5\n    /* \"#utility.yul\":1162:1168   */\n  dup3\n    /* \"#utility.yul\":1151:1160   */\n  dup6\n    /* \"#utility.yul\":1147:1169   */\n  add\n    /* \"#utility.yul\":1115:1179   */\n  tag_24\n  jump\t// in\ntag_40:\n    /* \"#utility.yul\":1105:1179   */\n  swap2\n  pop\n    /* \"#utility.yul\":1061:1189   */\n  pop\n    /* \"#utility.yul\":845:1196   */\n  swap3\n  swap2\n  pop\n  pop\n  jump\t// out\n    /* \"contracts/TokenVesting.sol\":29153:40824  contract TokenVesting is Ownable, ReentrancyGuard{... */\ntag_15:\n  mload(0x80)\n  codecopy(0x00, dataOffset(sub_0), dataSize(sub_0))\n  0x00\n  assignImmutable(\"0x839ac2531f20fe9a51575c267a15e869d3e77e841399d7773397554c4084777a\")\n  return(0x00, dataSize(sub_0))\nstop\n\nsub_0: assembly {\n        /* \"contracts/TokenVesting.sol\":29153:40824  contract TokenVesting is Ownable, ReentrancyGuard{... */\n      mstore(0x40, 0x80)\n      jumpi(tag_1, lt(calldatasize, 0x04))\n      shr(0xe0, calldataload(0x00))\n      dup1\n      0x8af104da\n      gt\n      tag_22\n      jumpi\n      dup1\n      0xea1bb3d5\n      gt\n      tag_23\n      jumpi\n      dup1\n      0xea1bb3d5\n      eq\n      tag_17\n      jumpi\n      dup1\n      0xf2fde38b\n      eq\n      tag_18\n      jumpi\n      dup1\n      0xf51321d7\n      eq\n      tag_19\n      jumpi\n      dup1\n      0xf7c469f0\n      eq\n      tag_20\n      jumpi\n      dup1\n      0xf9079b37\n      eq\n      tag_21\n      jumpi\n      jump(tag_2)\n    tag_23:\n      dup1\n      0x8af104da\n      eq\n      tag_12\n      jumpi\n      dup1\n      0x8da5cb5b\n      eq\n      tag_13\n      jumpi\n      dup1\n      0x90be10cc\n      eq\n      tag_14\n      jumpi\n      dup1\n      0x9ef346b4\n      eq\n      tag_15\n      jumpi\n      dup1\n      0xb75c7dc6\n      eq\n      tag_16\n      jumpi\n      jump(tag_2)\n    tag_22:\n      dup1\n      0x48deb471\n      gt\n      tag_24\n      jumpi\n      dup1\n      0x48deb471\n      eq\n      tag_7\n      jumpi\n      dup1\n      0x5a7bb69a\n      eq\n      tag_8\n      jumpi\n      dup1\n      0x66afd8ef\n      eq\n      tag_9\n      jumpi\n      dup1\n      0x715018a6\n      eq\n      tag_10\n      jumpi\n      dup1\n      0x7e913dc6\n      eq\n      tag_11\n      jumpi\n      jump(tag_2)\n    tag_24:\n      dup1\n      0x13083617\n      eq\n      tag_3\n      jumpi\n      dup1\n      0x17e289e9\n      eq\n      tag_4\n      jumpi\n      dup1\n      0x21df0da7\n      eq\n      tag_5\n      jumpi\n      dup1\n      0x2e1a7d4d\n      eq\n      tag_6\n      jumpi\n      jump(tag_2)\n    tag_1:\n      jumpi(tag_2, calldatasize)\n      stop\n    tag_2:\n      stop\n        /* \"contracts/TokenVesting.sol\":37332:37470  function getVestingSchedulesCount()... */\n    tag_3:\n      callvalue\n      dup1\n      iszero\n      tag_29\n      jumpi\n      0x00\n      dup1\n      revert\n    tag_29:\n      pop\n      tag_30\n      tag_31\n      jump\t// in\n    tag_30:\n      mload(0x40)\n      tag_32\n      swap2\n      swap1\n      tag_33\n      jump\t// in\n    tag_32:\n      mload(0x40)\n      dup1\n      swap2\n      sub\n      swap1\n      return\n        /* \"contracts/TokenVesting.sol\":33424:34797  function createVestingSchedule(... */\n    tag_4:\n      callvalue\n      dup1\n      iszero\n      tag_34\n      jumpi\n      0x00\n      dup1\n      revert\n    tag_34:\n      pop\n      tag_35\n      0x04\n      dup1\n      calldatasize\n      sub\n      dup2\n      add\n      swap1\n      tag_36\n      swap2\n      swap1\n      tag_37\n      jump\t// in\n    tag_36:\n      tag_38\n      jump\t// in\n    tag_35:\n      stop\n        /* \"contracts/TokenVesting.sol\":32684:32785  function getToken()... */\n    tag_5:\n      callvalue\n      dup1\n      iszero\n      tag_39\n      jumpi\n      0x00\n      dup1\n      revert\n    tag_39:\n      pop\n      tag_40\n      tag_41\n      jump\t// in\n    tag_40:\n      mload(0x40)\n      tag_42\n      swap2\n      swap1\n      tag_43\n      jump\t// in\n    tag_42:\n      mload(0x40)\n      dup1\n      swap2\n      sub\n      swap1\n      return\n        /* \"contracts/TokenVesting.sol\":35766:36010  function withdraw(uint256 amount)... */\n    tag_6:\n      callvalue\n      dup1\n      iszero\n      tag_44\n      jumpi\n      0x00\n      dup1\n      revert\n    tag_44:\n      pop\n      tag_45\n      0x04\n      dup1\n      calldatasize\n      sub\n      dup2\n      add\n      swap1\n      tag_46\n      swap2\n      swap1\n      tag_47\n      jump\t// in\n    tag_46:\n      tag_48\n      jump\t// in\n    tag_45:\n      stop\n        /* \"contracts/TokenVesting.sol\":32446:32581  function getVestingSchedulesTotalAmount()... */\n    tag_7:\n      callvalue\n      dup1\n      iszero\n      tag_49\n      jumpi\n      0x00\n      dup1\n      revert\n    tag_49:\n      pop\n      tag_50\n      tag_51\n      jump\t// in\n    tag_50:\n      mload(0x40)\n      tag_52\n      swap2\n      swap1\n      tag_33\n      jump\t// in\n    tag_52:\n      mload(0x40)\n      dup1\n      swap2\n      sub\n      swap1\n      return\n        /* \"contracts/TokenVesting.sol\":31411:31579  function getVestingSchedulesCountByBeneficiary(address _beneficiary)... */\n    tag_8:\n      callvalue\n      dup1\n      iszero\n      tag_53\n      jumpi\n      0x00\n      dup1\n      revert\n    tag_53:\n      pop\n      tag_54\n      0x04\n      dup1\n      calldatasize\n      sub\n      dup2\n      add\n      swap1\n      tag_55\n      swap2\n      swap1\n      tag_56\n      jump\t// in\n    tag_55:\n      tag_57\n      jump\t// in\n    tag_54:\n      mload(0x40)\n      tag_58\n      swap2\n      swap1\n      tag_33\n      jump\t// in\n    tag_58:\n      mload(0x40)\n      dup1\n      swap2\n      sub\n      swap1\n      return\n        /* \"contracts/TokenVesting.sol\":36182:37189  function release(... */\n    tag_9:\n      callvalue\n      dup1\n      iszero\n      tag_59\n      jumpi\n      0x00\n      dup1\n      revert\n    tag_59:\n      pop\n      tag_60\n      0x04\n      dup1\n      calldatasize\n      sub\n      dup2\n      add\n      swap1\n      tag_61\n      swap2\n      swap1\n      tag_62\n      jump\t// in\n    tag_61:\n      tag_63\n      jump\t// in\n    tag_60:\n      stop\n        /* \"contracts/TokenVesting.sol\":10604:10705  function renounceOwnership() public virtual onlyOwner {... */\n    tag_10:\n      callvalue\n      dup1\n      iszero\n      tag_64\n      jumpi\n      0x00\n      dup1\n      revert\n    tag_64:\n      pop\n      tag_65\n      tag_66\n      jump\t// in\n    tag_65:\n      stop\n        /* \"contracts/TokenVesting.sol\":38996:39245  function getLastVestingScheduleForHolder(address holder)... */\n    tag_11:\n      callvalue\n      dup1\n      iszero\n      tag_67\n      jumpi\n      0x00\n      dup1\n      revert\n    tag_67:\n      pop\n      tag_68\n      0x04\n      dup1\n      calldatasize\n      sub\n      dup2\n      add\n      swap1\n      tag_69\n      swap2\n      swap1\n      tag_56\n      jump\t// in\n    tag_69:\n      tag_70\n      jump\t// in\n    tag_68:\n      mload(0x40)\n      tag_71\n      swap2\n      swap1\n      tag_72\n      jump\t// in\n    tag_71:\n      mload(0x40)\n      dup1\n      swap2\n      sub\n      swap1\n      return\n        /* \"contracts/TokenVesting.sol\":39346:39547  function computeVestingScheduleIdForAddressAndIndex(address holder, uint256 index)... */\n    tag_12:\n      callvalue\n      dup1\n      iszero\n      tag_73\n      jumpi\n      0x00\n      dup1\n      revert\n    tag_73:\n      pop\n      tag_74\n      0x04\n      dup1\n      calldatasize\n      sub\n      dup2\n      add\n      swap1\n      tag_75\n      swap2\n      swap1\n      tag_76\n      jump\t// in\n    tag_75:\n      tag_77\n      jump\t// in\n    tag_74:\n      mload(0x40)\n      tag_78\n      swap2\n      swap1\n      tag_79\n      jump\t// in\n    tag_78:\n      mload(0x40)\n      dup1\n      swap2\n      sub\n      swap1\n      return\n        /* \"contracts/TokenVesting.sol\":9972:10057  function owner() public view virtual returns (address) {... */\n    tag_13:\n      callvalue\n      dup1\n      iszero\n      tag_80\n      jumpi\n      0x00\n      dup1\n      revert\n    tag_80:\n      pop\n      tag_81\n      tag_82\n      jump\t// in\n    tag_81:\n      mload(0x40)\n      tag_83\n      swap2\n      swap1\n      tag_43\n      jump\t// in\n    tag_83:\n      mload(0x40)\n      dup1\n      swap2\n      sub\n      swap1\n      return\n        /* \"contracts/TokenVesting.sol\":38407:38580  function getWithdrawableAmount()... */\n    tag_14:\n      callvalue\n      dup1\n      iszero\n      tag_84\n      jumpi\n      0x00\n      dup1\n      revert\n    tag_84:\n      pop\n      tag_85\n      tag_86\n      jump\t// in\n    tag_85:\n      mload(0x40)\n      tag_87\n      swap2\n      swap1\n      tag_33\n      jump\t// in\n    tag_87:\n      mload(0x40)\n      dup1\n      swap2\n      sub\n      swap1\n      return\n        /* \"contracts/TokenVesting.sol\":38095:38276  function getVestingSchedule(bytes32 vestingScheduleId)... */\n    tag_15:\n      callvalue\n      dup1\n      iszero\n      tag_88\n      jumpi\n      0x00\n      dup1\n      revert\n    tag_88:\n      pop\n      tag_89\n      0x04\n      dup1\n      calldatasize\n      sub\n      dup2\n      add\n      swap1\n      tag_90\n      swap2\n      swap1\n      tag_91\n      jump\t// in\n    tag_90:\n      tag_92\n      jump\t// in\n    tag_89:\n      mload(0x40)\n      tag_93\n      swap2\n      swap1\n      tag_72\n      jump\t// in\n    tag_93:\n      mload(0x40)\n      dup1\n      swap2\n      sub\n      swap1\n      return\n        /* \"contracts/TokenVesting.sol\":34945:35646  function revoke(bytes32 vestingScheduleId)... */\n    tag_16:\n      callvalue\n      dup1\n      iszero\n      tag_94\n      jumpi\n      0x00\n      dup1\n      revert\n    tag_94:\n      pop\n      tag_95\n      0x04\n      dup1\n      calldatasize\n      sub\n      dup2\n      add\n      swap1\n      tag_96\n      swap2\n      swap1\n      tag_91\n      jump\t// in\n    tag_96:\n      tag_97\n      jump\t// in\n    tag_95:\n      stop\n        /* \"contracts/TokenVesting.sol\":37616:37939  function computeReleasableAmount(bytes32 vestingScheduleId)... */\n    tag_17:\n      callvalue\n      dup1\n      iszero\n      tag_98\n      jumpi\n      0x00\n      dup1\n      revert\n    tag_98:\n      pop\n      tag_99\n      0x04\n      dup1\n      calldatasize\n      sub\n      dup2\n      add\n      swap1\n      tag_100\n      swap2\n      swap1\n      tag_91\n      jump\t// in\n    tag_100:\n      tag_101\n      jump\t// in\n    tag_99:\n      mload(0x40)\n      tag_102\n      swap2\n      swap1\n      tag_33\n      jump\t// in\n    tag_102:\n      mload(0x40)\n      dup1\n      swap2\n      sub\n      swap1\n      return\n        /* \"contracts/TokenVesting.sol\":10854:11052  function transferOwnership(address newOwner) public virtual onlyOwner {... */\n    tag_18:\n      callvalue\n      dup1\n      iszero\n      tag_103\n      jumpi\n      0x00\n      dup1\n      revert\n    tag_103:\n      pop\n      tag_104\n      0x04\n      dup1\n      calldatasize\n      sub\n      dup2\n      add\n      swap1\n      tag_105\n      swap2\n      swap1\n      tag_56\n      jump\t// in\n    tag_105:\n      tag_106\n      jump\t// in\n    tag_104:\n      stop\n        /* \"contracts/TokenVesting.sol\":32079:32313  function getVestingScheduleByAddressAndIndex(address holder, uint256 index)... */\n    tag_19:\n      callvalue\n      dup1\n      iszero\n      tag_107\n      jumpi\n      0x00\n      dup1\n      revert\n    tag_107:\n      pop\n      tag_108\n      0x04\n      dup1\n      calldatasize\n      sub\n      dup2\n      add\n      swap1\n      tag_109\n      swap2\n      swap1\n      tag_76\n      jump\t// in\n    tag_109:\n      tag_110\n      jump\t// in\n    tag_108:\n      mload(0x40)\n      tag_111\n      swap2\n      swap1\n      tag_72\n      jump\t// in\n    tag_111:\n      mload(0x40)\n      dup1\n      swap2\n      sub\n      swap1\n      return\n        /* \"contracts/TokenVesting.sol\":38685:38903  function computeNextVestingScheduleIdForHolder(address holder)... */\n    tag_20:\n      callvalue\n      dup1\n      iszero\n      tag_112\n      jumpi\n      0x00\n      dup1\n      revert\n    tag_112:\n      pop\n      tag_113\n      0x04\n      dup1\n      calldatasize\n      sub\n      dup2\n      add\n      swap1\n      tag_114\n      swap2\n      swap1\n      tag_56\n      jump\t// in\n    tag_114:\n      tag_115\n      jump\t// in\n    tag_113:\n      mload(0x40)\n      tag_116\n      swap2\n      swap1\n      tag_79\n      jump\t// in\n    tag_116:\n      mload(0x40)\n      dup1\n      swap2\n      sub\n      swap1\n      return\n        /* \"contracts/TokenVesting.sol\":31691:31917  function getVestingIdAtIndex(uint256 index)... */\n    tag_21:\n      callvalue\n      dup1\n      iszero\n      tag_117\n      jumpi\n      0x00\n      dup1\n      revert\n    tag_117:\n      pop\n      tag_118\n      0x04\n      dup1\n      calldatasize\n      sub\n      dup2\n      add\n      swap1\n      tag_119\n      swap2\n      swap1\n      tag_47\n      jump\t// in\n    tag_119:\n      tag_120\n      jump\t// in\n    tag_118:\n      mload(0x40)\n      tag_121\n      swap2\n      swap1\n      tag_79\n      jump\t// in\n    tag_121:\n      mload(0x40)\n      dup1\n      swap2\n      sub\n      swap1\n      return\n        /* \"contracts/TokenVesting.sol\":37332:37470  function getVestingSchedulesCount()... */\n    tag_31:\n        /* \"contracts/TokenVesting.sol\":37412:37419  uint256 */\n      0x00\n        /* \"contracts/TokenVesting.sol\":37437:37456  vestingSchedulesIds */\n      0x02\n        /* \"contracts/TokenVesting.sol\":37437:37463  vestingSchedulesIds.length */\n      dup1\n      sload\n      swap1\n      pop\n        /* \"contracts/TokenVesting.sol\":37430:37463  return vestingSchedulesIds.length */\n      swap1\n      pop\n        /* \"contracts/TokenVesting.sol\":37332:37470  function getVestingSchedulesCount()... */\n      swap1\n      jump\t// out\n        /* \"contracts/TokenVesting.sol\":33424:34797  function createVestingSchedule(... */\n    tag_38:\n        /* \"contracts/TokenVesting.sol\":10195:10207  _msgSender() */\n      tag_124\n        /* \"contracts/TokenVesting.sol\":10195:10205  _msgSender */\n      tag_125\n        /* \"contracts/TokenVesting.sol\":10195:10207  _msgSender() */\n      jump\t// in\n    tag_124:\n        /* \"contracts/TokenVesting.sol\":10184:10207  owner() == _msgSender() */\n      0xffffffffffffffffffffffffffffffffffffffff\n      and\n        /* \"contracts/TokenVesting.sol\":10184:10191  owner() */\n      tag_126\n        /* \"contracts/TokenVesting.sol\":10184:10189  owner */\n      tag_82\n        /* \"contracts/TokenVesting.sol\":10184:10191  owner() */\n      jump\t// in\n    tag_126:\n        /* \"contracts/TokenVesting.sol\":10184:10207  owner() == _msgSender() */\n      0xffffffffffffffffffffffffffffffffffffffff\n      and\n      eq\n        /* \"contracts/TokenVesting.sol\":10176:10244  require(owner() == _msgSender(), \"Ownable: caller is not the owner\") */\n      tag_127\n      jumpi\n      mload(0x40)\n      0x08c379a000000000000000000000000000000000000000000000000000000000\n      dup2\n      mstore\n      0x04\n      add\n      tag_128\n      swap1\n      tag_129\n      jump\t// in\n    tag_128:\n      mload(0x40)\n      dup1\n      swap2\n      sub\n      swap1\n      revert\n    tag_127:\n        /* \"contracts/TokenVesting.sol\":33748:33755  _amount */\n      dup1\n        /* \"contracts/TokenVesting.sol\":33716:33720  this */\n      address\n        /* \"contracts/TokenVesting.sol\":33716:33742  this.getWithdrawableAmount */\n      0xffffffffffffffffffffffffffffffffffffffff\n      and\n      0x90be10cc\n        /* \"contracts/TokenVesting.sol\":33716:33744  this.getWithdrawableAmount() */\n      mload(0x40)\n      dup2\n      0xffffffff\n      and\n      0xe0\n      shl\n      dup2\n      mstore\n      0x04\n      add\n      0x20\n      mload(0x40)\n      dup1\n      dup4\n      sub\n      dup2\n      dup7\n      gas\n      staticcall\n      iszero\n      dup1\n      iszero\n      tag_132\n      jumpi\n      returndatasize\n      0x00\n      dup1\n      returndatacopy\n      revert(0x00, returndatasize)\n    tag_132:\n      pop\n      pop\n      pop\n      pop\n      mload(0x40)\n      returndatasize\n      not(0x1f)\n      0x1f\n      dup3\n      add\n      and\n      dup3\n      add\n      dup1\n      0x40\n      mstore\n      pop\n      dup2\n      add\n      swap1\n      tag_133\n      swap2\n      swap1\n      tag_134\n      jump\t// in\n    tag_133:\n        /* \"contracts/TokenVesting.sol\":33716:33755  this.getWithdrawableAmount() >= _amount */\n      lt\n      iszero\n        /* \"contracts/TokenVesting.sol\":33695:33855  require(... */\n      tag_135\n      jumpi\n      mload(0x40)\n      0x08c379a000000000000000000000000000000000000000000000000000000000\n      dup2\n      mstore\n      0x04\n      add\n      tag_136\n      swap1\n      tag_137\n      jump\t// in\n    tag_136:\n      mload(0x40)\n      dup1\n      swap2\n      sub\n      swap1\n      revert\n    tag_135:\n        /* \"contracts/TokenVesting.sol\":33885:33886  0 */\n      0x00\n        /* \"contracts/TokenVesting.sol\":33873:33882  _duration */\n      dup5\n        /* \"contracts/TokenVesting.sol\":33873:33886  _duration > 0 */\n      gt\n        /* \"contracts/TokenVesting.sol\":33865:33925  require(_duration > 0, \"TokenVesting: duration must be > 0\") */\n      tag_138\n      jumpi\n      mload(0x40)\n      0x08c379a000000000000000000000000000000000000000000000000000000000\n      dup2\n      mstore\n      0x04\n      add\n      tag_139\n      swap1\n      tag_140\n      jump\t// in\n    tag_139:\n      mload(0x40)\n      dup1\n      swap2\n      sub\n      swap1\n      revert\n    tag_138:\n        /* \"contracts/TokenVesting.sol\":33953:33954  0 */\n      0x00\n        /* \"contracts/TokenVesting.sol\":33943:33950  _amount */\n      dup2\n        /* \"contracts/TokenVesting.sol\":33943:33954  _amount > 0 */\n      gt\n        /* \"contracts/TokenVesting.sol\":33935:33991  require(_amount > 0, \"TokenVesting: amount must be > 0\") */\n      tag_141\n      jumpi\n      mload(0x40)\n      0x08c379a000000000000000000000000000000000000000000000000000000000\n      dup2\n      mstore\n      0x04\n      add\n      tag_142\n      swap1\n      tag_143\n      jump\t// in\n    tag_142:\n      mload(0x40)\n      dup1\n      swap2\n      sub\n      swap1\n      revert\n    tag_141:\n        /* \"contracts/TokenVesting.sol\":34032:34033  1 */\n      0x01\n        /* \"contracts/TokenVesting.sol\":34009:34028  _slicePeriodSeconds */\n      dup4\n        /* \"contracts/TokenVesting.sol\":34009:34033  _slicePeriodSeconds >= 1 */\n      lt\n      iszero\n        /* \"contracts/TokenVesting.sol\":34001:34083  require(_slicePeriodSeconds >= 1, \"TokenVesting: slicePeriodSeconds must be >= 1\") */\n      tag_144\n      jumpi\n      mload(0x40)\n      0x08c379a000000000000000000000000000000000000000000000000000000000\n      dup2\n      mstore\n      0x04\n      add\n      tag_145\n      swap1\n      tag_146\n      jump\t// in\n    tag_145:\n      mload(0x40)\n      dup1\n      swap2\n      sub\n      swap1\n      revert\n    tag_144:\n        /* \"contracts/TokenVesting.sol\":34093:34118  bytes32 vestingScheduleId */\n      0x00\n        /* \"contracts/TokenVesting.sol\":34121:34125  this */\n      address\n        /* \"contracts/TokenVesting.sol\":34121:34163  this.computeNextVestingScheduleIdForHolder */\n      0xffffffffffffffffffffffffffffffffffffffff\n      and\n      0xf7c469f0\n        /* \"contracts/TokenVesting.sol\":34164:34176  _beneficiary */\n      dup10\n        /* \"contracts/TokenVesting.sol\":34121:34177  this.computeNextVestingScheduleIdForHolder(_beneficiary) */\n      mload(0x40)\n      dup3\n      0xffffffff\n      and\n      0xe0\n      shl\n      dup2\n      mstore\n      0x04\n      add\n      tag_147\n      swap2\n      swap1\n      tag_43\n      jump\t// in\n    tag_147:\n      0x20\n      mload(0x40)\n      dup1\n      dup4\n      sub\n      dup2\n      dup7\n      gas\n      staticcall\n      iszero\n      dup1\n      iszero\n      tag_149\n      jumpi\n      returndatasize\n      0x00\n      dup1\n      returndatacopy\n      revert(0x00, returndatasize)\n    tag_149:\n      pop\n      pop\n      pop\n      pop\n      mload(0x40)\n      returndatasize\n      not(0x1f)\n      0x1f\n      dup3\n      add\n      and\n      dup3\n      add\n      dup1\n      0x40\n      mstore\n      pop\n      dup2\n      add\n      swap1\n      tag_150\n      swap2\n      swap1\n      tag_151\n      jump\t// in\n    tag_150:\n        /* \"contracts/TokenVesting.sol\":34093:34177  bytes32 vestingScheduleId = this.computeNextVestingScheduleIdForHolder(_beneficiary) */\n      swap1\n      pop\n        /* \"contracts/TokenVesting.sol\":34187:34200  uint256 cliff */\n      0x00\n        /* \"contracts/TokenVesting.sol\":34203:34221  _start.add(_cliff) */\n      tag_152\n        /* \"contracts/TokenVesting.sol\":34214:34220  _cliff */\n      dup8\n        /* \"contracts/TokenVesting.sol\":34203:34209  _start */\n      dup10\n        /* \"contracts/TokenVesting.sol\":34203:34213  _start.add */\n      tag_153\n      swap1\n        /* \"contracts/TokenVesting.sol\":34203:34221  _start.add(_cliff) */\n      swap2\n      swap1\n      0xffffffff\n      and\n      jump\t// in\n    tag_152:\n        /* \"contracts/TokenVesting.sol\":34187:34221  uint256 cliff = _start.add(_cliff) */\n      swap1\n      pop\n        /* \"contracts/TokenVesting.sol\":34269:34512  VestingSchedule(... */\n      mload(0x40)\n      dup1\n      0x0140\n      add\n      0x40\n      mstore\n      dup1\n        /* \"contracts/TokenVesting.sol\":34298:34302  true */\n      0x01\n        /* \"contracts/TokenVesting.sol\":34269:34512  VestingSchedule(... */\n      iszero\n      iszero\n      dup2\n      mstore\n      0x20\n      add\n        /* \"contracts/TokenVesting.sol\":34316:34328  _beneficiary */\n      dup11\n        /* \"contracts/TokenVesting.sol\":34269:34512  VestingSchedule(... */\n      0xffffffffffffffffffffffffffffffffffffffff\n      and\n      dup2\n      mstore\n      0x20\n      add\n        /* \"contracts/TokenVesting.sol\":34342:34347  cliff */\n      dup3\n        /* \"contracts/TokenVesting.sol\":34269:34512  VestingSchedule(... */\n      dup2\n      mstore\n      0x20\n      add\n        /* \"contracts/TokenVesting.sol\":34361:34367  _start */\n      dup10\n        /* \"contracts/TokenVesting.sol\":34269:34512  VestingSchedule(... */\n      dup2\n      mstore\n      0x20\n      add\n        /* \"contracts/TokenVesting.sol\":34381:34390  _duration */\n      dup8\n        /* \"contracts/TokenVesting.sol\":34269:34512  VestingSchedule(... */\n      dup2\n      mstore\n      0x20\n      add\n        /* \"contracts/TokenVesting.sol\":34404:34423  _slicePeriodSeconds */\n      dup7\n        /* \"contracts/TokenVesting.sol\":34269:34512  VestingSchedule(... */\n      dup2\n      mstore\n      0x20\n      add\n        /* \"contracts/TokenVesting.sol\":34437:34447  _revocable */\n      dup6\n        /* \"contracts/TokenVesting.sol\":34269:34512  VestingSchedule(... */\n      iszero\n      iszero\n      dup2\n      mstore\n      0x20\n      add\n        /* \"contracts/TokenVesting.sol\":34461:34468  _amount */\n      dup5\n        /* \"contracts/TokenVesting.sol\":34269:34512  VestingSchedule(... */\n      dup2\n      mstore\n      0x20\n      add\n        /* \"contracts/TokenVesting.sol\":34482:34483  0 */\n      0x00\n        /* \"contracts/TokenVesting.sol\":34269:34512  VestingSchedule(... */\n      dup2\n      mstore\n      0x20\n      add\n        /* \"contracts/TokenVesting.sol\":34497:34502  false */\n      0x00\n        /* \"contracts/TokenVesting.sol\":34269:34512  VestingSchedule(... */\n      iszero\n      iszero\n      dup2\n      mstore\n      pop\n        /* \"contracts/TokenVesting.sol\":34231:34247  vestingSchedules */\n      0x03\n        /* \"contracts/TokenVesting.sol\":34231:34266  vestingSchedules[vestingScheduleId] */\n      0x00\n        /* \"contracts/TokenVesting.sol\":34248:34265  vestingScheduleId */\n      dup5\n        /* \"contracts/TokenVesting.sol\":34231:34266  vestingSchedules[vestingScheduleId] */\n      dup2\n      mstore\n      0x20\n      add\n      swap1\n      dup2\n      mstore\n      0x20\n      add\n      0x00\n      keccak256\n        /* \"contracts/TokenVesting.sol\":34231:34512  vestingSchedules[vestingScheduleId] = VestingSchedule(... */\n      0x00\n      dup3\n      add\n      mload\n      dup2\n      0x00\n      add\n      exp(0x0100, 0x00)\n      dup2\n      sload\n      dup2\n      0xff\n      mul\n      not\n      and\n      swap1\n      dup4\n      iszero\n      iszero\n      mul\n      or\n      swap1\n      sstore\n      pop\n      0x20\n      dup3\n      add\n      mload\n      dup2\n      0x00\n      add\n      exp(0x0100, 0x01)\n      dup2\n      sload\n      dup2\n      0xffffffffffffffffffffffffffffffffffffffff\n      mul\n      not\n      and\n      swap1\n      dup4\n      0xffffffffffffffffffffffffffffffffffffffff\n      and\n      mul\n      or\n      swap1\n      sstore\n      pop\n      0x40\n      dup3\n      add\n      mload\n      dup2\n      0x01\n      add\n      sstore\n      0x60\n      dup3\n      add\n      mload\n      dup2\n      0x02\n      add\n      sstore\n      0x80\n      dup3\n      add\n      mload\n      dup2\n      0x03\n      add\n      sstore\n      0xa0\n      dup3\n      add\n      mload\n      dup2\n      0x04\n      add\n      sstore\n      0xc0\n      dup3\n      add\n      mload\n      dup2\n      0x05\n      add\n      exp(0x0100, 0x00)\n      dup2\n      sload\n      dup2\n      0xff\n      mul\n      not\n      and\n      swap1\n      dup4\n      iszero\n      iszero\n      mul\n      or\n      swap1\n      sstore\n      pop\n      0xe0\n      dup3\n      add\n      mload\n      dup2\n      0x06\n      add\n      sstore\n      0x0100\n      dup3\n      add\n      mload\n      dup2\n      0x07\n      add\n      sstore\n      0x0120\n      dup3\n      add\n      mload\n      dup2\n      0x08\n      add\n      exp(0x0100, 0x00)\n      dup2\n      sload\n      dup2\n      0xff\n      mul\n      not\n      and\n      swap1\n      dup4\n      iszero\n      iszero\n      mul\n      or\n      swap1\n      sstore\n      pop\n      swap1\n      pop\n      pop\n        /* \"contracts/TokenVesting.sol\":34552:34592  vestingSchedulesTotalAmount.add(_amount) */\n      tag_154\n        /* \"contracts/TokenVesting.sol\":34584:34591  _amount */\n      dup4\n        /* \"contracts/TokenVesting.sol\":34552:34579  vestingSchedulesTotalAmount */\n      sload(0x04)\n        /* \"contracts/TokenVesting.sol\":34552:34583  vestingSchedulesTotalAmount.add */\n      tag_153\n      swap1\n        /* \"contracts/TokenVesting.sol\":34552:34592  vestingSchedulesTotalAmount.add(_amount) */\n      swap2\n      swap1\n      0xffffffff\n      and\n      jump\t// in\n    tag_154:\n        /* \"contracts/TokenVesting.sol\":34522:34549  vestingSchedulesTotalAmount */\n      0x04\n        /* \"contracts/TokenVesting.sol\":34522:34592  vestingSchedulesTotalAmount = vestingSchedulesTotalAmount.add(_amount) */\n      dup2\n      swap1\n      sstore\n      pop\n        /* \"contracts/TokenVesting.sol\":34602:34621  vestingSchedulesIds */\n      0x02\n        /* \"contracts/TokenVesting.sol\":34627:34644  vestingScheduleId */\n      dup3\n        /* \"contracts/TokenVesting.sol\":34602:34645  vestingSchedulesIds.push(vestingScheduleId) */\n      swap1\n      dup1\n      0x01\n      dup2\n      sload\n      add\n      dup1\n      dup3\n      sstore\n      dup1\n      swap2\n      pop\n      pop\n      0x01\n      swap1\n      sub\n      swap1\n      0x00\n      mstore\n      keccak256(0x00, 0x20)\n      add\n      0x00\n      swap1\n      swap2\n      swap1\n      swap2\n      swap1\n      swap2\n      pop\n      sstore\n        /* \"contracts/TokenVesting.sol\":34655:34682  uint256 currentVestingCount */\n      0x00\n        /* \"contracts/TokenVesting.sol\":34685:34704  holdersVestingCount */\n      0x05\n        /* \"contracts/TokenVesting.sol\":34685:34718  holdersVestingCount[_beneficiary] */\n      0x00\n        /* \"contracts/TokenVesting.sol\":34705:34717  _beneficiary */\n      dup12\n        /* \"contracts/TokenVesting.sol\":34685:34718  holdersVestingCount[_beneficiary] */\n      0xffffffffffffffffffffffffffffffffffffffff\n      and\n      0xffffffffffffffffffffffffffffffffffffffff\n      and\n      dup2\n      mstore\n      0x20\n      add\n      swap1\n      dup2\n      mstore\n      0x20\n      add\n      0x00\n      keccak256\n      sload\n        /* \"contracts/TokenVesting.sol\":34655:34718  uint256 currentVestingCount = holdersVestingCount[_beneficiary] */\n      swap1\n      pop\n        /* \"contracts/TokenVesting.sol\":34764:34790  currentVestingCount.add(1) */\n      tag_156\n        /* \"contracts/TokenVesting.sol\":34788:34789  1 */\n      0x01\n        /* \"contracts/TokenVesting.sol\":34764:34783  currentVestingCount */\n      dup3\n        /* \"contracts/TokenVesting.sol\":34764:34787  currentVestingCount.add */\n      tag_153\n      swap1\n        /* \"contracts/TokenVesting.sol\":34764:34790  currentVestingCount.add(1) */\n      swap2\n      swap1\n      0xffffffff\n      and\n      jump\t// in\n    tag_156:\n        /* \"contracts/TokenVesting.sol\":34728:34747  holdersVestingCount */\n      0x05\n        /* \"contracts/TokenVesting.sol\":34728:34761  holdersVestingCount[_beneficiary] */\n      0x00\n        /* \"contracts/TokenVesting.sol\":34748:34760  _beneficiary */\n      dup13\n        /* \"contracts/TokenVesting.sol\":34728:34761  holdersVestingCount[_beneficiary] */\n      0xffffffffffffffffffffffffffffffffffffffff\n      and\n      0xffffffffffffffffffffffffffffffffffffffff\n      and\n      dup2\n      mstore\n      0x20\n      add\n      swap1\n      dup2\n      mstore\n      0x20\n      add\n      0x00\n      keccak256\n        /* \"contracts/TokenVesting.sol\":34728:34790  holdersVestingCount[_beneficiary] = currentVestingCount.add(1) */\n      dup2\n      swap1\n      sstore\n      pop\n        /* \"contracts/TokenVesting.sol\":33685:34797  {... */\n      pop\n      pop\n      pop\n        /* \"contracts/TokenVesting.sol\":33424:34797  function createVestingSchedule(... */\n      pop\n      pop\n      pop\n      pop\n      pop\n      pop\n      pop\n      jump\t// out\n        /* \"contracts/TokenVesting.sol\":32684:32785  function getToken()... */\n    tag_41:\n        /* \"contracts/TokenVesting.sol\":32738:32745  address */\n      0x00\n        /* \"contracts/TokenVesting.sol\":32771:32777  _token */\n      immutable(\"0x839ac2531f20fe9a51575c267a15e869d3e77e841399d7773397554c4084777a\")\n        /* \"contracts/TokenVesting.sol\":32756:32778  return address(_token) */\n      swap1\n      pop\n        /* \"contracts/TokenVesting.sol\":32684:32785  function getToken()... */\n      swap1\n      jump\t// out\n        /* \"contracts/TokenVesting.sol\":35766:36010  function withdraw(uint256 amount)... */\n    tag_48:\n        /* \"contracts/TokenVesting.sol\":13173:13174  2 */\n      0x02\n        /* \"contracts/TokenVesting.sol\":13754:13761  _status */\n      sload(0x01)\n        /* \"contracts/TokenVesting.sol\":13754:13773  _status != _ENTERED */\n      sub\n        /* \"contracts/TokenVesting.sol\":13746:13809  require(_status != _ENTERED, \"ReentrancyGuard: reentrant call\") */\n      tag_159\n      jumpi\n      mload(0x40)\n      0x08c379a000000000000000000000000000000000000000000000000000000000\n      dup2\n      mstore\n      0x04\n      add\n      tag_160\n      swap1\n      tag_161\n      jump\t// in\n    tag_160:\n      mload(0x40)\n      dup1\n      swap2\n      sub\n      swap1\n      revert\n    tag_159:\n        /* \"contracts/TokenVesting.sol\":13173:13174  2 */\n      0x02\n        /* \"contracts/TokenVesting.sol\":13884:13891  _status */\n      0x01\n        /* \"contracts/TokenVesting.sol\":13884:13902  _status = _ENTERED */\n      dup2\n      swap1\n      sstore\n      pop\n        /* \"contracts/TokenVesting.sol\":10195:10207  _msgSender() */\n      tag_163\n        /* \"contracts/TokenVesting.sol\":10195:10205  _msgSender */\n      tag_125\n        /* \"contracts/TokenVesting.sol\":10195:10207  _msgSender() */\n      jump\t// in\n    tag_163:\n        /* \"contracts/TokenVesting.sol\":10184:10207  owner() == _msgSender() */\n      0xffffffffffffffffffffffffffffffffffffffff\n      and\n        /* \"contracts/TokenVesting.sol\":10184:10191  owner() */\n      tag_164\n        /* \"contracts/TokenVesting.sol\":10184:10189  owner */\n      tag_82\n        /* \"contracts/TokenVesting.sol\":10184:10191  owner() */\n      jump\t// in\n    tag_164:\n        /* \"contracts/TokenVesting.sol\":10184:10207  owner() == _msgSender() */\n      0xffffffffffffffffffffffffffffffffffffffff\n      and\n      eq\n        /* \"contracts/TokenVesting.sol\":10176:10244  require(owner() == _msgSender(), \"Ownable: caller is not the owner\") */\n      tag_165\n      jumpi\n      mload(0x40)\n      0x08c379a000000000000000000000000000000000000000000000000000000000\n      dup2\n      mstore\n      0x04\n      add\n      tag_166\n      swap1\n      tag_129\n      jump\t// in\n    tag_166:\n      mload(0x40)\n      dup1\n      swap2\n      sub\n      swap1\n      revert\n    tag_165:\n        /* \"contracts/TokenVesting.sol\":35903:35909  amount */\n      dup1\n        /* \"contracts/TokenVesting.sol\":35871:35875  this */\n      address\n        /* \"contracts/TokenVesting.sol\":35871:35897  this.getWithdrawableAmount */\n      0xffffffffffffffffffffffffffffffffffffffff\n      and\n      0x90be10cc\n        /* \"contracts/TokenVesting.sol\":35871:35899  this.getWithdrawableAmount() */\n      mload(0x40)\n      dup2\n      0xffffffff\n      and\n      0xe0\n      shl\n      dup2\n      mstore\n      0x04\n      add\n      0x20\n      mload(0x40)\n      dup1\n      dup4\n      sub\n      dup2\n      dup7\n      gas\n      staticcall\n      iszero\n      dup1\n      iszero\n      tag_169\n      jumpi\n      returndatasize\n      0x00\n      dup1\n      returndatacopy\n      revert(0x00, returndatasize)\n    tag_169:\n      pop\n      pop\n      pop\n      pop\n      mload(0x40)\n      returndatasize\n      not(0x1f)\n      0x1f\n      dup3\n      add\n      and\n      dup3\n      add\n      dup1\n      0x40\n      mstore\n      pop\n      dup2\n      add\n      swap1\n      tag_170\n      swap2\n      swap1\n      tag_134\n      jump\t// in\n    tag_170:\n        /* \"contracts/TokenVesting.sol\":35871:35909  this.getWithdrawableAmount() >= amount */\n      lt\n      iszero\n        /* \"contracts/TokenVesting.sol\":35863:35957  require(this.getWithdrawableAmount() >= amount, \"TokenVesting: not enough withdrawable funds\") */\n      tag_171\n      jumpi\n      mload(0x40)\n      0x08c379a000000000000000000000000000000000000000000000000000000000\n      dup2\n      mstore\n      0x04\n      add\n      tag_172\n      swap1\n      tag_173\n      jump\t// in\n    tag_172:\n      mload(0x40)\n      dup1\n      swap2\n      sub\n      swap1\n      revert\n    tag_171:\n        /* \"contracts/TokenVesting.sol\":35967:36003  _token.safeTransfer(owner(), amount) */\n      tag_174\n        /* \"contracts/TokenVesting.sol\":35987:35994  owner() */\n      tag_175\n        /* \"contracts/TokenVesting.sol\":35987:35992  owner */\n      tag_82\n        /* \"contracts/TokenVesting.sol\":35987:35994  owner() */\n      jump\t// in\n    tag_175:\n        /* \"contracts/TokenVesting.sol\":35996:36002  amount */\n      dup3\n        /* \"contracts/TokenVesting.sol\":35967:35973  _token */\n      immutable(\"0x839ac2531f20fe9a51575c267a15e869d3e77e841399d7773397554c4084777a\")\n        /* \"contracts/TokenVesting.sol\":35967:35986  _token.safeTransfer */\n      0xffffffffffffffffffffffffffffffffffffffff\n      and\n      tag_176\n      swap1\n        /* \"contracts/TokenVesting.sol\":35967:36003  _token.safeTransfer(owner(), amount) */\n      swap3\n      swap2\n      swap1\n      0xffffffff\n      and\n      jump\t// in\n    tag_174:\n        /* \"contracts/TokenVesting.sol\":13130:13131  1 */\n      0x01\n        /* \"contracts/TokenVesting.sol\":14057:14064  _status */\n      dup1\n        /* \"contracts/TokenVesting.sol\":14057:14079  _status = _NOT_ENTERED */\n      dup2\n      swap1\n      sstore\n      pop\n        /* \"contracts/TokenVesting.sol\":35766:36010  function withdraw(uint256 amount)... */\n      pop\n      jump\t// out\n        /* \"contracts/TokenVesting.sol\":32446:32581  function getVestingSchedulesTotalAmount()... */\n    tag_51:\n        /* \"contracts/TokenVesting.sol\":32522:32529  uint256 */\n      0x00\n        /* \"contracts/TokenVesting.sol\":32547:32574  vestingSchedulesTotalAmount */\n      sload(0x04)\n        /* \"contracts/TokenVesting.sol\":32540:32574  return vestingSchedulesTotalAmount */\n      swap1\n      pop\n        /* \"contracts/TokenVesting.sol\":32446:32581  function getVestingSchedulesTotalAmount()... */\n      swap1\n      jump\t// out\n        /* \"contracts/TokenVesting.sol\":31411:31579  function getVestingSchedulesCountByBeneficiary(address _beneficiary)... */\n    tag_57:\n        /* \"contracts/TokenVesting.sol\":31514:31521  uint256 */\n      0x00\n        /* \"contracts/TokenVesting.sol\":31539:31558  holdersVestingCount */\n      0x05\n        /* \"contracts/TokenVesting.sol\":31539:31572  holdersVestingCount[_beneficiary] */\n      0x00\n        /* \"contracts/TokenVesting.sol\":31559:31571  _beneficiary */\n      dup4\n        /* \"contracts/TokenVesting.sol\":31539:31572  holdersVestingCount[_beneficiary] */\n      0xffffffffffffffffffffffffffffffffffffffff\n      and\n      0xffffffffffffffffffffffffffffffffffffffff\n      and\n      dup2\n      mstore\n      0x20\n      add\n      swap1\n      dup2\n      mstore\n      0x20\n      add\n      0x00\n      keccak256\n      sload\n        /* \"contracts/TokenVesting.sol\":31532:31572  return holdersVestingCount[_beneficiary] */\n      swap1\n      pop\n        /* \"contracts/TokenVesting.sol\":31411:31579  function getVestingSchedulesCountByBeneficiary(address _beneficiary)... */\n      swap2\n      swap1\n      pop\n      jump\t// out\n        /* \"contracts/TokenVesting.sol\":36182:37189  function release(... */\n    tag_63:\n        /* \"contracts/TokenVesting.sol\":13173:13174  2 */\n      0x02\n        /* \"contracts/TokenVesting.sol\":13754:13761  _status */\n      sload(0x01)\n        /* \"contracts/TokenVesting.sol\":13754:13773  _status != _ENTERED */\n      sub\n        /* \"contracts/TokenVesting.sol\":13746:13809  require(_status != _ENTERED, \"ReentrancyGuard: reentrant call\") */\n      tag_180\n      jumpi\n      mload(0x40)\n      0x08c379a000000000000000000000000000000000000000000000000000000000\n      dup2\n      mstore\n      0x04\n      add\n      tag_181\n      swap1\n      tag_161\n      jump\t// in\n    tag_181:\n      mload(0x40)\n      dup1\n      swap2\n      sub\n      swap1\n      revert\n    tag_180:\n        /* \"contracts/TokenVesting.sol\":13173:13174  2 */\n      0x02\n        /* \"contracts/TokenVesting.sol\":13884:13891  _status */\n      0x01\n        /* \"contracts/TokenVesting.sol\":13884:13902  _status = _ENTERED */\n      dup2\n      swap1\n      sstore\n      pop\n        /* \"contracts/TokenVesting.sol\":36340:36357  vestingScheduleId */\n      dup2\n        /* \"contracts/TokenVesting.sol\":30875:30879  true */\n      0x01\n        /* \"contracts/TokenVesting.sol\":30824:30879  vestingSchedules[vestingScheduleId].initialized == true */\n      iszero\n      iszero\n        /* \"contracts/TokenVesting.sol\":30824:30840  vestingSchedules */\n      0x03\n        /* \"contracts/TokenVesting.sol\":30824:30859  vestingSchedules[vestingScheduleId] */\n      0x00\n        /* \"contracts/TokenVesting.sol\":30841:30858  vestingScheduleId */\n      dup4\n        /* \"contracts/TokenVesting.sol\":30824:30859  vestingSchedules[vestingScheduleId] */\n      dup2\n      mstore\n      0x20\n      add\n      swap1\n      dup2\n      mstore\n      0x20\n      add\n      0x00\n      keccak256\n        /* \"contracts/TokenVesting.sol\":30824:30871  vestingSchedules[vestingScheduleId].initialized */\n      0x00\n      add\n      0x00\n      swap1\n      sload\n      swap1\n      0x0100\n      exp\n      swap1\n      div\n      0xff\n      and\n        /* \"contracts/TokenVesting.sol\":30824:30879  vestingSchedules[vestingScheduleId].initialized == true */\n      iszero\n      iszero\n      eq\n        /* \"contracts/TokenVesting.sol\":30816:30880  require(vestingSchedules[vestingScheduleId].initialized == true) */\n      tag_183\n      jumpi\n      0x00\n      dup1\n      revert\n    tag_183:\n        /* \"contracts/TokenVesting.sol\":30945:30950  false */\n      0x00\n        /* \"contracts/TokenVesting.sol\":30898:30950  vestingSchedules[vestingScheduleId].revoked == false */\n      iszero\n      iszero\n        /* \"contracts/TokenVesting.sol\":30898:30914  vestingSchedules */\n      0x03\n        /* \"contracts/TokenVesting.sol\":30898:30933  vestingSchedules[vestingScheduleId] */\n      0x00\n        /* \"contracts/TokenVesting.sol\":30915:30932  vestingScheduleId */\n      dup4\n        /* \"contracts/TokenVesting.sol\":30898:30933  vestingSchedules[vestingScheduleId] */\n      dup2\n      mstore\n      0x20\n      add\n      swap1\n      dup2\n      mstore\n      0x20\n      add\n      0x00\n      keccak256\n        /* \"contracts/TokenVesting.sol\":30898:30941  vestingSchedules[vestingScheduleId].revoked */\n      0x08\n      add\n      0x00\n      swap1\n      sload\n      swap1\n      0x0100\n      exp\n      swap1\n      div\n      0xff\n      and\n        /* \"contracts/TokenVesting.sol\":30898:30950  vestingSchedules[vestingScheduleId].revoked == false */\n      iszero\n      iszero\n      eq\n        /* \"contracts/TokenVesting.sol\":30890:30951  require(vestingSchedules[vestingScheduleId].revoked == false) */\n      tag_184\n      jumpi\n      0x00\n      dup1\n      revert\n    tag_184:\n        /* \"contracts/TokenVesting.sol\":36368:36407  VestingSchedule storage vestingSchedule */\n      0x00\n        /* \"contracts/TokenVesting.sol\":36410:36426  vestingSchedules */\n      0x03\n        /* \"contracts/TokenVesting.sol\":36410:36445  vestingSchedules[vestingScheduleId] */\n      0x00\n        /* \"contracts/TokenVesting.sol\":36427:36444  vestingScheduleId */\n      dup6\n        /* \"contracts/TokenVesting.sol\":36410:36445  vestingSchedules[vestingScheduleId] */\n      dup2\n      mstore\n      0x20\n      add\n      swap1\n      dup2\n      mstore\n      0x20\n      add\n      0x00\n      keccak256\n        /* \"contracts/TokenVesting.sol\":36368:36445  VestingSchedule storage vestingSchedule = vestingSchedules[vestingScheduleId] */\n      swap1\n      pop\n        /* \"contracts/TokenVesting.sol\":36455:36473  bool isBeneficiary */\n      0x00\n        /* \"contracts/TokenVesting.sol\":36490:36505  vestingSchedule */\n      dup2\n        /* \"contracts/TokenVesting.sol\":36490:36517  vestingSchedule.beneficiary */\n      0x00\n      add\n      0x01\n      swap1\n      sload\n      swap1\n      0x0100\n      exp\n      swap1\n      div\n      0xffffffffffffffffffffffffffffffffffffffff\n      and\n        /* \"contracts/TokenVesting.sol\":36476:36517  msg.sender == vestingSchedule.beneficiary */\n      0xffffffffffffffffffffffffffffffffffffffff\n      and\n        /* \"contracts/TokenVesting.sol\":36476:36486  msg.sender */\n      caller\n        /* \"contracts/TokenVesting.sol\":36476:36517  msg.sender == vestingSchedule.beneficiary */\n      0xffffffffffffffffffffffffffffffffffffffff\n      and\n      eq\n        /* \"contracts/TokenVesting.sol\":36455:36517  bool isBeneficiary = msg.sender == vestingSchedule.beneficiary */\n      swap1\n      pop\n        /* \"contracts/TokenVesting.sol\":36527:36539  bool isOwner */\n      0x00\n        /* \"contracts/TokenVesting.sol\":36556:36563  owner() */\n      tag_186\n        /* \"contracts/TokenVesting.sol\":36556:36561  owner */\n      tag_82\n        /* \"contracts/TokenVesting.sol\":36556:36563  owner() */\n      jump\t// in\n    tag_186:\n        /* \"contracts/TokenVesting.sol\":36542:36563  msg.sender == owner() */\n      0xffffffffffffffffffffffffffffffffffffffff\n      and\n        /* \"contracts/TokenVesting.sol\":36542:36552  msg.sender */\n      caller\n        /* \"contracts/TokenVesting.sol\":36542:36563  msg.sender == owner() */\n      0xffffffffffffffffffffffffffffffffffffffff\n      and\n      eq\n        /* \"contracts/TokenVesting.sol\":36527:36563  bool isOwner = msg.sender == owner() */\n      swap1\n      pop\n        /* \"contracts/TokenVesting.sol\":36594:36607  isBeneficiary */\n      dup2\n        /* \"contracts/TokenVesting.sol\":36594:36618  isBeneficiary || isOwner */\n      dup1\n      tag_187\n      jumpi\n      pop\n        /* \"contracts/TokenVesting.sol\":36611:36618  isOwner */\n      dup1\n        /* \"contracts/TokenVesting.sol\":36594:36618  isBeneficiary || isOwner */\n    tag_187:\n        /* \"contracts/TokenVesting.sol\":36573:36710  require(... */\n      tag_188\n      jumpi\n      mload(0x40)\n      0x08c379a000000000000000000000000000000000000000000000000000000000\n      dup2\n      mstore\n      0x04\n      add\n      tag_189\n      swap1\n      tag_190\n      jump\t// in\n    tag_189:\n      mload(0x40)\n      dup1\n      swap2\n      sub\n      swap1\n      revert\n    tag_188:\n        /* \"contracts/TokenVesting.sol\":36720:36740  uint256 vestedAmount */\n      0x00\n        /* \"contracts/TokenVesting.sol\":36743:36784  _computeReleasableAmount(vestingSchedule) */\n      tag_191\n        /* \"contracts/TokenVesting.sol\":36768:36783  vestingSchedule */\n      dup5\n        /* \"contracts/TokenVesting.sol\":36743:36784  _computeReleasableAmount(vestingSchedule) */\n      mload(0x40)\n      dup1\n      0x0140\n      add\n      0x40\n      mstore\n      swap1\n      dup2\n      0x00\n      dup3\n      add\n      0x00\n      swap1\n      sload\n      swap1\n      0x0100\n      exp\n      swap1\n      div\n      0xff\n      and\n      iszero\n      iszero\n      iszero\n      iszero\n      dup2\n      mstore\n      0x20\n      add\n      0x00\n      dup3\n      add\n      0x01\n      swap1\n      sload\n      swap1\n      0x0100\n      exp\n      swap1\n      div\n      0xffffffffffffffffffffffffffffffffffffffff\n      and\n      0xffffffffffffffffffffffffffffffffffffffff\n      and\n      0xffffffffffffffffffffffffffffffffffffffff\n      and\n      dup2\n      mstore\n      0x20\n      add\n      0x01\n      dup3\n      add\n      sload\n      dup2\n      mstore\n      0x20\n      add\n      0x02\n      dup3\n      add\n      sload\n      dup2\n      mstore\n      0x20\n      add\n      0x03\n      dup3\n      add\n      sload\n      dup2\n      mstore\n      0x20\n      add\n      0x04\n      dup3\n      add\n      sload\n      dup2\n      mstore\n      0x20\n      add\n      0x05\n      dup3\n      add\n      0x00\n      swap1\n      sload\n      swap1\n      0x0100\n      exp\n      swap1\n      div\n      0xff\n      and\n      iszero\n      iszero\n      iszero\n      iszero\n      dup2\n      mstore\n      0x20\n      add\n      0x06\n      dup3\n      add\n      sload\n      dup2\n      mstore\n      0x20\n      add\n      0x07\n      dup3\n      add\n      sload\n      dup2\n      mstore\n      0x20\n      add\n      0x08\n      dup3\n      add\n      0x00\n      swap1\n      sload\n      swap1\n      0x0100\n      exp\n      swap1\n      div\n      0xff\n      and\n      iszero\n      iszero\n      iszero\n      iszero\n      dup2\n      mstore\n      pop\n      pop\n        /* \"contracts/TokenVesting.sol\":36743:36767  _computeReleasableAmount */\n      tag_192\n        /* \"contracts/TokenVesting.sol\":36743:36784  _computeReleasableAmount(vestingSchedule) */\n      jump\t// in\n    tag_191:\n        /* \"contracts/TokenVesting.sol\":36720:36784  uint256 vestedAmount = _computeReleasableAmount(vestingSchedule) */\n      swap1\n      pop\n        /* \"contracts/TokenVesting.sol\":36818:36824  amount */\n      dup6\n        /* \"contracts/TokenVesting.sol\":36802:36814  vestedAmount */\n      dup2\n        /* \"contracts/TokenVesting.sol\":36802:36824  vestedAmount >= amount */\n      lt\n      iszero\n        /* \"contracts/TokenVesting.sol\":36794:36890  require(vestedAmount >= amount, \"TokenVesting: cannot release tokens, not enough vested tokens\") */\n      tag_193\n      jumpi\n      mload(0x40)\n      0x08c379a000000000000000000000000000000000000000000000000000000000\n      dup2\n      mstore\n      0x04\n      add\n      tag_194\n      swap1\n      tag_195\n      jump\t// in\n    tag_194:\n      mload(0x40)\n      dup1\n      swap2\n      sub\n      swap1\n      revert\n    tag_193:\n        /* \"contracts/TokenVesting.sol\":36927:36963  vestingSchedule.released.add(amount) */\n      tag_196\n        /* \"contracts/TokenVesting.sol\":36956:36962  amount */\n      dup7\n        /* \"contracts/TokenVesting.sol\":36927:36942  vestingSchedule */\n      dup6\n        /* \"contracts/TokenVesting.sol\":36927:36951  vestingSchedule.released */\n      0x07\n      add\n      sload\n        /* \"contracts/TokenVesting.sol\":36927:36955  vestingSchedule.released.add */\n      tag_153\n      swap1\n        /* \"contracts/TokenVesting.sol\":36927:36963  vestingSchedule.released.add(amount) */\n      swap2\n      swap1\n      0xffffffff\n      and\n      jump\t// in\n    tag_196:\n        /* \"contracts/TokenVesting.sol\":36900:36915  vestingSchedule */\n      dup5\n        /* \"contracts/TokenVesting.sol\":36900:36924  vestingSchedule.released */\n      0x07\n      add\n        /* \"contracts/TokenVesting.sol\":36900:36963  vestingSchedule.released = vestingSchedule.released.add(amount) */\n      dup2\n      swap1\n      sstore\n      pop\n        /* \"contracts/TokenVesting.sol\":36973:37007  address payable beneficiaryPayable */\n      0x00\n        /* \"contracts/TokenVesting.sol\":37018:37033  vestingSchedule */\n      dup5\n        /* \"contracts/TokenVesting.sol\":37018:37045  vestingSchedule.beneficiary */\n      0x00\n      add\n      0x01\n      swap1\n      sload\n      swap1\n      0x0100\n      exp\n      swap1\n      div\n      0xffffffffffffffffffffffffffffffffffffffff\n      and\n        /* \"contracts/TokenVesting.sol\":36973:37046  address payable beneficiaryPayable = payable(vestingSchedule.beneficiary) */\n      swap1\n      pop\n        /* \"contracts/TokenVesting.sol\":37086:37125  vestingSchedulesTotalAmount.sub(amount) */\n      tag_197\n        /* \"contracts/TokenVesting.sol\":37118:37124  amount */\n      dup8\n        /* \"contracts/TokenVesting.sol\":37086:37113  vestingSchedulesTotalAmount */\n      sload(0x04)\n        /* \"contracts/TokenVesting.sol\":37086:37117  vestingSchedulesTotalAmount.sub */\n      tag_198\n      swap1\n        /* \"contracts/TokenVesting.sol\":37086:37125  vestingSchedulesTotalAmount.sub(amount) */\n      swap2\n      swap1\n      0xffffffff\n      and\n      jump\t// in\n    tag_197:\n        /* \"contracts/TokenVesting.sol\":37056:37083  vestingSchedulesTotalAmount */\n      0x04\n        /* \"contracts/TokenVesting.sol\":37056:37125  vestingSchedulesTotalAmount = vestingSchedulesTotalAmount.sub(amount) */\n      dup2\n      swap1\n      sstore\n      pop\n        /* \"contracts/TokenVesting.sol\":37135:37182  _token.safeTransfer(beneficiaryPayable, amount) */\n      tag_199\n        /* \"contracts/TokenVesting.sol\":37155:37173  beneficiaryPayable */\n      dup2\n        /* \"contracts/TokenVesting.sol\":37175:37181  amount */\n      dup9\n        /* \"contracts/TokenVesting.sol\":37135:37141  _token */\n      immutable(\"0x839ac2531f20fe9a51575c267a15e869d3e77e841399d7773397554c4084777a\")\n        /* \"contracts/TokenVesting.sol\":37135:37154  _token.safeTransfer */\n      0xffffffffffffffffffffffffffffffffffffffff\n      and\n      tag_176\n      swap1\n        /* \"contracts/TokenVesting.sol\":37135:37182  _token.safeTransfer(beneficiaryPayable, amount) */\n      swap3\n      swap2\n      swap1\n      0xffffffff\n      and\n      jump\t// in\n    tag_199:\n        /* \"contracts/TokenVesting.sol\":36358:37189  {... */\n      pop\n      pop\n      pop\n      pop\n      pop\n        /* \"contracts/TokenVesting.sol\":13913:13914  _ */\n      pop\n        /* \"contracts/TokenVesting.sol\":13130:13131  1 */\n      0x01\n        /* \"contracts/TokenVesting.sol\":14057:14064  _status */\n      dup1\n        /* \"contracts/TokenVesting.sol\":14057:14079  _status = _NOT_ENTERED */\n      dup2\n      swap1\n      sstore\n      pop\n        /* \"contracts/TokenVesting.sol\":36182:37189  function release(... */\n      pop\n      pop\n      jump\t// out\n        /* \"contracts/TokenVesting.sol\":10604:10705  function renounceOwnership() public virtual onlyOwner {... */\n    tag_66:\n        /* \"contracts/TokenVesting.sol\":10195:10207  _msgSender() */\n      tag_201\n        /* \"contracts/TokenVesting.sol\":10195:10205  _msgSender */\n      tag_125\n        /* \"contracts/TokenVesting.sol\":10195:10207  _msgSender() */\n      jump\t// in\n    tag_201:\n        /* \"contracts/TokenVesting.sol\":10184:10207  owner() == _msgSender() */\n      0xffffffffffffffffffffffffffffffffffffffff\n      and\n        /* \"contracts/TokenVesting.sol\":10184:10191  owner() */\n      tag_202\n        /* \"contracts/TokenVesting.sol\":10184:10189  owner */\n      tag_82\n        /* \"contracts/TokenVesting.sol\":10184:10191  owner() */\n      jump\t// in\n    tag_202:\n        /* \"contracts/TokenVesting.sol\":10184:10207  owner() == _msgSender() */\n      0xffffffffffffffffffffffffffffffffffffffff\n      and\n      eq\n        /* \"contracts/TokenVesting.sol\":10176:10244  require(owner() == _msgSender(), \"Ownable: caller is not the owner\") */\n      tag_203\n      jumpi\n      mload(0x40)\n      0x08c379a000000000000000000000000000000000000000000000000000000000\n      dup2\n      mstore\n      0x04\n      add\n      tag_204\n      swap1\n      tag_129\n      jump\t// in\n    tag_204:\n      mload(0x40)\n      dup1\n      swap2\n      sub\n      swap1\n      revert\n    tag_203:\n        /* \"contracts/TokenVesting.sol\":10668:10698  _transferOwnership(address(0)) */\n      tag_206\n        /* \"contracts/TokenVesting.sol\":10695:10696  0 */\n      0x00\n        /* \"contracts/TokenVesting.sol\":10668:10686  _transferOwnership */\n      tag_207\n        /* \"contracts/TokenVesting.sol\":10668:10698  _transferOwnership(address(0)) */\n      jump\t// in\n    tag_206:\n        /* \"contracts/TokenVesting.sol\":10604:10705  function renounceOwnership() public virtual onlyOwner {... */\n      jump\t// out\n        /* \"contracts/TokenVesting.sol\":38996:39245  function getLastVestingScheduleForHolder(address holder)... */\n    tag_70:\n        /* \"contracts/TokenVesting.sol\":39097:39119  VestingSchedule memory */\n      tag_208\n      tag_209\n      jump\t// in\n    tag_208:\n        /* \"contracts/TokenVesting.sol\":39137:39153  vestingSchedules */\n      0x03\n        /* \"contracts/TokenVesting.sol\":39137:39238  vestingSchedules[computeVestingScheduleIdForAddressAndIndex(holder, holdersVestingCount[holder] - 1)] */\n      0x00\n        /* \"contracts/TokenVesting.sol\":39154:39237  computeVestingScheduleIdForAddressAndIndex(holder, holdersVestingCount[holder] - 1) */\n      tag_211\n        /* \"contracts/TokenVesting.sol\":39197:39203  holder */\n      dup5\n        /* \"contracts/TokenVesting.sol\":39235:39236  1 */\n      0x01\n        /* \"contracts/TokenVesting.sol\":39205:39224  holdersVestingCount */\n      0x05\n        /* \"contracts/TokenVesting.sol\":39205:39232  holdersVestingCount[holder] */\n      0x00\n        /* \"contracts/TokenVesting.sol\":39225:39231  holder */\n      dup9\n        /* \"contracts/TokenVesting.sol\":39205:39232  holdersVestingCount[holder] */\n      0xffffffffffffffffffffffffffffffffffffffff\n      and\n      0xffffffffffffffffffffffffffffffffffffffff\n      and\n      dup2\n      mstore\n      0x20\n      add\n      swap1\n      dup2\n      mstore\n      0x20\n      add\n      0x00\n      keccak256\n      sload\n        /* \"contracts/TokenVesting.sol\":39205:39236  holdersVestingCount[holder] - 1 */\n      tag_212\n      swap2\n      swap1\n      tag_213\n      jump\t// in\n    tag_212:\n        /* \"contracts/TokenVesting.sol\":39154:39196  computeVestingScheduleIdForAddressAndIndex */\n      tag_77\n        /* \"contracts/TokenVesting.sol\":39154:39237  computeVestingScheduleIdForAddressAndIndex(holder, holdersVestingCount[holder] - 1) */\n      jump\t// in\n    tag_211:\n        /* \"contracts/TokenVesting.sol\":39137:39238  vestingSchedules[computeVestingScheduleIdForAddressAndIndex(holder, holdersVestingCount[holder] - 1)] */\n      dup2\n      mstore\n      0x20\n      add\n      swap1\n      dup2\n      mstore\n      0x20\n      add\n      0x00\n      keccak256\n        /* \"contracts/TokenVesting.sol\":39130:39238  return vestingSchedules[computeVestingScheduleIdForAddressAndIndex(holder, holdersVestingCount[holder] - 1)] */\n      mload(0x40)\n      dup1\n      0x0140\n      add\n      0x40\n      mstore\n      swap1\n      dup2\n      0x00\n      dup3\n      add\n      0x00\n      swap1\n      sload\n      swap1\n      0x0100\n      exp\n      swap1\n      div\n      0xff\n      and\n      iszero\n      iszero\n      iszero\n      iszero\n      dup2\n      mstore\n      0x20\n      add\n      0x00\n      dup3\n      add\n      0x01\n      swap1\n      sload\n      swap1\n      0x0100\n      exp\n      swap1\n      div\n      0xffffffffffffffffffffffffffffffffffffffff\n      and\n      0xffffffffffffffffffffffffffffffffffffffff\n      and\n      0xffffffffffffffffffffffffffffffffffffffff\n      and\n      dup2\n      mstore\n      0x20\n      add\n      0x01\n      dup3\n      add\n      sload\n      dup2\n      mstore\n      0x20\n      add\n      0x02\n      dup3\n      add\n      sload\n      dup2\n      mstore\n      0x20\n      add\n      0x03\n      dup3\n      add\n      sload\n      dup2\n      mstore\n      0x20\n      add\n      0x04\n      dup3\n      add\n      sload\n      dup2\n      mstore\n      0x20\n      add\n      0x05\n      dup3\n      add\n      0x00\n      swap1\n      sload\n      swap1\n      0x0100\n      exp\n      swap1\n      div\n      0xff\n      and\n      iszero\n      iszero\n      iszero\n      iszero\n      dup2\n      mstore\n      0x20\n      add\n      0x06\n      dup3\n      add\n      sload\n      dup2\n      mstore\n      0x20\n      add\n      0x07\n      dup3\n      add\n      sload\n      dup2\n      mstore\n      0x20\n      add\n      0x08\n      dup3\n      add\n      0x00\n      swap1\n      sload\n      swap1\n      0x0100\n      exp\n      swap1\n      div\n      0xff\n      and\n      iszero\n      iszero\n      iszero\n      iszero\n      dup2\n      mstore\n      pop\n      pop\n      swap1\n      pop\n        /* \"contracts/TokenVesting.sol\":38996:39245  function getLastVestingScheduleForHolder(address holder)... */\n      swap2\n      swap1\n      pop\n      jump\t// out\n        /* \"contracts/TokenVesting.sol\":39346:39547  function computeVestingScheduleIdForAddressAndIndex(address holder, uint256 index)... */\n    tag_77:\n        /* \"contracts/TokenVesting.sol\":39473:39480  bytes32 */\n      0x00\n        /* \"contracts/TokenVesting.sol\":39525:39531  holder */\n      dup3\n        /* \"contracts/TokenVesting.sol\":39533:39538  index */\n      dup3\n        /* \"contracts/TokenVesting.sol\":39508:39539  abi.encodePacked(holder, index) */\n      add(0x20, mload(0x40))\n      tag_215\n      swap3\n      swap2\n      swap1\n      tag_216\n      jump\t// in\n    tag_215:\n      mload(0x40)\n      0x20\n      dup2\n      dup4\n      sub\n      sub\n      dup2\n      mstore\n      swap1\n      0x40\n      mstore\n        /* \"contracts/TokenVesting.sol\":39498:39540  keccak256(abi.encodePacked(holder, index)) */\n      dup1\n      mload\n      swap1\n      0x20\n      add\n      keccak256\n        /* \"contracts/TokenVesting.sol\":39491:39540  return keccak256(abi.encodePacked(holder, index)) */\n      swap1\n      pop\n        /* \"contracts/TokenVesting.sol\":39346:39547  function computeVestingScheduleIdForAddressAndIndex(address holder, uint256 index)... */\n      swap3\n      swap2\n      pop\n      pop\n      jump\t// out\n        /* \"contracts/TokenVesting.sol\":9972:10057  function owner() public view virtual returns (address) {... */\n    tag_82:\n        /* \"contracts/TokenVesting.sol\":10018:10025  address */\n      0x00\n        /* \"contracts/TokenVesting.sol\":10044:10050  _owner */\n      dup1\n      0x00\n      swap1\n      sload\n      swap1\n      0x0100\n      exp\n      swap1\n      div\n      0xffffffffffffffffffffffffffffffffffffffff\n      and\n        /* \"contracts/TokenVesting.sol\":10037:10050  return _owner */\n      swap1\n      pop\n        /* \"contracts/TokenVesting.sol\":9972:10057  function owner() public view virtual returns (address) {... */\n      swap1\n      jump\t// out\n        /* \"contracts/TokenVesting.sol\":38407:38580  function getWithdrawableAmount()... */\n    tag_86:\n        /* \"contracts/TokenVesting.sol\":38484:38491  uint256 */\n      0x00\n        /* \"contracts/TokenVesting.sol\":38509:38573  _token.balanceOf(address(this)).sub(vestingSchedulesTotalAmount) */\n      tag_219\n        /* \"contracts/TokenVesting.sol\":38545:38572  vestingSchedulesTotalAmount */\n      sload(0x04)\n        /* \"contracts/TokenVesting.sol\":38509:38515  _token */\n      immutable(\"0x839ac2531f20fe9a51575c267a15e869d3e77e841399d7773397554c4084777a\")\n        /* \"contracts/TokenVesting.sol\":38509:38525  _token.balanceOf */\n      0xffffffffffffffffffffffffffffffffffffffff\n      and\n      0x70a08231\n        /* \"contracts/TokenVesting.sol\":38534:38538  this */\n      address\n        /* \"contracts/TokenVesting.sol\":38509:38540  _token.balanceOf(address(this)) */\n      mload(0x40)\n      dup3\n      0xffffffff\n      and\n      0xe0\n      shl\n      dup2\n      mstore\n      0x04\n      add\n      tag_220\n      swap2\n      swap1\n      tag_43\n      jump\t// in\n    tag_220:\n      0x20\n      mload(0x40)\n      dup1\n      dup4\n      sub\n      dup2\n      dup7\n      gas\n      staticcall\n      iszero\n      dup1\n      iszero\n      tag_222\n      jumpi\n      returndatasize\n      0x00\n      dup1\n      returndatacopy\n      revert(0x00, returndatasize)\n    tag_222:\n      pop\n      pop\n      pop\n      pop\n      mload(0x40)\n      returndatasize\n      not(0x1f)\n      0x1f\n      dup3\n      add\n      and\n      dup3\n      add\n      dup1\n      0x40\n      mstore\n      pop\n      dup2\n      add\n      swap1\n      tag_223\n      swap2\n      swap1\n      tag_134\n      jump\t// in\n    tag_223:\n        /* \"contracts/TokenVesting.sol\":38509:38544  _token.balanceOf(address(this)).sub */\n      tag_198\n      swap1\n        /* \"contracts/TokenVesting.sol\":38509:38573  _token.balanceOf(address(this)).sub(vestingSchedulesTotalAmount) */\n      swap2\n      swap1\n      0xffffffff\n      and\n      jump\t// in\n    tag_219:\n        /* \"contracts/TokenVesting.sol\":38502:38573  return _token.balanceOf(address(this)).sub(vestingSchedulesTotalAmount) */\n      swap1\n      pop\n        /* \"contracts/TokenVesting.sol\":38407:38580  function getWithdrawableAmount()... */\n      swap1\n      jump\t// out\n        /* \"contracts/TokenVesting.sol\":38095:38276  function getVestingSchedule(bytes32 vestingScheduleId)... */\n    tag_92:\n        /* \"contracts/TokenVesting.sol\":38194:38216  VestingSchedule memory */\n      tag_224\n      tag_209\n      jump\t// in\n    tag_224:\n        /* \"contracts/TokenVesting.sol\":38234:38250  vestingSchedules */\n      0x03\n        /* \"contracts/TokenVesting.sol\":38234:38269  vestingSchedules[vestingScheduleId] */\n      0x00\n        /* \"contracts/TokenVesting.sol\":38251:38268  vestingScheduleId */\n      dup4\n        /* \"contracts/TokenVesting.sol\":38234:38269  vestingSchedules[vestingScheduleId] */\n      dup2\n      mstore\n      0x20\n      add\n      swap1\n      dup2\n      mstore\n      0x20\n      add\n      0x00\n      keccak256\n        /* \"contracts/TokenVesting.sol\":38227:38269  return vestingSchedules[vestingScheduleId] */\n      mload(0x40)\n      dup1\n      0x0140\n      add\n      0x40\n      mstore\n      swap1\n      dup2\n      0x00\n      dup3\n      add\n      0x00\n      swap1\n      sload\n      swap1\n      0x0100\n      exp\n      swap1\n      div\n      0xff\n      and\n      iszero\n      iszero\n      iszero\n      iszero\n      dup2\n      mstore\n      0x20\n      add\n      0x00\n      dup3\n      add\n      0x01\n      swap1\n      sload\n      swap1\n      0x0100\n      exp\n      swap1\n      div\n      0xffffffffffffffffffffffffffffffffffffffff\n      and\n      0xffffffffffffffffffffffffffffffffffffffff\n      and\n      0xffffffffffffffffffffffffffffffffffffffff\n      and\n      dup2\n      mstore\n      0x20\n      add\n      0x01\n      dup3\n      add\n      sload\n      dup2\n      mstore\n      0x20\n      add\n      0x02\n      dup3\n      add\n      sload\n      dup2\n      mstore\n      0x20\n      add\n      0x03\n      dup3\n      add\n      sload\n      dup2\n      mstore\n      0x20\n      add\n      0x04\n      dup3\n      add\n      sload\n      dup2\n      mstore\n      0x20\n      add\n      0x05\n      dup3\n      add\n      0x00\n      swap1\n      sload\n      swap1\n      0x0100\n      exp\n      swap1\n      div\n      0xff\n      and\n      iszero\n      iszero\n      iszero\n      iszero\n      dup2\n      mstore\n      0x20\n      add\n      0x06\n      dup3\n      add\n      sload\n      dup2\n      mstore\n      0x20\n      add\n      0x07\n      dup3\n      add\n      sload\n      dup2\n      mstore\n      0x20\n      add\n      0x08\n      dup3\n      add\n      0x00\n      swap1\n      sload\n      swap1\n      0x0100\n      exp\n      swap1\n      div\n      0xff\n      and\n      iszero\n      iszero\n      iszero\n      iszero\n      dup2\n      mstore\n      pop\n      pop\n      swap1\n      pop\n        /* \"contracts/TokenVesting.sol\":38095:38276  function getVestingSchedule(bytes32 vestingScheduleId)... */\n      swap2\n      swap1\n      pop\n      jump\t// out\n        /* \"contracts/TokenVesting.sol\":34945:35646  function revoke(bytes32 vestingScheduleId)... */\n    tag_97:\n        /* \"contracts/TokenVesting.sol\":10195:10207  _msgSender() */\n      tag_227\n        /* \"contracts/TokenVesting.sol\":10195:10205  _msgSender */\n      tag_125\n        /* \"contracts/TokenVesting.sol\":10195:10207  _msgSender() */\n      jump\t// in\n    tag_227:\n        /* \"contracts/TokenVesting.sol\":10184:10207  owner() == _msgSender() */\n      0xffffffffffffffffffffffffffffffffffffffff\n      and\n        /* \"contracts/TokenVesting.sol\":10184:10191  owner() */\n      tag_228\n        /* \"contracts/TokenVesting.sol\":10184:10189  owner */\n      tag_82\n        /* \"contracts/TokenVesting.sol\":10184:10191  owner() */\n      jump\t// in\n    tag_228:\n        /* \"contracts/TokenVesting.sol\":10184:10207  owner() == _msgSender() */\n      0xffffffffffffffffffffffffffffffffffffffff\n      and\n      eq\n        /* \"contracts/TokenVesting.sol\":10176:10244  require(owner() == _msgSender(), \"Ownable: caller is not the owner\") */\n      tag_229\n      jumpi\n      mload(0x40)\n      0x08c379a000000000000000000000000000000000000000000000000000000000\n      dup2\n      mstore\n      0x04\n      add\n      tag_230\n      swap1\n      tag_129\n      jump\t// in\n    tag_230:\n      mload(0x40)\n      dup1\n      swap2\n      sub\n      swap1\n      revert\n    tag_229:\n        /* \"contracts/TokenVesting.sol\":35061:35078  vestingScheduleId */\n      dup1\n        /* \"contracts/TokenVesting.sol\":30875:30879  true */\n      0x01\n        /* \"contracts/TokenVesting.sol\":30824:30879  vestingSchedules[vestingScheduleId].initialized == true */\n      iszero\n      iszero\n        /* \"contracts/TokenVesting.sol\":30824:30840  vestingSchedules */\n      0x03\n        /* \"contracts/TokenVesting.sol\":30824:30859  vestingSchedules[vestingScheduleId] */\n      0x00\n        /* \"contracts/TokenVesting.sol\":30841:30858  vestingScheduleId */\n      dup4\n        /* \"contracts/TokenVesting.sol\":30824:30859  vestingSchedules[vestingScheduleId] */\n      dup2\n      mstore\n      0x20\n      add\n      swap1\n      dup2\n      mstore\n      0x20\n      add\n      0x00\n      keccak256\n        /* \"contracts/TokenVesting.sol\":30824:30871  vestingSchedules[vestingScheduleId].initialized */\n      0x00\n      add\n      0x00\n      swap1\n      sload\n      swap1\n      0x0100\n      exp\n      swap1\n      div\n      0xff\n      and\n        /* \"contracts/TokenVesting.sol\":30824:30879  vestingSchedules[vestingScheduleId].initialized == true */\n      iszero\n      iszero\n      eq\n        /* \"contracts/TokenVesting.sol\":30816:30880  require(vestingSchedules[vestingScheduleId].initialized == true) */\n      tag_232\n      jumpi\n      0x00\n      dup1\n      revert\n    tag_232:\n        /* \"contracts/TokenVesting.sol\":30945:30950  false */\n      0x00\n        /* \"contracts/TokenVesting.sol\":30898:30950  vestingSchedules[vestingScheduleId].revoked == false */\n      iszero\n      iszero\n        /* \"contracts/TokenVesting.sol\":30898:30914  vestingSchedules */\n      0x03\n        /* \"contracts/TokenVesting.sol\":30898:30933  vestingSchedules[vestingScheduleId] */\n      0x00\n        /* \"contracts/TokenVesting.sol\":30915:30932  vestingScheduleId */\n      dup4\n        /* \"contracts/TokenVesting.sol\":30898:30933  vestingSchedules[vestingScheduleId] */\n      dup2\n      mstore\n      0x20\n      add\n      swap1\n      dup2\n      mstore\n      0x20\n      add\n      0x00\n      keccak256\n        /* \"contracts/TokenVesting.sol\":30898:30941  vestingSchedules[vestingScheduleId].revoked */\n      0x08\n      add\n      0x00\n      swap1\n      sload\n      swap1\n      0x0100\n      exp\n      swap1\n      div\n      0xff\n      and\n        /* \"contracts/TokenVesting.sol\":30898:30950  vestingSchedules[vestingScheduleId].revoked == false */\n      iszero\n      iszero\n      eq\n        /* \"contracts/TokenVesting.sol\":30890:30951  require(vestingSchedules[vestingScheduleId].revoked == false) */\n      tag_233\n      jumpi\n      0x00\n      dup1\n      revert\n    tag_233:\n        /* \"contracts/TokenVesting.sol\":35089:35128  VestingSchedule storage vestingSchedule */\n      0x00\n        /* \"contracts/TokenVesting.sol\":35131:35147  vestingSchedules */\n      0x03\n        /* \"contracts/TokenVesting.sol\":35131:35166  vestingSchedules[vestingScheduleId] */\n      0x00\n        /* \"contracts/TokenVesting.sol\":35148:35165  vestingScheduleId */\n      dup5\n        /* \"contracts/TokenVesting.sol\":35131:35166  vestingSchedules[vestingScheduleId] */\n      dup2\n      mstore\n      0x20\n      add\n      swap1\n      dup2\n      mstore\n      0x20\n      add\n      0x00\n      keccak256\n        /* \"contracts/TokenVesting.sol\":35089:35166  VestingSchedule storage vestingSchedule = vestingSchedules[vestingScheduleId] */\n      swap1\n      pop\n        /* \"contracts/TokenVesting.sol\":35213:35217  true */\n      0x01\n        /* \"contracts/TokenVesting.sol\":35184:35217  vestingSchedule.revocable == true */\n      iszero\n      iszero\n        /* \"contracts/TokenVesting.sol\":35184:35199  vestingSchedule */\n      dup2\n        /* \"contracts/TokenVesting.sol\":35184:35209  vestingSchedule.revocable */\n      0x05\n      add\n      0x00\n      swap1\n      sload\n      swap1\n      0x0100\n      exp\n      swap1\n      div\n      0xff\n      and\n        /* \"contracts/TokenVesting.sol\":35184:35217  vestingSchedule.revocable == true */\n      iszero\n      iszero\n      eq\n        /* \"contracts/TokenVesting.sol\":35176:35260  require(vestingSchedule.revocable == true, \"TokenVesting: vesting is not revocable\") */\n      tag_235\n      jumpi\n      mload(0x40)\n      0x08c379a000000000000000000000000000000000000000000000000000000000\n      dup2\n      mstore\n      0x04\n      add\n      tag_236\n      swap1\n      tag_237\n      jump\t// in\n    tag_236:\n      mload(0x40)\n      dup1\n      swap2\n      sub\n      swap1\n      revert\n    tag_235:\n        /* \"contracts/TokenVesting.sol\":35270:35290  uint256 vestedAmount */\n      0x00\n        /* \"contracts/TokenVesting.sol\":35293:35334  _computeReleasableAmount(vestingSchedule) */\n      tag_238\n        /* \"contracts/TokenVesting.sol\":35318:35333  vestingSchedule */\n      dup3\n        /* \"contracts/TokenVesting.sol\":35293:35334  _computeReleasableAmount(vestingSchedule) */\n      mload(0x40)\n      dup1\n      0x0140\n      add\n      0x40\n      mstore\n      swap1\n      dup2\n      0x00\n      dup3\n      add\n      0x00\n      swap1\n      sload\n      swap1\n      0x0100\n      exp\n      swap1\n      div\n      0xff\n      and\n      iszero\n      iszero\n      iszero\n      iszero\n      dup2\n      mstore\n      0x20\n      add\n      0x00\n      dup3\n      add\n      0x01\n      swap1\n      sload\n      swap1\n      0x0100\n      exp\n      swap1\n      div\n      0xffffffffffffffffffffffffffffffffffffffff\n      and\n      0xffffffffffffffffffffffffffffffffffffffff\n      and\n      0xffffffffffffffffffffffffffffffffffffffff\n      and\n      dup2\n      mstore\n      0x20\n      add\n      0x01\n      dup3\n      add\n      sload\n      dup2\n      mstore\n      0x20\n      add\n      0x02\n      dup3\n      add\n      sload\n      dup2\n      mstore\n      0x20\n      add\n      0x03\n      dup3\n      add\n      sload\n      dup2\n      mstore\n      0x20\n      add\n      0x04\n      dup3\n      add\n      sload\n      dup2\n      mstore\n      0x20\n      add\n      0x05\n      dup3\n      add\n      0x00\n      swap1\n      sload\n      swap1\n      0x0100\n      exp\n      swap1\n      div\n      0xff\n      and\n      iszero\n      iszero\n      iszero\n      iszero\n      dup2\n      mstore\n      0x20\n      add\n      0x06\n      dup3\n      add\n      sload\n      dup2\n      mstore\n      0x20\n      add\n      0x07\n      dup3\n      add\n      sload\n      dup2\n      mstore\n      0x20\n      add\n      0x08\n      dup3\n      add\n      0x00\n      swap1\n      sload\n      swap1\n      0x0100\n      exp\n      swap1\n      div\n      0xff\n      and\n      iszero\n      iszero\n      iszero\n      iszero\n      dup2\n      mstore\n      pop\n      pop\n        /* \"contracts/TokenVesting.sol\":35293:35317  _computeReleasableAmount */\n      tag_192\n        /* \"contracts/TokenVesting.sol\":35293:35334  _computeReleasableAmount(vestingSchedule) */\n      jump\t// in\n    tag_238:\n        /* \"contracts/TokenVesting.sol\":35270:35334  uint256 vestedAmount = _computeReleasableAmount(vestingSchedule) */\n      swap1\n      pop\n        /* \"contracts/TokenVesting.sol\":35362:35363  0 */\n      0x00\n        /* \"contracts/TokenVesting.sol\":35347:35359  vestedAmount */\n      dup2\n        /* \"contracts/TokenVesting.sol\":35347:35363  vestedAmount > 0 */\n      gt\n        /* \"contracts/TokenVesting.sol\":35344:35429  if(vestedAmount > 0){... */\n      iszero\n      tag_239\n      jumpi\n        /* \"contracts/TokenVesting.sol\":35378:35418  release(vestingScheduleId, vestedAmount) */\n      tag_240\n        /* \"contracts/TokenVesting.sol\":35386:35403  vestingScheduleId */\n      dup5\n        /* \"contracts/TokenVesting.sol\":35405:35417  vestedAmount */\n      dup3\n        /* \"contracts/TokenVesting.sol\":35378:35385  release */\n      tag_63\n        /* \"contracts/TokenVesting.sol\":35378:35418  release(vestingScheduleId, vestedAmount) */\n      jump\t// in\n    tag_240:\n        /* \"contracts/TokenVesting.sol\":35344:35429  if(vestedAmount > 0){... */\n    tag_239:\n        /* \"contracts/TokenVesting.sol\":35438:35456  uint256 unreleased */\n      0x00\n        /* \"contracts/TokenVesting.sol\":35459:35516  vestingSchedule.amountTotal.sub(vestingSchedule.released) */\n      tag_241\n        /* \"contracts/TokenVesting.sol\":35491:35506  vestingSchedule */\n      dup4\n        /* \"contracts/TokenVesting.sol\":35491:35515  vestingSchedule.released */\n      0x07\n      add\n      sload\n        /* \"contracts/TokenVesting.sol\":35459:35474  vestingSchedule */\n      dup5\n        /* \"contracts/TokenVesting.sol\":35459:35486  vestingSchedule.amountTotal */\n      0x06\n      add\n      sload\n        /* \"contracts/TokenVesting.sol\":35459:35490  vestingSchedule.amountTotal.sub */\n      tag_198\n      swap1\n        /* \"contracts/TokenVesting.sol\":35459:35516  vestingSchedule.amountTotal.sub(vestingSchedule.released) */\n      swap2\n      swap1\n      0xffffffff\n      and\n      jump\t// in\n    tag_241:\n        /* \"contracts/TokenVesting.sol\":35438:35516  uint256 unreleased = vestingSchedule.amountTotal.sub(vestingSchedule.released) */\n      swap1\n      pop\n        /* \"contracts/TokenVesting.sol\":35556:35599  vestingSchedulesTotalAmount.sub(unreleased) */\n      tag_242\n        /* \"contracts/TokenVesting.sol\":35588:35598  unreleased */\n      dup2\n        /* \"contracts/TokenVesting.sol\":35556:35583  vestingSchedulesTotalAmount */\n      sload(0x04)\n        /* \"contracts/TokenVesting.sol\":35556:35587  vestingSchedulesTotalAmount.sub */\n      tag_198\n      swap1\n        /* \"contracts/TokenVesting.sol\":35556:35599  vestingSchedulesTotalAmount.sub(unreleased) */\n      swap2\n      swap1\n      0xffffffff\n      and\n      jump\t// in\n    tag_242:\n        /* \"contracts/TokenVesting.sol\":35526:35553  vestingSchedulesTotalAmount */\n      0x04\n        /* \"contracts/TokenVesting.sol\":35526:35599  vestingSchedulesTotalAmount = vestingSchedulesTotalAmount.sub(unreleased) */\n      dup2\n      swap1\n      sstore\n      pop\n        /* \"contracts/TokenVesting.sol\":35635:35639  true */\n      0x01\n        /* \"contracts/TokenVesting.sol\":35609:35624  vestingSchedule */\n      dup4\n        /* \"contracts/TokenVesting.sol\":35609:35632  vestingSchedule.revoked */\n      0x08\n      add\n      0x00\n        /* \"contracts/TokenVesting.sol\":35609:35639  vestingSchedule.revoked = true */\n      0x0100\n      exp\n      dup2\n      sload\n      dup2\n      0xff\n      mul\n      not\n      and\n      swap1\n      dup4\n      iszero\n      iszero\n      mul\n      or\n      swap1\n      sstore\n      pop\n        /* \"contracts/TokenVesting.sol\":35079:35646  {... */\n      pop\n      pop\n      pop\n        /* \"contracts/TokenVesting.sol\":10254:10255  _ */\n      pop\n        /* \"contracts/TokenVesting.sol\":34945:35646  function revoke(bytes32 vestingScheduleId)... */\n      pop\n      jump\t// out\n        /* \"contracts/TokenVesting.sol\":37616:37939  function computeReleasableAmount(bytes32 vestingScheduleId)... */\n    tag_101:\n        /* \"contracts/TokenVesting.sol\":37779:37786  uint256 */\n      0x00\n        /* \"contracts/TokenVesting.sol\":37731:37748  vestingScheduleId */\n      dup2\n        /* \"contracts/TokenVesting.sol\":30875:30879  true */\n      0x01\n        /* \"contracts/TokenVesting.sol\":30824:30879  vestingSchedules[vestingScheduleId].initialized == true */\n      iszero\n      iszero\n        /* \"contracts/TokenVesting.sol\":30824:30840  vestingSchedules */\n      0x03\n        /* \"contracts/TokenVesting.sol\":30824:30859  vestingSchedules[vestingScheduleId] */\n      0x00\n        /* \"contracts/TokenVesting.sol\":30841:30858  vestingScheduleId */\n      dup4\n        /* \"contracts/TokenVesting.sol\":30824:30859  vestingSchedules[vestingScheduleId] */\n      dup2\n      mstore\n      0x20\n      add\n      swap1\n      dup2\n      mstore\n      0x20\n      add\n      0x00\n      keccak256\n        /* \"contracts/TokenVesting.sol\":30824:30871  vestingSchedules[vestingScheduleId].initialized */\n      0x00\n      add\n      0x00\n      swap1\n      sload\n      swap1\n      0x0100\n      exp\n      swap1\n      div\n      0xff\n      and\n        /* \"contracts/TokenVesting.sol\":30824:30879  vestingSchedules[vestingScheduleId].initialized == true */\n      iszero\n      iszero\n      eq\n        /* \"contracts/TokenVesting.sol\":30816:30880  require(vestingSchedules[vestingScheduleId].initialized == true) */\n      tag_244\n      jumpi\n      0x00\n      dup1\n      revert\n    tag_244:\n        /* \"contracts/TokenVesting.sol\":30945:30950  false */\n      0x00\n        /* \"contracts/TokenVesting.sol\":30898:30950  vestingSchedules[vestingScheduleId].revoked == false */\n      iszero\n      iszero\n        /* \"contracts/TokenVesting.sol\":30898:30914  vestingSchedules */\n      0x03\n        /* \"contracts/TokenVesting.sol\":30898:30933  vestingSchedules[vestingScheduleId] */\n      0x00\n        /* \"contracts/TokenVesting.sol\":30915:30932  vestingScheduleId */\n      dup4\n        /* \"contracts/TokenVesting.sol\":30898:30933  vestingSchedules[vestingScheduleId] */\n      dup2\n      mstore\n      0x20\n      add\n      swap1\n      dup2\n      mstore\n      0x20\n      add\n      0x00\n      keccak256\n        /* \"contracts/TokenVesting.sol\":30898:30941  vestingSchedules[vestingScheduleId].revoked */\n      0x08\n      add\n      0x00\n      swap1\n      sload\n      swap1\n      0x0100\n      exp\n      swap1\n      div\n      0xff\n      and\n        /* \"contracts/TokenVesting.sol\":30898:30950  vestingSchedules[vestingScheduleId].revoked == false */\n      iszero\n      iszero\n      eq\n        /* \"contracts/TokenVesting.sol\":30890:30951  require(vestingSchedules[vestingScheduleId].revoked == false) */\n      tag_245\n      jumpi\n      0x00\n      dup1\n      revert\n    tag_245:\n        /* \"contracts/TokenVesting.sol\":37797:37836  VestingSchedule storage vestingSchedule */\n      0x00\n        /* \"contracts/TokenVesting.sol\":37839:37855  vestingSchedules */\n      0x03\n        /* \"contracts/TokenVesting.sol\":37839:37874  vestingSchedules[vestingScheduleId] */\n      0x00\n        /* \"contracts/TokenVesting.sol\":37856:37873  vestingScheduleId */\n      dup6\n        /* \"contracts/TokenVesting.sol\":37839:37874  vestingSchedules[vestingScheduleId] */\n      dup2\n      mstore\n      0x20\n      add\n      swap1\n      dup2\n      mstore\n      0x20\n      add\n      0x00\n      keccak256\n        /* \"contracts/TokenVesting.sol\":37797:37874  VestingSchedule storage vestingSchedule = vestingSchedules[vestingScheduleId] */\n      swap1\n      pop\n        /* \"contracts/TokenVesting.sol\":37891:37932  _computeReleasableAmount(vestingSchedule) */\n      tag_247\n        /* \"contracts/TokenVesting.sol\":37916:37931  vestingSchedule */\n      dup2\n        /* \"contracts/TokenVesting.sol\":37891:37932  _computeReleasableAmount(vestingSchedule) */\n      mload(0x40)\n      dup1\n      0x0140\n      add\n      0x40\n      mstore\n      swap1\n      dup2\n      0x00\n      dup3\n      add\n      0x00\n      swap1\n      sload\n      swap1\n      0x0100\n      exp\n      swap1\n      div\n      0xff\n      and\n      iszero\n      iszero\n      iszero\n      iszero\n      dup2\n      mstore\n      0x20\n      add\n      0x00\n      dup3\n      add\n      0x01\n      swap1\n      sload\n      swap1\n      0x0100\n      exp\n      swap1\n      div\n      0xffffffffffffffffffffffffffffffffffffffff\n      and\n      0xffffffffffffffffffffffffffffffffffffffff\n      and\n      0xffffffffffffffffffffffffffffffffffffffff\n      and\n      dup2\n      mstore\n      0x20\n      add\n      0x01\n      dup3\n      add\n      sload\n      dup2\n      mstore\n      0x20\n      add\n      0x02\n      dup3\n      add\n      sload\n      dup2\n      mstore\n      0x20\n      add\n      0x03\n      dup3\n      add\n      sload\n      dup2\n      mstore\n      0x20\n      add\n      0x04\n      dup3\n      add\n      sload\n      dup2\n      mstore\n      0x20\n      add\n      0x05\n      dup3\n      add\n      0x00\n      swap1\n      sload\n      swap1\n      0x0100\n      exp\n      swap1\n      div\n      0xff\n      and\n      iszero\n      iszero\n      iszero\n      iszero\n      dup2\n      mstore\n      0x20\n      add\n      0x06\n      dup3\n      add\n      sload\n      dup2\n      mstore\n      0x20\n      add\n      0x07\n      dup3\n      add\n      sload\n      dup2\n      mstore\n      0x20\n      add\n      0x08\n      dup3\n      add\n      0x00\n      swap1\n      sload\n      swap1\n      0x0100\n      exp\n      swap1\n      div\n      0xff\n      and\n      iszero\n      iszero\n      iszero\n      iszero\n      dup2\n      mstore\n      pop\n      pop\n        /* \"contracts/TokenVesting.sol\":37891:37915  _computeReleasableAmount */\n      tag_192\n        /* \"contracts/TokenVesting.sol\":37891:37932  _computeReleasableAmount(vestingSchedule) */\n      jump\t// in\n    tag_247:\n        /* \"contracts/TokenVesting.sol\":37884:37932  return _computeReleasableAmount(vestingSchedule) */\n      swap3\n      pop\n      pop\n        /* \"contracts/TokenVesting.sol\":37616:37939  function computeReleasableAmount(bytes32 vestingScheduleId)... */\n      pop\n      swap2\n      swap1\n      pop\n      jump\t// out\n        /* \"contracts/TokenVesting.sol\":10854:11052  function transferOwnership(address newOwner) public virtual onlyOwner {... */\n    tag_106:\n        /* \"contracts/TokenVesting.sol\":10195:10207  _msgSender() */\n      tag_249\n        /* \"contracts/TokenVesting.sol\":10195:10205  _msgSender */\n      tag_125\n        /* \"contracts/TokenVesting.sol\":10195:10207  _msgSender() */\n      jump\t// in\n    tag_249:\n        /* \"contracts/TokenVesting.sol\":10184:10207  owner() == _msgSender() */\n      0xffffffffffffffffffffffffffffffffffffffff\n      and\n        /* \"contracts/TokenVesting.sol\":10184:10191  owner() */\n      tag_250\n        /* \"contracts/TokenVesting.sol\":10184:10189  owner */\n      tag_82\n        /* \"contracts/TokenVesting.sol\":10184:10191  owner() */\n      jump\t// in\n    tag_250:\n        /* \"contracts/TokenVesting.sol\":10184:10207  owner() == _msgSender() */\n      0xffffffffffffffffffffffffffffffffffffffff\n      and\n      eq\n        /* \"contracts/TokenVesting.sol\":10176:10244  require(owner() == _msgSender(), \"Ownable: caller is not the owner\") */\n      tag_251\n      jumpi\n      mload(0x40)\n      0x08c379a000000000000000000000000000000000000000000000000000000000\n      dup2\n      mstore\n      0x04\n      add\n      tag_252\n      swap1\n      tag_129\n      jump\t// in\n    tag_252:\n      mload(0x40)\n      dup1\n      swap2\n      sub\n      swap1\n      revert\n    tag_251:\n        /* \"contracts/TokenVesting.sol\":10962:10963  0 */\n      0x00\n        /* \"contracts/TokenVesting.sol\":10942:10964  newOwner != address(0) */\n      0xffffffffffffffffffffffffffffffffffffffff\n      and\n        /* \"contracts/TokenVesting.sol\":10942:10950  newOwner */\n      dup2\n        /* \"contracts/TokenVesting.sol\":10942:10964  newOwner != address(0) */\n      0xffffffffffffffffffffffffffffffffffffffff\n      and\n      sub\n        /* \"contracts/TokenVesting.sol\":10934:11007  require(newOwner != address(0), \"Ownable: new owner is the zero address\") */\n      tag_254\n      jumpi\n      mload(0x40)\n      0x08c379a000000000000000000000000000000000000000000000000000000000\n      dup2\n      mstore\n      0x04\n      add\n      tag_255\n      swap1\n      tag_256\n      jump\t// in\n    tag_255:\n      mload(0x40)\n      dup1\n      swap2\n      sub\n      swap1\n      revert\n    tag_254:\n        /* \"contracts/TokenVesting.sol\":11017:11045  _transferOwnership(newOwner) */\n      tag_257\n        /* \"contracts/TokenVesting.sol\":11036:11044  newOwner */\n      dup2\n        /* \"contracts/TokenVesting.sol\":11017:11035  _transferOwnership */\n      tag_207\n        /* \"contracts/TokenVesting.sol\":11017:11045  _transferOwnership(newOwner) */\n      jump\t// in\n    tag_257:\n        /* \"contracts/TokenVesting.sol\":10854:11052  function transferOwnership(address newOwner) public virtual onlyOwner {... */\n      pop\n      jump\t// out\n        /* \"contracts/TokenVesting.sol\":32079:32313  function getVestingScheduleByAddressAndIndex(address holder, uint256 index)... */\n    tag_110:\n        /* \"contracts/TokenVesting.sol\":32189:32211  VestingSchedule memory */\n      tag_258\n      tag_209\n      jump\t// in\n    tag_258:\n        /* \"contracts/TokenVesting.sol\":32229:32306  getVestingSchedule(computeVestingScheduleIdForAddressAndIndex(holder, index)) */\n      tag_260\n        /* \"contracts/TokenVesting.sol\":32248:32305  computeVestingScheduleIdForAddressAndIndex(holder, index) */\n      tag_261\n        /* \"contracts/TokenVesting.sol\":32291:32297  holder */\n      dup5\n        /* \"contracts/TokenVesting.sol\":32299:32304  index */\n      dup5\n        /* \"contracts/TokenVesting.sol\":32248:32290  computeVestingScheduleIdForAddressAndIndex */\n      tag_77\n        /* \"contracts/TokenVesting.sol\":32248:32305  computeVestingScheduleIdForAddressAndIndex(holder, index) */\n      jump\t// in\n    tag_261:\n        /* \"contracts/TokenVesting.sol\":32229:32247  getVestingSchedule */\n      tag_92\n        /* \"contracts/TokenVesting.sol\":32229:32306  getVestingSchedule(computeVestingScheduleIdForAddressAndIndex(holder, index)) */\n      jump\t// in\n    tag_260:\n        /* \"contracts/TokenVesting.sol\":32222:32306  return getVestingSchedule(computeVestingScheduleIdForAddressAndIndex(holder, index)) */\n      swap1\n      pop\n        /* \"contracts/TokenVesting.sol\":32079:32313  function getVestingScheduleByAddressAndIndex(address holder, uint256 index)... */\n      swap3\n      swap2\n      pop\n      pop\n      jump\t// out\n        /* \"contracts/TokenVesting.sol\":38685:38903  function computeNextVestingScheduleIdForHolder(address holder)... */\n    tag_115:\n        /* \"contracts/TokenVesting.sol\":38792:38799  bytes32 */\n      0x00\n        /* \"contracts/TokenVesting.sol\":38817:38896  computeVestingScheduleIdForAddressAndIndex(holder, holdersVestingCount[holder]) */\n      tag_263\n        /* \"contracts/TokenVesting.sol\":38860:38866  holder */\n      dup3\n        /* \"contracts/TokenVesting.sol\":38868:38887  holdersVestingCount */\n      0x05\n        /* \"contracts/TokenVesting.sol\":38868:38895  holdersVestingCount[holder] */\n      0x00\n        /* \"contracts/TokenVesting.sol\":38888:38894  holder */\n      dup6\n        /* \"contracts/TokenVesting.sol\":38868:38895  holdersVestingCount[holder] */\n      0xffffffffffffffffffffffffffffffffffffffff\n      and\n      0xffffffffffffffffffffffffffffffffffffffff\n      and\n      dup2\n      mstore\n      0x20\n      add\n      swap1\n      dup2\n      mstore\n      0x20\n      add\n      0x00\n      keccak256\n      sload\n        /* \"contracts/TokenVesting.sol\":38817:38859  computeVestingScheduleIdForAddressAndIndex */\n      tag_77\n        /* \"contracts/TokenVesting.sol\":38817:38896  computeVestingScheduleIdForAddressAndIndex(holder, holdersVestingCount[holder]) */\n      jump\t// in\n    tag_263:\n        /* \"contracts/TokenVesting.sol\":38810:38896  return computeVestingScheduleIdForAddressAndIndex(holder, holdersVestingCount[holder]) */\n      swap1\n      pop\n        /* \"contracts/TokenVesting.sol\":38685:38903  function computeNextVestingScheduleIdForHolder(address holder)... */\n      swap2\n      swap1\n      pop\n      jump\t// out\n        /* \"contracts/TokenVesting.sol\":31691:31917  function getVestingIdAtIndex(uint256 index)... */\n    tag_120:\n        /* \"contracts/TokenVesting.sol\":31769:31776  bytes32 */\n      0x00\n        /* \"contracts/TokenVesting.sol\":31803:31829  getVestingSchedulesCount() */\n      tag_265\n        /* \"contracts/TokenVesting.sol\":31803:31827  getVestingSchedulesCount */\n      tag_31\n        /* \"contracts/TokenVesting.sol\":31803:31829  getVestingSchedulesCount() */\n      jump\t// in\n    tag_265:\n        /* \"contracts/TokenVesting.sol\":31795:31800  index */\n      dup3\n        /* \"contracts/TokenVesting.sol\":31795:31829  index < getVestingSchedulesCount() */\n      lt\n        /* \"contracts/TokenVesting.sol\":31787:31867  require(index < getVestingSchedulesCount(), \"TokenVesting: Index out of bounds\") */\n      tag_266\n      jumpi\n      mload(0x40)\n      0x08c379a000000000000000000000000000000000000000000000000000000000\n      dup2\n      mstore\n      0x04\n      add\n      tag_267\n      swap1\n      tag_268\n      jump\t// in\n    tag_267:\n      mload(0x40)\n      dup1\n      swap2\n      sub\n      swap1\n      revert\n    tag_266:\n        /* \"contracts/TokenVesting.sol\":31884:31903  vestingSchedulesIds */\n      0x02\n        /* \"contracts/TokenVesting.sol\":31904:31909  index */\n      dup3\n        /* \"contracts/TokenVesting.sol\":31884:31910  vestingSchedulesIds[index] */\n      dup2\n      sload\n      dup2\n      lt\n      tag_269\n      jumpi\n      tag_270\n      tag_271\n      jump\t// in\n    tag_270:\n    tag_269:\n      swap1\n      0x00\n      mstore\n      keccak256(0x00, 0x20)\n      add\n      sload\n        /* \"contracts/TokenVesting.sol\":31877:31910  return vestingSchedulesIds[index] */\n      swap1\n      pop\n        /* \"contracts/TokenVesting.sol\":31691:31917  function getVestingIdAtIndex(uint256 index)... */\n      swap2\n      swap1\n      pop\n      jump\t// out\n        /* \"contracts/TokenVesting.sol\":8740:8836  function _msgSender() internal view virtual returns (address) {... */\n    tag_125:\n        /* \"contracts/TokenVesting.sol\":8793:8800  address */\n      0x00\n        /* \"contracts/TokenVesting.sol\":8819:8829  msg.sender */\n      caller\n        /* \"contracts/TokenVesting.sol\":8812:8829  return msg.sender */\n      swap1\n      pop\n        /* \"contracts/TokenVesting.sol\":8740:8836  function _msgSender() internal view virtual returns (address) {... */\n      swap1\n      jump\t// out\n        /* \"contracts/TokenVesting.sol\":2799:2895  function add(uint256 a, uint256 b) internal pure returns (uint256) {... */\n    tag_153:\n        /* \"contracts/TokenVesting.sol\":2857:2864  uint256 */\n      0x00\n        /* \"contracts/TokenVesting.sol\":2887:2888  b */\n      dup2\n        /* \"contracts/TokenVesting.sol\":2883:2884  a */\n      dup4\n        /* \"contracts/TokenVesting.sol\":2883:2888  a + b */\n      tag_275\n      swap2\n      swap1\n      tag_276\n      jump\t// in\n    tag_275:\n        /* \"contracts/TokenVesting.sol\":2876:2888  return a + b */\n      swap1\n      pop\n        /* \"contracts/TokenVesting.sol\":2799:2895  function add(uint256 a, uint256 b) internal pure returns (uint256) {... */\n      swap3\n      swap2\n      pop\n      pop\n      jump\t// out\n        /* \"contracts/TokenVesting.sol\":25838:26043  function safeTransfer(... */\n    tag_176:\n        /* \"contracts/TokenVesting.sol\":25950:26036  _callOptionalReturn(token, abi.encodeWithSelector(token.transfer.selector, to, value)) */\n      tag_278\n        /* \"contracts/TokenVesting.sol\":25970:25975  token */\n      dup4\n        /* \"contracts/TokenVesting.sol\":26000:26023  token.transfer.selector */\n      shl(0xe0, 0xa9059cbb)\n        /* \"contracts/TokenVesting.sol\":26025:26027  to */\n      dup5\n        /* \"contracts/TokenVesting.sol\":26029:26034  value */\n      dup5\n        /* \"contracts/TokenVesting.sol\":25977:26035  abi.encodeWithSelector(token.transfer.selector, to, value) */\n      add(0x24, mload(0x40))\n      tag_279\n      swap3\n      swap2\n      swap1\n      tag_280\n      jump\t// in\n    tag_279:\n      mload(0x40)\n      0x20\n      dup2\n      dup4\n      sub\n      sub\n      dup2\n      mstore\n      swap1\n      0x40\n      mstore\n      swap1\n      not(0xffffffffffffffffffffffffffffffffffffffffffffffffffffffff)\n      and\n      0x20\n      dup3\n      add\n      dup1\n      mload\n      0xffffffffffffffffffffffffffffffffffffffffffffffffffffffff\n      dup4\n      dup2\n      dup4\n      and\n      or\n      dup4\n      mstore\n      pop\n      pop\n      pop\n      pop\n        /* \"contracts/TokenVesting.sol\":25950:25969  _callOptionalReturn */\n      tag_281\n        /* \"contracts/TokenVesting.sol\":25950:26036  _callOptionalReturn(token, abi.encodeWithSelector(token.transfer.selector, to, value)) */\n      jump\t// in\n    tag_278:\n        /* \"contracts/TokenVesting.sol\":25838:26043  function safeTransfer(... */\n      pop\n      pop\n      pop\n      jump\t// out\n        /* \"contracts/TokenVesting.sol\":39689:40682  function _computeReleasableAmount(VestingSchedule memory vestingSchedule)... */\n    tag_192:\n        /* \"contracts/TokenVesting.sol\":39797:39804  uint256 */\n      0x00\n        /* \"contracts/TokenVesting.sol\":39815:39834  uint256 currentTime */\n      dup1\n        /* \"contracts/TokenVesting.sol\":39837:39853  getCurrentTime() */\n      tag_283\n        /* \"contracts/TokenVesting.sol\":39837:39851  getCurrentTime */\n      tag_284\n        /* \"contracts/TokenVesting.sol\":39837:39853  getCurrentTime() */\n      jump\t// in\n    tag_283:\n        /* \"contracts/TokenVesting.sol\":39815:39853  uint256 currentTime = getCurrentTime() */\n      swap1\n      pop\n        /* \"contracts/TokenVesting.sol\":39882:39897  vestingSchedule */\n      dup3\n        /* \"contracts/TokenVesting.sol\":39882:39903  vestingSchedule.cliff */\n      0x40\n      add\n      mload\n        /* \"contracts/TokenVesting.sol\":39868:39879  currentTime */\n      dup2\n        /* \"contracts/TokenVesting.sol\":39868:39903  currentTime < vestingSchedule.cliff */\n      lt\n        /* \"contracts/TokenVesting.sol\":39867:39939  (currentTime < vestingSchedule.cliff) || vestingSchedule.revoked == true */\n      dup1\n      tag_285\n      jumpi\n      pop\n        /* \"contracts/TokenVesting.sol\":39935:39939  true */\n      0x01\n        /* \"contracts/TokenVesting.sol\":39908:39939  vestingSchedule.revoked == true */\n      iszero\n      iszero\n        /* \"contracts/TokenVesting.sol\":39908:39923  vestingSchedule */\n      dup4\n        /* \"contracts/TokenVesting.sol\":39908:39931  vestingSchedule.revoked */\n      0x0120\n      add\n      mload\n        /* \"contracts/TokenVesting.sol\":39908:39939  vestingSchedule.revoked == true */\n      iszero\n      iszero\n      eq\n        /* \"contracts/TokenVesting.sol\":39867:39939  (currentTime < vestingSchedule.cliff) || vestingSchedule.revoked == true */\n    tag_285:\n        /* \"contracts/TokenVesting.sol\":39863:40676  if ((currentTime < vestingSchedule.cliff) || vestingSchedule.revoked == true) {... */\n      iszero\n      tag_286\n      jumpi\n        /* \"contracts/TokenVesting.sol\":39962:39963  0 */\n      0x00\n        /* \"contracts/TokenVesting.sol\":39955:39963  return 0 */\n      swap2\n      pop\n      pop\n      jump(tag_282)\n        /* \"contracts/TokenVesting.sol\":39863:40676  if ((currentTime < vestingSchedule.cliff) || vestingSchedule.revoked == true) {... */\n    tag_286:\n        /* \"contracts/TokenVesting.sol\":39999:40050  vestingSchedule.start.add(vestingSchedule.duration) */\n      tag_288\n        /* \"contracts/TokenVesting.sol\":40025:40040  vestingSchedule */\n      dup4\n        /* \"contracts/TokenVesting.sol\":40025:40049  vestingSchedule.duration */\n      0x80\n      add\n      mload\n        /* \"contracts/TokenVesting.sol\":39999:40014  vestingSchedule */\n      dup5\n        /* \"contracts/TokenVesting.sol\":39999:40020  vestingSchedule.start */\n      0x60\n      add\n      mload\n        /* \"contracts/TokenVesting.sol\":39999:40024  vestingSchedule.start.add */\n      tag_153\n      swap1\n        /* \"contracts/TokenVesting.sol\":39999:40050  vestingSchedule.start.add(vestingSchedule.duration) */\n      swap2\n      swap1\n      0xffffffff\n      and\n      jump\t// in\n    tag_288:\n        /* \"contracts/TokenVesting.sol\":39984:39995  currentTime */\n      dup2\n        /* \"contracts/TokenVesting.sol\":39984:40050  currentTime >= vestingSchedule.start.add(vestingSchedule.duration) */\n      lt\n        /* \"contracts/TokenVesting.sol\":39980:40676  if (currentTime >= vestingSchedule.start.add(vestingSchedule.duration)) {... */\n      tag_289\n      jumpi\n        /* \"contracts/TokenVesting.sol\":40073:40130  vestingSchedule.amountTotal.sub(vestingSchedule.released) */\n      tag_290\n        /* \"contracts/TokenVesting.sol\":40105:40120  vestingSchedule */\n      dup4\n        /* \"contracts/TokenVesting.sol\":40105:40129  vestingSchedule.released */\n      0x0100\n      add\n      mload\n        /* \"contracts/TokenVesting.sol\":40073:40088  vestingSchedule */\n      dup5\n        /* \"contracts/TokenVesting.sol\":40073:40100  vestingSchedule.amountTotal */\n      0xe0\n      add\n      mload\n        /* \"contracts/TokenVesting.sol\":40073:40104  vestingSchedule.amountTotal.sub */\n      tag_198\n      swap1\n        /* \"contracts/TokenVesting.sol\":40073:40130  vestingSchedule.amountTotal.sub(vestingSchedule.released) */\n      swap2\n      swap1\n      0xffffffff\n      and\n      jump\t// in\n    tag_290:\n        /* \"contracts/TokenVesting.sol\":40066:40130  return vestingSchedule.amountTotal.sub(vestingSchedule.released) */\n      swap2\n      pop\n      pop\n      jump(tag_282)\n        /* \"contracts/TokenVesting.sol\":39980:40676  if (currentTime >= vestingSchedule.start.add(vestingSchedule.duration)) {... */\n    tag_289:\n        /* \"contracts/TokenVesting.sol\":40161:40182  uint256 timeFromStart */\n      0x00\n        /* \"contracts/TokenVesting.sol\":40185:40223  currentTime.sub(vestingSchedule.start) */\n      tag_292\n        /* \"contracts/TokenVesting.sol\":40201:40216  vestingSchedule */\n      dup5\n        /* \"contracts/TokenVesting.sol\":40201:40222  vestingSchedule.start */\n      0x60\n      add\n      mload\n        /* \"contracts/TokenVesting.sol\":40185:40196  currentTime */\n      dup4\n        /* \"contracts/TokenVesting.sol\":40185:40200  currentTime.sub */\n      tag_198\n      swap1\n        /* \"contracts/TokenVesting.sol\":40185:40223  currentTime.sub(vestingSchedule.start) */\n      swap2\n      swap1\n      0xffffffff\n      and\n      jump\t// in\n    tag_292:\n        /* \"contracts/TokenVesting.sol\":40161:40223  uint256 timeFromStart = currentTime.sub(vestingSchedule.start) */\n      swap1\n      pop\n        /* \"contracts/TokenVesting.sol\":40237:40257  uint secondsPerSlice */\n      0x00\n        /* \"contracts/TokenVesting.sol\":40260:40275  vestingSchedule */\n      dup5\n        /* \"contracts/TokenVesting.sol\":40260:40294  vestingSchedule.slicePeriodSeconds */\n      0xa0\n      add\n      mload\n        /* \"contracts/TokenVesting.sol\":40237:40294  uint secondsPerSlice = vestingSchedule.slicePeriodSeconds */\n      swap1\n      pop\n        /* \"contracts/TokenVesting.sol\":40308:40334  uint256 vestedSlicePeriods */\n      0x00\n        /* \"contracts/TokenVesting.sol\":40337:40371  timeFromStart.div(secondsPerSlice) */\n      tag_293\n        /* \"contracts/TokenVesting.sol\":40355:40370  secondsPerSlice */\n      dup3\n        /* \"contracts/TokenVesting.sol\":40337:40350  timeFromStart */\n      dup5\n        /* \"contracts/TokenVesting.sol\":40337:40354  timeFromStart.div */\n      tag_294\n      swap1\n        /* \"contracts/TokenVesting.sol\":40337:40371  timeFromStart.div(secondsPerSlice) */\n      swap2\n      swap1\n      0xffffffff\n      and\n      jump\t// in\n    tag_293:\n        /* \"contracts/TokenVesting.sol\":40308:40371  uint256 vestedSlicePeriods = timeFromStart.div(secondsPerSlice) */\n      swap1\n      pop\n        /* \"contracts/TokenVesting.sol\":40385:40406  uint256 vestedSeconds */\n      0x00\n        /* \"contracts/TokenVesting.sol\":40409:40448  vestedSlicePeriods.mul(secondsPerSlice) */\n      tag_295\n        /* \"contracts/TokenVesting.sol\":40432:40447  secondsPerSlice */\n      dup4\n        /* \"contracts/TokenVesting.sol\":40409:40427  vestedSlicePeriods */\n      dup4\n        /* \"contracts/TokenVesting.sol\":40409:40431  vestedSlicePeriods.mul */\n      tag_296\n      swap1\n        /* \"contracts/TokenVesting.sol\":40409:40448  vestedSlicePeriods.mul(secondsPerSlice) */\n      swap2\n      swap1\n      0xffffffff\n      and\n      jump\t// in\n    tag_295:\n        /* \"contracts/TokenVesting.sol\":40385:40448  uint256 vestedSeconds = vestedSlicePeriods.mul(secondsPerSlice) */\n      swap1\n      pop\n        /* \"contracts/TokenVesting.sol\":40462:40482  uint256 vestedAmount */\n      0x00\n        /* \"contracts/TokenVesting.sol\":40485:40561  vestingSchedule.amountTotal.mul(vestedSeconds).div(vestingSchedule.duration) */\n      tag_297\n        /* \"contracts/TokenVesting.sol\":40536:40551  vestingSchedule */\n      dup9\n        /* \"contracts/TokenVesting.sol\":40536:40560  vestingSchedule.duration */\n      0x80\n      add\n      mload\n        /* \"contracts/TokenVesting.sol\":40485:40531  vestingSchedule.amountTotal.mul(vestedSeconds) */\n      tag_298\n        /* \"contracts/TokenVesting.sol\":40517:40530  vestedSeconds */\n      dup5\n        /* \"contracts/TokenVesting.sol\":40485:40500  vestingSchedule */\n      dup12\n        /* \"contracts/TokenVesting.sol\":40485:40512  vestingSchedule.amountTotal */\n      0xe0\n      add\n      mload\n        /* \"contracts/TokenVesting.sol\":40485:40516  vestingSchedule.amountTotal.mul */\n      tag_296\n      swap1\n        /* \"contracts/TokenVesting.sol\":40485:40531  vestingSchedule.amountTotal.mul(vestedSeconds) */\n      swap2\n      swap1\n      0xffffffff\n      and\n      jump\t// in\n    tag_298:\n        /* \"contracts/TokenVesting.sol\":40485:40535  vestingSchedule.amountTotal.mul(vestedSeconds).div */\n      tag_294\n      swap1\n        /* \"contracts/TokenVesting.sol\":40485:40561  vestingSchedule.amountTotal.mul(vestedSeconds).div(vestingSchedule.duration) */\n      swap2\n      swap1\n      0xffffffff\n      and\n      jump\t// in\n    tag_297:\n        /* \"contracts/TokenVesting.sol\":40462:40561  uint256 vestedAmount = vestingSchedule.amountTotal.mul(vestedSeconds).div(vestingSchedule.duration) */\n      swap1\n      pop\n        /* \"contracts/TokenVesting.sol\":40590:40632  vestedAmount.sub(vestingSchedule.released) */\n      tag_299\n        /* \"contracts/TokenVesting.sol\":40607:40622  vestingSchedule */\n      dup9\n        /* \"contracts/TokenVesting.sol\":40607:40631  vestingSchedule.released */\n      0x0100\n      add\n      mload\n        /* \"contracts/TokenVesting.sol\":40590:40602  vestedAmount */\n      dup3\n        /* \"contracts/TokenVesting.sol\":40590:40606  vestedAmount.sub */\n      tag_198\n      swap1\n        /* \"contracts/TokenVesting.sol\":40590:40632  vestedAmount.sub(vestingSchedule.released) */\n      swap2\n      swap1\n      0xffffffff\n      and\n      jump\t// in\n    tag_299:\n        /* \"contracts/TokenVesting.sol\":40575:40632  vestedAmount = vestedAmount.sub(vestingSchedule.released) */\n      swap1\n      pop\n        /* \"contracts/TokenVesting.sol\":40653:40665  vestedAmount */\n      dup1\n        /* \"contracts/TokenVesting.sol\":40646:40665  return vestedAmount */\n      swap7\n      pop\n      pop\n      pop\n      pop\n      pop\n      pop\n      pop\n        /* \"contracts/TokenVesting.sol\":39689:40682  function _computeReleasableAmount(VestingSchedule memory vestingSchedule)... */\n    tag_282:\n      swap2\n      swap1\n      pop\n      jump\t// out\n        /* \"contracts/TokenVesting.sol\":3166:3262  function sub(uint256 a, uint256 b) internal pure returns (uint256) {... */\n    tag_198:\n        /* \"contracts/TokenVesting.sol\":3224:3231  uint256 */\n      0x00\n        /* \"contracts/TokenVesting.sol\":3254:3255  b */\n      dup2\n        /* \"contracts/TokenVesting.sol\":3250:3251  a */\n      dup4\n        /* \"contracts/TokenVesting.sol\":3250:3255  a - b */\n      tag_301\n      swap2\n      swap1\n      tag_213\n      jump\t// in\n    tag_301:\n        /* \"contracts/TokenVesting.sol\":3243:3255  return a - b */\n      swap1\n      pop\n        /* \"contracts/TokenVesting.sol\":3166:3262  function sub(uint256 a, uint256 b) internal pure returns (uint256) {... */\n      swap3\n      swap2\n      pop\n      pop\n      jump\t// out\n        /* \"contracts/TokenVesting.sol\":11206:11393  function _transferOwnership(address newOwner) internal virtual {... */\n    tag_207:\n        /* \"contracts/TokenVesting.sol\":11279:11295  address oldOwner */\n      0x00\n        /* \"contracts/TokenVesting.sol\":11298:11304  _owner */\n      dup1\n      0x00\n      swap1\n      sload\n      swap1\n      0x0100\n      exp\n      swap1\n      div\n      0xffffffffffffffffffffffffffffffffffffffff\n      and\n        /* \"contracts/TokenVesting.sol\":11279:11304  address oldOwner = _owner */\n      swap1\n      pop\n        /* \"contracts/TokenVesting.sol\":11323:11331  newOwner */\n      dup2\n        /* \"contracts/TokenVesting.sol\":11314:11320  _owner */\n      0x00\n      dup1\n        /* \"contracts/TokenVesting.sol\":11314:11331  _owner = newOwner */\n      0x0100\n      exp\n      dup2\n      sload\n      dup2\n      0xffffffffffffffffffffffffffffffffffffffff\n      mul\n      not\n      and\n      swap1\n      dup4\n      0xffffffffffffffffffffffffffffffffffffffff\n      and\n      mul\n      or\n      swap1\n      sstore\n      pop\n        /* \"contracts/TokenVesting.sol\":11377:11385  newOwner */\n      dup2\n        /* \"contracts/TokenVesting.sol\":11346:11386  OwnershipTransferred(oldOwner, newOwner) */\n      0xffffffffffffffffffffffffffffffffffffffff\n      and\n        /* \"contracts/TokenVesting.sol\":11367:11375  oldOwner */\n      dup2\n        /* \"contracts/TokenVesting.sol\":11346:11386  OwnershipTransferred(oldOwner, newOwner) */\n      0xffffffffffffffffffffffffffffffffffffffff\n      and\n      0x8be0079c531659141344cd1fd0a4f28419497f9722a3daafe3b4186f6b6457e0\n      mload(0x40)\n      mload(0x40)\n      dup1\n      swap2\n      sub\n      swap1\n      log3\n        /* \"contracts/TokenVesting.sol\":11269:11393  {... */\n      pop\n        /* \"contracts/TokenVesting.sol\":11206:11393  function _transferOwnership(address newOwner) internal virtual {... */\n      pop\n      jump\t// out\n        /* \"contracts/TokenVesting.sol\":28344:29050  function _callOptionalReturn(IERC20 token, bytes memory data) private {... */\n    tag_281:\n        /* \"contracts/TokenVesting.sol\":28763:28786  bytes memory returndata */\n      0x00\n        /* \"contracts/TokenVesting.sol\":28789:28858  address(token).functionCall(data, \"SafeERC20: low-level call failed\") */\n      tag_304\n        /* \"contracts/TokenVesting.sol\":28817:28821  data */\n      dup3\n        /* \"contracts/TokenVesting.sol\":28789:28858  address(token).functionCall(data, \"SafeERC20: low-level call failed\") */\n      mload(0x40)\n      dup1\n      0x40\n      add\n      0x40\n      mstore\n      dup1\n      0x20\n      dup2\n      mstore\n      0x20\n      add\n      0x5361666545524332303a206c6f772d6c6576656c2063616c6c206661696c6564\n      dup2\n      mstore\n      pop\n        /* \"contracts/TokenVesting.sol\":28797:28802  token */\n      dup6\n        /* \"contracts/TokenVesting.sol\":28789:28816  address(token).functionCall */\n      0xffffffffffffffffffffffffffffffffffffffff\n      and\n      tag_305\n      swap1\n        /* \"contracts/TokenVesting.sol\":28789:28858  address(token).functionCall(data, \"SafeERC20: low-level call failed\") */\n      swap3\n      swap2\n      swap1\n      0xffffffff\n      and\n      jump\t// in\n    tag_304:\n        /* \"contracts/TokenVesting.sol\":28763:28858  bytes memory returndata = address(token).functionCall(data, \"SafeERC20: low-level call failed\") */\n      swap1\n      pop\n        /* \"contracts/TokenVesting.sol\":28892:28893  0 */\n      0x00\n        /* \"contracts/TokenVesting.sol\":28872:28882  returndata */\n      dup2\n        /* \"contracts/TokenVesting.sol\":28872:28889  returndata.length */\n      mload\n        /* \"contracts/TokenVesting.sol\":28872:28893  returndata.length > 0 */\n      gt\n        /* \"contracts/TokenVesting.sol\":28868:29044  if (returndata.length > 0) {... */\n      iszero\n      tag_306\n      jumpi\n        /* \"contracts/TokenVesting.sol\":28967:28977  returndata */\n      dup1\n        /* \"contracts/TokenVesting.sol\":28956:28986  abi.decode(returndata, (bool)) */\n      dup1\n      0x20\n      add\n      swap1\n      mload\n      dup2\n      add\n      swap1\n      tag_307\n      swap2\n      swap1\n      tag_308\n      jump\t// in\n    tag_307:\n        /* \"contracts/TokenVesting.sol\":28948:29033  require(abi.decode(returndata, (bool)), \"SafeERC20: ERC20 operation did not succeed\") */\n      tag_309\n      jumpi\n      mload(0x40)\n      0x08c379a000000000000000000000000000000000000000000000000000000000\n      dup2\n      mstore\n      0x04\n      add\n      tag_310\n      swap1\n      tag_311\n      jump\t// in\n    tag_310:\n      mload(0x40)\n      dup1\n      swap2\n      sub\n      swap1\n      revert\n    tag_309:\n        /* \"contracts/TokenVesting.sol\":28868:29044  if (returndata.length > 0) {... */\n    tag_306:\n        /* \"contracts/TokenVesting.sol\":28414:29050  {... */\n      pop\n        /* \"contracts/TokenVesting.sol\":28344:29050  function _callOptionalReturn(IERC20 token, bytes memory data) private {... */\n      pop\n      pop\n      jump\t// out\n        /* \"contracts/TokenVesting.sol\":40687:40822  function getCurrentTime()... */\n    tag_284:\n        /* \"contracts/TokenVesting.sol\":40775:40782  uint256 */\n      0x00\n        /* \"contracts/TokenVesting.sol\":40800:40815  block.timestamp */\n      timestamp\n        /* \"contracts/TokenVesting.sol\":40793:40815  return block.timestamp */\n      swap1\n      pop\n        /* \"contracts/TokenVesting.sol\":40687:40822  function getCurrentTime()... */\n      swap1\n      jump\t// out\n        /* \"contracts/TokenVesting.sol\":3894:3990  function div(uint256 a, uint256 b) internal pure returns (uint256) {... */\n    tag_294:\n        /* \"contracts/TokenVesting.sol\":3952:3959  uint256 */\n      0x00\n        /* \"contracts/TokenVesting.sol\":3982:3983  b */\n      dup2\n        /* \"contracts/TokenVesting.sol\":3978:3979  a */\n      dup4\n        /* \"contracts/TokenVesting.sol\":3978:3983  a / b */\n      tag_314\n      swap2\n      swap1\n      tag_315\n      jump\t// in\n    tag_314:\n        /* \"contracts/TokenVesting.sol\":3971:3983  return a / b */\n      swap1\n      pop\n        /* \"contracts/TokenVesting.sol\":3894:3990  function div(uint256 a, uint256 b) internal pure returns (uint256) {... */\n      swap3\n      swap2\n      pop\n      pop\n      jump\t// out\n        /* \"contracts/TokenVesting.sol\":3509:3605  function mul(uint256 a, uint256 b) internal pure returns (uint256) {... */\n    tag_296:\n        /* \"contracts/TokenVesting.sol\":3567:3574  uint256 */\n      0x00\n        /* \"contracts/TokenVesting.sol\":3597:3598  b */\n      dup2\n        /* \"contracts/TokenVesting.sol\":3593:3594  a */\n      dup4\n        /* \"contracts/TokenVesting.sol\":3593:3598  a * b */\n      tag_317\n      swap2\n      swap1\n      tag_318\n      jump\t// in\n    tag_317:\n        /* \"contracts/TokenVesting.sol\":3586:3598  return a * b */\n      swap1\n      pop\n        /* \"contracts/TokenVesting.sol\":3509:3605  function mul(uint256 a, uint256 b) internal pure returns (uint256) {... */\n      swap3\n      swap2\n      pop\n      pop\n      jump\t// out\n        /* \"contracts/TokenVesting.sol\":17972:18195  function functionCall(... */\n    tag_305:\n        /* \"contracts/TokenVesting.sol\":18105:18117  bytes memory */\n      0x60\n        /* \"contracts/TokenVesting.sol\":18136:18188  functionCallWithValue(target, data, 0, errorMessage) */\n      tag_320\n        /* \"contracts/TokenVesting.sol\":18158:18164  target */\n      dup5\n        /* \"contracts/TokenVesting.sol\":18166:18170  data */\n      dup5\n        /* \"contracts/TokenVesting.sol\":18172:18173  0 */\n      0x00\n        /* \"contracts/TokenVesting.sol\":18175:18187  errorMessage */\n      dup6\n        /* \"contracts/TokenVesting.sol\":18136:18157  functionCallWithValue */\n      tag_321\n        /* \"contracts/TokenVesting.sol\":18136:18188  functionCallWithValue(target, data, 0, errorMessage) */\n      jump\t// in\n    tag_320:\n        /* \"contracts/TokenVesting.sol\":18129:18188  return functionCallWithValue(target, data, 0, errorMessage) */\n      swap1\n      pop\n        /* \"contracts/TokenVesting.sol\":17972:18195  function functionCall(... */\n      swap4\n      swap3\n      pop\n      pop\n      pop\n      jump\t// out\n        /* \"contracts/TokenVesting.sol\":19059:19558  function functionCallWithValue(... */\n    tag_321:\n        /* \"contracts/TokenVesting.sol\":19224:19236  bytes memory */\n      0x60\n        /* \"contracts/TokenVesting.sol\":19281:19286  value */\n      dup3\n        /* \"contracts/TokenVesting.sol\":19256:19277  address(this).balance */\n      selfbalance\n        /* \"contracts/TokenVesting.sol\":19256:19286  address(this).balance >= value */\n      lt\n      iszero\n        /* \"contracts/TokenVesting.sol\":19248:19329  require(address(this).balance >= value, \"Address: insufficient balance for call\") */\n      tag_323\n      jumpi\n      mload(0x40)\n      0x08c379a000000000000000000000000000000000000000000000000000000000\n      dup2\n      mstore\n      0x04\n      add\n      tag_324\n      swap1\n      tag_325\n      jump\t// in\n    tag_324:\n      mload(0x40)\n      dup1\n      swap2\n      sub\n      swap1\n      revert\n    tag_323:\n        /* \"contracts/TokenVesting.sol\":19347:19365  isContract(target) */\n      tag_326\n        /* \"contracts/TokenVesting.sol\":19358:19364  target */\n      dup6\n        /* \"contracts/TokenVesting.sol\":19347:19357  isContract */\n      tag_327\n        /* \"contracts/TokenVesting.sol\":19347:19365  isContract(target) */\n      jump\t// in\n    tag_326:\n        /* \"contracts/TokenVesting.sol\":19339:19399  require(isContract(target), \"Address: call to non-contract\") */\n      tag_328\n      jumpi\n      mload(0x40)\n      0x08c379a000000000000000000000000000000000000000000000000000000000\n      dup2\n      mstore\n      0x04\n      add\n      tag_329\n      swap1\n      tag_330\n      jump\t// in\n    tag_329:\n      mload(0x40)\n      dup1\n      swap2\n      sub\n      swap1\n      revert\n    tag_328:\n        /* \"contracts/TokenVesting.sol\":19411:19423  bool success */\n      0x00\n        /* \"contracts/TokenVesting.sol\":19425:19448  bytes memory returndata */\n      dup1\n        /* \"contracts/TokenVesting.sol\":19452:19458  target */\n      dup7\n        /* \"contracts/TokenVesting.sol\":19452:19463  target.call */\n      0xffffffffffffffffffffffffffffffffffffffff\n      and\n        /* \"contracts/TokenVesting.sol\":19471:19476  value */\n      dup6\n        /* \"contracts/TokenVesting.sol\":19478:19482  data */\n      dup8\n        /* \"contracts/TokenVesting.sol\":19452:19483  target.call{value: value}(data) */\n      mload(0x40)\n      tag_331\n      swap2\n      swap1\n      tag_332\n      jump\t// in\n    tag_331:\n      0x00\n      mload(0x40)\n      dup1\n      dup4\n      sub\n      dup2\n      dup6\n      dup8\n      gas\n      call\n      swap3\n      pop\n      pop\n      pop\n      returndatasize\n      dup1\n      0x00\n      dup2\n      eq\n      tag_335\n      jumpi\n      mload(0x40)\n      swap2\n      pop\n      and(add(returndatasize, 0x3f), not(0x1f))\n      dup3\n      add\n      0x40\n      mstore\n      returndatasize\n      dup3\n      mstore\n      returndatasize\n      0x00\n      0x20\n      dup5\n      add\n      returndatacopy\n      jump(tag_334)\n    tag_335:\n      0x60\n      swap2\n      pop\n    tag_334:\n      pop\n        /* \"contracts/TokenVesting.sol\":19410:19483  (bool success, bytes memory returndata) = target.call{value: value}(data) */\n      swap2\n      pop\n      swap2\n      pop\n        /* \"contracts/TokenVesting.sol\":19500:19551  verifyCallResult(success, returndata, errorMessage) */\n      tag_336\n        /* \"contracts/TokenVesting.sol\":19517:19524  success */\n      dup3\n        /* \"contracts/TokenVesting.sol\":19526:19536  returndata */\n      dup3\n        /* \"contracts/TokenVesting.sol\":19538:19550  errorMessage */\n      dup7\n        /* \"contracts/TokenVesting.sol\":19500:19516  verifyCallResult */\n      tag_337\n        /* \"contracts/TokenVesting.sol\":19500:19551  verifyCallResult(success, returndata, errorMessage) */\n      jump\t// in\n    tag_336:\n        /* \"contracts/TokenVesting.sol\":19493:19551  return verifyCallResult(success, returndata, errorMessage) */\n      swap3\n      pop\n      pop\n      pop\n        /* \"contracts/TokenVesting.sol\":19059:19558  function functionCallWithValue(... */\n      swap5\n      swap4\n      pop\n      pop\n      pop\n      pop\n      jump\t// out\n        /* \"contracts/TokenVesting.sol\":15286:15606  function isContract(address account) internal view returns (bool) {... */\n    tag_327:\n        /* \"contracts/TokenVesting.sol\":15346:15350  bool */\n      0x00\n        /* \"contracts/TokenVesting.sol\":15598:15599  0 */\n      dup1\n        /* \"contracts/TokenVesting.sol\":15576:15583  account */\n      dup3\n        /* \"contracts/TokenVesting.sol\":15576:15595  account.code.length */\n      0xffffffffffffffffffffffffffffffffffffffff\n      and\n      extcodesize\n        /* \"contracts/TokenVesting.sol\":15576:15599  account.code.length > 0 */\n      gt\n        /* \"contracts/TokenVesting.sol\":15569:15599  return account.code.length > 0 */\n      swap1\n      pop\n        /* \"contracts/TokenVesting.sol\":15286:15606  function isContract(address account) internal view returns (bool) {... */\n      swap2\n      swap1\n      pop\n      jump\t// out\n        /* \"contracts/TokenVesting.sol\":21672:22364  function verifyCallResult(... */\n    tag_337:\n        /* \"contracts/TokenVesting.sol\":21818:21830  bytes memory */\n      0x60\n        /* \"contracts/TokenVesting.sol\":21846:21853  success */\n      dup4\n        /* \"contracts/TokenVesting.sol\":21842:22358  if (success) {... */\n      iszero\n      tag_340\n      jumpi\n        /* \"contracts/TokenVesting.sol\":21876:21886  returndata */\n      dup3\n        /* \"contracts/TokenVesting.sol\":21869:21886  return returndata */\n      swap1\n      pop\n      jump(tag_339)\n        /* \"contracts/TokenVesting.sol\":21842:22358  if (success) {... */\n    tag_340:\n        /* \"contracts/TokenVesting.sol\":22007:22008  0 */\n      0x00\n        /* \"contracts/TokenVesting.sol\":21987:21997  returndata */\n      dup4\n        /* \"contracts/TokenVesting.sol\":21987:22004  returndata.length */\n      mload\n        /* \"contracts/TokenVesting.sol\":21987:22008  returndata.length > 0 */\n      gt\n        /* \"contracts/TokenVesting.sol\":21983:22348  if (returndata.length > 0) {... */\n      iszero\n      tag_342\n      jumpi\n        /* \"contracts/TokenVesting.sol\":22181:22191  returndata */\n      dup3\n        /* \"contracts/TokenVesting.sol\":22175:22192  mload(returndata) */\n      mload\n        /* \"contracts/TokenVesting.sol\":22241:22256  returndata_size */\n      dup1\n        /* \"contracts/TokenVesting.sol\":22228:22238  returndata */\n      dup5\n        /* \"contracts/TokenVesting.sol\":22224:22226  32 */\n      0x20\n        /* \"contracts/TokenVesting.sol\":22220:22239  add(32, returndata) */\n      add\n        /* \"contracts/TokenVesting.sol\":22213:22257  revert(add(32, returndata), returndata_size) */\n      revert\n        /* \"contracts/TokenVesting.sol\":21983:22348  if (returndata.length > 0) {... */\n    tag_342:\n        /* \"contracts/TokenVesting.sol\":22320:22332  errorMessage */\n      dup2\n        /* \"contracts/TokenVesting.sol\":22313:22333  revert(errorMessage) */\n      mload(0x40)\n      0x08c379a000000000000000000000000000000000000000000000000000000000\n      dup2\n      mstore\n      0x04\n      add\n      tag_344\n      swap2\n      swap1\n      tag_345\n      jump\t// in\n    tag_344:\n      mload(0x40)\n      dup1\n      swap2\n      sub\n      swap1\n      revert\n        /* \"contracts/TokenVesting.sol\":21672:22364  function verifyCallResult(... */\n    tag_339:\n      swap4\n      swap3\n      pop\n      pop\n      pop\n      jump\t// out\n    tag_209:\n      mload(0x40)\n      dup1\n      0x0140\n      add\n      0x40\n      mstore\n      dup1\n      iszero(iszero(0x00))\n      dup2\n      mstore\n      0x20\n      add\n      and(0xffffffffffffffffffffffffffffffffffffffff, 0x00)\n      dup2\n      mstore\n      0x20\n      add\n      0x00\n      dup2\n      mstore\n      0x20\n      add\n      0x00\n      dup2\n      mstore\n      0x20\n      add\n      0x00\n      dup2\n      mstore\n      0x20\n      add\n      0x00\n      dup2\n      mstore\n      0x20\n      add\n      iszero(iszero(0x00))\n      dup2\n      mstore\n      0x20\n      add\n      0x00\n      dup2\n      mstore\n      0x20\n      add\n      0x00\n      dup2\n      mstore\n      0x20\n      add\n      iszero(iszero(0x00))\n      dup2\n      mstore\n      pop\n      swap1\n      jump\t// out\n        /* \"#utility.yul\":7:84   */\n    tag_346:\n        /* \"#utility.yul\":44:51   */\n      0x00\n        /* \"#utility.yul\":73:78   */\n      dup2\n        /* \"#utility.yul\":62:78   */\n      swap1\n      pop\n        /* \"#utility.yul\":7:84   */\n      swap2\n      swap1\n      pop\n      jump\t// out\n        /* \"#utility.yul\":90:208   */\n    tag_347:\n        /* \"#utility.yul\":177:201   */\n      tag_421\n        /* \"#utility.yul\":195:200   */\n      dup2\n        /* \"#utility.yul\":177:201   */\n      tag_346\n      jump\t// in\n    tag_421:\n        /* \"#utility.yul\":172:175   */\n      dup3\n        /* \"#utility.yul\":165:202   */\n      mstore\n        /* \"#utility.yul\":90:208   */\n      pop\n      pop\n      jump\t// out\n        /* \"#utility.yul\":214:436   */\n    tag_33:\n        /* \"#utility.yul\":307:311   */\n      0x00\n        /* \"#utility.yul\":345:347   */\n      0x20\n        /* \"#utility.yul\":334:343   */\n      dup3\n        /* \"#utility.yul\":330:348   */\n      add\n        /* \"#utility.yul\":322:348   */\n      swap1\n      pop\n        /* \"#utility.yul\":358:429   */\n      tag_423\n        /* \"#utility.yul\":426:427   */\n      0x00\n        /* \"#utility.yul\":415:424   */\n      dup4\n        /* \"#utility.yul\":411:428   */\n      add\n        /* \"#utility.yul\":402:408   */\n      dup5\n        /* \"#utility.yul\":358:429   */\n      tag_347\n      jump\t// in\n    tag_423:\n        /* \"#utility.yul\":214:436   */\n      swap3\n      swap2\n      pop\n      pop\n      jump\t// out\n        /* \"#utility.yul\":523:640   */\n    tag_349:\n        /* \"#utility.yul\":632:633   */\n      0x00\n        /* \"#utility.yul\":629:630   */\n      dup1\n        /* \"#utility.yul\":622:634   */\n      revert\n        /* \"#utility.yul\":769:895   */\n    tag_351:\n        /* \"#utility.yul\":806:813   */\n      0x00\n        /* \"#utility.yul\":846:888   */\n      0xffffffffffffffffffffffffffffffffffffffff\n        /* \"#utility.yul\":839:844   */\n      dup3\n        /* \"#utility.yul\":835:889   */\n      and\n        /* \"#utility.yul\":824:889   */\n      swap1\n      pop\n        /* \"#utility.yul\":769:895   */\n      swap2\n      swap1\n      pop\n      jump\t// out\n        /* \"#utility.yul\":901:997   */\n    tag_352:\n        /* \"#utility.yul\":938:945   */\n      0x00\n        /* \"#utility.yul\":967:991   */\n      tag_429\n        /* \"#utility.yul\":985:990   */\n      dup3\n        /* \"#utility.yul\":967:991   */\n      tag_351\n      jump\t// in\n    tag_429:\n        /* \"#utility.yul\":956:991   */\n      swap1\n      pop\n        /* \"#utility.yul\":901:997   */\n      swap2\n      swap1\n      pop\n      jump\t// out\n        /* \"#utility.yul\":1003:1125   */\n    tag_353:\n        /* \"#utility.yul\":1076:1100   */\n      tag_431\n        /* \"#utility.yul\":1094:1099   */\n      dup2\n        /* \"#utility.yul\":1076:1100   */\n      tag_352\n      jump\t// in\n    tag_431:\n        /* \"#utility.yul\":1069:1074   */\n      dup2\n        /* \"#utility.yul\":1066:1101   */\n      eq\n        /* \"#utility.yul\":1056:1119   */\n      tag_432\n      jumpi\n        /* \"#utility.yul\":1115:1116   */\n      0x00\n        /* \"#utility.yul\":1112:1113   */\n      dup1\n        /* \"#utility.yul\":1105:1117   */\n      revert\n        /* \"#utility.yul\":1056:1119   */\n    tag_432:\n        /* \"#utility.yul\":1003:1125   */\n      pop\n      jump\t// out\n        /* \"#utility.yul\":1131:1270   */\n    tag_354:\n        /* \"#utility.yul\":1177:1182   */\n      0x00\n        /* \"#utility.yul\":1215:1221   */\n      dup2\n        /* \"#utility.yul\":1202:1222   */\n      calldataload\n        /* \"#utility.yul\":1193:1222   */\n      swap1\n      pop\n        /* \"#utility.yul\":1231:1264   */\n      tag_434\n        /* \"#utility.yul\":1258:1263   */\n      dup2\n        /* \"#utility.yul\":1231:1264   */\n      tag_353\n      jump\t// in\n    tag_434:\n        /* \"#utility.yul\":1131:1270   */\n      swap3\n      swap2\n      pop\n      pop\n      jump\t// out\n        /* \"#utility.yul\":1276:1398   */\n    tag_355:\n        /* \"#utility.yul\":1349:1373   */\n      tag_436\n        /* \"#utility.yul\":1367:1372   */\n      dup2\n        /* \"#utility.yul\":1349:1373   */\n      tag_346\n      jump\t// in\n    tag_436:\n        /* \"#utility.yul\":1342:1347   */\n      dup2\n        /* \"#utility.yul\":1339:1374   */\n      eq\n        /* \"#utility.yul\":1329:1392   */\n      tag_437\n      jumpi\n        /* \"#utility.yul\":1388:1389   */\n      0x00\n        /* \"#utility.yul\":1385:1386   */\n      dup1\n        /* \"#utility.yul\":1378:1390   */\n      revert\n        /* \"#utility.yul\":1329:1392   */\n    tag_437:\n        /* \"#utility.yul\":1276:1398   */\n      pop\n      jump\t// out\n        /* \"#utility.yul\":1404:1543   */\n    tag_356:\n        /* \"#utility.yul\":1450:1455   */\n      0x00\n        /* \"#utility.yul\":1488:1494   */\n      dup2\n        /* \"#utility.yul\":1475:1495   */\n      calldataload\n        /* \"#utility.yul\":1466:1495   */\n      swap1\n      pop\n        /* \"#utility.yul\":1504:1537   */\n      tag_439\n        /* \"#utility.yul\":1531:1536   */\n      dup2\n        /* \"#utility.yul\":1504:1537   */\n      tag_355\n      jump\t// in\n    tag_439:\n        /* \"#utility.yul\":1404:1543   */\n      swap3\n      swap2\n      pop\n      pop\n      jump\t// out\n        /* \"#utility.yul\":1549:1639   */\n    tag_357:\n        /* \"#utility.yul\":1583:1590   */\n      0x00\n        /* \"#utility.yul\":1626:1631   */\n      dup2\n        /* \"#utility.yul\":1619:1632   */\n      iszero\n        /* \"#utility.yul\":1612:1633   */\n      iszero\n        /* \"#utility.yul\":1601:1633   */\n      swap1\n      pop\n        /* \"#utility.yul\":1549:1639   */\n      swap2\n      swap1\n      pop\n      jump\t// out\n        /* \"#utility.yul\":1645:1761   */\n    tag_358:\n        /* \"#utility.yul\":1715:1736   */\n      tag_442\n        /* \"#utility.yul\":1730:1735   */\n      dup2\n        /* \"#utility.yul\":1715:1736   */\n      tag_357\n      jump\t// in\n    tag_442:\n        /* \"#utility.yul\":1708:1713   */\n      dup2\n        /* \"#utility.yul\":1705:1737   */\n      eq\n        /* \"#utility.yul\":1695:1755   */\n      tag_443\n      jumpi\n        /* \"#utility.yul\":1751:1752   */\n      0x00\n        /* \"#utility.yul\":1748:1749   */\n      dup1\n        /* \"#utility.yul\":1741:1753   */\n      revert\n        /* \"#utility.yul\":1695:1755   */\n    tag_443:\n        /* \"#utility.yul\":1645:1761   */\n      pop\n      jump\t// out\n        /* \"#utility.yul\":1767:1900   */\n    tag_359:\n        /* \"#utility.yul\":1810:1815   */\n      0x00\n        /* \"#utility.yul\":1848:1854   */\n      dup2\n        /* \"#utility.yul\":1835:1855   */\n      calldataload\n        /* \"#utility.yul\":1826:1855   */\n      swap1\n      pop\n        /* \"#utility.yul\":1864:1894   */\n      tag_445\n        /* \"#utility.yul\":1888:1893   */\n      dup2\n        /* \"#utility.yul\":1864:1894   */\n      tag_358\n      jump\t// in\n    tag_445:\n        /* \"#utility.yul\":1767:1900   */\n      swap3\n      swap2\n      pop\n      pop\n      jump\t// out\n        /* \"#utility.yul\":1906:3103   */\n    tag_37:\n        /* \"#utility.yul\":2016:2022   */\n      0x00\n        /* \"#utility.yul\":2024:2030   */\n      dup1\n        /* \"#utility.yul\":2032:2038   */\n      0x00\n        /* \"#utility.yul\":2040:2046   */\n      dup1\n        /* \"#utility.yul\":2048:2054   */\n      0x00\n        /* \"#utility.yul\":2056:2062   */\n      dup1\n        /* \"#utility.yul\":2064:2070   */\n      0x00\n        /* \"#utility.yul\":2113:2116   */\n      0xe0\n        /* \"#utility.yul\":2101:2110   */\n      dup9\n        /* \"#utility.yul\":2092:2099   */\n      dup11\n        /* \"#utility.yul\":2088:2111   */\n      sub\n        /* \"#utility.yul\":2084:2117   */\n      slt\n        /* \"#utility.yul\":2081:2201   */\n      iszero\n      tag_447\n      jumpi\n        /* \"#utility.yul\":2120:2199   */\n      tag_448\n      tag_349\n      jump\t// in\n    tag_448:\n        /* \"#utility.yul\":2081:2201   */\n    tag_447:\n        /* \"#utility.yul\":2240:2241   */\n      0x00\n        /* \"#utility.yul\":2265:2318   */\n      tag_449\n        /* \"#utility.yul\":2310:2317   */\n      dup11\n        /* \"#utility.yul\":2301:2307   */\n      dup3\n        /* \"#utility.yul\":2290:2299   */\n      dup12\n        /* \"#utility.yul\":2286:2308   */\n      add\n        /* \"#utility.yul\":2265:2318   */\n      tag_354\n      jump\t// in\n    tag_449:\n        /* \"#utility.yul\":2255:2318   */\n      swap8\n      pop\n        /* \"#utility.yul\":2211:2328   */\n      pop\n        /* \"#utility.yul\":2367:2369   */\n      0x20\n        /* \"#utility.yul\":2393:2446   */\n      tag_450\n        /* \"#utility.yul\":2438:2445   */\n      dup11\n        /* \"#utility.yul\":2429:2435   */\n      dup3\n        /* \"#utility.yul\":2418:2427   */\n      dup12\n        /* \"#utility.yul\":2414:2436   */\n      add\n        /* \"#utility.yul\":2393:2446   */\n      tag_356\n      jump\t// in\n    tag_450:\n        /* \"#utility.yul\":2383:2446   */\n      swap7\n      pop\n        /* \"#utility.yul\":2338:2456   */\n      pop\n        /* \"#utility.yul\":2495:2497   */\n      0x40\n        /* \"#utility.yul\":2521:2574   */\n      tag_451\n        /* \"#utility.yul\":2566:2573   */\n      dup11\n        /* \"#utility.yul\":2557:2563   */\n      dup3\n        /* \"#utility.yul\":2546:2555   */\n      dup12\n        /* \"#utility.yul\":2542:2564   */\n      add\n        /* \"#utility.yul\":2521:2574   */\n      tag_356\n      jump\t// in\n    tag_451:\n        /* \"#utility.yul\":2511:2574   */\n      swap6\n      pop\n        /* \"#utility.yul\":2466:2584   */\n      pop\n        /* \"#utility.yul\":2623:2625   */\n      0x60\n        /* \"#utility.yul\":2649:2702   */\n      tag_452\n        /* \"#utility.yul\":2694:2701   */\n      dup11\n        /* \"#utility.yul\":2685:2691   */\n      dup3\n        /* \"#utility.yul\":2674:2683   */\n      dup12\n        /* \"#utility.yul\":2670:2692   */\n      add\n        /* \"#utility.yul\":2649:2702   */\n      tag_356\n      jump\t// in\n    tag_452:\n        /* \"#utility.yul\":2639:2702   */\n      swap5\n      pop\n        /* \"#utility.yul\":2594:2712   */\n      pop\n        /* \"#utility.yul\":2751:2754   */\n      0x80\n        /* \"#utility.yul\":2778:2831   */\n      tag_453\n        /* \"#utility.yul\":2823:2830   */\n      dup11\n        /* \"#utility.yul\":2814:2820   */\n      dup3\n        /* \"#utility.yul\":2803:2812   */\n      dup12\n        /* \"#utility.yul\":2799:2821   */\n      add\n        /* \"#utility.yul\":2778:2831   */\n      tag_356\n      jump\t// in\n    tag_453:\n        /* \"#utility.yul\":2768:2831   */\n      swap4\n      pop\n        /* \"#utility.yul\":2722:2841   */\n      pop\n        /* \"#utility.yul\":2880:2883   */\n      0xa0\n        /* \"#utility.yul\":2907:2957   */\n      tag_454\n        /* \"#utility.yul\":2949:2956   */\n      dup11\n        /* \"#utility.yul\":2940:2946   */\n      dup3\n        /* \"#utility.yul\":2929:2938   */\n      dup12\n        /* \"#utility.yul\":2925:2947   */\n      add\n        /* \"#utility.yul\":2907:2957   */\n      tag_359\n      jump\t// in\n    tag_454:\n        /* \"#utility.yul\":2897:2957   */\n      swap3\n      pop\n        /* \"#utility.yul\":2851:2967   */\n      pop\n        /* \"#utility.yul\":3006:3009   */\n      0xc0\n        /* \"#utility.yul\":3033:3086   */\n      tag_455\n        /* \"#utility.yul\":3078:3085   */\n      dup11\n        /* \"#utility.yul\":3069:3075   */\n      dup3\n        /* \"#utility.yul\":3058:3067   */\n      dup12\n        /* \"#utility.yul\":3054:3076   */\n      add\n        /* \"#utility.yul\":3033:3086   */\n      tag_356\n      jump\t// in\n    tag_455:\n        /* \"#utility.yul\":3023:3086   */\n      swap2\n      pop\n        /* \"#utility.yul\":2977:3096   */\n      pop\n        /* \"#utility.yul\":1906:3103   */\n      swap3\n      swap6\n      swap9\n      swap2\n      swap5\n      swap8\n      pop\n      swap3\n      swap6\n      pop\n      jump\t// out\n        /* \"#utility.yul\":3109:3227   */\n    tag_360:\n        /* \"#utility.yul\":3196:3220   */\n      tag_457\n        /* \"#utility.yul\":3214:3219   */\n      dup2\n        /* \"#utility.yul\":3196:3220   */\n      tag_352\n      jump\t// in\n    tag_457:\n        /* \"#utility.yul\":3191:3194   */\n      dup3\n        /* \"#utility.yul\":3184:3221   */\n      mstore\n        /* \"#utility.yul\":3109:3227   */\n      pop\n      pop\n      jump\t// out\n        /* \"#utility.yul\":3233:3455   */\n    tag_43:\n        /* \"#utility.yul\":3326:3330   */\n      0x00\n        /* \"#utility.yul\":3364:3366   */\n      0x20\n        /* \"#utility.yul\":3353:3362   */\n      dup3\n        /* \"#utility.yul\":3349:3367   */\n      add\n        /* \"#utility.yul\":3341:3367   */\n      swap1\n      pop\n        /* \"#utility.yul\":3377:3448   */\n      tag_459\n        /* \"#utility.yul\":3445:3446   */\n      0x00\n        /* \"#utility.yul\":3434:3443   */\n      dup4\n        /* \"#utility.yul\":3430:3447   */\n      add\n        /* \"#utility.yul\":3421:3427   */\n      dup5\n        /* \"#utility.yul\":3377:3448   */\n      tag_360\n      jump\t// in\n    tag_459:\n        /* \"#utility.yul\":3233:3455   */\n      swap3\n      swap2\n      pop\n      pop\n      jump\t// out\n        /* \"#utility.yul\":3461:3790   */\n    tag_47:\n        /* \"#utility.yul\":3520:3526   */\n      0x00\n        /* \"#utility.yul\":3569:3571   */\n      0x20\n        /* \"#utility.yul\":3557:3566   */\n      dup3\n        /* \"#utility.yul\":3548:3555   */\n      dup5\n        /* \"#utility.yul\":3544:3567   */\n      sub\n        /* \"#utility.yul\":3540:3572   */\n      slt\n        /* \"#utility.yul\":3537:3656   */\n      iszero\n      tag_461\n      jumpi\n        /* \"#utility.yul\":3575:3654   */\n      tag_462\n      tag_349\n      jump\t// in\n    tag_462:\n        /* \"#utility.yul\":3537:3656   */\n    tag_461:\n        /* \"#utility.yul\":3695:3696   */\n      0x00\n        /* \"#utility.yul\":3720:3773   */\n      tag_463\n        /* \"#utility.yul\":3765:3772   */\n      dup5\n        /* \"#utility.yul\":3756:3762   */\n      dup3\n        /* \"#utility.yul\":3745:3754   */\n      dup6\n        /* \"#utility.yul\":3741:3763   */\n      add\n        /* \"#utility.yul\":3720:3773   */\n      tag_356\n      jump\t// in\n    tag_463:\n        /* \"#utility.yul\":3710:3773   */\n      swap2\n      pop\n        /* \"#utility.yul\":3666:3783   */\n      pop\n        /* \"#utility.yul\":3461:3790   */\n      swap3\n      swap2\n      pop\n      pop\n      jump\t// out\n        /* \"#utility.yul\":3796:4125   */\n    tag_56:\n        /* \"#utility.yul\":3855:3861   */\n      0x00\n        /* \"#utility.yul\":3904:3906   */\n      0x20\n        /* \"#utility.yul\":3892:3901   */\n      dup3\n        /* \"#utility.yul\":3883:3890   */\n      dup5\n        /* \"#utility.yul\":3879:3902   */\n      sub\n        /* \"#utility.yul\":3875:3907   */\n      slt\n        /* \"#utility.yul\":3872:3991   */\n      iszero\n      tag_465\n      jumpi\n        /* \"#utility.yul\":3910:3989   */\n      tag_466\n      tag_349\n      jump\t// in\n    tag_466:\n        /* \"#utility.yul\":3872:3991   */\n    tag_465:\n        /* \"#utility.yul\":4030:4031   */\n      0x00\n        /* \"#utility.yul\":4055:4108   */\n      tag_467\n        /* \"#utility.yul\":4100:4107   */\n      dup5\n        /* \"#utility.yul\":4091:4097   */\n      dup3\n        /* \"#utility.yul\":4080:4089   */\n      dup6\n        /* \"#utility.yul\":4076:4098   */\n      add\n        /* \"#utility.yul\":4055:4108   */\n      tag_354\n      jump\t// in\n    tag_467:\n        /* \"#utility.yul\":4045:4108   */\n      swap2\n      pop\n        /* \"#utility.yul\":4001:4118   */\n      pop\n        /* \"#utility.yul\":3796:4125   */\n      swap3\n      swap2\n      pop\n      pop\n      jump\t// out\n        /* \"#utility.yul\":4131:4208   */\n    tag_361:\n        /* \"#utility.yul\":4168:4175   */\n      0x00\n        /* \"#utility.yul\":4197:4202   */\n      dup2\n        /* \"#utility.yul\":4186:4202   */\n      swap1\n      pop\n        /* \"#utility.yul\":4131:4208   */\n      swap2\n      swap1\n      pop\n      jump\t// out\n        /* \"#utility.yul\":4214:4336   */\n    tag_362:\n        /* \"#utility.yul\":4287:4311   */\n      tag_470\n        /* \"#utility.yul\":4305:4310   */\n      dup2\n        /* \"#utility.yul\":4287:4311   */\n      tag_361\n      jump\t// in\n    tag_470:\n        /* \"#utility.yul\":4280:4285   */\n      dup2\n        /* \"#utility.yul\":4277:4312   */\n      eq\n        /* \"#utility.yul\":4267:4330   */\n      tag_471\n      jumpi\n        /* \"#utility.yul\":4326:4327   */\n      0x00\n        /* \"#utility.yul\":4323:4324   */\n      dup1\n        /* \"#utility.yul\":4316:4328   */\n      revert\n        /* \"#utility.yul\":4267:4330   */\n    tag_471:\n        /* \"#utility.yul\":4214:4336   */\n      pop\n      jump\t// out\n        /* \"#utility.yul\":4342:4481   */\n    tag_363:\n        /* \"#utility.yul\":4388:4393   */\n      0x00\n        /* \"#utility.yul\":4426:4432   */\n      dup2\n        /* \"#utility.yul\":4413:4433   */\n      calldataload\n        /* \"#utility.yul\":4404:4433   */\n      swap1\n      pop\n        /* \"#utility.yul\":4442:4475   */\n      tag_473\n        /* \"#utility.yul\":4469:4474   */\n      dup2\n        /* \"#utility.yul\":4442:4475   */\n      tag_362\n      jump\t// in\n    tag_473:\n        /* \"#utility.yul\":4342:4481   */\n      swap3\n      swap2\n      pop\n      pop\n      jump\t// out\n        /* \"#utility.yul\":4487:4961   */\n    tag_62:\n        /* \"#utility.yul\":4555:4561   */\n      0x00\n        /* \"#utility.yul\":4563:4569   */\n      dup1\n        /* \"#utility.yul\":4612:4614   */\n      0x40\n        /* \"#utility.yul\":4600:4609   */\n      dup4\n        /* \"#utility.yul\":4591:4598   */\n      dup6\n        /* \"#utility.yul\":4587:4610   */\n      sub\n        /* \"#utility.yul\":4583:4615   */\n      slt\n        /* \"#utility.yul\":4580:4699   */\n      iszero\n      tag_475\n      jumpi\n        /* \"#utility.yul\":4618:4697   */\n      tag_476\n      tag_349\n      jump\t// in\n    tag_476:\n        /* \"#utility.yul\":4580:4699   */\n    tag_475:\n        /* \"#utility.yul\":4738:4739   */\n      0x00\n        /* \"#utility.yul\":4763:4816   */\n      tag_477\n        /* \"#utility.yul\":4808:4815   */\n      dup6\n        /* \"#utility.yul\":4799:4805   */\n      dup3\n        /* \"#utility.yul\":4788:4797   */\n      dup7\n        /* \"#utility.yul\":4784:4806   */\n      add\n        /* \"#utility.yul\":4763:4816   */\n      tag_363\n      jump\t// in\n    tag_477:\n        /* \"#utility.yul\":4753:4816   */\n      swap3\n      pop\n        /* \"#utility.yul\":4709:4826   */\n      pop\n        /* \"#utility.yul\":4865:4867   */\n      0x20\n        /* \"#utility.yul\":4891:4944   */\n      tag_478\n        /* \"#utility.yul\":4936:4943   */\n      dup6\n        /* \"#utility.yul\":4927:4933   */\n      dup3\n        /* \"#utility.yul\":4916:4925   */\n      dup7\n        /* \"#utility.yul\":4912:4934   */\n      add\n        /* \"#utility.yul\":4891:4944   */\n      tag_356\n      jump\t// in\n    tag_478:\n        /* \"#utility.yul\":4881:4944   */\n      swap2\n      pop\n        /* \"#utility.yul\":4836:4954   */\n      pop\n        /* \"#utility.yul\":4487:4961   */\n      swap3\n      pop\n      swap3\n      swap1\n      pop\n      jump\t// out\n        /* \"#utility.yul\":4967:5066   */\n    tag_364:\n        /* \"#utility.yul\":5038:5059   */\n      tag_480\n        /* \"#utility.yul\":5053:5058   */\n      dup2\n        /* \"#utility.yul\":5038:5059   */\n      tag_357\n      jump\t// in\n    tag_480:\n        /* \"#utility.yul\":5033:5036   */\n      dup3\n        /* \"#utility.yul\":5026:5060   */\n      mstore\n        /* \"#utility.yul\":4967:5066   */\n      pop\n      pop\n      jump\t// out\n        /* \"#utility.yul\":5072:5180   */\n    tag_365:\n        /* \"#utility.yul\":5149:5173   */\n      tag_482\n        /* \"#utility.yul\":5167:5172   */\n      dup2\n        /* \"#utility.yul\":5149:5173   */\n      tag_352\n      jump\t// in\n    tag_482:\n        /* \"#utility.yul\":5144:5147   */\n      dup3\n        /* \"#utility.yul\":5137:5174   */\n      mstore\n        /* \"#utility.yul\":5072:5180   */\n      pop\n      pop\n      jump\t// out\n        /* \"#utility.yul\":5186:5294   */\n    tag_366:\n        /* \"#utility.yul\":5263:5287   */\n      tag_484\n        /* \"#utility.yul\":5281:5286   */\n      dup2\n        /* \"#utility.yul\":5263:5287   */\n      tag_346\n      jump\t// in\n    tag_484:\n        /* \"#utility.yul\":5258:5261   */\n      dup3\n        /* \"#utility.yul\":5251:5288   */\n      mstore\n        /* \"#utility.yul\":5186:5294   */\n      pop\n      pop\n      jump\t// out\n        /* \"#utility.yul\":5382:7342   */\n    tag_367:\n        /* \"#utility.yul\":5545:5551   */\n      0x0140\n        /* \"#utility.yul\":5540:5543   */\n      dup3\n        /* \"#utility.yul\":5536:5552   */\n      add\n        /* \"#utility.yul\":5641:5645   */\n      0x00\n        /* \"#utility.yul\":5634:5639   */\n      dup3\n        /* \"#utility.yul\":5630:5646   */\n      add\n        /* \"#utility.yul\":5624:5647   */\n      mload\n        /* \"#utility.yul\":5660:5717   */\n      tag_486\n        /* \"#utility.yul\":5711:5715   */\n      0x00\n        /* \"#utility.yul\":5706:5709   */\n      dup6\n        /* \"#utility.yul\":5702:5716   */\n      add\n        /* \"#utility.yul\":5688:5700   */\n      dup3\n        /* \"#utility.yul\":5660:5717   */\n      tag_364\n      jump\t// in\n    tag_486:\n        /* \"#utility.yul\":5562:5727   */\n      pop\n        /* \"#utility.yul\":5816:5820   */\n      0x20\n        /* \"#utility.yul\":5809:5814   */\n      dup3\n        /* \"#utility.yul\":5805:5821   */\n      add\n        /* \"#utility.yul\":5799:5822   */\n      mload\n        /* \"#utility.yul\":5835:5898   */\n      tag_487\n        /* \"#utility.yul\":5892:5896   */\n      0x20\n        /* \"#utility.yul\":5887:5890   */\n      dup6\n        /* \"#utility.yul\":5883:5897   */\n      add\n        /* \"#utility.yul\":5869:5881   */\n      dup3\n        /* \"#utility.yul\":5835:5898   */\n      tag_365\n      jump\t// in\n    tag_487:\n        /* \"#utility.yul\":5737:5908   */\n      pop\n        /* \"#utility.yul\":5991:5995   */\n      0x40\n        /* \"#utility.yul\":5984:5989   */\n      dup3\n        /* \"#utility.yul\":5980:5996   */\n      add\n        /* \"#utility.yul\":5974:5997   */\n      mload\n        /* \"#utility.yul\":6010:6073   */\n      tag_488\n        /* \"#utility.yul\":6067:6071   */\n      0x40\n        /* \"#utility.yul\":6062:6065   */\n      dup6\n        /* \"#utility.yul\":6058:6072   */\n      add\n        /* \"#utility.yul\":6044:6056   */\n      dup3\n        /* \"#utility.yul\":6010:6073   */\n      tag_366\n      jump\t// in\n    tag_488:\n        /* \"#utility.yul\":5918:6083   */\n      pop\n        /* \"#utility.yul\":6166:6170   */\n      0x60\n        /* \"#utility.yul\":6159:6164   */\n      dup3\n        /* \"#utility.yul\":6155:6171   */\n      add\n        /* \"#utility.yul\":6149:6172   */\n      mload\n        /* \"#utility.yul\":6185:6248   */\n      tag_489\n        /* \"#utility.yul\":6242:6246   */\n      0x60\n        /* \"#utility.yul\":6237:6240   */\n      dup6\n        /* \"#utility.yul\":6233:6247   */\n      add\n        /* \"#utility.yul\":6219:6231   */\n      dup3\n        /* \"#utility.yul\":6185:6248   */\n      tag_366\n      jump\t// in\n    tag_489:\n        /* \"#utility.yul\":6093:6258   */\n      pop\n        /* \"#utility.yul\":6344:6348   */\n      0x80\n        /* \"#utility.yul\":6337:6342   */\n      dup3\n        /* \"#utility.yul\":6333:6349   */\n      add\n        /* \"#utility.yul\":6327:6350   */\n      mload\n        /* \"#utility.yul\":6363:6426   */\n      tag_490\n        /* \"#utility.yul\":6420:6424   */\n      0x80\n        /* \"#utility.yul\":6415:6418   */\n      dup6\n        /* \"#utility.yul\":6411:6425   */\n      add\n        /* \"#utility.yul\":6397:6409   */\n      dup3\n        /* \"#utility.yul\":6363:6426   */\n      tag_366\n      jump\t// in\n    tag_490:\n        /* \"#utility.yul\":6268:6436   */\n      pop\n        /* \"#utility.yul\":6532:6536   */\n      0xa0\n        /* \"#utility.yul\":6525:6530   */\n      dup3\n        /* \"#utility.yul\":6521:6537   */\n      add\n        /* \"#utility.yul\":6515:6538   */\n      mload\n        /* \"#utility.yul\":6551:6614   */\n      tag_491\n        /* \"#utility.yul\":6608:6612   */\n      0xa0\n        /* \"#utility.yul\":6603:6606   */\n      dup6\n        /* \"#utility.yul\":6599:6613   */\n      add\n        /* \"#utility.yul\":6585:6597   */\n      dup3\n        /* \"#utility.yul\":6551:6614   */\n      tag_366\n      jump\t// in\n    tag_491:\n        /* \"#utility.yul\":6446:6624   */\n      pop\n        /* \"#utility.yul\":6711:6715   */\n      0xc0\n        /* \"#utility.yul\":6704:6709   */\n      dup3\n        /* \"#utility.yul\":6700:6716   */\n      add\n        /* \"#utility.yul\":6694:6717   */\n      mload\n        /* \"#utility.yul\":6730:6787   */\n      tag_492\n        /* \"#utility.yul\":6781:6785   */\n      0xc0\n        /* \"#utility.yul\":6776:6779   */\n      dup6\n        /* \"#utility.yul\":6772:6786   */\n      add\n        /* \"#utility.yul\":6758:6770   */\n      dup3\n        /* \"#utility.yul\":6730:6787   */\n      tag_364\n      jump\t// in\n    tag_492:\n        /* \"#utility.yul\":6634:6797   */\n      pop\n        /* \"#utility.yul\":6886:6890   */\n      0xe0\n        /* \"#utility.yul\":6879:6884   */\n      dup3\n        /* \"#utility.yul\":6875:6891   */\n      add\n        /* \"#utility.yul\":6869:6892   */\n      mload\n        /* \"#utility.yul\":6905:6968   */\n      tag_493\n        /* \"#utility.yul\":6962:6966   */\n      0xe0\n        /* \"#utility.yul\":6957:6960   */\n      dup6\n        /* \"#utility.yul\":6953:6967   */\n      add\n        /* \"#utility.yul\":6939:6951   */\n      dup3\n        /* \"#utility.yul\":6905:6968   */\n      tag_366\n      jump\t// in\n    tag_493:\n        /* \"#utility.yul\":6807:6978   */\n      pop\n        /* \"#utility.yul\":7064:7070   */\n      0x0100\n        /* \"#utility.yul\":7057:7062   */\n      dup3\n        /* \"#utility.yul\":7053:7071   */\n      add\n        /* \"#utility.yul\":7047:7072   */\n      mload\n        /* \"#utility.yul\":7085:7150   */\n      tag_494\n        /* \"#utility.yul\":7142:7148   */\n      0x0100\n        /* \"#utility.yul\":7137:7140   */\n      dup6\n        /* \"#utility.yul\":7133:7149   */\n      add\n        /* \"#utility.yul\":7119:7131   */\n      dup3\n        /* \"#utility.yul\":7085:7150   */\n      tag_366\n      jump\t// in\n    tag_494:\n        /* \"#utility.yul\":6988:7160   */\n      pop\n        /* \"#utility.yul\":7245:7251   */\n      0x0120\n        /* \"#utility.yul\":7238:7243   */\n      dup3\n        /* \"#utility.yul\":7234:7252   */\n      add\n        /* \"#utility.yul\":7228:7253   */\n      mload\n        /* \"#utility.yul\":7266:7325   */\n      tag_495\n        /* \"#utility.yul\":7317:7323   */\n      0x0120\n        /* \"#utility.yul\":7312:7315   */\n      dup6\n        /* \"#utility.yul\":7308:7324   */\n      add\n        /* \"#utility.yul\":7294:7306   */\n      dup3\n        /* \"#utility.yul\":7266:7325   */\n      tag_364\n      jump\t// in\n    tag_495:\n        /* \"#utility.yul\":7170:7335   */\n      pop\n        /* \"#utility.yul\":5514:7342   */\n      pop\n        /* \"#utility.yul\":5382:7342   */\n      pop\n      pop\n      jump\t// out\n        /* \"#utility.yul\":7348:7703   */\n    tag_72:\n        /* \"#utility.yul\":7507:7511   */\n      0x00\n        /* \"#utility.yul\":7545:7548   */\n      0x0140\n        /* \"#utility.yul\":7534:7543   */\n      dup3\n        /* \"#utility.yul\":7530:7549   */\n      add\n        /* \"#utility.yul\":7522:7549   */\n      swap1\n      pop\n        /* \"#utility.yul\":7559:7696   */\n      tag_497\n        /* \"#utility.yul\":7693:7694   */\n      0x00\n        /* \"#utility.yul\":7682:7691   */\n      dup4\n        /* \"#utility.yul\":7678:7695   */\n      add\n        /* \"#utility.yul\":7669:7675   */\n      dup5\n        /* \"#utility.yul\":7559:7696   */\n      tag_367\n      jump\t// in\n    tag_497:\n        /* \"#utility.yul\":7348:7703   */\n      swap3\n      swap2\n      pop\n      pop\n      jump\t// out\n        /* \"#utility.yul\":7709:8183   */\n    tag_76:\n        /* \"#utility.yul\":7777:7783   */\n      0x00\n        /* \"#utility.yul\":7785:7791   */\n      dup1\n        /* \"#utility.yul\":7834:7836   */\n      0x40\n        /* \"#utility.yul\":7822:7831   */\n      dup4\n        /* \"#utility.yul\":7813:7820   */\n      dup6\n        /* \"#utility.yul\":7809:7832   */\n      sub\n        /* \"#utility.yul\":7805:7837   */\n      slt\n        /* \"#utility.yul\":7802:7921   */\n      iszero\n      tag_499\n      jumpi\n        /* \"#utility.yul\":7840:7919   */\n      tag_500\n      tag_349\n      jump\t// in\n    tag_500:\n        /* \"#utility.yul\":7802:7921   */\n    tag_499:\n        /* \"#utility.yul\":7960:7961   */\n      0x00\n        /* \"#utility.yul\":7985:8038   */\n      tag_501\n        /* \"#utility.yul\":8030:8037   */\n      dup6\n        /* \"#utility.yul\":8021:8027   */\n      dup3\n        /* \"#utility.yul\":8010:8019   */\n      dup7\n        /* \"#utility.yul\":8006:8028   */\n      add\n        /* \"#utility.yul\":7985:8038   */\n      tag_354\n      jump\t// in\n    tag_501:\n        /* \"#utility.yul\":7975:8038   */\n      swap3\n      pop\n        /* \"#utility.yul\":7931:8048   */\n      pop\n        /* \"#utility.yul\":8087:8089   */\n      0x20\n        /* \"#utility.yul\":8113:8166   */\n      tag_502\n        /* \"#utility.yul\":8158:8165   */\n      dup6\n        /* \"#utility.yul\":8149:8155   */\n      dup3\n        /* \"#utility.yul\":8138:8147   */\n      dup7\n        /* \"#utility.yul\":8134:8156   */\n      add\n        /* \"#utility.yul\":8113:8166   */\n      tag_356\n      jump\t// in\n    tag_502:\n        /* \"#utility.yul\":8103:8166   */\n      swap2\n      pop\n        /* \"#utility.yul\":8058:8176   */\n      pop\n        /* \"#utility.yul\":7709:8183   */\n      swap3\n      pop\n      swap3\n      swap1\n      pop\n      jump\t// out\n        /* \"#utility.yul\":8189:8307   */\n    tag_368:\n        /* \"#utility.yul\":8276:8300   */\n      tag_504\n        /* \"#utility.yul\":8294:8299   */\n      dup2\n        /* \"#utility.yul\":8276:8300   */\n      tag_361\n      jump\t// in\n    tag_504:\n        /* \"#utility.yul\":8271:8274   */\n      dup3\n        /* \"#utility.yul\":8264:8301   */\n      mstore\n        /* \"#utility.yul\":8189:8307   */\n      pop\n      pop\n      jump\t// out\n        /* \"#utility.yul\":8313:8535   */\n    tag_79:\n        /* \"#utility.yul\":8406:8410   */\n      0x00\n        /* \"#utility.yul\":8444:8446   */\n      0x20\n        /* \"#utility.yul\":8433:8442   */\n      dup3\n        /* \"#utility.yul\":8429:8447   */\n      add\n        /* \"#utility.yul\":8421:8447   */\n      swap1\n      pop\n        /* \"#utility.yul\":8457:8528   */\n      tag_506\n        /* \"#utility.yul\":8525:8526   */\n      0x00\n        /* \"#utility.yul\":8514:8523   */\n      dup4\n        /* \"#utility.yul\":8510:8527   */\n      add\n        /* \"#utility.yul\":8501:8507   */\n      dup5\n        /* \"#utility.yul\":8457:8528   */\n      tag_368\n      jump\t// in\n    tag_506:\n        /* \"#utility.yul\":8313:8535   */\n      swap3\n      swap2\n      pop\n      pop\n      jump\t// out\n        /* \"#utility.yul\":8541:8870   */\n    tag_91:\n        /* \"#utility.yul\":8600:8606   */\n      0x00\n        /* \"#utility.yul\":8649:8651   */\n      0x20\n        /* \"#utility.yul\":8637:8646   */\n      dup3\n        /* \"#utility.yul\":8628:8635   */\n      dup5\n        /* \"#utility.yul\":8624:8647   */\n      sub\n        /* \"#utility.yul\":8620:8652   */\n      slt\n        /* \"#utility.yul\":8617:8736   */\n      iszero\n      tag_508\n      jumpi\n        /* \"#utility.yul\":8655:8734   */\n      tag_509\n      tag_349\n      jump\t// in\n    tag_509:\n        /* \"#utility.yul\":8617:8736   */\n    tag_508:\n        /* \"#utility.yul\":8775:8776   */\n      0x00\n        /* \"#utility.yul\":8800:8853   */\n      tag_510\n        /* \"#utility.yul\":8845:8852   */\n      dup5\n        /* \"#utility.yul\":8836:8842   */\n      dup3\n        /* \"#utility.yul\":8825:8834   */\n      dup6\n        /* \"#utility.yul\":8821:8843   */\n      add\n        /* \"#utility.yul\":8800:8853   */\n      tag_363\n      jump\t// in\n    tag_510:\n        /* \"#utility.yul\":8790:8853   */\n      swap2\n      pop\n        /* \"#utility.yul\":8746:8863   */\n      pop\n        /* \"#utility.yul\":8541:8870   */\n      swap3\n      swap2\n      pop\n      pop\n      jump\t// out\n        /* \"#utility.yul\":8876:9045   */\n    tag_369:\n        /* \"#utility.yul\":8960:8971   */\n      0x00\n        /* \"#utility.yul\":8994:9000   */\n      dup3\n        /* \"#utility.yul\":8989:8992   */\n      dup3\n        /* \"#utility.yul\":8982:9001   */\n      mstore\n        /* \"#utility.yul\":9034:9038   */\n      0x20\n        /* \"#utility.yul\":9029:9032   */\n      dup3\n        /* \"#utility.yul\":9025:9039   */\n      add\n        /* \"#utility.yul\":9010:9039   */\n      swap1\n      pop\n        /* \"#utility.yul\":8876:9045   */\n      swap3\n      swap2\n      pop\n      pop\n      jump\t// out\n        /* \"#utility.yul\":9051:9233   */\n    tag_370:\n        /* \"#utility.yul\":9191:9225   */\n      0x4f776e61626c653a2063616c6c6572206973206e6f7420746865206f776e6572\n        /* \"#utility.yul\":9187:9188   */\n      0x00\n        /* \"#utility.yul\":9179:9185   */\n      dup3\n        /* \"#utility.yul\":9175:9189   */\n      add\n        /* \"#utility.yul\":9168:9226   */\n      mstore\n        /* \"#utility.yul\":9051:9233   */\n      pop\n      jump\t// out\n        /* \"#utility.yul\":9239:9605   */\n    tag_371:\n        /* \"#utility.yul\":9381:9384   */\n      0x00\n        /* \"#utility.yul\":9402:9469   */\n      tag_514\n        /* \"#utility.yul\":9466:9468   */\n      0x20\n        /* \"#utility.yul\":9461:9464   */\n      dup4\n        /* \"#utility.yul\":9402:9469   */\n      tag_369\n      jump\t// in\n    tag_514:\n        /* \"#utility.yul\":9395:9469   */\n      swap2\n      pop\n        /* \"#utility.yul\":9478:9571   */\n      tag_515\n        /* \"#utility.yul\":9567:9570   */\n      dup3\n        /* \"#utility.yul\":9478:9571   */\n      tag_370\n      jump\t// in\n    tag_515:\n        /* \"#utility.yul\":9596:9598   */\n      0x20\n        /* \"#utility.yul\":9591:9594   */\n      dup3\n        /* \"#utility.yul\":9587:9599   */\n      add\n        /* \"#utility.yul\":9580:9599   */\n      swap1\n      pop\n        /* \"#utility.yul\":9239:9605   */\n      swap2\n      swap1\n      pop\n      jump\t// out\n        /* \"#utility.yul\":9611:10030   */\n    tag_129:\n        /* \"#utility.yul\":9777:9781   */\n      0x00\n        /* \"#utility.yul\":9815:9817   */\n      0x20\n        /* \"#utility.yul\":9804:9813   */\n      dup3\n        /* \"#utility.yul\":9800:9818   */\n      add\n        /* \"#utility.yul\":9792:9818   */\n      swap1\n      pop\n        /* \"#utility.yul\":9864:9873   */\n      dup2\n        /* \"#utility.yul\":9858:9862   */\n      dup2\n        /* \"#utility.yul\":9854:9874   */\n      sub\n        /* \"#utility.yul\":9850:9851   */\n      0x00\n        /* \"#utility.yul\":9839:9848   */\n      dup4\n        /* \"#utility.yul\":9835:9852   */\n      add\n        /* \"#utility.yul\":9828:9875   */\n      mstore\n        /* \"#utility.yul\":9892:10023   */\n      tag_517\n        /* \"#utility.yul\":10018:10022   */\n      dup2\n        /* \"#utility.yul\":9892:10023   */\n      tag_371\n      jump\t// in\n    tag_517:\n        /* \"#utility.yul\":9884:10023   */\n      swap1\n      pop\n        /* \"#utility.yul\":9611:10030   */\n      swap2\n      swap1\n      pop\n      jump\t// out\n        /* \"#utility.yul\":10036:10179   */\n    tag_372:\n        /* \"#utility.yul\":10093:10098   */\n      0x00\n        /* \"#utility.yul\":10124:10130   */\n      dup2\n        /* \"#utility.yul\":10118:10131   */\n      mload\n        /* \"#utility.yul\":10109:10131   */\n      swap1\n      pop\n        /* \"#utility.yul\":10140:10173   */\n      tag_519\n        /* \"#utility.yul\":10167:10172   */\n      dup2\n        /* \"#utility.yul\":10140:10173   */\n      tag_355\n      jump\t// in\n    tag_519:\n        /* \"#utility.yul\":10036:10179   */\n      swap3\n      swap2\n      pop\n      pop\n      jump\t// out\n        /* \"#utility.yul\":10185:10536   */\n    tag_134:\n        /* \"#utility.yul\":10255:10261   */\n      0x00\n        /* \"#utility.yul\":10304:10306   */\n      0x20\n        /* \"#utility.yul\":10292:10301   */\n      dup3\n        /* \"#utility.yul\":10283:10290   */\n      dup5\n        /* \"#utility.yul\":10279:10302   */\n      sub\n        /* \"#utility.yul\":10275:10307   */\n      slt\n        /* \"#utility.yul\":10272:10391   */\n      iszero\n      tag_521\n      jumpi\n        /* \"#utility.yul\":10310:10389   */\n      tag_522\n      tag_349\n      jump\t// in\n    tag_522:\n        /* \"#utility.yul\":10272:10391   */\n    tag_521:\n        /* \"#utility.yul\":10430:10431   */\n      0x00\n        /* \"#utility.yul\":10455:10519   */\n      tag_523\n        /* \"#utility.yul\":10511:10518   */\n      dup5\n        /* \"#utility.yul\":10502:10508   */\n      dup3\n        /* \"#utility.yul\":10491:10500   */\n      dup6\n        /* \"#utility.yul\":10487:10509   */\n      add\n        /* \"#utility.yul\":10455:10519   */\n      tag_372\n      jump\t// in\n    tag_523:\n        /* \"#utility.yul\":10445:10519   */\n      swap2\n      pop\n        /* \"#utility.yul\":10401:10529   */\n      pop\n        /* \"#utility.yul\":10185:10536   */\n      swap3\n      swap2\n      pop\n      pop\n      jump\t// out\n        /* \"#utility.yul\":10542:10840   */\n    tag_373:\n        /* \"#utility.yul\":10682:10716   */\n      0x546f6b656e56657374696e673a2063616e6e6f74206372656174652076657374\n        /* \"#utility.yul\":10678:10679   */\n      0x00\n        /* \"#utility.yul\":10670:10676   */\n      dup3\n        /* \"#utility.yul\":10666:10680   */\n      add\n        /* \"#utility.yul\":10659:10717   */\n      mstore\n        /* \"#utility.yul\":10751:10785   */\n      0x696e67207363686564756c652062656361757365206e6f742073756666696369\n        /* \"#utility.yul\":10746:10748   */\n      0x20\n        /* \"#utility.yul\":10738:10744   */\n      dup3\n        /* \"#utility.yul\":10734:10749   */\n      add\n        /* \"#utility.yul\":10727:10786   */\n      mstore\n        /* \"#utility.yul\":10820:10832   */\n      0x656e7420746f6b656e7300000000000000000000000000000000000000000000\n        /* \"#utility.yul\":10815:10817   */\n      0x40\n        /* \"#utility.yul\":10807:10813   */\n      dup3\n        /* \"#utility.yul\":10803:10818   */\n      add\n        /* \"#utility.yul\":10796:10833   */\n      mstore\n        /* \"#utility.yul\":10542:10840   */\n      pop\n      jump\t// out\n        /* \"#utility.yul\":10846:11212   */\n    tag_374:\n        /* \"#utility.yul\":10988:10991   */\n      0x00\n        /* \"#utility.yul\":11009:11076   */\n      tag_526\n        /* \"#utility.yul\":11073:11075   */\n      0x4a\n        /* \"#utility.yul\":11068:11071   */\n      dup4\n        /* \"#utility.yul\":11009:11076   */\n      tag_369\n      jump\t// in\n    tag_526:\n        /* \"#utility.yul\":11002:11076   */\n      swap2\n      pop\n        /* \"#utility.yul\":11085:11178   */\n      tag_527\n        /* \"#utility.yul\":11174:11177   */\n      dup3\n        /* \"#utility.yul\":11085:11178   */\n      tag_373\n      jump\t// in\n    tag_527:\n        /* \"#utility.yul\":11203:11205   */\n      0x60\n        /* \"#utility.yul\":11198:11201   */\n      dup3\n        /* \"#utility.yul\":11194:11206   */\n      add\n        /* \"#utility.yul\":11187:11206   */\n      swap1\n      pop\n        /* \"#utility.yul\":10846:11212   */\n      swap2\n      swap1\n      pop\n      jump\t// out\n        /* \"#utility.yul\":11218:11637   */\n    tag_137:\n        /* \"#utility.yul\":11384:11388   */\n      0x00\n        /* \"#utility.yul\":11422:11424   */\n      0x20\n        /* \"#utility.yul\":11411:11420   */\n      dup3\n        /* \"#utility.yul\":11407:11425   */\n      add\n        /* \"#utility.yul\":11399:11425   */\n      swap1\n      pop\n        /* \"#utility.yul\":11471:11480   */\n      dup2\n        /* \"#utility.yul\":11465:11469   */\n      dup2\n        /* \"#utility.yul\":11461:11481   */\n      sub\n        /* \"#utility.yul\":11457:11458   */\n      0x00\n        /* \"#utility.yul\":11446:11455   */\n      dup4\n        /* \"#utility.yul\":11442:11459   */\n      add\n        /* \"#utility.yul\":11435:11482   */\n      mstore\n        /* \"#utility.yul\":11499:11630   */\n      tag_529\n        /* \"#utility.yul\":11625:11629   */\n      dup2\n        /* \"#utility.yul\":11499:11630   */\n      tag_374\n      jump\t// in\n    tag_529:\n        /* \"#utility.yul\":11491:11630   */\n      swap1\n      pop\n        /* \"#utility.yul\":11218:11637   */\n      swap2\n      swap1\n      pop\n      jump\t// out\n        /* \"#utility.yul\":11643:11864   */\n    tag_375:\n        /* \"#utility.yul\":11783:11817   */\n      0x546f6b656e56657374696e673a206475726174696f6e206d757374206265203e\n        /* \"#utility.yul\":11779:11780   */\n      0x00\n        /* \"#utility.yul\":11771:11777   */\n      dup3\n        /* \"#utility.yul\":11767:11781   */\n      add\n        /* \"#utility.yul\":11760:11818   */\n      mstore\n        /* \"#utility.yul\":11852:11856   */\n      0x2030000000000000000000000000000000000000000000000000000000000000\n        /* \"#utility.yul\":11847:11849   */\n      0x20\n        /* \"#utility.yul\":11839:11845   */\n      dup3\n        /* \"#utility.yul\":11835:11850   */\n      add\n        /* \"#utility.yul\":11828:11857   */\n      mstore\n        /* \"#utility.yul\":11643:11864   */\n      pop\n      jump\t// out\n        /* \"#utility.yul\":11870:12236   */\n    tag_376:\n        /* \"#utility.yul\":12012:12015   */\n      0x00\n        /* \"#utility.yul\":12033:12100   */\n      tag_532\n        /* \"#utility.yul\":12097:12099   */\n      0x22\n        /* \"#utility.yul\":12092:12095   */\n      dup4\n        /* \"#utility.yul\":12033:12100   */\n      tag_369\n      jump\t// in\n    tag_532:\n        /* \"#utility.yul\":12026:12100   */\n      swap2\n      pop\n        /* \"#utility.yul\":12109:12202   */\n      tag_533\n        /* \"#utility.yul\":12198:12201   */\n      dup3\n        /* \"#utility.yul\":12109:12202   */\n      tag_375\n      jump\t// in\n    tag_533:\n        /* \"#utility.yul\":12227:12229   */\n      0x40\n        /* \"#utility.yul\":12222:12225   */\n      dup3\n        /* \"#utility.yul\":12218:12230   */\n      add\n        /* \"#utility.yul\":12211:12230   */\n      swap1\n      pop\n        /* \"#utility.yul\":11870:12236   */\n      swap2\n      swap1\n      pop\n      jump\t// out\n        /* \"#utility.yul\":12242:12661   */\n    tag_140:\n        /* \"#utility.yul\":12408:12412   */\n      0x00\n        /* \"#utility.yul\":12446:12448   */\n      0x20\n        /* \"#utility.yul\":12435:12444   */\n      dup3\n        /* \"#utility.yul\":12431:12449   */\n      add\n        /* \"#utility.yul\":12423:12449   */\n      swap1\n      pop\n        /* \"#utility.yul\":12495:12504   */\n      dup2\n        /* \"#utility.yul\":12489:12493   */\n      dup2\n        /* \"#utility.yul\":12485:12505   */\n      sub\n        /* \"#utility.yul\":12481:12482   */\n      0x00\n        /* \"#utility.yul\":12470:12479   */\n      dup4\n        /* \"#utility.yul\":12466:12483   */\n      add\n        /* \"#utility.yul\":12459:12506   */\n      mstore\n        /* \"#utility.yul\":12523:12654   */\n      tag_535\n        /* \"#utility.yul\":12649:12653   */\n      dup2\n        /* \"#utility.yul\":12523:12654   */\n      tag_376\n      jump\t// in\n    tag_535:\n        /* \"#utility.yul\":12515:12654   */\n      swap1\n      pop\n        /* \"#utility.yul\":12242:12661   */\n      swap2\n      swap1\n      pop\n      jump\t// out\n        /* \"#utility.yul\":12667:12849   */\n    tag_377:\n        /* \"#utility.yul\":12807:12841   */\n      0x546f6b656e56657374696e673a20616d6f756e74206d757374206265203e2030\n        /* \"#utility.yul\":12803:12804   */\n      0x00\n        /* \"#utility.yul\":12795:12801   */\n      dup3\n        /* \"#utility.yul\":12791:12805   */\n      add\n        /* \"#utility.yul\":12784:12842   */\n      mstore\n        /* \"#utility.yul\":12667:12849   */\n      pop\n      jump\t// out\n        /* \"#utility.yul\":12855:13221   */\n    tag_378:\n        /* \"#utility.yul\":12997:13000   */\n      0x00\n        /* \"#utility.yul\":13018:13085   */\n      tag_538\n        /* \"#utility.yul\":13082:13084   */\n      0x20\n        /* \"#utility.yul\":13077:13080   */\n      dup4\n        /* \"#utility.yul\":13018:13085   */\n      tag_369\n      jump\t// in\n    tag_538:\n        /* \"#utility.yul\":13011:13085   */\n      swap2\n      pop\n        /* \"#utility.yul\":13094:13187   */\n      tag_539\n        /* \"#utility.yul\":13183:13186   */\n      dup3\n        /* \"#utility.yul\":13094:13187   */\n      tag_377\n      jump\t// in\n    tag_539:\n        /* \"#utility.yul\":13212:13214   */\n      0x20\n        /* \"#utility.yul\":13207:13210   */\n      dup3\n        /* \"#utility.yul\":13203:13215   */\n      add\n        /* \"#utility.yul\":13196:13215   */\n      swap1\n      pop\n        /* \"#utility.yul\":12855:13221   */\n      swap2\n      swap1\n      pop\n      jump\t// out\n        /* \"#utility.yul\":13227:13646   */\n    tag_143:\n        /* \"#utility.yul\":13393:13397   */\n      0x00\n        /* \"#utility.yul\":13431:13433   */\n      0x20\n        /* \"#utility.yul\":13420:13429   */\n      dup3\n        /* \"#utility.yul\":13416:13434   */\n      add\n        /* \"#utility.yul\":13408:13434   */\n      swap1\n      pop\n        /* \"#utility.yul\":13480:13489   */\n      dup2\n        /* \"#utility.yul\":13474:13478   */\n      dup2\n        /* \"#utility.yul\":13470:13490   */\n      sub\n        /* \"#utility.yul\":13466:13467   */\n      0x00\n        /* \"#utility.yul\":13455:13464   */\n      dup4\n        /* \"#utility.yul\":13451:13468   */\n      add\n        /* \"#utility.yul\":13444:13491   */\n      mstore\n        /* \"#utility.yul\":13508:13639   */\n      tag_541\n        /* \"#utility.yul\":13634:13638   */\n      dup2\n        /* \"#utility.yul\":13508:13639   */\n      tag_378\n      jump\t// in\n    tag_541:\n        /* \"#utility.yul\":13500:13639   */\n      swap1\n      pop\n        /* \"#utility.yul\":13227:13646   */\n      swap2\n      swap1\n      pop\n      jump\t// out\n        /* \"#utility.yul\":13652:13884   */\n    tag_379:\n        /* \"#utility.yul\":13792:13826   */\n      0x546f6b656e56657374696e673a20736c696365506572696f645365636f6e6473\n        /* \"#utility.yul\":13788:13789   */\n      0x00\n        /* \"#utility.yul\":13780:13786   */\n      dup3\n        /* \"#utility.yul\":13776:13790   */\n      add\n        /* \"#utility.yul\":13769:13827   */\n      mstore\n        /* \"#utility.yul\":13861:13876   */\n      0x206d757374206265203e3d203100000000000000000000000000000000000000\n        /* \"#utility.yul\":13856:13858   */\n      0x20\n        /* \"#utility.yul\":13848:13854   */\n      dup3\n        /* \"#utility.yul\":13844:13859   */\n      add\n        /* \"#utility.yul\":13837:13877   */\n      mstore\n        /* \"#utility.yul\":13652:13884   */\n      pop\n      jump\t// out\n        /* \"#utility.yul\":13890:14256   */\n    tag_380:\n        /* \"#utility.yul\":14032:14035   */\n      0x00\n        /* \"#utility.yul\":14053:14120   */\n      tag_544\n        /* \"#utility.yul\":14117:14119   */\n      0x2d\n        /* \"#utility.yul\":14112:14115   */\n      dup4\n        /* \"#utility.yul\":14053:14120   */\n      tag_369\n      jump\t// in\n    tag_544:\n        /* \"#utility.yul\":14046:14120   */\n      swap2\n      pop\n        /* \"#utility.yul\":14129:14222   */\n      tag_545\n        /* \"#utility.yul\":14218:14221   */\n      dup3\n        /* \"#utility.yul\":14129:14222   */\n      tag_379\n      jump\t// in\n    tag_545:\n        /* \"#utility.yul\":14247:14249   */\n      0x40\n        /* \"#utility.yul\":14242:14245   */\n      dup3\n        /* \"#utility.yul\":14238:14250   */\n      add\n        /* \"#utility.yul\":14231:14250   */\n      swap1\n      pop\n        /* \"#utility.yul\":13890:14256   */\n      swap2\n      swap1\n      pop\n      jump\t// out\n        /* \"#utility.yul\":14262:14681   */\n    tag_146:\n        /* \"#utility.yul\":14428:14432   */\n      0x00\n        /* \"#utility.yul\":14466:14468   */\n      0x20\n        /* \"#utility.yul\":14455:14464   */\n      dup3\n        /* \"#utility.yul\":14451:14469   */\n      add\n        /* \"#utility.yul\":14443:14469   */\n      swap1\n      pop\n        /* \"#utility.yul\":14515:14524   */\n      dup2\n        /* \"#utility.yul\":14509:14513   */\n      dup2\n        /* \"#utility.yul\":14505:14525   */\n      sub\n        /* \"#utility.yul\":14501:14502   */\n      0x00\n        /* \"#utility.yul\":14490:14499   */\n      dup4\n        /* \"#utility.yul\":14486:14503   */\n      add\n        /* \"#utility.yul\":14479:14526   */\n      mstore\n        /* \"#utility.yul\":14543:14674   */\n      tag_547\n        /* \"#utility.yul\":14669:14673   */\n      dup2\n        /* \"#utility.yul\":14543:14674   */\n      tag_380\n      jump\t// in\n    tag_547:\n        /* \"#utility.yul\":14535:14674   */\n      swap1\n      pop\n        /* \"#utility.yul\":14262:14681   */\n      swap2\n      swap1\n      pop\n      jump\t// out\n        /* \"#utility.yul\":14687:14830   */\n    tag_381:\n        /* \"#utility.yul\":14744:14749   */\n      0x00\n        /* \"#utility.yul\":14775:14781   */\n      dup2\n        /* \"#utility.yul\":14769:14782   */\n      mload\n        /* \"#utility.yul\":14760:14782   */\n      swap1\n      pop\n        /* \"#utility.yul\":14791:14824   */\n      tag_549\n        /* \"#utility.yul\":14818:14823   */\n      dup2\n        /* \"#utility.yul\":14791:14824   */\n      tag_362\n      jump\t// in\n    tag_549:\n        /* \"#utility.yul\":14687:14830   */\n      swap3\n      swap2\n      pop\n      pop\n      jump\t// out\n        /* \"#utility.yul\":14836:15187   */\n    tag_151:\n        /* \"#utility.yul\":14906:14912   */\n      0x00\n        /* \"#utility.yul\":14955:14957   */\n      0x20\n        /* \"#utility.yul\":14943:14952   */\n      dup3\n        /* \"#utility.yul\":14934:14941   */\n      dup5\n        /* \"#utility.yul\":14930:14953   */\n      sub\n        /* \"#utility.yul\":14926:14958   */\n      slt\n        /* \"#utility.yul\":14923:15042   */\n      iszero\n      tag_551\n      jumpi\n        /* \"#utility.yul\":14961:15040   */\n      tag_552\n      tag_349\n      jump\t// in\n    tag_552:\n        /* \"#utility.yul\":14923:15042   */\n    tag_551:\n        /* \"#utility.yul\":15081:15082   */\n      0x00\n        /* \"#utility.yul\":15106:15170   */\n      tag_553\n        /* \"#utility.yul\":15162:15169   */\n      dup5\n        /* \"#utility.yul\":15153:15159   */\n      dup3\n        /* \"#utility.yul\":15142:15151   */\n      dup6\n        /* \"#utility.yul\":15138:15160   */\n      add\n        /* \"#utility.yul\":15106:15170   */\n      tag_381\n      jump\t// in\n    tag_553:\n        /* \"#utility.yul\":15096:15170   */\n      swap2\n      pop\n        /* \"#utility.yul\":15052:15180   */\n      pop\n        /* \"#utility.yul\":14836:15187   */\n      swap3\n      swap2\n      pop\n      pop\n      jump\t// out\n        /* \"#utility.yul\":15193:15374   */\n    tag_382:\n        /* \"#utility.yul\":15333:15366   */\n      0x5265656e7472616e637947756172643a207265656e7472616e742063616c6c00\n        /* \"#utility.yul\":15329:15330   */\n      0x00\n        /* \"#utility.yul\":15321:15327   */\n      dup3\n        /* \"#utility.yul\":15317:15331   */\n      add\n        /* \"#utility.yul\":15310:15367   */\n      mstore\n        /* \"#utility.yul\":15193:15374   */\n      pop\n      jump\t// out\n        /* \"#utility.yul\":15380:15746   */\n    tag_383:\n        /* \"#utility.yul\":15522:15525   */\n      0x00\n        /* \"#utility.yul\":15543:15610   */\n      tag_556\n        /* \"#utility.yul\":15607:15609   */\n      0x1f\n        /* \"#utility.yul\":15602:15605   */\n      dup4\n        /* \"#utility.yul\":15543:15610   */\n      tag_369\n      jump\t// in\n    tag_556:\n        /* \"#utility.yul\":15536:15610   */\n      swap2\n      pop\n        /* \"#utility.yul\":15619:15712   */\n      tag_557\n        /* \"#utility.yul\":15708:15711   */\n      dup3\n        /* \"#utility.yul\":15619:15712   */\n      tag_382\n      jump\t// in\n    tag_557:\n        /* \"#utility.yul\":15737:15739   */\n      0x20\n        /* \"#utility.yul\":15732:15735   */\n      dup3\n        /* \"#utility.yul\":15728:15740   */\n      add\n        /* \"#utility.yul\":15721:15740   */\n      swap1\n      pop\n        /* \"#utility.yul\":15380:15746   */\n      swap2\n      swap1\n      pop\n      jump\t// out\n        /* \"#utility.yul\":15752:16171   */\n    tag_161:\n        /* \"#utility.yul\":15918:15922   */\n      0x00\n        /* \"#utility.yul\":15956:15958   */\n      0x20\n        /* \"#utility.yul\":15945:15954   */\n      dup3\n        /* \"#utility.yul\":15941:15959   */\n      add\n        /* \"#utility.yul\":15933:15959   */\n      swap1\n      pop\n        /* \"#utility.yul\":16005:16014   */\n      dup2\n        /* \"#utility.yul\":15999:16003   */\n      dup2\n        /* \"#utility.yul\":15995:16015   */\n      sub\n        /* \"#utility.yul\":15991:15992   */\n      0x00\n        /* \"#utility.yul\":15980:15989   */\n      dup4\n        /* \"#utility.yul\":15976:15993   */\n      add\n        /* \"#utility.yul\":15969:16016   */\n      mstore\n        /* \"#utility.yul\":16033:16164   */\n      tag_559\n        /* \"#utility.yul\":16159:16163   */\n      dup2\n        /* \"#utility.yul\":16033:16164   */\n      tag_383\n      jump\t// in\n    tag_559:\n        /* \"#utility.yul\":16025:16164   */\n      swap1\n      pop\n        /* \"#utility.yul\":15752:16171   */\n      swap2\n      swap1\n      pop\n      jump\t// out\n        /* \"#utility.yul\":16177:16407   */\n    tag_384:\n        /* \"#utility.yul\":16317:16351   */\n      0x546f6b656e56657374696e673a206e6f7420656e6f7567682077697468647261\n        /* \"#utility.yul\":16313:16314   */\n      0x00\n        /* \"#utility.yul\":16305:16311   */\n      dup3\n        /* \"#utility.yul\":16301:16315   */\n      add\n        /* \"#utility.yul\":16294:16352   */\n      mstore\n        /* \"#utility.yul\":16386:16399   */\n      0x7761626c652066756e6473000000000000000000000000000000000000000000\n        /* \"#utility.yul\":16381:16383   */\n      0x20\n        /* \"#utility.yul\":16373:16379   */\n      dup3\n        /* \"#utility.yul\":16369:16384   */\n      add\n        /* \"#utility.yul\":16362:16400   */\n      mstore\n        /* \"#utility.yul\":16177:16407   */\n      pop\n      jump\t// out\n        /* \"#utility.yul\":16413:16779   */\n    tag_385:\n        /* \"#utility.yul\":16555:16558   */\n      0x00\n        /* \"#utility.yul\":16576:16643   */\n      tag_562\n        /* \"#utility.yul\":16640:16642   */\n      0x2b\n        /* \"#utility.yul\":16635:16638   */\n      dup4\n        /* \"#utility.yul\":16576:16643   */\n      tag_369\n      jump\t// in\n    tag_562:\n        /* \"#utility.yul\":16569:16643   */\n      swap2\n      pop\n        /* \"#utility.yul\":16652:16745   */\n      tag_563\n        /* \"#utility.yul\":16741:16744   */\n      dup3\n        /* \"#utility.yul\":16652:16745   */\n      tag_384\n      jump\t// in\n    tag_563:\n        /* \"#utility.yul\":16770:16772   */\n      0x40\n        /* \"#utility.yul\":16765:16768   */\n      dup3\n        /* \"#utility.yul\":16761:16773   */\n      add\n        /* \"#utility.yul\":16754:16773   */\n      swap1\n      pop\n        /* \"#utility.yul\":16413:16779   */\n      swap2\n      swap1\n      pop\n      jump\t// out\n        /* \"#utility.yul\":16785:17204   */\n    tag_173:\n        /* \"#utility.yul\":16951:16955   */\n      0x00\n        /* \"#utility.yul\":16989:16991   */\n      0x20\n        /* \"#utility.yul\":16978:16987   */\n      dup3\n        /* \"#utility.yul\":16974:16992   */\n      add\n        /* \"#utility.yul\":16966:16992   */\n      swap1\n      pop\n        /* \"#utility.yul\":17038:17047   */\n      dup2\n        /* \"#utility.yul\":17032:17036   */\n      dup2\n        /* \"#utility.yul\":17028:17048   */\n      sub\n        /* \"#utility.yul\":17024:17025   */\n      0x00\n        /* \"#utility.yul\":17013:17022   */\n      dup4\n        /* \"#utility.yul\":17009:17026   */\n      add\n        /* \"#utility.yul\":17002:17049   */\n      mstore\n        /* \"#utility.yul\":17066:17197   */\n      tag_565\n        /* \"#utility.yul\":17192:17196   */\n      dup2\n        /* \"#utility.yul\":17066:17197   */\n      tag_385\n      jump\t// in\n    tag_565:\n        /* \"#utility.yul\":17058:17197   */\n      swap1\n      pop\n        /* \"#utility.yul\":16785:17204   */\n      swap2\n      swap1\n      pop\n      jump\t// out\n        /* \"#utility.yul\":17210:17500   */\n    tag_386:\n        /* \"#utility.yul\":17350:17384   */\n      0x546f6b656e56657374696e673a206f6e6c792062656e65666963696172792061\n        /* \"#utility.yul\":17346:17347   */\n      0x00\n        /* \"#utility.yul\":17338:17344   */\n      dup3\n        /* \"#utility.yul\":17334:17348   */\n      add\n        /* \"#utility.yul\":17327:17385   */\n      mstore\n        /* \"#utility.yul\":17419:17453   */\n      0x6e64206f776e65722063616e2072656c656173652076657374656420746f6b65\n        /* \"#utility.yul\":17414:17416   */\n      0x20\n        /* \"#utility.yul\":17406:17412   */\n      dup3\n        /* \"#utility.yul\":17402:17417   */\n      add\n        /* \"#utility.yul\":17395:17454   */\n      mstore\n        /* \"#utility.yul\":17488:17492   */\n      0x6e73000000000000000000000000000000000000000000000000000000000000\n        /* \"#utility.yul\":17483:17485   */\n      0x40\n        /* \"#utility.yul\":17475:17481   */\n      dup3\n        /* \"#utility.yul\":17471:17486   */\n      add\n        /* \"#utility.yul\":17464:17493   */\n      mstore\n        /* \"#utility.yul\":17210:17500   */\n      pop\n      jump\t// out\n        /* \"#utility.yul\":17506:17872   */\n    tag_387:\n        /* \"#utility.yul\":17648:17651   */\n      0x00\n        /* \"#utility.yul\":17669:17736   */\n      tag_568\n        /* \"#utility.yul\":17733:17735   */\n      0x42\n        /* \"#utility.yul\":17728:17731   */\n      dup4\n        /* \"#utility.yul\":17669:17736   */\n      tag_369\n      jump\t// in\n    tag_568:\n        /* \"#utility.yul\":17662:17736   */\n      swap2\n      pop\n        /* \"#utility.yul\":17745:17838   */\n      tag_569\n        /* \"#utility.yul\":17834:17837   */\n      dup3\n        /* \"#utility.yul\":17745:17838   */\n      tag_386\n      jump\t// in\n    tag_569:\n        /* \"#utility.yul\":17863:17865   */\n      0x60\n        /* \"#utility.yul\":17858:17861   */\n      dup3\n        /* \"#utility.yul\":17854:17866   */\n      add\n        /* \"#utility.yul\":17847:17866   */\n      swap1\n      pop\n        /* \"#utility.yul\":17506:17872   */\n      swap2\n      swap1\n      pop\n      jump\t// out\n        /* \"#utility.yul\":17878:18297   */\n    tag_190:\n        /* \"#utility.yul\":18044:18048   */\n      0x00\n        /* \"#utility.yul\":18082:18084   */\n      0x20\n        /* \"#utility.yul\":18071:18080   */\n      dup3\n        /* \"#utility.yul\":18067:18085   */\n      add\n        /* \"#utility.yul\":18059:18085   */\n      swap1\n      pop\n        /* \"#utility.yul\":18131:18140   */\n      dup2\n        /* \"#utility.yul\":18125:18129   */\n      dup2\n        /* \"#utility.yul\":18121:18141   */\n      sub\n        /* \"#utility.yul\":18117:18118   */\n      0x00\n        /* \"#utility.yul\":18106:18115   */\n      dup4\n        /* \"#utility.yul\":18102:18119   */\n      add\n        /* \"#utility.yul\":18095:18142   */\n      mstore\n        /* \"#utility.yul\":18159:18290   */\n      tag_571\n        /* \"#utility.yul\":18285:18289   */\n      dup2\n        /* \"#utility.yul\":18159:18290   */\n      tag_387\n      jump\t// in\n    tag_571:\n        /* \"#utility.yul\":18151:18290   */\n      swap1\n      pop\n        /* \"#utility.yul\":17878:18297   */\n      swap2\n      swap1\n      pop\n      jump\t// out\n        /* \"#utility.yul\":18303:18551   */\n    tag_388:\n        /* \"#utility.yul\":18443:18477   */\n      0x546f6b656e56657374696e673a2063616e6e6f742072656c6561736520746f6b\n        /* \"#utility.yul\":18439:18440   */\n      0x00\n        /* \"#utility.yul\":18431:18437   */\n      dup3\n        /* \"#utility.yul\":18427:18441   */\n      add\n        /* \"#utility.yul\":18420:18478   */\n      mstore\n        /* \"#utility.yul\":18512:18543   */\n      0x656e732c206e6f7420656e6f7567682076657374656420746f6b656e73000000\n        /* \"#utility.yul\":18507:18509   */\n      0x20\n        /* \"#utility.yul\":18499:18505   */\n      dup3\n        /* \"#utility.yul\":18495:18510   */\n      add\n        /* \"#utility.yul\":18488:18544   */\n      mstore\n        /* \"#utility.yul\":18303:18551   */\n      pop\n      jump\t// out\n        /* \"#utility.yul\":18557:18923   */\n    tag_389:\n        /* \"#utility.yul\":18699:18702   */\n      0x00\n        /* \"#utility.yul\":18720:18787   */\n      tag_574\n        /* \"#utility.yul\":18784:18786   */\n      0x3d\n        /* \"#utility.yul\":18779:18782   */\n      dup4\n        /* \"#utility.yul\":18720:18787   */\n      tag_369\n      jump\t// in\n    tag_574:\n        /* \"#utility.yul\":18713:18787   */\n      swap2\n      pop\n        /* \"#utility.yul\":18796:18889   */\n      tag_575\n        /* \"#utility.yul\":18885:18888   */\n      dup3\n        /* \"#utility.yul\":18796:18889   */\n      tag_388\n      jump\t// in\n    tag_575:\n        /* \"#utility.yul\":18914:18916   */\n      0x40\n        /* \"#utility.yul\":18909:18912   */\n      dup3\n        /* \"#utility.yul\":18905:18917   */\n      add\n        /* \"#utility.yul\":18898:18917   */\n      swap1\n      pop\n        /* \"#utility.yul\":18557:18923   */\n      swap2\n      swap1\n      pop\n      jump\t// out\n        /* \"#utility.yul\":18929:19348   */\n    tag_195:\n        /* \"#utility.yul\":19095:19099   */\n      0x00\n        /* \"#utility.yul\":19133:19135   */\n      0x20\n        /* \"#utility.yul\":19122:19131   */\n      dup3\n        /* \"#utility.yul\":19118:19136   */\n      add\n        /* \"#utility.yul\":19110:19136   */\n      swap1\n      pop\n        /* \"#utility.yul\":19182:19191   */\n      dup2\n        /* \"#utility.yul\":19176:19180   */\n      dup2\n        /* \"#utility.yul\":19172:19192   */\n      sub\n        /* \"#utility.yul\":19168:19169   */\n      0x00\n        /* \"#utility.yul\":19157:19166   */\n      dup4\n        /* \"#utility.yul\":19153:19170   */\n      add\n        /* \"#utility.yul\":19146:19193   */\n      mstore\n        /* \"#utility.yul\":19210:19341   */\n      tag_577\n        /* \"#utility.yul\":19336:19340   */\n      dup2\n        /* \"#utility.yul\":19210:19341   */\n      tag_389\n      jump\t// in\n    tag_577:\n        /* \"#utility.yul\":19202:19341   */\n      swap1\n      pop\n        /* \"#utility.yul\":18929:19348   */\n      swap2\n      swap1\n      pop\n      jump\t// out\n        /* \"#utility.yul\":19354:19534   */\n    tag_390:\n        /* \"#utility.yul\":19402:19479   */\n      0x4e487b7100000000000000000000000000000000000000000000000000000000\n        /* \"#utility.yul\":19399:19400   */\n      0x00\n        /* \"#utility.yul\":19392:19480   */\n      mstore\n        /* \"#utility.yul\":19499:19503   */\n      0x11\n        /* \"#utility.yul\":19496:19497   */\n      0x04\n        /* \"#utility.yul\":19489:19504   */\n      mstore\n        /* \"#utility.yul\":19523:19527   */\n      0x24\n        /* \"#utility.yul\":19520:19521   */\n      0x00\n        /* \"#utility.yul\":19513:19528   */\n      revert\n        /* \"#utility.yul\":19540:19731   */\n    tag_213:\n        /* \"#utility.yul\":19580:19584   */\n      0x00\n        /* \"#utility.yul\":19600:19620   */\n      tag_580\n        /* \"#utility.yul\":19618:19619   */\n      dup3\n        /* \"#utility.yul\":19600:19620   */\n      tag_346\n      jump\t// in\n    tag_580:\n        /* \"#utility.yul\":19595:19620   */\n      swap2\n      pop\n        /* \"#utility.yul\":19634:19654   */\n      tag_581\n        /* \"#utility.yul\":19652:19653   */\n      dup4\n        /* \"#utility.yul\":19634:19654   */\n      tag_346\n      jump\t// in\n    tag_581:\n        /* \"#utility.yul\":19629:19654   */\n      swap3\n      pop\n        /* \"#utility.yul\":19673:19674   */\n      dup3\n        /* \"#utility.yul\":19670:19671   */\n      dup3\n        /* \"#utility.yul\":19667:19675   */\n      lt\n        /* \"#utility.yul\":19664:19698   */\n      iszero\n      tag_582\n      jumpi\n        /* \"#utility.yul\":19678:19696   */\n      tag_583\n      tag_390\n      jump\t// in\n    tag_583:\n        /* \"#utility.yul\":19664:19698   */\n    tag_582:\n        /* \"#utility.yul\":19723:19724   */\n      dup3\n        /* \"#utility.yul\":19720:19721   */\n      dup3\n        /* \"#utility.yul\":19716:19725   */\n      sub\n        /* \"#utility.yul\":19708:19725   */\n      swap1\n      pop\n        /* \"#utility.yul\":19540:19731   */\n      swap3\n      swap2\n      pop\n      pop\n      jump\t// out\n        /* \"#utility.yul\":19737:19831   */\n    tag_391:\n        /* \"#utility.yul\":19770:19778   */\n      0x00\n        /* \"#utility.yul\":19818:19823   */\n      dup2\n        /* \"#utility.yul\":19814:19816   */\n      0x60\n        /* \"#utility.yul\":19810:19824   */\n      shl\n        /* \"#utility.yul\":19789:19824   */\n      swap1\n      pop\n        /* \"#utility.yul\":19737:19831   */\n      swap2\n      swap1\n      pop\n      jump\t// out\n        /* \"#utility.yul\":19837:19931   */\n    tag_392:\n        /* \"#utility.yul\":19876:19883   */\n      0x00\n        /* \"#utility.yul\":19905:19925   */\n      tag_586\n        /* \"#utility.yul\":19919:19924   */\n      dup3\n        /* \"#utility.yul\":19905:19925   */\n      tag_391\n      jump\t// in\n    tag_586:\n        /* \"#utility.yul\":19894:19925   */\n      swap1\n      pop\n        /* \"#utility.yul\":19837:19931   */\n      swap2\n      swap1\n      pop\n      jump\t// out\n        /* \"#utility.yul\":19937:20037   */\n    tag_393:\n        /* \"#utility.yul\":19976:19983   */\n      0x00\n        /* \"#utility.yul\":20005:20031   */\n      tag_588\n        /* \"#utility.yul\":20025:20030   */\n      dup3\n        /* \"#utility.yul\":20005:20031   */\n      tag_392\n      jump\t// in\n    tag_588:\n        /* \"#utility.yul\":19994:20031   */\n      swap1\n      pop\n        /* \"#utility.yul\":19937:20037   */\n      swap2\n      swap1\n      pop\n      jump\t// out\n        /* \"#utility.yul\":20043:20200   */\n    tag_394:\n        /* \"#utility.yul\":20148:20193   */\n      tag_590\n        /* \"#utility.yul\":20168:20192   */\n      tag_591\n        /* \"#utility.yul\":20186:20191   */\n      dup3\n        /* \"#utility.yul\":20168:20192   */\n      tag_352\n      jump\t// in\n    tag_591:\n        /* \"#utility.yul\":20148:20193   */\n      tag_393\n      jump\t// in\n    tag_590:\n        /* \"#utility.yul\":20143:20146   */\n      dup3\n        /* \"#utility.yul\":20136:20194   */\n      mstore\n        /* \"#utility.yul\":20043:20200   */\n      pop\n      pop\n      jump\t// out\n        /* \"#utility.yul\":20206:20285   */\n    tag_395:\n        /* \"#utility.yul\":20245:20252   */\n      0x00\n        /* \"#utility.yul\":20274:20279   */\n      dup2\n        /* \"#utility.yul\":20263:20279   */\n      swap1\n      pop\n        /* \"#utility.yul\":20206:20285   */\n      swap2\n      swap1\n      pop\n      jump\t// out\n        /* \"#utility.yul\":20291:20448   */\n    tag_396:\n        /* \"#utility.yul\":20396:20441   */\n      tag_594\n        /* \"#utility.yul\":20416:20440   */\n      tag_595\n        /* \"#utility.yul\":20434:20439   */\n      dup3\n        /* \"#utility.yul\":20416:20440   */\n      tag_346\n      jump\t// in\n    tag_595:\n        /* \"#utility.yul\":20396:20441   */\n      tag_395\n      jump\t// in\n    tag_594:\n        /* \"#utility.yul\":20391:20394   */\n      dup3\n        /* \"#utility.yul\":20384:20442   */\n      mstore\n        /* \"#utility.yul\":20291:20448   */\n      pop\n      pop\n      jump\t// out\n        /* \"#utility.yul\":20454:20851   */\n    tag_216:\n        /* \"#utility.yul\":20594:20597   */\n      0x00\n        /* \"#utility.yul\":20609:20684   */\n      tag_597\n        /* \"#utility.yul\":20680:20683   */\n      dup3\n        /* \"#utility.yul\":20671:20677   */\n      dup6\n        /* \"#utility.yul\":20609:20684   */\n      tag_394\n      jump\t// in\n    tag_597:\n        /* \"#utility.yul\":20709:20711   */\n      0x14\n        /* \"#utility.yul\":20704:20707   */\n      dup3\n        /* \"#utility.yul\":20700:20712   */\n      add\n        /* \"#utility.yul\":20693:20712   */\n      swap2\n      pop\n        /* \"#utility.yul\":20722:20797   */\n      tag_598\n        /* \"#utility.yul\":20793:20796   */\n      dup3\n        /* \"#utility.yul\":20784:20790   */\n      dup5\n        /* \"#utility.yul\":20722:20797   */\n      tag_396\n      jump\t// in\n    tag_598:\n        /* \"#utility.yul\":20822:20824   */\n      0x20\n        /* \"#utility.yul\":20817:20820   */\n      dup3\n        /* \"#utility.yul\":20813:20825   */\n      add\n        /* \"#utility.yul\":20806:20825   */\n      swap2\n      pop\n        /* \"#utility.yul\":20842:20845   */\n      dup2\n        /* \"#utility.yul\":20835:20845   */\n      swap1\n      pop\n        /* \"#utility.yul\":20454:20851   */\n      swap4\n      swap3\n      pop\n      pop\n      pop\n      jump\t// out\n        /* \"#utility.yul\":20857:21082   */\n    tag_397:\n        /* \"#utility.yul\":20997:21031   */\n      0x546f6b656e56657374696e673a2076657374696e67206973206e6f7420726576\n        /* \"#utility.yul\":20993:20994   */\n      0x00\n        /* \"#utility.yul\":20985:20991   */\n      dup3\n        /* \"#utility.yul\":20981:20995   */\n      add\n        /* \"#utility.yul\":20974:21032   */\n      mstore\n        /* \"#utility.yul\":21066:21074   */\n      0x6f6361626c650000000000000000000000000000000000000000000000000000\n        /* \"#utility.yul\":21061:21063   */\n      0x20\n        /* \"#utility.yul\":21053:21059   */\n      dup3\n        /* \"#utility.yul\":21049:21064   */\n      add\n        /* \"#utility.yul\":21042:21075   */\n      mstore\n        /* \"#utility.yul\":20857:21082   */\n      pop\n      jump\t// out\n        /* \"#utility.yul\":21088:21454   */\n    tag_398:\n        /* \"#utility.yul\":21230:21233   */\n      0x00\n        /* \"#utility.yul\":21251:21318   */\n      tag_601\n        /* \"#utility.yul\":21315:21317   */\n      0x26\n        /* \"#utility.yul\":21310:21313   */\n      dup4\n        /* \"#utility.yul\":21251:21318   */\n      tag_369\n      jump\t// in\n    tag_601:\n        /* \"#utility.yul\":21244:21318   */\n      swap2\n      pop\n        /* \"#utility.yul\":21327:21420   */\n      tag_602\n        /* \"#utility.yul\":21416:21419   */\n      dup3\n        /* \"#utility.yul\":21327:21420   */\n      tag_397\n      jump\t// in\n    tag_602:\n        /* \"#utility.yul\":21445:21447   */\n      0x40\n        /* \"#utility.yul\":21440:21443   */\n      dup3\n        /* \"#utility.yul\":21436:21448   */\n      add\n        /* \"#utility.yul\":21429:21448   */\n      swap1\n      pop\n        /* \"#utility.yul\":21088:21454   */\n      swap2\n      swap1\n      pop\n      jump\t// out\n        /* \"#utility.yul\":21460:21879   */\n    tag_237:\n        /* \"#utility.yul\":21626:21630   */\n      0x00\n        /* \"#utility.yul\":21664:21666   */\n      0x20\n        /* \"#utility.yul\":21653:21662   */\n      dup3\n        /* \"#utility.yul\":21649:21667   */\n      add\n        /* \"#utility.yul\":21641:21667   */\n      swap1\n      pop\n        /* \"#utility.yul\":21713:21722   */\n      dup2\n        /* \"#utility.yul\":21707:21711   */\n      dup2\n        /* \"#utility.yul\":21703:21723   */\n      sub\n        /* \"#utility.yul\":21699:21700   */\n      0x00\n        /* \"#utility.yul\":21688:21697   */\n      dup4\n        /* \"#utility.yul\":21684:21701   */\n      add\n        /* \"#utility.yul\":21677:21724   */\n      mstore\n        /* \"#utility.yul\":21741:21872   */\n      tag_604\n        /* \"#utility.yul\":21867:21871   */\n      dup2\n        /* \"#utility.yul\":21741:21872   */\n      tag_398\n      jump\t// in\n    tag_604:\n        /* \"#utility.yul\":21733:21872   */\n      swap1\n      pop\n        /* \"#utility.yul\":21460:21879   */\n      swap2\n      swap1\n      pop\n      jump\t// out\n        /* \"#utility.yul\":21885:22110   */\n    tag_399:\n        /* \"#utility.yul\":22025:22059   */\n      0x4f776e61626c653a206e6577206f776e657220697320746865207a65726f2061\n        /* \"#utility.yul\":22021:22022   */\n      0x00\n        /* \"#utility.yul\":22013:22019   */\n      dup3\n        /* \"#utility.yul\":22009:22023   */\n      add\n        /* \"#utility.yul\":22002:22060   */\n      mstore\n        /* \"#utility.yul\":22094:22102   */\n      0x6464726573730000000000000000000000000000000000000000000000000000\n        /* \"#utility.yul\":22089:22091   */\n      0x20\n        /* \"#utility.yul\":22081:22087   */\n      dup3\n        /* \"#utility.yul\":22077:22092   */\n      add\n        /* \"#utility.yul\":22070:22103   */\n      mstore\n        /* \"#utility.yul\":21885:22110   */\n      pop\n      jump\t// out\n        /* \"#utility.yul\":22116:22482   */\n    tag_400:\n        /* \"#utility.yul\":22258:22261   */\n      0x00\n        /* \"#utility.yul\":22279:22346   */\n      tag_607\n        /* \"#utility.yul\":22343:22345   */\n      0x26\n        /* \"#utility.yul\":22338:22341   */\n      dup4\n        /* \"#utility.yul\":22279:22346   */\n      tag_369\n      jump\t// in\n    tag_607:\n        /* \"#utility.yul\":22272:22346   */\n      swap2\n      pop\n        /* \"#utility.yul\":22355:22448   */\n      tag_608\n        /* \"#utility.yul\":22444:22447   */\n      dup3\n        /* \"#utility.yul\":22355:22448   */\n      tag_399\n      jump\t// in\n    tag_608:\n        /* \"#utility.yul\":22473:22475   */\n      0x40\n        /* \"#utility.yul\":22468:22471   */\n      dup3\n        /* \"#utility.yul\":22464:22476   */\n      add\n        /* \"#utility.yul\":22457:22476   */\n      swap1\n      pop\n        /* \"#utility.yul\":22116:22482   */\n      swap2\n      swap1\n      pop\n      jump\t// out\n        /* \"#utility.yul\":22488:22907   */\n    tag_256:\n        /* \"#utility.yul\":22654:22658   */\n      0x00\n        /* \"#utility.yul\":22692:22694   */\n      0x20\n        /* \"#utility.yul\":22681:22690   */\n      dup3\n        /* \"#utility.yul\":22677:22695   */\n      add\n        /* \"#utility.yul\":22669:22695   */\n      swap1\n      pop\n        /* \"#utility.yul\":22741:22750   */\n      dup2\n        /* \"#utility.yul\":22735:22739   */\n      dup2\n        /* \"#utility.yul\":22731:22751   */\n      sub\n        /* \"#utility.yul\":22727:22728   */\n      0x00\n        /* \"#utility.yul\":22716:22725   */\n      dup4\n        /* \"#utility.yul\":22712:22729   */\n      add\n        /* \"#utility.yul\":22705:22752   */\n      mstore\n        /* \"#utility.yul\":22769:22900   */\n      tag_610\n        /* \"#utility.yul\":22895:22899   */\n      dup2\n        /* \"#utility.yul\":22769:22900   */\n      tag_400\n      jump\t// in\n    tag_610:\n        /* \"#utility.yul\":22761:22900   */\n      swap1\n      pop\n        /* \"#utility.yul\":22488:22907   */\n      swap2\n      swap1\n      pop\n      jump\t// out\n        /* \"#utility.yul\":22913:23133   */\n    tag_401:\n        /* \"#utility.yul\":23053:23087   */\n      0x546f6b656e56657374696e673a20496e646578206f7574206f6620626f756e64\n        /* \"#utility.yul\":23049:23050   */\n      0x00\n        /* \"#utility.yul\":23041:23047   */\n      dup3\n        /* \"#utility.yul\":23037:23051   */\n      add\n        /* \"#utility.yul\":23030:23088   */\n      mstore\n        /* \"#utility.yul\":23122:23125   */\n      0x7300000000000000000000000000000000000000000000000000000000000000\n        /* \"#utility.yul\":23117:23119   */\n      0x20\n        /* \"#utility.yul\":23109:23115   */\n      dup3\n        /* \"#utility.yul\":23105:23120   */\n      add\n        /* \"#utility.yul\":23098:23126   */\n      mstore\n        /* \"#utility.yul\":22913:23133   */\n      pop\n      jump\t// out\n        /* \"#utility.yul\":23139:23505   */\n    tag_402:\n        /* \"#utility.yul\":23281:23284   */\n      0x00\n        /* \"#utility.yul\":23302:23369   */\n      tag_613\n        /* \"#utility.yul\":23366:23368   */\n      0x21\n        /* \"#utility.yul\":23361:23364   */\n      dup4\n        /* \"#utility.yul\":23302:23369   */\n      tag_369\n      jump\t// in\n    tag_613:\n        /* \"#utility.yul\":23295:23369   */\n      swap2\n      pop\n        /* \"#utility.yul\":23378:23471   */\n      tag_614\n        /* \"#utility.yul\":23467:23470   */\n      dup3\n        /* \"#utility.yul\":23378:23471   */\n      tag_401\n      jump\t// in\n    tag_614:\n        /* \"#utility.yul\":23496:23498   */\n      0x40\n        /* \"#utility.yul\":23491:23494   */\n      dup3\n        /* \"#utility.yul\":23487:23499   */\n      add\n        /* \"#utility.yul\":23480:23499   */\n      swap1\n      pop\n        /* \"#utility.yul\":23139:23505   */\n      swap2\n      swap1\n      pop\n      jump\t// out\n        /* \"#utility.yul\":23511:23930   */\n    tag_268:\n        /* \"#utility.yul\":23677:23681   */\n      0x00\n        /* \"#utility.yul\":23715:23717   */\n      0x20\n        /* \"#utility.yul\":23704:23713   */\n      dup3\n        /* \"#utility.yul\":23700:23718   */\n      add\n        /* \"#utility.yul\":23692:23718   */\n      swap1\n      pop\n        /* \"#utility.yul\":23764:23773   */\n      dup2\n        /* \"#utility.yul\":23758:23762   */\n      dup2\n        /* \"#utility.yul\":23754:23774   */\n      sub\n        /* \"#utility.yul\":23750:23751   */\n      0x00\n        /* \"#utility.yul\":23739:23748   */\n      dup4\n        /* \"#utility.yul\":23735:23752   */\n      add\n        /* \"#utility.yul\":23728:23775   */\n      mstore\n        /* \"#utility.yul\":23792:23923   */\n      tag_616\n        /* \"#utility.yul\":23918:23922   */\n      dup2\n        /* \"#utility.yul\":23792:23923   */\n      tag_402\n      jump\t// in\n    tag_616:\n        /* \"#utility.yul\":23784:23923   */\n      swap1\n      pop\n        /* \"#utility.yul\":23511:23930   */\n      swap2\n      swap1\n      pop\n      jump\t// out\n        /* \"#utility.yul\":23936:24116   */\n    tag_271:\n        /* \"#utility.yul\":23984:24061   */\n      0x4e487b7100000000000000000000000000000000000000000000000000000000\n        /* \"#utility.yul\":23981:23982   */\n      0x00\n        /* \"#utility.yul\":23974:24062   */\n      mstore\n        /* \"#utility.yul\":24081:24085   */\n      0x32\n        /* \"#utility.yul\":24078:24079   */\n      0x04\n        /* \"#utility.yul\":24071:24086   */\n      mstore\n        /* \"#utility.yul\":24105:24109   */\n      0x24\n        /* \"#utility.yul\":24102:24103   */\n      0x00\n        /* \"#utility.yul\":24095:24110   */\n      revert\n        /* \"#utility.yul\":24122:24427   */\n    tag_276:\n        /* \"#utility.yul\":24162:24165   */\n      0x00\n        /* \"#utility.yul\":24181:24201   */\n      tag_619\n        /* \"#utility.yul\":24199:24200   */\n      dup3\n        /* \"#utility.yul\":24181:24201   */\n      tag_346\n      jump\t// in\n    tag_619:\n        /* \"#utility.yul\":24176:24201   */\n      swap2\n      pop\n        /* \"#utility.yul\":24215:24235   */\n      tag_620\n        /* \"#utility.yul\":24233:24234   */\n      dup4\n        /* \"#utility.yul\":24215:24235   */\n      tag_346\n      jump\t// in\n    tag_620:\n        /* \"#utility.yul\":24210:24235   */\n      swap3\n      pop\n        /* \"#utility.yul\":24369:24370   */\n      dup3\n        /* \"#utility.yul\":24301:24367   */\n      0xffffffffffffffffffffffffffffffffffffffffffffffffffffffffffffffff\n        /* \"#utility.yul\":24297:24371   */\n      sub\n        /* \"#utility.yul\":24294:24295   */\n      dup3\n        /* \"#utility.yul\":24291:24372   */\n      gt\n        /* \"#utility.yul\":24288:24395   */\n      iszero\n      tag_621\n      jumpi\n        /* \"#utility.yul\":24375:24393   */\n      tag_622\n      tag_390\n      jump\t// in\n    tag_622:\n        /* \"#utility.yul\":24288:24395   */\n    tag_621:\n        /* \"#utility.yul\":24419:24420   */\n      dup3\n        /* \"#utility.yul\":24416:24417   */\n      dup3\n        /* \"#utility.yul\":24412:24421   */\n      add\n        /* \"#utility.yul\":24405:24421   */\n      swap1\n      pop\n        /* \"#utility.yul\":24122:24427   */\n      swap3\n      swap2\n      pop\n      pop\n      jump\t// out\n        /* \"#utility.yul\":24433:24765   */\n    tag_280:\n        /* \"#utility.yul\":24554:24558   */\n      0x00\n        /* \"#utility.yul\":24592:24594   */\n      0x40\n        /* \"#utility.yul\":24581:24590   */\n      dup3\n        /* \"#utility.yul\":24577:24595   */\n      add\n        /* \"#utility.yul\":24569:24595   */\n      swap1\n      pop\n        /* \"#utility.yul\":24605:24676   */\n      tag_624\n        /* \"#utility.yul\":24673:24674   */\n      0x00\n        /* \"#utility.yul\":24662:24671   */\n      dup4\n        /* \"#utility.yul\":24658:24675   */\n      add\n        /* \"#utility.yul\":24649:24655   */\n      dup6\n        /* \"#utility.yul\":24605:24676   */\n      tag_360\n      jump\t// in\n    tag_624:\n        /* \"#utility.yul\":24686:24758   */\n      tag_625\n        /* \"#utility.yul\":24754:24756   */\n      0x20\n        /* \"#utility.yul\":24743:24752   */\n      dup4\n        /* \"#utility.yul\":24739:24757   */\n      add\n        /* \"#utility.yul\":24730:24736   */\n      dup5\n        /* \"#utility.yul\":24686:24758   */\n      tag_347\n      jump\t// in\n    tag_625:\n        /* \"#utility.yul\":24433:24765   */\n      swap4\n      swap3\n      pop\n      pop\n      pop\n      jump\t// out\n        /* \"#utility.yul\":24771:24908   */\n    tag_403:\n        /* \"#utility.yul\":24825:24830   */\n      0x00\n        /* \"#utility.yul\":24856:24862   */\n      dup2\n        /* \"#utility.yul\":24850:24863   */\n      mload\n        /* \"#utility.yul\":24841:24863   */\n      swap1\n      pop\n        /* \"#utility.yul\":24872:24902   */\n      tag_627\n        /* \"#utility.yul\":24896:24901   */\n      dup2\n        /* \"#utility.yul\":24872:24902   */\n      tag_358\n      jump\t// in\n    tag_627:\n        /* \"#utility.yul\":24771:24908   */\n      swap3\n      swap2\n      pop\n      pop\n      jump\t// out\n        /* \"#utility.yul\":24914:25259   */\n    tag_308:\n        /* \"#utility.yul\":24981:24987   */\n      0x00\n        /* \"#utility.yul\":25030:25032   */\n      0x20\n        /* \"#utility.yul\":25018:25027   */\n      dup3\n        /* \"#utility.yul\":25009:25016   */\n      dup5\n        /* \"#utility.yul\":25005:25028   */\n      sub\n        /* \"#utility.yul\":25001:25033   */\n      slt\n        /* \"#utility.yul\":24998:25117   */\n      iszero\n      tag_629\n      jumpi\n        /* \"#utility.yul\":25036:25115   */\n      tag_630\n      tag_349\n      jump\t// in\n    tag_630:\n        /* \"#utility.yul\":24998:25117   */\n    tag_629:\n        /* \"#utility.yul\":25156:25157   */\n      0x00\n        /* \"#utility.yul\":25181:25242   */\n      tag_631\n        /* \"#utility.yul\":25234:25241   */\n      dup5\n        /* \"#utility.yul\":25225:25231   */\n      dup3\n        /* \"#utility.yul\":25214:25223   */\n      dup6\n        /* \"#utility.yul\":25210:25232   */\n      add\n        /* \"#utility.yul\":25181:25242   */\n      tag_403\n      jump\t// in\n    tag_631:\n        /* \"#utility.yul\":25171:25242   */\n      swap2\n      pop\n        /* \"#utility.yul\":25127:25252   */\n      pop\n        /* \"#utility.yul\":24914:25259   */\n      swap3\n      swap2\n      pop\n      pop\n      jump\t// out\n        /* \"#utility.yul\":25265:25494   */\n    tag_404:\n        /* \"#utility.yul\":25405:25439   */\n      0x5361666545524332303a204552433230206f7065726174696f6e20646964206e\n        /* \"#utility.yul\":25401:25402   */\n      0x00\n        /* \"#utility.yul\":25393:25399   */\n      dup3\n        /* \"#utility.yul\":25389:25403   */\n      add\n        /* \"#utility.yul\":25382:25440   */\n      mstore\n        /* \"#utility.yul\":25474:25486   */\n      0x6f74207375636365656400000000000000000000000000000000000000000000\n        /* \"#utility.yul\":25469:25471   */\n      0x20\n        /* \"#utility.yul\":25461:25467   */\n      dup3\n        /* \"#utility.yul\":25457:25472   */\n      add\n        /* \"#utility.yul\":25450:25487   */\n      mstore\n        /* \"#utility.yul\":25265:25494   */\n      pop\n      jump\t// out\n        /* \"#utility.yul\":25500:25866   */\n    tag_405:\n        /* \"#utility.yul\":25642:25645   */\n      0x00\n        /* \"#utility.yul\":25663:25730   */\n      tag_634\n        /* \"#utility.yul\":25727:25729   */\n      0x2a\n        /* \"#utility.yul\":25722:25725   */\n      dup4\n        /* \"#utility.yul\":25663:25730   */\n      tag_369\n      jump\t// in\n    tag_634:\n        /* \"#utility.yul\":25656:25730   */\n      swap2\n      pop\n        /* \"#utility.yul\":25739:25832   */\n      tag_635\n        /* \"#utility.yul\":25828:25831   */\n      dup3\n        /* \"#utility.yul\":25739:25832   */\n      tag_404\n      jump\t// in\n    tag_635:\n        /* \"#utility.yul\":25857:25859   */\n      0x40\n        /* \"#utility.yul\":25852:25855   */\n      dup3\n        /* \"#utility.yul\":25848:25860   */\n      add\n        /* \"#utility.yul\":25841:25860   */\n      swap1\n      pop\n        /* \"#utility.yul\":25500:25866   */\n      swap2\n      swap1\n      pop\n      jump\t// out\n        /* \"#utility.yul\":25872:26291   */\n    tag_311:\n        /* \"#utility.yul\":26038:26042   */\n      0x00\n        /* \"#utility.yul\":26076:26078   */\n      0x20\n        /* \"#utility.yul\":26065:26074   */\n      dup3\n        /* \"#utility.yul\":26061:26079   */\n      add\n        /* \"#utility.yul\":26053:26079   */\n      swap1\n      pop\n        /* \"#utility.yul\":26125:26134   */\n      dup2\n        /* \"#utility.yul\":26119:26123   */\n      dup2\n        /* \"#utility.yul\":26115:26135   */\n      sub\n        /* \"#utility.yul\":26111:26112   */\n      0x00\n        /* \"#utility.yul\":26100:26109   */\n      dup4\n        /* \"#utility.yul\":26096:26113   */\n      add\n        /* \"#utility.yul\":26089:26136   */\n      mstore\n        /* \"#utility.yul\":26153:26284   */\n      tag_637\n        /* \"#utility.yul\":26279:26283   */\n      dup2\n        /* \"#utility.yul\":26153:26284   */\n      tag_405\n      jump\t// in\n    tag_637:\n        /* \"#utility.yul\":26145:26284   */\n      swap1\n      pop\n        /* \"#utility.yul\":25872:26291   */\n      swap2\n      swap1\n      pop\n      jump\t// out\n        /* \"#utility.yul\":26297:26477   */\n    tag_406:\n        /* \"#utility.yul\":26345:26422   */\n      0x4e487b7100000000000000000000000000000000000000000000000000000000\n        /* \"#utility.yul\":26342:26343   */\n      0x00\n        /* \"#utility.yul\":26335:26423   */\n      mstore\n        /* \"#utility.yul\":26442:26446   */\n      0x12\n        /* \"#utility.yul\":26439:26440   */\n      0x04\n        /* \"#utility.yul\":26432:26447   */\n      mstore\n        /* \"#utility.yul\":26466:26470   */\n      0x24\n        /* \"#utility.yul\":26463:26464   */\n      0x00\n        /* \"#utility.yul\":26456:26471   */\n      revert\n        /* \"#utility.yul\":26483:26668   */\n    tag_315:\n        /* \"#utility.yul\":26523:26524   */\n      0x00\n        /* \"#utility.yul\":26540:26560   */\n      tag_640\n        /* \"#utility.yul\":26558:26559   */\n      dup3\n        /* \"#utility.yul\":26540:26560   */\n      tag_346\n      jump\t// in\n    tag_640:\n        /* \"#utility.yul\":26535:26560   */\n      swap2\n      pop\n        /* \"#utility.yul\":26574:26594   */\n      tag_641\n        /* \"#utility.yul\":26592:26593   */\n      dup4\n        /* \"#utility.yul\":26574:26594   */\n      tag_346\n      jump\t// in\n    tag_641:\n        /* \"#utility.yul\":26569:26594   */\n      swap3\n      pop\n        /* \"#utility.yul\":26613:26614   */\n      dup3\n        /* \"#utility.yul\":26603:26638   */\n      tag_642\n      jumpi\n        /* \"#utility.yul\":26618:26636   */\n      tag_643\n      tag_406\n      jump\t// in\n    tag_643:\n        /* \"#utility.yul\":26603:26638   */\n    tag_642:\n        /* \"#utility.yul\":26660:26661   */\n      dup3\n        /* \"#utility.yul\":26657:26658   */\n      dup3\n        /* \"#utility.yul\":26653:26662   */\n      div\n        /* \"#utility.yul\":26648:26662   */\n      swap1\n      pop\n        /* \"#utility.yul\":26483:26668   */\n      swap3\n      swap2\n      pop\n      pop\n      jump\t// out\n        /* \"#utility.yul\":26674:27022   */\n    tag_318:\n        /* \"#utility.yul\":26714:26721   */\n      0x00\n        /* \"#utility.yul\":26737:26757   */\n      tag_645\n        /* \"#utility.yul\":26755:26756   */\n      dup3\n        /* \"#utility.yul\":26737:26757   */\n      tag_346\n      jump\t// in\n    tag_645:\n        /* \"#utility.yul\":26732:26757   */\n      swap2\n      pop\n        /* \"#utility.yul\":26771:26791   */\n      tag_646\n        /* \"#utility.yul\":26789:26790   */\n      dup4\n        /* \"#utility.yul\":26771:26791   */\n      tag_346\n      jump\t// in\n    tag_646:\n        /* \"#utility.yul\":26766:26791   */\n      swap3\n      pop\n        /* \"#utility.yul\":26959:26960   */\n      dup2\n        /* \"#utility.yul\":26891:26957   */\n      0xffffffffffffffffffffffffffffffffffffffffffffffffffffffffffffffff\n        /* \"#utility.yul\":26887:26961   */\n      div\n        /* \"#utility.yul\":26884:26885   */\n      dup4\n        /* \"#utility.yul\":26881:26962   */\n      gt\n        /* \"#utility.yul\":26876:26877   */\n      dup3\n        /* \"#utility.yul\":26869:26878   */\n      iszero\n        /* \"#utility.yul\":26862:26879   */\n      iszero\n        /* \"#utility.yul\":26858:26963   */\n      and\n        /* \"#utility.yul\":26855:26986   */\n      iszero\n      tag_647\n      jumpi\n        /* \"#utility.yul\":26966:26984   */\n      tag_648\n      tag_390\n      jump\t// in\n    tag_648:\n        /* \"#utility.yul\":26855:26986   */\n    tag_647:\n        /* \"#utility.yul\":27014:27015   */\n      dup3\n        /* \"#utility.yul\":27011:27012   */\n      dup3\n        /* \"#utility.yul\":27007:27016   */\n      mul\n        /* \"#utility.yul\":26996:27016   */\n      swap1\n      pop\n        /* \"#utility.yul\":26674:27022   */\n      swap3\n      swap2\n      pop\n      pop\n      jump\t// out\n        /* \"#utility.yul\":27028:27253   */\n    tag_407:\n        /* \"#utility.yul\":27168:27202   */\n      0x416464726573733a20696e73756666696369656e742062616c616e636520666f\n        /* \"#utility.yul\":27164:27165   */\n      0x00\n        /* \"#utility.yul\":27156:27162   */\n      dup3\n        /* \"#utility.yul\":27152:27166   */\n      add\n        /* \"#utility.yul\":27145:27203   */\n      mstore\n        /* \"#utility.yul\":27237:27245   */\n      0x722063616c6c0000000000000000000000000000000000000000000000000000\n        /* \"#utility.yul\":27232:27234   */\n      0x20\n        /* \"#utility.yul\":27224:27230   */\n      dup3\n        /* \"#utility.yul\":27220:27235   */\n      add\n        /* \"#utility.yul\":27213:27246   */\n      mstore\n        /* \"#utility.yul\":27028:27253   */\n      pop\n      jump\t// out\n        /* \"#utility.yul\":27259:27625   */\n    tag_408:\n        /* \"#utility.yul\":27401:27404   */\n      0x00\n        /* \"#utility.yul\":27422:27489   */\n      tag_651\n        /* \"#utility.yul\":27486:27488   */\n      0x26\n        /* \"#utility.yul\":27481:27484   */\n      dup4\n        /* \"#utility.yul\":27422:27489   */\n      tag_369\n      jump\t// in\n    tag_651:\n        /* \"#utility.yul\":27415:27489   */\n      swap2\n      pop\n        /* \"#utility.yul\":27498:27591   */\n      tag_652\n        /* \"#utility.yul\":27587:27590   */\n      dup3\n        /* \"#utility.yul\":27498:27591   */\n      tag_407\n      jump\t// in\n    tag_652:\n        /* \"#utility.yul\":27616:27618   */\n      0x40\n        /* \"#utility.yul\":27611:27614   */\n      dup3\n        /* \"#utility.yul\":27607:27619   */\n      add\n        /* \"#utility.yul\":27600:27619   */\n      swap1\n      pop\n        /* \"#utility.yul\":27259:27625   */\n      swap2\n      swap1\n      pop\n      jump\t// out\n        /* \"#utility.yul\":27631:28050   */\n    tag_325:\n        /* \"#utility.yul\":27797:27801   */\n      0x00\n        /* \"#utility.yul\":27835:27837   */\n      0x20\n        /* \"#utility.yul\":27824:27833   */\n      dup3\n        /* \"#utility.yul\":27820:27838   */\n      add\n        /* \"#utility.yul\":27812:27838   */\n      swap1\n      pop\n        /* \"#utility.yul\":27884:27893   */\n      dup2\n        /* \"#utility.yul\":27878:27882   */\n      dup2\n        /* \"#utility.yul\":27874:27894   */\n      sub\n        /* \"#utility.yul\":27870:27871   */\n      0x00\n        /* \"#utility.yul\":27859:27868   */\n      dup4\n        /* \"#utility.yul\":27855:27872   */\n      add\n        /* \"#utility.yul\":27848:27895   */\n      mstore\n        /* \"#utility.yul\":27912:28043   */\n      tag_654\n        /* \"#utility.yul\":28038:28042   */\n      dup2\n        /* \"#utility.yul\":27912:28043   */\n      tag_408\n      jump\t// in\n    tag_654:\n        /* \"#utility.yul\":27904:28043   */\n      swap1\n      pop\n        /* \"#utility.yul\":27631:28050   */\n      swap2\n      swap1\n      pop\n      jump\t// out\n        /* \"#utility.yul\":28056:28235   */\n    tag_409:\n        /* \"#utility.yul\":28196:28227   */\n      0x416464726573733a2063616c6c20746f206e6f6e2d636f6e7472616374000000\n        /* \"#utility.yul\":28192:28193   */\n      0x00\n        /* \"#utility.yul\":28184:28190   */\n      dup3\n        /* \"#utility.yul\":28180:28194   */\n      add\n        /* \"#utility.yul\":28173:28228   */\n      mstore\n        /* \"#utility.yul\":28056:28235   */\n      pop\n      jump\t// out\n        /* \"#utility.yul\":28241:28607   */\n    tag_410:\n        /* \"#utility.yul\":28383:28386   */\n      0x00\n        /* \"#utility.yul\":28404:28471   */\n      tag_657\n        /* \"#utility.yul\":28468:28470   */\n      0x1d\n        /* \"#utility.yul\":28463:28466   */\n      dup4\n        /* \"#utility.yul\":28404:28471   */\n      tag_369\n      jump\t// in\n    tag_657:\n        /* \"#utility.yul\":28397:28471   */\n      swap2\n      pop\n        /* \"#utility.yul\":28480:28573   */\n      tag_658\n        /* \"#utility.yul\":28569:28572   */\n      dup3\n        /* \"#utility.yul\":28480:28573   */\n      tag_409\n      jump\t// in\n    tag_658:\n        /* \"#utility.yul\":28598:28600   */\n      0x20\n        /* \"#utility.yul\":28593:28596   */\n      dup3\n        /* \"#utility.yul\":28589:28601   */\n      add\n        /* \"#utility.yul\":28582:28601   */\n      swap1\n      pop\n        /* \"#utility.yul\":28241:28607   */\n      swap2\n      swap1\n      pop\n      jump\t// out\n        /* \"#utility.yul\":28613:29032   */\n    tag_330:\n        /* \"#utility.yul\":28779:28783   */\n      0x00\n        /* \"#utility.yul\":28817:28819   */\n      0x20\n        /* \"#utility.yul\":28806:28815   */\n      dup3\n        /* \"#utility.yul\":28802:28820   */\n      add\n        /* \"#utility.yul\":28794:28820   */\n      swap1\n      pop\n        /* \"#utility.yul\":28866:28875   */\n      dup2\n        /* \"#utility.yul\":28860:28864   */\n      dup2\n        /* \"#utility.yul\":28856:28876   */\n      sub\n        /* \"#utility.yul\":28852:28853   */\n      0x00\n        /* \"#utility.yul\":28841:28850   */\n      dup4\n        /* \"#utility.yul\":28837:28854   */\n      add\n        /* \"#utility.yul\":28830:28877   */\n      mstore\n        /* \"#utility.yul\":28894:29025   */\n      tag_660\n        /* \"#utility.yul\":29020:29024   */\n      dup2\n        /* \"#utility.yul\":28894:29025   */\n      tag_410\n      jump\t// in\n    tag_660:\n        /* \"#utility.yul\":28886:29025   */\n      swap1\n      pop\n        /* \"#utility.yul\":28613:29032   */\n      swap2\n      swap1\n      pop\n      jump\t// out\n        /* \"#utility.yul\":29038:29136   */\n    tag_411:\n        /* \"#utility.yul\":29089:29095   */\n      0x00\n        /* \"#utility.yul\":29123:29128   */\n      dup2\n        /* \"#utility.yul\":29117:29129   */\n      mload\n        /* \"#utility.yul\":29107:29129   */\n      swap1\n      pop\n        /* \"#utility.yul\":29038:29136   */\n      swap2\n      swap1\n      pop\n      jump\t// out\n        /* \"#utility.yul\":29142:29289   */\n    tag_412:\n        /* \"#utility.yul\":29243:29254   */\n      0x00\n        /* \"#utility.yul\":29280:29283   */\n      dup2\n        /* \"#utility.yul\":29265:29283   */\n      swap1\n      pop\n        /* \"#utility.yul\":29142:29289   */\n      swap3\n      swap2\n      pop\n      pop\n      jump\t// out\n        /* \"#utility.yul\":29295:29602   */\n    tag_413:\n        /* \"#utility.yul\":29363:29364   */\n      0x00\n        /* \"#utility.yul\":29373:29486   */\n    tag_664:\n        /* \"#utility.yul\":29387:29393   */\n      dup4\n        /* \"#utility.yul\":29384:29385   */\n      dup2\n        /* \"#utility.yul\":29381:29394   */\n      lt\n        /* \"#utility.yul\":29373:29486   */\n      iszero\n      tag_666\n      jumpi\n        /* \"#utility.yul\":29472:29473   */\n      dup1\n        /* \"#utility.yul\":29467:29470   */\n      dup3\n        /* \"#utility.yul\":29463:29474   */\n      add\n        /* \"#utility.yul\":29457:29475   */\n      mload\n        /* \"#utility.yul\":29453:29454   */\n      dup2\n        /* \"#utility.yul\":29448:29451   */\n      dup5\n        /* \"#utility.yul\":29444:29455   */\n      add\n        /* \"#utility.yul\":29437:29476   */\n      mstore\n        /* \"#utility.yul\":29409:29411   */\n      0x20\n        /* \"#utility.yul\":29406:29407   */\n      dup2\n        /* \"#utility.yul\":29402:29412   */\n      add\n        /* \"#utility.yul\":29397:29412   */\n      swap1\n      pop\n        /* \"#utility.yul\":29373:29486   */\n      jump(tag_664)\n    tag_666:\n        /* \"#utility.yul\":29504:29510   */\n      dup4\n        /* \"#utility.yul\":29501:29502   */\n      dup2\n        /* \"#utility.yul\":29498:29511   */\n      gt\n        /* \"#utility.yul\":29495:29596   */\n      iszero\n      tag_667\n      jumpi\n        /* \"#utility.yul\":29584:29585   */\n      0x00\n        /* \"#utility.yul\":29575:29581   */\n      dup5\n        /* \"#utility.yul\":29570:29573   */\n      dup5\n        /* \"#utility.yul\":29566:29582   */\n      add\n        /* \"#utility.yul\":29559:29586   */\n      mstore\n        /* \"#utility.yul\":29495:29596   */\n    tag_667:\n        /* \"#utility.yul\":29344:29602   */\n      pop\n        /* \"#utility.yul\":29295:29602   */\n      pop\n      pop\n      pop\n      jump\t// out\n        /* \"#utility.yul\":29608:29981   */\n    tag_414:\n        /* \"#utility.yul\":29712:29715   */\n      0x00\n        /* \"#utility.yul\":29740:29778   */\n      tag_669\n        /* \"#utility.yul\":29772:29777   */\n      dup3\n        /* \"#utility.yul\":29740:29778   */\n      tag_411\n      jump\t// in\n    tag_669:\n        /* \"#utility.yul\":29794:29882   */\n      tag_670\n        /* \"#utility.yul\":29875:29881   */\n      dup2\n        /* \"#utility.yul\":29870:29873   */\n      dup6\n        /* \"#utility.yul\":29794:29882   */\n      tag_412\n      jump\t// in\n    tag_670:\n        /* \"#utility.yul\":29787:29882   */\n      swap4\n      pop\n        /* \"#utility.yul\":29891:29943   */\n      tag_671\n        /* \"#utility.yul\":29936:29942   */\n      dup2\n        /* \"#utility.yul\":29931:29934   */\n      dup6\n        /* \"#utility.yul\":29924:29928   */\n      0x20\n        /* \"#utility.yul\":29917:29922   */\n      dup7\n        /* \"#utility.yul\":29913:29929   */\n      add\n        /* \"#utility.yul\":29891:29943   */\n      tag_413\n      jump\t// in\n    tag_671:\n        /* \"#utility.yul\":29968:29974   */\n      dup1\n        /* \"#utility.yul\":29963:29966   */\n      dup5\n        /* \"#utility.yul\":29959:29975   */\n      add\n        /* \"#utility.yul\":29952:29975   */\n      swap2\n      pop\n        /* \"#utility.yul\":29716:29981   */\n      pop\n        /* \"#utility.yul\":29608:29981   */\n      swap3\n      swap2\n      pop\n      pop\n      jump\t// out\n        /* \"#utility.yul\":29987:30258   */\n    tag_332:\n        /* \"#utility.yul\":30117:30120   */\n      0x00\n        /* \"#utility.yul\":30139:30232   */\n      tag_673\n        /* \"#utility.yul\":30228:30231   */\n      dup3\n        /* \"#utility.yul\":30219:30225   */\n      dup5\n        /* \"#utility.yul\":30139:30232   */\n      tag_414\n      jump\t// in\n    tag_673:\n        /* \"#utility.yul\":30132:30232   */\n      swap2\n      pop\n        /* \"#utility.yul\":30249:30252   */\n      dup2\n        /* \"#utility.yul\":30242:30252   */\n      swap1\n      pop\n        /* \"#utility.yul\":29987:30258   */\n      swap3\n      swap2\n      pop\n      pop\n      jump\t// out\n        /* \"#utility.yul\":30264:30363   */\n    tag_415:\n        /* \"#utility.yul\":30316:30322   */\n      0x00\n        /* \"#utility.yul\":30350:30355   */\n      dup2\n        /* \"#utility.yul\":30344:30356   */\n      mload\n        /* \"#utility.yul\":30334:30356   */\n      swap1\n      pop\n        /* \"#utility.yul\":30264:30363   */\n      swap2\n      swap1\n      pop\n      jump\t// out\n        /* \"#utility.yul\":30369:30471   */\n    tag_416:\n        /* \"#utility.yul\":30410:30416   */\n      0x00\n        /* \"#utility.yul\":30461:30463   */\n      0x1f\n        /* \"#utility.yul\":30457:30464   */\n      not\n        /* \"#utility.yul\":30452:30454   */\n      0x1f\n        /* \"#utility.yul\":30445:30450   */\n      dup4\n        /* \"#utility.yul\":30441:30455   */\n      add\n        /* \"#utility.yul\":30437:30465   */\n      and\n        /* \"#utility.yul\":30427:30465   */\n      swap1\n      pop\n        /* \"#utility.yul\":30369:30471   */\n      swap2\n      swap1\n      pop\n      jump\t// out\n        /* \"#utility.yul\":30477:30841   */\n    tag_417:\n        /* \"#utility.yul\":30565:30568   */\n      0x00\n        /* \"#utility.yul\":30593:30632   */\n      tag_677\n        /* \"#utility.yul\":30626:30631   */\n      dup3\n        /* \"#utility.yul\":30593:30632   */\n      tag_415\n      jump\t// in\n    tag_677:\n        /* \"#utility.yul\":30648:30719   */\n      tag_678\n        /* \"#utility.yul\":30712:30718   */\n      dup2\n        /* \"#utility.yul\":30707:30710   */\n      dup6\n        /* \"#utility.yul\":30648:30719   */\n      tag_369\n      jump\t// in\n    tag_678:\n        /* \"#utility.yul\":30641:30719   */\n      swap4\n      pop\n        /* \"#utility.yul\":30728:30780   */\n      tag_679\n        /* \"#utility.yul\":30773:30779   */\n      dup2\n        /* \"#utility.yul\":30768:30771   */\n      dup6\n        /* \"#utility.yul\":30761:30765   */\n      0x20\n        /* \"#utility.yul\":30754:30759   */\n      dup7\n        /* \"#utility.yul\":30750:30766   */\n      add\n        /* \"#utility.yul\":30728:30780   */\n      tag_413\n      jump\t// in\n    tag_679:\n        /* \"#utility.yul\":30805:30834   */\n      tag_680\n        /* \"#utility.yul\":30827:30833   */\n      dup2\n        /* \"#utility.yul\":30805:30834   */\n      tag_416\n      jump\t// in\n    tag_680:\n        /* \"#utility.yul\":30800:30803   */\n      dup5\n        /* \"#utility.yul\":30796:30835   */\n      add\n        /* \"#utility.yul\":30789:30835   */\n      swap2\n      pop\n        /* \"#utility.yul\":30569:30841   */\n      pop\n        /* \"#utility.yul\":30477:30841   */\n      swap3\n      swap2\n      pop\n      pop\n      jump\t// out\n        /* \"#utility.yul\":30847:31160   */\n    tag_345:\n        /* \"#utility.yul\":30960:30964   */\n      0x00\n        /* \"#utility.yul\":30998:31000   */\n      0x20\n        /* \"#utility.yul\":30987:30996   */\n      dup3\n        /* \"#utility.yul\":30983:31001   */\n      add\n        /* \"#utility.yul\":30975:31001   */\n      swap1\n      pop\n        /* \"#utility.yul\":31047:31056   */\n      dup2\n        /* \"#utility.yul\":31041:31045   */\n      dup2\n        /* \"#utility.yul\":31037:31057   */\n      sub\n        /* \"#utility.yul\":31033:31034   */\n      0x00\n        /* \"#utility.yul\":31022:31031   */\n      dup4\n        /* \"#utility.yul\":31018:31035   */\n      add\n        /* \"#utility.yul\":31011:31058   */\n      mstore\n        /* \"#utility.yul\":31075:31153   */\n      tag_682\n        /* \"#utility.yul\":31148:31152   */\n      dup2\n        /* \"#utility.yul\":31139:31145   */\n      dup5\n        /* \"#utility.yul\":31075:31153   */\n      tag_417\n      jump\t// in\n    tag_682:\n        /* \"#utility.yul\":31067:31153   */\n      swap1\n      pop\n        /* \"#utility.yul\":30847:31160   */\n      swap3\n      swap2\n      pop\n      pop\n      jump\t// out\n\n    auxdata: 0xa2646970667358221220795d7a2882f0ba0e29a7c5291d3a130c04513822cb5b3197870d9c35e3fc629a64736f6c634300080d0033\n}\n",
				"bytecode": {
					"linkReferences": {},
					"object": "60a06040523480156200001157600080fd5b50604051620032f9380380620032f9833981810160405281019062000037919062000209565b620000576200004b620000d360201b60201c565b620000db60201b60201c565b60018081905550600073ffffffffffffffffffffffffffffffffffffffff168173ffffffffffffffffffffffffffffffffffffffff16036200009857600080fd5b8073ffffffffffffffffffffffffffffffffffffffff1660808173ffffffffffffffffffffffffffffffffffffffff1681525050506200023b565b600033905090565b60008060009054906101000a900473ffffffffffffffffffffffffffffffffffffffff169050816000806101000a81548173ffffffffffffffffffffffffffffffffffffffff021916908373ffffffffffffffffffffffffffffffffffffffff1602179055508173ffffffffffffffffffffffffffffffffffffffff168173ffffffffffffffffffffffffffffffffffffffff167f8be0079c531659141344cd1fd0a4f28419497f9722a3daafe3b4186f6b6457e060405160405180910390a35050565b600080fd5b600073ffffffffffffffffffffffffffffffffffffffff82169050919050565b6000620001d182620001a4565b9050919050565b620001e381620001c4565b8114620001ef57600080fd5b50565b6000815190506200020381620001d8565b92915050565b6000602082840312156200022257620002216200019f565b5b60006200023284828501620001f2565b91505092915050565b60805161308d6200026c600039600081816109ac01528181610b5801528181610f4801526111f0015261308d6000f3fe6080604052600436106101185760003560e01c80638af104da116100a0578063ea1bb3d511610064578063ea1bb3d5146103a7578063f2fde38b146103e4578063f51321d71461040d578063f7c469f01461044a578063f9079b37146104875761011f565b80638af104da146102ae5780638da5cb5b146102eb57806390be10cc146103165780639ef346b414610341578063b75c7dc61461037e5761011f565b806348deb471116100e757806348deb471146101c95780635a7bb69a146101f457806366afd8ef14610231578063715018a61461025a5780637e913dc6146102715761011f565b8063130836171461012157806317e289e91461014c57806321df0da7146101755780632e1a7d4d146101a05761011f565b3661011f57005b005b34801561012d57600080fd5b506101366104c4565b6040516101439190611fac565b60405180910390f35b34801561015857600080fd5b50610173600480360381019061016e919061208e565b6104d1565b005b34801561018157600080fd5b5061018a6109a8565b604051610197919061213f565b60405180910390f35b3480156101ac57600080fd5b506101c760048036038101906101c2919061215a565b6109d0565b005b3480156101d557600080fd5b506101de610ba6565b6040516101eb9190611fac565b60405180910390f35b34801561020057600080fd5b5061021b60048036038101906102169190612187565b610bb0565b6040516102289190611fac565b60405180910390f35b34801561023d57600080fd5b50610258600480360381019061025391906121ea565b610bf9565b005b34801561026657600080fd5b5061026f610f9d565b005b34801561027d57600080fd5b5061029860048036038101906102939190612187565b611025565b6040516102a59190612323565b60405180910390f35b3480156102ba57600080fd5b506102d560048036038101906102d0919061233f565b61118a565b6040516102e2919061238e565b60405180910390f35b3480156102f757600080fd5b506103006111bd565b60405161030d919061213f565b60405180910390f35b34801561032257600080fd5b5061032b6111e6565b6040516103389190611fac565b60405180910390f35b34801561034d57600080fd5b50610368600480360381019061036391906123a9565b61129b565b6040516103759190612323565b60405180910390f35b34801561038a57600080fd5b506103a560048036038101906103a091906123a9565b6113ac565b005b3480156103b357600080fd5b506103ce60048036038101906103c991906123a9565b61166e565b6040516103db9190611fac565b60405180910390f35b3480156103f057600080fd5b5061040b60048036038101906104069190612187565b6117f1565b005b34801561041957600080fd5b50610434600480360381019061042f919061233f565b6118e8565b6040516104419190612323565b60405180910390f35b34801561045657600080fd5b50610471600480360381019061046c9190612187565b61190a565b60405161047e919061238e565b60405180910390f35b34801561049357600080fd5b506104ae60048036038101906104a9919061215a565b61195c565b6040516104bb919061238e565b60405180910390f35b6000600280549050905090565b6104d96119cd565b73ffffffffffffffffffffffffffffffffffffffff166104f76111bd565b73ffffffffffffffffffffffffffffffffffffffff161461054d576040517f08c379a000000000000000000000000000000000000000000000000000000000815260040161054490612433565b60405180910390fd5b803073ffffffffffffffffffffffffffffffffffffffff166390be10cc6040518163ffffffff1660e01b8152600401602060405180830381865afa158015610599573d6000803e3d6000fd5b505050506040513d601f19601f820116820180604052508101906105bd9190612468565b10156105fe576040517f08c379a00000000000000000000000000000000000000000000000000000000081526004016105f59061252d565b60405180910390fd5b60008411610641576040517f08c379a0000000000000000000000000000000000000000000000000000000008152600401610638906125bf565b60405180910390fd5b60008111610684576040517f08c379a000000000000000000000000000000000000000000000000000000000815260040161067b9061262b565b60405180910390fd5b60018310156106c8576040517f08c379a00000000000000000000000000000000000000000000000000000000081526004016106bf906126bd565b60405180910390fd5b60003073ffffffffffffffffffffffffffffffffffffffff1663f7c469f0896040518263ffffffff1660e01b8152600401610703919061213f565b602060405180830381865afa158015610720573d6000803e3d6000fd5b505050506040513d601f19601f8201168201806040525081019061074491906126f2565b9050600061075b87896119d590919063ffffffff16565b90506040518061014001604052806001151581526020018a73ffffffffffffffffffffffffffffffffffffffff168152602001828152602001898152602001878152602001868152602001851515815260200184815260200160008152602001600015158152506003600084815260200190815260200160002060008201518160000160006101000a81548160ff02191690831515021790555060208201518160000160016101000a81548173ffffffffffffffffffffffffffffffffffffffff021916908373ffffffffffffffffffffffffffffffffffffffff16021790555060408201518160010155606082015181600201556080820151816003015560a0820151816004015560c08201518160050160006101000a81548160ff02191690831515021790555060e0820151816006015561010082015181600701556101208201518160080160006101000a81548160ff0219169083151502179055509050506108d2836004546119d590919063ffffffff16565b60048190555060028290806001815401808255809150506001900390600052602060002001600090919091909150556000600560008b73ffffffffffffffffffffffffffffffffffffffff1673ffffffffffffffffffffffffffffffffffffffff1681526020019081526020016000205490506109596001826119d590919063ffffffff16565b600560008c73ffffffffffffffffffffffffffffffffffffffff1673ffffffffffffffffffffffffffffffffffffffff1681526020019081526020016000208190555050505050505050505050565b60007f0000000000000000000000000000000000000000000000000000000000000000905090565b600260015403610a15576040517f08c379a0000000000000000000000000000000000000000000000000000000008152600401610a0c9061276b565b60405180910390fd5b6002600181905550610a256119cd565b73ffffffffffffffffffffffffffffffffffffffff16610a436111bd565b73ffffffffffffffffffffffffffffffffffffffff1614610a99576040517f08c379a0000000000000000000000000000000000000000000000000000000008152600401610a9090612433565b60405180910390fd5b803073ffffffffffffffffffffffffffffffffffffffff166390be10cc6040518163ffffffff1660e01b8152600401602060405180830381865afa158015610ae5573d6000803e3d6000fd5b505050506040513d601f19601f82011682018060405250810190610b099190612468565b1015610b4a576040517f08c379a0000000000000000000000000000000000000000000000000000000008152600401610b41906127fd565b60405180910390fd5b610b9c610b556111bd565b827f000000000000000000000000000000000000000000000000000000000000000073ffffffffffffffffffffffffffffffffffffffff166119eb9092919063ffffffff16565b6001808190555050565b6000600454905090565b6000600560008373ffffffffffffffffffffffffffffffffffffffff1673ffffffffffffffffffffffffffffffffffffffff168152602001908152602001600020549050919050565b600260015403610c3e576040517f08c379a0000000000000000000000000000000000000000000000000000000008152600401610c359061276b565b60405180910390fd5b600260018190555081600115156003600083815260200190815260200160002060000160009054906101000a900460ff16151514610c7b57600080fd5b600015156003600083815260200190815260200160002060080160009054906101000a900460ff16151514610caf57600080fd5b600060036000858152602001908152602001600020905060008160000160019054906101000a900473ffffffffffffffffffffffffffffffffffffffff1673ffffffffffffffffffffffffffffffffffffffff163373ffffffffffffffffffffffffffffffffffffffff161490506000610d276111bd565b73ffffffffffffffffffffffffffffffffffffffff163373ffffffffffffffffffffffffffffffffffffffff161490508180610d605750805b610d9f576040517f08c379a0000000000000000000000000000000000000000000000000000000008152600401610d96906128b5565b60405180910390fd5b6000610e9984604051806101400160405290816000820160009054906101000a900460ff161515151581526020016000820160019054906101000a900473ffffffffffffffffffffffffffffffffffffffff1673ffffffffffffffffffffffffffffffffffffffff1673ffffffffffffffffffffffffffffffffffffffff168152602001600182015481526020016002820154815260200160038201548152602001600482015481526020016005820160009054906101000a900460ff1615151515815260200160068201548152602001600782015481526020016008820160009054906101000a900460ff161515151581525050611a71565b905085811015610ede576040517f08c379a0000000000000000000000000000000000000000000000000000000008152600401610ed590612947565b60405180910390fd5b610ef58685600701546119d590919063ffffffff16565b846007018190555060008460000160019054906101000a900473ffffffffffffffffffffffffffffffffffffffff169050610f3b87600454611b9990919063ffffffff16565b600481905550610f8c81887f000000000000000000000000000000000000000000000000000000000000000073ffffffffffffffffffffffffffffffffffffffff166119eb9092919063ffffffff16565b505050505050600180819055505050565b610fa56119cd565b73ffffffffffffffffffffffffffffffffffffffff16610fc36111bd565b73ffffffffffffffffffffffffffffffffffffffff1614611019576040517f08c379a000000000000000000000000000000000000000000000000000000000815260040161101090612433565b60405180910390fd5b6110236000611baf565b565b61102d611f24565b60036000611086846001600560008873ffffffffffffffffffffffffffffffffffffffff1673ffffffffffffffffffffffffffffffffffffffff168152602001908152602001600020546110819190612996565b61118a565b8152602001908152602001600020604051806101400160405290816000820160009054906101000a900460ff161515151581526020016000820160019054906101000a900473ffffffffffffffffffffffffffffffffffffffff1673ffffffffffffffffffffffffffffffffffffffff1673ffffffffffffffffffffffffffffffffffffffff168152602001600182015481526020016002820154815260200160038201548152602001600482015481526020016005820160009054906101000a900460ff1615151515815260200160068201548152602001600782015481526020016008820160009054906101000a900460ff1615151515815250509050919050565b6000828260405160200161119f929190612a33565b60405160208183030381529060405280519060200120905092915050565b60008060009054906101000a900473ffffffffffffffffffffffffffffffffffffffff16905090565b60006112966004547f000000000000000000000000000000000000000000000000000000000000000073ffffffffffffffffffffffffffffffffffffffff166370a08231306040518263ffffffff1660e01b8152600401611247919061213f565b602060405180830381865afa158015611264573d6000803e3d6000fd5b505050506040513d601f19601f820116820180604052508101906112889190612468565b611b9990919063ffffffff16565b905090565b6112a3611f24565b60036000838152602001908152602001600020604051806101400160405290816000820160009054906101000a900460ff161515151581526020016000820160019054906101000a900473ffffffffffffffffffffffffffffffffffffffff1673ffffffffffffffffffffffffffffffffffffffff1673ffffffffffffffffffffffffffffffffffffffff168152602001600182015481526020016002820154815260200160038201548152602001600482015481526020016005820160009054906101000a900460ff1615151515815260200160068201548152602001600782015481526020016008820160009054906101000a900460ff1615151515815250509050919050565b6113b46119cd565b73ffffffffffffffffffffffffffffffffffffffff166113d26111bd565b73ffffffffffffffffffffffffffffffffffffffff1614611428576040517f08c379a000000000000000000000000000000000000000000000000000000000815260040161141f90612433565b60405180910390fd5b80600115156003600083815260200190815260200160002060000160009054906101000a900460ff1615151461145d57600080fd5b600015156003600083815260200190815260200160002060080160009054906101000a900460ff1615151461149157600080fd5b6000600360008481526020019081526020016000209050600115158160050160009054906101000a900460ff16151514611500576040517f08c379a00000000000000000000000000000000000000000000000000000000081526004016114f790612ad1565b60405180910390fd5b60006115fa82604051806101400160405290816000820160009054906101000a900460ff161515151581526020016000820160019054906101000a900473ffffffffffffffffffffffffffffffffffffffff1673ffffffffffffffffffffffffffffffffffffffff1673ffffffffffffffffffffffffffffffffffffffff168152602001600182015481526020016002820154815260200160038201548152602001600482015481526020016005820160009054906101000a900460ff1615151515815260200160068201548152602001600782015481526020016008820160009054906101000a900460ff161515151581525050611a71565b905060008111156116105761160f8482610bf9565b5b600061162d83600701548460060154611b9990919063ffffffff16565b905061164481600454611b9990919063ffffffff16565b60048190555060018360080160006101000a81548160ff0219169083151502179055505050505050565b600081600115156003600083815260200190815260200160002060000160009054906101000a900460ff161515146116a557600080fd5b600015156003600083815260200190815260200160002060080160009054906101000a900460ff161515146116d957600080fd5b60006003600085815260200190815260200160002090506117e881604051806101400160405290816000820160009054906101000a900460ff161515151581526020016000820160019054906101000a900473ffffffffffffffffffffffffffffffffffffffff1673ffffffffffffffffffffffffffffffffffffffff1673ffffffffffffffffffffffffffffffffffffffff168152602001600182015481526020016002820154815260200160038201548152602001600482015481526020016005820160009054906101000a900460ff1615151515815260200160068201548152602001600782015481526020016008820160009054906101000a900460ff161515151581525050611a71565b92505050919050565b6117f96119cd565b73ffffffffffffffffffffffffffffffffffffffff166118176111bd565b73ffffffffffffffffffffffffffffffffffffffff161461186d576040517f08c379a000000000000000000000000000000000000000000000000000000000815260040161186490612433565b60405180910390fd5b600073ffffffffffffffffffffffffffffffffffffffff168173ffffffffffffffffffffffffffffffffffffffff16036118dc576040517f08c379a00000000000000000000000000000000000000000000000000000000081526004016118d390612b63565b60405180910390fd5b6118e581611baf565b50565b6118f0611f24565b6119026118fd848461118a565b61129b565b905092915050565b600061195582600560008573ffffffffffffffffffffffffffffffffffffffff1673ffffffffffffffffffffffffffffffffffffffff1681526020019081526020016000205461118a565b9050919050565b60006119666104c4565b82106119a7576040517f08c379a000000000000000000000000000000000000000000000000000000000815260040161199e90612bf5565b60405180910390fd5b600282815481106119bb576119ba612c15565b5b90600052602060002001549050919050565b600033905090565b600081836119e39190612c44565b905092915050565b611a6c8363a9059cbb60e01b8484604051602401611a0a929190612c9a565b604051602081830303815290604052907bffffffffffffffffffffffffffffffffffffffffffffffffffffffff19166020820180517bffffffffffffffffffffffffffffffffffffffffffffffffffffffff8381831617835250505050611c73565b505050565b600080611a7c611d3a565b90508260400151811080611a995750600115158361012001511515145b15611aa8576000915050611b94565b611ac3836080015184606001516119d590919063ffffffff16565b8110611aed57611ae58361010001518460e00151611b9990919063ffffffff16565b915050611b94565b6000611b06846060015183611b9990919063ffffffff16565b905060008460a0015190506000611b268284611d4290919063ffffffff16565b90506000611b3d8383611d5890919063ffffffff16565b90506000611b6e8860800151611b60848b60e00151611d5890919063ffffffff16565b611d4290919063ffffffff16565b9050611b8888610100015182611b9990919063ffffffff16565b90508096505050505050505b919050565b60008183611ba79190612996565b905092915050565b60008060009054906101000a900473ffffffffffffffffffffffffffffffffffffffff169050816000806101000a81548173ffffffffffffffffffffffffffffffffffffffff021916908373ffffffffffffffffffffffffffffffffffffffff1602179055508173ffffffffffffffffffffffffffffffffffffffff168173ffffffffffffffffffffffffffffffffffffffff167f8be0079c531659141344cd1fd0a4f28419497f9722a3daafe3b4186f6b6457e060405160405180910390a35050565b6000611cd5826040518060400160405280602081526020017f5361666545524332303a206c6f772d6c6576656c2063616c6c206661696c65648152508573ffffffffffffffffffffffffffffffffffffffff16611d6e9092919063ffffffff16565b9050600081511115611d355780806020019051810190611cf59190612cd8565b611d34576040517f08c379a0000000000000000000000000000000000000000000000000000000008152600401611d2b90612d77565b60405180910390fd5b5b505050565b600042905090565b60008183611d509190612dc6565b905092915050565b60008183611d669190612df7565b905092915050565b6060611d7d8484600085611d86565b90509392505050565b606082471015611dcb576040517f08c379a0000000000000000000000000000000000000000000000000000000008152600401611dc290612ec3565b60405180910390fd5b611dd485611e9a565b611e13576040517f08c379a0000000000000000000000000000000000000000000000000000000008152600401611e0a90612f2f565b60405180910390fd5b6000808673ffffffffffffffffffffffffffffffffffffffff168587604051611e3c9190612fc9565b60006040518083038185875af1925050503d8060008114611e79576040519150601f19603f3d011682016040523d82523d6000602084013e611e7e565b606091505b5091509150611e8e828286611ebd565b92505050949350505050565b6000808273ffffffffffffffffffffffffffffffffffffffff163b119050919050565b60608315611ecd57829050611f1d565b600083511115611ee05782518084602001fd5b816040517f08c379a0000000000000000000000000000000000000000000000000000000008152600401611f149190613035565b60405180910390fd5b9392505050565b604051806101400160405280600015158152602001600073ffffffffffffffffffffffffffffffffffffffff1681526020016000815260200160008152602001600081526020016000815260200160001515815260200160008152602001600081526020016000151581525090565b6000819050919050565b611fa681611f93565b82525050565b6000602082019050611fc16000830184611f9d565b92915050565b600080fd5b600073ffffffffffffffffffffffffffffffffffffffff82169050919050565b6000611ff782611fcc565b9050919050565b61200781611fec565b811461201257600080fd5b50565b60008135905061202481611ffe565b92915050565b61203381611f93565b811461203e57600080fd5b50565b6000813590506120508161202a565b92915050565b60008115159050919050565b61206b81612056565b811461207657600080fd5b50565b60008135905061208881612062565b92915050565b600080600080600080600060e0888a0312156120ad576120ac611fc7565b5b60006120bb8a828b01612015565b97505060206120cc8a828b01612041565b96505060406120dd8a828b01612041565b95505060606120ee8a828b01612041565b94505060806120ff8a828b01612041565b93505060a06121108a828b01612079565b92505060c06121218a828b01612041565b91505092959891949750929550565b61213981611fec565b82525050565b60006020820190506121546000830184612130565b92915050565b6000602082840312156121705761216f611fc7565b5b600061217e84828501612041565b91505092915050565b60006020828403121561219d5761219c611fc7565b5b60006121ab84828501612015565b91505092915050565b6000819050919050565b6121c7816121b4565b81146121d257600080fd5b50565b6000813590506121e4816121be565b92915050565b6000806040838503121561220157612200611fc7565b5b600061220f858286016121d5565b925050602061222085828601612041565b9150509250929050565b61223381612056565b82525050565b61224281611fec565b82525050565b61225181611f93565b82525050565b6101408201600082015161226e600085018261222a565b5060208201516122816020850182612239565b5060408201516122946040850182612248565b5060608201516122a76060850182612248565b5060808201516122ba6080850182612248565b5060a08201516122cd60a0850182612248565b5060c08201516122e060c085018261222a565b5060e08201516122f360e0850182612248565b50610100820151612308610100850182612248565b5061012082015161231d61012085018261222a565b50505050565b6000610140820190506123396000830184612257565b92915050565b6000806040838503121561235657612355611fc7565b5b600061236485828601612015565b925050602061237585828601612041565b9150509250929050565b612388816121b4565b82525050565b60006020820190506123a3600083018461237f565b92915050565b6000602082840312156123bf576123be611fc7565b5b60006123cd848285016121d5565b91505092915050565b600082825260208201905092915050565b7f4f776e61626c653a2063616c6c6572206973206e6f7420746865206f776e6572600082015250565b600061241d6020836123d6565b9150612428826123e7565b602082019050919050565b6000602082019050818103600083015261244c81612410565b9050919050565b6000815190506124628161202a565b92915050565b60006020828403121561247e5761247d611fc7565b5b600061248c84828501612453565b91505092915050565b7f546f6b656e56657374696e673a2063616e6e6f7420637265617465207665737460008201527f696e67207363686564756c652062656361757365206e6f74207375666669636960208201527f656e7420746f6b656e7300000000000000000000000000000000000000000000604082015250565b6000612517604a836123d6565b915061252282612495565b606082019050919050565b600060208201905081810360008301526125468161250a565b9050919050565b7f546f6b656e56657374696e673a206475726174696f6e206d757374206265203e60008201527f2030000000000000000000000000000000000000000000000000000000000000602082015250565b60006125a96022836123d6565b91506125b48261254d565b604082019050919050565b600060208201905081810360008301526125d88161259c565b9050919050565b7f546f6b656e56657374696e673a20616d6f756e74206d757374206265203e2030600082015250565b60006126156020836123d6565b9150612620826125df565b602082019050919050565b6000602082019050818103600083015261264481612608565b9050919050565b7f546f6b656e56657374696e673a20736c696365506572696f645365636f6e647360008201527f206d757374206265203e3d203100000000000000000000000000000000000000602082015250565b60006126a7602d836123d6565b91506126b28261264b565b604082019050919050565b600060208201905081810360008301526126d68161269a565b9050919050565b6000815190506126ec816121be565b92915050565b60006020828403121561270857612707611fc7565b5b6000612716848285016126dd565b91505092915050565b7f5265656e7472616e637947756172643a207265656e7472616e742063616c6c00600082015250565b6000612755601f836123d6565b91506127608261271f565b602082019050919050565b6000602082019050818103600083015261278481612748565b9050919050565b7f546f6b656e56657374696e673a206e6f7420656e6f756768207769746864726160008201527f7761626c652066756e6473000000000000000000000000000000000000000000602082015250565b60006127e7602b836123d6565b91506127f28261278b565b604082019050919050565b60006020820190508181036000830152612816816127da565b9050919050565b7f546f6b656e56657374696e673a206f6e6c792062656e6566696369617279206160008201527f6e64206f776e65722063616e2072656c656173652076657374656420746f6b6560208201527f6e73000000000000000000000000000000000000000000000000000000000000604082015250565b600061289f6042836123d6565b91506128aa8261281d565b606082019050919050565b600060208201905081810360008301526128ce81612892565b9050919050565b7f546f6b656e56657374696e673a2063616e6e6f742072656c6561736520746f6b60008201527f656e732c206e6f7420656e6f7567682076657374656420746f6b656e73000000602082015250565b6000612931603d836123d6565b915061293c826128d5565b604082019050919050565b6000602082019050818103600083015261296081612924565b9050919050565b7f4e487b7100000000000000000000000000000000000000000000000000000000600052601160045260246000fd5b60006129a182611f93565b91506129ac83611f93565b9250828210156129bf576129be612967565b5b828203905092915050565b60008160601b9050919050565b60006129e2826129ca565b9050919050565b60006129f4826129d7565b9050919050565b612a0c612a0782611fec565b6129e9565b82525050565b6000819050919050565b612a2d612a2882611f93565b612a12565b82525050565b6000612a3f82856129fb565b601482019150612a4f8284612a1c565b6020820191508190509392505050565b7f546f6b656e56657374696e673a2076657374696e67206973206e6f742072657660008201527f6f6361626c650000000000000000000000000000000000000000000000000000602082015250565b6000612abb6026836123d6565b9150612ac682612a5f565b604082019050919050565b60006020820190508181036000830152612aea81612aae565b9050919050565b7f4f776e61626c653a206e6577206f776e657220697320746865207a65726f206160008201527f6464726573730000000000000000000000000000000000000000000000000000602082015250565b6000612b4d6026836123d6565b9150612b5882612af1565b604082019050919050565b60006020820190508181036000830152612b7c81612b40565b9050919050565b7f546f6b656e56657374696e673a20496e646578206f7574206f6620626f756e6460008201527f7300000000000000000000000000000000000000000000000000000000000000602082015250565b6000612bdf6021836123d6565b9150612bea82612b83565b604082019050919050565b60006020820190508181036000830152612c0e81612bd2565b9050919050565b7f4e487b7100000000000000000000000000000000000000000000000000000000600052603260045260246000fd5b6000612c4f82611f93565b9150612c5a83611f93565b9250827fffffffffffffffffffffffffffffffffffffffffffffffffffffffffffffffff03821115612c8f57612c8e612967565b5b828201905092915050565b6000604082019050612caf6000830185612130565b612cbc6020830184611f9d565b9392505050565b600081519050612cd281612062565b92915050565b600060208284031215612cee57612ced611fc7565b5b6000612cfc84828501612cc3565b91505092915050565b7f5361666545524332303a204552433230206f7065726174696f6e20646964206e60008201527f6f74207375636365656400000000000000000000000000000000000000000000602082015250565b6000612d61602a836123d6565b9150612d6c82612d05565b604082019050919050565b60006020820190508181036000830152612d9081612d54565b9050919050565b7f4e487b7100000000000000000000000000000000000000000000000000000000600052601260045260246000fd5b6000612dd182611f93565b9150612ddc83611f93565b925082612dec57612deb612d97565b5b828204905092915050565b6000612e0282611f93565b9150612e0d83611f93565b9250817fffffffffffffffffffffffffffffffffffffffffffffffffffffffffffffffff0483118215151615612e4657612e45612967565b5b828202905092915050565b7f416464726573733a20696e73756666696369656e742062616c616e636520666f60008201527f722063616c6c0000000000000000000000000000000000000000000000000000602082015250565b6000612ead6026836123d6565b9150612eb882612e51565b604082019050919050565b60006020820190508181036000830152612edc81612ea0565b9050919050565b7f416464726573733a2063616c6c20746f206e6f6e2d636f6e7472616374000000600082015250565b6000612f19601d836123d6565b9150612f2482612ee3565b602082019050919050565b60006020820190508181036000830152612f4881612f0c565b9050919050565b600081519050919050565b600081905092915050565b60005b83811015612f83578082015181840152602081019050612f68565b83811115612f92576000848401525b50505050565b6000612fa382612f4f565b612fad8185612f5a565b9350612fbd818560208601612f65565b80840191505092915050565b6000612fd58284612f98565b915081905092915050565b600081519050919050565b6000601f19601f8301169050919050565b600061300782612fe0565b61301181856123d6565b9350613021818560208601612f65565b61302a81612feb565b840191505092915050565b6000602082019050818103600083015261304f8184612ffc565b90509291505056fea2646970667358221220795d7a2882f0ba0e29a7c5291d3a130c04513822cb5b3197870d9c35e3fc629a64736f6c634300080d0033",
					"opcodes": "PUSH1 0xA0 PUSH1 0x40 MSTORE CALLVALUE DUP1 ISZERO PUSH3 0x11 JUMPI PUSH1 0x0 DUP1 REVERT JUMPDEST POP PUSH1 0x40 MLOAD PUSH3 0x32F9 CODESIZE SUB DUP1 PUSH3 0x32F9 DUP4 CODECOPY DUP2 DUP2 ADD PUSH1 0x40 MSTORE DUP2 ADD SWAP1 PUSH3 0x37 SWAP2 SWAP1 PUSH3 0x209 JUMP JUMPDEST PUSH3 0x57 PUSH3 0x4B PUSH3 0xD3 PUSH1 0x20 SHL PUSH1 0x20 SHR JUMP JUMPDEST PUSH3 0xDB PUSH1 0x20 SHL PUSH1 0x20 SHR JUMP JUMPDEST PUSH1 0x1 DUP1 DUP2 SWAP1 SSTORE POP PUSH1 0x0 PUSH20 0xFFFFFFFFFFFFFFFFFFFFFFFFFFFFFFFFFFFFFFFF AND DUP2 PUSH20 0xFFFFFFFFFFFFFFFFFFFFFFFFFFFFFFFFFFFFFFFF AND SUB PUSH3 0x98 JUMPI PUSH1 0x0 DUP1 REVERT JUMPDEST DUP1 PUSH20 0xFFFFFFFFFFFFFFFFFFFFFFFFFFFFFFFFFFFFFFFF AND PUSH1 0x80 DUP2 PUSH20 0xFFFFFFFFFFFFFFFFFFFFFFFFFFFFFFFFFFFFFFFF AND DUP2 MSTORE POP POP POP PUSH3 0x23B JUMP JUMPDEST PUSH1 0x0 CALLER SWAP1 POP SWAP1 JUMP JUMPDEST PUSH1 0x0 DUP1 PUSH1 0x0 SWAP1 SLOAD SWAP1 PUSH2 0x100 EXP SWAP1 DIV PUSH20 0xFFFFFFFFFFFFFFFFFFFFFFFFFFFFFFFFFFFFFFFF AND SWAP1 POP DUP2 PUSH1 0x0 DUP1 PUSH2 0x100 EXP DUP2 SLOAD DUP2 PUSH20 0xFFFFFFFFFFFFFFFFFFFFFFFFFFFFFFFFFFFFFFFF MUL NOT AND SWAP1 DUP4 PUSH20 0xFFFFFFFFFFFFFFFFFFFFFFFFFFFFFFFFFFFFFFFF AND MUL OR SWAP1 SSTORE POP DUP2 PUSH20 0xFFFFFFFFFFFFFFFFFFFFFFFFFFFFFFFFFFFFFFFF AND DUP2 PUSH20 0xFFFFFFFFFFFFFFFFFFFFFFFFFFFFFFFFFFFFFFFF AND PUSH32 0x8BE0079C531659141344CD1FD0A4F28419497F9722A3DAAFE3B4186F6B6457E0 PUSH1 0x40 MLOAD PUSH1 0x40 MLOAD DUP1 SWAP2 SUB SWAP1 LOG3 POP POP JUMP JUMPDEST PUSH1 0x0 DUP1 REVERT JUMPDEST PUSH1 0x0 PUSH20 0xFFFFFFFFFFFFFFFFFFFFFFFFFFFFFFFFFFFFFFFF DUP3 AND SWAP1 POP SWAP2 SWAP1 POP JUMP JUMPDEST PUSH1 0x0 PUSH3 0x1D1 DUP3 PUSH3 0x1A4 JUMP JUMPDEST SWAP1 POP SWAP2 SWAP1 POP JUMP JUMPDEST PUSH3 0x1E3 DUP2 PUSH3 0x1C4 JUMP JUMPDEST DUP2 EQ PUSH3 0x1EF JUMPI PUSH1 0x0 DUP1 REVERT JUMPDEST POP JUMP JUMPDEST PUSH1 0x0 DUP2 MLOAD SWAP1 POP PUSH3 0x203 DUP2 PUSH3 0x1D8 JUMP JUMPDEST SWAP3 SWAP2 POP POP JUMP JUMPDEST PUSH1 0x0 PUSH1 0x20 DUP3 DUP5 SUB SLT ISZERO PUSH3 0x222 JUMPI PUSH3 0x221 PUSH3 0x19F JUMP JUMPDEST JUMPDEST PUSH1 0x0 PUSH3 0x232 DUP5 DUP3 DUP6 ADD PUSH3 0x1F2 JUMP JUMPDEST SWAP2 POP POP SWAP3 SWAP2 POP POP JUMP JUMPDEST PUSH1 0x80 MLOAD PUSH2 0x308D PUSH3 0x26C PUSH1 0x0 CODECOPY PUSH1 0x0 DUP2 DUP2 PUSH2 0x9AC ADD MSTORE DUP2 DUP2 PUSH2 0xB58 ADD MSTORE DUP2 DUP2 PUSH2 0xF48 ADD MSTORE PUSH2 0x11F0 ADD MSTORE PUSH2 0x308D PUSH1 0x0 RETURN INVALID PUSH1 0x80 PUSH1 0x40 MSTORE PUSH1 0x4 CALLDATASIZE LT PUSH2 0x118 JUMPI PUSH1 0x0 CALLDATALOAD PUSH1 0xE0 SHR DUP1 PUSH4 0x8AF104DA GT PUSH2 0xA0 JUMPI DUP1 PUSH4 0xEA1BB3D5 GT PUSH2 0x64 JUMPI DUP1 PUSH4 0xEA1BB3D5 EQ PUSH2 0x3A7 JUMPI DUP1 PUSH4 0xF2FDE38B EQ PUSH2 0x3E4 JUMPI DUP1 PUSH4 0xF51321D7 EQ PUSH2 0x40D JUMPI DUP1 PUSH4 0xF7C469F0 EQ PUSH2 0x44A JUMPI DUP1 PUSH4 0xF9079B37 EQ PUSH2 0x487 JUMPI PUSH2 0x11F JUMP JUMPDEST DUP1 PUSH4 0x8AF104DA EQ PUSH2 0x2AE JUMPI DUP1 PUSH4 0x8DA5CB5B EQ PUSH2 0x2EB JUMPI DUP1 PUSH4 0x90BE10CC EQ PUSH2 0x316 JUMPI DUP1 PUSH4 0x9EF346B4 EQ PUSH2 0x341 JUMPI DUP1 PUSH4 0xB75C7DC6 EQ PUSH2 0x37E JUMPI PUSH2 0x11F JUMP JUMPDEST DUP1 PUSH4 0x48DEB471 GT PUSH2 0xE7 JUMPI DUP1 PUSH4 0x48DEB471 EQ PUSH2 0x1C9 JUMPI DUP1 PUSH4 0x5A7BB69A EQ PUSH2 0x1F4 JUMPI DUP1 PUSH4 0x66AFD8EF EQ PUSH2 0x231 JUMPI DUP1 PUSH4 0x715018A6 EQ PUSH2 0x25A JUMPI DUP1 PUSH4 0x7E913DC6 EQ PUSH2 0x271 JUMPI PUSH2 0x11F JUMP JUMPDEST DUP1 PUSH4 0x13083617 EQ PUSH2 0x121 JUMPI DUP1 PUSH4 0x17E289E9 EQ PUSH2 0x14C JUMPI DUP1 PUSH4 0x21DF0DA7 EQ PUSH2 0x175 JUMPI DUP1 PUSH4 0x2E1A7D4D EQ PUSH2 0x1A0 JUMPI PUSH2 0x11F JUMP JUMPDEST CALLDATASIZE PUSH2 0x11F JUMPI STOP JUMPDEST STOP JUMPDEST CALLVALUE DUP1 ISZERO PUSH2 0x12D JUMPI PUSH1 0x0 DUP1 REVERT JUMPDEST POP PUSH2 0x136 PUSH2 0x4C4 JUMP JUMPDEST PUSH1 0x40 MLOAD PUSH2 0x143 SWAP2 SWAP1 PUSH2 0x1FAC JUMP JUMPDEST PUSH1 0x40 MLOAD DUP1 SWAP2 SUB SWAP1 RETURN JUMPDEST CALLVALUE DUP1 ISZERO PUSH2 0x158 JUMPI PUSH1 0x0 DUP1 REVERT JUMPDEST POP PUSH2 0x173 PUSH1 0x4 DUP1 CALLDATASIZE SUB DUP2 ADD SWAP1 PUSH2 0x16E SWAP2 SWAP1 PUSH2 0x208E JUMP JUMPDEST PUSH2 0x4D1 JUMP JUMPDEST STOP JUMPDEST CALLVALUE DUP1 ISZERO PUSH2 0x181 JUMPI PUSH1 0x0 DUP1 REVERT JUMPDEST POP PUSH2 0x18A PUSH2 0x9A8 JUMP JUMPDEST PUSH1 0x40 MLOAD PUSH2 0x197 SWAP2 SWAP1 PUSH2 0x213F JUMP JUMPDEST PUSH1 0x40 MLOAD DUP1 SWAP2 SUB SWAP1 RETURN JUMPDEST CALLVALUE DUP1 ISZERO PUSH2 0x1AC JUMPI PUSH1 0x0 DUP1 REVERT JUMPDEST POP PUSH2 0x1C7 PUSH1 0x4 DUP1 CALLDATASIZE SUB DUP2 ADD SWAP1 PUSH2 0x1C2 SWAP2 SWAP1 PUSH2 0x215A JUMP JUMPDEST PUSH2 0x9D0 JUMP JUMPDEST STOP JUMPDEST CALLVALUE DUP1 ISZERO PUSH2 0x1D5 JUMPI PUSH1 0x0 DUP1 REVERT JUMPDEST POP PUSH2 0x1DE PUSH2 0xBA6 JUMP JUMPDEST PUSH1 0x40 MLOAD PUSH2 0x1EB SWAP2 SWAP1 PUSH2 0x1FAC JUMP JUMPDEST PUSH1 0x40 MLOAD DUP1 SWAP2 SUB SWAP1 RETURN JUMPDEST CALLVALUE DUP1 ISZERO PUSH2 0x200 JUMPI PUSH1 0x0 DUP1 REVERT JUMPDEST POP PUSH2 0x21B PUSH1 0x4 DUP1 CALLDATASIZE SUB DUP2 ADD SWAP1 PUSH2 0x216 SWAP2 SWAP1 PUSH2 0x2187 JUMP JUMPDEST PUSH2 0xBB0 JUMP JUMPDEST PUSH1 0x40 MLOAD PUSH2 0x228 SWAP2 SWAP1 PUSH2 0x1FAC JUMP JUMPDEST PUSH1 0x40 MLOAD DUP1 SWAP2 SUB SWAP1 RETURN JUMPDEST CALLVALUE DUP1 ISZERO PUSH2 0x23D JUMPI PUSH1 0x0 DUP1 REVERT JUMPDEST POP PUSH2 0x258 PUSH1 0x4 DUP1 CALLDATASIZE SUB DUP2 ADD SWAP1 PUSH2 0x253 SWAP2 SWAP1 PUSH2 0x21EA JUMP JUMPDEST PUSH2 0xBF9 JUMP JUMPDEST STOP JUMPDEST CALLVALUE DUP1 ISZERO PUSH2 0x266 JUMPI PUSH1 0x0 DUP1 REVERT JUMPDEST POP PUSH2 0x26F PUSH2 0xF9D JUMP JUMPDEST STOP JUMPDEST CALLVALUE DUP1 ISZERO PUSH2 0x27D JUMPI PUSH1 0x0 DUP1 REVERT JUMPDEST POP PUSH2 0x298 PUSH1 0x4 DUP1 CALLDATASIZE SUB DUP2 ADD SWAP1 PUSH2 0x293 SWAP2 SWAP1 PUSH2 0x2187 JUMP JUMPDEST PUSH2 0x1025 JUMP JUMPDEST PUSH1 0x40 MLOAD PUSH2 0x2A5 SWAP2 SWAP1 PUSH2 0x2323 JUMP JUMPDEST PUSH1 0x40 MLOAD DUP1 SWAP2 SUB SWAP1 RETURN JUMPDEST CALLVALUE DUP1 ISZERO PUSH2 0x2BA JUMPI PUSH1 0x0 DUP1 REVERT JUMPDEST POP PUSH2 0x2D5 PUSH1 0x4 DUP1 CALLDATASIZE SUB DUP2 ADD SWAP1 PUSH2 0x2D0 SWAP2 SWAP1 PUSH2 0x233F JUMP JUMPDEST PUSH2 0x118A JUMP JUMPDEST PUSH1 0x40 MLOAD PUSH2 0x2E2 SWAP2 SWAP1 PUSH2 0x238E JUMP JUMPDEST PUSH1 0x40 MLOAD DUP1 SWAP2 SUB SWAP1 RETURN JUMPDEST CALLVALUE DUP1 ISZERO PUSH2 0x2F7 JUMPI PUSH1 0x0 DUP1 REVERT JUMPDEST POP PUSH2 0x300 PUSH2 0x11BD JUMP JUMPDEST PUSH1 0x40 MLOAD PUSH2 0x30D SWAP2 SWAP1 PUSH2 0x213F JUMP JUMPDEST PUSH1 0x40 MLOAD DUP1 SWAP2 SUB SWAP1 RETURN JUMPDEST CALLVALUE DUP1 ISZERO PUSH2 0x322 JUMPI PUSH1 0x0 DUP1 REVERT JUMPDEST POP PUSH2 0x32B PUSH2 0x11E6 JUMP JUMPDEST PUSH1 0x40 MLOAD PUSH2 0x338 SWAP2 SWAP1 PUSH2 0x1FAC JUMP JUMPDEST PUSH1 0x40 MLOAD DUP1 SWAP2 SUB SWAP1 RETURN JUMPDEST CALLVALUE DUP1 ISZERO PUSH2 0x34D JUMPI PUSH1 0x0 DUP1 REVERT JUMPDEST POP PUSH2 0x368 PUSH1 0x4 DUP1 CALLDATASIZE SUB DUP2 ADD SWAP1 PUSH2 0x363 SWAP2 SWAP1 PUSH2 0x23A9 JUMP JUMPDEST PUSH2 0x129B JUMP JUMPDEST PUSH1 0x40 MLOAD PUSH2 0x375 SWAP2 SWAP1 PUSH2 0x2323 JUMP JUMPDEST PUSH1 0x40 MLOAD DUP1 SWAP2 SUB SWAP1 RETURN JUMPDEST CALLVALUE DUP1 ISZERO PUSH2 0x38A JUMPI PUSH1 0x0 DUP1 REVERT JUMPDEST POP PUSH2 0x3A5 PUSH1 0x4 DUP1 CALLDATASIZE SUB DUP2 ADD SWAP1 PUSH2 0x3A0 SWAP2 SWAP1 PUSH2 0x23A9 JUMP JUMPDEST PUSH2 0x13AC JUMP JUMPDEST STOP JUMPDEST CALLVALUE DUP1 ISZERO PUSH2 0x3B3 JUMPI PUSH1 0x0 DUP1 REVERT JUMPDEST POP PUSH2 0x3CE PUSH1 0x4 DUP1 CALLDATASIZE SUB DUP2 ADD SWAP1 PUSH2 0x3C9 SWAP2 SWAP1 PUSH2 0x23A9 JUMP JUMPDEST PUSH2 0x166E JUMP JUMPDEST PUSH1 0x40 MLOAD PUSH2 0x3DB SWAP2 SWAP1 PUSH2 0x1FAC JUMP JUMPDEST PUSH1 0x40 MLOAD DUP1 SWAP2 SUB SWAP1 RETURN JUMPDEST CALLVALUE DUP1 ISZERO PUSH2 0x3F0 JUMPI PUSH1 0x0 DUP1 REVERT JUMPDEST POP PUSH2 0x40B PUSH1 0x4 DUP1 CALLDATASIZE SUB DUP2 ADD SWAP1 PUSH2 0x406 SWAP2 SWAP1 PUSH2 0x2187 JUMP JUMPDEST PUSH2 0x17F1 JUMP JUMPDEST STOP JUMPDEST CALLVALUE DUP1 ISZERO PUSH2 0x419 JUMPI PUSH1 0x0 DUP1 REVERT JUMPDEST POP PUSH2 0x434 PUSH1 0x4 DUP1 CALLDATASIZE SUB DUP2 ADD SWAP1 PUSH2 0x42F SWAP2 SWAP1 PUSH2 0x233F JUMP JUMPDEST PUSH2 0x18E8 JUMP JUMPDEST PUSH1 0x40 MLOAD PUSH2 0x441 SWAP2 SWAP1 PUSH2 0x2323 JUMP JUMPDEST PUSH1 0x40 MLOAD DUP1 SWAP2 SUB SWAP1 RETURN JUMPDEST CALLVALUE DUP1 ISZERO PUSH2 0x456 JUMPI PUSH1 0x0 DUP1 REVERT JUMPDEST POP PUSH2 0x471 PUSH1 0x4 DUP1 CALLDATASIZE SUB DUP2 ADD SWAP1 PUSH2 0x46C SWAP2 SWAP1 PUSH2 0x2187 JUMP JUMPDEST PUSH2 0x190A JUMP JUMPDEST PUSH1 0x40 MLOAD PUSH2 0x47E SWAP2 SWAP1 PUSH2 0x238E JUMP JUMPDEST PUSH1 0x40 MLOAD DUP1 SWAP2 SUB SWAP1 RETURN JUMPDEST CALLVALUE DUP1 ISZERO PUSH2 0x493 JUMPI PUSH1 0x0 DUP1 REVERT JUMPDEST POP PUSH2 0x4AE PUSH1 0x4 DUP1 CALLDATASIZE SUB DUP2 ADD SWAP1 PUSH2 0x4A9 SWAP2 SWAP1 PUSH2 0x215A JUMP JUMPDEST PUSH2 0x195C JUMP JUMPDEST PUSH1 0x40 MLOAD PUSH2 0x4BB SWAP2 SWAP1 PUSH2 0x238E JUMP JUMPDEST PUSH1 0x40 MLOAD DUP1 SWAP2 SUB SWAP1 RETURN JUMPDEST PUSH1 0x0 PUSH1 0x2 DUP1 SLOAD SWAP1 POP SWAP1 POP SWAP1 JUMP JUMPDEST PUSH2 0x4D9 PUSH2 0x19CD JUMP JUMPDEST PUSH20 0xFFFFFFFFFFFFFFFFFFFFFFFFFFFFFFFFFFFFFFFF AND PUSH2 0x4F7 PUSH2 0x11BD JUMP JUMPDEST PUSH20 0xFFFFFFFFFFFFFFFFFFFFFFFFFFFFFFFFFFFFFFFF AND EQ PUSH2 0x54D JUMPI PUSH1 0x40 MLOAD PUSH32 0x8C379A000000000000000000000000000000000000000000000000000000000 DUP2 MSTORE PUSH1 0x4 ADD PUSH2 0x544 SWAP1 PUSH2 0x2433 JUMP JUMPDEST PUSH1 0x40 MLOAD DUP1 SWAP2 SUB SWAP1 REVERT JUMPDEST DUP1 ADDRESS PUSH20 0xFFFFFFFFFFFFFFFFFFFFFFFFFFFFFFFFFFFFFFFF AND PUSH4 0x90BE10CC PUSH1 0x40 MLOAD DUP2 PUSH4 0xFFFFFFFF AND PUSH1 0xE0 SHL DUP2 MSTORE PUSH1 0x4 ADD PUSH1 0x20 PUSH1 0x40 MLOAD DUP1 DUP4 SUB DUP2 DUP7 GAS STATICCALL ISZERO DUP1 ISZERO PUSH2 0x599 JUMPI RETURNDATASIZE PUSH1 0x0 DUP1 RETURNDATACOPY RETURNDATASIZE PUSH1 0x0 REVERT JUMPDEST POP POP POP POP PUSH1 0x40 MLOAD RETURNDATASIZE PUSH1 0x1F NOT PUSH1 0x1F DUP3 ADD AND DUP3 ADD DUP1 PUSH1 0x40 MSTORE POP DUP2 ADD SWAP1 PUSH2 0x5BD SWAP2 SWAP1 PUSH2 0x2468 JUMP JUMPDEST LT ISZERO PUSH2 0x5FE JUMPI PUSH1 0x40 MLOAD PUSH32 0x8C379A000000000000000000000000000000000000000000000000000000000 DUP2 MSTORE PUSH1 0x4 ADD PUSH2 0x5F5 SWAP1 PUSH2 0x252D JUMP JUMPDEST PUSH1 0x40 MLOAD DUP1 SWAP2 SUB SWAP1 REVERT JUMPDEST PUSH1 0x0 DUP5 GT PUSH2 0x641 JUMPI PUSH1 0x40 MLOAD PUSH32 0x8C379A000000000000000000000000000000000000000000000000000000000 DUP2 MSTORE PUSH1 0x4 ADD PUSH2 0x638 SWAP1 PUSH2 0x25BF JUMP JUMPDEST PUSH1 0x40 MLOAD DUP1 SWAP2 SUB SWAP1 REVERT JUMPDEST PUSH1 0x0 DUP2 GT PUSH2 0x684 JUMPI PUSH1 0x40 MLOAD PUSH32 0x8C379A000000000000000000000000000000000000000000000000000000000 DUP2 MSTORE PUSH1 0x4 ADD PUSH2 0x67B SWAP1 PUSH2 0x262B JUMP JUMPDEST PUSH1 0x40 MLOAD DUP1 SWAP2 SUB SWAP1 REVERT JUMPDEST PUSH1 0x1 DUP4 LT ISZERO PUSH2 0x6C8 JUMPI PUSH1 0x40 MLOAD PUSH32 0x8C379A000000000000000000000000000000000000000000000000000000000 DUP2 MSTORE PUSH1 0x4 ADD PUSH2 0x6BF SWAP1 PUSH2 0x26BD JUMP JUMPDEST PUSH1 0x40 MLOAD DUP1 SWAP2 SUB SWAP1 REVERT JUMPDEST PUSH1 0x0 ADDRESS PUSH20 0xFFFFFFFFFFFFFFFFFFFFFFFFFFFFFFFFFFFFFFFF AND PUSH4 0xF7C469F0 DUP10 PUSH1 0x40 MLOAD DUP3 PUSH4 0xFFFFFFFF AND PUSH1 0xE0 SHL DUP2 MSTORE PUSH1 0x4 ADD PUSH2 0x703 SWAP2 SWAP1 PUSH2 0x213F JUMP JUMPDEST PUSH1 0x20 PUSH1 0x40 MLOAD DUP1 DUP4 SUB DUP2 DUP7 GAS STATICCALL ISZERO DUP1 ISZERO PUSH2 0x720 JUMPI RETURNDATASIZE PUSH1 0x0 DUP1 RETURNDATACOPY RETURNDATASIZE PUSH1 0x0 REVERT JUMPDEST POP POP POP POP PUSH1 0x40 MLOAD RETURNDATASIZE PUSH1 0x1F NOT PUSH1 0x1F DUP3 ADD AND DUP3 ADD DUP1 PUSH1 0x40 MSTORE POP DUP2 ADD SWAP1 PUSH2 0x744 SWAP2 SWAP1 PUSH2 0x26F2 JUMP JUMPDEST SWAP1 POP PUSH1 0x0 PUSH2 0x75B DUP8 DUP10 PUSH2 0x19D5 SWAP1 SWAP2 SWAP1 PUSH4 0xFFFFFFFF AND JUMP JUMPDEST SWAP1 POP PUSH1 0x40 MLOAD DUP1 PUSH2 0x140 ADD PUSH1 0x40 MSTORE DUP1 PUSH1 0x1 ISZERO ISZERO DUP2 MSTORE PUSH1 0x20 ADD DUP11 PUSH20 0xFFFFFFFFFFFFFFFFFFFFFFFFFFFFFFFFFFFFFFFF AND DUP2 MSTORE PUSH1 0x20 ADD DUP3 DUP2 MSTORE PUSH1 0x20 ADD DUP10 DUP2 MSTORE PUSH1 0x20 ADD DUP8 DUP2 MSTORE PUSH1 0x20 ADD DUP7 DUP2 MSTORE PUSH1 0x20 ADD DUP6 ISZERO ISZERO DUP2 MSTORE PUSH1 0x20 ADD DUP5 DUP2 MSTORE PUSH1 0x20 ADD PUSH1 0x0 DUP2 MSTORE PUSH1 0x20 ADD PUSH1 0x0 ISZERO ISZERO DUP2 MSTORE POP PUSH1 0x3 PUSH1 0x0 DUP5 DUP2 MSTORE PUSH1 0x20 ADD SWAP1 DUP2 MSTORE PUSH1 0x20 ADD PUSH1 0x0 KECCAK256 PUSH1 0x0 DUP3 ADD MLOAD DUP2 PUSH1 0x0 ADD PUSH1 0x0 PUSH2 0x100 EXP DUP2 SLOAD DUP2 PUSH1 0xFF MUL NOT AND SWAP1 DUP4 ISZERO ISZERO MUL OR SWAP1 SSTORE POP PUSH1 0x20 DUP3 ADD MLOAD DUP2 PUSH1 0x0 ADD PUSH1 0x1 PUSH2 0x100 EXP DUP2 SLOAD DUP2 PUSH20 0xFFFFFFFFFFFFFFFFFFFFFFFFFFFFFFFFFFFFFFFF MUL NOT AND SWAP1 DUP4 PUSH20 0xFFFFFFFFFFFFFFFFFFFFFFFFFFFFFFFFFFFFFFFF AND MUL OR SWAP1 SSTORE POP PUSH1 0x40 DUP3 ADD MLOAD DUP2 PUSH1 0x1 ADD SSTORE PUSH1 0x60 DUP3 ADD MLOAD DUP2 PUSH1 0x2 ADD SSTORE PUSH1 0x80 DUP3 ADD MLOAD DUP2 PUSH1 0x3 ADD SSTORE PUSH1 0xA0 DUP3 ADD MLOAD DUP2 PUSH1 0x4 ADD SSTORE PUSH1 0xC0 DUP3 ADD MLOAD DUP2 PUSH1 0x5 ADD PUSH1 0x0 PUSH2 0x100 EXP DUP2 SLOAD DUP2 PUSH1 0xFF MUL NOT AND SWAP1 DUP4 ISZERO ISZERO MUL OR SWAP1 SSTORE POP PUSH1 0xE0 DUP3 ADD MLOAD DUP2 PUSH1 0x6 ADD SSTORE PUSH2 0x100 DUP3 ADD MLOAD DUP2 PUSH1 0x7 ADD SSTORE PUSH2 0x120 DUP3 ADD MLOAD DUP2 PUSH1 0x8 ADD PUSH1 0x0 PUSH2 0x100 EXP DUP2 SLOAD DUP2 PUSH1 0xFF MUL NOT AND SWAP1 DUP4 ISZERO ISZERO MUL OR SWAP1 SSTORE POP SWAP1 POP POP PUSH2 0x8D2 DUP4 PUSH1 0x4 SLOAD PUSH2 0x19D5 SWAP1 SWAP2 SWAP1 PUSH4 0xFFFFFFFF AND JUMP JUMPDEST PUSH1 0x4 DUP2 SWAP1 SSTORE POP PUSH1 0x2 DUP3 SWAP1 DUP1 PUSH1 0x1 DUP2 SLOAD ADD DUP1 DUP3 SSTORE DUP1 SWAP2 POP POP PUSH1 0x1 SWAP1 SUB SWAP1 PUSH1 0x0 MSTORE PUSH1 0x20 PUSH1 0x0 KECCAK256 ADD PUSH1 0x0 SWAP1 SWAP2 SWAP1 SWAP2 SWAP1 SWAP2 POP SSTORE PUSH1 0x0 PUSH1 0x5 PUSH1 0x0 DUP12 PUSH20 0xFFFFFFFFFFFFFFFFFFFFFFFFFFFFFFFFFFFFFFFF AND PUSH20 0xFFFFFFFFFFFFFFFFFFFFFFFFFFFFFFFFFFFFFFFF AND DUP2 MSTORE PUSH1 0x20 ADD SWAP1 DUP2 MSTORE PUSH1 0x20 ADD PUSH1 0x0 KECCAK256 SLOAD SWAP1 POP PUSH2 0x959 PUSH1 0x1 DUP3 PUSH2 0x19D5 SWAP1 SWAP2 SWAP1 PUSH4 0xFFFFFFFF AND JUMP JUMPDEST PUSH1 0x5 PUSH1 0x0 DUP13 PUSH20 0xFFFFFFFFFFFFFFFFFFFFFFFFFFFFFFFFFFFFFFFF AND PUSH20 0xFFFFFFFFFFFFFFFFFFFFFFFFFFFFFFFFFFFFFFFF AND DUP2 MSTORE PUSH1 0x20 ADD SWAP1 DUP2 MSTORE PUSH1 0x20 ADD PUSH1 0x0 KECCAK256 DUP2 SWAP1 SSTORE POP POP POP POP POP POP POP POP POP POP POP JUMP JUMPDEST PUSH1 0x0 PUSH32 0x0 SWAP1 POP SWAP1 JUMP JUMPDEST PUSH1 0x2 PUSH1 0x1 SLOAD SUB PUSH2 0xA15 JUMPI PUSH1 0x40 MLOAD PUSH32 0x8C379A000000000000000000000000000000000000000000000000000000000 DUP2 MSTORE PUSH1 0x4 ADD PUSH2 0xA0C SWAP1 PUSH2 0x276B JUMP JUMPDEST PUSH1 0x40 MLOAD DUP1 SWAP2 SUB SWAP1 REVERT JUMPDEST PUSH1 0x2 PUSH1 0x1 DUP2 SWAP1 SSTORE POP PUSH2 0xA25 PUSH2 0x19CD JUMP JUMPDEST PUSH20 0xFFFFFFFFFFFFFFFFFFFFFFFFFFFFFFFFFFFFFFFF AND PUSH2 0xA43 PUSH2 0x11BD JUMP JUMPDEST PUSH20 0xFFFFFFFFFFFFFFFFFFFFFFFFFFFFFFFFFFFFFFFF AND EQ PUSH2 0xA99 JUMPI PUSH1 0x40 MLOAD PUSH32 0x8C379A000000000000000000000000000000000000000000000000000000000 DUP2 MSTORE PUSH1 0x4 ADD PUSH2 0xA90 SWAP1 PUSH2 0x2433 JUMP JUMPDEST PUSH1 0x40 MLOAD DUP1 SWAP2 SUB SWAP1 REVERT JUMPDEST DUP1 ADDRESS PUSH20 0xFFFFFFFFFFFFFFFFFFFFFFFFFFFFFFFFFFFFFFFF AND PUSH4 0x90BE10CC PUSH1 0x40 MLOAD DUP2 PUSH4 0xFFFFFFFF AND PUSH1 0xE0 SHL DUP2 MSTORE PUSH1 0x4 ADD PUSH1 0x20 PUSH1 0x40 MLOAD DUP1 DUP4 SUB DUP2 DUP7 GAS STATICCALL ISZERO DUP1 ISZERO PUSH2 0xAE5 JUMPI RETURNDATASIZE PUSH1 0x0 DUP1 RETURNDATACOPY RETURNDATASIZE PUSH1 0x0 REVERT JUMPDEST POP POP POP POP PUSH1 0x40 MLOAD RETURNDATASIZE PUSH1 0x1F NOT PUSH1 0x1F DUP3 ADD AND DUP3 ADD DUP1 PUSH1 0x40 MSTORE POP DUP2 ADD SWAP1 PUSH2 0xB09 SWAP2 SWAP1 PUSH2 0x2468 JUMP JUMPDEST LT ISZERO PUSH2 0xB4A JUMPI PUSH1 0x40 MLOAD PUSH32 0x8C379A000000000000000000000000000000000000000000000000000000000 DUP2 MSTORE PUSH1 0x4 ADD PUSH2 0xB41 SWAP1 PUSH2 0x27FD JUMP JUMPDEST PUSH1 0x40 MLOAD DUP1 SWAP2 SUB SWAP1 REVERT JUMPDEST PUSH2 0xB9C PUSH2 0xB55 PUSH2 0x11BD JUMP JUMPDEST DUP3 PUSH32 0x0 PUSH20 0xFFFFFFFFFFFFFFFFFFFFFFFFFFFFFFFFFFFFFFFF AND PUSH2 0x19EB SWAP1 SWAP3 SWAP2 SWAP1 PUSH4 0xFFFFFFFF AND JUMP JUMPDEST PUSH1 0x1 DUP1 DUP2 SWAP1 SSTORE POP POP JUMP JUMPDEST PUSH1 0x0 PUSH1 0x4 SLOAD SWAP1 POP SWAP1 JUMP JUMPDEST PUSH1 0x0 PUSH1 0x5 PUSH1 0x0 DUP4 PUSH20 0xFFFFFFFFFFFFFFFFFFFFFFFFFFFFFFFFFFFFFFFF AND PUSH20 0xFFFFFFFFFFFFFFFFFFFFFFFFFFFFFFFFFFFFFFFF AND DUP2 MSTORE PUSH1 0x20 ADD SWAP1 DUP2 MSTORE PUSH1 0x20 ADD PUSH1 0x0 KECCAK256 SLOAD SWAP1 POP SWAP2 SWAP1 POP JUMP JUMPDEST PUSH1 0x2 PUSH1 0x1 SLOAD SUB PUSH2 0xC3E JUMPI PUSH1 0x40 MLOAD PUSH32 0x8C379A000000000000000000000000000000000000000000000000000000000 DUP2 MSTORE PUSH1 0x4 ADD PUSH2 0xC35 SWAP1 PUSH2 0x276B JUMP JUMPDEST PUSH1 0x40 MLOAD DUP1 SWAP2 SUB SWAP1 REVERT JUMPDEST PUSH1 0x2 PUSH1 0x1 DUP2 SWAP1 SSTORE POP DUP2 PUSH1 0x1 ISZERO ISZERO PUSH1 0x3 PUSH1 0x0 DUP4 DUP2 MSTORE PUSH1 0x20 ADD SWAP1 DUP2 MSTORE PUSH1 0x20 ADD PUSH1 0x0 KECCAK256 PUSH1 0x0 ADD PUSH1 0x0 SWAP1 SLOAD SWAP1 PUSH2 0x100 EXP SWAP1 DIV PUSH1 0xFF AND ISZERO ISZERO EQ PUSH2 0xC7B JUMPI PUSH1 0x0 DUP1 REVERT JUMPDEST PUSH1 0x0 ISZERO ISZERO PUSH1 0x3 PUSH1 0x0 DUP4 DUP2 MSTORE PUSH1 0x20 ADD SWAP1 DUP2 MSTORE PUSH1 0x20 ADD PUSH1 0x0 KECCAK256 PUSH1 0x8 ADD PUSH1 0x0 SWAP1 SLOAD SWAP1 PUSH2 0x100 EXP SWAP1 DIV PUSH1 0xFF AND ISZERO ISZERO EQ PUSH2 0xCAF JUMPI PUSH1 0x0 DUP1 REVERT JUMPDEST PUSH1 0x0 PUSH1 0x3 PUSH1 0x0 DUP6 DUP2 MSTORE PUSH1 0x20 ADD SWAP1 DUP2 MSTORE PUSH1 0x20 ADD PUSH1 0x0 KECCAK256 SWAP1 POP PUSH1 0x0 DUP2 PUSH1 0x0 ADD PUSH1 0x1 SWAP1 SLOAD SWAP1 PUSH2 0x100 EXP SWAP1 DIV PUSH20 0xFFFFFFFFFFFFFFFFFFFFFFFFFFFFFFFFFFFFFFFF AND PUSH20 0xFFFFFFFFFFFFFFFFFFFFFFFFFFFFFFFFFFFFFFFF AND CALLER PUSH20 0xFFFFFFFFFFFFFFFFFFFFFFFFFFFFFFFFFFFFFFFF AND EQ SWAP1 POP PUSH1 0x0 PUSH2 0xD27 PUSH2 0x11BD JUMP JUMPDEST PUSH20 0xFFFFFFFFFFFFFFFFFFFFFFFFFFFFFFFFFFFFFFFF AND CALLER PUSH20 0xFFFFFFFFFFFFFFFFFFFFFFFFFFFFFFFFFFFFFFFF AND EQ SWAP1 POP DUP2 DUP1 PUSH2 0xD60 JUMPI POP DUP1 JUMPDEST PUSH2 0xD9F JUMPI PUSH1 0x40 MLOAD PUSH32 0x8C379A000000000000000000000000000000000000000000000000000000000 DUP2 MSTORE PUSH1 0x4 ADD PUSH2 0xD96 SWAP1 PUSH2 0x28B5 JUMP JUMPDEST PUSH1 0x40 MLOAD DUP1 SWAP2 SUB SWAP1 REVERT JUMPDEST PUSH1 0x0 PUSH2 0xE99 DUP5 PUSH1 0x40 MLOAD DUP1 PUSH2 0x140 ADD PUSH1 0x40 MSTORE SWAP1 DUP2 PUSH1 0x0 DUP3 ADD PUSH1 0x0 SWAP1 SLOAD SWAP1 PUSH2 0x100 EXP SWAP1 DIV PUSH1 0xFF AND ISZERO ISZERO ISZERO ISZERO DUP2 MSTORE PUSH1 0x20 ADD PUSH1 0x0 DUP3 ADD PUSH1 0x1 SWAP1 SLOAD SWAP1 PUSH2 0x100 EXP SWAP1 DIV PUSH20 0xFFFFFFFFFFFFFFFFFFFFFFFFFFFFFFFFFFFFFFFF AND PUSH20 0xFFFFFFFFFFFFFFFFFFFFFFFFFFFFFFFFFFFFFFFF AND PUSH20 0xFFFFFFFFFFFFFFFFFFFFFFFFFFFFFFFFFFFFFFFF AND DUP2 MSTORE PUSH1 0x20 ADD PUSH1 0x1 DUP3 ADD SLOAD DUP2 MSTORE PUSH1 0x20 ADD PUSH1 0x2 DUP3 ADD SLOAD DUP2 MSTORE PUSH1 0x20 ADD PUSH1 0x3 DUP3 ADD SLOAD DUP2 MSTORE PUSH1 0x20 ADD PUSH1 0x4 DUP3 ADD SLOAD DUP2 MSTORE PUSH1 0x20 ADD PUSH1 0x5 DUP3 ADD PUSH1 0x0 SWAP1 SLOAD SWAP1 PUSH2 0x100 EXP SWAP1 DIV PUSH1 0xFF AND ISZERO ISZERO ISZERO ISZERO DUP2 MSTORE PUSH1 0x20 ADD PUSH1 0x6 DUP3 ADD SLOAD DUP2 MSTORE PUSH1 0x20 ADD PUSH1 0x7 DUP3 ADD SLOAD DUP2 MSTORE PUSH1 0x20 ADD PUSH1 0x8 DUP3 ADD PUSH1 0x0 SWAP1 SLOAD SWAP1 PUSH2 0x100 EXP SWAP1 DIV PUSH1 0xFF AND ISZERO ISZERO ISZERO ISZERO DUP2 MSTORE POP POP PUSH2 0x1A71 JUMP JUMPDEST SWAP1 POP DUP6 DUP2 LT ISZERO PUSH2 0xEDE JUMPI PUSH1 0x40 MLOAD PUSH32 0x8C379A000000000000000000000000000000000000000000000000000000000 DUP2 MSTORE PUSH1 0x4 ADD PUSH2 0xED5 SWAP1 PUSH2 0x2947 JUMP JUMPDEST PUSH1 0x40 MLOAD DUP1 SWAP2 SUB SWAP1 REVERT JUMPDEST PUSH2 0xEF5 DUP7 DUP6 PUSH1 0x7 ADD SLOAD PUSH2 0x19D5 SWAP1 SWAP2 SWAP1 PUSH4 0xFFFFFFFF AND JUMP JUMPDEST DUP5 PUSH1 0x7 ADD DUP2 SWAP1 SSTORE POP PUSH1 0x0 DUP5 PUSH1 0x0 ADD PUSH1 0x1 SWAP1 SLOAD SWAP1 PUSH2 0x100 EXP SWAP1 DIV PUSH20 0xFFFFFFFFFFFFFFFFFFFFFFFFFFFFFFFFFFFFFFFF AND SWAP1 POP PUSH2 0xF3B DUP8 PUSH1 0x4 SLOAD PUSH2 0x1B99 SWAP1 SWAP2 SWAP1 PUSH4 0xFFFFFFFF AND JUMP JUMPDEST PUSH1 0x4 DUP2 SWAP1 SSTORE POP PUSH2 0xF8C DUP2 DUP9 PUSH32 0x0 PUSH20 0xFFFFFFFFFFFFFFFFFFFFFFFFFFFFFFFFFFFFFFFF AND PUSH2 0x19EB SWAP1 SWAP3 SWAP2 SWAP1 PUSH4 0xFFFFFFFF AND JUMP JUMPDEST POP POP POP POP POP POP PUSH1 0x1 DUP1 DUP2 SWAP1 SSTORE POP POP POP JUMP JUMPDEST PUSH2 0xFA5 PUSH2 0x19CD JUMP JUMPDEST PUSH20 0xFFFFFFFFFFFFFFFFFFFFFFFFFFFFFFFFFFFFFFFF AND PUSH2 0xFC3 PUSH2 0x11BD JUMP JUMPDEST PUSH20 0xFFFFFFFFFFFFFFFFFFFFFFFFFFFFFFFFFFFFFFFF AND EQ PUSH2 0x1019 JUMPI PUSH1 0x40 MLOAD PUSH32 0x8C379A000000000000000000000000000000000000000000000000000000000 DUP2 MSTORE PUSH1 0x4 ADD PUSH2 0x1010 SWAP1 PUSH2 0x2433 JUMP JUMPDEST PUSH1 0x40 MLOAD DUP1 SWAP2 SUB SWAP1 REVERT JUMPDEST PUSH2 0x1023 PUSH1 0x0 PUSH2 0x1BAF JUMP JUMPDEST JUMP JUMPDEST PUSH2 0x102D PUSH2 0x1F24 JUMP JUMPDEST PUSH1 0x3 PUSH1 0x0 PUSH2 0x1086 DUP5 PUSH1 0x1 PUSH1 0x5 PUSH1 0x0 DUP9 PUSH20 0xFFFFFFFFFFFFFFFFFFFFFFFFFFFFFFFFFFFFFFFF AND PUSH20 0xFFFFFFFFFFFFFFFFFFFFFFFFFFFFFFFFFFFFFFFF AND DUP2 MSTORE PUSH1 0x20 ADD SWAP1 DUP2 MSTORE PUSH1 0x20 ADD PUSH1 0x0 KECCAK256 SLOAD PUSH2 0x1081 SWAP2 SWAP1 PUSH2 0x2996 JUMP JUMPDEST PUSH2 0x118A JUMP JUMPDEST DUP2 MSTORE PUSH1 0x20 ADD SWAP1 DUP2 MSTORE PUSH1 0x20 ADD PUSH1 0x0 KECCAK256 PUSH1 0x40 MLOAD DUP1 PUSH2 0x140 ADD PUSH1 0x40 MSTORE SWAP1 DUP2 PUSH1 0x0 DUP3 ADD PUSH1 0x0 SWAP1 SLOAD SWAP1 PUSH2 0x100 EXP SWAP1 DIV PUSH1 0xFF AND ISZERO ISZERO ISZERO ISZERO DUP2 MSTORE PUSH1 0x20 ADD PUSH1 0x0 DUP3 ADD PUSH1 0x1 SWAP1 SLOAD SWAP1 PUSH2 0x100 EXP SWAP1 DIV PUSH20 0xFFFFFFFFFFFFFFFFFFFFFFFFFFFFFFFFFFFFFFFF AND PUSH20 0xFFFFFFFFFFFFFFFFFFFFFFFFFFFFFFFFFFFFFFFF AND PUSH20 0xFFFFFFFFFFFFFFFFFFFFFFFFFFFFFFFFFFFFFFFF AND DUP2 MSTORE PUSH1 0x20 ADD PUSH1 0x1 DUP3 ADD SLOAD DUP2 MSTORE PUSH1 0x20 ADD PUSH1 0x2 DUP3 ADD SLOAD DUP2 MSTORE PUSH1 0x20 ADD PUSH1 0x3 DUP3 ADD SLOAD DUP2 MSTORE PUSH1 0x20 ADD PUSH1 0x4 DUP3 ADD SLOAD DUP2 MSTORE PUSH1 0x20 ADD PUSH1 0x5 DUP3 ADD PUSH1 0x0 SWAP1 SLOAD SWAP1 PUSH2 0x100 EXP SWAP1 DIV PUSH1 0xFF AND ISZERO ISZERO ISZERO ISZERO DUP2 MSTORE PUSH1 0x20 ADD PUSH1 0x6 DUP3 ADD SLOAD DUP2 MSTORE PUSH1 0x20 ADD PUSH1 0x7 DUP3 ADD SLOAD DUP2 MSTORE PUSH1 0x20 ADD PUSH1 0x8 DUP3 ADD PUSH1 0x0 SWAP1 SLOAD SWAP1 PUSH2 0x100 EXP SWAP1 DIV PUSH1 0xFF AND ISZERO ISZERO ISZERO ISZERO DUP2 MSTORE POP POP SWAP1 POP SWAP2 SWAP1 POP JUMP JUMPDEST PUSH1 0x0 DUP3 DUP3 PUSH1 0x40 MLOAD PUSH1 0x20 ADD PUSH2 0x119F SWAP3 SWAP2 SWAP1 PUSH2 0x2A33 JUMP JUMPDEST PUSH1 0x40 MLOAD PUSH1 0x20 DUP2 DUP4 SUB SUB DUP2 MSTORE SWAP1 PUSH1 0x40 MSTORE DUP1 MLOAD SWAP1 PUSH1 0x20 ADD KECCAK256 SWAP1 POP SWAP3 SWAP2 POP POP JUMP JUMPDEST PUSH1 0x0 DUP1 PUSH1 0x0 SWAP1 SLOAD SWAP1 PUSH2 0x100 EXP SWAP1 DIV PUSH20 0xFFFFFFFFFFFFFFFFFFFFFFFFFFFFFFFFFFFFFFFF AND SWAP1 POP SWAP1 JUMP JUMPDEST PUSH1 0x0 PUSH2 0x1296 PUSH1 0x4 SLOAD PUSH32 0x0 PUSH20 0xFFFFFFFFFFFFFFFFFFFFFFFFFFFFFFFFFFFFFFFF AND PUSH4 0x70A08231 ADDRESS PUSH1 0x40 MLOAD DUP3 PUSH4 0xFFFFFFFF AND PUSH1 0xE0 SHL DUP2 MSTORE PUSH1 0x4 ADD PUSH2 0x1247 SWAP2 SWAP1 PUSH2 0x213F JUMP JUMPDEST PUSH1 0x20 PUSH1 0x40 MLOAD DUP1 DUP4 SUB DUP2 DUP7 GAS STATICCALL ISZERO DUP1 ISZERO PUSH2 0x1264 JUMPI RETURNDATASIZE PUSH1 0x0 DUP1 RETURNDATACOPY RETURNDATASIZE PUSH1 0x0 REVERT JUMPDEST POP POP POP POP PUSH1 0x40 MLOAD RETURNDATASIZE PUSH1 0x1F NOT PUSH1 0x1F DUP3 ADD AND DUP3 ADD DUP1 PUSH1 0x40 MSTORE POP DUP2 ADD SWAP1 PUSH2 0x1288 SWAP2 SWAP1 PUSH2 0x2468 JUMP JUMPDEST PUSH2 0x1B99 SWAP1 SWAP2 SWAP1 PUSH4 0xFFFFFFFF AND JUMP JUMPDEST SWAP1 POP SWAP1 JUMP JUMPDEST PUSH2 0x12A3 PUSH2 0x1F24 JUMP JUMPDEST PUSH1 0x3 PUSH1 0x0 DUP4 DUP2 MSTORE PUSH1 0x20 ADD SWAP1 DUP2 MSTORE PUSH1 0x20 ADD PUSH1 0x0 KECCAK256 PUSH1 0x40 MLOAD DUP1 PUSH2 0x140 ADD PUSH1 0x40 MSTORE SWAP1 DUP2 PUSH1 0x0 DUP3 ADD PUSH1 0x0 SWAP1 SLOAD SWAP1 PUSH2 0x100 EXP SWAP1 DIV PUSH1 0xFF AND ISZERO ISZERO ISZERO ISZERO DUP2 MSTORE PUSH1 0x20 ADD PUSH1 0x0 DUP3 ADD PUSH1 0x1 SWAP1 SLOAD SWAP1 PUSH2 0x100 EXP SWAP1 DIV PUSH20 0xFFFFFFFFFFFFFFFFFFFFFFFFFFFFFFFFFFFFFFFF AND PUSH20 0xFFFFFFFFFFFFFFFFFFFFFFFFFFFFFFFFFFFFFFFF AND PUSH20 0xFFFFFFFFFFFFFFFFFFFFFFFFFFFFFFFFFFFFFFFF AND DUP2 MSTORE PUSH1 0x20 ADD PUSH1 0x1 DUP3 ADD SLOAD DUP2 MSTORE PUSH1 0x20 ADD PUSH1 0x2 DUP3 ADD SLOAD DUP2 MSTORE PUSH1 0x20 ADD PUSH1 0x3 DUP3 ADD SLOAD DUP2 MSTORE PUSH1 0x20 ADD PUSH1 0x4 DUP3 ADD SLOAD DUP2 MSTORE PUSH1 0x20 ADD PUSH1 0x5 DUP3 ADD PUSH1 0x0 SWAP1 SLOAD SWAP1 PUSH2 0x100 EXP SWAP1 DIV PUSH1 0xFF AND ISZERO ISZERO ISZERO ISZERO DUP2 MSTORE PUSH1 0x20 ADD PUSH1 0x6 DUP3 ADD SLOAD DUP2 MSTORE PUSH1 0x20 ADD PUSH1 0x7 DUP3 ADD SLOAD DUP2 MSTORE PUSH1 0x20 ADD PUSH1 0x8 DUP3 ADD PUSH1 0x0 SWAP1 SLOAD SWAP1 PUSH2 0x100 EXP SWAP1 DIV PUSH1 0xFF AND ISZERO ISZERO ISZERO ISZERO DUP2 MSTORE POP POP SWAP1 POP SWAP2 SWAP1 POP JUMP JUMPDEST PUSH2 0x13B4 PUSH2 0x19CD JUMP JUMPDEST PUSH20 0xFFFFFFFFFFFFFFFFFFFFFFFFFFFFFFFFFFFFFFFF AND PUSH2 0x13D2 PUSH2 0x11BD JUMP JUMPDEST PUSH20 0xFFFFFFFFFFFFFFFFFFFFFFFFFFFFFFFFFFFFFFFF AND EQ PUSH2 0x1428 JUMPI PUSH1 0x40 MLOAD PUSH32 0x8C379A000000000000000000000000000000000000000000000000000000000 DUP2 MSTORE PUSH1 0x4 ADD PUSH2 0x141F SWAP1 PUSH2 0x2433 JUMP JUMPDEST PUSH1 0x40 MLOAD DUP1 SWAP2 SUB SWAP1 REVERT JUMPDEST DUP1 PUSH1 0x1 ISZERO ISZERO PUSH1 0x3 PUSH1 0x0 DUP4 DUP2 MSTORE PUSH1 0x20 ADD SWAP1 DUP2 MSTORE PUSH1 0x20 ADD PUSH1 0x0 KECCAK256 PUSH1 0x0 ADD PUSH1 0x0 SWAP1 SLOAD SWAP1 PUSH2 0x100 EXP SWAP1 DIV PUSH1 0xFF AND ISZERO ISZERO EQ PUSH2 0x145D JUMPI PUSH1 0x0 DUP1 REVERT JUMPDEST PUSH1 0x0 ISZERO ISZERO PUSH1 0x3 PUSH1 0x0 DUP4 DUP2 MSTORE PUSH1 0x20 ADD SWAP1 DUP2 MSTORE PUSH1 0x20 ADD PUSH1 0x0 KECCAK256 PUSH1 0x8 ADD PUSH1 0x0 SWAP1 SLOAD SWAP1 PUSH2 0x100 EXP SWAP1 DIV PUSH1 0xFF AND ISZERO ISZERO EQ PUSH2 0x1491 JUMPI PUSH1 0x0 DUP1 REVERT JUMPDEST PUSH1 0x0 PUSH1 0x3 PUSH1 0x0 DUP5 DUP2 MSTORE PUSH1 0x20 ADD SWAP1 DUP2 MSTORE PUSH1 0x20 ADD PUSH1 0x0 KECCAK256 SWAP1 POP PUSH1 0x1 ISZERO ISZERO DUP2 PUSH1 0x5 ADD PUSH1 0x0 SWAP1 SLOAD SWAP1 PUSH2 0x100 EXP SWAP1 DIV PUSH1 0xFF AND ISZERO ISZERO EQ PUSH2 0x1500 JUMPI PUSH1 0x40 MLOAD PUSH32 0x8C379A000000000000000000000000000000000000000000000000000000000 DUP2 MSTORE PUSH1 0x4 ADD PUSH2 0x14F7 SWAP1 PUSH2 0x2AD1 JUMP JUMPDEST PUSH1 0x40 MLOAD DUP1 SWAP2 SUB SWAP1 REVERT JUMPDEST PUSH1 0x0 PUSH2 0x15FA DUP3 PUSH1 0x40 MLOAD DUP1 PUSH2 0x140 ADD PUSH1 0x40 MSTORE SWAP1 DUP2 PUSH1 0x0 DUP3 ADD PUSH1 0x0 SWAP1 SLOAD SWAP1 PUSH2 0x100 EXP SWAP1 DIV PUSH1 0xFF AND ISZERO ISZERO ISZERO ISZERO DUP2 MSTORE PUSH1 0x20 ADD PUSH1 0x0 DUP3 ADD PUSH1 0x1 SWAP1 SLOAD SWAP1 PUSH2 0x100 EXP SWAP1 DIV PUSH20 0xFFFFFFFFFFFFFFFFFFFFFFFFFFFFFFFFFFFFFFFF AND PUSH20 0xFFFFFFFFFFFFFFFFFFFFFFFFFFFFFFFFFFFFFFFF AND PUSH20 0xFFFFFFFFFFFFFFFFFFFFFFFFFFFFFFFFFFFFFFFF AND DUP2 MSTORE PUSH1 0x20 ADD PUSH1 0x1 DUP3 ADD SLOAD DUP2 MSTORE PUSH1 0x20 ADD PUSH1 0x2 DUP3 ADD SLOAD DUP2 MSTORE PUSH1 0x20 ADD PUSH1 0x3 DUP3 ADD SLOAD DUP2 MSTORE PUSH1 0x20 ADD PUSH1 0x4 DUP3 ADD SLOAD DUP2 MSTORE PUSH1 0x20 ADD PUSH1 0x5 DUP3 ADD PUSH1 0x0 SWAP1 SLOAD SWAP1 PUSH2 0x100 EXP SWAP1 DIV PUSH1 0xFF AND ISZERO ISZERO ISZERO ISZERO DUP2 MSTORE PUSH1 0x20 ADD PUSH1 0x6 DUP3 ADD SLOAD DUP2 MSTORE PUSH1 0x20 ADD PUSH1 0x7 DUP3 ADD SLOAD DUP2 MSTORE PUSH1 0x20 ADD PUSH1 0x8 DUP3 ADD PUSH1 0x0 SWAP1 SLOAD SWAP1 PUSH2 0x100 EXP SWAP1 DIV PUSH1 0xFF AND ISZERO ISZERO ISZERO ISZERO DUP2 MSTORE POP POP PUSH2 0x1A71 JUMP JUMPDEST SWAP1 POP PUSH1 0x0 DUP2 GT ISZERO PUSH2 0x1610 JUMPI PUSH2 0x160F DUP5 DUP3 PUSH2 0xBF9 JUMP JUMPDEST JUMPDEST PUSH1 0x0 PUSH2 0x162D DUP4 PUSH1 0x7 ADD SLOAD DUP5 PUSH1 0x6 ADD SLOAD PUSH2 0x1B99 SWAP1 SWAP2 SWAP1 PUSH4 0xFFFFFFFF AND JUMP JUMPDEST SWAP1 POP PUSH2 0x1644 DUP2 PUSH1 0x4 SLOAD PUSH2 0x1B99 SWAP1 SWAP2 SWAP1 PUSH4 0xFFFFFFFF AND JUMP JUMPDEST PUSH1 0x4 DUP2 SWAP1 SSTORE POP PUSH1 0x1 DUP4 PUSH1 0x8 ADD PUSH1 0x0 PUSH2 0x100 EXP DUP2 SLOAD DUP2 PUSH1 0xFF MUL NOT AND SWAP1 DUP4 ISZERO ISZERO MUL OR SWAP1 SSTORE POP POP POP POP POP POP JUMP JUMPDEST PUSH1 0x0 DUP2 PUSH1 0x1 ISZERO ISZERO PUSH1 0x3 PUSH1 0x0 DUP4 DUP2 MSTORE PUSH1 0x20 ADD SWAP1 DUP2 MSTORE PUSH1 0x20 ADD PUSH1 0x0 KECCAK256 PUSH1 0x0 ADD PUSH1 0x0 SWAP1 SLOAD SWAP1 PUSH2 0x100 EXP SWAP1 DIV PUSH1 0xFF AND ISZERO ISZERO EQ PUSH2 0x16A5 JUMPI PUSH1 0x0 DUP1 REVERT JUMPDEST PUSH1 0x0 ISZERO ISZERO PUSH1 0x3 PUSH1 0x0 DUP4 DUP2 MSTORE PUSH1 0x20 ADD SWAP1 DUP2 MSTORE PUSH1 0x20 ADD PUSH1 0x0 KECCAK256 PUSH1 0x8 ADD PUSH1 0x0 SWAP1 SLOAD SWAP1 PUSH2 0x100 EXP SWAP1 DIV PUSH1 0xFF AND ISZERO ISZERO EQ PUSH2 0x16D9 JUMPI PUSH1 0x0 DUP1 REVERT JUMPDEST PUSH1 0x0 PUSH1 0x3 PUSH1 0x0 DUP6 DUP2 MSTORE PUSH1 0x20 ADD SWAP1 DUP2 MSTORE PUSH1 0x20 ADD PUSH1 0x0 KECCAK256 SWAP1 POP PUSH2 0x17E8 DUP2 PUSH1 0x40 MLOAD DUP1 PUSH2 0x140 ADD PUSH1 0x40 MSTORE SWAP1 DUP2 PUSH1 0x0 DUP3 ADD PUSH1 0x0 SWAP1 SLOAD SWAP1 PUSH2 0x100 EXP SWAP1 DIV PUSH1 0xFF AND ISZERO ISZERO ISZERO ISZERO DUP2 MSTORE PUSH1 0x20 ADD PUSH1 0x0 DUP3 ADD PUSH1 0x1 SWAP1 SLOAD SWAP1 PUSH2 0x100 EXP SWAP1 DIV PUSH20 0xFFFFFFFFFFFFFFFFFFFFFFFFFFFFFFFFFFFFFFFF AND PUSH20 0xFFFFFFFFFFFFFFFFFFFFFFFFFFFFFFFFFFFFFFFF AND PUSH20 0xFFFFFFFFFFFFFFFFFFFFFFFFFFFFFFFFFFFFFFFF AND DUP2 MSTORE PUSH1 0x20 ADD PUSH1 0x1 DUP3 ADD SLOAD DUP2 MSTORE PUSH1 0x20 ADD PUSH1 0x2 DUP3 ADD SLOAD DUP2 MSTORE PUSH1 0x20 ADD PUSH1 0x3 DUP3 ADD SLOAD DUP2 MSTORE PUSH1 0x20 ADD PUSH1 0x4 DUP3 ADD SLOAD DUP2 MSTORE PUSH1 0x20 ADD PUSH1 0x5 DUP3 ADD PUSH1 0x0 SWAP1 SLOAD SWAP1 PUSH2 0x100 EXP SWAP1 DIV PUSH1 0xFF AND ISZERO ISZERO ISZERO ISZERO DUP2 MSTORE PUSH1 0x20 ADD PUSH1 0x6 DUP3 ADD SLOAD DUP2 MSTORE PUSH1 0x20 ADD PUSH1 0x7 DUP3 ADD SLOAD DUP2 MSTORE PUSH1 0x20 ADD PUSH1 0x8 DUP3 ADD PUSH1 0x0 SWAP1 SLOAD SWAP1 PUSH2 0x100 EXP SWAP1 DIV PUSH1 0xFF AND ISZERO ISZERO ISZERO ISZERO DUP2 MSTORE POP POP PUSH2 0x1A71 JUMP JUMPDEST SWAP3 POP POP POP SWAP2 SWAP1 POP JUMP JUMPDEST PUSH2 0x17F9 PUSH2 0x19CD JUMP JUMPDEST PUSH20 0xFFFFFFFFFFFFFFFFFFFFFFFFFFFFFFFFFFFFFFFF AND PUSH2 0x1817 PUSH2 0x11BD JUMP JUMPDEST PUSH20 0xFFFFFFFFFFFFFFFFFFFFFFFFFFFFFFFFFFFFFFFF AND EQ PUSH2 0x186D JUMPI PUSH1 0x40 MLOAD PUSH32 0x8C379A000000000000000000000000000000000000000000000000000000000 DUP2 MSTORE PUSH1 0x4 ADD PUSH2 0x1864 SWAP1 PUSH2 0x2433 JUMP JUMPDEST PUSH1 0x40 MLOAD DUP1 SWAP2 SUB SWAP1 REVERT JUMPDEST PUSH1 0x0 PUSH20 0xFFFFFFFFFFFFFFFFFFFFFFFFFFFFFFFFFFFFFFFF AND DUP2 PUSH20 0xFFFFFFFFFFFFFFFFFFFFFFFFFFFFFFFFFFFFFFFF AND SUB PUSH2 0x18DC JUMPI PUSH1 0x40 MLOAD PUSH32 0x8C379A000000000000000000000000000000000000000000000000000000000 DUP2 MSTORE PUSH1 0x4 ADD PUSH2 0x18D3 SWAP1 PUSH2 0x2B63 JUMP JUMPDEST PUSH1 0x40 MLOAD DUP1 SWAP2 SUB SWAP1 REVERT JUMPDEST PUSH2 0x18E5 DUP2 PUSH2 0x1BAF JUMP JUMPDEST POP JUMP JUMPDEST PUSH2 0x18F0 PUSH2 0x1F24 JUMP JUMPDEST PUSH2 0x1902 PUSH2 0x18FD DUP5 DUP5 PUSH2 0x118A JUMP JUMPDEST PUSH2 0x129B JUMP JUMPDEST SWAP1 POP SWAP3 SWAP2 POP POP JUMP JUMPDEST PUSH1 0x0 PUSH2 0x1955 DUP3 PUSH1 0x5 PUSH1 0x0 DUP6 PUSH20 0xFFFFFFFFFFFFFFFFFFFFFFFFFFFFFFFFFFFFFFFF AND PUSH20 0xFFFFFFFFFFFFFFFFFFFFFFFFFFFFFFFFFFFFFFFF AND DUP2 MSTORE PUSH1 0x20 ADD SWAP1 DUP2 MSTORE PUSH1 0x20 ADD PUSH1 0x0 KECCAK256 SLOAD PUSH2 0x118A JUMP JUMPDEST SWAP1 POP SWAP2 SWAP1 POP JUMP JUMPDEST PUSH1 0x0 PUSH2 0x1966 PUSH2 0x4C4 JUMP JUMPDEST DUP3 LT PUSH2 0x19A7 JUMPI PUSH1 0x40 MLOAD PUSH32 0x8C379A000000000000000000000000000000000000000000000000000000000 DUP2 MSTORE PUSH1 0x4 ADD PUSH2 0x199E SWAP1 PUSH2 0x2BF5 JUMP JUMPDEST PUSH1 0x40 MLOAD DUP1 SWAP2 SUB SWAP1 REVERT JUMPDEST PUSH1 0x2 DUP3 DUP2 SLOAD DUP2 LT PUSH2 0x19BB JUMPI PUSH2 0x19BA PUSH2 0x2C15 JUMP JUMPDEST JUMPDEST SWAP1 PUSH1 0x0 MSTORE PUSH1 0x20 PUSH1 0x0 KECCAK256 ADD SLOAD SWAP1 POP SWAP2 SWAP1 POP JUMP JUMPDEST PUSH1 0x0 CALLER SWAP1 POP SWAP1 JUMP JUMPDEST PUSH1 0x0 DUP2 DUP4 PUSH2 0x19E3 SWAP2 SWAP1 PUSH2 0x2C44 JUMP JUMPDEST SWAP1 POP SWAP3 SWAP2 POP POP JUMP JUMPDEST PUSH2 0x1A6C DUP4 PUSH4 0xA9059CBB PUSH1 0xE0 SHL DUP5 DUP5 PUSH1 0x40 MLOAD PUSH1 0x24 ADD PUSH2 0x1A0A SWAP3 SWAP2 SWAP1 PUSH2 0x2C9A JUMP JUMPDEST PUSH1 0x40 MLOAD PUSH1 0x20 DUP2 DUP4 SUB SUB DUP2 MSTORE SWAP1 PUSH1 0x40 MSTORE SWAP1 PUSH28 0xFFFFFFFFFFFFFFFFFFFFFFFFFFFFFFFFFFFFFFFFFFFFFFFFFFFFFFFF NOT AND PUSH1 0x20 DUP3 ADD DUP1 MLOAD PUSH28 0xFFFFFFFFFFFFFFFFFFFFFFFFFFFFFFFFFFFFFFFFFFFFFFFFFFFFFFFF DUP4 DUP2 DUP4 AND OR DUP4 MSTORE POP POP POP POP PUSH2 0x1C73 JUMP JUMPDEST POP POP POP JUMP JUMPDEST PUSH1 0x0 DUP1 PUSH2 0x1A7C PUSH2 0x1D3A JUMP JUMPDEST SWAP1 POP DUP3 PUSH1 0x40 ADD MLOAD DUP2 LT DUP1 PUSH2 0x1A99 JUMPI POP PUSH1 0x1 ISZERO ISZERO DUP4 PUSH2 0x120 ADD MLOAD ISZERO ISZERO EQ JUMPDEST ISZERO PUSH2 0x1AA8 JUMPI PUSH1 0x0 SWAP2 POP POP PUSH2 0x1B94 JUMP JUMPDEST PUSH2 0x1AC3 DUP4 PUSH1 0x80 ADD MLOAD DUP5 PUSH1 0x60 ADD MLOAD PUSH2 0x19D5 SWAP1 SWAP2 SWAP1 PUSH4 0xFFFFFFFF AND JUMP JUMPDEST DUP2 LT PUSH2 0x1AED JUMPI PUSH2 0x1AE5 DUP4 PUSH2 0x100 ADD MLOAD DUP5 PUSH1 0xE0 ADD MLOAD PUSH2 0x1B99 SWAP1 SWAP2 SWAP1 PUSH4 0xFFFFFFFF AND JUMP JUMPDEST SWAP2 POP POP PUSH2 0x1B94 JUMP JUMPDEST PUSH1 0x0 PUSH2 0x1B06 DUP5 PUSH1 0x60 ADD MLOAD DUP4 PUSH2 0x1B99 SWAP1 SWAP2 SWAP1 PUSH4 0xFFFFFFFF AND JUMP JUMPDEST SWAP1 POP PUSH1 0x0 DUP5 PUSH1 0xA0 ADD MLOAD SWAP1 POP PUSH1 0x0 PUSH2 0x1B26 DUP3 DUP5 PUSH2 0x1D42 SWAP1 SWAP2 SWAP1 PUSH4 0xFFFFFFFF AND JUMP JUMPDEST SWAP1 POP PUSH1 0x0 PUSH2 0x1B3D DUP4 DUP4 PUSH2 0x1D58 SWAP1 SWAP2 SWAP1 PUSH4 0xFFFFFFFF AND JUMP JUMPDEST SWAP1 POP PUSH1 0x0 PUSH2 0x1B6E DUP9 PUSH1 0x80 ADD MLOAD PUSH2 0x1B60 DUP5 DUP12 PUSH1 0xE0 ADD MLOAD PUSH2 0x1D58 SWAP1 SWAP2 SWAP1 PUSH4 0xFFFFFFFF AND JUMP JUMPDEST PUSH2 0x1D42 SWAP1 SWAP2 SWAP1 PUSH4 0xFFFFFFFF AND JUMP JUMPDEST SWAP1 POP PUSH2 0x1B88 DUP9 PUSH2 0x100 ADD MLOAD DUP3 PUSH2 0x1B99 SWAP1 SWAP2 SWAP1 PUSH4 0xFFFFFFFF AND JUMP JUMPDEST SWAP1 POP DUP1 SWAP7 POP POP POP POP POP POP POP JUMPDEST SWAP2 SWAP1 POP JUMP JUMPDEST PUSH1 0x0 DUP2 DUP4 PUSH2 0x1BA7 SWAP2 SWAP1 PUSH2 0x2996 JUMP JUMPDEST SWAP1 POP SWAP3 SWAP2 POP POP JUMP JUMPDEST PUSH1 0x0 DUP1 PUSH1 0x0 SWAP1 SLOAD SWAP1 PUSH2 0x100 EXP SWAP1 DIV PUSH20 0xFFFFFFFFFFFFFFFFFFFFFFFFFFFFFFFFFFFFFFFF AND SWAP1 POP DUP2 PUSH1 0x0 DUP1 PUSH2 0x100 EXP DUP2 SLOAD DUP2 PUSH20 0xFFFFFFFFFFFFFFFFFFFFFFFFFFFFFFFFFFFFFFFF MUL NOT AND SWAP1 DUP4 PUSH20 0xFFFFFFFFFFFFFFFFFFFFFFFFFFFFFFFFFFFFFFFF AND MUL OR SWAP1 SSTORE POP DUP2 PUSH20 0xFFFFFFFFFFFFFFFFFFFFFFFFFFFFFFFFFFFFFFFF AND DUP2 PUSH20 0xFFFFFFFFFFFFFFFFFFFFFFFFFFFFFFFFFFFFFFFF AND PUSH32 0x8BE0079C531659141344CD1FD0A4F28419497F9722A3DAAFE3B4186F6B6457E0 PUSH1 0x40 MLOAD PUSH1 0x40 MLOAD DUP1 SWAP2 SUB SWAP1 LOG3 POP POP JUMP JUMPDEST PUSH1 0x0 PUSH2 0x1CD5 DUP3 PUSH1 0x40 MLOAD DUP1 PUSH1 0x40 ADD PUSH1 0x40 MSTORE DUP1 PUSH1 0x20 DUP2 MSTORE PUSH1 0x20 ADD PUSH32 0x5361666545524332303A206C6F772D6C6576656C2063616C6C206661696C6564 DUP2 MSTORE POP DUP6 PUSH20 0xFFFFFFFFFFFFFFFFFFFFFFFFFFFFFFFFFFFFFFFF AND PUSH2 0x1D6E SWAP1 SWAP3 SWAP2 SWAP1 PUSH4 0xFFFFFFFF AND JUMP JUMPDEST SWAP1 POP PUSH1 0x0 DUP2 MLOAD GT ISZERO PUSH2 0x1D35 JUMPI DUP1 DUP1 PUSH1 0x20 ADD SWAP1 MLOAD DUP2 ADD SWAP1 PUSH2 0x1CF5 SWAP2 SWAP1 PUSH2 0x2CD8 JUMP JUMPDEST PUSH2 0x1D34 JUMPI PUSH1 0x40 MLOAD PUSH32 0x8C379A000000000000000000000000000000000000000000000000000000000 DUP2 MSTORE PUSH1 0x4 ADD PUSH2 0x1D2B SWAP1 PUSH2 0x2D77 JUMP JUMPDEST PUSH1 0x40 MLOAD DUP1 SWAP2 SUB SWAP1 REVERT JUMPDEST JUMPDEST POP POP POP JUMP JUMPDEST PUSH1 0x0 TIMESTAMP SWAP1 POP SWAP1 JUMP JUMPDEST PUSH1 0x0 DUP2 DUP4 PUSH2 0x1D50 SWAP2 SWAP1 PUSH2 0x2DC6 JUMP JUMPDEST SWAP1 POP SWAP3 SWAP2 POP POP JUMP JUMPDEST PUSH1 0x0 DUP2 DUP4 PUSH2 0x1D66 SWAP2 SWAP1 PUSH2 0x2DF7 JUMP JUMPDEST SWAP1 POP SWAP3 SWAP2 POP POP JUMP JUMPDEST PUSH1 0x60 PUSH2 0x1D7D DUP5 DUP5 PUSH1 0x0 DUP6 PUSH2 0x1D86 JUMP JUMPDEST SWAP1 POP SWAP4 SWAP3 POP POP POP JUMP JUMPDEST PUSH1 0x60 DUP3 SELFBALANCE LT ISZERO PUSH2 0x1DCB JUMPI PUSH1 0x40 MLOAD PUSH32 0x8C379A000000000000000000000000000000000000000000000000000000000 DUP2 MSTORE PUSH1 0x4 ADD PUSH2 0x1DC2 SWAP1 PUSH2 0x2EC3 JUMP JUMPDEST PUSH1 0x40 MLOAD DUP1 SWAP2 SUB SWAP1 REVERT JUMPDEST PUSH2 0x1DD4 DUP6 PUSH2 0x1E9A JUMP JUMPDEST PUSH2 0x1E13 JUMPI PUSH1 0x40 MLOAD PUSH32 0x8C379A000000000000000000000000000000000000000000000000000000000 DUP2 MSTORE PUSH1 0x4 ADD PUSH2 0x1E0A SWAP1 PUSH2 0x2F2F JUMP JUMPDEST PUSH1 0x40 MLOAD DUP1 SWAP2 SUB SWAP1 REVERT JUMPDEST PUSH1 0x0 DUP1 DUP7 PUSH20 0xFFFFFFFFFFFFFFFFFFFFFFFFFFFFFFFFFFFFFFFF AND DUP6 DUP8 PUSH1 0x40 MLOAD PUSH2 0x1E3C SWAP2 SWAP1 PUSH2 0x2FC9 JUMP JUMPDEST PUSH1 0x0 PUSH1 0x40 MLOAD DUP1 DUP4 SUB DUP2 DUP6 DUP8 GAS CALL SWAP3 POP POP POP RETURNDATASIZE DUP1 PUSH1 0x0 DUP2 EQ PUSH2 0x1E79 JUMPI PUSH1 0x40 MLOAD SWAP2 POP PUSH1 0x1F NOT PUSH1 0x3F RETURNDATASIZE ADD AND DUP3 ADD PUSH1 0x40 MSTORE RETURNDATASIZE DUP3 MSTORE RETURNDATASIZE PUSH1 0x0 PUSH1 0x20 DUP5 ADD RETURNDATACOPY PUSH2 0x1E7E JUMP JUMPDEST PUSH1 0x60 SWAP2 POP JUMPDEST POP SWAP2 POP SWAP2 POP PUSH2 0x1E8E DUP3 DUP3 DUP7 PUSH2 0x1EBD JUMP JUMPDEST SWAP3 POP POP POP SWAP5 SWAP4 POP POP POP POP JUMP JUMPDEST PUSH1 0x0 DUP1 DUP3 PUSH20 0xFFFFFFFFFFFFFFFFFFFFFFFFFFFFFFFFFFFFFFFF AND EXTCODESIZE GT SWAP1 POP SWAP2 SWAP1 POP JUMP JUMPDEST PUSH1 0x60 DUP4 ISZERO PUSH2 0x1ECD JUMPI DUP3 SWAP1 POP PUSH2 0x1F1D JUMP JUMPDEST PUSH1 0x0 DUP4 MLOAD GT ISZERO PUSH2 0x1EE0 JUMPI DUP3 MLOAD DUP1 DUP5 PUSH1 0x20 ADD REVERT JUMPDEST DUP2 PUSH1 0x40 MLOAD PUSH32 0x8C379A000000000000000000000000000000000000000000000000000000000 DUP2 MSTORE PUSH1 0x4 ADD PUSH2 0x1F14 SWAP2 SWAP1 PUSH2 0x3035 JUMP JUMPDEST PUSH1 0x40 MLOAD DUP1 SWAP2 SUB SWAP1 REVERT JUMPDEST SWAP4 SWAP3 POP POP POP JUMP JUMPDEST PUSH1 0x40 MLOAD DUP1 PUSH2 0x140 ADD PUSH1 0x40 MSTORE DUP1 PUSH1 0x0 ISZERO ISZERO DUP2 MSTORE PUSH1 0x20 ADD PUSH1 0x0 PUSH20 0xFFFFFFFFFFFFFFFFFFFFFFFFFFFFFFFFFFFFFFFF AND DUP2 MSTORE PUSH1 0x20 ADD PUSH1 0x0 DUP2 MSTORE PUSH1 0x20 ADD PUSH1 0x0 DUP2 MSTORE PUSH1 0x20 ADD PUSH1 0x0 DUP2 MSTORE PUSH1 0x20 ADD PUSH1 0x0 DUP2 MSTORE PUSH1 0x20 ADD PUSH1 0x0 ISZERO ISZERO DUP2 MSTORE PUSH1 0x20 ADD PUSH1 0x0 DUP2 MSTORE PUSH1 0x20 ADD PUSH1 0x0 DUP2 MSTORE PUSH1 0x20 ADD PUSH1 0x0 ISZERO ISZERO DUP2 MSTORE POP SWAP1 JUMP JUMPDEST PUSH1 0x0 DUP2 SWAP1 POP SWAP2 SWAP1 POP JUMP JUMPDEST PUSH2 0x1FA6 DUP2 PUSH2 0x1F93 JUMP JUMPDEST DUP3 MSTORE POP POP JUMP JUMPDEST PUSH1 0x0 PUSH1 0x20 DUP3 ADD SWAP1 POP PUSH2 0x1FC1 PUSH1 0x0 DUP4 ADD DUP5 PUSH2 0x1F9D JUMP JUMPDEST SWAP3 SWAP2 POP POP JUMP JUMPDEST PUSH1 0x0 DUP1 REVERT JUMPDEST PUSH1 0x0 PUSH20 0xFFFFFFFFFFFFFFFFFFFFFFFFFFFFFFFFFFFFFFFF DUP3 AND SWAP1 POP SWAP2 SWAP1 POP JUMP JUMPDEST PUSH1 0x0 PUSH2 0x1FF7 DUP3 PUSH2 0x1FCC JUMP JUMPDEST SWAP1 POP SWAP2 SWAP1 POP JUMP JUMPDEST PUSH2 0x2007 DUP2 PUSH2 0x1FEC JUMP JUMPDEST DUP2 EQ PUSH2 0x2012 JUMPI PUSH1 0x0 DUP1 REVERT JUMPDEST POP JUMP JUMPDEST PUSH1 0x0 DUP2 CALLDATALOAD SWAP1 POP PUSH2 0x2024 DUP2 PUSH2 0x1FFE JUMP JUMPDEST SWAP3 SWAP2 POP POP JUMP JUMPDEST PUSH2 0x2033 DUP2 PUSH2 0x1F93 JUMP JUMPDEST DUP2 EQ PUSH2 0x203E JUMPI PUSH1 0x0 DUP1 REVERT JUMPDEST POP JUMP JUMPDEST PUSH1 0x0 DUP2 CALLDATALOAD SWAP1 POP PUSH2 0x2050 DUP2 PUSH2 0x202A JUMP JUMPDEST SWAP3 SWAP2 POP POP JUMP JUMPDEST PUSH1 0x0 DUP2 ISZERO ISZERO SWAP1 POP SWAP2 SWAP1 POP JUMP JUMPDEST PUSH2 0x206B DUP2 PUSH2 0x2056 JUMP JUMPDEST DUP2 EQ PUSH2 0x2076 JUMPI PUSH1 0x0 DUP1 REVERT JUMPDEST POP JUMP JUMPDEST PUSH1 0x0 DUP2 CALLDATALOAD SWAP1 POP PUSH2 0x2088 DUP2 PUSH2 0x2062 JUMP JUMPDEST SWAP3 SWAP2 POP POP JUMP JUMPDEST PUSH1 0x0 DUP1 PUSH1 0x0 DUP1 PUSH1 0x0 DUP1 PUSH1 0x0 PUSH1 0xE0 DUP9 DUP11 SUB SLT ISZERO PUSH2 0x20AD JUMPI PUSH2 0x20AC PUSH2 0x1FC7 JUMP JUMPDEST JUMPDEST PUSH1 0x0 PUSH2 0x20BB DUP11 DUP3 DUP12 ADD PUSH2 0x2015 JUMP JUMPDEST SWAP8 POP POP PUSH1 0x20 PUSH2 0x20CC DUP11 DUP3 DUP12 ADD PUSH2 0x2041 JUMP JUMPDEST SWAP7 POP POP PUSH1 0x40 PUSH2 0x20DD DUP11 DUP3 DUP12 ADD PUSH2 0x2041 JUMP JUMPDEST SWAP6 POP POP PUSH1 0x60 PUSH2 0x20EE DUP11 DUP3 DUP12 ADD PUSH2 0x2041 JUMP JUMPDEST SWAP5 POP POP PUSH1 0x80 PUSH2 0x20FF DUP11 DUP3 DUP12 ADD PUSH2 0x2041 JUMP JUMPDEST SWAP4 POP POP PUSH1 0xA0 PUSH2 0x2110 DUP11 DUP3 DUP12 ADD PUSH2 0x2079 JUMP JUMPDEST SWAP3 POP POP PUSH1 0xC0 PUSH2 0x2121 DUP11 DUP3 DUP12 ADD PUSH2 0x2041 JUMP JUMPDEST SWAP2 POP POP SWAP3 SWAP6 SWAP9 SWAP2 SWAP5 SWAP8 POP SWAP3 SWAP6 POP JUMP JUMPDEST PUSH2 0x2139 DUP2 PUSH2 0x1FEC JUMP JUMPDEST DUP3 MSTORE POP POP JUMP JUMPDEST PUSH1 0x0 PUSH1 0x20 DUP3 ADD SWAP1 POP PUSH2 0x2154 PUSH1 0x0 DUP4 ADD DUP5 PUSH2 0x2130 JUMP JUMPDEST SWAP3 SWAP2 POP POP JUMP JUMPDEST PUSH1 0x0 PUSH1 0x20 DUP3 DUP5 SUB SLT ISZERO PUSH2 0x2170 JUMPI PUSH2 0x216F PUSH2 0x1FC7 JUMP JUMPDEST JUMPDEST PUSH1 0x0 PUSH2 0x217E DUP5 DUP3 DUP6 ADD PUSH2 0x2041 JUMP JUMPDEST SWAP2 POP POP SWAP3 SWAP2 POP POP JUMP JUMPDEST PUSH1 0x0 PUSH1 0x20 DUP3 DUP5 SUB SLT ISZERO PUSH2 0x219D JUMPI PUSH2 0x219C PUSH2 0x1FC7 JUMP JUMPDEST JUMPDEST PUSH1 0x0 PUSH2 0x21AB DUP5 DUP3 DUP6 ADD PUSH2 0x2015 JUMP JUMPDEST SWAP2 POP POP SWAP3 SWAP2 POP POP JUMP JUMPDEST PUSH1 0x0 DUP2 SWAP1 POP SWAP2 SWAP1 POP JUMP JUMPDEST PUSH2 0x21C7 DUP2 PUSH2 0x21B4 JUMP JUMPDEST DUP2 EQ PUSH2 0x21D2 JUMPI PUSH1 0x0 DUP1 REVERT JUMPDEST POP JUMP JUMPDEST PUSH1 0x0 DUP2 CALLDATALOAD SWAP1 POP PUSH2 0x21E4 DUP2 PUSH2 0x21BE JUMP JUMPDEST SWAP3 SWAP2 POP POP JUMP JUMPDEST PUSH1 0x0 DUP1 PUSH1 0x40 DUP4 DUP6 SUB SLT ISZERO PUSH2 0x2201 JUMPI PUSH2 0x2200 PUSH2 0x1FC7 JUMP JUMPDEST JUMPDEST PUSH1 0x0 PUSH2 0x220F DUP6 DUP3 DUP7 ADD PUSH2 0x21D5 JUMP JUMPDEST SWAP3 POP POP PUSH1 0x20 PUSH2 0x2220 DUP6 DUP3 DUP7 ADD PUSH2 0x2041 JUMP JUMPDEST SWAP2 POP POP SWAP3 POP SWAP3 SWAP1 POP JUMP JUMPDEST PUSH2 0x2233 DUP2 PUSH2 0x2056 JUMP JUMPDEST DUP3 MSTORE POP POP JUMP JUMPDEST PUSH2 0x2242 DUP2 PUSH2 0x1FEC JUMP JUMPDEST DUP3 MSTORE POP POP JUMP JUMPDEST PUSH2 0x2251 DUP2 PUSH2 0x1F93 JUMP JUMPDEST DUP3 MSTORE POP POP JUMP JUMPDEST PUSH2 0x140 DUP3 ADD PUSH1 0x0 DUP3 ADD MLOAD PUSH2 0x226E PUSH1 0x0 DUP6 ADD DUP3 PUSH2 0x222A JUMP JUMPDEST POP PUSH1 0x20 DUP3 ADD MLOAD PUSH2 0x2281 PUSH1 0x20 DUP6 ADD DUP3 PUSH2 0x2239 JUMP JUMPDEST POP PUSH1 0x40 DUP3 ADD MLOAD PUSH2 0x2294 PUSH1 0x40 DUP6 ADD DUP3 PUSH2 0x2248 JUMP JUMPDEST POP PUSH1 0x60 DUP3 ADD MLOAD PUSH2 0x22A7 PUSH1 0x60 DUP6 ADD DUP3 PUSH2 0x2248 JUMP JUMPDEST POP PUSH1 0x80 DUP3 ADD MLOAD PUSH2 0x22BA PUSH1 0x80 DUP6 ADD DUP3 PUSH2 0x2248 JUMP JUMPDEST POP PUSH1 0xA0 DUP3 ADD MLOAD PUSH2 0x22CD PUSH1 0xA0 DUP6 ADD DUP3 PUSH2 0x2248 JUMP JUMPDEST POP PUSH1 0xC0 DUP3 ADD MLOAD PUSH2 0x22E0 PUSH1 0xC0 DUP6 ADD DUP3 PUSH2 0x222A JUMP JUMPDEST POP PUSH1 0xE0 DUP3 ADD MLOAD PUSH2 0x22F3 PUSH1 0xE0 DUP6 ADD DUP3 PUSH2 0x2248 JUMP JUMPDEST POP PUSH2 0x100 DUP3 ADD MLOAD PUSH2 0x2308 PUSH2 0x100 DUP6 ADD DUP3 PUSH2 0x2248 JUMP JUMPDEST POP PUSH2 0x120 DUP3 ADD MLOAD PUSH2 0x231D PUSH2 0x120 DUP6 ADD DUP3 PUSH2 0x222A JUMP JUMPDEST POP POP POP POP JUMP JUMPDEST PUSH1 0x0 PUSH2 0x140 DUP3 ADD SWAP1 POP PUSH2 0x2339 PUSH1 0x0 DUP4 ADD DUP5 PUSH2 0x2257 JUMP JUMPDEST SWAP3 SWAP2 POP POP JUMP JUMPDEST PUSH1 0x0 DUP1 PUSH1 0x40 DUP4 DUP6 SUB SLT ISZERO PUSH2 0x2356 JUMPI PUSH2 0x2355 PUSH2 0x1FC7 JUMP JUMPDEST JUMPDEST PUSH1 0x0 PUSH2 0x2364 DUP6 DUP3 DUP7 ADD PUSH2 0x2015 JUMP JUMPDEST SWAP3 POP POP PUSH1 0x20 PUSH2 0x2375 DUP6 DUP3 DUP7 ADD PUSH2 0x2041 JUMP JUMPDEST SWAP2 POP POP SWAP3 POP SWAP3 SWAP1 POP JUMP JUMPDEST PUSH2 0x2388 DUP2 PUSH2 0x21B4 JUMP JUMPDEST DUP3 MSTORE POP POP JUMP JUMPDEST PUSH1 0x0 PUSH1 0x20 DUP3 ADD SWAP1 POP PUSH2 0x23A3 PUSH1 0x0 DUP4 ADD DUP5 PUSH2 0x237F JUMP JUMPDEST SWAP3 SWAP2 POP POP JUMP JUMPDEST PUSH1 0x0 PUSH1 0x20 DUP3 DUP5 SUB SLT ISZERO PUSH2 0x23BF JUMPI PUSH2 0x23BE PUSH2 0x1FC7 JUMP JUMPDEST JUMPDEST PUSH1 0x0 PUSH2 0x23CD DUP5 DUP3 DUP6 ADD PUSH2 0x21D5 JUMP JUMPDEST SWAP2 POP POP SWAP3 SWAP2 POP POP JUMP JUMPDEST PUSH1 0x0 DUP3 DUP3 MSTORE PUSH1 0x20 DUP3 ADD SWAP1 POP SWAP3 SWAP2 POP POP JUMP JUMPDEST PUSH32 0x4F776E61626C653A2063616C6C6572206973206E6F7420746865206F776E6572 PUSH1 0x0 DUP3 ADD MSTORE POP JUMP JUMPDEST PUSH1 0x0 PUSH2 0x241D PUSH1 0x20 DUP4 PUSH2 0x23D6 JUMP JUMPDEST SWAP2 POP PUSH2 0x2428 DUP3 PUSH2 0x23E7 JUMP JUMPDEST PUSH1 0x20 DUP3 ADD SWAP1 POP SWAP2 SWAP1 POP JUMP JUMPDEST PUSH1 0x0 PUSH1 0x20 DUP3 ADD SWAP1 POP DUP2 DUP2 SUB PUSH1 0x0 DUP4 ADD MSTORE PUSH2 0x244C DUP2 PUSH2 0x2410 JUMP JUMPDEST SWAP1 POP SWAP2 SWAP1 POP JUMP JUMPDEST PUSH1 0x0 DUP2 MLOAD SWAP1 POP PUSH2 0x2462 DUP2 PUSH2 0x202A JUMP JUMPDEST SWAP3 SWAP2 POP POP JUMP JUMPDEST PUSH1 0x0 PUSH1 0x20 DUP3 DUP5 SUB SLT ISZERO PUSH2 0x247E JUMPI PUSH2 0x247D PUSH2 0x1FC7 JUMP JUMPDEST JUMPDEST PUSH1 0x0 PUSH2 0x248C DUP5 DUP3 DUP6 ADD PUSH2 0x2453 JUMP JUMPDEST SWAP2 POP POP SWAP3 SWAP2 POP POP JUMP JUMPDEST PUSH32 0x546F6B656E56657374696E673A2063616E6E6F74206372656174652076657374 PUSH1 0x0 DUP3 ADD MSTORE PUSH32 0x696E67207363686564756C652062656361757365206E6F742073756666696369 PUSH1 0x20 DUP3 ADD MSTORE PUSH32 0x656E7420746F6B656E7300000000000000000000000000000000000000000000 PUSH1 0x40 DUP3 ADD MSTORE POP JUMP JUMPDEST PUSH1 0x0 PUSH2 0x2517 PUSH1 0x4A DUP4 PUSH2 0x23D6 JUMP JUMPDEST SWAP2 POP PUSH2 0x2522 DUP3 PUSH2 0x2495 JUMP JUMPDEST PUSH1 0x60 DUP3 ADD SWAP1 POP SWAP2 SWAP1 POP JUMP JUMPDEST PUSH1 0x0 PUSH1 0x20 DUP3 ADD SWAP1 POP DUP2 DUP2 SUB PUSH1 0x0 DUP4 ADD MSTORE PUSH2 0x2546 DUP2 PUSH2 0x250A JUMP JUMPDEST SWAP1 POP SWAP2 SWAP1 POP JUMP JUMPDEST PUSH32 0x546F6B656E56657374696E673A206475726174696F6E206D757374206265203E PUSH1 0x0 DUP3 ADD MSTORE PUSH32 0x2030000000000000000000000000000000000000000000000000000000000000 PUSH1 0x20 DUP3 ADD MSTORE POP JUMP JUMPDEST PUSH1 0x0 PUSH2 0x25A9 PUSH1 0x22 DUP4 PUSH2 0x23D6 JUMP JUMPDEST SWAP2 POP PUSH2 0x25B4 DUP3 PUSH2 0x254D JUMP JUMPDEST PUSH1 0x40 DUP3 ADD SWAP1 POP SWAP2 SWAP1 POP JUMP JUMPDEST PUSH1 0x0 PUSH1 0x20 DUP3 ADD SWAP1 POP DUP2 DUP2 SUB PUSH1 0x0 DUP4 ADD MSTORE PUSH2 0x25D8 DUP2 PUSH2 0x259C JUMP JUMPDEST SWAP1 POP SWAP2 SWAP1 POP JUMP JUMPDEST PUSH32 0x546F6B656E56657374696E673A20616D6F756E74206D757374206265203E2030 PUSH1 0x0 DUP3 ADD MSTORE POP JUMP JUMPDEST PUSH1 0x0 PUSH2 0x2615 PUSH1 0x20 DUP4 PUSH2 0x23D6 JUMP JUMPDEST SWAP2 POP PUSH2 0x2620 DUP3 PUSH2 0x25DF JUMP JUMPDEST PUSH1 0x20 DUP3 ADD SWAP1 POP SWAP2 SWAP1 POP JUMP JUMPDEST PUSH1 0x0 PUSH1 0x20 DUP3 ADD SWAP1 POP DUP2 DUP2 SUB PUSH1 0x0 DUP4 ADD MSTORE PUSH2 0x2644 DUP2 PUSH2 0x2608 JUMP JUMPDEST SWAP1 POP SWAP2 SWAP1 POP JUMP JUMPDEST PUSH32 0x546F6B656E56657374696E673A20736C696365506572696F645365636F6E6473 PUSH1 0x0 DUP3 ADD MSTORE PUSH32 0x206D757374206265203E3D203100000000000000000000000000000000000000 PUSH1 0x20 DUP3 ADD MSTORE POP JUMP JUMPDEST PUSH1 0x0 PUSH2 0x26A7 PUSH1 0x2D DUP4 PUSH2 0x23D6 JUMP JUMPDEST SWAP2 POP PUSH2 0x26B2 DUP3 PUSH2 0x264B JUMP JUMPDEST PUSH1 0x40 DUP3 ADD SWAP1 POP SWAP2 SWAP1 POP JUMP JUMPDEST PUSH1 0x0 PUSH1 0x20 DUP3 ADD SWAP1 POP DUP2 DUP2 SUB PUSH1 0x0 DUP4 ADD MSTORE PUSH2 0x26D6 DUP2 PUSH2 0x269A JUMP JUMPDEST SWAP1 POP SWAP2 SWAP1 POP JUMP JUMPDEST PUSH1 0x0 DUP2 MLOAD SWAP1 POP PUSH2 0x26EC DUP2 PUSH2 0x21BE JUMP JUMPDEST SWAP3 SWAP2 POP POP JUMP JUMPDEST PUSH1 0x0 PUSH1 0x20 DUP3 DUP5 SUB SLT ISZERO PUSH2 0x2708 JUMPI PUSH2 0x2707 PUSH2 0x1FC7 JUMP JUMPDEST JUMPDEST PUSH1 0x0 PUSH2 0x2716 DUP5 DUP3 DUP6 ADD PUSH2 0x26DD JUMP JUMPDEST SWAP2 POP POP SWAP3 SWAP2 POP POP JUMP JUMPDEST PUSH32 0x5265656E7472616E637947756172643A207265656E7472616E742063616C6C00 PUSH1 0x0 DUP3 ADD MSTORE POP JUMP JUMPDEST PUSH1 0x0 PUSH2 0x2755 PUSH1 0x1F DUP4 PUSH2 0x23D6 JUMP JUMPDEST SWAP2 POP PUSH2 0x2760 DUP3 PUSH2 0x271F JUMP JUMPDEST PUSH1 0x20 DUP3 ADD SWAP1 POP SWAP2 SWAP1 POP JUMP JUMPDEST PUSH1 0x0 PUSH1 0x20 DUP3 ADD SWAP1 POP DUP2 DUP2 SUB PUSH1 0x0 DUP4 ADD MSTORE PUSH2 0x2784 DUP2 PUSH2 0x2748 JUMP JUMPDEST SWAP1 POP SWAP2 SWAP1 POP JUMP JUMPDEST PUSH32 0x546F6B656E56657374696E673A206E6F7420656E6F7567682077697468647261 PUSH1 0x0 DUP3 ADD MSTORE PUSH32 0x7761626C652066756E6473000000000000000000000000000000000000000000 PUSH1 0x20 DUP3 ADD MSTORE POP JUMP JUMPDEST PUSH1 0x0 PUSH2 0x27E7 PUSH1 0x2B DUP4 PUSH2 0x23D6 JUMP JUMPDEST SWAP2 POP PUSH2 0x27F2 DUP3 PUSH2 0x278B JUMP JUMPDEST PUSH1 0x40 DUP3 ADD SWAP1 POP SWAP2 SWAP1 POP JUMP JUMPDEST PUSH1 0x0 PUSH1 0x20 DUP3 ADD SWAP1 POP DUP2 DUP2 SUB PUSH1 0x0 DUP4 ADD MSTORE PUSH2 0x2816 DUP2 PUSH2 0x27DA JUMP JUMPDEST SWAP1 POP SWAP2 SWAP1 POP JUMP JUMPDEST PUSH32 0x546F6B656E56657374696E673A206F6E6C792062656E65666963696172792061 PUSH1 0x0 DUP3 ADD MSTORE PUSH32 0x6E64206F776E65722063616E2072656C656173652076657374656420746F6B65 PUSH1 0x20 DUP3 ADD MSTORE PUSH32 0x6E73000000000000000000000000000000000000000000000000000000000000 PUSH1 0x40 DUP3 ADD MSTORE POP JUMP JUMPDEST PUSH1 0x0 PUSH2 0x289F PUSH1 0x42 DUP4 PUSH2 0x23D6 JUMP JUMPDEST SWAP2 POP PUSH2 0x28AA DUP3 PUSH2 0x281D JUMP JUMPDEST PUSH1 0x60 DUP3 ADD SWAP1 POP SWAP2 SWAP1 POP JUMP JUMPDEST PUSH1 0x0 PUSH1 0x20 DUP3 ADD SWAP1 POP DUP2 DUP2 SUB PUSH1 0x0 DUP4 ADD MSTORE PUSH2 0x28CE DUP2 PUSH2 0x2892 JUMP JUMPDEST SWAP1 POP SWAP2 SWAP1 POP JUMP JUMPDEST PUSH32 0x546F6B656E56657374696E673A2063616E6E6F742072656C6561736520746F6B PUSH1 0x0 DUP3 ADD MSTORE PUSH32 0x656E732C206E6F7420656E6F7567682076657374656420746F6B656E73000000 PUSH1 0x20 DUP3 ADD MSTORE POP JUMP JUMPDEST PUSH1 0x0 PUSH2 0x2931 PUSH1 0x3D DUP4 PUSH2 0x23D6 JUMP JUMPDEST SWAP2 POP PUSH2 0x293C DUP3 PUSH2 0x28D5 JUMP JUMPDEST PUSH1 0x40 DUP3 ADD SWAP1 POP SWAP2 SWAP1 POP JUMP JUMPDEST PUSH1 0x0 PUSH1 0x20 DUP3 ADD SWAP1 POP DUP2 DUP2 SUB PUSH1 0x0 DUP4 ADD MSTORE PUSH2 0x2960 DUP2 PUSH2 0x2924 JUMP JUMPDEST SWAP1 POP SWAP2 SWAP1 POP JUMP JUMPDEST PUSH32 0x4E487B7100000000000000000000000000000000000000000000000000000000 PUSH1 0x0 MSTORE PUSH1 0x11 PUSH1 0x4 MSTORE PUSH1 0x24 PUSH1 0x0 REVERT JUMPDEST PUSH1 0x0 PUSH2 0x29A1 DUP3 PUSH2 0x1F93 JUMP JUMPDEST SWAP2 POP PUSH2 0x29AC DUP4 PUSH2 0x1F93 JUMP JUMPDEST SWAP3 POP DUP3 DUP3 LT ISZERO PUSH2 0x29BF JUMPI PUSH2 0x29BE PUSH2 0x2967 JUMP JUMPDEST JUMPDEST DUP3 DUP3 SUB SWAP1 POP SWAP3 SWAP2 POP POP JUMP JUMPDEST PUSH1 0x0 DUP2 PUSH1 0x60 SHL SWAP1 POP SWAP2 SWAP1 POP JUMP JUMPDEST PUSH1 0x0 PUSH2 0x29E2 DUP3 PUSH2 0x29CA JUMP JUMPDEST SWAP1 POP SWAP2 SWAP1 POP JUMP JUMPDEST PUSH1 0x0 PUSH2 0x29F4 DUP3 PUSH2 0x29D7 JUMP JUMPDEST SWAP1 POP SWAP2 SWAP1 POP JUMP JUMPDEST PUSH2 0x2A0C PUSH2 0x2A07 DUP3 PUSH2 0x1FEC JUMP JUMPDEST PUSH2 0x29E9 JUMP JUMPDEST DUP3 MSTORE POP POP JUMP JUMPDEST PUSH1 0x0 DUP2 SWAP1 POP SWAP2 SWAP1 POP JUMP JUMPDEST PUSH2 0x2A2D PUSH2 0x2A28 DUP3 PUSH2 0x1F93 JUMP JUMPDEST PUSH2 0x2A12 JUMP JUMPDEST DUP3 MSTORE POP POP JUMP JUMPDEST PUSH1 0x0 PUSH2 0x2A3F DUP3 DUP6 PUSH2 0x29FB JUMP JUMPDEST PUSH1 0x14 DUP3 ADD SWAP2 POP PUSH2 0x2A4F DUP3 DUP5 PUSH2 0x2A1C JUMP JUMPDEST PUSH1 0x20 DUP3 ADD SWAP2 POP DUP2 SWAP1 POP SWAP4 SWAP3 POP POP POP JUMP JUMPDEST PUSH32 0x546F6B656E56657374696E673A2076657374696E67206973206E6F7420726576 PUSH1 0x0 DUP3 ADD MSTORE PUSH32 0x6F6361626C650000000000000000000000000000000000000000000000000000 PUSH1 0x20 DUP3 ADD MSTORE POP JUMP JUMPDEST PUSH1 0x0 PUSH2 0x2ABB PUSH1 0x26 DUP4 PUSH2 0x23D6 JUMP JUMPDEST SWAP2 POP PUSH2 0x2AC6 DUP3 PUSH2 0x2A5F JUMP JUMPDEST PUSH1 0x40 DUP3 ADD SWAP1 POP SWAP2 SWAP1 POP JUMP JUMPDEST PUSH1 0x0 PUSH1 0x20 DUP3 ADD SWAP1 POP DUP2 DUP2 SUB PUSH1 0x0 DUP4 ADD MSTORE PUSH2 0x2AEA DUP2 PUSH2 0x2AAE JUMP JUMPDEST SWAP1 POP SWAP2 SWAP1 POP JUMP JUMPDEST PUSH32 0x4F776E61626C653A206E6577206F776E657220697320746865207A65726F2061 PUSH1 0x0 DUP3 ADD MSTORE PUSH32 0x6464726573730000000000000000000000000000000000000000000000000000 PUSH1 0x20 DUP3 ADD MSTORE POP JUMP JUMPDEST PUSH1 0x0 PUSH2 0x2B4D PUSH1 0x26 DUP4 PUSH2 0x23D6 JUMP JUMPDEST SWAP2 POP PUSH2 0x2B58 DUP3 PUSH2 0x2AF1 JUMP JUMPDEST PUSH1 0x40 DUP3 ADD SWAP1 POP SWAP2 SWAP1 POP JUMP JUMPDEST PUSH1 0x0 PUSH1 0x20 DUP3 ADD SWAP1 POP DUP2 DUP2 SUB PUSH1 0x0 DUP4 ADD MSTORE PUSH2 0x2B7C DUP2 PUSH2 0x2B40 JUMP JUMPDEST SWAP1 POP SWAP2 SWAP1 POP JUMP JUMPDEST PUSH32 0x546F6B656E56657374696E673A20496E646578206F7574206F6620626F756E64 PUSH1 0x0 DUP3 ADD MSTORE PUSH32 0x7300000000000000000000000000000000000000000000000000000000000000 PUSH1 0x20 DUP3 ADD MSTORE POP JUMP JUMPDEST PUSH1 0x0 PUSH2 0x2BDF PUSH1 0x21 DUP4 PUSH2 0x23D6 JUMP JUMPDEST SWAP2 POP PUSH2 0x2BEA DUP3 PUSH2 0x2B83 JUMP JUMPDEST PUSH1 0x40 DUP3 ADD SWAP1 POP SWAP2 SWAP1 POP JUMP JUMPDEST PUSH1 0x0 PUSH1 0x20 DUP3 ADD SWAP1 POP DUP2 DUP2 SUB PUSH1 0x0 DUP4 ADD MSTORE PUSH2 0x2C0E DUP2 PUSH2 0x2BD2 JUMP JUMPDEST SWAP1 POP SWAP2 SWAP1 POP JUMP JUMPDEST PUSH32 0x4E487B7100000000000000000000000000000000000000000000000000000000 PUSH1 0x0 MSTORE PUSH1 0x32 PUSH1 0x4 MSTORE PUSH1 0x24 PUSH1 0x0 REVERT JUMPDEST PUSH1 0x0 PUSH2 0x2C4F DUP3 PUSH2 0x1F93 JUMP JUMPDEST SWAP2 POP PUSH2 0x2C5A DUP4 PUSH2 0x1F93 JUMP JUMPDEST SWAP3 POP DUP3 PUSH32 0xFFFFFFFFFFFFFFFFFFFFFFFFFFFFFFFFFFFFFFFFFFFFFFFFFFFFFFFFFFFFFFFF SUB DUP3 GT ISZERO PUSH2 0x2C8F JUMPI PUSH2 0x2C8E PUSH2 0x2967 JUMP JUMPDEST JUMPDEST DUP3 DUP3 ADD SWAP1 POP SWAP3 SWAP2 POP POP JUMP JUMPDEST PUSH1 0x0 PUSH1 0x40 DUP3 ADD SWAP1 POP PUSH2 0x2CAF PUSH1 0x0 DUP4 ADD DUP6 PUSH2 0x2130 JUMP JUMPDEST PUSH2 0x2CBC PUSH1 0x20 DUP4 ADD DUP5 PUSH2 0x1F9D JUMP JUMPDEST SWAP4 SWAP3 POP POP POP JUMP JUMPDEST PUSH1 0x0 DUP2 MLOAD SWAP1 POP PUSH2 0x2CD2 DUP2 PUSH2 0x2062 JUMP JUMPDEST SWAP3 SWAP2 POP POP JUMP JUMPDEST PUSH1 0x0 PUSH1 0x20 DUP3 DUP5 SUB SLT ISZERO PUSH2 0x2CEE JUMPI PUSH2 0x2CED PUSH2 0x1FC7 JUMP JUMPDEST JUMPDEST PUSH1 0x0 PUSH2 0x2CFC DUP5 DUP3 DUP6 ADD PUSH2 0x2CC3 JUMP JUMPDEST SWAP2 POP POP SWAP3 SWAP2 POP POP JUMP JUMPDEST PUSH32 0x5361666545524332303A204552433230206F7065726174696F6E20646964206E PUSH1 0x0 DUP3 ADD MSTORE PUSH32 0x6F74207375636365656400000000000000000000000000000000000000000000 PUSH1 0x20 DUP3 ADD MSTORE POP JUMP JUMPDEST PUSH1 0x0 PUSH2 0x2D61 PUSH1 0x2A DUP4 PUSH2 0x23D6 JUMP JUMPDEST SWAP2 POP PUSH2 0x2D6C DUP3 PUSH2 0x2D05 JUMP JUMPDEST PUSH1 0x40 DUP3 ADD SWAP1 POP SWAP2 SWAP1 POP JUMP JUMPDEST PUSH1 0x0 PUSH1 0x20 DUP3 ADD SWAP1 POP DUP2 DUP2 SUB PUSH1 0x0 DUP4 ADD MSTORE PUSH2 0x2D90 DUP2 PUSH2 0x2D54 JUMP JUMPDEST SWAP1 POP SWAP2 SWAP1 POP JUMP JUMPDEST PUSH32 0x4E487B7100000000000000000000000000000000000000000000000000000000 PUSH1 0x0 MSTORE PUSH1 0x12 PUSH1 0x4 MSTORE PUSH1 0x24 PUSH1 0x0 REVERT JUMPDEST PUSH1 0x0 PUSH2 0x2DD1 DUP3 PUSH2 0x1F93 JUMP JUMPDEST SWAP2 POP PUSH2 0x2DDC DUP4 PUSH2 0x1F93 JUMP JUMPDEST SWAP3 POP DUP3 PUSH2 0x2DEC JUMPI PUSH2 0x2DEB PUSH2 0x2D97 JUMP JUMPDEST JUMPDEST DUP3 DUP3 DIV SWAP1 POP SWAP3 SWAP2 POP POP JUMP JUMPDEST PUSH1 0x0 PUSH2 0x2E02 DUP3 PUSH2 0x1F93 JUMP JUMPDEST SWAP2 POP PUSH2 0x2E0D DUP4 PUSH2 0x1F93 JUMP JUMPDEST SWAP3 POP DUP2 PUSH32 0xFFFFFFFFFFFFFFFFFFFFFFFFFFFFFFFFFFFFFFFFFFFFFFFFFFFFFFFFFFFFFFFF DIV DUP4 GT DUP3 ISZERO ISZERO AND ISZERO PUSH2 0x2E46 JUMPI PUSH2 0x2E45 PUSH2 0x2967 JUMP JUMPDEST JUMPDEST DUP3 DUP3 MUL SWAP1 POP SWAP3 SWAP2 POP POP JUMP JUMPDEST PUSH32 0x416464726573733A20696E73756666696369656E742062616C616E636520666F PUSH1 0x0 DUP3 ADD MSTORE PUSH32 0x722063616C6C0000000000000000000000000000000000000000000000000000 PUSH1 0x20 DUP3 ADD MSTORE POP JUMP JUMPDEST PUSH1 0x0 PUSH2 0x2EAD PUSH1 0x26 DUP4 PUSH2 0x23D6 JUMP JUMPDEST SWAP2 POP PUSH2 0x2EB8 DUP3 PUSH2 0x2E51 JUMP JUMPDEST PUSH1 0x40 DUP3 ADD SWAP1 POP SWAP2 SWAP1 POP JUMP JUMPDEST PUSH1 0x0 PUSH1 0x20 DUP3 ADD SWAP1 POP DUP2 DUP2 SUB PUSH1 0x0 DUP4 ADD MSTORE PUSH2 0x2EDC DUP2 PUSH2 0x2EA0 JUMP JUMPDEST SWAP1 POP SWAP2 SWAP1 POP JUMP JUMPDEST PUSH32 0x416464726573733A2063616C6C20746F206E6F6E2D636F6E7472616374000000 PUSH1 0x0 DUP3 ADD MSTORE POP JUMP JUMPDEST PUSH1 0x0 PUSH2 0x2F19 PUSH1 0x1D DUP4 PUSH2 0x23D6 JUMP JUMPDEST SWAP2 POP PUSH2 0x2F24 DUP3 PUSH2 0x2EE3 JUMP JUMPDEST PUSH1 0x20 DUP3 ADD SWAP1 POP SWAP2 SWAP1 POP JUMP JUMPDEST PUSH1 0x0 PUSH1 0x20 DUP3 ADD SWAP1 POP DUP2 DUP2 SUB PUSH1 0x0 DUP4 ADD MSTORE PUSH2 0x2F48 DUP2 PUSH2 0x2F0C JUMP JUMPDEST SWAP1 POP SWAP2 SWAP1 POP JUMP JUMPDEST PUSH1 0x0 DUP2 MLOAD SWAP1 POP SWAP2 SWAP1 POP JUMP JUMPDEST PUSH1 0x0 DUP2 SWAP1 POP SWAP3 SWAP2 POP POP JUMP JUMPDEST PUSH1 0x0 JUMPDEST DUP4 DUP2 LT ISZERO PUSH2 0x2F83 JUMPI DUP1 DUP3 ADD MLOAD DUP2 DUP5 ADD MSTORE PUSH1 0x20 DUP2 ADD SWAP1 POP PUSH2 0x2F68 JUMP JUMPDEST DUP4 DUP2 GT ISZERO PUSH2 0x2F92 JUMPI PUSH1 0x0 DUP5 DUP5 ADD MSTORE JUMPDEST POP POP POP POP JUMP JUMPDEST PUSH1 0x0 PUSH2 0x2FA3 DUP3 PUSH2 0x2F4F JUMP JUMPDEST PUSH2 0x2FAD DUP2 DUP6 PUSH2 0x2F5A JUMP JUMPDEST SWAP4 POP PUSH2 0x2FBD DUP2 DUP6 PUSH1 0x20 DUP7 ADD PUSH2 0x2F65 JUMP JUMPDEST DUP1 DUP5 ADD SWAP2 POP POP SWAP3 SWAP2 POP POP JUMP JUMPDEST PUSH1 0x0 PUSH2 0x2FD5 DUP3 DUP5 PUSH2 0x2F98 JUMP JUMPDEST SWAP2 POP DUP2 SWAP1 POP SWAP3 SWAP2 POP POP JUMP JUMPDEST PUSH1 0x0 DUP2 MLOAD SWAP1 POP SWAP2 SWAP1 POP JUMP JUMPDEST PUSH1 0x0 PUSH1 0x1F NOT PUSH1 0x1F DUP4 ADD AND SWAP1 POP SWAP2 SWAP1 POP JUMP JUMPDEST PUSH1 0x0 PUSH2 0x3007 DUP3 PUSH2 0x2FE0 JUMP JUMPDEST PUSH2 0x3011 DUP2 DUP6 PUSH2 0x23D6 JUMP JUMPDEST SWAP4 POP PUSH2 0x3021 DUP2 DUP6 PUSH1 0x20 DUP7 ADD PUSH2 0x2F65 JUMP JUMPDEST PUSH2 0x302A DUP2 PUSH2 0x2FEB JUMP JUMPDEST DUP5 ADD SWAP2 POP POP SWAP3 SWAP2 POP POP JUMP JUMPDEST PUSH1 0x0 PUSH1 0x20 DUP3 ADD SWAP1 POP DUP2 DUP2 SUB PUSH1 0x0 DUP4 ADD MSTORE PUSH2 0x304F DUP2 DUP5 PUSH2 0x2FFC JUMP JUMPDEST SWAP1 POP SWAP3 SWAP2 POP POP JUMP INVALID LOG2 PUSH5 0x6970667358 0x22 SLT KECCAK256 PUSH26 0x5D7A2882F0BA0E29A7C5291D3A130C04513822CB5B3197870D9C CALLDATALOAD 0xE3 0xFC PUSH3 0x9A6473 PUSH16 0x6C634300080D00330000000000000000 "
				},
				"gasEstimates": {
					"creation": {
						"codeDepositCost": "2485800",
						"executionCost": "infinite",
						"totalCost": "infinite"
					},
					"external": {
						"": "197",
						"computeNextVestingScheduleIdForHolder(address)": "infinite",
						"computeReleasableAmount(bytes32)": "infinite",
						"computeVestingScheduleIdForAddressAndIndex(address,uint256)": "infinite",
						"createVestingSchedule(address,uint256,uint256,uint256,uint256,bool,uint256)": "infinite",
						"getLastVestingScheduleForHolder(address)": "infinite",
						"getToken()": "infinite",
						"getVestingIdAtIndex(uint256)": "7158",
						"getVestingSchedule(bytes32)": "infinite",
						"getVestingScheduleByAddressAndIndex(address,uint256)": "infinite",
						"getVestingSchedulesCount()": "2469",
						"getVestingSchedulesCountByBeneficiary(address)": "2886",
						"getVestingSchedulesTotalAmount()": "2460",
						"getWithdrawableAmount()": "infinite",
						"owner()": "2567",
						"release(bytes32,uint256)": "infinite",
						"renounceOwnership()": "30463",
						"revoke(bytes32)": "infinite",
						"transferOwnership(address)": "30764",
						"withdraw(uint256)": "infinite"
					},
					"internal": {
						"_computeReleasableAmount(struct TokenVesting.VestingSchedule memory)": "infinite",
						"getCurrentTime()": "22"
					}
				},
				"methodIdentifiers": {
					"computeNextVestingScheduleIdForHolder(address)": "f7c469f0",
					"computeReleasableAmount(bytes32)": "ea1bb3d5",
					"computeVestingScheduleIdForAddressAndIndex(address,uint256)": "8af104da",
					"createVestingSchedule(address,uint256,uint256,uint256,uint256,bool,uint256)": "17e289e9",
					"getLastVestingScheduleForHolder(address)": "7e913dc6",
					"getToken()": "21df0da7",
					"getVestingIdAtIndex(uint256)": "f9079b37",
					"getVestingSchedule(bytes32)": "9ef346b4",
					"getVestingScheduleByAddressAndIndex(address,uint256)": "f51321d7",
					"getVestingSchedulesCount()": "13083617",
					"getVestingSchedulesCountByBeneficiary(address)": "5a7bb69a",
					"getVestingSchedulesTotalAmount()": "48deb471",
					"getWithdrawableAmount()": "90be10cc",
					"owner()": "8da5cb5b",
					"release(bytes32,uint256)": "66afd8ef",
					"renounceOwnership()": "715018a6",
					"revoke(bytes32)": "b75c7dc6",
					"transferOwnership(address)": "f2fde38b",
					"withdraw(uint256)": "2e1a7d4d"
				}
			},
			"userdoc": {
				"kind": "user",
				"methods": {
					"computeReleasableAmount(bytes32)": {
						"notice": "Computes the vested amount of tokens for the given vesting schedule identifier."
					},
					"createVestingSchedule(address,uint256,uint256,uint256,uint256,bool,uint256)": {
						"notice": "Creates a new vesting schedule for a beneficiary."
					},
					"getVestingSchedule(bytes32)": {
						"notice": "Returns the vesting schedule information for a given identifier."
					},
					"getVestingScheduleByAddressAndIndex(address,uint256)": {
						"notice": "Returns the vesting schedule information for a given holder and index."
					},
					"getVestingSchedulesTotalAmount()": {
						"notice": "Returns the total amount of vesting schedules."
					},
					"release(bytes32,uint256)": {
						"notice": "Release vested amount of tokens."
					},
					"revoke(bytes32)": {
						"notice": "Revokes the vesting schedule for given identifier."
					},
					"withdraw(uint256)": {
						"notice": "Withdraw the specified amount if possible."
					}
				},
				"version": 1
			}
		}
	}
}